{
  "_format": "hh-sol-artifact-1",
  "contractName": "HyperFacet",
  "sourceName": "contracts/Facets/HyperFacet.sol",
  "abi": [
    {
      "inputs": [],
      "name": "getCounter",
      "outputs": [
        {
          "internalType": "uint256",
          "name": "",
          "type": "uint256"
        }
      ],
      "stateMutability": "view",
      "type": "function"
    },
    {
      "inputs": [],
      "name": "getGasMaster",
      "outputs": [
        {
          "internalType": "address",
          "name": "",
          "type": "address"
        }
      ],
      "stateMutability": "view",
      "type": "function"
    },
    {
      "inputs": [
        {
          "internalType": "uint32",
          "name": "_origin",
          "type": "uint32"
        },
        {
          "internalType": "bytes32",
          "name": "_sender",
          "type": "bytes32"
        },
        {
          "internalType": "bytes",
          "name": "_body",
          "type": "bytes"
        }
      ],
      "name": "handle",
      "outputs": [],
      "stateMutability": "nonpayable",
      "type": "function"
    },
    {
      "inputs": [
        {
          "internalType": "uint32",
          "name": "domain",
          "type": "uint32"
        },
        {
          "internalType": "uint256",
          "name": "gasAmount",
          "type": "uint256"
        },
        {
          "internalType": "uint256",
          "name": "_value",
          "type": "uint256"
        }
      ],
      "name": "hitEmUp",
      "outputs": [],
      "stateMutability": "payable",
      "type": "function"
    },
    {
      "inputs": [],
      "name": "interchainSecurityModule",
      "outputs": [
        {
          "internalType": "address",
          "name": "",
          "type": "address"
        }
      ],
      "stateMutability": "view",
      "type": "function"
    },
    {
      "inputs": [
        {
          "internalType": "uint256",
          "name": "domainID",
          "type": "uint256"
        },
        {
          "internalType": "address",
          "name": "recipentAddy",
          "type": "address"
        }
      ],
      "name": "setDomainToAddress",
      "outputs": [],
      "stateMutability": "nonpayable",
      "type": "function"
    },
    {
      "inputs": [
        {
          "internalType": "address",
          "name": "localIGP",
          "type": "address"
        }
      ],
      "name": "setGasMaster",
      "outputs": [],
      "stateMutability": "nonpayable",
      "type": "function"
    },
    {
      "inputs": [
        {
          "internalType": "address",
          "name": "ism",
          "type": "address"
        }
      ],
      "name": "setISM",
      "outputs": [],
      "stateMutability": "nonpayable",
      "type": "function"
    },
    {
      "inputs": [
        {
          "internalType": "address",
          "name": "maiLBox",
          "type": "address"
        }
      ],
      "name": "setMailBox",
      "outputs": [],
      "stateMutability": "nonpayable",
      "type": "function"
    }
  ],
  "bytecode": "0x608060405234801561001057600080fd5b506106cd806100206000396000f3fe6080604052600436106100765760003560e01c80632c2cd7491461007b57806337e935fb1461009d57806346b1a342146100b057806356d5d475146100db578063759524ed146100fb5780638ada066e1461011b578063cc4c515d1461013e578063de4a787f1461015e578063de523cf31461017e575b600080fd5b34801561008757600080fd5b5061009b6100963660046104c5565b610193565b005b61009b6100ab3660046104fb565b61019f565b3480156100bc57600080fd5b506100c56101af565b6040516100d2919061052e565b60405180910390f35b3480156100e757600080fd5b5061009b6100f6366004610542565b6101be565b34801561010757600080fd5b5061009b6101163660046104c5565b6101cc565b34801561012757600080fd5b506101306101d5565b6040519081526020016100d2565b34801561014a57600080fd5b5061009b6101593660046105c8565b6101df565b34801561016a57600080fd5b5061009b6101793660046104c5565b6101ed565b34801561018a57600080fd5b506100c56101f6565b61019c81610200565b50565b6101aa83838361022c565b505050565b60006101b9610377565b905090565b6101c6610395565b50505050565b61019c816103ba565b60006101b96103e9565b6101e982826103fe565b5050565b61019c81610438565b60006101b9610467565b600061020a610485565b80546001600160a01b0319166001600160a01b03939093169290921790915550565b6000610236610485565b8054600182015463ffffffff871660009081526003840160205260408120549394506001600160a01b039283169391831692909116908363fa31de01898433604051602001610285919061052e565b6040516020818303038152906040526040518463ffffffff1660e01b81526004016102b2939291906105f4565b6020604051808303816000875af11580156102d1573d6000803e3d6000fd5b505050506040513d601f19601f820116820180604052508101906102f59190610657565b604051630237e58360e31b81526004810182905263ffffffff8a166024820152604481018990523360648201529091506001600160a01b038416906311bf2c189088906084016000604051808303818588803b15801561035457600080fd5b505af1158015610368573d6000803e3d6000fd5b50505050505050505050505050565b600080610382610485565b600101546001600160a01b031692915050565b600061039f610485565b9050806004015460016103b29190610670565b600490910155565b60006103c4610485565b60010180546001600160a01b0319166001600160a01b03939093169290921790915550565b6000806103f4610485565b6004015492915050565b6000610408610485565b600093845260030160205250604090912080546001600160a01b0319166001600160a01b03909216919091179055565b6000610442610485565b60020180546001600160a01b0319166001600160a01b03939093169290921790915550565b600080610472610485565b600201546001600160a01b031692915050565b7f34fbc1afd8e1b9169b38b6c80a52777e06873abc0d2b3f992f7608bdf1bf6ade90565b80356001600160a01b03811681146104c057600080fd5b919050565b6000602082840312156104d757600080fd5b6104e0826104a9565b9392505050565b803563ffffffff811681146104c057600080fd5b60008060006060848603121561051057600080fd5b610519846104e7565b95602085013595506040909401359392505050565b6001600160a01b0391909116815260200190565b6000806000806060858703121561055857600080fd5b610561856104e7565b93506020850135925060408501356001600160401b038082111561058457600080fd5b818701915087601f83011261059857600080fd5b8135818111156105a757600080fd5b8860208285010111156105b957600080fd5b95989497505060200194505050565b600080604083850312156105db57600080fd5b823591506105eb602084016104a9565b90509250929050565b63ffffffff8416815260006020848184015260606040840152835180606085015260005b8181101561063457858101830151858201608001528201610618565b506000608082860101526080601f19601f83011685010192505050949350505050565b60006020828403121561066957600080fd5b5051919050565b8082018082111561069157634e487b7160e01b600052601160045260246000fd5b9291505056fea2646970667358221220eb0ae2c77db8fd31d0ac7cd713eee207156fa1e1a2c0a1dfe58b8e5e23760d5164736f6c63430008140033",
  "linkReferences": {},
  "deployedLinkReferences": {}
}