{
  "_format": "hh-sol-artifact-1",
  "contractName": "HyperFacet",
  "sourceName": "contracts/Facets/HyperFacet.sol",
  "abi": [
    {
      "inputs": [],
      "name": "getCounter",
      "outputs": [
        {
          "internalType": "uint256",
          "name": "",
          "type": "uint256"
        }
      ],
      "stateMutability": "view",
      "type": "function"
    },
    {
      "inputs": [],
      "name": "handle",
      "outputs": [],
      "stateMutability": "nonpayable",
      "type": "function"
    },
    {
      "inputs": [
        {
          "internalType": "uint32",
          "name": "domain",
          "type": "uint32"
        },
        {
          "internalType": "uint256",
          "name": "gasAmount",
          "type": "uint256"
        }
      ],
      "name": "hitEmUp",
      "outputs": [],
      "stateMutability": "payable",
      "type": "function"
    },
    {
      "inputs": [],
      "name": "interchainSecurityModule",
      "outputs": [
        {
          "internalType": "address",
          "name": "",
          "type": "address"
        }
      ],
      "stateMutability": "view",
      "type": "function"
    },
    {
      "inputs": [
        {
          "internalType": "address",
          "name": "localIGP",
          "type": "address"
        }
      ],
      "name": "setGasMaster",
      "outputs": [],
      "stateMutability": "nonpayable",
      "type": "function"
    },
    {
      "inputs": [
        {
          "internalType": "address",
          "name": "ism",
          "type": "address"
        }
      ],
      "name": "setISM",
      "outputs": [],
      "stateMutability": "nonpayable",
      "type": "function"
    },
    {
      "inputs": [
        {
          "internalType": "address",
          "name": "maiLBox",
          "type": "address"
        }
      ],
      "name": "setMailBox",
      "outputs": [],
      "stateMutability": "nonpayable",
      "type": "function"
    }
  ],
  "bytecode": "0x608060405234801561001057600080fd5b5061052a806100206000396000f3fe6080604052600436106100605760003560e01c80632c2cd749146100655780635871836714610087578063759524ed1461009a5780638ada066e146100ba578063de4a787f146100e2578063de523cf314610102578063fd0da09914610124575b600080fd5b34801561007157600080fd5b506100856100803660046103d8565b610139565b005b610085610095366004610408565b610145565b3480156100a657600080fd5b506100856100b53660046103d8565b610153565b3480156100c657600080fd5b506100cf61015c565b6040519081526020015b60405180910390f35b3480156100ee57600080fd5b506100856100fd3660046103d8565b61016b565b34801561010e57600080fd5b50610117610174565b6040516100d9919061043d565b34801561013057600080fd5b5061008561017e565b61014281610188565b50565b61014f82826101b4565b5050565b610142816102fe565b600061016661032d565b905090565b61014281610342565b6000610166610371565b61018661038f565b565b60006101926103b4565b80546001600160a01b0319166001600160a01b03939093169290921790915550565b60006101be6103b4565b8054600182015463ffffffff861660009081526003840160205260408120549394506001600160a01b039283169391831692909116908363fa31de0188843360405160200161020d919061043d565b6040516020818303038152906040526040518463ffffffff1660e01b815260040161023a93929190610451565b6020604051808303816000875af1158015610259573d6000803e3d6000fd5b505050506040513d601f19601f8201168201806040525081019061027d91906104b4565b604051630237e58360e31b81526004810182905263ffffffff89166024820152604481018890523360648201529091506001600160a01b038416906311bf2c189034906084016000604051808303818588803b1580156102dc57600080fd5b505af11580156102f0573d6000803e3d6000fd5b505050505050505050505050565b60006103086103b4565b60010180546001600160a01b0319166001600160a01b03939093169290921790915550565b6000806103386103b4565b6004015492915050565b600061034c6103b4565b60020180546001600160a01b0319166001600160a01b03939093169290921790915550565b60008061037c6103b4565b600201546001600160a01b031692915050565b60006103996103b4565b9050806004015460016103ac91906104cd565b600490910155565b7f34fbc1afd8e1b9169b38b6c80a52777e06873abc0d2b3f992f7608bdf1bf6ade90565b6000602082840312156103ea57600080fd5b81356001600160a01b038116811461040157600080fd5b9392505050565b6000806040838503121561041b57600080fd5b823563ffffffff8116811461042f57600080fd5b946020939093013593505050565b6001600160a01b0391909116815260200190565b63ffffffff8416815260006020848184015260606040840152835180606085015260005b8181101561049157858101830151858201608001528201610475565b506000608082860101526080601f19601f83011685010192505050949350505050565b6000602082840312156104c657600080fd5b5051919050565b808201808211156104ee57634e487b7160e01b600052601160045260246000fd5b9291505056fea264697066735822122047a5a5e311b06b29b2fc6c35cb08dfce6d76342e4e152e47cc8d0ec5238c908564736f6c63430008140033",
  "linkReferences": {},
  "deployedLinkReferences": {}
}