{
  "_format": "hh-sol-artifact-1",
  "contractName": "HyperFacet",
  "sourceName": "contracts/Facets/HyperFacet.sol",
  "abi": [
    {
      "inputs": [
        {
          "internalType": "uint256",
          "name": "domainID",
          "type": "uint256"
        }
      ],
      "name": "getAddressForDomain",
      "outputs": [
        {
          "internalType": "address",
          "name": "",
          "type": "address"
        }
      ],
      "stateMutability": "view",
      "type": "function"
    },
    {
      "inputs": [],
      "name": "getCounter",
      "outputs": [
        {
          "internalType": "uint256",
          "name": "",
          "type": "uint256"
        }
      ],
      "stateMutability": "view",
      "type": "function"
    },
    {
      "inputs": [],
      "name": "getGasMaster",
      "outputs": [
        {
          "internalType": "address",
          "name": "",
          "type": "address"
        }
      ],
      "stateMutability": "view",
      "type": "function"
    },
    {
      "inputs": [
        {
          "internalType": "uint32",
          "name": "domain",
          "type": "uint32"
        },
        {
          "internalType": "uint256",
          "name": "amount",
          "type": "uint256"
        }
      ],
      "name": "getQuote",
      "outputs": [
        {
          "internalType": "uint256",
          "name": "",
          "type": "uint256"
        }
      ],
      "stateMutability": "view",
      "type": "function"
    },
    {
      "inputs": [
        {
          "internalType": "uint32",
          "name": "_origin",
          "type": "uint32"
        },
        {
          "internalType": "bytes32",
          "name": "_sender",
          "type": "bytes32"
        },
        {
          "internalType": "bytes",
          "name": "_body",
          "type": "bytes"
        }
      ],
      "name": "handle",
      "outputs": [],
      "stateMutability": "nonpayable",
      "type": "function"
    },
    {
      "inputs": [
        {
          "internalType": "uint32",
          "name": "domain",
          "type": "uint32"
        },
        {
          "internalType": "uint256",
          "name": "gasAmount",
          "type": "uint256"
        },
        {
          "internalType": "uint256",
          "name": "_value",
          "type": "uint256"
        }
      ],
      "name": "hitEmUp",
      "outputs": [],
      "stateMutability": "payable",
      "type": "function"
    },
    {
      "inputs": [],
      "name": "interchainSecurityModule",
      "outputs": [
        {
          "internalType": "address",
          "name": "",
          "type": "address"
        }
      ],
      "stateMutability": "view",
      "type": "function"
    },
    {
      "inputs": [
        {
          "internalType": "uint256",
          "name": "domainID",
          "type": "uint256"
        },
        {
          "internalType": "address",
          "name": "recipentAddy",
          "type": "address"
        }
      ],
      "name": "setDomainToAddress",
      "outputs": [],
      "stateMutability": "nonpayable",
      "type": "function"
    },
    {
      "inputs": [
        {
          "internalType": "address",
          "name": "localIGP",
          "type": "address"
        }
      ],
      "name": "setGasMaster",
      "outputs": [],
      "stateMutability": "nonpayable",
      "type": "function"
    },
    {
      "inputs": [
        {
          "internalType": "address",
          "name": "ism",
          "type": "address"
        }
      ],
      "name": "setISM",
      "outputs": [],
      "stateMutability": "nonpayable",
      "type": "function"
    },
    {
      "inputs": [
        {
          "internalType": "address",
          "name": "maiLBox",
          "type": "address"
        }
      ],
      "name": "setMailBox",
      "outputs": [],
      "stateMutability": "nonpayable",
      "type": "function"
    }
  ],
  "bytecode": "0x608060405234801561001057600080fd5b50610838806100206000396000f3fe60806040526004361061008c5760003560e01c80632c2cd7491461009157806337e935fb146100b35780633bdfa826146100c657806346b1a342146100fc57806356d5d47514610111578063759524ed146101315780638ada066e14610151578063b0cbd4d614610174578063cc4c515d14610194578063de4a787f146101b4578063de523cf3146101d4575b600080fd5b34801561009d57600080fd5b506100b16100ac3660046105fa565b6101e9565b005b6100b16100c1366004610629565b6101f5565b3480156100d257600080fd5b506100e66100e136600461065c565b610205565b6040516100f39190610675565b60405180910390f35b34801561010857600080fd5b506100e6610216565b34801561011d57600080fd5b506100b161012c366004610689565b610225565b34801561013d57600080fd5b506100b161014c3660046105fa565b610233565b34801561015d57600080fd5b5061016661023c565b6040519081526020016100f3565b34801561018057600080fd5b5061016661018f36600461070f565b610246565b3480156101a057600080fd5b506100b16101af366004610739565b610259565b3480156101c057600080fd5b506100b16101cf3660046105fa565b610267565b3480156101e057600080fd5b506100e6610270565b6101f28161027a565b50565b6102008383836102a6565b505050565b6000610210826103f1565b92915050565b600061022061041a565b905090565b61022d610438565b50505050565b6101f28161045d565b600061022061048c565b600061025283836104a1565b9392505050565b6102638282610533565b5050565b6101f28161056d565b600061022061059c565b60006102846105ba565b80546001600160a01b0319166001600160a01b03939093169290921790915550565b60006102b06105ba565b8054600182015463ffffffff871660009081526003840160205260408120549394506001600160a01b039283169391831692909116908363fa31de018984336040516020016102ff9190610675565b6040516020818303038152906040526040518463ffffffff1660e01b815260040161032c93929190610765565b6020604051808303816000875af115801561034b573d6000803e3d6000fd5b505050506040513d601f19601f8201168201806040525081019061036f91906107c8565b604051630237e58360e31b81526004810182905263ffffffff8a166024820152604481018990523360648201529091506001600160a01b038416906311bf2c189088906084016000604051808303818588803b1580156103ce57600080fd5b505af11580156103e2573d6000803e3d6000fd5b50505050505050505050505050565b6000806103fc6105ba565b6000938452600301602052505060409020546001600160a01b031690565b6000806104256105ba565b600101546001600160a01b031692915050565b60006104426105ba565b90508060040154600161045591906107e1565b600490910155565b60006104676105ba565b60010180546001600160a01b0319166001600160a01b03939093169290921790915550565b6000806104976105ba565b6004015492915050565b6000806104ac6105ba565b600181015460405163a692979360e01b815263ffffffff87166004820152602481018690529192506001600160a01b031690819063a692979390604401602060405180830381865afa158015610506573d6000803e3d6000fd5b505050506040513d601f19601f8201168201806040525081019061052a91906107c8565b95945050505050565b600061053d6105ba565b600093845260030160205250604090912080546001600160a01b0319166001600160a01b03909216919091179055565b60006105776105ba565b60020180546001600160a01b0319166001600160a01b03939093169290921790915550565b6000806105a76105ba565b600201546001600160a01b031692915050565b7f34fbc1afd8e1b9169b38b6c80a52777e06873abc0d2b3f992f7608bdf1bf6ade90565b80356001600160a01b03811681146105f557600080fd5b919050565b60006020828403121561060c57600080fd5b610252826105de565b803563ffffffff811681146105f557600080fd5b60008060006060848603121561063e57600080fd5b61064784610615565b95602085013595506040909401359392505050565b60006020828403121561066e57600080fd5b5035919050565b6001600160a01b0391909116815260200190565b6000806000806060858703121561069f57600080fd5b6106a885610615565b93506020850135925060408501356001600160401b03808211156106cb57600080fd5b818701915087601f8301126106df57600080fd5b8135818111156106ee57600080fd5b88602082850101111561070057600080fd5b95989497505060200194505050565b6000806040838503121561072257600080fd5b61072b83610615565b946020939093013593505050565b6000806040838503121561074c57600080fd5b8235915061075c602084016105de565b90509250929050565b63ffffffff8416815260006020848184015260606040840152835180606085015260005b818110156107a557858101830151858201608001528201610789565b506000608082860101526080601f19601f83011685010192505050949350505050565b6000602082840312156107da57600080fd5b5051919050565b8082018082111561021057634e487b7160e01b600052601160045260246000fdfea26469706673582212209aea64dc39aebcc5ee3f9c4ddc587d7772d161cf4ea02e29aaa051d281c366b664736f6c63430008140033",
  "linkReferences": {},
  "deployedLinkReferences": {}
}