{
  "_format": "hh-sol-artifact-1",
  "contractName": "HyperFacet",
  "sourceName": "contracts/Facets/HyperFacet.sol",
  "abi": [
    {
      "inputs": [],
      "name": "getCounter",
      "outputs": [
        {
          "internalType": "uint256",
          "name": "",
          "type": "uint256"
        }
      ],
      "stateMutability": "view",
      "type": "function"
    },
    {
      "inputs": [
        {
          "internalType": "uint32",
          "name": "_origin",
          "type": "uint32"
        },
        {
          "internalType": "bytes32",
          "name": "_sender",
          "type": "bytes32"
        },
        {
          "internalType": "bytes",
          "name": "_body",
          "type": "bytes"
        }
      ],
      "name": "handle",
      "outputs": [],
      "stateMutability": "nonpayable",
      "type": "function"
    },
    {
      "inputs": [
        {
          "internalType": "uint32",
          "name": "domain",
          "type": "uint32"
        },
        {
          "internalType": "uint256",
          "name": "gasAmount",
          "type": "uint256"
        },
        {
          "internalType": "uint256",
          "name": "_value",
          "type": "uint256"
        }
      ],
      "name": "hitEmUp",
      "outputs": [],
      "stateMutability": "payable",
      "type": "function"
    },
    {
      "inputs": [],
      "name": "interchainSecurityModule",
      "outputs": [
        {
          "internalType": "address",
          "name": "",
          "type": "address"
        }
      ],
      "stateMutability": "view",
      "type": "function"
    },
    {
      "inputs": [
        {
          "internalType": "uint256",
          "name": "domainID",
          "type": "uint256"
        },
        {
          "internalType": "address",
          "name": "recipentAddy",
          "type": "address"
        }
      ],
      "name": "setDomainToAddress",
      "outputs": [],
      "stateMutability": "nonpayable",
      "type": "function"
    },
    {
      "inputs": [
        {
          "internalType": "address",
          "name": "localIGP",
          "type": "address"
        }
      ],
      "name": "setGasMaster",
      "outputs": [],
      "stateMutability": "nonpayable",
      "type": "function"
    },
    {
      "inputs": [
        {
          "internalType": "address",
          "name": "ism",
          "type": "address"
        }
      ],
      "name": "setISM",
      "outputs": [],
      "stateMutability": "nonpayable",
      "type": "function"
    },
    {
      "inputs": [
        {
          "internalType": "address",
          "name": "maiLBox",
          "type": "address"
        }
      ],
      "name": "setMailBox",
      "outputs": [],
      "stateMutability": "nonpayable",
      "type": "function"
    }
  ],
  "bytecode": "0x608060405234801561001057600080fd5b50610681806100206000396000f3fe60806040526004361061006b5760003560e01c80632c2cd7491461007057806337e935fb1461009257806356d5d475146100a5578063759524ed146100c55780638ada066e146100e5578063cc4c515d1461010d578063de4a787f1461012d578063de523cf31461014d575b600080fd5b34801561007c57600080fd5b5061009061008b366004610479565b61016f565b005b6100906100a03660046104af565b61017b565b3480156100b157600080fd5b506100906100c03660046104e2565b61018b565b3480156100d157600080fd5b506100906100e0366004610479565b610199565b3480156100f157600080fd5b506100fa6101a2565b6040519081526020015b60405180910390f35b34801561011957600080fd5b50610090610128366004610568565b6101b1565b34801561013957600080fd5b50610090610148366004610479565b6101bf565b34801561015957600080fd5b506101626101c8565b6040516101049190610594565b610178816101d2565b50565b6101868383836101fe565b505050565b610193610349565b50505050565b6101788161036e565b60006101ac61039d565b905090565b6101bb82826103b2565b5050565b610178816103ec565b60006101ac61041b565b60006101dc610439565b80546001600160a01b0319166001600160a01b03939093169290921790915550565b6000610208610439565b8054600182015463ffffffff871660009081526003840160205260408120549394506001600160a01b039283169391831692909116908363fa31de018984336040516020016102579190610594565b6040516020818303038152906040526040518463ffffffff1660e01b8152600401610284939291906105a8565b6020604051808303816000875af11580156102a3573d6000803e3d6000fd5b505050506040513d601f19601f820116820180604052508101906102c7919061060b565b604051630237e58360e31b81526004810182905263ffffffff8a166024820152604481018990523360648201529091506001600160a01b038416906311bf2c189088906084016000604051808303818588803b15801561032657600080fd5b505af115801561033a573d6000803e3d6000fd5b50505050505050505050505050565b6000610353610439565b9050806004015460016103669190610624565b600490910155565b6000610378610439565b60010180546001600160a01b0319166001600160a01b03939093169290921790915550565b6000806103a8610439565b6004015492915050565b60006103bc610439565b600093845260030160205250604090912080546001600160a01b0319166001600160a01b03909216919091179055565b60006103f6610439565b60020180546001600160a01b0319166001600160a01b03939093169290921790915550565b600080610426610439565b600201546001600160a01b031692915050565b7f34fbc1afd8e1b9169b38b6c80a52777e06873abc0d2b3f992f7608bdf1bf6ade90565b80356001600160a01b038116811461047457600080fd5b919050565b60006020828403121561048b57600080fd5b6104948261045d565b9392505050565b803563ffffffff8116811461047457600080fd5b6000806000606084860312156104c457600080fd5b6104cd8461049b565b95602085013595506040909401359392505050565b600080600080606085870312156104f857600080fd5b6105018561049b565b93506020850135925060408501356001600160401b038082111561052457600080fd5b818701915087601f83011261053857600080fd5b81358181111561054757600080fd5b88602082850101111561055957600080fd5b95989497505060200194505050565b6000806040838503121561057b57600080fd5b8235915061058b6020840161045d565b90509250929050565b6001600160a01b0391909116815260200190565b63ffffffff8416815260006020848184015260606040840152835180606085015260005b818110156105e8578581018301518582016080015282016105cc565b506000608082860101526080601f19601f83011685010192505050949350505050565b60006020828403121561061d57600080fd5b5051919050565b8082018082111561064557634e487b7160e01b600052601160045260246000fd5b9291505056fea2646970667358221220fedc0a684b7f5c72e67c04803f0428712cb4733bcfe244c93f47a6e90f358fb864736f6c63430008140033",
  "linkReferences": {},
  "deployedLinkReferences": {}
}