{"contracts/Facets/ManagerFacet.sol":{"ManagerFacet":{"abi":[{"inputs":[{"internalType":"uint256[]","name":"data","type":"uint256[]"},{"internalType":"bytes","name":"packedInfo","type":"bytes"}],"name":"addDataToFront","outputs":[{"internalType":"bytes","name":"packedResult","type":"bytes"}],"stateMutability":"pure","type":"function"},{"inputs":[{"internalType":"address","name":"a","type":"address"}],"name":"convertAddyToNum","outputs":[{"internalType":"uint256","name":"","type":"uint256"}],"stateMutability":"pure","type":"function"},{"inputs":[{"internalType":"bytes5[]","name":"data","type":"bytes5[]"}],"name":"convertBytes5ArrayToBytes","outputs":[{"internalType":"bytes","name":"res","type":"bytes"}],"stateMutability":"pure","type":"function"},{"inputs":[{"internalType":"uint256","name":"a","type":"uint256"}],"name":"convertNumToAddy","outputs":[{"internalType":"address","name":"","type":"address"}],"stateMutability":"pure","type":"function"},{"inputs":[{"internalType":"uint256[]","name":"inputs","type":"uint256[]"},{"internalType":"bytes5","name":"instruction","type":"bytes5"}],"name":"executeInstruction","outputs":[{"internalType":"uint256[]","name":"outPuts","type":"uint256[]"}],"stateMutability":"nonpayable","type":"function"},{"inputs":[{"internalType":"bytes5","name":"data","type":"bytes5"}],"name":"parseInstruction","outputs":[{"internalType":"bytes4","name":"selector","type":"bytes4"},{"internalType":"uint8","name":"inp","type":"uint8"},{"internalType":"uint8","name":"out","type":"uint8"}],"stateMutability":"pure","type":"function"},{"inputs":[{"internalType":"bytes","name":"data","type":"bytes"}],"name":"readData","outputs":[{"internalType":"uint256[]","name":"","type":"uint256[]"},{"internalType":"bytes","name":"","type":"bytes"}],"stateMutability":"pure","type":"function"},{"inputs":[{"internalType":"bytes","name":"dataFlow","type":"bytes"}],"name":"startWorking","outputs":[{"internalType":"uint256[]","name":"finalOutputs","type":"uint256[]"}],"stateMutability":"nonpayable","type":"function"},{"inputs":[{"internalType":"bytes","name":"packed","type":"bytes"}],"name":"testDecodePacked","outputs":[{"internalType":"bytes5","name":"info","type":"bytes5"},{"internalType":"bytes","name":"","type":"bytes"}],"stateMutability":"pure","type":"function"}],"devdoc":{"kind":"dev","methods":{},"version":1},"evm":{"bytecode":{"linkReferences":{},"object":"608060405234801561001057600080fd5b50610e6f806100206000396000f3fe608060405234801561001057600080fd5b50600436106100835760003560e01c8063241d28eb146100885780632cc72a62146100ae57806364b0aab3146100ce5780636a3504c6146100ee57806381b1b8cc1461010f5780638c2519ac146101225780638e146b511461014d57806396456d9214610160578063cca12a59146101ac575b600080fd5b61009b6100963660046107a8565b6101cd565b6040519081526020015b60405180910390f35b6100c16100bc36600461091d565b6101e0565b6040516100a591906109d0565b6100e16100dc3660046109e3565b6101f3565b6040516100a59190610a5a565b6101016100fc3660046109e3565b6101fe565b6040516100a5929190610a6d565b6100c161011d366004610aad565b610214565b610135610130366004610b44565b61021f565b6040516001600160a01b0390911681526020016100a5565b6100e161015b366004610b5d565b610227565b61018261016e366004610baa565b90600f600483811a9081901c821692911690565b604080516001600160e01b0319909416845260ff92831660208501529116908201526060016100a5565b6101bf6101ba3660046109e3565b610233565b6040516100a5929190610bc5565b60006001600160a01b0382165b92915050565b60606101ec838361023f565b9392505050565b60606101da8261026b565b6000606061020b836102c8565b91509150915091565b60606101da8261034e565b6000816101da565b60606101ec83836103b2565b60608061020b83610791565b60405181906102549084908390602001610bc5565b604051602081830303815290604052905092915050565b606060008061027984610791565b915091506000610288826102c8565b9550905061029683826103b2565b93506003855110156102aa57505050919050565b6102b4848661023f565b94506102bf8561026b565b50505050919050565b602081015160608060005b600585516102e19190610c09565b8110156103455781856102f5836005610c1c565b8151811061030557610305610c2f565b602001015160f81c60f81b604051602001610321929190610c45565b6040516020818303038152906040529150808061033d90610c74565b9150506102d3565b50919391925050565b606060005b82518110156103ac578183828151811061036f5761036f610c2f565b6020026020010151604051602001610388929190610c8d565b604051602081830303815290604052915080806103a490610c74565b915050610353565b50919050565b606081600f600482811a9081901c821691168360008381036104525760408051600481526024810182526020810180516001600160e01b03166001600160e01b031989161790529051309161040691610cbc565b6000604051808303816000865af19150503d8060008114610443576040519150601f19603f3d011682016040523d82523d6000602084013e610448565b606091505b50925090506104f4565b306001600160a01b0316858960405160240161046e9190610a5a565b60408051601f198184030181529181526020820180516001600160e01b03166001600160e01b03199094169390931790925290516104ac9190610cbc565b6000604051808303816000865af19150503d80600081146104e9576040519150601f19603f3d011682016040523d82523d6000602084013e6104ee565b606091505b50925090505b8260ff1660000361054e576040805160018082528183019092526000916020808301908036833701905050905060008160008151811061053657610536610c2f565b602090810291909101015295506101da945050505050565b8260ff166001036105e75760008280602001905181019061056f9190610cd8565b905060008460ff166001600160401b0381111561058e5761058e6107d1565b6040519080825280602002602001820160405280156105b7578160200160208202803683370190505b50905081816000815181106105ce576105ce610c2f565b602090810291909101015296506101da95505050505050565b8260ff166002036106a457600080838060200190518101906106099190610cf1565b9150915060008560ff166001600160401b0381111561062a5761062a6107d1565b604051908082528060200260200182016040528015610653578160200160208202803683370190505b509050828160008151811061066a5761066a610c2f565b602002602001018181525050818160018151811061068a5761068a610c2f565b602090810291909101015297506101da9650505050505050565b8260ff16600303610786576000806000848060200190518101906106c89190610d15565b92509250925060008660ff166001600160401b038111156106eb576106eb6107d1565b604051908082528060200260200182016040528015610714578160200160208202803683370190505b509050838160008151811061072b5761072b610c2f565b602002602001018181525050828160018151811061074b5761074b610c2f565b602002602001018181525050818160028151811061076b5761076b610c2f565b602090810291909101015298506101da975050505050505050565b505050505092915050565b6060808280602001905181019061020b9190610d88565b6000602082840312156107ba57600080fd5b81356001600160a01b03811681146101ec57600080fd5b634e487b7160e01b600052604160045260246000fd5b604051601f8201601f191681016001600160401b038111828210171561080f5761080f6107d1565b604052919050565b60006001600160401b03821115610830576108306107d1565b5060051b60200190565b600082601f83011261084b57600080fd5b8135602061086061085b83610817565b6107e7565b82815260059290921b8401810191818101908684111561087f57600080fd5b8286015b8481101561089a5780358352918301918301610883565b509695505050505050565b60006001600160401b038211156108be576108be6107d1565b50601f01601f191660200190565b600082601f8301126108dd57600080fd5b81356108eb61085b826108a5565b81815284602083860101111561090057600080fd5b816020850160208301376000918101602001919091529392505050565b6000806040838503121561093057600080fd5b82356001600160401b038082111561094757600080fd5b6109538683870161083a565b9350602085013591508082111561096957600080fd5b50610976858286016108cc565b9150509250929050565b60005b8381101561099b578181015183820152602001610983565b50506000910152565b600081518084526109bc816020860160208601610980565b601f01601f19169290920160200192915050565b6020815260006101ec60208301846109a4565b6000602082840312156109f557600080fd5b81356001600160401b03811115610a0b57600080fd5b610a17848285016108cc565b949350505050565b600081518084526020808501945080840160005b83811015610a4f57815187529582019590820190600101610a33565b509495945050505050565b6020815260006101ec6020830184610a1f565b64ffffffffff60d81b83168152604060208201526000610a1760408301846109a4565b80356001600160d81b031981168114610aa857600080fd5b919050565b60006020808385031215610ac057600080fd5b82356001600160401b03811115610ad657600080fd5b8301601f81018513610ae757600080fd5b8035610af561085b82610817565b81815260059190911b82018301908381019087831115610b1457600080fd5b928401925b82841015610b3957610b2a84610a90565b82529284019290840190610b19565b979650505050505050565b600060208284031215610b5657600080fd5b5035919050565b60008060408385031215610b7057600080fd5b82356001600160401b03811115610b8657600080fd5b610b928582860161083a565b925050610ba160208401610a90565b90509250929050565b600060208284031215610bbc57600080fd5b6101ec82610a90565b604081526000610bd86040830185610a1f565b8281036020840152610bea81856109a4565b95945050505050565b634e487b7160e01b600052601160045260246000fd5b818103818111156101da576101da610bf3565b808201808211156101da576101da610bf3565b634e487b7160e01b600052603260045260246000fd5b60008351610c57818460208801610980565b6001600160f81b0319939093169190920190815260010192915050565b600060018201610c8657610c86610bf3565b5060010190565b60008351610c9f818460208801610980565b6001600160d81b0319939093169190920190815260050192915050565b60008251610cce818460208701610980565b9190910192915050565b600060208284031215610cea57600080fd5b5051919050565b60008060408385031215610d0457600080fd5b505080516020909101519092909150565b600080600060608486031215610d2a57600080fd5b8351925060208401519150604084015190509250925092565b600082601f830112610d5457600080fd5b8151610d6261085b826108a5565b818152846020838601011115610d7757600080fd5b610a17826020830160208701610980565b60008060408385031215610d9b57600080fd5b82516001600160401b0380821115610db257600080fd5b818501915085601f830112610dc657600080fd5b81516020610dd661085b83610817565b82815260059290921b84018101918181019089841115610df557600080fd5b948201945b83861015610e1357855182529482019490820190610dfa565b91880151919650909350505080821115610e2c57600080fd5b5061097685828601610d4356fea2646970667358221220ae32ebc922c7f2a457c781416539249cae13eedfce8efd47b6dcc18cae06d94664736f6c63430008140033","opcodes":"PUSH1 0x80 PUSH1 0x40 MSTORE CALLVALUE DUP1 ISZERO PUSH2 0x10 JUMPI PUSH1 0x0 DUP1 REVERT JUMPDEST POP PUSH2 0xE6F DUP1 PUSH2 0x20 PUSH1 0x0 CODECOPY PUSH1 0x0 RETURN INVALID PUSH1 0x80 PUSH1 0x40 MSTORE CALLVALUE DUP1 ISZERO PUSH2 0x10 JUMPI PUSH1 0x0 DUP1 REVERT JUMPDEST POP PUSH1 0x4 CALLDATASIZE LT PUSH2 0x83 JUMPI PUSH1 0x0 CALLDATALOAD PUSH1 0xE0 SHR DUP1 PUSH4 0x241D28EB EQ PUSH2 0x88 JUMPI DUP1 PUSH4 0x2CC72A62 EQ PUSH2 0xAE JUMPI DUP1 PUSH4 0x64B0AAB3 EQ PUSH2 0xCE JUMPI DUP1 PUSH4 0x6A3504C6 EQ PUSH2 0xEE JUMPI DUP1 PUSH4 0x81B1B8CC EQ PUSH2 0x10F JUMPI DUP1 PUSH4 0x8C2519AC EQ PUSH2 0x122 JUMPI DUP1 PUSH4 0x8E146B51 EQ PUSH2 0x14D JUMPI DUP1 PUSH4 0x96456D92 EQ PUSH2 0x160 JUMPI DUP1 PUSH4 0xCCA12A59 EQ PUSH2 0x1AC JUMPI JUMPDEST PUSH1 0x0 DUP1 REVERT JUMPDEST PUSH2 0x9B PUSH2 0x96 CALLDATASIZE PUSH1 0x4 PUSH2 0x7A8 JUMP JUMPDEST PUSH2 0x1CD JUMP JUMPDEST PUSH1 0x40 MLOAD SWAP1 DUP2 MSTORE PUSH1 0x20 ADD JUMPDEST PUSH1 0x40 MLOAD DUP1 SWAP2 SUB SWAP1 RETURN JUMPDEST PUSH2 0xC1 PUSH2 0xBC CALLDATASIZE PUSH1 0x4 PUSH2 0x91D JUMP JUMPDEST PUSH2 0x1E0 JUMP JUMPDEST PUSH1 0x40 MLOAD PUSH2 0xA5 SWAP2 SWAP1 PUSH2 0x9D0 JUMP JUMPDEST PUSH2 0xE1 PUSH2 0xDC CALLDATASIZE PUSH1 0x4 PUSH2 0x9E3 JUMP JUMPDEST PUSH2 0x1F3 JUMP JUMPDEST PUSH1 0x40 MLOAD PUSH2 0xA5 SWAP2 SWAP1 PUSH2 0xA5A JUMP JUMPDEST PUSH2 0x101 PUSH2 0xFC CALLDATASIZE PUSH1 0x4 PUSH2 0x9E3 JUMP JUMPDEST PUSH2 0x1FE JUMP JUMPDEST PUSH1 0x40 MLOAD PUSH2 0xA5 SWAP3 SWAP2 SWAP1 PUSH2 0xA6D JUMP JUMPDEST PUSH2 0xC1 PUSH2 0x11D CALLDATASIZE PUSH1 0x4 PUSH2 0xAAD JUMP JUMPDEST PUSH2 0x214 JUMP JUMPDEST PUSH2 0x135 PUSH2 0x130 CALLDATASIZE PUSH1 0x4 PUSH2 0xB44 JUMP JUMPDEST PUSH2 0x21F JUMP JUMPDEST PUSH1 0x40 MLOAD PUSH1 0x1 PUSH1 0x1 PUSH1 0xA0 SHL SUB SWAP1 SWAP2 AND DUP2 MSTORE PUSH1 0x20 ADD PUSH2 0xA5 JUMP JUMPDEST PUSH2 0xE1 PUSH2 0x15B CALLDATASIZE PUSH1 0x4 PUSH2 0xB5D JUMP JUMPDEST PUSH2 0x227 JUMP JUMPDEST PUSH2 0x182 PUSH2 0x16E CALLDATASIZE PUSH1 0x4 PUSH2 0xBAA JUMP JUMPDEST SWAP1 PUSH1 0xF PUSH1 0x4 DUP4 DUP2 BYTE SWAP1 DUP2 SWAP1 SHR DUP3 AND SWAP3 SWAP2 AND SWAP1 JUMP JUMPDEST PUSH1 0x40 DUP1 MLOAD PUSH1 0x1 PUSH1 0x1 PUSH1 0xE0 SHL SUB NOT SWAP1 SWAP5 AND DUP5 MSTORE PUSH1 0xFF SWAP3 DUP4 AND PUSH1 0x20 DUP6 ADD MSTORE SWAP2 AND SWAP1 DUP3 ADD MSTORE PUSH1 0x60 ADD PUSH2 0xA5 JUMP JUMPDEST PUSH2 0x1BF PUSH2 0x1BA CALLDATASIZE PUSH1 0x4 PUSH2 0x9E3 JUMP JUMPDEST PUSH2 0x233 JUMP JUMPDEST PUSH1 0x40 MLOAD PUSH2 0xA5 SWAP3 SWAP2 SWAP1 PUSH2 0xBC5 JUMP JUMPDEST PUSH1 0x0 PUSH1 0x1 PUSH1 0x1 PUSH1 0xA0 SHL SUB DUP3 AND JUMPDEST SWAP3 SWAP2 POP POP JUMP JUMPDEST PUSH1 0x60 PUSH2 0x1EC DUP4 DUP4 PUSH2 0x23F JUMP JUMPDEST SWAP4 SWAP3 POP POP POP JUMP JUMPDEST PUSH1 0x60 PUSH2 0x1DA DUP3 PUSH2 0x26B JUMP JUMPDEST PUSH1 0x0 PUSH1 0x60 PUSH2 0x20B DUP4 PUSH2 0x2C8 JUMP JUMPDEST SWAP2 POP SWAP2 POP SWAP2 POP SWAP2 JUMP JUMPDEST PUSH1 0x60 PUSH2 0x1DA DUP3 PUSH2 0x34E JUMP JUMPDEST PUSH1 0x0 DUP2 PUSH2 0x1DA JUMP JUMPDEST PUSH1 0x60 PUSH2 0x1EC DUP4 DUP4 PUSH2 0x3B2 JUMP JUMPDEST PUSH1 0x60 DUP1 PUSH2 0x20B DUP4 PUSH2 0x791 JUMP JUMPDEST PUSH1 0x40 MLOAD DUP2 SWAP1 PUSH2 0x254 SWAP1 DUP5 SWAP1 DUP4 SWAP1 PUSH1 0x20 ADD PUSH2 0xBC5 JUMP JUMPDEST PUSH1 0x40 MLOAD PUSH1 0x20 DUP2 DUP4 SUB SUB DUP2 MSTORE SWAP1 PUSH1 0x40 MSTORE SWAP1 POP SWAP3 SWAP2 POP POP JUMP JUMPDEST PUSH1 0x60 PUSH1 0x0 DUP1 PUSH2 0x279 DUP5 PUSH2 0x791 JUMP JUMPDEST SWAP2 POP SWAP2 POP PUSH1 0x0 PUSH2 0x288 DUP3 PUSH2 0x2C8 JUMP JUMPDEST SWAP6 POP SWAP1 POP PUSH2 0x296 DUP4 DUP3 PUSH2 0x3B2 JUMP JUMPDEST SWAP4 POP PUSH1 0x3 DUP6 MLOAD LT ISZERO PUSH2 0x2AA JUMPI POP POP POP SWAP2 SWAP1 POP JUMP JUMPDEST PUSH2 0x2B4 DUP5 DUP7 PUSH2 0x23F JUMP JUMPDEST SWAP5 POP PUSH2 0x2BF DUP6 PUSH2 0x26B JUMP JUMPDEST POP POP POP POP SWAP2 SWAP1 POP JUMP JUMPDEST PUSH1 0x20 DUP2 ADD MLOAD PUSH1 0x60 DUP1 PUSH1 0x0 JUMPDEST PUSH1 0x5 DUP6 MLOAD PUSH2 0x2E1 SWAP2 SWAP1 PUSH2 0xC09 JUMP JUMPDEST DUP2 LT ISZERO PUSH2 0x345 JUMPI DUP2 DUP6 PUSH2 0x2F5 DUP4 PUSH1 0x5 PUSH2 0xC1C JUMP JUMPDEST DUP2 MLOAD DUP2 LT PUSH2 0x305 JUMPI PUSH2 0x305 PUSH2 0xC2F JUMP JUMPDEST PUSH1 0x20 ADD ADD MLOAD PUSH1 0xF8 SHR PUSH1 0xF8 SHL PUSH1 0x40 MLOAD PUSH1 0x20 ADD PUSH2 0x321 SWAP3 SWAP2 SWAP1 PUSH2 0xC45 JUMP JUMPDEST PUSH1 0x40 MLOAD PUSH1 0x20 DUP2 DUP4 SUB SUB DUP2 MSTORE SWAP1 PUSH1 0x40 MSTORE SWAP2 POP DUP1 DUP1 PUSH2 0x33D SWAP1 PUSH2 0xC74 JUMP JUMPDEST SWAP2 POP POP PUSH2 0x2D3 JUMP JUMPDEST POP SWAP2 SWAP4 SWAP2 SWAP3 POP POP JUMP JUMPDEST PUSH1 0x60 PUSH1 0x0 JUMPDEST DUP3 MLOAD DUP2 LT ISZERO PUSH2 0x3AC JUMPI DUP2 DUP4 DUP3 DUP2 MLOAD DUP2 LT PUSH2 0x36F JUMPI PUSH2 0x36F PUSH2 0xC2F JUMP JUMPDEST PUSH1 0x20 MUL PUSH1 0x20 ADD ADD MLOAD PUSH1 0x40 MLOAD PUSH1 0x20 ADD PUSH2 0x388 SWAP3 SWAP2 SWAP1 PUSH2 0xC8D JUMP JUMPDEST PUSH1 0x40 MLOAD PUSH1 0x20 DUP2 DUP4 SUB SUB DUP2 MSTORE SWAP1 PUSH1 0x40 MSTORE SWAP2 POP DUP1 DUP1 PUSH2 0x3A4 SWAP1 PUSH2 0xC74 JUMP JUMPDEST SWAP2 POP POP PUSH2 0x353 JUMP JUMPDEST POP SWAP2 SWAP1 POP JUMP JUMPDEST PUSH1 0x60 DUP2 PUSH1 0xF PUSH1 0x4 DUP3 DUP2 BYTE SWAP1 DUP2 SWAP1 SHR DUP3 AND SWAP2 AND DUP4 PUSH1 0x0 DUP4 DUP2 SUB PUSH2 0x452 JUMPI PUSH1 0x40 DUP1 MLOAD PUSH1 0x4 DUP2 MSTORE PUSH1 0x24 DUP2 ADD DUP3 MSTORE PUSH1 0x20 DUP2 ADD DUP1 MLOAD PUSH1 0x1 PUSH1 0x1 PUSH1 0xE0 SHL SUB AND PUSH1 0x1 PUSH1 0x1 PUSH1 0xE0 SHL SUB NOT DUP10 AND OR SWAP1 MSTORE SWAP1 MLOAD ADDRESS SWAP2 PUSH2 0x406 SWAP2 PUSH2 0xCBC JUMP JUMPDEST PUSH1 0x0 PUSH1 0x40 MLOAD DUP1 DUP4 SUB DUP2 PUSH1 0x0 DUP7 GAS CALL SWAP2 POP POP RETURNDATASIZE DUP1 PUSH1 0x0 DUP2 EQ PUSH2 0x443 JUMPI PUSH1 0x40 MLOAD SWAP2 POP PUSH1 0x1F NOT PUSH1 0x3F RETURNDATASIZE ADD AND DUP3 ADD PUSH1 0x40 MSTORE RETURNDATASIZE DUP3 MSTORE RETURNDATASIZE PUSH1 0x0 PUSH1 0x20 DUP5 ADD RETURNDATACOPY PUSH2 0x448 JUMP JUMPDEST PUSH1 0x60 SWAP2 POP JUMPDEST POP SWAP3 POP SWAP1 POP PUSH2 0x4F4 JUMP JUMPDEST ADDRESS PUSH1 0x1 PUSH1 0x1 PUSH1 0xA0 SHL SUB AND DUP6 DUP10 PUSH1 0x40 MLOAD PUSH1 0x24 ADD PUSH2 0x46E SWAP2 SWAP1 PUSH2 0xA5A JUMP JUMPDEST PUSH1 0x40 DUP1 MLOAD PUSH1 0x1F NOT DUP2 DUP5 SUB ADD DUP2 MSTORE SWAP2 DUP2 MSTORE PUSH1 0x20 DUP3 ADD DUP1 MLOAD PUSH1 0x1 PUSH1 0x1 PUSH1 0xE0 SHL SUB AND PUSH1 0x1 PUSH1 0x1 PUSH1 0xE0 SHL SUB NOT SWAP1 SWAP5 AND SWAP4 SWAP1 SWAP4 OR SWAP1 SWAP3 MSTORE SWAP1 MLOAD PUSH2 0x4AC SWAP2 SWAP1 PUSH2 0xCBC JUMP JUMPDEST PUSH1 0x0 PUSH1 0x40 MLOAD DUP1 DUP4 SUB DUP2 PUSH1 0x0 DUP7 GAS CALL SWAP2 POP POP RETURNDATASIZE DUP1 PUSH1 0x0 DUP2 EQ PUSH2 0x4E9 JUMPI PUSH1 0x40 MLOAD SWAP2 POP PUSH1 0x1F NOT PUSH1 0x3F RETURNDATASIZE ADD AND DUP3 ADD PUSH1 0x40 MSTORE RETURNDATASIZE DUP3 MSTORE RETURNDATASIZE PUSH1 0x0 PUSH1 0x20 DUP5 ADD RETURNDATACOPY PUSH2 0x4EE JUMP JUMPDEST PUSH1 0x60 SWAP2 POP JUMPDEST POP SWAP3 POP SWAP1 POP JUMPDEST DUP3 PUSH1 0xFF AND PUSH1 0x0 SUB PUSH2 0x54E JUMPI PUSH1 0x40 DUP1 MLOAD PUSH1 0x1 DUP1 DUP3 MSTORE DUP2 DUP4 ADD SWAP1 SWAP3 MSTORE PUSH1 0x0 SWAP2 PUSH1 0x20 DUP1 DUP4 ADD SWAP1 DUP1 CALLDATASIZE DUP4 CALLDATACOPY ADD SWAP1 POP POP SWAP1 POP PUSH1 0x0 DUP2 PUSH1 0x0 DUP2 MLOAD DUP2 LT PUSH2 0x536 JUMPI PUSH2 0x536 PUSH2 0xC2F JUMP JUMPDEST PUSH1 0x20 SWAP1 DUP2 MUL SWAP2 SWAP1 SWAP2 ADD ADD MSTORE SWAP6 POP PUSH2 0x1DA SWAP5 POP POP POP POP POP JUMP JUMPDEST DUP3 PUSH1 0xFF AND PUSH1 0x1 SUB PUSH2 0x5E7 JUMPI PUSH1 0x0 DUP3 DUP1 PUSH1 0x20 ADD SWAP1 MLOAD DUP2 ADD SWAP1 PUSH2 0x56F SWAP2 SWAP1 PUSH2 0xCD8 JUMP JUMPDEST SWAP1 POP PUSH1 0x0 DUP5 PUSH1 0xFF AND PUSH1 0x1 PUSH1 0x1 PUSH1 0x40 SHL SUB DUP2 GT ISZERO PUSH2 0x58E JUMPI PUSH2 0x58E PUSH2 0x7D1 JUMP JUMPDEST PUSH1 0x40 MLOAD SWAP1 DUP1 DUP3 MSTORE DUP1 PUSH1 0x20 MUL PUSH1 0x20 ADD DUP3 ADD PUSH1 0x40 MSTORE DUP1 ISZERO PUSH2 0x5B7 JUMPI DUP2 PUSH1 0x20 ADD PUSH1 0x20 DUP3 MUL DUP1 CALLDATASIZE DUP4 CALLDATACOPY ADD SWAP1 POP JUMPDEST POP SWAP1 POP DUP2 DUP2 PUSH1 0x0 DUP2 MLOAD DUP2 LT PUSH2 0x5CE JUMPI PUSH2 0x5CE PUSH2 0xC2F JUMP JUMPDEST PUSH1 0x20 SWAP1 DUP2 MUL SWAP2 SWAP1 SWAP2 ADD ADD MSTORE SWAP7 POP PUSH2 0x1DA SWAP6 POP POP POP POP POP POP JUMP JUMPDEST DUP3 PUSH1 0xFF AND PUSH1 0x2 SUB PUSH2 0x6A4 JUMPI PUSH1 0x0 DUP1 DUP4 DUP1 PUSH1 0x20 ADD SWAP1 MLOAD DUP2 ADD SWAP1 PUSH2 0x609 SWAP2 SWAP1 PUSH2 0xCF1 JUMP JUMPDEST SWAP2 POP SWAP2 POP PUSH1 0x0 DUP6 PUSH1 0xFF AND PUSH1 0x1 PUSH1 0x1 PUSH1 0x40 SHL SUB DUP2 GT ISZERO PUSH2 0x62A JUMPI PUSH2 0x62A PUSH2 0x7D1 JUMP JUMPDEST PUSH1 0x40 MLOAD SWAP1 DUP1 DUP3 MSTORE DUP1 PUSH1 0x20 MUL PUSH1 0x20 ADD DUP3 ADD PUSH1 0x40 MSTORE DUP1 ISZERO PUSH2 0x653 JUMPI DUP2 PUSH1 0x20 ADD PUSH1 0x20 DUP3 MUL DUP1 CALLDATASIZE DUP4 CALLDATACOPY ADD SWAP1 POP JUMPDEST POP SWAP1 POP DUP3 DUP2 PUSH1 0x0 DUP2 MLOAD DUP2 LT PUSH2 0x66A JUMPI PUSH2 0x66A PUSH2 0xC2F JUMP JUMPDEST PUSH1 0x20 MUL PUSH1 0x20 ADD ADD DUP2 DUP2 MSTORE POP POP DUP2 DUP2 PUSH1 0x1 DUP2 MLOAD DUP2 LT PUSH2 0x68A JUMPI PUSH2 0x68A PUSH2 0xC2F JUMP JUMPDEST PUSH1 0x20 SWAP1 DUP2 MUL SWAP2 SWAP1 SWAP2 ADD ADD MSTORE SWAP8 POP PUSH2 0x1DA SWAP7 POP POP POP POP POP POP POP JUMP JUMPDEST DUP3 PUSH1 0xFF AND PUSH1 0x3 SUB PUSH2 0x786 JUMPI PUSH1 0x0 DUP1 PUSH1 0x0 DUP5 DUP1 PUSH1 0x20 ADD SWAP1 MLOAD DUP2 ADD SWAP1 PUSH2 0x6C8 SWAP2 SWAP1 PUSH2 0xD15 JUMP JUMPDEST SWAP3 POP SWAP3 POP SWAP3 POP PUSH1 0x0 DUP7 PUSH1 0xFF AND PUSH1 0x1 PUSH1 0x1 PUSH1 0x40 SHL SUB DUP2 GT ISZERO PUSH2 0x6EB JUMPI PUSH2 0x6EB PUSH2 0x7D1 JUMP JUMPDEST PUSH1 0x40 MLOAD SWAP1 DUP1 DUP3 MSTORE DUP1 PUSH1 0x20 MUL PUSH1 0x20 ADD DUP3 ADD PUSH1 0x40 MSTORE DUP1 ISZERO PUSH2 0x714 JUMPI DUP2 PUSH1 0x20 ADD PUSH1 0x20 DUP3 MUL DUP1 CALLDATASIZE DUP4 CALLDATACOPY ADD SWAP1 POP JUMPDEST POP SWAP1 POP DUP4 DUP2 PUSH1 0x0 DUP2 MLOAD DUP2 LT PUSH2 0x72B JUMPI PUSH2 0x72B PUSH2 0xC2F JUMP JUMPDEST PUSH1 0x20 MUL PUSH1 0x20 ADD ADD DUP2 DUP2 MSTORE POP POP DUP3 DUP2 PUSH1 0x1 DUP2 MLOAD DUP2 LT PUSH2 0x74B JUMPI PUSH2 0x74B PUSH2 0xC2F JUMP JUMPDEST PUSH1 0x20 MUL PUSH1 0x20 ADD ADD DUP2 DUP2 MSTORE POP POP DUP2 DUP2 PUSH1 0x2 DUP2 MLOAD DUP2 LT PUSH2 0x76B JUMPI PUSH2 0x76B PUSH2 0xC2F JUMP JUMPDEST PUSH1 0x20 SWAP1 DUP2 MUL SWAP2 SWAP1 SWAP2 ADD ADD MSTORE SWAP9 POP PUSH2 0x1DA SWAP8 POP POP POP POP POP POP POP POP JUMP JUMPDEST POP POP POP POP POP SWAP3 SWAP2 POP POP JUMP JUMPDEST PUSH1 0x60 DUP1 DUP3 DUP1 PUSH1 0x20 ADD SWAP1 MLOAD DUP2 ADD SWAP1 PUSH2 0x20B SWAP2 SWAP1 PUSH2 0xD88 JUMP JUMPDEST PUSH1 0x0 PUSH1 0x20 DUP3 DUP5 SUB SLT ISZERO PUSH2 0x7BA JUMPI PUSH1 0x0 DUP1 REVERT JUMPDEST DUP2 CALLDATALOAD PUSH1 0x1 PUSH1 0x1 PUSH1 0xA0 SHL SUB DUP2 AND DUP2 EQ PUSH2 0x1EC JUMPI PUSH1 0x0 DUP1 REVERT JUMPDEST PUSH4 0x4E487B71 PUSH1 0xE0 SHL PUSH1 0x0 MSTORE PUSH1 0x41 PUSH1 0x4 MSTORE PUSH1 0x24 PUSH1 0x0 REVERT JUMPDEST PUSH1 0x40 MLOAD PUSH1 0x1F DUP3 ADD PUSH1 0x1F NOT AND DUP2 ADD PUSH1 0x1 PUSH1 0x1 PUSH1 0x40 SHL SUB DUP2 GT DUP3 DUP3 LT OR ISZERO PUSH2 0x80F JUMPI PUSH2 0x80F PUSH2 0x7D1 JUMP JUMPDEST PUSH1 0x40 MSTORE SWAP2 SWAP1 POP JUMP JUMPDEST PUSH1 0x0 PUSH1 0x1 PUSH1 0x1 PUSH1 0x40 SHL SUB DUP3 GT ISZERO PUSH2 0x830 JUMPI PUSH2 0x830 PUSH2 0x7D1 JUMP JUMPDEST POP PUSH1 0x5 SHL PUSH1 0x20 ADD SWAP1 JUMP JUMPDEST PUSH1 0x0 DUP3 PUSH1 0x1F DUP4 ADD SLT PUSH2 0x84B JUMPI PUSH1 0x0 DUP1 REVERT JUMPDEST DUP2 CALLDATALOAD PUSH1 0x20 PUSH2 0x860 PUSH2 0x85B DUP4 PUSH2 0x817 JUMP JUMPDEST PUSH2 0x7E7 JUMP JUMPDEST DUP3 DUP2 MSTORE PUSH1 0x5 SWAP3 SWAP1 SWAP3 SHL DUP5 ADD DUP2 ADD SWAP2 DUP2 DUP2 ADD SWAP1 DUP7 DUP5 GT ISZERO PUSH2 0x87F JUMPI PUSH1 0x0 DUP1 REVERT JUMPDEST DUP3 DUP7 ADD JUMPDEST DUP5 DUP2 LT ISZERO PUSH2 0x89A JUMPI DUP1 CALLDATALOAD DUP4 MSTORE SWAP2 DUP4 ADD SWAP2 DUP4 ADD PUSH2 0x883 JUMP JUMPDEST POP SWAP7 SWAP6 POP POP POP POP POP POP JUMP JUMPDEST PUSH1 0x0 PUSH1 0x1 PUSH1 0x1 PUSH1 0x40 SHL SUB DUP3 GT ISZERO PUSH2 0x8BE JUMPI PUSH2 0x8BE PUSH2 0x7D1 JUMP JUMPDEST POP PUSH1 0x1F ADD PUSH1 0x1F NOT AND PUSH1 0x20 ADD SWAP1 JUMP JUMPDEST PUSH1 0x0 DUP3 PUSH1 0x1F DUP4 ADD SLT PUSH2 0x8DD JUMPI PUSH1 0x0 DUP1 REVERT JUMPDEST DUP2 CALLDATALOAD PUSH2 0x8EB PUSH2 0x85B DUP3 PUSH2 0x8A5 JUMP JUMPDEST DUP2 DUP2 MSTORE DUP5 PUSH1 0x20 DUP4 DUP7 ADD ADD GT ISZERO PUSH2 0x900 JUMPI PUSH1 0x0 DUP1 REVERT JUMPDEST DUP2 PUSH1 0x20 DUP6 ADD PUSH1 0x20 DUP4 ADD CALLDATACOPY PUSH1 0x0 SWAP2 DUP2 ADD PUSH1 0x20 ADD SWAP2 SWAP1 SWAP2 MSTORE SWAP4 SWAP3 POP POP POP JUMP JUMPDEST PUSH1 0x0 DUP1 PUSH1 0x40 DUP4 DUP6 SUB SLT ISZERO PUSH2 0x930 JUMPI PUSH1 0x0 DUP1 REVERT JUMPDEST DUP3 CALLDATALOAD PUSH1 0x1 PUSH1 0x1 PUSH1 0x40 SHL SUB DUP1 DUP3 GT ISZERO PUSH2 0x947 JUMPI PUSH1 0x0 DUP1 REVERT JUMPDEST PUSH2 0x953 DUP7 DUP4 DUP8 ADD PUSH2 0x83A JUMP JUMPDEST SWAP4 POP PUSH1 0x20 DUP6 ADD CALLDATALOAD SWAP2 POP DUP1 DUP3 GT ISZERO PUSH2 0x969 JUMPI PUSH1 0x0 DUP1 REVERT JUMPDEST POP PUSH2 0x976 DUP6 DUP3 DUP7 ADD PUSH2 0x8CC JUMP JUMPDEST SWAP2 POP POP SWAP3 POP SWAP3 SWAP1 POP JUMP JUMPDEST PUSH1 0x0 JUMPDEST DUP4 DUP2 LT ISZERO PUSH2 0x99B JUMPI DUP2 DUP2 ADD MLOAD DUP4 DUP3 ADD MSTORE PUSH1 0x20 ADD PUSH2 0x983 JUMP JUMPDEST POP POP PUSH1 0x0 SWAP2 ADD MSTORE JUMP JUMPDEST PUSH1 0x0 DUP2 MLOAD DUP1 DUP5 MSTORE PUSH2 0x9BC DUP2 PUSH1 0x20 DUP7 ADD PUSH1 0x20 DUP7 ADD PUSH2 0x980 JUMP JUMPDEST PUSH1 0x1F ADD PUSH1 0x1F NOT AND SWAP3 SWAP1 SWAP3 ADD PUSH1 0x20 ADD SWAP3 SWAP2 POP POP JUMP JUMPDEST PUSH1 0x20 DUP2 MSTORE PUSH1 0x0 PUSH2 0x1EC PUSH1 0x20 DUP4 ADD DUP5 PUSH2 0x9A4 JUMP JUMPDEST PUSH1 0x0 PUSH1 0x20 DUP3 DUP5 SUB SLT ISZERO PUSH2 0x9F5 JUMPI PUSH1 0x0 DUP1 REVERT JUMPDEST DUP2 CALLDATALOAD PUSH1 0x1 PUSH1 0x1 PUSH1 0x40 SHL SUB DUP2 GT ISZERO PUSH2 0xA0B JUMPI PUSH1 0x0 DUP1 REVERT JUMPDEST PUSH2 0xA17 DUP5 DUP3 DUP6 ADD PUSH2 0x8CC JUMP JUMPDEST SWAP5 SWAP4 POP POP POP POP JUMP JUMPDEST PUSH1 0x0 DUP2 MLOAD DUP1 DUP5 MSTORE PUSH1 0x20 DUP1 DUP6 ADD SWAP5 POP DUP1 DUP5 ADD PUSH1 0x0 JUMPDEST DUP4 DUP2 LT ISZERO PUSH2 0xA4F JUMPI DUP2 MLOAD DUP8 MSTORE SWAP6 DUP3 ADD SWAP6 SWAP1 DUP3 ADD SWAP1 PUSH1 0x1 ADD PUSH2 0xA33 JUMP JUMPDEST POP SWAP5 SWAP6 SWAP5 POP POP POP POP POP JUMP JUMPDEST PUSH1 0x20 DUP2 MSTORE PUSH1 0x0 PUSH2 0x1EC PUSH1 0x20 DUP4 ADD DUP5 PUSH2 0xA1F JUMP JUMPDEST PUSH5 0xFFFFFFFFFF PUSH1 0xD8 SHL DUP4 AND DUP2 MSTORE PUSH1 0x40 PUSH1 0x20 DUP3 ADD MSTORE PUSH1 0x0 PUSH2 0xA17 PUSH1 0x40 DUP4 ADD DUP5 PUSH2 0x9A4 JUMP JUMPDEST DUP1 CALLDATALOAD PUSH1 0x1 PUSH1 0x1 PUSH1 0xD8 SHL SUB NOT DUP2 AND DUP2 EQ PUSH2 0xAA8 JUMPI PUSH1 0x0 DUP1 REVERT JUMPDEST SWAP2 SWAP1 POP JUMP JUMPDEST PUSH1 0x0 PUSH1 0x20 DUP1 DUP4 DUP6 SUB SLT ISZERO PUSH2 0xAC0 JUMPI PUSH1 0x0 DUP1 REVERT JUMPDEST DUP3 CALLDATALOAD PUSH1 0x1 PUSH1 0x1 PUSH1 0x40 SHL SUB DUP2 GT ISZERO PUSH2 0xAD6 JUMPI PUSH1 0x0 DUP1 REVERT JUMPDEST DUP4 ADD PUSH1 0x1F DUP2 ADD DUP6 SGT PUSH2 0xAE7 JUMPI PUSH1 0x0 DUP1 REVERT JUMPDEST DUP1 CALLDATALOAD PUSH2 0xAF5 PUSH2 0x85B DUP3 PUSH2 0x817 JUMP JUMPDEST DUP2 DUP2 MSTORE PUSH1 0x5 SWAP2 SWAP1 SWAP2 SHL DUP3 ADD DUP4 ADD SWAP1 DUP4 DUP2 ADD SWAP1 DUP8 DUP4 GT ISZERO PUSH2 0xB14 JUMPI PUSH1 0x0 DUP1 REVERT JUMPDEST SWAP3 DUP5 ADD SWAP3 JUMPDEST DUP3 DUP5 LT ISZERO PUSH2 0xB39 JUMPI PUSH2 0xB2A DUP5 PUSH2 0xA90 JUMP JUMPDEST DUP3 MSTORE SWAP3 DUP5 ADD SWAP3 SWAP1 DUP5 ADD SWAP1 PUSH2 0xB19 JUMP JUMPDEST SWAP8 SWAP7 POP POP POP POP POP POP POP JUMP JUMPDEST PUSH1 0x0 PUSH1 0x20 DUP3 DUP5 SUB SLT ISZERO PUSH2 0xB56 JUMPI PUSH1 0x0 DUP1 REVERT JUMPDEST POP CALLDATALOAD SWAP2 SWAP1 POP JUMP JUMPDEST PUSH1 0x0 DUP1 PUSH1 0x40 DUP4 DUP6 SUB SLT ISZERO PUSH2 0xB70 JUMPI PUSH1 0x0 DUP1 REVERT JUMPDEST DUP3 CALLDATALOAD PUSH1 0x1 PUSH1 0x1 PUSH1 0x40 SHL SUB DUP2 GT ISZERO PUSH2 0xB86 JUMPI PUSH1 0x0 DUP1 REVERT JUMPDEST PUSH2 0xB92 DUP6 DUP3 DUP7 ADD PUSH2 0x83A JUMP JUMPDEST SWAP3 POP POP PUSH2 0xBA1 PUSH1 0x20 DUP5 ADD PUSH2 0xA90 JUMP JUMPDEST SWAP1 POP SWAP3 POP SWAP3 SWAP1 POP JUMP JUMPDEST PUSH1 0x0 PUSH1 0x20 DUP3 DUP5 SUB SLT ISZERO PUSH2 0xBBC JUMPI PUSH1 0x0 DUP1 REVERT JUMPDEST PUSH2 0x1EC DUP3 PUSH2 0xA90 JUMP JUMPDEST PUSH1 0x40 DUP2 MSTORE PUSH1 0x0 PUSH2 0xBD8 PUSH1 0x40 DUP4 ADD DUP6 PUSH2 0xA1F JUMP JUMPDEST DUP3 DUP2 SUB PUSH1 0x20 DUP5 ADD MSTORE PUSH2 0xBEA DUP2 DUP6 PUSH2 0x9A4 JUMP JUMPDEST SWAP6 SWAP5 POP POP POP POP POP JUMP JUMPDEST PUSH4 0x4E487B71 PUSH1 0xE0 SHL PUSH1 0x0 MSTORE PUSH1 0x11 PUSH1 0x4 MSTORE PUSH1 0x24 PUSH1 0x0 REVERT JUMPDEST DUP2 DUP2 SUB DUP2 DUP2 GT ISZERO PUSH2 0x1DA JUMPI PUSH2 0x1DA PUSH2 0xBF3 JUMP JUMPDEST DUP1 DUP3 ADD DUP1 DUP3 GT ISZERO PUSH2 0x1DA JUMPI PUSH2 0x1DA PUSH2 0xBF3 JUMP JUMPDEST PUSH4 0x4E487B71 PUSH1 0xE0 SHL PUSH1 0x0 MSTORE PUSH1 0x32 PUSH1 0x4 MSTORE PUSH1 0x24 PUSH1 0x0 REVERT JUMPDEST PUSH1 0x0 DUP4 MLOAD PUSH2 0xC57 DUP2 DUP5 PUSH1 0x20 DUP9 ADD PUSH2 0x980 JUMP JUMPDEST PUSH1 0x1 PUSH1 0x1 PUSH1 0xF8 SHL SUB NOT SWAP4 SWAP1 SWAP4 AND SWAP2 SWAP1 SWAP3 ADD SWAP1 DUP2 MSTORE PUSH1 0x1 ADD SWAP3 SWAP2 POP POP JUMP JUMPDEST PUSH1 0x0 PUSH1 0x1 DUP3 ADD PUSH2 0xC86 JUMPI PUSH2 0xC86 PUSH2 0xBF3 JUMP JUMPDEST POP PUSH1 0x1 ADD SWAP1 JUMP JUMPDEST PUSH1 0x0 DUP4 MLOAD PUSH2 0xC9F DUP2 DUP5 PUSH1 0x20 DUP9 ADD PUSH2 0x980 JUMP JUMPDEST PUSH1 0x1 PUSH1 0x1 PUSH1 0xD8 SHL SUB NOT SWAP4 SWAP1 SWAP4 AND SWAP2 SWAP1 SWAP3 ADD SWAP1 DUP2 MSTORE PUSH1 0x5 ADD SWAP3 SWAP2 POP POP JUMP JUMPDEST PUSH1 0x0 DUP3 MLOAD PUSH2 0xCCE DUP2 DUP5 PUSH1 0x20 DUP8 ADD PUSH2 0x980 JUMP JUMPDEST SWAP2 SWAP1 SWAP2 ADD SWAP3 SWAP2 POP POP JUMP JUMPDEST PUSH1 0x0 PUSH1 0x20 DUP3 DUP5 SUB SLT ISZERO PUSH2 0xCEA JUMPI PUSH1 0x0 DUP1 REVERT JUMPDEST POP MLOAD SWAP2 SWAP1 POP JUMP JUMPDEST PUSH1 0x0 DUP1 PUSH1 0x40 DUP4 DUP6 SUB SLT ISZERO PUSH2 0xD04 JUMPI PUSH1 0x0 DUP1 REVERT JUMPDEST POP POP DUP1 MLOAD PUSH1 0x20 SWAP1 SWAP2 ADD MLOAD SWAP1 SWAP3 SWAP1 SWAP2 POP JUMP JUMPDEST PUSH1 0x0 DUP1 PUSH1 0x0 PUSH1 0x60 DUP5 DUP7 SUB SLT ISZERO PUSH2 0xD2A JUMPI PUSH1 0x0 DUP1 REVERT JUMPDEST DUP4 MLOAD SWAP3 POP PUSH1 0x20 DUP5 ADD MLOAD SWAP2 POP PUSH1 0x40 DUP5 ADD MLOAD SWAP1 POP SWAP3 POP SWAP3 POP SWAP3 JUMP JUMPDEST PUSH1 0x0 DUP3 PUSH1 0x1F DUP4 ADD SLT PUSH2 0xD54 JUMPI PUSH1 0x0 DUP1 REVERT JUMPDEST DUP2 MLOAD PUSH2 0xD62 PUSH2 0x85B DUP3 PUSH2 0x8A5 JUMP JUMPDEST DUP2 DUP2 MSTORE DUP5 PUSH1 0x20 DUP4 DUP7 ADD ADD GT ISZERO PUSH2 0xD77 JUMPI PUSH1 0x0 DUP1 REVERT JUMPDEST PUSH2 0xA17 DUP3 PUSH1 0x20 DUP4 ADD PUSH1 0x20 DUP8 ADD PUSH2 0x980 JUMP JUMPDEST PUSH1 0x0 DUP1 PUSH1 0x40 DUP4 DUP6 SUB SLT ISZERO PUSH2 0xD9B JUMPI PUSH1 0x0 DUP1 REVERT JUMPDEST DUP3 MLOAD PUSH1 0x1 PUSH1 0x1 PUSH1 0x40 SHL SUB DUP1 DUP3 GT ISZERO PUSH2 0xDB2 JUMPI PUSH1 0x0 DUP1 REVERT JUMPDEST DUP2 DUP6 ADD SWAP2 POP DUP6 PUSH1 0x1F DUP4 ADD SLT PUSH2 0xDC6 JUMPI PUSH1 0x0 DUP1 REVERT JUMPDEST DUP2 MLOAD PUSH1 0x20 PUSH2 0xDD6 PUSH2 0x85B DUP4 PUSH2 0x817 JUMP JUMPDEST DUP3 DUP2 MSTORE PUSH1 0x5 SWAP3 SWAP1 SWAP3 SHL DUP5 ADD DUP2 ADD SWAP2 DUP2 DUP2 ADD SWAP1 DUP10 DUP5 GT ISZERO PUSH2 0xDF5 JUMPI PUSH1 0x0 DUP1 REVERT JUMPDEST SWAP5 DUP3 ADD SWAP5 JUMPDEST DUP4 DUP7 LT ISZERO PUSH2 0xE13 JUMPI DUP6 MLOAD DUP3 MSTORE SWAP5 DUP3 ADD SWAP5 SWAP1 DUP3 ADD SWAP1 PUSH2 0xDFA JUMP JUMPDEST SWAP2 DUP9 ADD MLOAD SWAP2 SWAP7 POP SWAP1 SWAP4 POP POP POP DUP1 DUP3 GT ISZERO PUSH2 0xE2C JUMPI PUSH1 0x0 DUP1 REVERT JUMPDEST POP PUSH2 0x976 DUP6 DUP3 DUP7 ADD PUSH2 0xD43 JUMP INVALID LOG2 PUSH5 0x6970667358 0x22 SLT KECCAK256 0xAE ORIGIN 0xEB 0xC9 0x22 0xC7 CALLCODE LOG4 JUMPI 0xC7 DUP2 COINBASE PUSH6 0x39249CAE13EE 0xDF 0xCE DUP15 REVERT SELFBALANCE 0xB6 0xDC 0xC1 DUP13 0xAE MOD 0xD9 CHAINID PUSH5 0x736F6C6343 STOP ADDMOD EQ STOP CALLER "},"gasEstimates":{"creation":{"codeDepositCost":"739000","executionCost":"773","totalCost":"739773"},"external":{"addDataToFront(uint256[],bytes)":"infinite","convertAddyToNum(address)":"326","convertBytes5ArrayToBytes(bytes5[])":"infinite","convertNumToAddy(uint256)":"415","executeInstruction(uint256[],bytes5)":"infinite","parseInstruction(bytes5)":"605","readData(bytes)":"infinite","startWorking(bytes)":"infinite","testDecodePacked(bytes)":"infinite"}},"methodIdentifiers":{"addDataToFront(uint256[],bytes)":"2cc72a62","convertAddyToNum(address)":"241d28eb","convertBytes5ArrayToBytes(bytes5[])":"81b1b8cc","convertNumToAddy(uint256)":"8c2519ac","executeInstruction(uint256[],bytes5)":"8e146b51","parseInstruction(bytes5)":"96456d92","readData(bytes)":"cca12a59","startWorking(bytes)":"64b0aab3","testDecodePacked(bytes)":"6a3504c6"}},"storageLayout":{"storage":[],"types":null},"userdoc":{"kind":"user","methods":{},"version":1}}}}