{"comet/contracts/CometStorage.sol":{"CometStorage":{"abi":[{"inputs":[{"internalType":"address","name":"","type":"address"},{"internalType":"address","name":"","type":"address"}],"name":"isAllowed","outputs":[{"internalType":"bool","name":"","type":"bool"}],"stateMutability":"view","type":"function"},{"inputs":[{"internalType":"address","name":"","type":"address"}],"name":"liquidatorPoints","outputs":[{"internalType":"uint32","name":"numAbsorbs","type":"uint32"},{"internalType":"uint64","name":"numAbsorbed","type":"uint64"},{"internalType":"uint128","name":"approxSpend","type":"uint128"},{"internalType":"uint32","name":"_reserved","type":"uint32"}],"stateMutability":"view","type":"function"},{"inputs":[{"internalType":"address","name":"","type":"address"}],"name":"totalsCollateral","outputs":[{"internalType":"uint128","name":"totalSupplyAsset","type":"uint128"},{"internalType":"uint128","name":"_reserved","type":"uint128"}],"stateMutability":"view","type":"function"},{"inputs":[{"internalType":"address","name":"","type":"address"}],"name":"userBasic","outputs":[{"internalType":"int104","name":"principal","type":"int104"},{"internalType":"uint64","name":"baseTrackingIndex","type":"uint64"},{"internalType":"uint64","name":"baseTrackingAccrued","type":"uint64"},{"internalType":"uint16","name":"assetsIn","type":"uint16"},{"internalType":"uint8","name":"_reserved","type":"uint8"}],"stateMutability":"view","type":"function"},{"inputs":[{"internalType":"address","name":"","type":"address"},{"internalType":"address","name":"","type":"address"}],"name":"userCollateral","outputs":[{"internalType":"uint128","name":"balance","type":"uint128"},{"internalType":"uint128","name":"_reserved","type":"uint128"}],"stateMutability":"view","type":"function"},{"inputs":[{"internalType":"address","name":"","type":"address"}],"name":"userNonce","outputs":[{"internalType":"uint256","name":"","type":"uint256"}],"stateMutability":"view","type":"function"}],"devdoc":{"author":"Compound","details":"Versions can enforce append-only storage slots via inheritance.","kind":"dev","methods":{},"stateVariables":{"baseSupplyIndex":{"details":"Aggregate variables tracked for the entire market"}},"title":"Compound's Comet Storage Interface","version":1},"evm":{"bytecode":{"linkReferences":{},"object":"608060405234801561001057600080fd5b50610340806100206000396000f3fe608060405234801561001057600080fd5b50600436106100625760003560e01c80632b92a07d146100675780632e04b8e7146100cb57806359e017bd146100f9578063a16543791461012d578063c5fa15cf1461016b578063dc4abafd146101ff575b600080fd5b6100a66100753660046102b5565b60066020908152600092835260408084209091529082529020546001600160801b0380821691600160801b90041682565b604080516001600160801b039384168152929091166020830152015b60405180910390f35b6100eb6100d93660046102e8565b60046020526000908152604090205481565b6040519081526020016100c2565b6100a66101073660046102e8565b6002602052600090815260409020546001600160801b0380821691600160801b90041682565b61015b61013b3660046102b5565b600360209081526000928352604080842090915290825290205460ff1681565b60405190151581526020016100c2565b6101be6101793660046102e8565b60076020526000908152604090205463ffffffff808216916001600160401b03600160201b820416916001600160801b03600160601b83041691600160e01b90041684565b6040805163ffffffff95861681526001600160401b0390941660208501526001600160801b03909216918301919091529190911660608201526080016100c2565b61025961020d3660046102e8565b600560205260009081526040902054600c81900b906001600160401b03600160681b8204811691600160a81b81049091169061ffff600160e81b8204169060ff600160f81b9091041685565b60408051600c9690960b86526001600160401b039485166020870152929093169184019190915261ffff16606083015260ff16608082015260a0016100c2565b80356001600160a01b03811681146102b057600080fd5b919050565b600080604083850312156102c857600080fd5b6102d183610299565b91506102df60208401610299565b90509250929050565b6000602082840312156102fa57600080fd5b61030382610299565b939250505056fea264697066735822122002fdccf349ceba6fda97b890327c69d11cb2c9f03d6a4f0f1095655e034e370664736f6c63430008140033","opcodes":"PUSH1 0x80 PUSH1 0x40 MSTORE CALLVALUE DUP1 ISZERO PUSH2 0x10 JUMPI PUSH1 0x0 DUP1 REVERT JUMPDEST POP PUSH2 0x340 DUP1 PUSH2 0x20 PUSH1 0x0 CODECOPY PUSH1 0x0 RETURN INVALID PUSH1 0x80 PUSH1 0x40 MSTORE CALLVALUE DUP1 ISZERO PUSH2 0x10 JUMPI PUSH1 0x0 DUP1 REVERT JUMPDEST POP PUSH1 0x4 CALLDATASIZE LT PUSH2 0x62 JUMPI PUSH1 0x0 CALLDATALOAD PUSH1 0xE0 SHR DUP1 PUSH4 0x2B92A07D EQ PUSH2 0x67 JUMPI DUP1 PUSH4 0x2E04B8E7 EQ PUSH2 0xCB JUMPI DUP1 PUSH4 0x59E017BD EQ PUSH2 0xF9 JUMPI DUP1 PUSH4 0xA1654379 EQ PUSH2 0x12D JUMPI DUP1 PUSH4 0xC5FA15CF EQ PUSH2 0x16B JUMPI DUP1 PUSH4 0xDC4ABAFD EQ PUSH2 0x1FF JUMPI JUMPDEST PUSH1 0x0 DUP1 REVERT JUMPDEST PUSH2 0xA6 PUSH2 0x75 CALLDATASIZE PUSH1 0x4 PUSH2 0x2B5 JUMP JUMPDEST PUSH1 0x6 PUSH1 0x20 SWAP1 DUP2 MSTORE PUSH1 0x0 SWAP3 DUP4 MSTORE PUSH1 0x40 DUP1 DUP5 KECCAK256 SWAP1 SWAP2 MSTORE SWAP1 DUP3 MSTORE SWAP1 KECCAK256 SLOAD PUSH1 0x1 PUSH1 0x1 PUSH1 0x80 SHL SUB DUP1 DUP3 AND SWAP2 PUSH1 0x1 PUSH1 0x80 SHL SWAP1 DIV AND DUP3 JUMP JUMPDEST PUSH1 0x40 DUP1 MLOAD PUSH1 0x1 PUSH1 0x1 PUSH1 0x80 SHL SUB SWAP4 DUP5 AND DUP2 MSTORE SWAP3 SWAP1 SWAP2 AND PUSH1 0x20 DUP4 ADD MSTORE ADD JUMPDEST PUSH1 0x40 MLOAD DUP1 SWAP2 SUB SWAP1 RETURN JUMPDEST PUSH2 0xEB PUSH2 0xD9 CALLDATASIZE PUSH1 0x4 PUSH2 0x2E8 JUMP JUMPDEST PUSH1 0x4 PUSH1 0x20 MSTORE PUSH1 0x0 SWAP1 DUP2 MSTORE PUSH1 0x40 SWAP1 KECCAK256 SLOAD DUP2 JUMP JUMPDEST PUSH1 0x40 MLOAD SWAP1 DUP2 MSTORE PUSH1 0x20 ADD PUSH2 0xC2 JUMP JUMPDEST PUSH2 0xA6 PUSH2 0x107 CALLDATASIZE PUSH1 0x4 PUSH2 0x2E8 JUMP JUMPDEST PUSH1 0x2 PUSH1 0x20 MSTORE PUSH1 0x0 SWAP1 DUP2 MSTORE PUSH1 0x40 SWAP1 KECCAK256 SLOAD PUSH1 0x1 PUSH1 0x1 PUSH1 0x80 SHL SUB DUP1 DUP3 AND SWAP2 PUSH1 0x1 PUSH1 0x80 SHL SWAP1 DIV AND DUP3 JUMP JUMPDEST PUSH2 0x15B PUSH2 0x13B CALLDATASIZE PUSH1 0x4 PUSH2 0x2B5 JUMP JUMPDEST PUSH1 0x3 PUSH1 0x20 SWAP1 DUP2 MSTORE PUSH1 0x0 SWAP3 DUP4 MSTORE PUSH1 0x40 DUP1 DUP5 KECCAK256 SWAP1 SWAP2 MSTORE SWAP1 DUP3 MSTORE SWAP1 KECCAK256 SLOAD PUSH1 0xFF AND DUP2 JUMP JUMPDEST PUSH1 0x40 MLOAD SWAP1 ISZERO ISZERO DUP2 MSTORE PUSH1 0x20 ADD PUSH2 0xC2 JUMP JUMPDEST PUSH2 0x1BE PUSH2 0x179 CALLDATASIZE PUSH1 0x4 PUSH2 0x2E8 JUMP JUMPDEST PUSH1 0x7 PUSH1 0x20 MSTORE PUSH1 0x0 SWAP1 DUP2 MSTORE PUSH1 0x40 SWAP1 KECCAK256 SLOAD PUSH4 0xFFFFFFFF DUP1 DUP3 AND SWAP2 PUSH1 0x1 PUSH1 0x1 PUSH1 0x40 SHL SUB PUSH1 0x1 PUSH1 0x20 SHL DUP3 DIV AND SWAP2 PUSH1 0x1 PUSH1 0x1 PUSH1 0x80 SHL SUB PUSH1 0x1 PUSH1 0x60 SHL DUP4 DIV AND SWAP2 PUSH1 0x1 PUSH1 0xE0 SHL SWAP1 DIV AND DUP5 JUMP JUMPDEST PUSH1 0x40 DUP1 MLOAD PUSH4 0xFFFFFFFF SWAP6 DUP7 AND DUP2 MSTORE PUSH1 0x1 PUSH1 0x1 PUSH1 0x40 SHL SUB SWAP1 SWAP5 AND PUSH1 0x20 DUP6 ADD MSTORE PUSH1 0x1 PUSH1 0x1 PUSH1 0x80 SHL SUB SWAP1 SWAP3 AND SWAP2 DUP4 ADD SWAP2 SWAP1 SWAP2 MSTORE SWAP2 SWAP1 SWAP2 AND PUSH1 0x60 DUP3 ADD MSTORE PUSH1 0x80 ADD PUSH2 0xC2 JUMP JUMPDEST PUSH2 0x259 PUSH2 0x20D CALLDATASIZE PUSH1 0x4 PUSH2 0x2E8 JUMP JUMPDEST PUSH1 0x5 PUSH1 0x20 MSTORE PUSH1 0x0 SWAP1 DUP2 MSTORE PUSH1 0x40 SWAP1 KECCAK256 SLOAD PUSH1 0xC DUP2 SWAP1 SIGNEXTEND SWAP1 PUSH1 0x1 PUSH1 0x1 PUSH1 0x40 SHL SUB PUSH1 0x1 PUSH1 0x68 SHL DUP3 DIV DUP2 AND SWAP2 PUSH1 0x1 PUSH1 0xA8 SHL DUP2 DIV SWAP1 SWAP2 AND SWAP1 PUSH2 0xFFFF PUSH1 0x1 PUSH1 0xE8 SHL DUP3 DIV AND SWAP1 PUSH1 0xFF PUSH1 0x1 PUSH1 0xF8 SHL SWAP1 SWAP2 DIV AND DUP6 JUMP JUMPDEST PUSH1 0x40 DUP1 MLOAD PUSH1 0xC SWAP7 SWAP1 SWAP7 SIGNEXTEND DUP7 MSTORE PUSH1 0x1 PUSH1 0x1 PUSH1 0x40 SHL SUB SWAP5 DUP6 AND PUSH1 0x20 DUP8 ADD MSTORE SWAP3 SWAP1 SWAP4 AND SWAP2 DUP5 ADD SWAP2 SWAP1 SWAP2 MSTORE PUSH2 0xFFFF AND PUSH1 0x60 DUP4 ADD MSTORE PUSH1 0xFF AND PUSH1 0x80 DUP3 ADD MSTORE PUSH1 0xA0 ADD PUSH2 0xC2 JUMP JUMPDEST DUP1 CALLDATALOAD PUSH1 0x1 PUSH1 0x1 PUSH1 0xA0 SHL SUB DUP2 AND DUP2 EQ PUSH2 0x2B0 JUMPI PUSH1 0x0 DUP1 REVERT JUMPDEST SWAP2 SWAP1 POP JUMP JUMPDEST PUSH1 0x0 DUP1 PUSH1 0x40 DUP4 DUP6 SUB SLT ISZERO PUSH2 0x2C8 JUMPI PUSH1 0x0 DUP1 REVERT JUMPDEST PUSH2 0x2D1 DUP4 PUSH2 0x299 JUMP JUMPDEST SWAP2 POP PUSH2 0x2DF PUSH1 0x20 DUP5 ADD PUSH2 0x299 JUMP JUMPDEST SWAP1 POP SWAP3 POP SWAP3 SWAP1 POP JUMP JUMPDEST PUSH1 0x0 PUSH1 0x20 DUP3 DUP5 SUB SLT ISZERO PUSH2 0x2FA JUMPI PUSH1 0x0 DUP1 REVERT JUMPDEST PUSH2 0x303 DUP3 PUSH2 0x299 JUMP JUMPDEST SWAP4 SWAP3 POP POP POP JUMP INVALID LOG2 PUSH5 0x6970667358 0x22 SLT KECCAK256 MUL REVERT 0xCC RETURN 0x49 0xCE 0xBA PUSH16 0xDA97B890327C69D11CB2C9F03D6A4F0F LT SWAP6 PUSH6 0x5E034E370664 PUSH20 0x6F6C634300081400330000000000000000000000 "},"gasEstimates":{"creation":{"codeDepositCost":"166400","executionCost":"208","totalCost":"166608"},"external":{"isAllowed(address,address)":"infinite","liquidatorPoints(address)":"2822","totalsCollateral(address)":"2625","userBasic(address)":"2880","userCollateral(address,address)":"infinite","userNonce(address)":"2519"}},"methodIdentifiers":{"isAllowed(address,address)":"a1654379","liquidatorPoints(address)":"c5fa15cf","totalsCollateral(address)":"59e017bd","userBasic(address)":"dc4abafd","userCollateral(address,address)":"2b92a07d","userNonce(address)":"2e04b8e7"}},"storageLayout":{"storage":[{"astId":1165,"contract":"comet/contracts/CometStorage.sol:CometStorage","label":"baseSupplyIndex","offset":0,"slot":"0","type":"t_uint64"},{"astId":1167,"contract":"comet/contracts/CometStorage.sol:CometStorage","label":"baseBorrowIndex","offset":8,"slot":"0","type":"t_uint64"},{"astId":1169,"contract":"comet/contracts/CometStorage.sol:CometStorage","label":"trackingSupplyIndex","offset":16,"slot":"0","type":"t_uint64"},{"astId":1171,"contract":"comet/contracts/CometStorage.sol:CometStorage","label":"trackingBorrowIndex","offset":24,"slot":"0","type":"t_uint64"},{"astId":1173,"contract":"comet/contracts/CometStorage.sol:CometStorage","label":"totalSupplyBase","offset":0,"slot":"1","type":"t_uint104"},{"astId":1175,"contract":"comet/contracts/CometStorage.sol:CometStorage","label":"totalBorrowBase","offset":13,"slot":"1","type":"t_uint104"},{"astId":1177,"contract":"comet/contracts/CometStorage.sol:CometStorage","label":"lastAccrualTime","offset":26,"slot":"1","type":"t_uint40"},{"astId":1179,"contract":"comet/contracts/CometStorage.sol:CometStorage","label":"pauseFlags","offset":31,"slot":"1","type":"t_uint8"},{"astId":1185,"contract":"comet/contracts/CometStorage.sol:CometStorage","label":"totalsCollateral","offset":0,"slot":"2","type":"t_mapping(t_address,t_struct(TotalsCollateral)1137_storage)"},{"astId":1192,"contract":"comet/contracts/CometStorage.sol:CometStorage","label":"isAllowed","offset":0,"slot":"3","type":"t_mapping(t_address,t_mapping(t_address,t_bool))"},{"astId":1197,"contract":"comet/contracts/CometStorage.sol:CometStorage","label":"userNonce","offset":0,"slot":"4","type":"t_mapping(t_address,t_uint256)"},{"astId":1203,"contract":"comet/contracts/CometStorage.sol:CometStorage","label":"userBasic","offset":0,"slot":"5","type":"t_mapping(t_address,t_struct(UserBasic)1148_storage)"},{"astId":1211,"contract":"comet/contracts/CometStorage.sol:CometStorage","label":"userCollateral","offset":0,"slot":"6","type":"t_mapping(t_address,t_mapping(t_address,t_struct(UserCollateral)1153_storage))"},{"astId":1217,"contract":"comet/contracts/CometStorage.sol:CometStorage","label":"liquidatorPoints","offset":0,"slot":"7","type":"t_mapping(t_address,t_struct(LiquidatorPoints)1162_storage)"}],"types":{"t_address":{"encoding":"inplace","label":"address","numberOfBytes":"20"},"t_bool":{"encoding":"inplace","label":"bool","numberOfBytes":"1"},"t_int104":{"encoding":"inplace","label":"int104","numberOfBytes":"13"},"t_mapping(t_address,t_bool)":{"encoding":"mapping","key":"t_address","label":"mapping(address => bool)","numberOfBytes":"32","value":"t_bool"},"t_mapping(t_address,t_mapping(t_address,t_bool))":{"encoding":"mapping","key":"t_address","label":"mapping(address => mapping(address => bool))","numberOfBytes":"32","value":"t_mapping(t_address,t_bool)"},"t_mapping(t_address,t_mapping(t_address,t_struct(UserCollateral)1153_storage))":{"encoding":"mapping","key":"t_address","label":"mapping(address => mapping(address => struct CometStorage.UserCollateral))","numberOfBytes":"32","value":"t_mapping(t_address,t_struct(UserCollateral)1153_storage)"},"t_mapping(t_address,t_struct(LiquidatorPoints)1162_storage)":{"encoding":"mapping","key":"t_address","label":"mapping(address => struct CometStorage.LiquidatorPoints)","numberOfBytes":"32","value":"t_struct(LiquidatorPoints)1162_storage"},"t_mapping(t_address,t_struct(TotalsCollateral)1137_storage)":{"encoding":"mapping","key":"t_address","label":"mapping(address => struct CometStorage.TotalsCollateral)","numberOfBytes":"32","value":"t_struct(TotalsCollateral)1137_storage"},"t_mapping(t_address,t_struct(UserBasic)1148_storage)":{"encoding":"mapping","key":"t_address","label":"mapping(address => struct CometStorage.UserBasic)","numberOfBytes":"32","value":"t_struct(UserBasic)1148_storage"},"t_mapping(t_address,t_struct(UserCollateral)1153_storage)":{"encoding":"mapping","key":"t_address","label":"mapping(address => struct CometStorage.UserCollateral)","numberOfBytes":"32","value":"t_struct(UserCollateral)1153_storage"},"t_mapping(t_address,t_uint256)":{"encoding":"mapping","key":"t_address","label":"mapping(address => uint256)","numberOfBytes":"32","value":"t_uint256"},"t_struct(LiquidatorPoints)1162_storage":{"encoding":"inplace","label":"struct CometStorage.LiquidatorPoints","members":[{"astId":1155,"contract":"comet/contracts/CometStorage.sol:CometStorage","label":"numAbsorbs","offset":0,"slot":"0","type":"t_uint32"},{"astId":1157,"contract":"comet/contracts/CometStorage.sol:CometStorage","label":"numAbsorbed","offset":4,"slot":"0","type":"t_uint64"},{"astId":1159,"contract":"comet/contracts/CometStorage.sol:CometStorage","label":"approxSpend","offset":12,"slot":"0","type":"t_uint128"},{"astId":1161,"contract":"comet/contracts/CometStorage.sol:CometStorage","label":"_reserved","offset":28,"slot":"0","type":"t_uint32"}],"numberOfBytes":"32"},"t_struct(TotalsCollateral)1137_storage":{"encoding":"inplace","label":"struct CometStorage.TotalsCollateral","members":[{"astId":1134,"contract":"comet/contracts/CometStorage.sol:CometStorage","label":"totalSupplyAsset","offset":0,"slot":"0","type":"t_uint128"},{"astId":1136,"contract":"comet/contracts/CometStorage.sol:CometStorage","label":"_reserved","offset":16,"slot":"0","type":"t_uint128"}],"numberOfBytes":"32"},"t_struct(UserBasic)1148_storage":{"encoding":"inplace","label":"struct CometStorage.UserBasic","members":[{"astId":1139,"contract":"comet/contracts/CometStorage.sol:CometStorage","label":"principal","offset":0,"slot":"0","type":"t_int104"},{"astId":1141,"contract":"comet/contracts/CometStorage.sol:CometStorage","label":"baseTrackingIndex","offset":13,"slot":"0","type":"t_uint64"},{"astId":1143,"contract":"comet/contracts/CometStorage.sol:CometStorage","label":"baseTrackingAccrued","offset":21,"slot":"0","type":"t_uint64"},{"astId":1145,"contract":"comet/contracts/CometStorage.sol:CometStorage","label":"assetsIn","offset":29,"slot":"0","type":"t_uint16"},{"astId":1147,"contract":"comet/contracts/CometStorage.sol:CometStorage","label":"_reserved","offset":31,"slot":"0","type":"t_uint8"}],"numberOfBytes":"32"},"t_struct(UserCollateral)1153_storage":{"encoding":"inplace","label":"struct CometStorage.UserCollateral","members":[{"astId":1150,"contract":"comet/contracts/CometStorage.sol:CometStorage","label":"balance","offset":0,"slot":"0","type":"t_uint128"},{"astId":1152,"contract":"comet/contracts/CometStorage.sol:CometStorage","label":"_reserved","offset":16,"slot":"0","type":"t_uint128"}],"numberOfBytes":"32"},"t_uint104":{"encoding":"inplace","label":"uint104","numberOfBytes":"13"},"t_uint128":{"encoding":"inplace","label":"uint128","numberOfBytes":"16"},"t_uint16":{"encoding":"inplace","label":"uint16","numberOfBytes":"2"},"t_uint256":{"encoding":"inplace","label":"uint256","numberOfBytes":"32"},"t_uint32":{"encoding":"inplace","label":"uint32","numberOfBytes":"4"},"t_uint40":{"encoding":"inplace","label":"uint40","numberOfBytes":"5"},"t_uint64":{"encoding":"inplace","label":"uint64","numberOfBytes":"8"},"t_uint8":{"encoding":"inplace","label":"uint8","numberOfBytes":"1"}}},"userdoc":{"kind":"user","methods":{"isAllowed(address,address)":{"notice":"Mapping of users to accounts which may be permitted to manage the user account"},"liquidatorPoints(address)":{"notice":"Mapping of magic liquidator points"},"totalsCollateral(address)":{"notice":"Aggregate variables tracked for each collateral asset"},"userBasic(address)":{"notice":"Mapping of users to base principal and other basic data"},"userCollateral(address,address)":{"notice":"Mapping of users to collateral data per collateral asset"},"userNonce(address)":{"notice":"The next expected nonce for an address, for validating authorizations via signature"}},"version":1}}}}