{"contracts/Facets/Test2Facet.sol":{"Test2Facet":{"abi":[{"inputs":[],"name":"test2Func1","outputs":[],"stateMutability":"nonpayable","type":"function"},{"inputs":[],"name":"test2Func10","outputs":[],"stateMutability":"nonpayable","type":"function"},{"inputs":[],"name":"test2Func11","outputs":[],"stateMutability":"nonpayable","type":"function"},{"inputs":[],"name":"test2Func12","outputs":[],"stateMutability":"nonpayable","type":"function"},{"inputs":[],"name":"test2Func13","outputs":[],"stateMutability":"nonpayable","type":"function"},{"inputs":[],"name":"test2Func14","outputs":[],"stateMutability":"nonpayable","type":"function"},{"inputs":[],"name":"test2Func15","outputs":[],"stateMutability":"nonpayable","type":"function"},{"inputs":[],"name":"test2Func16","outputs":[],"stateMutability":"nonpayable","type":"function"},{"inputs":[],"name":"test2Func17","outputs":[],"stateMutability":"nonpayable","type":"function"},{"inputs":[],"name":"test2Func18","outputs":[],"stateMutability":"nonpayable","type":"function"},{"inputs":[],"name":"test2Func19","outputs":[],"stateMutability":"nonpayable","type":"function"},{"inputs":[],"name":"test2Func2","outputs":[],"stateMutability":"nonpayable","type":"function"},{"inputs":[],"name":"test2Func20","outputs":[],"stateMutability":"nonpayable","type":"function"},{"inputs":[],"name":"test2Func3","outputs":[],"stateMutability":"nonpayable","type":"function"},{"inputs":[],"name":"test2Func4","outputs":[],"stateMutability":"nonpayable","type":"function"},{"inputs":[],"name":"test2Func5","outputs":[],"stateMutability":"nonpayable","type":"function"},{"inputs":[],"name":"test2Func6","outputs":[],"stateMutability":"nonpayable","type":"function"},{"inputs":[],"name":"test2Func7","outputs":[],"stateMutability":"nonpayable","type":"function"},{"inputs":[],"name":"test2Func8","outputs":[],"stateMutability":"nonpayable","type":"function"},{"inputs":[],"name":"test2Func9","outputs":[],"stateMutability":"nonpayable","type":"function"}],"devdoc":{"kind":"dev","methods":{},"version":1},"evm":{"bytecode":{"linkReferences":{},"object":"608060405234801561001057600080fd5b50610123806100206000396000f3fe6080604052348015600f57600080fd5b506004361060e65760003560e01c806303feeeae1460eb5780630c103a931460eb5780630e4cd7fc1460eb578063148843091460eb57806317fd06e71460eb5780632e4639581460eb5780635fd6312b1460eb5780636dc16b011460eb578063792a8e2e1460eb578063884280a61460eb5780638ee8be301460eb57806391d0396b1460eb578063c670641d1460eb578063ca5fa5c01460eb578063caae8f231460eb578063d2f0c73e1460eb578063e5f687b21460eb578063e7de23a41460eb578063ea36b5581460eb578063ef3f4d781460eb575b600080fd5b00fea2646970667358221220f13ba5126481d2f8128a6568dd2910f22e1ff1c97e94b28c2ca0831970faaf4c64736f6c634300080a0033","opcodes":"PUSH1 0x80 PUSH1 0x40 MSTORE CALLVALUE DUP1 ISZERO PUSH2 0x10 JUMPI PUSH1 0x0 DUP1 REVERT JUMPDEST POP PUSH2 0x123 DUP1 PUSH2 0x20 PUSH1 0x0 CODECOPY PUSH1 0x0 RETURN INVALID PUSH1 0x80 PUSH1 0x40 MSTORE CALLVALUE DUP1 ISZERO PUSH1 0xF JUMPI PUSH1 0x0 DUP1 REVERT JUMPDEST POP PUSH1 0x4 CALLDATASIZE LT PUSH1 0xE6 JUMPI PUSH1 0x0 CALLDATALOAD PUSH1 0xE0 SHR DUP1 PUSH4 0x3FEEEAE EQ PUSH1 0xEB JUMPI DUP1 PUSH4 0xC103A93 EQ PUSH1 0xEB JUMPI DUP1 PUSH4 0xE4CD7FC EQ PUSH1 0xEB JUMPI DUP1 PUSH4 0x14884309 EQ PUSH1 0xEB JUMPI DUP1 PUSH4 0x17FD06E7 EQ PUSH1 0xEB JUMPI DUP1 PUSH4 0x2E463958 EQ PUSH1 0xEB JUMPI DUP1 PUSH4 0x5FD6312B EQ PUSH1 0xEB JUMPI DUP1 PUSH4 0x6DC16B01 EQ PUSH1 0xEB JUMPI DUP1 PUSH4 0x792A8E2E EQ PUSH1 0xEB JUMPI DUP1 PUSH4 0x884280A6 EQ PUSH1 0xEB JUMPI DUP1 PUSH4 0x8EE8BE30 EQ PUSH1 0xEB JUMPI DUP1 PUSH4 0x91D0396B EQ PUSH1 0xEB JUMPI DUP1 PUSH4 0xC670641D EQ PUSH1 0xEB JUMPI DUP1 PUSH4 0xCA5FA5C0 EQ PUSH1 0xEB JUMPI DUP1 PUSH4 0xCAAE8F23 EQ PUSH1 0xEB JUMPI DUP1 PUSH4 0xD2F0C73E EQ PUSH1 0xEB JUMPI DUP1 PUSH4 0xE5F687B2 EQ PUSH1 0xEB JUMPI DUP1 PUSH4 0xE7DE23A4 EQ PUSH1 0xEB JUMPI DUP1 PUSH4 0xEA36B558 EQ PUSH1 0xEB JUMPI DUP1 PUSH4 0xEF3F4D78 EQ PUSH1 0xEB JUMPI JUMPDEST PUSH1 0x0 DUP1 REVERT JUMPDEST STOP INVALID LOG2 PUSH5 0x6970667358 0x22 SLT KECCAK256 CALL EXTCODESIZE 0xA5 SLT PUSH5 0x81D2F8128A PUSH6 0x68DD2910F22E 0x1F CALL 0xC9 PUSH31 0x94B28C2CA0831970FAAF4C64736F6C634300080A0033000000000000000000 "},"gasEstimates":{"creation":{"codeDepositCost":"58200","executionCost":"111","totalCost":"58311"},"external":{"test2Func1()":"494","test2Func10()":"318","test2Func11()":"296","test2Func12()":"384","test2Func13()":"252","test2Func14()":"340","test2Func15()":"98","test2Func16()":"208","test2Func17()":"164","test2Func18()":"120","test2Func19()":"230","test2Func2()":"472","test2Func20()":"274","test2Func3()":"142","test2Func4()":"362","test2Func5()":"428","test2Func6()":"186","test2Func7()":"516","test2Func8()":"450","test2Func9()":"406"}},"methodIdentifiers":{"test2Func1()":"ea36b558","test2Func10()":"8ee8be30","test2Func11()":"884280a6","test2Func12()":"ca5fa5c0","test2Func13()":"6dc16b01","test2Func14()":"91d0396b","test2Func15()":"03feeeae","test2Func16()":"2e463958","test2Func17()":"14884309","test2Func18()":"0c103a93","test2Func19()":"5fd6312b","test2Func2()":"e7de23a4","test2Func20()":"792a8e2e","test2Func3()":"0e4cd7fc","test2Func4()":"c670641d","test2Func5()":"d2f0c73e","test2Func6()":"17fd06e7","test2Func7()":"ef3f4d78","test2Func8()":"e5f687b2","test2Func9()":"caae8f23"}},"storageLayout":{"storage":[],"types":null},"userdoc":{"kind":"user","methods":{},"version":1}}}}