{"contracts/upgradeIntializers/DiamondMultiInit.sol":{"DiamondMultiInit":{"abi":[{"inputs":[{"internalType":"uint256","name":"_addressesLength","type":"uint256"},{"internalType":"uint256","name":"_calldataLength","type":"uint256"}],"name":"AddressAndCalldataLengthDoNotMatch","type":"error"},{"inputs":[{"internalType":"address","name":"_initializationContractAddress","type":"address"},{"internalType":"bytes","name":"_calldata","type":"bytes"}],"name":"InitializationFunctionReverted","type":"error"},{"inputs":[{"internalType":"address","name":"_contractAddress","type":"address"},{"internalType":"string","name":"_message","type":"string"}],"name":"NoBytecodeAtAddress","type":"error"},{"inputs":[{"internalType":"address[]","name":"_addresses","type":"address[]"},{"internalType":"bytes[]","name":"_calldata","type":"bytes[]"}],"name":"multiInit","outputs":[],"stateMutability":"nonpayable","type":"function"}],"devdoc":{"kind":"dev","methods":{},"version":1},"evm":{"bytecode":{"linkReferences":{},"object":"608060405234801561001057600080fd5b5061051b806100206000396000f3fe608060405234801561001057600080fd5b506004361061002b5760003560e01c80636e02fa3c14610030575b600080fd5b61004361003e366004610264565b610045565b005b828114610072576040516339a070b360e11b815261006990849083906004016102e3565b60405180910390fd5b60005b838110156101175761010585858381811061009257610092610305565b90506020020160208101906100a79190610350565b8484848181106100b9576100b9610305565b90506020028101906100cb9190610379565b8080601f01602080910402602001604051908101604052809392919081815260200183838082843760009201919091525061011e92505050565b8061010f816103ed565b915050610075565b5050505050565b6001600160a01b038216610130575050565b610152826040518060600160405280602881526020016104be602891396101ea565b600080836001600160a01b03168360405161016d9190610456565b600060405180830381855af49150503d80600081146101a8576040519150601f19603f3d011682016040523d82523d6000602084013e6101ad565b606091505b5091509150816101e4578051156101c75780518082602001fd5b838360405163192105d760e01b815260040161006992919061049d565b50505050565b813b8061020e57828260405163919834b960e01b815260040161006992919061049d565b505050565b60008083601f84011261022857610228600080fd5b5081356001600160401b0381111561024257610242600080fd5b60208301915083602082028301111561025d5761025d600080fd5b9250929050565b6000806000806040858703121561027d5761027d600080fd5b84356001600160401b0381111561029657610296600080fd5b6102a287828801610213565b945094505060208501356001600160401b038111156102c3576102c3600080fd5b6102cf87828801610213565b95989497509550505050565b805b82525050565b604081016102f182856102db565b6102fe60208301846102db565b9392505050565b634e487b7160e01b600052603260045260246000fd5b60006001600160a01b0382165b92915050565b6103378161031b565b811461034257600080fd5b50565b80356103288161032e565b60006020828403121561036557610365600080fd5b60006103718484610345565b949350505050565b6000808335601e193685900301811261039457610394600080fd5b8084019250823591506001600160401b038211156103b4576103b4600080fd5b6020830192506001820236038313156103cf576103cf600080fd5b509250929050565b634e487b7160e01b600052601160045260246000fd5b6000600019821415610401576104016103d7565b5060010190565b60005b8381101561042357818101518382015260200161040b565b838111156101e45750506000910152565b600061043e825190565b61044c818560208601610408565b9290920192915050565b60006102fe8284610434565b6102dd8161031b565b6000610475825190565b80845260208401935061048c818560208601610408565b601f01601f19169290920192915050565b604081016104ab8285610462565b8181036020830152610371818461046b56fe4c69624469616d6f6e644375743a205f696e6974206164647265737320686173206e6f20636f6465a2646970667358221220c5cc64a53a633b5a268320f5d68f6aaa353e43fc96aba101c63004b5db7292d564736f6c634300080a0033","opcodes":"PUSH1 0x80 PUSH1 0x40 MSTORE CALLVALUE DUP1 ISZERO PUSH2 0x10 JUMPI PUSH1 0x0 DUP1 REVERT JUMPDEST POP PUSH2 0x51B DUP1 PUSH2 0x20 PUSH1 0x0 CODECOPY PUSH1 0x0 RETURN INVALID PUSH1 0x80 PUSH1 0x40 MSTORE CALLVALUE DUP1 ISZERO PUSH2 0x10 JUMPI PUSH1 0x0 DUP1 REVERT JUMPDEST POP PUSH1 0x4 CALLDATASIZE LT PUSH2 0x2B JUMPI PUSH1 0x0 CALLDATALOAD PUSH1 0xE0 SHR DUP1 PUSH4 0x6E02FA3C EQ PUSH2 0x30 JUMPI JUMPDEST PUSH1 0x0 DUP1 REVERT JUMPDEST PUSH2 0x43 PUSH2 0x3E CALLDATASIZE PUSH1 0x4 PUSH2 0x264 JUMP JUMPDEST PUSH2 0x45 JUMP JUMPDEST STOP JUMPDEST DUP3 DUP2 EQ PUSH2 0x72 JUMPI PUSH1 0x40 MLOAD PUSH4 0x39A070B3 PUSH1 0xE1 SHL DUP2 MSTORE PUSH2 0x69 SWAP1 DUP5 SWAP1 DUP4 SWAP1 PUSH1 0x4 ADD PUSH2 0x2E3 JUMP JUMPDEST PUSH1 0x40 MLOAD DUP1 SWAP2 SUB SWAP1 REVERT JUMPDEST PUSH1 0x0 JUMPDEST DUP4 DUP2 LT ISZERO PUSH2 0x117 JUMPI PUSH2 0x105 DUP6 DUP6 DUP4 DUP2 DUP2 LT PUSH2 0x92 JUMPI PUSH2 0x92 PUSH2 0x305 JUMP JUMPDEST SWAP1 POP PUSH1 0x20 MUL ADD PUSH1 0x20 DUP2 ADD SWAP1 PUSH2 0xA7 SWAP2 SWAP1 PUSH2 0x350 JUMP JUMPDEST DUP5 DUP5 DUP5 DUP2 DUP2 LT PUSH2 0xB9 JUMPI PUSH2 0xB9 PUSH2 0x305 JUMP JUMPDEST SWAP1 POP PUSH1 0x20 MUL DUP2 ADD SWAP1 PUSH2 0xCB SWAP2 SWAP1 PUSH2 0x379 JUMP JUMPDEST DUP1 DUP1 PUSH1 0x1F ADD PUSH1 0x20 DUP1 SWAP2 DIV MUL PUSH1 0x20 ADD PUSH1 0x40 MLOAD SWAP1 DUP2 ADD PUSH1 0x40 MSTORE DUP1 SWAP4 SWAP3 SWAP2 SWAP1 DUP2 DUP2 MSTORE PUSH1 0x20 ADD DUP4 DUP4 DUP1 DUP3 DUP5 CALLDATACOPY PUSH1 0x0 SWAP3 ADD SWAP2 SWAP1 SWAP2 MSTORE POP PUSH2 0x11E SWAP3 POP POP POP JUMP JUMPDEST DUP1 PUSH2 0x10F DUP2 PUSH2 0x3ED JUMP JUMPDEST SWAP2 POP POP PUSH2 0x75 JUMP JUMPDEST POP POP POP POP POP JUMP JUMPDEST PUSH1 0x1 PUSH1 0x1 PUSH1 0xA0 SHL SUB DUP3 AND PUSH2 0x130 JUMPI POP POP JUMP JUMPDEST PUSH2 0x152 DUP3 PUSH1 0x40 MLOAD DUP1 PUSH1 0x60 ADD PUSH1 0x40 MSTORE DUP1 PUSH1 0x28 DUP2 MSTORE PUSH1 0x20 ADD PUSH2 0x4BE PUSH1 0x28 SWAP2 CODECOPY PUSH2 0x1EA JUMP JUMPDEST PUSH1 0x0 DUP1 DUP4 PUSH1 0x1 PUSH1 0x1 PUSH1 0xA0 SHL SUB AND DUP4 PUSH1 0x40 MLOAD PUSH2 0x16D SWAP2 SWAP1 PUSH2 0x456 JUMP JUMPDEST PUSH1 0x0 PUSH1 0x40 MLOAD DUP1 DUP4 SUB DUP2 DUP6 GAS DELEGATECALL SWAP2 POP POP RETURNDATASIZE DUP1 PUSH1 0x0 DUP2 EQ PUSH2 0x1A8 JUMPI PUSH1 0x40 MLOAD SWAP2 POP PUSH1 0x1F NOT PUSH1 0x3F RETURNDATASIZE ADD AND DUP3 ADD PUSH1 0x40 MSTORE RETURNDATASIZE DUP3 MSTORE RETURNDATASIZE PUSH1 0x0 PUSH1 0x20 DUP5 ADD RETURNDATACOPY PUSH2 0x1AD JUMP JUMPDEST PUSH1 0x60 SWAP2 POP JUMPDEST POP SWAP2 POP SWAP2 POP DUP2 PUSH2 0x1E4 JUMPI DUP1 MLOAD ISZERO PUSH2 0x1C7 JUMPI DUP1 MLOAD DUP1 DUP3 PUSH1 0x20 ADD REVERT JUMPDEST DUP4 DUP4 PUSH1 0x40 MLOAD PUSH4 0x192105D7 PUSH1 0xE0 SHL DUP2 MSTORE PUSH1 0x4 ADD PUSH2 0x69 SWAP3 SWAP2 SWAP1 PUSH2 0x49D JUMP JUMPDEST POP POP POP POP JUMP JUMPDEST DUP2 EXTCODESIZE DUP1 PUSH2 0x20E JUMPI DUP3 DUP3 PUSH1 0x40 MLOAD PUSH4 0x919834B9 PUSH1 0xE0 SHL DUP2 MSTORE PUSH1 0x4 ADD PUSH2 0x69 SWAP3 SWAP2 SWAP1 PUSH2 0x49D JUMP JUMPDEST POP POP POP JUMP JUMPDEST PUSH1 0x0 DUP1 DUP4 PUSH1 0x1F DUP5 ADD SLT PUSH2 0x228 JUMPI PUSH2 0x228 PUSH1 0x0 DUP1 REVERT JUMPDEST POP DUP2 CALLDATALOAD PUSH1 0x1 PUSH1 0x1 PUSH1 0x40 SHL SUB DUP2 GT ISZERO PUSH2 0x242 JUMPI PUSH2 0x242 PUSH1 0x0 DUP1 REVERT JUMPDEST PUSH1 0x20 DUP4 ADD SWAP2 POP DUP4 PUSH1 0x20 DUP3 MUL DUP4 ADD GT ISZERO PUSH2 0x25D JUMPI PUSH2 0x25D PUSH1 0x0 DUP1 REVERT JUMPDEST SWAP3 POP SWAP3 SWAP1 POP JUMP JUMPDEST PUSH1 0x0 DUP1 PUSH1 0x0 DUP1 PUSH1 0x40 DUP6 DUP8 SUB SLT ISZERO PUSH2 0x27D JUMPI PUSH2 0x27D PUSH1 0x0 DUP1 REVERT JUMPDEST DUP5 CALLDATALOAD PUSH1 0x1 PUSH1 0x1 PUSH1 0x40 SHL SUB DUP2 GT ISZERO PUSH2 0x296 JUMPI PUSH2 0x296 PUSH1 0x0 DUP1 REVERT JUMPDEST PUSH2 0x2A2 DUP8 DUP3 DUP9 ADD PUSH2 0x213 JUMP JUMPDEST SWAP5 POP SWAP5 POP POP PUSH1 0x20 DUP6 ADD CALLDATALOAD PUSH1 0x1 PUSH1 0x1 PUSH1 0x40 SHL SUB DUP2 GT ISZERO PUSH2 0x2C3 JUMPI PUSH2 0x2C3 PUSH1 0x0 DUP1 REVERT JUMPDEST PUSH2 0x2CF DUP8 DUP3 DUP9 ADD PUSH2 0x213 JUMP JUMPDEST SWAP6 SWAP9 SWAP5 SWAP8 POP SWAP6 POP POP POP POP JUMP JUMPDEST DUP1 JUMPDEST DUP3 MSTORE POP POP JUMP JUMPDEST PUSH1 0x40 DUP2 ADD PUSH2 0x2F1 DUP3 DUP6 PUSH2 0x2DB JUMP JUMPDEST PUSH2 0x2FE PUSH1 0x20 DUP4 ADD DUP5 PUSH2 0x2DB JUMP JUMPDEST SWAP4 SWAP3 POP POP POP JUMP JUMPDEST PUSH4 0x4E487B71 PUSH1 0xE0 SHL PUSH1 0x0 MSTORE PUSH1 0x32 PUSH1 0x4 MSTORE PUSH1 0x24 PUSH1 0x0 REVERT JUMPDEST PUSH1 0x0 PUSH1 0x1 PUSH1 0x1 PUSH1 0xA0 SHL SUB DUP3 AND JUMPDEST SWAP3 SWAP2 POP POP JUMP JUMPDEST PUSH2 0x337 DUP2 PUSH2 0x31B JUMP JUMPDEST DUP2 EQ PUSH2 0x342 JUMPI PUSH1 0x0 DUP1 REVERT JUMPDEST POP JUMP JUMPDEST DUP1 CALLDATALOAD PUSH2 0x328 DUP2 PUSH2 0x32E JUMP JUMPDEST PUSH1 0x0 PUSH1 0x20 DUP3 DUP5 SUB SLT ISZERO PUSH2 0x365 JUMPI PUSH2 0x365 PUSH1 0x0 DUP1 REVERT JUMPDEST PUSH1 0x0 PUSH2 0x371 DUP5 DUP5 PUSH2 0x345 JUMP JUMPDEST SWAP5 SWAP4 POP POP POP POP JUMP JUMPDEST PUSH1 0x0 DUP1 DUP4 CALLDATALOAD PUSH1 0x1E NOT CALLDATASIZE DUP6 SWAP1 SUB ADD DUP2 SLT PUSH2 0x394 JUMPI PUSH2 0x394 PUSH1 0x0 DUP1 REVERT JUMPDEST DUP1 DUP5 ADD SWAP3 POP DUP3 CALLDATALOAD SWAP2 POP PUSH1 0x1 PUSH1 0x1 PUSH1 0x40 SHL SUB DUP3 GT ISZERO PUSH2 0x3B4 JUMPI PUSH2 0x3B4 PUSH1 0x0 DUP1 REVERT JUMPDEST PUSH1 0x20 DUP4 ADD SWAP3 POP PUSH1 0x1 DUP3 MUL CALLDATASIZE SUB DUP4 SGT ISZERO PUSH2 0x3CF JUMPI PUSH2 0x3CF PUSH1 0x0 DUP1 REVERT JUMPDEST POP SWAP3 POP SWAP3 SWAP1 POP JUMP JUMPDEST PUSH4 0x4E487B71 PUSH1 0xE0 SHL PUSH1 0x0 MSTORE PUSH1 0x11 PUSH1 0x4 MSTORE PUSH1 0x24 PUSH1 0x0 REVERT JUMPDEST PUSH1 0x0 PUSH1 0x0 NOT DUP3 EQ ISZERO PUSH2 0x401 JUMPI PUSH2 0x401 PUSH2 0x3D7 JUMP JUMPDEST POP PUSH1 0x1 ADD SWAP1 JUMP JUMPDEST PUSH1 0x0 JUMPDEST DUP4 DUP2 LT ISZERO PUSH2 0x423 JUMPI DUP2 DUP2 ADD MLOAD DUP4 DUP3 ADD MSTORE PUSH1 0x20 ADD PUSH2 0x40B JUMP JUMPDEST DUP4 DUP2 GT ISZERO PUSH2 0x1E4 JUMPI POP POP PUSH1 0x0 SWAP2 ADD MSTORE JUMP JUMPDEST PUSH1 0x0 PUSH2 0x43E DUP3 MLOAD SWAP1 JUMP JUMPDEST PUSH2 0x44C DUP2 DUP6 PUSH1 0x20 DUP7 ADD PUSH2 0x408 JUMP JUMPDEST SWAP3 SWAP1 SWAP3 ADD SWAP3 SWAP2 POP POP JUMP JUMPDEST PUSH1 0x0 PUSH2 0x2FE DUP3 DUP5 PUSH2 0x434 JUMP JUMPDEST PUSH2 0x2DD DUP2 PUSH2 0x31B JUMP JUMPDEST PUSH1 0x0 PUSH2 0x475 DUP3 MLOAD SWAP1 JUMP JUMPDEST DUP1 DUP5 MSTORE PUSH1 0x20 DUP5 ADD SWAP4 POP PUSH2 0x48C DUP2 DUP6 PUSH1 0x20 DUP7 ADD PUSH2 0x408 JUMP JUMPDEST PUSH1 0x1F ADD PUSH1 0x1F NOT AND SWAP3 SWAP1 SWAP3 ADD SWAP3 SWAP2 POP POP JUMP JUMPDEST PUSH1 0x40 DUP2 ADD PUSH2 0x4AB DUP3 DUP6 PUSH2 0x462 JUMP JUMPDEST DUP2 DUP2 SUB PUSH1 0x20 DUP4 ADD MSTORE PUSH2 0x371 DUP2 DUP5 PUSH2 0x46B JUMP INVALID 0x4C PUSH10 0x624469616D6F6E644375 PUSH21 0x3A205F696E6974206164647265737320686173206E PUSH16 0x20636F6465A2646970667358221220C5 0xCC PUSH5 0xA53A633B5A 0x26 DUP4 KECCAK256 CREATE2 0xD6 DUP16 PUSH11 0xAA353E43FC96ABA101C630 DIV 0xB5 0xDB PUSH19 0x92D564736F6C634300080A0033000000000000 "},"gasEstimates":{"creation":{"codeDepositCost":"261400","executionCost":"300","totalCost":"261700"},"external":{"multiInit(address[],bytes[])":"infinite"}},"methodIdentifiers":{"multiInit(address[],bytes[])":"6e02fa3c"}},"storageLayout":{"storage":[],"types":null},"userdoc":{"kind":"user","methods":{},"version":1}}}}