{"contracts/Facets/Diamond/Test1Facet.sol":{"Test1Facet":{"abi":[{"anonymous":false,"inputs":[{"indexed":false,"internalType":"address","name":"something","type":"address"}],"name":"TestEvent","type":"event"},{"inputs":[],"name":"num","outputs":[{"internalType":"uint256","name":"","type":"uint256"}],"stateMutability":"view","type":"function"},{"inputs":[{"internalType":"uint256","name":"n","type":"uint256"}],"name":"setNum","outputs":[],"stateMutability":"nonpayable","type":"function"},{"inputs":[{"internalType":"bytes4","name":"_interfaceID","type":"bytes4"}],"name":"supportsInterface","outputs":[{"internalType":"bool","name":"","type":"bool"}],"stateMutability":"view","type":"function"},{"inputs":[],"name":"test1Func1","outputs":[],"stateMutability":"nonpayable","type":"function"},{"inputs":[],"name":"test1Func10","outputs":[],"stateMutability":"nonpayable","type":"function"},{"inputs":[],"name":"test1Func11","outputs":[],"stateMutability":"nonpayable","type":"function"},{"inputs":[],"name":"test1Func12","outputs":[],"stateMutability":"nonpayable","type":"function"},{"inputs":[],"name":"test1Func13","outputs":[],"stateMutability":"nonpayable","type":"function"},{"inputs":[],"name":"test1Func14","outputs":[],"stateMutability":"nonpayable","type":"function"},{"inputs":[],"name":"test1Func15","outputs":[],"stateMutability":"nonpayable","type":"function"},{"inputs":[],"name":"test1Func16","outputs":[],"stateMutability":"nonpayable","type":"function"},{"inputs":[],"name":"test1Func17","outputs":[],"stateMutability":"nonpayable","type":"function"},{"inputs":[],"name":"test1Func18","outputs":[],"stateMutability":"nonpayable","type":"function"},{"inputs":[],"name":"test1Func19","outputs":[],"stateMutability":"nonpayable","type":"function"},{"inputs":[],"name":"test1Func2","outputs":[{"internalType":"address","name":"","type":"address"}],"stateMutability":"view","type":"function"},{"inputs":[],"name":"test1Func20","outputs":[],"stateMutability":"nonpayable","type":"function"},{"inputs":[],"name":"test1Func4","outputs":[],"stateMutability":"nonpayable","type":"function"},{"inputs":[],"name":"test1Func5","outputs":[],"stateMutability":"nonpayable","type":"function"},{"inputs":[],"name":"test1Func6","outputs":[],"stateMutability":"nonpayable","type":"function"},{"inputs":[],"name":"test1Func7","outputs":[],"stateMutability":"nonpayable","type":"function"},{"inputs":[],"name":"test1Func8","outputs":[],"stateMutability":"nonpayable","type":"function"},{"inputs":[],"name":"test1Func9","outputs":[],"stateMutability":"nonpayable","type":"function"}],"devdoc":{"kind":"dev","methods":{},"version":1},"evm":{"bytecode":{"linkReferences":{},"object":"608060405234801561001057600080fd5b50610359806100206000396000f3fe608060405234801561001057600080fd5b50600436106101125760003560e01c806301ffc9a7146101175780630716c2ae1461014157806319c841ab1461015657806319e3b5331461015857806324c1d5a714610156578063292c460d146101565780632cb83248146101565780634484b3b9146101565780634e70b1dc1461016057806350eb3f431461015657806351b68a4d1461015657806371a99d6f1461015657806377e9d0d61461015657806381b5207d1461015657806387952d22146101565780639abf97aa14610156578063b0e8fcc714610156578063cbb835f614610156578063cd0bae0914610156578063cd16ecbf14610175578063cf3bbe1814610156578063db32da1514610156575b600080fd5b61012b610125366004610274565b50600090565b60405161013891906102a7565b60405180910390f35b610149610188565b60405161013891906102cf565b005b610156610199565b6101686101a2565b60405161013891906102e3565b610156610183366004610302565b6101ac565b60006101926101b8565b905090565b565b610197306101d3565b60006101926101ff565b6101b581610214565b50565b6000806101c3610228565b546001600160a01b031692915050565b60006101dd610228565b80546001600160a01b0319166001600160a01b03939093169290921790915550565b60008061020a610228565b6001015492915050565b600061021e610228565b6001019190915550565b7fe172d0f8decaecdd4c56ac9d5abd3aebbc2d423f323d7c1b0d0a8a21feef1df390565b6001600160e01b031981165b81146101b557600080fd5b803561026e8161024c565b92915050565b60006020828403121561028957610289600080fd5b60006102958484610263565b949350505050565b8015155b82525050565b6020810161026e828461029d565b60006001600160a01b03821661026e565b6102a1816102b5565b6020810161026e82846102c6565b806102a1565b6020810161026e82846102dd565b80610258565b803561026e816102f1565b60006020828403121561031757610317600080fd5b600061029584846102f756fea264697066735822122035068ce7f42de9d71f36d367ce13e2f5521390c9493ffbbda541412e6baea4d464736f6c634300080a0033","opcodes":"PUSH1 0x80 PUSH1 0x40 MSTORE CALLVALUE DUP1 ISZERO PUSH2 0x10 JUMPI PUSH1 0x0 DUP1 REVERT JUMPDEST POP PUSH2 0x359 DUP1 PUSH2 0x20 PUSH1 0x0 CODECOPY PUSH1 0x0 RETURN INVALID PUSH1 0x80 PUSH1 0x40 MSTORE CALLVALUE DUP1 ISZERO PUSH2 0x10 JUMPI PUSH1 0x0 DUP1 REVERT JUMPDEST POP PUSH1 0x4 CALLDATASIZE LT PUSH2 0x112 JUMPI PUSH1 0x0 CALLDATALOAD PUSH1 0xE0 SHR DUP1 PUSH4 0x1FFC9A7 EQ PUSH2 0x117 JUMPI DUP1 PUSH4 0x716C2AE EQ PUSH2 0x141 JUMPI DUP1 PUSH4 0x19C841AB EQ PUSH2 0x156 JUMPI DUP1 PUSH4 0x19E3B533 EQ PUSH2 0x158 JUMPI DUP1 PUSH4 0x24C1D5A7 EQ PUSH2 0x156 JUMPI DUP1 PUSH4 0x292C460D EQ PUSH2 0x156 JUMPI DUP1 PUSH4 0x2CB83248 EQ PUSH2 0x156 JUMPI DUP1 PUSH4 0x4484B3B9 EQ PUSH2 0x156 JUMPI DUP1 PUSH4 0x4E70B1DC EQ PUSH2 0x160 JUMPI DUP1 PUSH4 0x50EB3F43 EQ PUSH2 0x156 JUMPI DUP1 PUSH4 0x51B68A4D EQ PUSH2 0x156 JUMPI DUP1 PUSH4 0x71A99D6F EQ PUSH2 0x156 JUMPI DUP1 PUSH4 0x77E9D0D6 EQ PUSH2 0x156 JUMPI DUP1 PUSH4 0x81B5207D EQ PUSH2 0x156 JUMPI DUP1 PUSH4 0x87952D22 EQ PUSH2 0x156 JUMPI DUP1 PUSH4 0x9ABF97AA EQ PUSH2 0x156 JUMPI DUP1 PUSH4 0xB0E8FCC7 EQ PUSH2 0x156 JUMPI DUP1 PUSH4 0xCBB835F6 EQ PUSH2 0x156 JUMPI DUP1 PUSH4 0xCD0BAE09 EQ PUSH2 0x156 JUMPI DUP1 PUSH4 0xCD16ECBF EQ PUSH2 0x175 JUMPI DUP1 PUSH4 0xCF3BBE18 EQ PUSH2 0x156 JUMPI DUP1 PUSH4 0xDB32DA15 EQ PUSH2 0x156 JUMPI JUMPDEST PUSH1 0x0 DUP1 REVERT JUMPDEST PUSH2 0x12B PUSH2 0x125 CALLDATASIZE PUSH1 0x4 PUSH2 0x274 JUMP JUMPDEST POP PUSH1 0x0 SWAP1 JUMP JUMPDEST PUSH1 0x40 MLOAD PUSH2 0x138 SWAP2 SWAP1 PUSH2 0x2A7 JUMP JUMPDEST PUSH1 0x40 MLOAD DUP1 SWAP2 SUB SWAP1 RETURN JUMPDEST PUSH2 0x149 PUSH2 0x188 JUMP JUMPDEST PUSH1 0x40 MLOAD PUSH2 0x138 SWAP2 SWAP1 PUSH2 0x2CF JUMP JUMPDEST STOP JUMPDEST PUSH2 0x156 PUSH2 0x199 JUMP JUMPDEST PUSH2 0x168 PUSH2 0x1A2 JUMP JUMPDEST PUSH1 0x40 MLOAD PUSH2 0x138 SWAP2 SWAP1 PUSH2 0x2E3 JUMP JUMPDEST PUSH2 0x156 PUSH2 0x183 CALLDATASIZE PUSH1 0x4 PUSH2 0x302 JUMP JUMPDEST PUSH2 0x1AC JUMP JUMPDEST PUSH1 0x0 PUSH2 0x192 PUSH2 0x1B8 JUMP JUMPDEST SWAP1 POP SWAP1 JUMP JUMPDEST JUMP JUMPDEST PUSH2 0x197 ADDRESS PUSH2 0x1D3 JUMP JUMPDEST PUSH1 0x0 PUSH2 0x192 PUSH2 0x1FF JUMP JUMPDEST PUSH2 0x1B5 DUP2 PUSH2 0x214 JUMP JUMPDEST POP JUMP JUMPDEST PUSH1 0x0 DUP1 PUSH2 0x1C3 PUSH2 0x228 JUMP JUMPDEST SLOAD PUSH1 0x1 PUSH1 0x1 PUSH1 0xA0 SHL SUB AND SWAP3 SWAP2 POP POP JUMP JUMPDEST PUSH1 0x0 PUSH2 0x1DD PUSH2 0x228 JUMP JUMPDEST DUP1 SLOAD PUSH1 0x1 PUSH1 0x1 PUSH1 0xA0 SHL SUB NOT AND PUSH1 0x1 PUSH1 0x1 PUSH1 0xA0 SHL SUB SWAP4 SWAP1 SWAP4 AND SWAP3 SWAP1 SWAP3 OR SWAP1 SWAP2 SSTORE POP JUMP JUMPDEST PUSH1 0x0 DUP1 PUSH2 0x20A PUSH2 0x228 JUMP JUMPDEST PUSH1 0x1 ADD SLOAD SWAP3 SWAP2 POP POP JUMP JUMPDEST PUSH1 0x0 PUSH2 0x21E PUSH2 0x228 JUMP JUMPDEST PUSH1 0x1 ADD SWAP2 SWAP1 SWAP2 SSTORE POP JUMP JUMPDEST PUSH32 0xE172D0F8DECAECDD4C56AC9D5ABD3AEBBC2D423F323D7C1B0D0A8A21FEEF1DF3 SWAP1 JUMP JUMPDEST PUSH1 0x1 PUSH1 0x1 PUSH1 0xE0 SHL SUB NOT DUP2 AND JUMPDEST DUP2 EQ PUSH2 0x1B5 JUMPI PUSH1 0x0 DUP1 REVERT JUMPDEST DUP1 CALLDATALOAD PUSH2 0x26E DUP2 PUSH2 0x24C JUMP JUMPDEST SWAP3 SWAP2 POP POP JUMP JUMPDEST PUSH1 0x0 PUSH1 0x20 DUP3 DUP5 SUB SLT ISZERO PUSH2 0x289 JUMPI PUSH2 0x289 PUSH1 0x0 DUP1 REVERT JUMPDEST PUSH1 0x0 PUSH2 0x295 DUP5 DUP5 PUSH2 0x263 JUMP JUMPDEST SWAP5 SWAP4 POP POP POP POP JUMP JUMPDEST DUP1 ISZERO ISZERO JUMPDEST DUP3 MSTORE POP POP JUMP JUMPDEST PUSH1 0x20 DUP2 ADD PUSH2 0x26E DUP3 DUP5 PUSH2 0x29D JUMP JUMPDEST PUSH1 0x0 PUSH1 0x1 PUSH1 0x1 PUSH1 0xA0 SHL SUB DUP3 AND PUSH2 0x26E JUMP JUMPDEST PUSH2 0x2A1 DUP2 PUSH2 0x2B5 JUMP JUMPDEST PUSH1 0x20 DUP2 ADD PUSH2 0x26E DUP3 DUP5 PUSH2 0x2C6 JUMP JUMPDEST DUP1 PUSH2 0x2A1 JUMP JUMPDEST PUSH1 0x20 DUP2 ADD PUSH2 0x26E DUP3 DUP5 PUSH2 0x2DD JUMP JUMPDEST DUP1 PUSH2 0x258 JUMP JUMPDEST DUP1 CALLDATALOAD PUSH2 0x26E DUP2 PUSH2 0x2F1 JUMP JUMPDEST PUSH1 0x0 PUSH1 0x20 DUP3 DUP5 SUB SLT ISZERO PUSH2 0x317 JUMPI PUSH2 0x317 PUSH1 0x0 DUP1 REVERT JUMPDEST PUSH1 0x0 PUSH2 0x295 DUP5 DUP5 PUSH2 0x2F7 JUMP INVALID LOG2 PUSH5 0x6970667358 0x22 SLT KECCAK256 CALLDATALOAD MOD DUP13 0xE7 DELEGATECALL 0x2D 0xE9 0xD7 0x1F CALLDATASIZE 0xD3 PUSH8 0xCE13E2F5521390C9 0x49 EXTCODEHASH 0xFB 0xBD 0xA5 COINBASE COINBASE 0x2E PUSH12 0xAEA4D464736F6C634300080A STOP CALLER "},"gasEstimates":{"creation":{"codeDepositCost":"171400","executionCost":"214","totalCost":"171614"},"external":{"num()":"1319","setNum(uint256)":"infinite","supportsInterface(bytes4)":"infinite","test1Func1()":"21118","test1Func10()":"406","test1Func11()":"296","test1Func12()":"384","test1Func13()":"142","test1Func14()":"318","test1Func15()":"230","test1Func16()":"362","test1Func17()":"252","test1Func18()":"428","test1Func19()":"208","test1Func2()":"infinite","test1Func20()":"450","test1Func4()":"538","test1Func5()":"186","test1Func6()":"472","test1Func7()":"340","test1Func8()":"560","test1Func9()":"494"}},"methodIdentifiers":{"num()":"4e70b1dc","setNum(uint256)":"cd16ecbf","supportsInterface(bytes4)":"01ffc9a7","test1Func1()":"19e3b533","test1Func10()":"87952d22","test1Func11()":"50eb3f43","test1Func12()":"81b5207d","test1Func13()":"19c841ab","test1Func14()":"51b68a4d","test1Func15()":"2cb83248","test1Func16()":"77e9d0d6","test1Func17()":"4484b3b9","test1Func18()":"9abf97aa","test1Func19()":"292c460d","test1Func2()":"0716c2ae","test1Func20()":"b0e8fcc7","test1Func4()":"cf3bbe18","test1Func5()":"24c1d5a7","test1Func6()":"cbb835f6","test1Func7()":"71a99d6f","test1Func8()":"db32da15","test1Func9()":"cd0bae09"}},"storageLayout":{"storage":[],"types":null},"userdoc":{"kind":"user","methods":{},"version":1}}}}