{"contracts/Test.sol":{"Test":{"abi":[{"inputs":[{"internalType":"uint256","name":"_num","type":"uint256"}],"stateMutability":"nonpayable","type":"constructor"},{"inputs":[],"name":"num","outputs":[{"internalType":"uint256","name":"","type":"uint256"}],"stateMutability":"view","type":"function"},{"inputs":[{"internalType":"uint256","name":"_num","type":"uint256"}],"name":"storeValue","outputs":[],"stateMutability":"nonpayable","type":"function"}],"devdoc":{"kind":"dev","methods":{},"version":1},"evm":{"bytecode":{"linkReferences":{},"object":"608060405234801561001057600080fd5b5060405161013538038061013583398101604081905261002f91610037565b600055610053565b60006020828403121561004c5761004c600080fd5b5051919050565b60d4806100616000396000f3fe6080604052348015600f57600080fd5b506004361060325760003560e01c80634e70b1dc1460375780637221a26a146053575b600080fd5b603f60005481565b604051604a91906065565b60405180910390f35b6063605e3660046079565b600055565b005b818152602081015b92915050565b8035606d565b600060208284031215608c57608c600080fd5b6000609684846073565b94935050505056fea2646970667358221220a64d21bb4dadeedfab19b0374d8cae0254fcecde4ee1d6adc58a676da02b91aa64736f6c634300080a0033","opcodes":"PUSH1 0x80 PUSH1 0x40 MSTORE CALLVALUE DUP1 ISZERO PUSH2 0x10 JUMPI PUSH1 0x0 DUP1 REVERT JUMPDEST POP PUSH1 0x40 MLOAD PUSH2 0x135 CODESIZE SUB DUP1 PUSH2 0x135 DUP4 CODECOPY DUP2 ADD PUSH1 0x40 DUP2 SWAP1 MSTORE PUSH2 0x2F SWAP2 PUSH2 0x37 JUMP JUMPDEST PUSH1 0x0 SSTORE PUSH2 0x53 JUMP JUMPDEST PUSH1 0x0 PUSH1 0x20 DUP3 DUP5 SUB SLT ISZERO PUSH2 0x4C JUMPI PUSH2 0x4C PUSH1 0x0 DUP1 REVERT JUMPDEST POP MLOAD SWAP2 SWAP1 POP JUMP JUMPDEST PUSH1 0xD4 DUP1 PUSH2 0x61 PUSH1 0x0 CODECOPY PUSH1 0x0 RETURN INVALID PUSH1 0x80 PUSH1 0x40 MSTORE CALLVALUE DUP1 ISZERO PUSH1 0xF JUMPI PUSH1 0x0 DUP1 REVERT JUMPDEST POP PUSH1 0x4 CALLDATASIZE LT PUSH1 0x32 JUMPI PUSH1 0x0 CALLDATALOAD PUSH1 0xE0 SHR DUP1 PUSH4 0x4E70B1DC EQ PUSH1 0x37 JUMPI DUP1 PUSH4 0x7221A26A EQ PUSH1 0x53 JUMPI JUMPDEST PUSH1 0x0 DUP1 REVERT JUMPDEST PUSH1 0x3F PUSH1 0x0 SLOAD DUP2 JUMP JUMPDEST PUSH1 0x40 MLOAD PUSH1 0x4A SWAP2 SWAP1 PUSH1 0x65 JUMP JUMPDEST PUSH1 0x40 MLOAD DUP1 SWAP2 SUB SWAP1 RETURN JUMPDEST PUSH1 0x63 PUSH1 0x5E CALLDATASIZE PUSH1 0x4 PUSH1 0x79 JUMP JUMPDEST PUSH1 0x0 SSTORE JUMP JUMPDEST STOP JUMPDEST DUP2 DUP2 MSTORE PUSH1 0x20 DUP2 ADD JUMPDEST SWAP3 SWAP2 POP POP JUMP JUMPDEST DUP1 CALLDATALOAD PUSH1 0x6D JUMP JUMPDEST PUSH1 0x0 PUSH1 0x20 DUP3 DUP5 SUB SLT ISZERO PUSH1 0x8C JUMPI PUSH1 0x8C PUSH1 0x0 DUP1 REVERT JUMPDEST PUSH1 0x0 PUSH1 0x96 DUP5 DUP5 PUSH1 0x73 JUMP JUMPDEST SWAP5 SWAP4 POP POP POP POP JUMP INVALID LOG2 PUSH5 0x6970667358 0x22 SLT KECCAK256 0xA6 0x4D 0x21 0xBB 0x4D 0xAD 0xEE 0xDF 0xAB NOT 0xB0 CALLDATACOPY 0x4D DUP13 0xAE MUL SLOAD 0xFC 0xEC 0xDE 0x4E 0xE1 0xD6 0xAD 0xC5 DUP11 PUSH8 0x6DA02B91AA64736F PUSH13 0x634300080A0033000000000000 "},"gasEstimates":{"creation":{"codeDepositCost":"42400","executionCost":"infinite","totalCost":"infinite"},"external":{"num()":"1005","storeValue(uint256)":"20274"}},"methodIdentifiers":{"num()":"4e70b1dc","storeValue(uint256)":"7221a26a"}},"storageLayout":{"storage":[{"astId":3,"contract":"contracts/Test.sol:Test","label":"num","offset":0,"slot":"0","type":"t_uint256"}],"types":{"t_uint256":{"encoding":"inplace","label":"uint256","numberOfBytes":"32"}}},"userdoc":{"kind":"user","methods":{},"version":1}}}}