{"contracts/Facets/Hyperlane/EmptyISM.sol":{"EmptyIsm":{"abi":[{"inputs":[],"name":"count","outputs":[{"internalType":"uint256","name":"","type":"uint256"}],"stateMutability":"view","type":"function"},{"inputs":[],"name":"moduleType","outputs":[{"internalType":"uint8","name":"","type":"uint8"}],"stateMutability":"view","type":"function"},{"inputs":[{"internalType":"bytes","name":"_metadata","type":"bytes"},{"internalType":"bytes","name":"_message","type":"bytes"}],"name":"verify","outputs":[{"internalType":"bool","name":"","type":"bool"}],"stateMutability":"nonpayable","type":"function"}],"devdoc":{"kind":"dev","methods":{"moduleType()":{"details":"Relayers infer how to fetch and format metadata."},"verify(bytes,bytes)":{"params":{"_message":"Hyperlane encoded interchain message","_metadata":"Off-chain metadata provided by a relayer, specific to the security model encoded by the module (e.g. validator signatures)"},"returns":{"_0":"True if the message was verified"}}},"version":1},"evm":{"bytecode":{"linkReferences":{},"object":"60806040526000805534801561001457600080fd5b506101c3806100246000396000f3fe608060405234801561001057600080fd5b50600436106100415760003560e01c806306661abd146100465780636465e69f14610062578063f7e83aee14610071575b600080fd5b61004f60005481565b6040519081526020015b60405180910390f35b60405160068152602001610059565b61008461007f3660046100fb565b610094565b6040519015158152602001610059565b6000805481806100a383610166565b9091555060019695505050505050565b60008083601f8401126100c557600080fd5b5081356001600160401b038111156100dc57600080fd5b6020830191508360208285010111156100f457600080fd5b9250929050565b6000806000806040858703121561011157600080fd5b84356001600160401b038082111561012857600080fd5b610134888389016100b3565b9096509450602087013591508082111561014d57600080fd5b5061015a878288016100b3565b95989497509550505050565b60006001820161018657634e487b7160e01b600052601160045260246000fd5b506001019056fea2646970667358221220e19bf0f2f80c27b17a5783c68db739a90444063ec588660cbcbc09be7ce7e6a064736f6c63430008140033","opcodes":"PUSH1 0x80 PUSH1 0x40 MSTORE PUSH1 0x0 DUP1 SSTORE CALLVALUE DUP1 ISZERO PUSH2 0x14 JUMPI PUSH1 0x0 DUP1 REVERT JUMPDEST POP PUSH2 0x1C3 DUP1 PUSH2 0x24 PUSH1 0x0 CODECOPY PUSH1 0x0 RETURN INVALID PUSH1 0x80 PUSH1 0x40 MSTORE CALLVALUE DUP1 ISZERO PUSH2 0x10 JUMPI PUSH1 0x0 DUP1 REVERT JUMPDEST POP PUSH1 0x4 CALLDATASIZE LT PUSH2 0x41 JUMPI PUSH1 0x0 CALLDATALOAD PUSH1 0xE0 SHR DUP1 PUSH4 0x6661ABD EQ PUSH2 0x46 JUMPI DUP1 PUSH4 0x6465E69F EQ PUSH2 0x62 JUMPI DUP1 PUSH4 0xF7E83AEE EQ PUSH2 0x71 JUMPI JUMPDEST PUSH1 0x0 DUP1 REVERT JUMPDEST PUSH2 0x4F PUSH1 0x0 SLOAD DUP2 JUMP JUMPDEST PUSH1 0x40 MLOAD SWAP1 DUP2 MSTORE PUSH1 0x20 ADD JUMPDEST PUSH1 0x40 MLOAD DUP1 SWAP2 SUB SWAP1 RETURN JUMPDEST PUSH1 0x40 MLOAD PUSH1 0x6 DUP2 MSTORE PUSH1 0x20 ADD PUSH2 0x59 JUMP JUMPDEST PUSH2 0x84 PUSH2 0x7F CALLDATASIZE PUSH1 0x4 PUSH2 0xFB JUMP JUMPDEST PUSH2 0x94 JUMP JUMPDEST PUSH1 0x40 MLOAD SWAP1 ISZERO ISZERO DUP2 MSTORE PUSH1 0x20 ADD PUSH2 0x59 JUMP JUMPDEST PUSH1 0x0 DUP1 SLOAD DUP2 DUP1 PUSH2 0xA3 DUP4 PUSH2 0x166 JUMP JUMPDEST SWAP1 SWAP2 SSTORE POP PUSH1 0x1 SWAP7 SWAP6 POP POP POP POP POP POP JUMP JUMPDEST PUSH1 0x0 DUP1 DUP4 PUSH1 0x1F DUP5 ADD SLT PUSH2 0xC5 JUMPI PUSH1 0x0 DUP1 REVERT JUMPDEST POP DUP2 CALLDATALOAD PUSH1 0x1 PUSH1 0x1 PUSH1 0x40 SHL SUB DUP2 GT ISZERO PUSH2 0xDC JUMPI PUSH1 0x0 DUP1 REVERT JUMPDEST PUSH1 0x20 DUP4 ADD SWAP2 POP DUP4 PUSH1 0x20 DUP3 DUP6 ADD ADD GT ISZERO PUSH2 0xF4 JUMPI PUSH1 0x0 DUP1 REVERT JUMPDEST SWAP3 POP SWAP3 SWAP1 POP JUMP JUMPDEST PUSH1 0x0 DUP1 PUSH1 0x0 DUP1 PUSH1 0x40 DUP6 DUP8 SUB SLT ISZERO PUSH2 0x111 JUMPI PUSH1 0x0 DUP1 REVERT JUMPDEST DUP5 CALLDATALOAD PUSH1 0x1 PUSH1 0x1 PUSH1 0x40 SHL SUB DUP1 DUP3 GT ISZERO PUSH2 0x128 JUMPI PUSH1 0x0 DUP1 REVERT JUMPDEST PUSH2 0x134 DUP9 DUP4 DUP10 ADD PUSH2 0xB3 JUMP JUMPDEST SWAP1 SWAP7 POP SWAP5 POP PUSH1 0x20 DUP8 ADD CALLDATALOAD SWAP2 POP DUP1 DUP3 GT ISZERO PUSH2 0x14D JUMPI PUSH1 0x0 DUP1 REVERT JUMPDEST POP PUSH2 0x15A DUP8 DUP3 DUP9 ADD PUSH2 0xB3 JUMP JUMPDEST SWAP6 SWAP9 SWAP5 SWAP8 POP SWAP6 POP POP POP POP JUMP JUMPDEST PUSH1 0x0 PUSH1 0x1 DUP3 ADD PUSH2 0x186 JUMPI PUSH4 0x4E487B71 PUSH1 0xE0 SHL PUSH1 0x0 MSTORE PUSH1 0x11 PUSH1 0x4 MSTORE PUSH1 0x24 PUSH1 0x0 REVERT JUMPDEST POP PUSH1 0x1 ADD SWAP1 JUMP INVALID LOG2 PUSH5 0x6970667358 0x22 SLT KECCAK256 0xE1 SWAP12 CREATE CALLCODE 0xF8 0xC 0x27 0xB1 PUSH27 0x5783C68DB739A90444063EC588660CBCBC09BE7CE7E6A064736F6C PUSH4 0x43000814 STOP CALLER "},"gasEstimates":{"creation":{"codeDepositCost":"90200","executionCost":"5147","totalCost":"95347"},"external":{"count()":"2262","moduleType()":"177","verify(bytes,bytes)":"infinite"}},"methodIdentifiers":{"count()":"06661abd","moduleType()":"6465e69f","verify(bytes,bytes)":"f7e83aee"}},"storageLayout":{"storage":[{"astId":16,"contract":"contracts/Facets/Hyperlane/EmptyISM.sol:EmptyIsm","label":"count","offset":0,"slot":"0","type":"t_uint256"}],"types":{"t_uint256":{"encoding":"inplace","label":"uint256","numberOfBytes":"32"}}},"userdoc":{"kind":"user","methods":{"moduleType()":{"notice":"Returns an enum that represents the type of security model encoded by this ISM."},"verify(bytes,bytes)":{"notice":"Defines a security model responsible for verifying interchain messages based on the provided metadata."}},"version":1}}}}