{"contracts/Facets/Hyperlane/EmptyISM.sol":{"EmptyIsm":{"abi":[{"inputs":[],"name":"count","outputs":[{"internalType":"uint256","name":"","type":"uint256"}],"stateMutability":"view","type":"function"},{"inputs":[{"internalType":"bytes","name":"_message","type":"bytes"}],"name":"getOffchainVerifyInfo","outputs":[],"stateMutability":"nonpayable","type":"function"},{"inputs":[],"name":"moduleType","outputs":[{"internalType":"uint8","name":"","type":"uint8"}],"stateMutability":"view","type":"function"},{"inputs":[{"internalType":"bytes","name":"_metadata","type":"bytes"},{"internalType":"bytes","name":"_message","type":"bytes"}],"name":"verify","outputs":[{"internalType":"bool","name":"","type":"bool"}],"stateMutability":"nonpayable","type":"function"}],"devdoc":{"kind":"dev","methods":{"moduleType()":{"details":"Relayers infer how to fetch and format metadata."},"verify(bytes,bytes)":{"params":{"_message":"Hyperlane encoded interchain message","_metadata":"Off-chain metadata provided by a relayer, specific to the security model encoded by the module (e.g. validator signatures)"},"returns":{"_0":"True if the message was verified"}}},"version":1},"evm":{"bytecode":{"linkReferences":{},"object":"60806040526000805534801561001457600080fd5b50610265806100246000396000f3fe608060405234801561001057600080fd5b506004361061004c5760003560e01c806306661abd146100515780636465e69f1461006d578063bbac9bc81461007c578063f7e83aee14610091575b600080fd5b61005a60005481565b6040519081526020015b60405180910390f35b60405160078152602001610064565b61008f61008a36600461013b565b6100b4565b005b6100a461009f36600461017c565b6100c9565b6040519015158152602001610064565b6000546100c29060016101fd565b6000555050565b6000805481806100d883610216565b91905055506000546002036100eb575060015b949350505050565b60008083601f84011261010557600080fd5b5081356001600160401b0381111561011c57600080fd5b60208301915083602082850101111561013457600080fd5b9250929050565b6000806020838503121561014e57600080fd5b82356001600160401b0381111561016457600080fd5b610170858286016100f3565b90969095509350505050565b6000806000806040858703121561019257600080fd5b84356001600160401b03808211156101a957600080fd5b6101b5888389016100f3565b909650945060208701359150808211156101ce57600080fd5b506101db878288016100f3565b95989497509550505050565b634e487b7160e01b600052601160045260246000fd5b80820180821115610210576102106101e7565b92915050565b600060018201610228576102286101e7565b506001019056fea2646970667358221220a20df5df608bc089a90de6bbe8a87914944bd57ec796e50b6f9db1960fc85dd964736f6c63430008140033","opcodes":"PUSH1 0x80 PUSH1 0x40 MSTORE PUSH1 0x0 DUP1 SSTORE CALLVALUE DUP1 ISZERO PUSH2 0x14 JUMPI PUSH1 0x0 DUP1 REVERT JUMPDEST POP PUSH2 0x265 DUP1 PUSH2 0x24 PUSH1 0x0 CODECOPY PUSH1 0x0 RETURN INVALID PUSH1 0x80 PUSH1 0x40 MSTORE CALLVALUE DUP1 ISZERO PUSH2 0x10 JUMPI PUSH1 0x0 DUP1 REVERT JUMPDEST POP PUSH1 0x4 CALLDATASIZE LT PUSH2 0x4C JUMPI PUSH1 0x0 CALLDATALOAD PUSH1 0xE0 SHR DUP1 PUSH4 0x6661ABD EQ PUSH2 0x51 JUMPI DUP1 PUSH4 0x6465E69F EQ PUSH2 0x6D JUMPI DUP1 PUSH4 0xBBAC9BC8 EQ PUSH2 0x7C JUMPI DUP1 PUSH4 0xF7E83AEE EQ PUSH2 0x91 JUMPI JUMPDEST PUSH1 0x0 DUP1 REVERT JUMPDEST PUSH2 0x5A PUSH1 0x0 SLOAD DUP2 JUMP JUMPDEST PUSH1 0x40 MLOAD SWAP1 DUP2 MSTORE PUSH1 0x20 ADD JUMPDEST PUSH1 0x40 MLOAD DUP1 SWAP2 SUB SWAP1 RETURN JUMPDEST PUSH1 0x40 MLOAD PUSH1 0x7 DUP2 MSTORE PUSH1 0x20 ADD PUSH2 0x64 JUMP JUMPDEST PUSH2 0x8F PUSH2 0x8A CALLDATASIZE PUSH1 0x4 PUSH2 0x13B JUMP JUMPDEST PUSH2 0xB4 JUMP JUMPDEST STOP JUMPDEST PUSH2 0xA4 PUSH2 0x9F CALLDATASIZE PUSH1 0x4 PUSH2 0x17C JUMP JUMPDEST PUSH2 0xC9 JUMP JUMPDEST PUSH1 0x40 MLOAD SWAP1 ISZERO ISZERO DUP2 MSTORE PUSH1 0x20 ADD PUSH2 0x64 JUMP JUMPDEST PUSH1 0x0 SLOAD PUSH2 0xC2 SWAP1 PUSH1 0x1 PUSH2 0x1FD JUMP JUMPDEST PUSH1 0x0 SSTORE POP POP JUMP JUMPDEST PUSH1 0x0 DUP1 SLOAD DUP2 DUP1 PUSH2 0xD8 DUP4 PUSH2 0x216 JUMP JUMPDEST SWAP2 SWAP1 POP SSTORE POP PUSH1 0x0 SLOAD PUSH1 0x2 SUB PUSH2 0xEB JUMPI POP PUSH1 0x1 JUMPDEST SWAP5 SWAP4 POP POP POP POP JUMP JUMPDEST PUSH1 0x0 DUP1 DUP4 PUSH1 0x1F DUP5 ADD SLT PUSH2 0x105 JUMPI PUSH1 0x0 DUP1 REVERT JUMPDEST POP DUP2 CALLDATALOAD PUSH1 0x1 PUSH1 0x1 PUSH1 0x40 SHL SUB DUP2 GT ISZERO PUSH2 0x11C JUMPI PUSH1 0x0 DUP1 REVERT JUMPDEST PUSH1 0x20 DUP4 ADD SWAP2 POP DUP4 PUSH1 0x20 DUP3 DUP6 ADD ADD GT ISZERO PUSH2 0x134 JUMPI PUSH1 0x0 DUP1 REVERT JUMPDEST SWAP3 POP SWAP3 SWAP1 POP JUMP JUMPDEST PUSH1 0x0 DUP1 PUSH1 0x20 DUP4 DUP6 SUB SLT ISZERO PUSH2 0x14E JUMPI PUSH1 0x0 DUP1 REVERT JUMPDEST DUP3 CALLDATALOAD PUSH1 0x1 PUSH1 0x1 PUSH1 0x40 SHL SUB DUP2 GT ISZERO PUSH2 0x164 JUMPI PUSH1 0x0 DUP1 REVERT JUMPDEST PUSH2 0x170 DUP6 DUP3 DUP7 ADD PUSH2 0xF3 JUMP JUMPDEST SWAP1 SWAP7 SWAP1 SWAP6 POP SWAP4 POP POP POP POP JUMP JUMPDEST PUSH1 0x0 DUP1 PUSH1 0x0 DUP1 PUSH1 0x40 DUP6 DUP8 SUB SLT ISZERO PUSH2 0x192 JUMPI PUSH1 0x0 DUP1 REVERT JUMPDEST DUP5 CALLDATALOAD PUSH1 0x1 PUSH1 0x1 PUSH1 0x40 SHL SUB DUP1 DUP3 GT ISZERO PUSH2 0x1A9 JUMPI PUSH1 0x0 DUP1 REVERT JUMPDEST PUSH2 0x1B5 DUP9 DUP4 DUP10 ADD PUSH2 0xF3 JUMP JUMPDEST SWAP1 SWAP7 POP SWAP5 POP PUSH1 0x20 DUP8 ADD CALLDATALOAD SWAP2 POP DUP1 DUP3 GT ISZERO PUSH2 0x1CE JUMPI PUSH1 0x0 DUP1 REVERT JUMPDEST POP PUSH2 0x1DB DUP8 DUP3 DUP9 ADD PUSH2 0xF3 JUMP JUMPDEST SWAP6 SWAP9 SWAP5 SWAP8 POP SWAP6 POP POP POP POP JUMP JUMPDEST PUSH4 0x4E487B71 PUSH1 0xE0 SHL PUSH1 0x0 MSTORE PUSH1 0x11 PUSH1 0x4 MSTORE PUSH1 0x24 PUSH1 0x0 REVERT JUMPDEST DUP1 DUP3 ADD DUP1 DUP3 GT ISZERO PUSH2 0x210 JUMPI PUSH2 0x210 PUSH2 0x1E7 JUMP JUMPDEST SWAP3 SWAP2 POP POP JUMP JUMPDEST PUSH1 0x0 PUSH1 0x1 DUP3 ADD PUSH2 0x228 JUMPI PUSH2 0x228 PUSH2 0x1E7 JUMP JUMPDEST POP PUSH1 0x1 ADD SWAP1 JUMP INVALID LOG2 PUSH5 0x6970667358 0x22 SLT KECCAK256 LOG2 0xD CREATE2 0xDF PUSH1 0x8B 0xC0 DUP10 0xA9 0xD 0xE6 0xBB 0xE8 0xA8 PUSH26 0x14944BD57EC796E50B6F9DB1960FC85DD964736F6C6343000814 STOP CALLER "},"gasEstimates":{"creation":{"codeDepositCost":"122600","executionCost":"5177","totalCost":"127777"},"external":{"count()":"2262","getOffchainVerifyInfo(bytes)":"24769","moduleType()":"177","verify(bytes,bytes)":"infinite"}},"methodIdentifiers":{"count()":"06661abd","getOffchainVerifyInfo(bytes)":"bbac9bc8","moduleType()":"6465e69f","verify(bytes,bytes)":"f7e83aee"}},"storageLayout":{"storage":[{"astId":123,"contract":"contracts/Facets/Hyperlane/EmptyISM.sol:EmptyIsm","label":"count","offset":0,"slot":"0","type":"t_uint256"}],"types":{"t_uint256":{"encoding":"inplace","label":"uint256","numberOfBytes":"32"}}},"userdoc":{"kind":"user","methods":{"moduleType()":{"notice":"Returns an enum that represents the type of security model encoded by this ISM."},"verify(bytes,bytes)":{"notice":"Defines a security model responsible for verifying interchain messages based on the provided metadata."}},"version":1}}}}