{"contracts/Facets/Diamond/Test1Facet.sol":{"Test1Facet":{"abi":[{"anonymous":false,"inputs":[{"indexed":false,"internalType":"address","name":"something","type":"address"}],"name":"TestEvent","type":"event"},{"inputs":[{"internalType":"bytes4","name":"_interfaceID","type":"bytes4"}],"name":"supportsInterface","outputs":[{"internalType":"bool","name":"","type":"bool"}],"stateMutability":"view","type":"function"},{"inputs":[],"name":"test1Func1","outputs":[],"stateMutability":"nonpayable","type":"function"},{"inputs":[],"name":"test1Func10","outputs":[],"stateMutability":"nonpayable","type":"function"},{"inputs":[],"name":"test1Func11","outputs":[],"stateMutability":"nonpayable","type":"function"},{"inputs":[],"name":"test1Func12","outputs":[],"stateMutability":"nonpayable","type":"function"},{"inputs":[],"name":"test1Func13","outputs":[],"stateMutability":"nonpayable","type":"function"},{"inputs":[],"name":"test1Func14","outputs":[],"stateMutability":"nonpayable","type":"function"},{"inputs":[],"name":"test1Func15","outputs":[],"stateMutability":"nonpayable","type":"function"},{"inputs":[],"name":"test1Func16","outputs":[],"stateMutability":"nonpayable","type":"function"},{"inputs":[],"name":"test1Func17","outputs":[],"stateMutability":"nonpayable","type":"function"},{"inputs":[],"name":"test1Func18","outputs":[],"stateMutability":"nonpayable","type":"function"},{"inputs":[],"name":"test1Func19","outputs":[],"stateMutability":"nonpayable","type":"function"},{"inputs":[],"name":"test1Func2","outputs":[{"internalType":"address","name":"","type":"address"}],"stateMutability":"view","type":"function"},{"inputs":[],"name":"test1Func20","outputs":[],"stateMutability":"nonpayable","type":"function"},{"inputs":[],"name":"test1Func3","outputs":[],"stateMutability":"nonpayable","type":"function"},{"inputs":[],"name":"test1Func4","outputs":[],"stateMutability":"nonpayable","type":"function"},{"inputs":[],"name":"test1Func5","outputs":[],"stateMutability":"nonpayable","type":"function"},{"inputs":[],"name":"test1Func6","outputs":[],"stateMutability":"nonpayable","type":"function"},{"inputs":[],"name":"test1Func7","outputs":[],"stateMutability":"nonpayable","type":"function"},{"inputs":[],"name":"test1Func8","outputs":[],"stateMutability":"nonpayable","type":"function"},{"inputs":[],"name":"test1Func9","outputs":[],"stateMutability":"nonpayable","type":"function"}],"devdoc":{"kind":"dev","methods":{},"version":1},"evm":{"bytecode":{"linkReferences":{},"object":"608060405234801561001057600080fd5b506102a3806100206000396000f3fe608060405234801561001057600080fd5b50600436106101075760003560e01c806301ffc9a71461010c5780630716c2ae14610136578063110460471461014b57806319c841ab1461014b57806319e3b5331461014d57806324c1d5a71461014b578063292c460d1461014b5780632cb832481461014b5780634484b3b91461014b57806350eb3f431461014b57806351b68a4d1461014b57806371a99d6f1461014b57806377e9d0d61461014b57806381b5207d1461014b57806387952d221461014b5780639abf97aa1461014b578063b0e8fcc71461014b578063cbb835f61461014b578063cd0bae091461014b578063cf3bbe181461014b578063db32da151461014b575b600080fd5b61012061011a366004610204565b50600090565b60405161012d9190610237565b60405180910390f35b61013e610155565b60405161012d919061025f565b005b61014b610166565b600061015f61016f565b905090565b565b6101643061018a565b60008061017a6101b6565b546001600160a01b031692915050565b60006101946101b6565b80546001600160a01b0319166001600160a01b03939093169290921790915550565b7fe172d0f8decaecdd4c56ac9d5abd3aebbc2d423f323d7c1b0d0a8a21feef1df390565b6001600160e01b0319811681146101f057600080fd5b50565b80356101fe816101da565b92915050565b60006020828403121561021957610219600080fd5b600061022584846101f3565b949350505050565b8015155b82525050565b602081016101fe828461022d565b60006001600160a01b0382166101fe565b61023181610245565b602081016101fe828461025656fea26469706673582212206cb495c606e595150cdba6d73075a91d760bc707b5c0a0a5272e4eb68fe5237d64736f6c634300080a0033","opcodes":"PUSH1 0x80 PUSH1 0x40 MSTORE CALLVALUE DUP1 ISZERO PUSH2 0x10 JUMPI PUSH1 0x0 DUP1 REVERT JUMPDEST POP PUSH2 0x2A3 DUP1 PUSH2 0x20 PUSH1 0x0 CODECOPY PUSH1 0x0 RETURN INVALID PUSH1 0x80 PUSH1 0x40 MSTORE CALLVALUE DUP1 ISZERO PUSH2 0x10 JUMPI PUSH1 0x0 DUP1 REVERT JUMPDEST POP PUSH1 0x4 CALLDATASIZE LT PUSH2 0x107 JUMPI PUSH1 0x0 CALLDATALOAD PUSH1 0xE0 SHR DUP1 PUSH4 0x1FFC9A7 EQ PUSH2 0x10C JUMPI DUP1 PUSH4 0x716C2AE EQ PUSH2 0x136 JUMPI DUP1 PUSH4 0x11046047 EQ PUSH2 0x14B JUMPI DUP1 PUSH4 0x19C841AB EQ PUSH2 0x14B JUMPI DUP1 PUSH4 0x19E3B533 EQ PUSH2 0x14D JUMPI DUP1 PUSH4 0x24C1D5A7 EQ PUSH2 0x14B JUMPI DUP1 PUSH4 0x292C460D EQ PUSH2 0x14B JUMPI DUP1 PUSH4 0x2CB83248 EQ PUSH2 0x14B JUMPI DUP1 PUSH4 0x4484B3B9 EQ PUSH2 0x14B JUMPI DUP1 PUSH4 0x50EB3F43 EQ PUSH2 0x14B JUMPI DUP1 PUSH4 0x51B68A4D EQ PUSH2 0x14B JUMPI DUP1 PUSH4 0x71A99D6F EQ PUSH2 0x14B JUMPI DUP1 PUSH4 0x77E9D0D6 EQ PUSH2 0x14B JUMPI DUP1 PUSH4 0x81B5207D EQ PUSH2 0x14B JUMPI DUP1 PUSH4 0x87952D22 EQ PUSH2 0x14B JUMPI DUP1 PUSH4 0x9ABF97AA EQ PUSH2 0x14B JUMPI DUP1 PUSH4 0xB0E8FCC7 EQ PUSH2 0x14B JUMPI DUP1 PUSH4 0xCBB835F6 EQ PUSH2 0x14B JUMPI DUP1 PUSH4 0xCD0BAE09 EQ PUSH2 0x14B JUMPI DUP1 PUSH4 0xCF3BBE18 EQ PUSH2 0x14B JUMPI DUP1 PUSH4 0xDB32DA15 EQ PUSH2 0x14B JUMPI JUMPDEST PUSH1 0x0 DUP1 REVERT JUMPDEST PUSH2 0x120 PUSH2 0x11A CALLDATASIZE PUSH1 0x4 PUSH2 0x204 JUMP JUMPDEST POP PUSH1 0x0 SWAP1 JUMP JUMPDEST PUSH1 0x40 MLOAD PUSH2 0x12D SWAP2 SWAP1 PUSH2 0x237 JUMP JUMPDEST PUSH1 0x40 MLOAD DUP1 SWAP2 SUB SWAP1 RETURN JUMPDEST PUSH2 0x13E PUSH2 0x155 JUMP JUMPDEST PUSH1 0x40 MLOAD PUSH2 0x12D SWAP2 SWAP1 PUSH2 0x25F JUMP JUMPDEST STOP JUMPDEST PUSH2 0x14B PUSH2 0x166 JUMP JUMPDEST PUSH1 0x0 PUSH2 0x15F PUSH2 0x16F JUMP JUMPDEST SWAP1 POP SWAP1 JUMP JUMPDEST JUMP JUMPDEST PUSH2 0x164 ADDRESS PUSH2 0x18A JUMP JUMPDEST PUSH1 0x0 DUP1 PUSH2 0x17A PUSH2 0x1B6 JUMP JUMPDEST SLOAD PUSH1 0x1 PUSH1 0x1 PUSH1 0xA0 SHL SUB AND SWAP3 SWAP2 POP POP JUMP JUMPDEST PUSH1 0x0 PUSH2 0x194 PUSH2 0x1B6 JUMP JUMPDEST DUP1 SLOAD PUSH1 0x1 PUSH1 0x1 PUSH1 0xA0 SHL SUB NOT AND PUSH1 0x1 PUSH1 0x1 PUSH1 0xA0 SHL SUB SWAP4 SWAP1 SWAP4 AND SWAP3 SWAP1 SWAP3 OR SWAP1 SWAP2 SSTORE POP JUMP JUMPDEST PUSH32 0xE172D0F8DECAECDD4C56AC9D5ABD3AEBBC2D423F323D7C1B0D0A8A21FEEF1DF3 SWAP1 JUMP JUMPDEST PUSH1 0x1 PUSH1 0x1 PUSH1 0xE0 SHL SUB NOT DUP2 AND DUP2 EQ PUSH2 0x1F0 JUMPI PUSH1 0x0 DUP1 REVERT JUMPDEST POP JUMP JUMPDEST DUP1 CALLDATALOAD PUSH2 0x1FE DUP2 PUSH2 0x1DA JUMP JUMPDEST SWAP3 SWAP2 POP POP JUMP JUMPDEST PUSH1 0x0 PUSH1 0x20 DUP3 DUP5 SUB SLT ISZERO PUSH2 0x219 JUMPI PUSH2 0x219 PUSH1 0x0 DUP1 REVERT JUMPDEST PUSH1 0x0 PUSH2 0x225 DUP5 DUP5 PUSH2 0x1F3 JUMP JUMPDEST SWAP5 SWAP4 POP POP POP POP JUMP JUMPDEST DUP1 ISZERO ISZERO JUMPDEST DUP3 MSTORE POP POP JUMP JUMPDEST PUSH1 0x20 DUP2 ADD PUSH2 0x1FE DUP3 DUP5 PUSH2 0x22D JUMP JUMPDEST PUSH1 0x0 PUSH1 0x1 PUSH1 0x1 PUSH1 0xA0 SHL SUB DUP3 AND PUSH2 0x1FE JUMP JUMPDEST PUSH2 0x231 DUP2 PUSH2 0x245 JUMP JUMPDEST PUSH1 0x20 DUP2 ADD PUSH2 0x1FE DUP3 DUP5 PUSH2 0x256 JUMP INVALID LOG2 PUSH5 0x6970667358 0x22 SLT KECCAK256 PUSH13 0xB495C606E595150CDBA6D73075 0xA9 SAR PUSH23 0xBC707B5C0A0A5272E4EB68FE5237D64736F6C63430008 EXP STOP CALLER "},"gasEstimates":{"creation":{"codeDepositCost":"135000","executionCost":"183","totalCost":"135183"},"external":{"supportsInterface(bytes4)":"infinite","test1Func1()":"21140","test1Func10()":"406","test1Func11()":"296","test1Func12()":"384","test1Func13()":"164","test1Func14()":"318","test1Func15()":"252","test1Func16()":"362","test1Func17()":"274","test1Func18()":"428","test1Func19()":"230","test1Func2()":"infinite","test1Func20()":"450","test1Func3()":"142","test1Func4()":"516","test1Func5()":"208","test1Func6()":"472","test1Func7()":"340","test1Func8()":"538","test1Func9()":"494"}},"methodIdentifiers":{"supportsInterface(bytes4)":"01ffc9a7","test1Func1()":"19e3b533","test1Func10()":"87952d22","test1Func11()":"50eb3f43","test1Func12()":"81b5207d","test1Func13()":"19c841ab","test1Func14()":"51b68a4d","test1Func15()":"2cb83248","test1Func16()":"77e9d0d6","test1Func17()":"4484b3b9","test1Func18()":"9abf97aa","test1Func19()":"292c460d","test1Func2()":"0716c2ae","test1Func20()":"b0e8fcc7","test1Func3()":"11046047","test1Func4()":"cf3bbe18","test1Func5()":"24c1d5a7","test1Func6()":"cbb835f6","test1Func7()":"71a99d6f","test1Func8()":"db32da15","test1Func9()":"cd0bae09"}},"storageLayout":{"storage":[],"types":null},"userdoc":{"kind":"user","methods":{},"version":1}}}}