{"contracts/Facets/HyperFacet.sol":{"HyperFacet":{"abi":[{"inputs":[],"name":"getCounter","outputs":[{"internalType":"uint256","name":"","type":"uint256"}],"stateMutability":"view","type":"function"},{"inputs":[{"internalType":"uint32","name":"_origin","type":"uint32"},{"internalType":"bytes32","name":"_sender","type":"bytes32"},{"internalType":"bytes","name":"_body","type":"bytes"}],"name":"handle","outputs":[],"stateMutability":"nonpayable","type":"function"},{"inputs":[{"internalType":"uint32","name":"domain","type":"uint32"},{"internalType":"uint256","name":"gasAmount","type":"uint256"},{"internalType":"uint256","name":"_value","type":"uint256"}],"name":"hitEmUp","outputs":[],"stateMutability":"payable","type":"function"},{"inputs":[],"name":"interchainSecurityModule","outputs":[{"internalType":"address","name":"","type":"address"}],"stateMutability":"view","type":"function"},{"inputs":[{"internalType":"uint256","name":"domainID","type":"uint256"},{"internalType":"address","name":"recipentAddy","type":"address"}],"name":"setDomainToAddress","outputs":[],"stateMutability":"nonpayable","type":"function"},{"inputs":[{"internalType":"address","name":"localIGP","type":"address"}],"name":"setGasMaster","outputs":[],"stateMutability":"nonpayable","type":"function"},{"inputs":[{"internalType":"address","name":"ism","type":"address"}],"name":"setISM","outputs":[],"stateMutability":"nonpayable","type":"function"},{"inputs":[{"internalType":"address","name":"maiLBox","type":"address"}],"name":"setMailBox","outputs":[],"stateMutability":"nonpayable","type":"function"}],"devdoc":{"kind":"dev","methods":{},"version":1},"evm":{"bytecode":{"linkReferences":{},"object":"608060405234801561001057600080fd5b50610681806100206000396000f3fe60806040526004361061006b5760003560e01c80632c2cd7491461007057806337e935fb1461009257806356d5d475146100a5578063759524ed146100c55780638ada066e146100e5578063cc4c515d1461010d578063de4a787f1461012d578063de523cf31461014d575b600080fd5b34801561007c57600080fd5b5061009061008b366004610479565b61016f565b005b6100906100a03660046104af565b61017b565b3480156100b157600080fd5b506100906100c03660046104e2565b61018b565b3480156100d157600080fd5b506100906100e0366004610479565b610199565b3480156100f157600080fd5b506100fa6101a2565b6040519081526020015b60405180910390f35b34801561011957600080fd5b50610090610128366004610568565b6101b1565b34801561013957600080fd5b50610090610148366004610479565b6101bf565b34801561015957600080fd5b506101626101c8565b6040516101049190610594565b610178816101d2565b50565b6101868383836101fe565b505050565b610193610349565b50505050565b6101788161036e565b60006101ac61039d565b905090565b6101bb82826103b2565b5050565b610178816103ec565b60006101ac61041b565b60006101dc610439565b80546001600160a01b0319166001600160a01b03939093169290921790915550565b6000610208610439565b8054600182015463ffffffff871660009081526003840160205260408120549394506001600160a01b039283169391831692909116908363fa31de018984336040516020016102579190610594565b6040516020818303038152906040526040518463ffffffff1660e01b8152600401610284939291906105a8565b6020604051808303816000875af11580156102a3573d6000803e3d6000fd5b505050506040513d601f19601f820116820180604052508101906102c7919061060b565b604051630237e58360e31b81526004810182905263ffffffff8a166024820152604481018990523360648201529091506001600160a01b038416906311bf2c189088906084016000604051808303818588803b15801561032657600080fd5b505af115801561033a573d6000803e3d6000fd5b50505050505050505050505050565b6000610353610439565b9050806004015460016103669190610624565b600490910155565b6000610378610439565b60010180546001600160a01b0319166001600160a01b03939093169290921790915550565b6000806103a8610439565b6004015492915050565b60006103bc610439565b600093845260030160205250604090912080546001600160a01b0319166001600160a01b03909216919091179055565b60006103f6610439565b60020180546001600160a01b0319166001600160a01b03939093169290921790915550565b600080610426610439565b600201546001600160a01b031692915050565b7f34fbc1afd8e1b9169b38b6c80a52777e06873abc0d2b3f992f7608bdf1bf6ade90565b80356001600160a01b038116811461047457600080fd5b919050565b60006020828403121561048b57600080fd5b6104948261045d565b9392505050565b803563ffffffff8116811461047457600080fd5b6000806000606084860312156104c457600080fd5b6104cd8461049b565b95602085013595506040909401359392505050565b600080600080606085870312156104f857600080fd5b6105018561049b565b93506020850135925060408501356001600160401b038082111561052457600080fd5b818701915087601f83011261053857600080fd5b81358181111561054757600080fd5b88602082850101111561055957600080fd5b95989497505060200194505050565b6000806040838503121561057b57600080fd5b8235915061058b6020840161045d565b90509250929050565b6001600160a01b0391909116815260200190565b63ffffffff8416815260006020848184015260606040840152835180606085015260005b818110156105e8578581018301518582016080015282016105cc565b506000608082860101526080601f19601f83011685010192505050949350505050565b60006020828403121561061d57600080fd5b5051919050565b8082018082111561064557634e487b7160e01b600052601160045260246000fd5b9291505056fea2646970667358221220fedc0a684b7f5c72e67c04803f0428712cb4733bcfe244c93f47a6e90f358fb864736f6c63430008140033","opcodes":"PUSH1 0x80 PUSH1 0x40 MSTORE CALLVALUE DUP1 ISZERO PUSH2 0x10 JUMPI PUSH1 0x0 DUP1 REVERT JUMPDEST POP PUSH2 0x681 DUP1 PUSH2 0x20 PUSH1 0x0 CODECOPY PUSH1 0x0 RETURN INVALID PUSH1 0x80 PUSH1 0x40 MSTORE PUSH1 0x4 CALLDATASIZE LT PUSH2 0x6B JUMPI PUSH1 0x0 CALLDATALOAD PUSH1 0xE0 SHR DUP1 PUSH4 0x2C2CD749 EQ PUSH2 0x70 JUMPI DUP1 PUSH4 0x37E935FB EQ PUSH2 0x92 JUMPI DUP1 PUSH4 0x56D5D475 EQ PUSH2 0xA5 JUMPI DUP1 PUSH4 0x759524ED EQ PUSH2 0xC5 JUMPI DUP1 PUSH4 0x8ADA066E EQ PUSH2 0xE5 JUMPI DUP1 PUSH4 0xCC4C515D EQ PUSH2 0x10D JUMPI DUP1 PUSH4 0xDE4A787F EQ PUSH2 0x12D JUMPI DUP1 PUSH4 0xDE523CF3 EQ PUSH2 0x14D JUMPI JUMPDEST PUSH1 0x0 DUP1 REVERT JUMPDEST CALLVALUE DUP1 ISZERO PUSH2 0x7C JUMPI PUSH1 0x0 DUP1 REVERT JUMPDEST POP PUSH2 0x90 PUSH2 0x8B CALLDATASIZE PUSH1 0x4 PUSH2 0x479 JUMP JUMPDEST PUSH2 0x16F JUMP JUMPDEST STOP JUMPDEST PUSH2 0x90 PUSH2 0xA0 CALLDATASIZE PUSH1 0x4 PUSH2 0x4AF JUMP JUMPDEST PUSH2 0x17B JUMP JUMPDEST CALLVALUE DUP1 ISZERO PUSH2 0xB1 JUMPI PUSH1 0x0 DUP1 REVERT JUMPDEST POP PUSH2 0x90 PUSH2 0xC0 CALLDATASIZE PUSH1 0x4 PUSH2 0x4E2 JUMP JUMPDEST PUSH2 0x18B JUMP JUMPDEST CALLVALUE DUP1 ISZERO PUSH2 0xD1 JUMPI PUSH1 0x0 DUP1 REVERT JUMPDEST POP PUSH2 0x90 PUSH2 0xE0 CALLDATASIZE PUSH1 0x4 PUSH2 0x479 JUMP JUMPDEST PUSH2 0x199 JUMP JUMPDEST CALLVALUE DUP1 ISZERO PUSH2 0xF1 JUMPI PUSH1 0x0 DUP1 REVERT JUMPDEST POP PUSH2 0xFA PUSH2 0x1A2 JUMP JUMPDEST PUSH1 0x40 MLOAD SWAP1 DUP2 MSTORE PUSH1 0x20 ADD JUMPDEST PUSH1 0x40 MLOAD DUP1 SWAP2 SUB SWAP1 RETURN JUMPDEST CALLVALUE DUP1 ISZERO PUSH2 0x119 JUMPI PUSH1 0x0 DUP1 REVERT JUMPDEST POP PUSH2 0x90 PUSH2 0x128 CALLDATASIZE PUSH1 0x4 PUSH2 0x568 JUMP JUMPDEST PUSH2 0x1B1 JUMP JUMPDEST CALLVALUE DUP1 ISZERO PUSH2 0x139 JUMPI PUSH1 0x0 DUP1 REVERT JUMPDEST POP PUSH2 0x90 PUSH2 0x148 CALLDATASIZE PUSH1 0x4 PUSH2 0x479 JUMP JUMPDEST PUSH2 0x1BF JUMP JUMPDEST CALLVALUE DUP1 ISZERO PUSH2 0x159 JUMPI PUSH1 0x0 DUP1 REVERT JUMPDEST POP PUSH2 0x162 PUSH2 0x1C8 JUMP JUMPDEST PUSH1 0x40 MLOAD PUSH2 0x104 SWAP2 SWAP1 PUSH2 0x594 JUMP JUMPDEST PUSH2 0x178 DUP2 PUSH2 0x1D2 JUMP JUMPDEST POP JUMP JUMPDEST PUSH2 0x186 DUP4 DUP4 DUP4 PUSH2 0x1FE JUMP JUMPDEST POP POP POP JUMP JUMPDEST PUSH2 0x193 PUSH2 0x349 JUMP JUMPDEST POP POP POP POP JUMP JUMPDEST PUSH2 0x178 DUP2 PUSH2 0x36E JUMP JUMPDEST PUSH1 0x0 PUSH2 0x1AC PUSH2 0x39D JUMP JUMPDEST SWAP1 POP SWAP1 JUMP JUMPDEST PUSH2 0x1BB DUP3 DUP3 PUSH2 0x3B2 JUMP JUMPDEST POP POP JUMP JUMPDEST PUSH2 0x178 DUP2 PUSH2 0x3EC JUMP JUMPDEST PUSH1 0x0 PUSH2 0x1AC PUSH2 0x41B JUMP JUMPDEST PUSH1 0x0 PUSH2 0x1DC PUSH2 0x439 JUMP JUMPDEST DUP1 SLOAD PUSH1 0x1 PUSH1 0x1 PUSH1 0xA0 SHL SUB NOT AND PUSH1 0x1 PUSH1 0x1 PUSH1 0xA0 SHL SUB SWAP4 SWAP1 SWAP4 AND SWAP3 SWAP1 SWAP3 OR SWAP1 SWAP2 SSTORE POP JUMP JUMPDEST PUSH1 0x0 PUSH2 0x208 PUSH2 0x439 JUMP JUMPDEST DUP1 SLOAD PUSH1 0x1 DUP3 ADD SLOAD PUSH4 0xFFFFFFFF DUP8 AND PUSH1 0x0 SWAP1 DUP2 MSTORE PUSH1 0x3 DUP5 ADD PUSH1 0x20 MSTORE PUSH1 0x40 DUP2 KECCAK256 SLOAD SWAP4 SWAP5 POP PUSH1 0x1 PUSH1 0x1 PUSH1 0xA0 SHL SUB SWAP3 DUP4 AND SWAP4 SWAP2 DUP4 AND SWAP3 SWAP1 SWAP2 AND SWAP1 DUP4 PUSH4 0xFA31DE01 DUP10 DUP5 CALLER PUSH1 0x40 MLOAD PUSH1 0x20 ADD PUSH2 0x257 SWAP2 SWAP1 PUSH2 0x594 JUMP JUMPDEST PUSH1 0x40 MLOAD PUSH1 0x20 DUP2 DUP4 SUB SUB DUP2 MSTORE SWAP1 PUSH1 0x40 MSTORE PUSH1 0x40 MLOAD DUP5 PUSH4 0xFFFFFFFF AND PUSH1 0xE0 SHL DUP2 MSTORE PUSH1 0x4 ADD PUSH2 0x284 SWAP4 SWAP3 SWAP2 SWAP1 PUSH2 0x5A8 JUMP JUMPDEST PUSH1 0x20 PUSH1 0x40 MLOAD DUP1 DUP4 SUB DUP2 PUSH1 0x0 DUP8 GAS CALL ISZERO DUP1 ISZERO PUSH2 0x2A3 JUMPI RETURNDATASIZE PUSH1 0x0 DUP1 RETURNDATACOPY RETURNDATASIZE PUSH1 0x0 REVERT JUMPDEST POP POP POP POP PUSH1 0x40 MLOAD RETURNDATASIZE PUSH1 0x1F NOT PUSH1 0x1F DUP3 ADD AND DUP3 ADD DUP1 PUSH1 0x40 MSTORE POP DUP2 ADD SWAP1 PUSH2 0x2C7 SWAP2 SWAP1 PUSH2 0x60B JUMP JUMPDEST PUSH1 0x40 MLOAD PUSH4 0x237E583 PUSH1 0xE3 SHL DUP2 MSTORE PUSH1 0x4 DUP2 ADD DUP3 SWAP1 MSTORE PUSH4 0xFFFFFFFF DUP11 AND PUSH1 0x24 DUP3 ADD MSTORE PUSH1 0x44 DUP2 ADD DUP10 SWAP1 MSTORE CALLER PUSH1 0x64 DUP3 ADD MSTORE SWAP1 SWAP2 POP PUSH1 0x1 PUSH1 0x1 PUSH1 0xA0 SHL SUB DUP5 AND SWAP1 PUSH4 0x11BF2C18 SWAP1 DUP9 SWAP1 PUSH1 0x84 ADD PUSH1 0x0 PUSH1 0x40 MLOAD DUP1 DUP4 SUB DUP2 DUP6 DUP9 DUP1 EXTCODESIZE ISZERO DUP1 ISZERO PUSH2 0x326 JUMPI PUSH1 0x0 DUP1 REVERT JUMPDEST POP GAS CALL ISZERO DUP1 ISZERO PUSH2 0x33A JUMPI RETURNDATASIZE PUSH1 0x0 DUP1 RETURNDATACOPY RETURNDATASIZE PUSH1 0x0 REVERT JUMPDEST POP POP POP POP POP POP POP POP POP POP POP POP POP JUMP JUMPDEST PUSH1 0x0 PUSH2 0x353 PUSH2 0x439 JUMP JUMPDEST SWAP1 POP DUP1 PUSH1 0x4 ADD SLOAD PUSH1 0x1 PUSH2 0x366 SWAP2 SWAP1 PUSH2 0x624 JUMP JUMPDEST PUSH1 0x4 SWAP1 SWAP2 ADD SSTORE JUMP JUMPDEST PUSH1 0x0 PUSH2 0x378 PUSH2 0x439 JUMP JUMPDEST PUSH1 0x1 ADD DUP1 SLOAD PUSH1 0x1 PUSH1 0x1 PUSH1 0xA0 SHL SUB NOT AND PUSH1 0x1 PUSH1 0x1 PUSH1 0xA0 SHL SUB SWAP4 SWAP1 SWAP4 AND SWAP3 SWAP1 SWAP3 OR SWAP1 SWAP2 SSTORE POP JUMP JUMPDEST PUSH1 0x0 DUP1 PUSH2 0x3A8 PUSH2 0x439 JUMP JUMPDEST PUSH1 0x4 ADD SLOAD SWAP3 SWAP2 POP POP JUMP JUMPDEST PUSH1 0x0 PUSH2 0x3BC PUSH2 0x439 JUMP JUMPDEST PUSH1 0x0 SWAP4 DUP5 MSTORE PUSH1 0x3 ADD PUSH1 0x20 MSTORE POP PUSH1 0x40 SWAP1 SWAP2 KECCAK256 DUP1 SLOAD PUSH1 0x1 PUSH1 0x1 PUSH1 0xA0 SHL SUB NOT AND PUSH1 0x1 PUSH1 0x1 PUSH1 0xA0 SHL SUB SWAP1 SWAP3 AND SWAP2 SWAP1 SWAP2 OR SWAP1 SSTORE JUMP JUMPDEST PUSH1 0x0 PUSH2 0x3F6 PUSH2 0x439 JUMP JUMPDEST PUSH1 0x2 ADD DUP1 SLOAD PUSH1 0x1 PUSH1 0x1 PUSH1 0xA0 SHL SUB NOT AND PUSH1 0x1 PUSH1 0x1 PUSH1 0xA0 SHL SUB SWAP4 SWAP1 SWAP4 AND SWAP3 SWAP1 SWAP3 OR SWAP1 SWAP2 SSTORE POP JUMP JUMPDEST PUSH1 0x0 DUP1 PUSH2 0x426 PUSH2 0x439 JUMP JUMPDEST PUSH1 0x2 ADD SLOAD PUSH1 0x1 PUSH1 0x1 PUSH1 0xA0 SHL SUB AND SWAP3 SWAP2 POP POP JUMP JUMPDEST PUSH32 0x34FBC1AFD8E1B9169B38B6C80A52777E06873ABC0D2B3F992F7608BDF1BF6ADE SWAP1 JUMP JUMPDEST DUP1 CALLDATALOAD PUSH1 0x1 PUSH1 0x1 PUSH1 0xA0 SHL SUB DUP2 AND DUP2 EQ PUSH2 0x474 JUMPI PUSH1 0x0 DUP1 REVERT JUMPDEST SWAP2 SWAP1 POP JUMP JUMPDEST PUSH1 0x0 PUSH1 0x20 DUP3 DUP5 SUB SLT ISZERO PUSH2 0x48B JUMPI PUSH1 0x0 DUP1 REVERT JUMPDEST PUSH2 0x494 DUP3 PUSH2 0x45D JUMP JUMPDEST SWAP4 SWAP3 POP POP POP JUMP JUMPDEST DUP1 CALLDATALOAD PUSH4 0xFFFFFFFF DUP2 AND DUP2 EQ PUSH2 0x474 JUMPI PUSH1 0x0 DUP1 REVERT JUMPDEST PUSH1 0x0 DUP1 PUSH1 0x0 PUSH1 0x60 DUP5 DUP7 SUB SLT ISZERO PUSH2 0x4C4 JUMPI PUSH1 0x0 DUP1 REVERT JUMPDEST PUSH2 0x4CD DUP5 PUSH2 0x49B JUMP JUMPDEST SWAP6 PUSH1 0x20 DUP6 ADD CALLDATALOAD SWAP6 POP PUSH1 0x40 SWAP1 SWAP5 ADD CALLDATALOAD SWAP4 SWAP3 POP POP POP JUMP JUMPDEST PUSH1 0x0 DUP1 PUSH1 0x0 DUP1 PUSH1 0x60 DUP6 DUP8 SUB SLT ISZERO PUSH2 0x4F8 JUMPI PUSH1 0x0 DUP1 REVERT JUMPDEST PUSH2 0x501 DUP6 PUSH2 0x49B JUMP JUMPDEST SWAP4 POP PUSH1 0x20 DUP6 ADD CALLDATALOAD SWAP3 POP PUSH1 0x40 DUP6 ADD CALLDATALOAD PUSH1 0x1 PUSH1 0x1 PUSH1 0x40 SHL SUB DUP1 DUP3 GT ISZERO PUSH2 0x524 JUMPI PUSH1 0x0 DUP1 REVERT JUMPDEST DUP2 DUP8 ADD SWAP2 POP DUP8 PUSH1 0x1F DUP4 ADD SLT PUSH2 0x538 JUMPI PUSH1 0x0 DUP1 REVERT JUMPDEST DUP2 CALLDATALOAD DUP2 DUP2 GT ISZERO PUSH2 0x547 JUMPI PUSH1 0x0 DUP1 REVERT JUMPDEST DUP9 PUSH1 0x20 DUP3 DUP6 ADD ADD GT ISZERO PUSH2 0x559 JUMPI PUSH1 0x0 DUP1 REVERT JUMPDEST SWAP6 SWAP9 SWAP5 SWAP8 POP POP PUSH1 0x20 ADD SWAP5 POP POP POP JUMP JUMPDEST PUSH1 0x0 DUP1 PUSH1 0x40 DUP4 DUP6 SUB SLT ISZERO PUSH2 0x57B JUMPI PUSH1 0x0 DUP1 REVERT JUMPDEST DUP3 CALLDATALOAD SWAP2 POP PUSH2 0x58B PUSH1 0x20 DUP5 ADD PUSH2 0x45D JUMP JUMPDEST SWAP1 POP SWAP3 POP SWAP3 SWAP1 POP JUMP JUMPDEST PUSH1 0x1 PUSH1 0x1 PUSH1 0xA0 SHL SUB SWAP2 SWAP1 SWAP2 AND DUP2 MSTORE PUSH1 0x20 ADD SWAP1 JUMP JUMPDEST PUSH4 0xFFFFFFFF DUP5 AND DUP2 MSTORE PUSH1 0x0 PUSH1 0x20 DUP5 DUP2 DUP5 ADD MSTORE PUSH1 0x60 PUSH1 0x40 DUP5 ADD MSTORE DUP4 MLOAD DUP1 PUSH1 0x60 DUP6 ADD MSTORE PUSH1 0x0 JUMPDEST DUP2 DUP2 LT ISZERO PUSH2 0x5E8 JUMPI DUP6 DUP2 ADD DUP4 ADD MLOAD DUP6 DUP3 ADD PUSH1 0x80 ADD MSTORE DUP3 ADD PUSH2 0x5CC JUMP JUMPDEST POP PUSH1 0x0 PUSH1 0x80 DUP3 DUP7 ADD ADD MSTORE PUSH1 0x80 PUSH1 0x1F NOT PUSH1 0x1F DUP4 ADD AND DUP6 ADD ADD SWAP3 POP POP POP SWAP5 SWAP4 POP POP POP POP JUMP JUMPDEST PUSH1 0x0 PUSH1 0x20 DUP3 DUP5 SUB SLT ISZERO PUSH2 0x61D JUMPI PUSH1 0x0 DUP1 REVERT JUMPDEST POP MLOAD SWAP2 SWAP1 POP JUMP JUMPDEST DUP1 DUP3 ADD DUP1 DUP3 GT ISZERO PUSH2 0x645 JUMPI PUSH4 0x4E487B71 PUSH1 0xE0 SHL PUSH1 0x0 MSTORE PUSH1 0x11 PUSH1 0x4 MSTORE PUSH1 0x24 PUSH1 0x0 REVERT JUMPDEST SWAP3 SWAP2 POP POP JUMP INVALID LOG2 PUSH5 0x6970667358 0x22 SLT KECCAK256 INVALID 0xDC EXP PUSH9 0x4B7F5C72E67C04803F DIV 0x28 PUSH18 0x2CB4733BCFE244C93F47A6E90F358FB86473 PUSH16 0x6C634300081400330000000000000000 "},"gasEstimates":{"creation":{"codeDepositCost":"333000","executionCost":"374","totalCost":"333374"},"external":{"getCounter()":"2443","handle(uint32,bytes32,bytes)":"24897","hitEmUp(uint32,uint256,uint256)":"infinite","interchainSecurityModule()":"2583","setDomainToAddress(uint256,address)":"24823","setGasMaster(address)":"24685","setISM(address)":"24751","setMailBox(address)":"24613"}},"methodIdentifiers":{"getCounter()":"8ada066e","handle(uint32,bytes32,bytes)":"56d5d475","hitEmUp(uint32,uint256,uint256)":"37e935fb","interchainSecurityModule()":"de523cf3","setDomainToAddress(uint256,address)":"cc4c515d","setGasMaster(address)":"759524ed","setISM(address)":"de4a787f","setMailBox(address)":"2c2cd749"}},"storageLayout":{"storage":[],"types":null},"userdoc":{"kind":"user","methods":{},"version":1}}}}