{"contracts/Facets/UMAFacet.sol":{"UMAFacet":{"abi":[{"inputs":[{"internalType":"bytes32","name":"dataId","type":"bytes32"},{"internalType":"bytes32","name":"data","type":"bytes32"},{"internalType":"address","name":"asserter","type":"address"},{"internalType":"address","name":"currency","type":"address"}],"name":"assertDataFor","outputs":[{"internalType":"bytes32","name":"assertionId","type":"bytes32"}],"stateMutability":"nonpayable","type":"function"},{"inputs":[{"internalType":"bytes32","name":"assertionId","type":"bytes32"}],"name":"assertionDisputedCallback","outputs":[],"stateMutability":"nonpayable","type":"function"},{"inputs":[{"internalType":"bytes32","name":"assertionId","type":"bytes32"},{"internalType":"bool","name":"assertedTruthfully","type":"bool"}],"name":"assertionResolvedCallback","outputs":[],"stateMutability":"nonpayable","type":"function"},{"inputs":[{"internalType":"bytes32","name":"assertionId","type":"bytes32"}],"name":"getData","outputs":[{"internalType":"bool","name":"","type":"bool"},{"internalType":"bytes32","name":"","type":"bytes32"}],"stateMutability":"view","type":"function"},{"inputs":[{"internalType":"address","name":"optimisticAddress","type":"address"}],"name":"setOOV3","outputs":[],"stateMutability":"nonpayable","type":"function"}],"devdoc":{"kind":"dev","methods":{},"version":1},"evm":{"bytecode":{"linkReferences":{},"object":"608060405234801561001057600080fd5b50611036806100206000396000f3fe608060405234801561001057600080fd5b50600436106100575760003560e01c80632939544e1461005c57806354f6127f146100715780635a7ee877146100a0578063d448a4ec146100c1578063f1b156b2146100d2575b600080fd5b61006f61006a366004610bfe565b6100e5565b005b61008461007f366004610c20565b6100ee565b6040805192151583526020830191909152015b60405180910390f35b6100b36100ae366004610c39565b610103565b604051908152602001610097565b61006f6100cf366004610c20565b50565b61006f6100e0366004610c8d565b61011c565b6100cf8161012a565b6000806100fa836101bc565b91509150915091565b600061011185858585610216565b90505b949350505050565b610126828261042a565b5050565b60006101346104ef565b80546001600160a01b0319166001600160a01b03841690811782556040805163d509b01760e01b81529051929350909163d509b017916004808201926020929091908290030181865afa15801561018f573d6000803e3d6000fd5b505050506040513d601f19601f820116820180604052508101906101b39190610cbd565b60029091015550565b60008060006101c96104ef565b6000858152600182016020526040902060020154909150600160a01b900460ff166101fa5750600093849350915050565b6000938452600190810160205260409093208301549293915050565b6000806102216104ef565b90506001600160a01b03841615610238578361023a565b335b8154604051634360af3d60e01b81526001600160a01b03868116600483015292965060009290911690634360af3d90602401602060405180830381865afa158015610289573d6000803e3d6000fd5b505050506040513d601f19601f820116820180604052508101906102ad9190610cbd565b90506102bb84333084610513565b81546102d29085906001600160a01b031683610584565b81546001600160a01b0316636457c9796102eb8861069e565b6102f48a61069e565b6102fd896106df565b61030642610731565b61030f306106df565b604051602001610323959493929190610d16565b60408051601f198184030181529082905260028601546001600160e01b031960e085901b168352610366928a913091600091600a918d918b918590600401610e6b565b6020604051808303816000875af1158015610385573d6000803e3d6000fd5b505050506040513d601f19601f820116820180604052508101906103a99190610cbd565b604080516080810182529889526020808a019889526001600160a01b039788168a8301908152600060608c0181815285825260019788019093529290922099518a5597519389019390935591516002909701805496511515600160a01b026001600160a81b0319909716979095169690961794909417909255509092915050565b60006104346104ef565b80549091506001600160a01b0316331461044d57600080fd5b81156104bd5760008381526001828101602090815260409283902060028101805460ff60a01b198116600160a01b908117928390558651608081018852845481529390950154938301939093526001600160a01b03909216938101939093520460ff161515606090910152505050565b60008381526001808301602052604082208281559081019190915560020180546001600160a81b03191690555b505050565b7f16649c8924f5903fda94e8001436d5b66bc9e9a70208d5245edfc147a57b508690565b6040516001600160a01b038085166024830152831660448201526064810182905261057e9085906323b872dd60e01b906084015b60408051601f198184030181529190526020810180516001600160e01b03166001600160e01b03199093169290921790915261085c565b50505050565b8015806105fe5750604051636eb1769f60e11b81523060048201526001600160a01b03838116602483015284169063dd62ed3e90604401602060405180830381865afa1580156105d8573d6000803e3d6000fd5b505050506040513d601f19601f820116820180604052508101906105fc9190610cbd565b155b61066e5760405162461bcd60e51b815260206004820152603660248201527f5361666545524332303a20617070726f76652066726f6d206e6f6e2d7a65726f60448201527520746f206e6f6e2d7a65726f20616c6c6f77616e636560501b60648201526084015b60405180910390fd5b6040516001600160a01b0383166024820152604481018290526104ea90849063095ea7b360e01b90606401610547565b60606106ad608083901c610931565b6106b683610931565b6040805160208101939093528201526060015b6040516020818303038152906040529050919050565b60606106f76001600160801b03602084901c16610931565b61070d8360601b6001600160601b031916610931565b6040516020016106c99291909182526001600160c01b031916602082015260280190565b6060816000036107585750506040805180820190915260018152600360fc1b602082015290565b8160005b8115610782578061076c81610eee565b915061077b9050600a83610f1d565b915061075c565b6000816001600160401b0381111561079c5761079c610f3f565b6040519080825280601f01601f1916602001820160405280156107c6576020820181803683370190505b509050815b8515610853576107dc600182610f55565b905060006107eb600a88610f1d565b6107f690600a610f6e565b6108009088610f55565b61080b906030610f85565b905060008160f81b90508084848151811061082857610828610f9e565b60200101906001600160f81b031916908160001a90535061084a600a89610f1d565b975050506107cb565b50949350505050565b60006108b1826040518060400160405280602081526020017f5361666545524332303a206c6f772d6c6576656c2063616c6c206661696c6564815250856001600160a01b0316610abf9092919063ffffffff16565b90508051600014806108d25750808060200190518101906108d29190610fb4565b6104ea5760405162461bcd60e51b815260206004820152602a60248201527f5361666545524332303a204552433230206f7065726174696f6e20646964206e6044820152691bdd081cdd58d8d9595960b21b6064820152608401610665565b6000808260001c9050806001600160801b0316905080600160401b0281176001600160401b03600160801b03600160c01b0316905080600160201b0281177bffffffff00000000ffffffff00000000ffffffff00000000ffffffff16905080620100000281177dffff0000ffff0000ffff0000ffff0000ffff0000ffff0000ffff0000ffff169050806101000281177eff00ff00ff00ff00ff00ff00ff00ff00ff00ff00ff00ff00ff00ff00ff00ff1690508060100281177f0f0f0f0f0f0f0f0f0f0f0f0f0f0f0f0f0f0f0f0f0f0f0f0f0f0f0f0f0f0f0f0f16905060006008827f08080808080808080808080808080808080808080808080808080808080808081681610a4157610a41610f07565b0460047f040404040404040404040404040404040404040404040404040404040404040484160460027f020202020202020202020202020202020202020202020202020202020202020285160417166027029091017f3030303030303030303030303030303030303030303030303030303030303030019392505050565b6060610114848460008585600080866001600160a01b03168587604051610ae69190610fd1565b60006040518083038185875af1925050503d8060008114610b23576040519150601f19603f3d011682016040523d82523d6000602084013e610b28565b606091505b5091509150610b3987838387610b44565b979650505050505050565b60608315610bb3578251600003610bac576001600160a01b0385163b610bac5760405162461bcd60e51b815260206004820152601d60248201527f416464726573733a2063616c6c20746f206e6f6e2d636f6e74726163740000006044820152606401610665565b5081610114565b6101148383815115610bc85781518083602001fd5b8060405162461bcd60e51b81526004016106659190610fed565b80356001600160a01b0381168114610bf957600080fd5b919050565b600060208284031215610c1057600080fd5b610c1982610be2565b9392505050565b600060208284031215610c3257600080fd5b5035919050565b60008060008060808587031215610c4f57600080fd5b8435935060208501359250610c6660408601610be2565b9150610c7460608601610be2565b905092959194509250565b80151581146100cf57600080fd5b60008060408385031215610ca057600080fd5b823591506020830135610cb281610c7f565b809150509250929050565b600060208284031215610ccf57600080fd5b5051919050565b60005b83811015610cf1578181015183820152602001610cd9565b50506000910152565b60008151610d0c818560208601610cd6565b9290920192915050565b70088c2e8c240c2e6e6cae4e8cac8744060f607b1b8152600086516020610d438260118601838c01610cd6565b6e040ccdee440c8c2e8c292c8744060f608b1b6011928501928301528751610d7081838501848c01610cd6565b70040c2dcc840c2e6e6cae4e8cae4744060f607b1b9201818101929092528651610da081603185018a8501610cd6565b6011818401019250506e01030ba103a34b6b2b9ba30b6b81d1608d1b818301528551610dd281602f8501848a01610cd6565b600f818401019250507f20696e207468652044617461417373657274657220636f6e747261637420617481830152506204060f60eb1b6040820152610e33610e1d6043830186610cfa565b691034b9903b30b634b21760b11b8152600a0190565b98975050505050505050565b60008151808452610e57816020860160208601610cd6565b601f01601f19169290920160200192915050565b6000610120808352610e7f8184018d610e3f565b6001600160a01b039b8c166020850152998b166040840152505095881660608701526001600160401b039490941660808601529190951660a084015260c083019490945260e08201939093526101000191909152919050565b634e487b7160e01b600052601160045260246000fd5b600060018201610f0057610f00610ed8565b5060010190565b634e487b7160e01b600052601260045260246000fd5b600082610f3a57634e487b7160e01b600052601260045260246000fd5b500490565b634e487b7160e01b600052604160045260246000fd5b81810381811115610f6857610f68610ed8565b92915050565b8082028115828204841417610f6857610f68610ed8565b60ff8181168382160190811115610f6857610f68610ed8565b634e487b7160e01b600052603260045260246000fd5b600060208284031215610fc657600080fd5b8151610c1981610c7f565b60008251610fe3818460208701610cd6565b9190910192915050565b602081526000610c196020830184610e3f56fea2646970667358221220142b4b54e03e4e10440c5d902c06c6fcf8a23d598eb9c5c065b7f59baf0e040664736f6c63430008140033","opcodes":"PUSH1 0x80 PUSH1 0x40 MSTORE CALLVALUE DUP1 ISZERO PUSH2 0x10 JUMPI PUSH1 0x0 DUP1 REVERT JUMPDEST POP PUSH2 0x1036 DUP1 PUSH2 0x20 PUSH1 0x0 CODECOPY PUSH1 0x0 RETURN INVALID PUSH1 0x80 PUSH1 0x40 MSTORE CALLVALUE DUP1 ISZERO PUSH2 0x10 JUMPI PUSH1 0x0 DUP1 REVERT JUMPDEST POP PUSH1 0x4 CALLDATASIZE LT PUSH2 0x57 JUMPI PUSH1 0x0 CALLDATALOAD PUSH1 0xE0 SHR DUP1 PUSH4 0x2939544E EQ PUSH2 0x5C JUMPI DUP1 PUSH4 0x54F6127F EQ PUSH2 0x71 JUMPI DUP1 PUSH4 0x5A7EE877 EQ PUSH2 0xA0 JUMPI DUP1 PUSH4 0xD448A4EC EQ PUSH2 0xC1 JUMPI DUP1 PUSH4 0xF1B156B2 EQ PUSH2 0xD2 JUMPI JUMPDEST PUSH1 0x0 DUP1 REVERT JUMPDEST PUSH2 0x6F PUSH2 0x6A CALLDATASIZE PUSH1 0x4 PUSH2 0xBFE JUMP JUMPDEST PUSH2 0xE5 JUMP JUMPDEST STOP JUMPDEST PUSH2 0x84 PUSH2 0x7F CALLDATASIZE PUSH1 0x4 PUSH2 0xC20 JUMP JUMPDEST PUSH2 0xEE JUMP JUMPDEST PUSH1 0x40 DUP1 MLOAD SWAP3 ISZERO ISZERO DUP4 MSTORE PUSH1 0x20 DUP4 ADD SWAP2 SWAP1 SWAP2 MSTORE ADD JUMPDEST PUSH1 0x40 MLOAD DUP1 SWAP2 SUB SWAP1 RETURN JUMPDEST PUSH2 0xB3 PUSH2 0xAE CALLDATASIZE PUSH1 0x4 PUSH2 0xC39 JUMP JUMPDEST PUSH2 0x103 JUMP JUMPDEST PUSH1 0x40 MLOAD SWAP1 DUP2 MSTORE PUSH1 0x20 ADD PUSH2 0x97 JUMP JUMPDEST PUSH2 0x6F PUSH2 0xCF CALLDATASIZE PUSH1 0x4 PUSH2 0xC20 JUMP JUMPDEST POP JUMP JUMPDEST PUSH2 0x6F PUSH2 0xE0 CALLDATASIZE PUSH1 0x4 PUSH2 0xC8D JUMP JUMPDEST PUSH2 0x11C JUMP JUMPDEST PUSH2 0xCF DUP2 PUSH2 0x12A JUMP JUMPDEST PUSH1 0x0 DUP1 PUSH2 0xFA DUP4 PUSH2 0x1BC JUMP JUMPDEST SWAP2 POP SWAP2 POP SWAP2 POP SWAP2 JUMP JUMPDEST PUSH1 0x0 PUSH2 0x111 DUP6 DUP6 DUP6 DUP6 PUSH2 0x216 JUMP JUMPDEST SWAP1 POP JUMPDEST SWAP5 SWAP4 POP POP POP POP JUMP JUMPDEST PUSH2 0x126 DUP3 DUP3 PUSH2 0x42A JUMP JUMPDEST POP POP JUMP JUMPDEST PUSH1 0x0 PUSH2 0x134 PUSH2 0x4EF JUMP JUMPDEST DUP1 SLOAD PUSH1 0x1 PUSH1 0x1 PUSH1 0xA0 SHL SUB NOT AND PUSH1 0x1 PUSH1 0x1 PUSH1 0xA0 SHL SUB DUP5 AND SWAP1 DUP2 OR DUP3 SSTORE PUSH1 0x40 DUP1 MLOAD PUSH4 0xD509B017 PUSH1 0xE0 SHL DUP2 MSTORE SWAP1 MLOAD SWAP3 SWAP4 POP SWAP1 SWAP2 PUSH4 0xD509B017 SWAP2 PUSH1 0x4 DUP1 DUP3 ADD SWAP3 PUSH1 0x20 SWAP3 SWAP1 SWAP2 SWAP1 DUP3 SWAP1 SUB ADD DUP2 DUP7 GAS STATICCALL ISZERO DUP1 ISZERO PUSH2 0x18F JUMPI RETURNDATASIZE PUSH1 0x0 DUP1 RETURNDATACOPY RETURNDATASIZE PUSH1 0x0 REVERT JUMPDEST POP POP POP POP PUSH1 0x40 MLOAD RETURNDATASIZE PUSH1 0x1F NOT PUSH1 0x1F DUP3 ADD AND DUP3 ADD DUP1 PUSH1 0x40 MSTORE POP DUP2 ADD SWAP1 PUSH2 0x1B3 SWAP2 SWAP1 PUSH2 0xCBD JUMP JUMPDEST PUSH1 0x2 SWAP1 SWAP2 ADD SSTORE POP JUMP JUMPDEST PUSH1 0x0 DUP1 PUSH1 0x0 PUSH2 0x1C9 PUSH2 0x4EF JUMP JUMPDEST PUSH1 0x0 DUP6 DUP2 MSTORE PUSH1 0x1 DUP3 ADD PUSH1 0x20 MSTORE PUSH1 0x40 SWAP1 KECCAK256 PUSH1 0x2 ADD SLOAD SWAP1 SWAP2 POP PUSH1 0x1 PUSH1 0xA0 SHL SWAP1 DIV PUSH1 0xFF AND PUSH2 0x1FA JUMPI POP PUSH1 0x0 SWAP4 DUP5 SWAP4 POP SWAP2 POP POP JUMP JUMPDEST PUSH1 0x0 SWAP4 DUP5 MSTORE PUSH1 0x1 SWAP1 DUP2 ADD PUSH1 0x20 MSTORE PUSH1 0x40 SWAP1 SWAP4 KECCAK256 DUP4 ADD SLOAD SWAP3 SWAP4 SWAP2 POP POP JUMP JUMPDEST PUSH1 0x0 DUP1 PUSH2 0x221 PUSH2 0x4EF JUMP JUMPDEST SWAP1 POP PUSH1 0x1 PUSH1 0x1 PUSH1 0xA0 SHL SUB DUP5 AND ISZERO PUSH2 0x238 JUMPI DUP4 PUSH2 0x23A JUMP JUMPDEST CALLER JUMPDEST DUP2 SLOAD PUSH1 0x40 MLOAD PUSH4 0x4360AF3D PUSH1 0xE0 SHL DUP2 MSTORE PUSH1 0x1 PUSH1 0x1 PUSH1 0xA0 SHL SUB DUP7 DUP2 AND PUSH1 0x4 DUP4 ADD MSTORE SWAP3 SWAP7 POP PUSH1 0x0 SWAP3 SWAP1 SWAP2 AND SWAP1 PUSH4 0x4360AF3D SWAP1 PUSH1 0x24 ADD PUSH1 0x20 PUSH1 0x40 MLOAD DUP1 DUP4 SUB DUP2 DUP7 GAS STATICCALL ISZERO DUP1 ISZERO PUSH2 0x289 JUMPI RETURNDATASIZE PUSH1 0x0 DUP1 RETURNDATACOPY RETURNDATASIZE PUSH1 0x0 REVERT JUMPDEST POP POP POP POP PUSH1 0x40 MLOAD RETURNDATASIZE PUSH1 0x1F NOT PUSH1 0x1F DUP3 ADD AND DUP3 ADD DUP1 PUSH1 0x40 MSTORE POP DUP2 ADD SWAP1 PUSH2 0x2AD SWAP2 SWAP1 PUSH2 0xCBD JUMP JUMPDEST SWAP1 POP PUSH2 0x2BB DUP5 CALLER ADDRESS DUP5 PUSH2 0x513 JUMP JUMPDEST DUP2 SLOAD PUSH2 0x2D2 SWAP1 DUP6 SWAP1 PUSH1 0x1 PUSH1 0x1 PUSH1 0xA0 SHL SUB AND DUP4 PUSH2 0x584 JUMP JUMPDEST DUP2 SLOAD PUSH1 0x1 PUSH1 0x1 PUSH1 0xA0 SHL SUB AND PUSH4 0x6457C979 PUSH2 0x2EB DUP9 PUSH2 0x69E JUMP JUMPDEST PUSH2 0x2F4 DUP11 PUSH2 0x69E JUMP JUMPDEST PUSH2 0x2FD DUP10 PUSH2 0x6DF JUMP JUMPDEST PUSH2 0x306 TIMESTAMP PUSH2 0x731 JUMP JUMPDEST PUSH2 0x30F ADDRESS PUSH2 0x6DF JUMP JUMPDEST PUSH1 0x40 MLOAD PUSH1 0x20 ADD PUSH2 0x323 SWAP6 SWAP5 SWAP4 SWAP3 SWAP2 SWAP1 PUSH2 0xD16 JUMP JUMPDEST PUSH1 0x40 DUP1 MLOAD PUSH1 0x1F NOT DUP2 DUP5 SUB ADD DUP2 MSTORE SWAP1 DUP3 SWAP1 MSTORE PUSH1 0x2 DUP7 ADD SLOAD PUSH1 0x1 PUSH1 0x1 PUSH1 0xE0 SHL SUB NOT PUSH1 0xE0 DUP6 SWAP1 SHL AND DUP4 MSTORE PUSH2 0x366 SWAP3 DUP11 SWAP2 ADDRESS SWAP2 PUSH1 0x0 SWAP2 PUSH1 0xA SWAP2 DUP14 SWAP2 DUP12 SWAP2 DUP6 SWAP1 PUSH1 0x4 ADD PUSH2 0xE6B JUMP JUMPDEST PUSH1 0x20 PUSH1 0x40 MLOAD DUP1 DUP4 SUB DUP2 PUSH1 0x0 DUP8 GAS CALL ISZERO DUP1 ISZERO PUSH2 0x385 JUMPI RETURNDATASIZE PUSH1 0x0 DUP1 RETURNDATACOPY RETURNDATASIZE PUSH1 0x0 REVERT JUMPDEST POP POP POP POP PUSH1 0x40 MLOAD RETURNDATASIZE PUSH1 0x1F NOT PUSH1 0x1F DUP3 ADD AND DUP3 ADD DUP1 PUSH1 0x40 MSTORE POP DUP2 ADD SWAP1 PUSH2 0x3A9 SWAP2 SWAP1 PUSH2 0xCBD JUMP JUMPDEST PUSH1 0x40 DUP1 MLOAD PUSH1 0x80 DUP2 ADD DUP3 MSTORE SWAP9 DUP10 MSTORE PUSH1 0x20 DUP1 DUP11 ADD SWAP9 DUP10 MSTORE PUSH1 0x1 PUSH1 0x1 PUSH1 0xA0 SHL SUB SWAP8 DUP9 AND DUP11 DUP4 ADD SWAP1 DUP2 MSTORE PUSH1 0x0 PUSH1 0x60 DUP13 ADD DUP2 DUP2 MSTORE DUP6 DUP3 MSTORE PUSH1 0x1 SWAP8 DUP9 ADD SWAP1 SWAP4 MSTORE SWAP3 SWAP1 SWAP3 KECCAK256 SWAP10 MLOAD DUP11 SSTORE SWAP8 MLOAD SWAP4 DUP10 ADD SWAP4 SWAP1 SWAP4 SSTORE SWAP2 MLOAD PUSH1 0x2 SWAP1 SWAP8 ADD DUP1 SLOAD SWAP7 MLOAD ISZERO ISZERO PUSH1 0x1 PUSH1 0xA0 SHL MUL PUSH1 0x1 PUSH1 0x1 PUSH1 0xA8 SHL SUB NOT SWAP1 SWAP8 AND SWAP8 SWAP1 SWAP6 AND SWAP7 SWAP1 SWAP7 OR SWAP5 SWAP1 SWAP5 OR SWAP1 SWAP3 SSTORE POP SWAP1 SWAP3 SWAP2 POP POP JUMP JUMPDEST PUSH1 0x0 PUSH2 0x434 PUSH2 0x4EF JUMP JUMPDEST DUP1 SLOAD SWAP1 SWAP2 POP PUSH1 0x1 PUSH1 0x1 PUSH1 0xA0 SHL SUB AND CALLER EQ PUSH2 0x44D JUMPI PUSH1 0x0 DUP1 REVERT JUMPDEST DUP2 ISZERO PUSH2 0x4BD JUMPI PUSH1 0x0 DUP4 DUP2 MSTORE PUSH1 0x1 DUP3 DUP2 ADD PUSH1 0x20 SWAP1 DUP2 MSTORE PUSH1 0x40 SWAP3 DUP4 SWAP1 KECCAK256 PUSH1 0x2 DUP2 ADD DUP1 SLOAD PUSH1 0xFF PUSH1 0xA0 SHL NOT DUP2 AND PUSH1 0x1 PUSH1 0xA0 SHL SWAP1 DUP2 OR SWAP3 DUP4 SWAP1 SSTORE DUP7 MLOAD PUSH1 0x80 DUP2 ADD DUP9 MSTORE DUP5 SLOAD DUP2 MSTORE SWAP4 SWAP1 SWAP6 ADD SLOAD SWAP4 DUP4 ADD SWAP4 SWAP1 SWAP4 MSTORE PUSH1 0x1 PUSH1 0x1 PUSH1 0xA0 SHL SUB SWAP1 SWAP3 AND SWAP4 DUP2 ADD SWAP4 SWAP1 SWAP4 MSTORE DIV PUSH1 0xFF AND ISZERO ISZERO PUSH1 0x60 SWAP1 SWAP2 ADD MSTORE POP POP POP JUMP JUMPDEST PUSH1 0x0 DUP4 DUP2 MSTORE PUSH1 0x1 DUP1 DUP4 ADD PUSH1 0x20 MSTORE PUSH1 0x40 DUP3 KECCAK256 DUP3 DUP2 SSTORE SWAP1 DUP2 ADD SWAP2 SWAP1 SWAP2 SSTORE PUSH1 0x2 ADD DUP1 SLOAD PUSH1 0x1 PUSH1 0x1 PUSH1 0xA8 SHL SUB NOT AND SWAP1 SSTORE JUMPDEST POP POP POP JUMP JUMPDEST PUSH32 0x16649C8924F5903FDA94E8001436D5B66BC9E9A70208D5245EDFC147A57B5086 SWAP1 JUMP JUMPDEST PUSH1 0x40 MLOAD PUSH1 0x1 PUSH1 0x1 PUSH1 0xA0 SHL SUB DUP1 DUP6 AND PUSH1 0x24 DUP4 ADD MSTORE DUP4 AND PUSH1 0x44 DUP3 ADD MSTORE PUSH1 0x64 DUP2 ADD DUP3 SWAP1 MSTORE PUSH2 0x57E SWAP1 DUP6 SWAP1 PUSH4 0x23B872DD PUSH1 0xE0 SHL SWAP1 PUSH1 0x84 ADD JUMPDEST PUSH1 0x40 DUP1 MLOAD PUSH1 0x1F NOT DUP2 DUP5 SUB ADD DUP2 MSTORE SWAP2 SWAP1 MSTORE PUSH1 0x20 DUP2 ADD DUP1 MLOAD PUSH1 0x1 PUSH1 0x1 PUSH1 0xE0 SHL SUB AND PUSH1 0x1 PUSH1 0x1 PUSH1 0xE0 SHL SUB NOT SWAP1 SWAP4 AND SWAP3 SWAP1 SWAP3 OR SWAP1 SWAP2 MSTORE PUSH2 0x85C JUMP JUMPDEST POP POP POP POP JUMP JUMPDEST DUP1 ISZERO DUP1 PUSH2 0x5FE JUMPI POP PUSH1 0x40 MLOAD PUSH4 0x6EB1769F PUSH1 0xE1 SHL DUP2 MSTORE ADDRESS PUSH1 0x4 DUP3 ADD MSTORE PUSH1 0x1 PUSH1 0x1 PUSH1 0xA0 SHL SUB DUP4 DUP2 AND PUSH1 0x24 DUP4 ADD MSTORE DUP5 AND SWAP1 PUSH4 0xDD62ED3E SWAP1 PUSH1 0x44 ADD PUSH1 0x20 PUSH1 0x40 MLOAD DUP1 DUP4 SUB DUP2 DUP7 GAS STATICCALL ISZERO DUP1 ISZERO PUSH2 0x5D8 JUMPI RETURNDATASIZE PUSH1 0x0 DUP1 RETURNDATACOPY RETURNDATASIZE PUSH1 0x0 REVERT JUMPDEST POP POP POP POP PUSH1 0x40 MLOAD RETURNDATASIZE PUSH1 0x1F NOT PUSH1 0x1F DUP3 ADD AND DUP3 ADD DUP1 PUSH1 0x40 MSTORE POP DUP2 ADD SWAP1 PUSH2 0x5FC SWAP2 SWAP1 PUSH2 0xCBD JUMP JUMPDEST ISZERO JUMPDEST PUSH2 0x66E JUMPI PUSH1 0x40 MLOAD PUSH3 0x461BCD PUSH1 0xE5 SHL DUP2 MSTORE PUSH1 0x20 PUSH1 0x4 DUP3 ADD MSTORE PUSH1 0x36 PUSH1 0x24 DUP3 ADD MSTORE PUSH32 0x5361666545524332303A20617070726F76652066726F6D206E6F6E2D7A65726F PUSH1 0x44 DUP3 ADD MSTORE PUSH22 0x20746F206E6F6E2D7A65726F20616C6C6F77616E6365 PUSH1 0x50 SHL PUSH1 0x64 DUP3 ADD MSTORE PUSH1 0x84 ADD JUMPDEST PUSH1 0x40 MLOAD DUP1 SWAP2 SUB SWAP1 REVERT JUMPDEST PUSH1 0x40 MLOAD PUSH1 0x1 PUSH1 0x1 PUSH1 0xA0 SHL SUB DUP4 AND PUSH1 0x24 DUP3 ADD MSTORE PUSH1 0x44 DUP2 ADD DUP3 SWAP1 MSTORE PUSH2 0x4EA SWAP1 DUP5 SWAP1 PUSH4 0x95EA7B3 PUSH1 0xE0 SHL SWAP1 PUSH1 0x64 ADD PUSH2 0x547 JUMP JUMPDEST PUSH1 0x60 PUSH2 0x6AD PUSH1 0x80 DUP4 SWAP1 SHR PUSH2 0x931 JUMP JUMPDEST PUSH2 0x6B6 DUP4 PUSH2 0x931 JUMP JUMPDEST PUSH1 0x40 DUP1 MLOAD PUSH1 0x20 DUP2 ADD SWAP4 SWAP1 SWAP4 MSTORE DUP3 ADD MSTORE PUSH1 0x60 ADD JUMPDEST PUSH1 0x40 MLOAD PUSH1 0x20 DUP2 DUP4 SUB SUB DUP2 MSTORE SWAP1 PUSH1 0x40 MSTORE SWAP1 POP SWAP2 SWAP1 POP JUMP JUMPDEST PUSH1 0x60 PUSH2 0x6F7 PUSH1 0x1 PUSH1 0x1 PUSH1 0x80 SHL SUB PUSH1 0x20 DUP5 SWAP1 SHR AND PUSH2 0x931 JUMP JUMPDEST PUSH2 0x70D DUP4 PUSH1 0x60 SHL PUSH1 0x1 PUSH1 0x1 PUSH1 0x60 SHL SUB NOT AND PUSH2 0x931 JUMP JUMPDEST PUSH1 0x40 MLOAD PUSH1 0x20 ADD PUSH2 0x6C9 SWAP3 SWAP2 SWAP1 SWAP2 DUP3 MSTORE PUSH1 0x1 PUSH1 0x1 PUSH1 0xC0 SHL SUB NOT AND PUSH1 0x20 DUP3 ADD MSTORE PUSH1 0x28 ADD SWAP1 JUMP JUMPDEST PUSH1 0x60 DUP2 PUSH1 0x0 SUB PUSH2 0x758 JUMPI POP POP PUSH1 0x40 DUP1 MLOAD DUP1 DUP3 ADD SWAP1 SWAP2 MSTORE PUSH1 0x1 DUP2 MSTORE PUSH1 0x3 PUSH1 0xFC SHL PUSH1 0x20 DUP3 ADD MSTORE SWAP1 JUMP JUMPDEST DUP2 PUSH1 0x0 JUMPDEST DUP2 ISZERO PUSH2 0x782 JUMPI DUP1 PUSH2 0x76C DUP2 PUSH2 0xEEE JUMP JUMPDEST SWAP2 POP PUSH2 0x77B SWAP1 POP PUSH1 0xA DUP4 PUSH2 0xF1D JUMP JUMPDEST SWAP2 POP PUSH2 0x75C JUMP JUMPDEST PUSH1 0x0 DUP2 PUSH1 0x1 PUSH1 0x1 PUSH1 0x40 SHL SUB DUP2 GT ISZERO PUSH2 0x79C JUMPI PUSH2 0x79C PUSH2 0xF3F JUMP JUMPDEST PUSH1 0x40 MLOAD SWAP1 DUP1 DUP3 MSTORE DUP1 PUSH1 0x1F ADD PUSH1 0x1F NOT AND PUSH1 0x20 ADD DUP3 ADD PUSH1 0x40 MSTORE DUP1 ISZERO PUSH2 0x7C6 JUMPI PUSH1 0x20 DUP3 ADD DUP2 DUP1 CALLDATASIZE DUP4 CALLDATACOPY ADD SWAP1 POP JUMPDEST POP SWAP1 POP DUP2 JUMPDEST DUP6 ISZERO PUSH2 0x853 JUMPI PUSH2 0x7DC PUSH1 0x1 DUP3 PUSH2 0xF55 JUMP JUMPDEST SWAP1 POP PUSH1 0x0 PUSH2 0x7EB PUSH1 0xA DUP9 PUSH2 0xF1D JUMP JUMPDEST PUSH2 0x7F6 SWAP1 PUSH1 0xA PUSH2 0xF6E JUMP JUMPDEST PUSH2 0x800 SWAP1 DUP9 PUSH2 0xF55 JUMP JUMPDEST PUSH2 0x80B SWAP1 PUSH1 0x30 PUSH2 0xF85 JUMP JUMPDEST SWAP1 POP PUSH1 0x0 DUP2 PUSH1 0xF8 SHL SWAP1 POP DUP1 DUP5 DUP5 DUP2 MLOAD DUP2 LT PUSH2 0x828 JUMPI PUSH2 0x828 PUSH2 0xF9E JUMP JUMPDEST PUSH1 0x20 ADD ADD SWAP1 PUSH1 0x1 PUSH1 0x1 PUSH1 0xF8 SHL SUB NOT AND SWAP1 DUP2 PUSH1 0x0 BYTE SWAP1 MSTORE8 POP PUSH2 0x84A PUSH1 0xA DUP10 PUSH2 0xF1D JUMP JUMPDEST SWAP8 POP POP POP PUSH2 0x7CB JUMP JUMPDEST POP SWAP5 SWAP4 POP POP POP POP JUMP JUMPDEST PUSH1 0x0 PUSH2 0x8B1 DUP3 PUSH1 0x40 MLOAD DUP1 PUSH1 0x40 ADD PUSH1 0x40 MSTORE DUP1 PUSH1 0x20 DUP2 MSTORE PUSH1 0x20 ADD PUSH32 0x5361666545524332303A206C6F772D6C6576656C2063616C6C206661696C6564 DUP2 MSTORE POP DUP6 PUSH1 0x1 PUSH1 0x1 PUSH1 0xA0 SHL SUB AND PUSH2 0xABF SWAP1 SWAP3 SWAP2 SWAP1 PUSH4 0xFFFFFFFF AND JUMP JUMPDEST SWAP1 POP DUP1 MLOAD PUSH1 0x0 EQ DUP1 PUSH2 0x8D2 JUMPI POP DUP1 DUP1 PUSH1 0x20 ADD SWAP1 MLOAD DUP2 ADD SWAP1 PUSH2 0x8D2 SWAP2 SWAP1 PUSH2 0xFB4 JUMP JUMPDEST PUSH2 0x4EA JUMPI PUSH1 0x40 MLOAD PUSH3 0x461BCD PUSH1 0xE5 SHL DUP2 MSTORE PUSH1 0x20 PUSH1 0x4 DUP3 ADD MSTORE PUSH1 0x2A PUSH1 0x24 DUP3 ADD MSTORE PUSH32 0x5361666545524332303A204552433230206F7065726174696F6E20646964206E PUSH1 0x44 DUP3 ADD MSTORE PUSH10 0x1BDD081CDD58D8D95959 PUSH1 0xB2 SHL PUSH1 0x64 DUP3 ADD MSTORE PUSH1 0x84 ADD PUSH2 0x665 JUMP JUMPDEST PUSH1 0x0 DUP1 DUP3 PUSH1 0x0 SHR SWAP1 POP DUP1 PUSH1 0x1 PUSH1 0x1 PUSH1 0x80 SHL SUB AND SWAP1 POP DUP1 PUSH1 0x1 PUSH1 0x40 SHL MUL DUP2 OR PUSH1 0x1 PUSH1 0x1 PUSH1 0x40 SHL SUB PUSH1 0x1 PUSH1 0x80 SHL SUB PUSH1 0x1 PUSH1 0xC0 SHL SUB AND SWAP1 POP DUP1 PUSH1 0x1 PUSH1 0x20 SHL MUL DUP2 OR PUSH28 0xFFFFFFFF00000000FFFFFFFF00000000FFFFFFFF00000000FFFFFFFF AND SWAP1 POP DUP1 PUSH3 0x10000 MUL DUP2 OR PUSH30 0xFFFF0000FFFF0000FFFF0000FFFF0000FFFF0000FFFF0000FFFF0000FFFF AND SWAP1 POP DUP1 PUSH2 0x100 MUL DUP2 OR PUSH31 0xFF00FF00FF00FF00FF00FF00FF00FF00FF00FF00FF00FF00FF00FF00FF00FF AND SWAP1 POP DUP1 PUSH1 0x10 MUL DUP2 OR PUSH32 0xF0F0F0F0F0F0F0F0F0F0F0F0F0F0F0F0F0F0F0F0F0F0F0F0F0F0F0F0F0F0F0F AND SWAP1 POP PUSH1 0x0 PUSH1 0x8 DUP3 PUSH32 0x808080808080808080808080808080808080808080808080808080808080808 AND DUP2 PUSH2 0xA41 JUMPI PUSH2 0xA41 PUSH2 0xF07 JUMP JUMPDEST DIV PUSH1 0x4 PUSH32 0x404040404040404040404040404040404040404040404040404040404040404 DUP5 AND DIV PUSH1 0x2 PUSH32 0x202020202020202020202020202020202020202020202020202020202020202 DUP6 AND DIV OR AND PUSH1 0x27 MUL SWAP1 SWAP2 ADD PUSH32 0x3030303030303030303030303030303030303030303030303030303030303030 ADD SWAP4 SWAP3 POP POP POP JUMP JUMPDEST PUSH1 0x60 PUSH2 0x114 DUP5 DUP5 PUSH1 0x0 DUP6 DUP6 PUSH1 0x0 DUP1 DUP7 PUSH1 0x1 PUSH1 0x1 PUSH1 0xA0 SHL SUB AND DUP6 DUP8 PUSH1 0x40 MLOAD PUSH2 0xAE6 SWAP2 SWAP1 PUSH2 0xFD1 JUMP JUMPDEST PUSH1 0x0 PUSH1 0x40 MLOAD DUP1 DUP4 SUB DUP2 DUP6 DUP8 GAS CALL SWAP3 POP POP POP RETURNDATASIZE DUP1 PUSH1 0x0 DUP2 EQ PUSH2 0xB23 JUMPI PUSH1 0x40 MLOAD SWAP2 POP PUSH1 0x1F NOT PUSH1 0x3F RETURNDATASIZE ADD AND DUP3 ADD PUSH1 0x40 MSTORE RETURNDATASIZE DUP3 MSTORE RETURNDATASIZE PUSH1 0x0 PUSH1 0x20 DUP5 ADD RETURNDATACOPY PUSH2 0xB28 JUMP JUMPDEST PUSH1 0x60 SWAP2 POP JUMPDEST POP SWAP2 POP SWAP2 POP PUSH2 0xB39 DUP8 DUP4 DUP4 DUP8 PUSH2 0xB44 JUMP JUMPDEST SWAP8 SWAP7 POP POP POP POP POP POP POP JUMP JUMPDEST PUSH1 0x60 DUP4 ISZERO PUSH2 0xBB3 JUMPI DUP3 MLOAD PUSH1 0x0 SUB PUSH2 0xBAC JUMPI PUSH1 0x1 PUSH1 0x1 PUSH1 0xA0 SHL SUB DUP6 AND EXTCODESIZE PUSH2 0xBAC JUMPI PUSH1 0x40 MLOAD PUSH3 0x461BCD PUSH1 0xE5 SHL DUP2 MSTORE PUSH1 0x20 PUSH1 0x4 DUP3 ADD MSTORE PUSH1 0x1D PUSH1 0x24 DUP3 ADD MSTORE PUSH32 0x416464726573733A2063616C6C20746F206E6F6E2D636F6E7472616374000000 PUSH1 0x44 DUP3 ADD MSTORE PUSH1 0x64 ADD PUSH2 0x665 JUMP JUMPDEST POP DUP2 PUSH2 0x114 JUMP JUMPDEST PUSH2 0x114 DUP4 DUP4 DUP2 MLOAD ISZERO PUSH2 0xBC8 JUMPI DUP2 MLOAD DUP1 DUP4 PUSH1 0x20 ADD REVERT JUMPDEST DUP1 PUSH1 0x40 MLOAD PUSH3 0x461BCD PUSH1 0xE5 SHL DUP2 MSTORE PUSH1 0x4 ADD PUSH2 0x665 SWAP2 SWAP1 PUSH2 0xFED JUMP JUMPDEST DUP1 CALLDATALOAD PUSH1 0x1 PUSH1 0x1 PUSH1 0xA0 SHL SUB DUP2 AND DUP2 EQ PUSH2 0xBF9 JUMPI PUSH1 0x0 DUP1 REVERT JUMPDEST SWAP2 SWAP1 POP JUMP JUMPDEST PUSH1 0x0 PUSH1 0x20 DUP3 DUP5 SUB SLT ISZERO PUSH2 0xC10 JUMPI PUSH1 0x0 DUP1 REVERT JUMPDEST PUSH2 0xC19 DUP3 PUSH2 0xBE2 JUMP JUMPDEST SWAP4 SWAP3 POP POP POP JUMP JUMPDEST PUSH1 0x0 PUSH1 0x20 DUP3 DUP5 SUB SLT ISZERO PUSH2 0xC32 JUMPI PUSH1 0x0 DUP1 REVERT JUMPDEST POP CALLDATALOAD SWAP2 SWAP1 POP JUMP JUMPDEST PUSH1 0x0 DUP1 PUSH1 0x0 DUP1 PUSH1 0x80 DUP6 DUP8 SUB SLT ISZERO PUSH2 0xC4F JUMPI PUSH1 0x0 DUP1 REVERT JUMPDEST DUP5 CALLDATALOAD SWAP4 POP PUSH1 0x20 DUP6 ADD CALLDATALOAD SWAP3 POP PUSH2 0xC66 PUSH1 0x40 DUP7 ADD PUSH2 0xBE2 JUMP JUMPDEST SWAP2 POP PUSH2 0xC74 PUSH1 0x60 DUP7 ADD PUSH2 0xBE2 JUMP JUMPDEST SWAP1 POP SWAP3 SWAP6 SWAP2 SWAP5 POP SWAP3 POP JUMP JUMPDEST DUP1 ISZERO ISZERO DUP2 EQ PUSH2 0xCF JUMPI PUSH1 0x0 DUP1 REVERT JUMPDEST PUSH1 0x0 DUP1 PUSH1 0x40 DUP4 DUP6 SUB SLT ISZERO PUSH2 0xCA0 JUMPI PUSH1 0x0 DUP1 REVERT JUMPDEST DUP3 CALLDATALOAD SWAP2 POP PUSH1 0x20 DUP4 ADD CALLDATALOAD PUSH2 0xCB2 DUP2 PUSH2 0xC7F JUMP JUMPDEST DUP1 SWAP2 POP POP SWAP3 POP SWAP3 SWAP1 POP JUMP JUMPDEST PUSH1 0x0 PUSH1 0x20 DUP3 DUP5 SUB SLT ISZERO PUSH2 0xCCF JUMPI PUSH1 0x0 DUP1 REVERT JUMPDEST POP MLOAD SWAP2 SWAP1 POP JUMP JUMPDEST PUSH1 0x0 JUMPDEST DUP4 DUP2 LT ISZERO PUSH2 0xCF1 JUMPI DUP2 DUP2 ADD MLOAD DUP4 DUP3 ADD MSTORE PUSH1 0x20 ADD PUSH2 0xCD9 JUMP JUMPDEST POP POP PUSH1 0x0 SWAP2 ADD MSTORE JUMP JUMPDEST PUSH1 0x0 DUP2 MLOAD PUSH2 0xD0C DUP2 DUP6 PUSH1 0x20 DUP7 ADD PUSH2 0xCD6 JUMP JUMPDEST SWAP3 SWAP1 SWAP3 ADD SWAP3 SWAP2 POP POP JUMP JUMPDEST PUSH17 0x88C2E8C240C2E6E6CAE4E8CAC8744060F PUSH1 0x7B SHL DUP2 MSTORE PUSH1 0x0 DUP7 MLOAD PUSH1 0x20 PUSH2 0xD43 DUP3 PUSH1 0x11 DUP7 ADD DUP4 DUP13 ADD PUSH2 0xCD6 JUMP JUMPDEST PUSH15 0x40CCDEE440C8C2E8C292C8744060F PUSH1 0x8B SHL PUSH1 0x11 SWAP3 DUP6 ADD SWAP3 DUP4 ADD MSTORE DUP8 MLOAD PUSH2 0xD70 DUP2 DUP4 DUP6 ADD DUP5 DUP13 ADD PUSH2 0xCD6 JUMP JUMPDEST PUSH17 0x40C2DCC840C2E6E6CAE4E8CAE4744060F PUSH1 0x7B SHL SWAP3 ADD DUP2 DUP2 ADD SWAP3 SWAP1 SWAP3 MSTORE DUP7 MLOAD PUSH2 0xDA0 DUP2 PUSH1 0x31 DUP6 ADD DUP11 DUP6 ADD PUSH2 0xCD6 JUMP JUMPDEST PUSH1 0x11 DUP2 DUP5 ADD ADD SWAP3 POP POP PUSH15 0x1030BA103A34B6B2B9BA30B6B81D1 PUSH1 0x8D SHL DUP2 DUP4 ADD MSTORE DUP6 MLOAD PUSH2 0xDD2 DUP2 PUSH1 0x2F DUP6 ADD DUP5 DUP11 ADD PUSH2 0xCD6 JUMP JUMPDEST PUSH1 0xF DUP2 DUP5 ADD ADD SWAP3 POP POP PUSH32 0x20696E207468652044617461417373657274657220636F6E7472616374206174 DUP2 DUP4 ADD MSTORE POP PUSH3 0x4060F PUSH1 0xEB SHL PUSH1 0x40 DUP3 ADD MSTORE PUSH2 0xE33 PUSH2 0xE1D PUSH1 0x43 DUP4 ADD DUP7 PUSH2 0xCFA JUMP JUMPDEST PUSH10 0x1034B9903B30B634B217 PUSH1 0xB1 SHL DUP2 MSTORE PUSH1 0xA ADD SWAP1 JUMP JUMPDEST SWAP9 SWAP8 POP POP POP POP POP POP POP POP JUMP JUMPDEST PUSH1 0x0 DUP2 MLOAD DUP1 DUP5 MSTORE PUSH2 0xE57 DUP2 PUSH1 0x20 DUP7 ADD PUSH1 0x20 DUP7 ADD PUSH2 0xCD6 JUMP JUMPDEST PUSH1 0x1F ADD PUSH1 0x1F NOT AND SWAP3 SWAP1 SWAP3 ADD PUSH1 0x20 ADD SWAP3 SWAP2 POP POP JUMP JUMPDEST PUSH1 0x0 PUSH2 0x120 DUP1 DUP4 MSTORE PUSH2 0xE7F DUP2 DUP5 ADD DUP14 PUSH2 0xE3F JUMP JUMPDEST PUSH1 0x1 PUSH1 0x1 PUSH1 0xA0 SHL SUB SWAP12 DUP13 AND PUSH1 0x20 DUP6 ADD MSTORE SWAP10 DUP12 AND PUSH1 0x40 DUP5 ADD MSTORE POP POP SWAP6 DUP9 AND PUSH1 0x60 DUP8 ADD MSTORE PUSH1 0x1 PUSH1 0x1 PUSH1 0x40 SHL SUB SWAP5 SWAP1 SWAP5 AND PUSH1 0x80 DUP7 ADD MSTORE SWAP2 SWAP1 SWAP6 AND PUSH1 0xA0 DUP5 ADD MSTORE PUSH1 0xC0 DUP4 ADD SWAP5 SWAP1 SWAP5 MSTORE PUSH1 0xE0 DUP3 ADD SWAP4 SWAP1 SWAP4 MSTORE PUSH2 0x100 ADD SWAP2 SWAP1 SWAP2 MSTORE SWAP2 SWAP1 POP JUMP JUMPDEST PUSH4 0x4E487B71 PUSH1 0xE0 SHL PUSH1 0x0 MSTORE PUSH1 0x11 PUSH1 0x4 MSTORE PUSH1 0x24 PUSH1 0x0 REVERT JUMPDEST PUSH1 0x0 PUSH1 0x1 DUP3 ADD PUSH2 0xF00 JUMPI PUSH2 0xF00 PUSH2 0xED8 JUMP JUMPDEST POP PUSH1 0x1 ADD SWAP1 JUMP JUMPDEST PUSH4 0x4E487B71 PUSH1 0xE0 SHL PUSH1 0x0 MSTORE PUSH1 0x12 PUSH1 0x4 MSTORE PUSH1 0x24 PUSH1 0x0 REVERT JUMPDEST PUSH1 0x0 DUP3 PUSH2 0xF3A JUMPI PUSH4 0x4E487B71 PUSH1 0xE0 SHL PUSH1 0x0 MSTORE PUSH1 0x12 PUSH1 0x4 MSTORE PUSH1 0x24 PUSH1 0x0 REVERT JUMPDEST POP DIV SWAP1 JUMP JUMPDEST PUSH4 0x4E487B71 PUSH1 0xE0 SHL PUSH1 0x0 MSTORE PUSH1 0x41 PUSH1 0x4 MSTORE PUSH1 0x24 PUSH1 0x0 REVERT JUMPDEST DUP2 DUP2 SUB DUP2 DUP2 GT ISZERO PUSH2 0xF68 JUMPI PUSH2 0xF68 PUSH2 0xED8 JUMP JUMPDEST SWAP3 SWAP2 POP POP JUMP JUMPDEST DUP1 DUP3 MUL DUP2 ISZERO DUP3 DUP3 DIV DUP5 EQ OR PUSH2 0xF68 JUMPI PUSH2 0xF68 PUSH2 0xED8 JUMP JUMPDEST PUSH1 0xFF DUP2 DUP2 AND DUP4 DUP3 AND ADD SWAP1 DUP2 GT ISZERO PUSH2 0xF68 JUMPI PUSH2 0xF68 PUSH2 0xED8 JUMP JUMPDEST PUSH4 0x4E487B71 PUSH1 0xE0 SHL PUSH1 0x0 MSTORE PUSH1 0x32 PUSH1 0x4 MSTORE PUSH1 0x24 PUSH1 0x0 REVERT JUMPDEST PUSH1 0x0 PUSH1 0x20 DUP3 DUP5 SUB SLT ISZERO PUSH2 0xFC6 JUMPI PUSH1 0x0 DUP1 REVERT JUMPDEST DUP2 MLOAD PUSH2 0xC19 DUP2 PUSH2 0xC7F JUMP JUMPDEST PUSH1 0x0 DUP3 MLOAD PUSH2 0xFE3 DUP2 DUP5 PUSH1 0x20 DUP8 ADD PUSH2 0xCD6 JUMP JUMPDEST SWAP2 SWAP1 SWAP2 ADD SWAP3 SWAP2 POP POP JUMP JUMPDEST PUSH1 0x20 DUP2 MSTORE PUSH1 0x0 PUSH2 0xC19 PUSH1 0x20 DUP4 ADD DUP5 PUSH2 0xE3F JUMP INVALID LOG2 PUSH5 0x6970667358 0x22 SLT KECCAK256 EQ 0x2B 0x4B SLOAD 0xE0 RETURNDATACOPY 0x4E LT PREVRANDAO 0xC 0x5D SWAP1 0x2C MOD 0xC6 0xFC 0xF8 LOG2 RETURNDATASIZE MSIZE DUP15 0xB9 0xC5 0xC0 PUSH6 0xB7F59BAF0E04 MOD PUSH5 0x736F6C6343 STOP ADDMOD EQ STOP CALLER "},"gasEstimates":{"creation":{"codeDepositCost":"830000","executionCost":"864","totalCost":"830864"},"external":{"assertDataFor(bytes32,bytes32,address,address)":"infinite","assertionDisputedCallback(bytes32)":"255","assertionResolvedCallback(bytes32,bool)":"36958","getData(bytes32)":"4813","setOOV3(address)":"infinite"}},"methodIdentifiers":{"assertDataFor(bytes32,bytes32,address,address)":"5a7ee877","assertionDisputedCallback(bytes32)":"d448a4ec","assertionResolvedCallback(bytes32,bool)":"f1b156b2","getData(bytes32)":"54f6127f","setOOV3(address)":"2939544e"}},"storageLayout":{"storage":[],"types":null},"userdoc":{"kind":"user","methods":{},"version":1}}}}