{"contracts/Facets/HyperFacet.sol":{"HyperFacet":{"abi":[{"inputs":[],"name":"getCounter","outputs":[{"internalType":"uint256","name":"","type":"uint256"}],"stateMutability":"view","type":"function"},{"inputs":[],"name":"handle","outputs":[],"stateMutability":"nonpayable","type":"function"},{"inputs":[{"internalType":"uint32","name":"domain","type":"uint32"},{"internalType":"uint256","name":"gasAmount","type":"uint256"}],"name":"hitEmUp","outputs":[],"stateMutability":"payable","type":"function"},{"inputs":[],"name":"interchainSecurityModule","outputs":[{"internalType":"address","name":"","type":"address"}],"stateMutability":"view","type":"function"},{"inputs":[{"internalType":"address","name":"localIGP","type":"address"}],"name":"setGasMaster","outputs":[],"stateMutability":"nonpayable","type":"function"},{"inputs":[{"internalType":"address","name":"ism","type":"address"}],"name":"setISM","outputs":[],"stateMutability":"nonpayable","type":"function"},{"inputs":[{"internalType":"address","name":"maiLBox","type":"address"}],"name":"setMailBox","outputs":[],"stateMutability":"nonpayable","type":"function"}],"devdoc":{"kind":"dev","methods":{},"version":1},"evm":{"bytecode":{"linkReferences":{},"object":"608060405234801561001057600080fd5b5061052a806100206000396000f3fe6080604052600436106100605760003560e01c80632c2cd749146100655780635871836714610087578063759524ed1461009a5780638ada066e146100ba578063de4a787f146100e2578063de523cf314610102578063fd0da09914610124575b600080fd5b34801561007157600080fd5b506100856100803660046103d8565b610139565b005b610085610095366004610408565b610145565b3480156100a657600080fd5b506100856100b53660046103d8565b610153565b3480156100c657600080fd5b506100cf61015c565b6040519081526020015b60405180910390f35b3480156100ee57600080fd5b506100856100fd3660046103d8565b61016b565b34801561010e57600080fd5b50610117610174565b6040516100d9919061043d565b34801561013057600080fd5b5061008561017e565b61014281610188565b50565b61014f82826101b4565b5050565b610142816102fe565b600061016661032d565b905090565b61014281610342565b6000610166610371565b61018661038f565b565b60006101926103b4565b80546001600160a01b0319166001600160a01b03939093169290921790915550565b60006101be6103b4565b8054600182015463ffffffff861660009081526003840160205260408120549394506001600160a01b039283169391831692909116908363fa31de0188843360405160200161020d919061043d565b6040516020818303038152906040526040518463ffffffff1660e01b815260040161023a93929190610451565b6020604051808303816000875af1158015610259573d6000803e3d6000fd5b505050506040513d601f19601f8201168201806040525081019061027d91906104b4565b604051630237e58360e31b81526004810182905263ffffffff89166024820152604481018890523360648201529091506001600160a01b038416906311bf2c189034906084016000604051808303818588803b1580156102dc57600080fd5b505af11580156102f0573d6000803e3d6000fd5b505050505050505050505050565b60006103086103b4565b60010180546001600160a01b0319166001600160a01b03939093169290921790915550565b6000806103386103b4565b6004015492915050565b600061034c6103b4565b60020180546001600160a01b0319166001600160a01b03939093169290921790915550565b60008061037c6103b4565b600201546001600160a01b031692915050565b60006103996103b4565b9050806004015460016103ac91906104cd565b600490910155565b7f34fbc1afd8e1b9169b38b6c80a52777e06873abc0d2b3f992f7608bdf1bf6ade90565b6000602082840312156103ea57600080fd5b81356001600160a01b038116811461040157600080fd5b9392505050565b6000806040838503121561041b57600080fd5b823563ffffffff8116811461042f57600080fd5b946020939093013593505050565b6001600160a01b0391909116815260200190565b63ffffffff8416815260006020848184015260606040840152835180606085015260005b8181101561049157858101830151858201608001528201610475565b506000608082860101526080601f19601f83011685010192505050949350505050565b6000602082840312156104c657600080fd5b5051919050565b808201808211156104ee57634e487b7160e01b600052601160045260246000fd5b9291505056fea264697066735822122047a5a5e311b06b29b2fc6c35cb08dfce6d76342e4e152e47cc8d0ec5238c908564736f6c63430008140033","opcodes":"PUSH1 0x80 PUSH1 0x40 MSTORE CALLVALUE DUP1 ISZERO PUSH2 0x10 JUMPI PUSH1 0x0 DUP1 REVERT JUMPDEST POP PUSH2 0x52A DUP1 PUSH2 0x20 PUSH1 0x0 CODECOPY PUSH1 0x0 RETURN INVALID PUSH1 0x80 PUSH1 0x40 MSTORE PUSH1 0x4 CALLDATASIZE LT PUSH2 0x60 JUMPI PUSH1 0x0 CALLDATALOAD PUSH1 0xE0 SHR DUP1 PUSH4 0x2C2CD749 EQ PUSH2 0x65 JUMPI DUP1 PUSH4 0x58718367 EQ PUSH2 0x87 JUMPI DUP1 PUSH4 0x759524ED EQ PUSH2 0x9A JUMPI DUP1 PUSH4 0x8ADA066E EQ PUSH2 0xBA JUMPI DUP1 PUSH4 0xDE4A787F EQ PUSH2 0xE2 JUMPI DUP1 PUSH4 0xDE523CF3 EQ PUSH2 0x102 JUMPI DUP1 PUSH4 0xFD0DA099 EQ PUSH2 0x124 JUMPI JUMPDEST PUSH1 0x0 DUP1 REVERT JUMPDEST CALLVALUE DUP1 ISZERO PUSH2 0x71 JUMPI PUSH1 0x0 DUP1 REVERT JUMPDEST POP PUSH2 0x85 PUSH2 0x80 CALLDATASIZE PUSH1 0x4 PUSH2 0x3D8 JUMP JUMPDEST PUSH2 0x139 JUMP JUMPDEST STOP JUMPDEST PUSH2 0x85 PUSH2 0x95 CALLDATASIZE PUSH1 0x4 PUSH2 0x408 JUMP JUMPDEST PUSH2 0x145 JUMP JUMPDEST CALLVALUE DUP1 ISZERO PUSH2 0xA6 JUMPI PUSH1 0x0 DUP1 REVERT JUMPDEST POP PUSH2 0x85 PUSH2 0xB5 CALLDATASIZE PUSH1 0x4 PUSH2 0x3D8 JUMP JUMPDEST PUSH2 0x153 JUMP JUMPDEST CALLVALUE DUP1 ISZERO PUSH2 0xC6 JUMPI PUSH1 0x0 DUP1 REVERT JUMPDEST POP PUSH2 0xCF PUSH2 0x15C JUMP JUMPDEST PUSH1 0x40 MLOAD SWAP1 DUP2 MSTORE PUSH1 0x20 ADD JUMPDEST PUSH1 0x40 MLOAD DUP1 SWAP2 SUB SWAP1 RETURN JUMPDEST CALLVALUE DUP1 ISZERO PUSH2 0xEE JUMPI PUSH1 0x0 DUP1 REVERT JUMPDEST POP PUSH2 0x85 PUSH2 0xFD CALLDATASIZE PUSH1 0x4 PUSH2 0x3D8 JUMP JUMPDEST PUSH2 0x16B JUMP JUMPDEST CALLVALUE DUP1 ISZERO PUSH2 0x10E JUMPI PUSH1 0x0 DUP1 REVERT JUMPDEST POP PUSH2 0x117 PUSH2 0x174 JUMP JUMPDEST PUSH1 0x40 MLOAD PUSH2 0xD9 SWAP2 SWAP1 PUSH2 0x43D JUMP JUMPDEST CALLVALUE DUP1 ISZERO PUSH2 0x130 JUMPI PUSH1 0x0 DUP1 REVERT JUMPDEST POP PUSH2 0x85 PUSH2 0x17E JUMP JUMPDEST PUSH2 0x142 DUP2 PUSH2 0x188 JUMP JUMPDEST POP JUMP JUMPDEST PUSH2 0x14F DUP3 DUP3 PUSH2 0x1B4 JUMP JUMPDEST POP POP JUMP JUMPDEST PUSH2 0x142 DUP2 PUSH2 0x2FE JUMP JUMPDEST PUSH1 0x0 PUSH2 0x166 PUSH2 0x32D JUMP JUMPDEST SWAP1 POP SWAP1 JUMP JUMPDEST PUSH2 0x142 DUP2 PUSH2 0x342 JUMP JUMPDEST PUSH1 0x0 PUSH2 0x166 PUSH2 0x371 JUMP JUMPDEST PUSH2 0x186 PUSH2 0x38F JUMP JUMPDEST JUMP JUMPDEST PUSH1 0x0 PUSH2 0x192 PUSH2 0x3B4 JUMP JUMPDEST DUP1 SLOAD PUSH1 0x1 PUSH1 0x1 PUSH1 0xA0 SHL SUB NOT AND PUSH1 0x1 PUSH1 0x1 PUSH1 0xA0 SHL SUB SWAP4 SWAP1 SWAP4 AND SWAP3 SWAP1 SWAP3 OR SWAP1 SWAP2 SSTORE POP JUMP JUMPDEST PUSH1 0x0 PUSH2 0x1BE PUSH2 0x3B4 JUMP JUMPDEST DUP1 SLOAD PUSH1 0x1 DUP3 ADD SLOAD PUSH4 0xFFFFFFFF DUP7 AND PUSH1 0x0 SWAP1 DUP2 MSTORE PUSH1 0x3 DUP5 ADD PUSH1 0x20 MSTORE PUSH1 0x40 DUP2 KECCAK256 SLOAD SWAP4 SWAP5 POP PUSH1 0x1 PUSH1 0x1 PUSH1 0xA0 SHL SUB SWAP3 DUP4 AND SWAP4 SWAP2 DUP4 AND SWAP3 SWAP1 SWAP2 AND SWAP1 DUP4 PUSH4 0xFA31DE01 DUP9 DUP5 CALLER PUSH1 0x40 MLOAD PUSH1 0x20 ADD PUSH2 0x20D SWAP2 SWAP1 PUSH2 0x43D JUMP JUMPDEST PUSH1 0x40 MLOAD PUSH1 0x20 DUP2 DUP4 SUB SUB DUP2 MSTORE SWAP1 PUSH1 0x40 MSTORE PUSH1 0x40 MLOAD DUP5 PUSH4 0xFFFFFFFF AND PUSH1 0xE0 SHL DUP2 MSTORE PUSH1 0x4 ADD PUSH2 0x23A SWAP4 SWAP3 SWAP2 SWAP1 PUSH2 0x451 JUMP JUMPDEST PUSH1 0x20 PUSH1 0x40 MLOAD DUP1 DUP4 SUB DUP2 PUSH1 0x0 DUP8 GAS CALL ISZERO DUP1 ISZERO PUSH2 0x259 JUMPI RETURNDATASIZE PUSH1 0x0 DUP1 RETURNDATACOPY RETURNDATASIZE PUSH1 0x0 REVERT JUMPDEST POP POP POP POP PUSH1 0x40 MLOAD RETURNDATASIZE PUSH1 0x1F NOT PUSH1 0x1F DUP3 ADD AND DUP3 ADD DUP1 PUSH1 0x40 MSTORE POP DUP2 ADD SWAP1 PUSH2 0x27D SWAP2 SWAP1 PUSH2 0x4B4 JUMP JUMPDEST PUSH1 0x40 MLOAD PUSH4 0x237E583 PUSH1 0xE3 SHL DUP2 MSTORE PUSH1 0x4 DUP2 ADD DUP3 SWAP1 MSTORE PUSH4 0xFFFFFFFF DUP10 AND PUSH1 0x24 DUP3 ADD MSTORE PUSH1 0x44 DUP2 ADD DUP9 SWAP1 MSTORE CALLER PUSH1 0x64 DUP3 ADD MSTORE SWAP1 SWAP2 POP PUSH1 0x1 PUSH1 0x1 PUSH1 0xA0 SHL SUB DUP5 AND SWAP1 PUSH4 0x11BF2C18 SWAP1 CALLVALUE SWAP1 PUSH1 0x84 ADD PUSH1 0x0 PUSH1 0x40 MLOAD DUP1 DUP4 SUB DUP2 DUP6 DUP9 DUP1 EXTCODESIZE ISZERO DUP1 ISZERO PUSH2 0x2DC JUMPI PUSH1 0x0 DUP1 REVERT JUMPDEST POP GAS CALL ISZERO DUP1 ISZERO PUSH2 0x2F0 JUMPI RETURNDATASIZE PUSH1 0x0 DUP1 RETURNDATACOPY RETURNDATASIZE PUSH1 0x0 REVERT JUMPDEST POP POP POP POP POP POP POP POP POP POP POP POP JUMP JUMPDEST PUSH1 0x0 PUSH2 0x308 PUSH2 0x3B4 JUMP JUMPDEST PUSH1 0x1 ADD DUP1 SLOAD PUSH1 0x1 PUSH1 0x1 PUSH1 0xA0 SHL SUB NOT AND PUSH1 0x1 PUSH1 0x1 PUSH1 0xA0 SHL SUB SWAP4 SWAP1 SWAP4 AND SWAP3 SWAP1 SWAP3 OR SWAP1 SWAP2 SSTORE POP JUMP JUMPDEST PUSH1 0x0 DUP1 PUSH2 0x338 PUSH2 0x3B4 JUMP JUMPDEST PUSH1 0x4 ADD SLOAD SWAP3 SWAP2 POP POP JUMP JUMPDEST PUSH1 0x0 PUSH2 0x34C PUSH2 0x3B4 JUMP JUMPDEST PUSH1 0x2 ADD DUP1 SLOAD PUSH1 0x1 PUSH1 0x1 PUSH1 0xA0 SHL SUB NOT AND PUSH1 0x1 PUSH1 0x1 PUSH1 0xA0 SHL SUB SWAP4 SWAP1 SWAP4 AND SWAP3 SWAP1 SWAP3 OR SWAP1 SWAP2 SSTORE POP JUMP JUMPDEST PUSH1 0x0 DUP1 PUSH2 0x37C PUSH2 0x3B4 JUMP JUMPDEST PUSH1 0x2 ADD SLOAD PUSH1 0x1 PUSH1 0x1 PUSH1 0xA0 SHL SUB AND SWAP3 SWAP2 POP POP JUMP JUMPDEST PUSH1 0x0 PUSH2 0x399 PUSH2 0x3B4 JUMP JUMPDEST SWAP1 POP DUP1 PUSH1 0x4 ADD SLOAD PUSH1 0x1 PUSH2 0x3AC SWAP2 SWAP1 PUSH2 0x4CD JUMP JUMPDEST PUSH1 0x4 SWAP1 SWAP2 ADD SSTORE JUMP JUMPDEST PUSH32 0x34FBC1AFD8E1B9169B38B6C80A52777E06873ABC0D2B3F992F7608BDF1BF6ADE SWAP1 JUMP JUMPDEST PUSH1 0x0 PUSH1 0x20 DUP3 DUP5 SUB SLT ISZERO PUSH2 0x3EA JUMPI PUSH1 0x0 DUP1 REVERT JUMPDEST DUP2 CALLDATALOAD PUSH1 0x1 PUSH1 0x1 PUSH1 0xA0 SHL SUB DUP2 AND DUP2 EQ PUSH2 0x401 JUMPI PUSH1 0x0 DUP1 REVERT JUMPDEST SWAP4 SWAP3 POP POP POP JUMP JUMPDEST PUSH1 0x0 DUP1 PUSH1 0x40 DUP4 DUP6 SUB SLT ISZERO PUSH2 0x41B JUMPI PUSH1 0x0 DUP1 REVERT JUMPDEST DUP3 CALLDATALOAD PUSH4 0xFFFFFFFF DUP2 AND DUP2 EQ PUSH2 0x42F JUMPI PUSH1 0x0 DUP1 REVERT JUMPDEST SWAP5 PUSH1 0x20 SWAP4 SWAP1 SWAP4 ADD CALLDATALOAD SWAP4 POP POP POP JUMP JUMPDEST PUSH1 0x1 PUSH1 0x1 PUSH1 0xA0 SHL SUB SWAP2 SWAP1 SWAP2 AND DUP2 MSTORE PUSH1 0x20 ADD SWAP1 JUMP JUMPDEST PUSH4 0xFFFFFFFF DUP5 AND DUP2 MSTORE PUSH1 0x0 PUSH1 0x20 DUP5 DUP2 DUP5 ADD MSTORE PUSH1 0x60 PUSH1 0x40 DUP5 ADD MSTORE DUP4 MLOAD DUP1 PUSH1 0x60 DUP6 ADD MSTORE PUSH1 0x0 JUMPDEST DUP2 DUP2 LT ISZERO PUSH2 0x491 JUMPI DUP6 DUP2 ADD DUP4 ADD MLOAD DUP6 DUP3 ADD PUSH1 0x80 ADD MSTORE DUP3 ADD PUSH2 0x475 JUMP JUMPDEST POP PUSH1 0x0 PUSH1 0x80 DUP3 DUP7 ADD ADD MSTORE PUSH1 0x80 PUSH1 0x1F NOT PUSH1 0x1F DUP4 ADD AND DUP6 ADD ADD SWAP3 POP POP POP SWAP5 SWAP4 POP POP POP POP JUMP JUMPDEST PUSH1 0x0 PUSH1 0x20 DUP3 DUP5 SUB SLT ISZERO PUSH2 0x4C6 JUMPI PUSH1 0x0 DUP1 REVERT JUMPDEST POP MLOAD SWAP2 SWAP1 POP JUMP JUMPDEST DUP1 DUP3 ADD DUP1 DUP3 GT ISZERO PUSH2 0x4EE JUMPI PUSH4 0x4E487B71 PUSH1 0xE0 SHL PUSH1 0x0 MSTORE PUSH1 0x11 PUSH1 0x4 MSTORE PUSH1 0x24 PUSH1 0x0 REVERT JUMPDEST SWAP3 SWAP2 POP POP JUMP INVALID LOG2 PUSH5 0x6970667358 0x22 SLT KECCAK256 SELFBALANCE 0xA5 0xA5 0xE3 GT 0xB0 PUSH12 0x29B2FC6C35CB08DFCE6D7634 0x2E 0x4E ISZERO 0x2E SELFBALANCE 0xCC DUP14 0xE 0xC5 0x23 DUP13 SWAP1 DUP6 PUSH5 0x736F6C6343 STOP ADDMOD EQ STOP CALLER "},"gasEstimates":{"creation":{"codeDepositCost":"264400","executionCost":"306","totalCost":"264706"},"external":{"getCounter()":"2421","handle()":"24615","hitEmUp(uint32,uint256)":"infinite","interchainSecurityModule()":"2539","setGasMaster(address)":"24628","setISM(address)":"24672","setMailBox(address)":"24578"}},"methodIdentifiers":{"getCounter()":"8ada066e","handle()":"fd0da099","hitEmUp(uint32,uint256)":"58718367","interchainSecurityModule()":"de523cf3","setGasMaster(address)":"759524ed","setISM(address)":"de4a787f","setMailBox(address)":"2c2cd749"}},"storageLayout":{"storage":[],"types":null},"userdoc":{"kind":"user","methods":{},"version":1}}}}