{
  "_format": "hh-sol-artifact-1",
  "contractName": "UniswapHooksFactory",
  "sourceName": "contracts/Hooks/HooksFactory.sol",
  "abi": [
    {
      "inputs": [
        {
          "components": [
            {
              "internalType": "address",
              "name": "facetAddress",
              "type": "address"
            },
            {
              "internalType": "enum IDiamond.FacetCutAction",
              "name": "action",
              "type": "uint8"
            },
            {
              "internalType": "bytes4[]",
              "name": "functionSelectors",
              "type": "bytes4[]"
            }
          ],
          "internalType": "struct IDiamond.FacetCut[]",
          "name": "_diamondCut",
          "type": "tuple[]"
        },
        {
          "components": [
            {
              "internalType": "address",
              "name": "owner",
              "type": "address"
            },
            {
              "internalType": "address",
              "name": "init",
              "type": "address"
            },
            {
              "internalType": "bytes",
              "name": "initCalldata",
              "type": "bytes"
            }
          ],
          "internalType": "struct DiamondArgs",
          "name": "_args",
          "type": "tuple"
        },
        {
          "internalType": "bytes32",
          "name": "salt",
          "type": "bytes32"
        }
      ],
      "name": "deploy",
      "outputs": [],
      "stateMutability": "nonpayable",
      "type": "function"
    },
    {
      "inputs": [
        {
          "components": [
            {
              "internalType": "address",
              "name": "facetAddress",
              "type": "address"
            },
            {
              "internalType": "enum IDiamond.FacetCutAction",
              "name": "action",
              "type": "uint8"
            },
            {
              "internalType": "bytes4[]",
              "name": "functionSelectors",
              "type": "bytes4[]"
            }
          ],
          "internalType": "struct IDiamond.FacetCut[]",
          "name": "_diamondCut",
          "type": "tuple[]"
        },
        {
          "components": [
            {
              "internalType": "address",
              "name": "owner",
              "type": "address"
            },
            {
              "internalType": "address",
              "name": "init",
              "type": "address"
            },
            {
              "internalType": "bytes",
              "name": "initCalldata",
              "type": "bytes"
            }
          ],
          "internalType": "struct DiamondArgs",
          "name": "_args",
          "type": "tuple"
        },
        {
          "internalType": "bytes32",
          "name": "salt",
          "type": "bytes32"
        }
      ],
      "name": "getPrecomputedHookAddress",
      "outputs": [
        {
          "internalType": "address",
          "name": "",
          "type": "address"
        }
      ],
      "stateMutability": "view",
      "type": "function"
    },
    {
      "inputs": [
        {
          "internalType": "uint256",
          "name": "",
          "type": "uint256"
        }
      ],
      "name": "hooks",
      "outputs": [
        {
          "internalType": "address",
          "name": "",
          "type": "address"
        }
      ],
      "stateMutability": "view",
      "type": "function"
    }
  ],
  "bytecode": "0x608060405234801561001057600080fd5b5061193a806100206000396000f3fe60806040523480156200001157600080fd5b5060043610620000465760003560e01c8063087e4f0e146200004b578063864c17d7146200007e57806398f068221462000095575b600080fd5b620000626200005c36600462000451565b620000ae565b6040516001600160a01b03909116815260200160405180910390f35b620000626200008f3660046200061c565b62000174565b620000ac620000a636600462000451565b6200019f565b005b60008060405180602001620000c390620002bd565b601f1982820381018352601f909101166040819052620000ea9087908790602001620006c9565b60408051601f19818403018152908290526200010a9291602001620007be565b60408051601f1981840301815282825280516020918201206001600160f81b0319828501523060601b6001600160601b0319166021850152603584019690965260558084019690965281518084039096018652607590920190528351930192909220949350505050565b600081815481106200018557600080fd5b6000918252602090912001546001600160a01b0316905081565b620001d4604051806040016040528060128152602001713232b83637bcb4b733903437b7b5b997171760711b8152506200024d565b6000818484604051620001e790620002bd565b620001f4929190620006c9565b8190604051809103906000f590508015801562000215573d6000803e3d6000fd5b5081546001810183556000928352602090922090910180546001600160a01b0319166001600160a01b03909216919091179055505050565b6200029481604051602401620002649190620007f1565b60408051601f198184030181529190526020810180516001600160e01b031663104c13eb60e21b17905262000297565b50565b620002948160006a636f6e736f6c652e6c6f679050600080835160208501845afa505050565b6110f7806200080e83390190565b634e487b7160e01b600052604160045260246000fd5b604051606081016001600160401b0381118282101715620003065762000306620002cb565b60405290565b604051601f8201601f191681016001600160401b0381118282101715620003375762000337620002cb565b604052919050565b60006001600160401b038211156200035b576200035b620002cb565b5060051b60200190565b80356001600160a01b03811681146200037d57600080fd5b919050565b6000606082840312156200039557600080fd5b6200039f620002e1565b9050620003ac8262000365565b81526020620003bd81840162000365565b8282015260408301356001600160401b0380821115620003dc57600080fd5b818501915085601f830112620003f157600080fd5b813581811115620004065762000406620002cb565b6200041a601f8201601f191685016200030c565b915080825286848285010111156200043157600080fd5b808484018584013760008482840101525080604085015250505092915050565b6000806000606084860312156200046757600080fd5b6001600160401b0384358110156200047e57600080fd5b8435850186601f8201126200049257600080fd5b620004a8620004a282356200033f565b6200030c565b81358082526020808301929160051b84010189811115620004c857600080fd5b602084015b81811015620005e2578581351115620004e557600080fd5b803585016060818d03601f19011215620004fe57600080fd5b62000508620002e1565b620005166020830162000365565b81526040820135600381106200052b57600080fd5b60208201526060820135888111156200054357600080fd5b8083019250508c603f8301126200055957600080fd5b60208201356200056d620004a2826200033f565b81815260059190911b83016040019060208101908f8311156200058f57600080fd5b6040850194505b82851015620005cb5784356001600160e01b0319811614620005b757600080fd5b843582526020948501949091019062000596565b6040840152505085525060209384019301620004cd565b50909650505050602085013581811115620005fc57600080fd5b6200060a8782880162000382565b93505050604084013590509250925092565b6000602082840312156200062f57600080fd5b5035919050565b60005b838110156200065357818101518382015260200162000639565b50506000910152565b600081518084526200067681602086016020860162000636565b601f01601f19169290920160200192915050565b600060018060a01b0380835116845280602084015116602085015250604082015160606040850152620006c160608501826200065c565b949350505050565b60006040808301818452808651808352606092508286019150828160051b8701016020808a0160005b848110156200079c57898403605f19018652815180516001600160a01b031685528381015188860190600381106200073a57634e487b7160e01b600052602160045260246000fd5b868601529089015189860189905280519182905284019060009060808701905b80831015620007865783516001600160e01b03191682529286019260019290920191908601906200075a565b50978501979550505090820190600101620006f2565b505087820390880152620007b181896200068a565b9998505050505050505050565b60008351620007d281846020880162000636565b835190830190620007e881836020880162000636565b01949350505050565b6020815260006200080660208301846200065c565b939250505056fe60806040526040516110f73803806110f783398101604081905261002291610b1a565b805161002d9061004d565b61004682826020015183604001516100ad60201b60201c565b5050610f5c565b600061005761025d565b6003810180546001600160a01b038581166001600160a01b031983168117909355604051939450169182907f8be0079c531659141344cd1fd0a4f28419497f9722a3daafe3b4186f6b6457e090600090a3505050565b60005b83518110156102125760008482815181106100cd576100cd610cbb565b602002602001015160400151905060008583815181106100ef576100ef610cbb565b6020026020010151600001519050815160000361012a578060405163e767f91f60e01b81526004016101219190610cd1565b60405180910390fd5b600086848151811061013e5761013e610cbb565b60200260200101516020015190506000600281111561015f5761015f610ce5565b81600281111561017157610171610ce5565b03610185576101808284610281565b6101fc565b600181600281111561019957610199610ce5565b036101a857610180828461041f565b60028160028111156101bc576101bc610ce5565b036101cb5761018082846105bd565b8060028111156101dd576101dd610ce5565b604051633ff4d20f60e11b815260ff9091166004820152602401610121565b505050808061020a90610d11565b9150506100b0565b507f8faa70878671ccd212d20771b795c50af8fd3ff6cf27f4bde57e5d4de0aeb67383838360405161024693929190610d9b565b60405180910390a1610258828261081b565b505050565b7fc8fcad8db84d3cc18b4c41d551ea0ee66dd599cde068d998e57d5e09332c131c90565b6001600160a01b0382166102aa57806040516302b8da0760e21b81526004016101219190610e64565b60006102b461025d565b90506000816001018054905090506102e484604051806060016040528060248152602001611083602491396108e1565b60005b835181101561041857600084828151811061030457610304610cbb565b6020908102919091018101516001600160e01b031981166000908152918690526040909120549091506001600160a01b03168015610357578160405163ebbf5d0760e01b81526004016101219190610e7e565b6040805180820182526001600160a01b03808a16825261ffff80881660208085019182526001600160e01b0319881660009081528b8252958620945185549251909316600160a01b026001600160b01b0319909216929093169190911717909155600180880180549182018155835291206008820401805460e085901c60046007909416939093026101000a92830263ffffffff90930219169190911790558361040081610e93565b9450505050808061041090610d11565b9150506102e7565b5050505050565b600061042961025d565b90506001600160a01b038316610454578160405163cd98a96f60e01b81526004016101219190610e64565b610476836040518060600160405280602881526020016110cf602891396108e1565b60005b82518110156105b757600083828151811061049657610496610cbb565b6020908102919091018101516001600160e01b031981166000908152918590526040909120549091506001600160a01b03163081036104ea5781604051632901806d60e11b81526004016101219190610e7e565b856001600160a01b0316816001600160a01b03160361054a5760408051808201909152600a81526920b2323932b9b9b2b99d60b11b602082015261052f908288610909565b81604051631ac6ce8d60e11b81526004016101219190610e7e565b6001600160a01b0381166105735781604051637479f93960e01b81526004016101219190610e7e565b506001600160e01b031916600090815260208390526040902080546001600160a01b0319166001600160a01b038616179055806105af81610d11565b915050610479565b50505050565b60006105c761025d565b60018101549091506001600160a01b038416156105f9578360405163d091bc8160e01b81526004016101219190610cd1565b60005b835181101561041857600084828151811061061957610619610cbb565b6020908102919091018101516001600160e01b0319811660009081528683526040908190208151808301909252546001600160a01b038116808352600160a01b90910461ffff16938201939093529092509061068a5781604051637a08a22d60e01b81526004016101219190610e7e565b8051306001600160a01b03909116036106b85781604051630df5fd6160e31b81526004016101219190610e7e565b836106c281610eb4565b94505083816020015161ffff16146107a05760008560010185815481106106eb576106eb610cbb565b90600052602060002090600891828204019190066004029054906101000a900460e01b90508086600101836020015161ffff168154811061072e5761072e610cbb565b600091825260208083206008830401805463ffffffff60079094166004026101000a938402191660e09590951c92909202939093179055838201516001600160e01b03199390931681529087905260409020805461ffff60a01b1916600160a01b61ffff909316929092029190911790555b846001018054806107b3576107b3610ecb565b60008281526020808220600860001990940193840401805463ffffffff600460078716026101000a0219169055919092556001600160e01b0319909316815291859052506040902080546001600160b01b03191690558061081381610d11565b9150506105fc565b6001600160a01b03821661082d575050565b61084f826040518060600160405280602881526020016110a7602891396108e1565b600080836001600160a01b03168360405161086a9190610ee1565b600060405180830381855af49150503d80600081146108a5576040519150601f19603f3d011682016040523d82523d6000602084013e6108aa565b606091505b5091509150816105b7578051156108c45780518082602001fd5b838360405163192105d760e01b8152600401610121929190610efd565b813b600081900361025857828260405163919834b960e01b8152600401610121929190610efd565b61025883838360405160240161092193929190610f29565b60408051601f198184030181529190526020810180516001600160e01b039081166307e763af60e51b1790915261095416565b6109678161096a60201b6100a31760201c565b50565b60006a636f6e736f6c652e6c6f679050600080835160208501845afa505050565b634e487b7160e01b600052604160045260246000fd5b604051606081016001600160401b03811182821017156109c3576109c361098b565b60405290565b604051601f8201601f191681016001600160401b03811182821017156109f1576109f161098b565b604052919050565b60006001600160401b03821115610a1257610a1261098b565b5060051b60200190565b80516001600160a01b0381168114610a3357600080fd5b919050565b60005b83811015610a53578181015183820152602001610a3b565b50506000910152565b600060608284031215610a6e57600080fd5b610a766109a1565b9050610a8182610a1c565b81526020610a90818401610a1c565b8282015260408301516001600160401b0380821115610aae57600080fd5b818501915085601f830112610ac257600080fd5b815181811115610ad457610ad461098b565b610ae6601f8201601f191685016109c9565b91508082528684828501011115610afc57600080fd5b610b0b81858401868601610a38565b50604084015250909392505050565b60008060408385031215610b2d57600080fd5b82516001600160401b0380821115610b4457600080fd5b818501915085601f830112610b5857600080fd5b81516020610b6d610b68836109f9565b6109c9565b82815260059290921b84018101918181019089841115610b8c57600080fd5b8286015b84811015610c8a57805186811115610ba757600080fd5b87016060818d03601f19011215610bbd57600080fd5b610bc56109a1565b610bd0868301610a1c565b8152604082015160038110610be457600080fd5b81870152606082015188811115610bfa57600080fd5b8083019250508c603f830112610c0f57600080fd5b85820151610c1f610b68826109f9565b81815260059190911b830160400190878101908f831115610c3f57600080fd5b6040850194505b82851015610c755784516001600160e01b031981168114610c6657600080fd5b82529388019390880190610c46565b60408401525050845250918301918301610b90565b5091880151919650909350505080821115610ca457600080fd5b50610cb185828601610a5c565b9150509250929050565b634e487b7160e01b600052603260045260246000fd5b6001600160a01b0391909116815260200190565b634e487b7160e01b600052602160045260246000fd5b634e487b7160e01b600052601160045260246000fd5b600060018201610d2357610d23610cfb565b5060010190565b600081518084526020808501945080840160005b83811015610d645781516001600160e01b03191687529582019590820190600101610d3e565b509495945050505050565b60008151808452610d87816020860160208601610a38565b601f01601f19169290920160200192915050565b6000606080830181845280875180835260808601915060808160051b87010192506020808a016000805b84811015610e3457898703607f19018652825180516001600160a01b031688528481015160038110610e0557634e487b7160e01b84526021600452602484fd5b88860152604090810151908801899052610e2189890182610d2a565b9750509483019491830191600101610dc5565b5050506001600160a01b0389169087015250508381036040850152610e598186610d6f565b979650505050505050565b602081526000610e776020830184610d2a565b9392505050565b6001600160e01b031991909116815260200190565b600061ffff808316818103610eaa57610eaa610cfb565b6001019392505050565b600081610ec357610ec3610cfb565b506000190190565b634e487b7160e01b600052603160045260246000fd5b60008251610ef3818460208701610a38565b9190910192915050565b6001600160a01b0383168152604060208201819052600090610f2190830184610d6f565b949350505050565b606081526000610f3c6060830186610d6f565b6001600160a01b0394851660208401529290931660409091015292915050565b61011880610f6b6000396000f3fe608060405236600a57005b600080356001600160e01b03191681527fc8fcad8db84d3cc18b4c41d551ea0ee66dd599cde068d998e57d5e09332c131c602081905260409091205481906001600160a01b031680608057604051630a82dd7360e31b81526001600160e01b031960003516600482015260240160405180910390fd5b3660008037600080366000845af43d6000803e808015609e573d6000f35b3d6000fd5b60006a636f6e736f6c652e6c6f679050600080835160208501845afa505050565b60ca60cc565b565b634e487b7160e01b600052605160045260246000fdfea264697066735822122035985325926c427124e41921dfc90c144856e644edd47f74437c579560c6979064736f6c634300081400334c69624469616d6f6e644375743a2041646420666163657420686173206e6f20636f64654c69624469616d6f6e644375743a205f696e6974206164647265737320686173206e6f20636f64654c69624469616d6f6e644375743a205265706c61636520666163657420686173206e6f20636f6465a2646970667358221220ce8cf6fb2f303b51a4ff9ee59a638d1d37fab62054ef9156f55476e7d1c4cfdc64736f6c63430008140033",
  "linkReferences": {},
  "deployedLinkReferences": {}
}