{
  "_format": "hh-sol-artifact-1",
  "contractName": "UniswapHooksFactory",
  "sourceName": "contracts/Hooks/HooksFactory.sol",
  "abi": [
    {
      "inputs": [
        {
          "components": [
            {
              "internalType": "address",
              "name": "facetAddress",
              "type": "address"
            },
            {
              "internalType": "enum IDiamond.FacetCutAction",
              "name": "action",
              "type": "uint8"
            },
            {
              "internalType": "bytes4[]",
              "name": "functionSelectors",
              "type": "bytes4[]"
            }
          ],
          "internalType": "struct IDiamond.FacetCut[]",
          "name": "_diamondCut",
          "type": "tuple[]"
        },
        {
          "components": [
            {
              "internalType": "address",
              "name": "owner",
              "type": "address"
            },
            {
              "internalType": "address",
              "name": "init",
              "type": "address"
            },
            {
              "internalType": "bytes",
              "name": "initCalldata",
              "type": "bytes"
            }
          ],
          "internalType": "struct DiamondArgs",
          "name": "_args",
          "type": "tuple"
        },
        {
          "internalType": "bytes32",
          "name": "salt",
          "type": "bytes32"
        }
      ],
      "name": "deploy",
      "outputs": [],
      "stateMutability": "nonpayable",
      "type": "function"
    },
    {
      "inputs": [
        {
          "internalType": "address",
          "name": "owner",
          "type": "address"
        },
        {
          "components": [
            {
              "internalType": "address",
              "name": "facetAddress",
              "type": "address"
            },
            {
              "internalType": "enum IDiamond.FacetCutAction",
              "name": "action",
              "type": "uint8"
            },
            {
              "internalType": "bytes4[]",
              "name": "functionSelectors",
              "type": "bytes4[]"
            }
          ],
          "internalType": "struct IDiamond.FacetCut[]",
          "name": "_diamondCut",
          "type": "tuple[]"
        },
        {
          "components": [
            {
              "internalType": "address",
              "name": "owner",
              "type": "address"
            },
            {
              "internalType": "address",
              "name": "init",
              "type": "address"
            },
            {
              "internalType": "bytes",
              "name": "initCalldata",
              "type": "bytes"
            }
          ],
          "internalType": "struct DiamondArgs",
          "name": "_args",
          "type": "tuple"
        },
        {
          "internalType": "bytes32",
          "name": "salt",
          "type": "bytes32"
        }
      ],
      "name": "getPrecomputedHookAddress",
      "outputs": [
        {
          "internalType": "address",
          "name": "",
          "type": "address"
        }
      ],
      "stateMutability": "view",
      "type": "function"
    },
    {
      "inputs": [
        {
          "internalType": "uint256",
          "name": "",
          "type": "uint256"
        }
      ],
      "name": "hooks",
      "outputs": [
        {
          "internalType": "address",
          "name": "",
          "type": "address"
        }
      ],
      "stateMutability": "view",
      "type": "function"
    }
  ],
  "bytecode": "0x608060405234801561001057600080fd5b506118be806100206000396000f3fe60806040523480156200001157600080fd5b5060043610620000465760003560e01c8063864c17d7146200004b5780638b9d21a5146200007e57806398f068221462000095575b600080fd5b620000626200005c366004620002cc565b620000ae565b6040516001600160a01b03909116815260200160405180910390f35b620000626200008f366004620005e4565b620000d9565b620000ac620000a636600462000668565b620001a0565b005b60008181548110620000bf57600080fd5b6000918252602090912001546001600160a01b0316905081565b60008060405180602001620000ee90620002be565b601f1982820381018352601f9091011660408190526200011590879087906020016200076e565b60408051601f198184030181529082905262000135929160200162000863565b60408051601f1981840301815282825280516020918201206001600160f81b0319828501523060601b6001600160601b031916602185015260358401969096526055808401969096528151808403909601865260759092019052835193019290922095945050505050565b620001d5604051806040016040528060128152602001713232b83637bcb4b733903437b7b5b997171760711b8152506200024e565b6000818484604051620001e890620002be565b620001f59291906200076e565b8190604051809103906000f590508015801562000216573d6000803e3d6000fd5b5081546001810183556000928352602090922090910180546001600160a01b0319166001600160a01b03909216919091179055505050565b620002958160405160240162000265919062000896565b60408051601f198184030181529190526020810180516001600160e01b031663104c13eb60e21b17905262000298565b50565b620002958160006a636f6e736f6c652e6c6f679050600080835160208501845afa505050565b610fd680620008b383390190565b600060208284031215620002df57600080fd5b5035919050565b80356001600160a01b0381168114620002fe57600080fd5b919050565b634e487b7160e01b600052604160045260246000fd5b604051606081016001600160401b03811182821017156200033e576200033e62000303565b60405290565b604051601f8201601f191681016001600160401b03811182821017156200036f576200036f62000303565b604052919050565b60006001600160401b0382111562000393576200039362000303565b5060051b60200190565b600082601f830112620003af57600080fd5b81356020620003c8620003c28362000377565b62000344565b828152600592831b8501820192828201919087851115620003e857600080fd5b8387015b85811015620005085780356001600160401b03808211156200040e5760008081fd5b908901906060828c03601f1901811315620004295760008081fd5b6200043362000319565b62000440898501620002e6565b815260408085013560038110620004575760008081fd5b828b01529184013591838311156200046f5760008081fd5b82850194508d603f8601126200048757600093508384fd5b8985013593506200049c620003c28562000377565b84815293871b85018101938a810193508e851115620004bb5760008081fd5b948101945b84861015620004f35785356001600160e01b031981168114620004e35760008081fd5b8452948a0194928a0192620004c0565b908201528752505050928401928401620003ec565b5090979650505050505050565b6000606082840312156200052857600080fd5b6200053262000319565b90506200053f82620002e6565b8152602062000550818401620002e6565b8282015260408301356001600160401b03808211156200056f57600080fd5b818501915085601f8301126200058457600080fd5b81358181111562000599576200059962000303565b620005ad601f8201601f1916850162000344565b91508082528684828501011115620005c457600080fd5b808484018584013760008482840101525080604085015250505092915050565b60008060008060808587031215620005fb57600080fd5b6200060685620002e6565b935060208501356001600160401b03808211156200062357600080fd5b62000631888389016200039d565b945060408701359150808211156200064857600080fd5b50620006578782880162000515565b949793965093946060013593505050565b6000806000606084860312156200067e57600080fd5b83356001600160401b03808211156200069657600080fd5b620006a4878388016200039d565b94506020860135915080821115620006bb57600080fd5b50620006ca8682870162000515565b925050604084013590509250925092565b60005b83811015620006f8578181015183820152602001620006de565b50506000910152565b600081518084526200071b816020860160208601620006db565b601f01601f19169290920160200192915050565b600060018060a01b038083511684528060208401511660208501525060408201516060604085015262000766606085018262000701565b949350505050565b60006040808301818452808651808352606092508286019150828160051b8701016020808a0160005b848110156200084157898403605f19018652815180516001600160a01b03168552838101518886019060038110620007df57634e487b7160e01b600052602160045260246000fd5b868601529089015189860189905280519182905284019060009060808701905b808310156200082b5783516001600160e01b0319168252928601926001929092019190860190620007ff565b5097850197955050509082019060010162000797565b5050878203908801526200085681896200072f565b9998505050505050505050565b6000835162000877818460208801620006db565b8351908301906200088d818360208801620006db565b01949350505050565b602081526000620008ab602083018462000701565b939250505056fe6080604052604051610fd6380380610fd683398101604081905261002291610a6c565b805161002d9061004d565b61004682826020015183604001516100ad60201b60201c565b5050610e7b565b600061005761025d565b6003810180546001600160a01b038581166001600160a01b031983168117909355604051939450169182907f8be0079c531659141344cd1fd0a4f28419497f9722a3daafe3b4186f6b6457e090600090a3505050565b60005b83518110156102125760008482815181106100cd576100cd610c0d565b602002602001015160400151905060008583815181106100ef576100ef610c0d565b6020026020010151600001519050815160000361012a578060405163e767f91f60e01b81526004016101219190610c23565b60405180910390fd5b600086848151811061013e5761013e610c0d565b60200260200101516020015190506000600281111561015f5761015f610c37565b81600281111561017157610171610c37565b03610185576101808284610281565b6101fc565b600181600281111561019957610199610c37565b036101a857610180828461041f565b60028160028111156101bc576101bc610c37565b036101cb576101808284610591565b8060028111156101dd576101dd610c37565b604051633ff4d20f60e11b815260ff9091166004820152602401610121565b505050808061020a90610c63565b9150506100b0565b507f8faa70878671ccd212d20771b795c50af8fd3ff6cf27f4bde57e5d4de0aeb67383838360405161024693929190610ced565b60405180910390a161025882826107ef565b505050565b7fc8fcad8db84d3cc18b4c41d551ea0ee66dd599cde068d998e57d5e09332c131c90565b6001600160a01b0382166102aa57806040516302b8da0760e21b81526004016101219190610db6565b60006102b461025d565b90506000816001018054905090506102e484604051806060016040528060248152602001610f62602491396108b5565b60005b835181101561041857600084828151811061030457610304610c0d565b6020908102919091018101516001600160e01b031981166000908152918690526040909120549091506001600160a01b03168015610357578160405163ebbf5d0760e01b81526004016101219190610dd0565b6040805180820182526001600160a01b03808a16825261ffff80881660208085019182526001600160e01b0319881660009081528b8252958620945185549251909316600160a01b026001600160b01b0319909216929093169190911717909155600180880180549182018155835291206008820401805460e085901c60046007909416939093026101000a92830263ffffffff90930219169190911790558361040081610de5565b9450505050808061041090610c63565b9150506102e7565b5050505050565b600061042961025d565b90506001600160a01b038316610454578160405163cd98a96f60e01b81526004016101219190610db6565b61047683604051806060016040528060288152602001610fae602891396108b5565b60005b825181101561058b57600083828151811061049657610496610c0d565b6020908102919091018101516001600160e01b031981166000908152918590526040909120549091506001600160a01b03163081036104ea5781604051632901806d60e11b81526004016101219190610dd0565b856001600160a01b0316816001600160a01b03160361051e5781604051631ac6ce8d60e11b81526004016101219190610dd0565b6001600160a01b0381166105475781604051637479f93960e01b81526004016101219190610dd0565b506001600160e01b031916600090815260208390526040902080546001600160a01b0319166001600160a01b0386161790558061058381610c63565b915050610479565b50505050565b600061059b61025d565b60018101549091506001600160a01b038416156105cd578360405163d091bc8160e01b81526004016101219190610c23565b60005b83518110156104185760008482815181106105ed576105ed610c0d565b6020908102919091018101516001600160e01b0319811660009081528683526040908190208151808301909252546001600160a01b038116808352600160a01b90910461ffff16938201939093529092509061065e5781604051637a08a22d60e01b81526004016101219190610dd0565b8051306001600160a01b039091160361068c5781604051630df5fd6160e31b81526004016101219190610dd0565b8361069681610e06565b94505083816020015161ffff16146107745760008560010185815481106106bf576106bf610c0d565b90600052602060002090600891828204019190066004029054906101000a900460e01b90508086600101836020015161ffff168154811061070257610702610c0d565b600091825260208083206008830401805463ffffffff60079094166004026101000a938402191660e09590951c92909202939093179055838201516001600160e01b03199390931681529087905260409020805461ffff60a01b1916600160a01b61ffff909316929092029190911790555b8460010180548061078757610787610e1d565b60008281526020808220600860001990940193840401805463ffffffff600460078716026101000a0219169055919092556001600160e01b0319909316815291859052506040902080546001600160b01b0319169055806107e781610c63565b9150506105d0565b6001600160a01b038216610801575050565b61082382604051806060016040528060288152602001610f86602891396108b5565b600080836001600160a01b03168360405161083e9190610e33565b600060405180830381855af49150503d8060008114610879576040519150601f19603f3d011682016040523d82523d6000602084013e61087e565b606091505b50915091508161058b578051156108985780518082602001fd5b838360405163192105d760e01b8152600401610121929190610e4f565b813b600081900361025857828260405163919834b960e01b8152600401610121929190610e4f565b634e487b7160e01b600052604160045260246000fd5b604051606081016001600160401b0381118282101715610915576109156108dd565b60405290565b604051601f8201601f191681016001600160401b0381118282101715610943576109436108dd565b604052919050565b60006001600160401b03821115610964576109646108dd565b5060051b60200190565b80516001600160a01b038116811461098557600080fd5b919050565b60005b838110156109a557818101518382015260200161098d565b50506000910152565b6000606082840312156109c057600080fd5b6109c86108f3565b90506109d38261096e565b815260206109e281840161096e565b8282015260408301516001600160401b0380821115610a0057600080fd5b818501915085601f830112610a1457600080fd5b815181811115610a2657610a266108dd565b610a38601f8201601f1916850161091b565b91508082528684828501011115610a4e57600080fd5b610a5d8185840186860161098a565b50604084015250909392505050565b60008060408385031215610a7f57600080fd5b82516001600160401b0380821115610a9657600080fd5b818501915085601f830112610aaa57600080fd5b81516020610abf610aba8361094b565b61091b565b82815260059290921b84018101918181019089841115610ade57600080fd5b8286015b84811015610bdc57805186811115610af957600080fd5b87016060818d03601f19011215610b0f57600080fd5b610b176108f3565b610b2286830161096e565b8152604082015160038110610b3657600080fd5b81870152606082015188811115610b4c57600080fd5b8083019250508c603f830112610b6157600080fd5b85820151610b71610aba8261094b565b81815260059190911b830160400190878101908f831115610b9157600080fd5b6040850194505b82851015610bc75784516001600160e01b031981168114610bb857600080fd5b82529388019390880190610b98565b60408401525050845250918301918301610ae2565b5091880151919650909350505080821115610bf657600080fd5b50610c03858286016109ae565b9150509250929050565b634e487b7160e01b600052603260045260246000fd5b6001600160a01b0391909116815260200190565b634e487b7160e01b600052602160045260246000fd5b634e487b7160e01b600052601160045260246000fd5b600060018201610c7557610c75610c4d565b5060010190565b600081518084526020808501945080840160005b83811015610cb65781516001600160e01b03191687529582019590820190600101610c90565b509495945050505050565b60008151808452610cd981602086016020860161098a565b601f01601f19169290920160200192915050565b6000606080830181845280875180835260808601915060808160051b87010192506020808a016000805b84811015610d8657898703607f19018652825180516001600160a01b031688528481015160038110610d5757634e487b7160e01b84526021600452602484fd5b88860152604090810151908801899052610d7389890182610c7c565b9750509483019491830191600101610d17565b5050506001600160a01b0389169087015250508381036040850152610dab8186610cc1565b979650505050505050565b602081526000610dc96020830184610c7c565b9392505050565b6001600160e01b031991909116815260200190565b600061ffff808316818103610dfc57610dfc610c4d565b6001019392505050565b600081610e1557610e15610c4d565b506000190190565b634e487b7160e01b600052603160045260246000fd5b60008251610e4581846020870161098a565b9190910192915050565b6001600160a01b0383168152604060208201819052600090610e7390830184610cc1565b949350505050565b60d980610e896000396000f3fe608060405236600a57005b600080356001600160e01b03191681527fc8fcad8db84d3cc18b4c41d551ea0ee66dd599cde068d998e57d5e09332c131c602081905260409091205481906001600160a01b031680608057604051630a82dd7360e31b81526001600160e01b031960003516600482015260240160405180910390fd5b3660008037600080366000845af43d6000803e808015609e573d6000f35b3d6000fdfea26469706673582212200a05766a38d3343cacdff25f1f5d1cd861989bcb4c7903133bfb6174c1f1c18864736f6c634300081400334c69624469616d6f6e644375743a2041646420666163657420686173206e6f20636f64654c69624469616d6f6e644375743a205f696e6974206164647265737320686173206e6f20636f64654c69624469616d6f6e644375743a205265706c61636520666163657420686173206e6f20636f6465a26469706673582212205d43b87770665baaa00b2457091ed0a8d3449049e808d759ff5463dfa75d1a2c64736f6c63430008140033",
  "linkReferences": {},
  "deployedLinkReferences": {}
}