{
  "_format": "hh-sol-artifact-1",
  "contractName": "UMAFacet",
  "sourceName": "contracts/Facets/UMAFacet.sol",
  "abi": [
    {
      "inputs": [
        {
          "internalType": "bytes32",
          "name": "dataId",
          "type": "bytes32"
        },
        {
          "internalType": "bytes32",
          "name": "data",
          "type": "bytes32"
        },
        {
          "internalType": "address",
          "name": "asserter",
          "type": "address"
        }
      ],
      "name": "assertDataFor",
      "outputs": [
        {
          "internalType": "bytes32",
          "name": "assertionId",
          "type": "bytes32"
        }
      ],
      "stateMutability": "nonpayable",
      "type": "function"
    },
    {
      "inputs": [
        {
          "internalType": "bytes32",
          "name": "assertionId",
          "type": "bytes32"
        }
      ],
      "name": "assertionDisputedCallback",
      "outputs": [],
      "stateMutability": "nonpayable",
      "type": "function"
    },
    {
      "inputs": [
        {
          "internalType": "bytes32",
          "name": "assertionId",
          "type": "bytes32"
        },
        {
          "internalType": "bool",
          "name": "assertedTruthfully",
          "type": "bool"
        }
      ],
      "name": "assertionResolvedCallback",
      "outputs": [],
      "stateMutability": "nonpayable",
      "type": "function"
    },
    {
      "inputs": [
        {
          "internalType": "uint256",
          "name": "index",
          "type": "uint256"
        }
      ],
      "name": "getAssertionID",
      "outputs": [
        {
          "internalType": "bytes32",
          "name": "",
          "type": "bytes32"
        }
      ],
      "stateMutability": "view",
      "type": "function"
    },
    {
      "inputs": [
        {
          "internalType": "bytes32",
          "name": "assertionId",
          "type": "bytes32"
        }
      ],
      "name": "getData",
      "outputs": [
        {
          "internalType": "bool",
          "name": "",
          "type": "bool"
        },
        {
          "internalType": "bytes32",
          "name": "",
          "type": "bytes32"
        }
      ],
      "stateMutability": "view",
      "type": "function"
    },
    {
      "inputs": [
        {
          "internalType": "address",
          "name": "token",
          "type": "address"
        }
      ],
      "name": "setCurrency",
      "outputs": [],
      "stateMutability": "nonpayable",
      "type": "function"
    },
    {
      "inputs": [
        {
          "internalType": "address",
          "name": "optimisticAddress",
          "type": "address"
        }
      ],
      "name": "setOOV3",
      "outputs": [],
      "stateMutability": "nonpayable",
      "type": "function"
    },
    {
      "inputs": [
        {
          "internalType": "bytes32",
          "name": "assertionID",
          "type": "bytes32"
        }
      ],
      "name": "settleAndGetAssertionResult",
      "outputs": [
        {
          "internalType": "bool",
          "name": "",
          "type": "bool"
        }
      ],
      "stateMutability": "nonpayable",
      "type": "function"
    }
  ],
  "bytecode": "0x608060405234801561001057600080fd5b5061121e806100206000396000f3fe608060405234801561001057600080fd5b50600436106100785760003560e01c80632939544e1461007d5780632f84c3911461009257806354f6127f146100a5578063894a2010146100d45780638ea2f2ab146100f557806393ee663b14610118578063d448a4ec1461012b578063f1b156b21461013c575b600080fd5b61009061008b366004610dfd565b61014f565b005b6100906100a0366004610dfd565b610158565b6100b86100b3366004610e1f565b610161565b6040805192151583526020830191909152015b60405180910390f35b6100e76100e2366004610e1f565b610176565b6040519081526020016100cb565b610108610103366004610e1f565b610187565b60405190151581526020016100cb565b6100e7610126366004610e38565b610192565b610090610139366004610e1f565b50565b61009061014a366004610e7b565b6101a7565b610139816101b5565b61013981610247565b60008061016d83610276565b91509150915091565b6000610181826102d0565b92915050565b600061018182610305565b600061019f8484846103dd565b949350505050565b6101b18282610629565b5050565b60006101bf6106ee565b80546001600160a01b0319166001600160a01b03841690811782556040805163d509b01760e01b81529051929350909163d509b017916004808201926020929091908290030181865afa15801561021a573d6000803e3d6000fd5b505050506040513d601f19601f8201168201806040525081019061023e9190610eab565b60039091015550565b60006102516106ee565b60040180546001600160a01b0319166001600160a01b03939093169290921790915550565b60008060006102836106ee565b6000858152600182016020526040902060020154909150600160a01b900460ff166102b45750600093849350915050565b6000938452600190810160205260409093208301549293915050565b6000806102db6106ee565b90508060020183815481106102f2576102f2610ec4565b9060005260206000200154915050919050565b6000806103106106ee565b6000848152600182016020526040902060020154909150600160a01b900460ff166103d4578054604051638ea2f2ab60e01b8152600481018590526000916001600160a01b031690638ea2f2ab906024016020604051808303816000875af1158015610380573d6000803e3d6000fd5b505050506040513d601f19601f820116820180604052508101906103a49190610eda565b6000948552600192909201602052506040909220600201805460ff60a01b1916600160a01b841515021790555090565b50600192915050565b6000806103e86106ee565b90506001600160a01b038316156103ff5782610401565b335b8154600480840154604051634360af3d60e01b81526001600160a01b039182169281019290925292955060009290911690634360af3d90602401602060405180830381865afa158015610458573d6000803e3d6000fd5b505050506040513d601f19601f8201168201806040525081019061047c9190610eab565b6004830154909150610499906001600160a01b0316333084610712565b600482015482546104b7916001600160a01b03908116911683610783565b81546001600160a01b0316636457c9796104d08761089d565b6104d98961089d565b6104e2886108de565b6104eb42610930565b6104f4306108de565b604051602001610508959493929190610f37565b60408051601f198184030181529082905260048087015460038801546001600160e01b031960e087901b168552610559948b933093600093603c936001600160a01b03909216928c9286910161108c565b6020604051808303816000875af1158015610578573d6000803e3d6000fd5b505050506040513d601f19601f8201168201806040525081019061059c9190610eab565b6040805160808101825297885260208089019788526001600160a01b03968716898301908152600060608b01818152858252600188810185529482209b518c5599518b850155905160029a8b0180549a511515600160a01b026001600160a81b0319909b169190991617989098179096559690920180549687018155855250919092209092018290555090565b60006106336106ee565b80549091506001600160a01b0316331461064c57600080fd5b81156106bc5760008381526001828101602090815260409283902060028101805460ff60a01b198116600160a01b908117928390558651608081018852845481529390950154938301939093526001600160a01b03909216938101939093520460ff161515606090910152505050565b60008381526001808301602052604082208281559081019190915560020180546001600160a81b03191690555b505050565b7f16649c8924f5903fda94e8001436d5b66bc9e9a70208d5245edfc147a57b508690565b6040516001600160a01b038085166024830152831660448201526064810182905261077d9085906323b872dd60e01b906084015b60408051601f198184030181529190526020810180516001600160e01b03166001600160e01b031990931692909217909152610a5b565b50505050565b8015806107fd5750604051636eb1769f60e11b81523060048201526001600160a01b03838116602483015284169063dd62ed3e90604401602060405180830381865afa1580156107d7573d6000803e3d6000fd5b505050506040513d601f19601f820116820180604052508101906107fb9190610eab565b155b61086d5760405162461bcd60e51b815260206004820152603660248201527f5361666545524332303a20617070726f76652066726f6d206e6f6e2d7a65726f60448201527520746f206e6f6e2d7a65726f20616c6c6f77616e636560501b60648201526084015b60405180910390fd5b6040516001600160a01b0383166024820152604481018290526106e990849063095ea7b360e01b90606401610746565b60606108ac608083901c610b30565b6108b583610b30565b6040805160208101939093528201526060015b6040516020818303038152906040529050919050565b60606108f66001600160801b03602084901c16610b30565b61090c8360601b6001600160601b031916610b30565b6040516020016108c89291909182526001600160c01b031916602082015260280190565b6060816000036109575750506040805180820190915260018152600360fc1b602082015290565b8160005b8115610981578061096b8161110f565b915061097a9050600a8361113e565b915061095b565b6000816001600160401b0381111561099b5761099b611160565b6040519080825280601f01601f1916602001820160405280156109c5576020820181803683370190505b509050815b8515610a52576109db600182611176565b905060006109ea600a8861113e565b6109f590600a611189565b6109ff9088611176565b610a0a9060306111a0565b905060008160f81b905080848481518110610a2757610a27610ec4565b60200101906001600160f81b031916908160001a905350610a49600a8961113e565b975050506109ca565b50949350505050565b6000610ab0826040518060400160405280602081526020017f5361666545524332303a206c6f772d6c6576656c2063616c6c206661696c6564815250856001600160a01b0316610cbe9092919063ffffffff16565b9050805160001480610ad1575080806020019051810190610ad19190610eda565b6106e95760405162461bcd60e51b815260206004820152602a60248201527f5361666545524332303a204552433230206f7065726174696f6e20646964206e6044820152691bdd081cdd58d8d9595960b21b6064820152608401610864565b6000808260001c9050806001600160801b0316905080600160401b0281176001600160401b03600160801b03600160c01b0316905080600160201b0281177bffffffff00000000ffffffff00000000ffffffff00000000ffffffff16905080620100000281177dffff0000ffff0000ffff0000ffff0000ffff0000ffff0000ffff0000ffff169050806101000281177eff00ff00ff00ff00ff00ff00ff00ff00ff00ff00ff00ff00ff00ff00ff00ff1690508060100281177f0f0f0f0f0f0f0f0f0f0f0f0f0f0f0f0f0f0f0f0f0f0f0f0f0f0f0f0f0f0f0f0f16905060006008827f08080808080808080808080808080808080808080808080808080808080808081681610c4057610c40611128565b0460047f040404040404040404040404040404040404040404040404040404040404040484160460027f020202020202020202020202020202020202020202020202020202020202020285160417166027029091017f3030303030303030303030303030303030303030303030303030303030303030019392505050565b606061019f848460008585600080866001600160a01b03168587604051610ce591906111b9565b60006040518083038185875af1925050503d8060008114610d22576040519150601f19603f3d011682016040523d82523d6000602084013e610d27565b606091505b5091509150610d3887838387610d43565b979650505050505050565b60608315610db2578251600003610dab576001600160a01b0385163b610dab5760405162461bcd60e51b815260206004820152601d60248201527f416464726573733a2063616c6c20746f206e6f6e2d636f6e74726163740000006044820152606401610864565b508161019f565b61019f8383815115610dc75781518083602001fd5b8060405162461bcd60e51b815260040161086491906111d5565b80356001600160a01b0381168114610df857600080fd5b919050565b600060208284031215610e0f57600080fd5b610e1882610de1565b9392505050565b600060208284031215610e3157600080fd5b5035919050565b600080600060608486031215610e4d57600080fd5b8335925060208401359150610e6460408501610de1565b90509250925092565b801515811461013957600080fd5b60008060408385031215610e8e57600080fd5b823591506020830135610ea081610e6d565b809150509250929050565b600060208284031215610ebd57600080fd5b5051919050565b634e487b7160e01b600052603260045260246000fd5b600060208284031215610eec57600080fd5b8151610e1881610e6d565b60005b83811015610f12578181015183820152602001610efa565b50506000910152565b60008151610f2d818560208601610ef7565b9290920192915050565b70088c2e8c240c2e6e6cae4e8cac8744060f607b1b8152600086516020610f648260118601838c01610ef7565b6e040ccdee440c8c2e8c292c8744060f608b1b6011928501928301528751610f9181838501848c01610ef7565b70040c2dcc840c2e6e6cae4e8cae4744060f607b1b9201818101929092528651610fc181603185018a8501610ef7565b6011818401019250506e01030ba103a34b6b2b9ba30b6b81d1608d1b818301528551610ff381602f8501848a01610ef7565b600f818401019250507f20696e207468652044617461417373657274657220636f6e747261637420617481830152506204060f60eb1b604082015261105461103e6043830186610f1b565b691034b9903b30b634b21760b11b8152600a0190565b98975050505050505050565b60008151808452611078816020860160208601610ef7565b601f01601f19169290920160200192915050565b60006101208083526110a08184018d611060565b6001600160a01b039b8c166020850152998b166040840152505095881660608701526001600160401b039490941660808601529190951660a084015260c083019490945260e08201939093526101000191909152919050565b634e487b7160e01b600052601160045260246000fd5b600060018201611121576111216110f9565b5060010190565b634e487b7160e01b600052601260045260246000fd5b60008261115b57634e487b7160e01b600052601260045260246000fd5b500490565b634e487b7160e01b600052604160045260246000fd5b81810381811115610181576101816110f9565b8082028115828204841417610181576101816110f9565b60ff8181168382160190811115610181576101816110f9565b600082516111cb818460208701610ef7565b9190910192915050565b602081526000610e18602083018461106056fea264697066735822122055860ac92864f0ef8a07c755b552bdc9666ebc4a606740e8d1587d8ac4a660c164736f6c63430008140033",
  "linkReferences": {},
  "deployedLinkReferences": {}
}