{
  "_format": "hh-sol-artifact-1",
  "contractName": "UMALib",
  "sourceName": "contracts/Facets/UMAFacet.sol",
  "abi": [
    {
      "inputs": [],
      "name": "assertionLiveness",
      "outputs": [
        {
          "internalType": "uint64",
          "name": "",
          "type": "uint64"
        }
      ],
      "stateMutability": "view",
      "type": "function"
    }
  ],
  "bytecode": "0x6091610038600b82828239805160001a607314602b57634e487b7160e01b600052600060045260246000fd5b30600052607381538281f3fe730000000000000000000000000000000000000000301460806040526004361060335760003560e01c8063b75d4e24146038575b600080fd5b603f603c81565b6040516001600160401b03909116815260200160405180910390f3fea2646970667358221220f856f033cf2fe143ab69cd186188718e5808716d91db03b46a2c3ca86edd945f64736f6c63430008140033",
  "linkReferences": {},
  "deployedLinkReferences": {}
}