{
  "_format": "hh-sol-artifact-1",
  "contractName": "UniswapFacet",
  "sourceName": "contracts/Facets/UniswapFacet.sol",
  "abi": [
    {
      "inputs": [
        {
          "internalType": "bytes",
          "name": "data",
          "type": "bytes"
        }
      ],
      "name": "lockAcquired",
      "outputs": [
        {
          "internalType": "int128",
          "name": "",
          "type": "int128"
        },
        {
          "internalType": "int128",
          "name": "",
          "type": "int128"
        }
      ],
      "stateMutability": "nonpayable",
      "type": "function"
    }
  ],
  "bytecode": "0x608060405234801561001057600080fd5b50610bcd806100206000396000f3fe608060405234801561001057600080fd5b506004361061002b5760003560e01c8063ab6291fe14610030575b600080fd5b61004361003e3660046107cf565b610061565b60408051600f93840b81529190920b60208201520160405180910390f35b60008061006e8484610079565b915091509250929050565b6000808080808061008c8789018961089c565b9296509094509250905060008260018111156100aa576100aa610977565b036100c3576100b9838261018e565b90965094506100d0565b6100cd8382610276565b50505b82516040516370a0823160e01b815261014b919086906001600160a01b038316906370a082319061010590309060040161098d565b602060405180830381865afa158015610122573d6000803e3d6000fd5b505050506040513d601f19601f8201168201806040525081019061014691906109a1565b61031f565b60208301516040516370a0823160e01b8152610183919086906001600160a01b038316906370a082319061010590309060040161098d565b505050509250929050565b60008060008061019c610376565b80546000878152600183016020526040908190209051633cf3645360e21b81529293506001600160a01b039091169163f3cd914c916101e0918a9190600401610a12565b6020604051808303816000875af11580156101ff573d6000803e3d6000fd5b505050506040513d601f19601f8201168201806040525081019061022391906109a1565b600382018054919350600061023783610a7c565b909155505085516102519061024c8460801c90565b61039a565b610260866020015161024c8490565b61026a8260801c90565b96919550909350505050565b600080600080610284610376565b805460008781526002830160205260409081902090516330d7224d60e11b81529293506001600160a01b03909116916361ae449a916102c8918a9190600401610a95565b6020604051808303816000875af11580156102e7573d6000803e3d6000fd5b505050506040513d601f19601f8201168201806040525081019061030b91906109a1565b600482018054919350600061023783610a7c565b604080516001600160a01b038416602482015260448082018490528251808303909101815260649091019091526020810180516001600160e01b031663a9059cbb60e01b179052610371908490610565565b505050565b7fe5fae1d1655caf6698b8b944506b14651a3f414f8a67caa7b6a42e32816e934090565b60006103a4610376565b9050600082600f0b12156104425780546001600160a01b0316630b0d9c0984306103cd86610ad8565b6040516001600160e01b031960e086901b1681526001600160a01b0393841660048201529290911660248301526001600160801b03166044820152606401600060405180830381600087803b15801561042557600080fd5b505af1158015610439573d6000803e3d6000fd5b50505050505050565b6001600160a01b0383166104d3578054604051636a256b2960e01b81526001600160a01b0390911690636a256b29906001600160801b0385169061048a90879060040161098d565b60206040518083038185885af11580156104a8573d6000803e3d6000fd5b50505050506040513d601f19601f820116820180604052508101906104cd91906109a1565b50505050565b80546104f39084906001600160a01b03166001600160801b03851661031f565b8054604051636a256b2960e01b81526001600160a01b0390911690636a256b299061052290869060040161098d565b6020604051808303816000875af1158015610541573d6000803e3d6000fd5b505050506040513d601f19601f820116820180604052508101906104cd91906109a1565b60006105ba826040518060400160405280602081526020017f5361666545524332303a206c6f772d6c6576656c2063616c6c206661696c6564815250856001600160a01b031661063f9092919063ffffffff16565b90508051600014806105db5750808060200190518101906105db9190610afb565b6103715760405162461bcd60e51b815260206004820152602a60248201527f5361666545524332303a204552433230206f7065726174696f6e20646964206e6044820152691bdd081cdd58d8d9595960b21b60648201526084015b60405180910390fd5b606061064e8484600085610656565b949350505050565b6060824710156106b75760405162461bcd60e51b815260206004820152602660248201527f416464726573733a20696e73756666696369656e742062616c616e636520666f6044820152651c8818d85b1b60d21b6064820152608401610636565b600080866001600160a01b031685876040516106d39190610b48565b60006040518083038185875af1925050503d8060008114610710576040519150601f19603f3d011682016040523d82523d6000602084013e610715565b606091505b509150915061072687838387610731565b979650505050505050565b606083156107a0578251600003610799576001600160a01b0385163b6107995760405162461bcd60e51b815260206004820152601d60248201527f416464726573733a2063616c6c20746f206e6f6e2d636f6e74726163740000006044820152606401610636565b508161064e565b61064e83838151156107b55781518083602001fd5b8060405162461bcd60e51b81526004016106369190610b64565b600080602083850312156107e257600080fd5b82356001600160401b03808211156107f957600080fd5b818501915085601f83011261080d57600080fd5b81358181111561081c57600080fd5b86602082850101111561082e57600080fd5b60209290920196919550909350505050565b6001600160a01b038116811461085557600080fd5b50565b803561086381610840565b919050565b803562ffffff8116811461086357600080fd5b8035600281900b811461086357600080fd5b80356002811061086357600080fd5b6000806000808486036101008112156108b457600080fd5b85356108bf81610840565b945060a0601f19820112156108d357600080fd5b5060405160a081016001600160401b038111828210171561090457634e487b7160e01b600052604160045260246000fd5b60405261091360208701610858565b815261092160408701610858565b602082015261093260608701610868565b60408201526109436080870161087b565b606082015261095460a08701610858565b6080820152925061096760c0860161088d565b9396929550929360e00135925050565b634e487b7160e01b600052602160045260246000fd5b6001600160a01b0391909116815260200190565b6000602082840312156109b357600080fd5b5051919050565b80516001600160a01b03908116835260208083015182169084015260408083015162ffffff169084015260608083015160020b9084015260809182015116910152565b6002815261060f60f31b602082015260400190565b6000610120610a2183866109ba565b835460ff16151560a0840152600184015460c084015260028401546001600160a01b031660e08401526101008301819052610a5d8184016109fd565b95945050505050565b634e487b7160e01b600052601160045260246000fd5b600060018201610a8e57610a8e610a66565b5060010190565b6000610120610aa483866109ba565b83548060020b60a08501528060181c60020b60c085015250600184015460e084015280610100840152610a5d8184016109fd565b6000600f82900b6001607f1b8101610af257610af2610a66565b60000392915050565b600060208284031215610b0d57600080fd5b81518015158114610b1d57600080fd5b9392505050565b60005b83811015610b3f578181015183820152602001610b27565b50506000910152565b60008251610b5a818460208701610b24565b9190910192915050565b6020815260008251806020840152610b83816040850160208701610b24565b601f01601f1916919091016040019291505056fea2646970667358221220f33489817f3f9db11c5d1b5b85c29f4ab2c3c512116b1cfbcca32d542350455564736f6c63430008140033",
  "linkReferences": {},
  "deployedLinkReferences": {}
}