{
  "_format": "hh-sol-artifact-1",
  "contractName": "UniswapFacet",
  "sourceName": "contracts/Facets/UniswapFacet.sol",
  "abi": [
    {
      "inputs": [],
      "name": "InvalidTick",
      "type": "error"
    },
    {
      "inputs": [
        {
          "internalType": "address",
          "name": "token0",
          "type": "address"
        },
        {
          "internalType": "address",
          "name": "token1",
          "type": "address"
        },
        {
          "internalType": "int24",
          "name": "tickLower",
          "type": "int24"
        },
        {
          "internalType": "int24",
          "name": "tickUpper",
          "type": "int24"
        },
        {
          "internalType": "uint256",
          "name": "token0Amount",
          "type": "uint256"
        },
        {
          "internalType": "uint256",
          "name": "token1Amount",
          "type": "uint256"
        }
      ],
      "name": "addLiquidty",
      "outputs": [
        {
          "internalType": "int256",
          "name": "token0Used",
          "type": "int256"
        },
        {
          "internalType": "int256",
          "name": "token1Used",
          "type": "int256"
        }
      ],
      "stateMutability": "nonpayable",
      "type": "function"
    },
    {
      "inputs": [
        {
          "internalType": "address",
          "name": "token0",
          "type": "address"
        },
        {
          "internalType": "address",
          "name": "token1",
          "type": "address"
        },
        {
          "internalType": "int24",
          "name": "lowerBound",
          "type": "int24"
        },
        {
          "internalType": "int24",
          "name": "upperBound",
          "type": "int24"
        }
      ],
      "name": "closePosition",
      "outputs": [
        {
          "internalType": "int256",
          "name": "token0Amount",
          "type": "int256"
        },
        {
          "internalType": "int256",
          "name": "token1Amount",
          "type": "int256"
        }
      ],
      "stateMutability": "nonpayable",
      "type": "function"
    },
    {
      "inputs": [
        {
          "internalType": "address",
          "name": "token0",
          "type": "address"
        },
        {
          "internalType": "address",
          "name": "token1",
          "type": "address"
        }
      ],
      "name": "getPoolLiquidity",
      "outputs": [
        {
          "internalType": "uint128",
          "name": "",
          "type": "uint128"
        }
      ],
      "stateMutability": "view",
      "type": "function"
    },
    {
      "inputs": [
        {
          "internalType": "int24",
          "name": "tick",
          "type": "int24"
        }
      ],
      "name": "getSqrtAtTick",
      "outputs": [
        {
          "internalType": "uint160",
          "name": "",
          "type": "uint160"
        }
      ],
      "stateMutability": "pure",
      "type": "function"
    },
    {
      "inputs": [
        {
          "internalType": "address",
          "name": "token0",
          "type": "address"
        },
        {
          "internalType": "address",
          "name": "token1",
          "type": "address"
        },
        {
          "internalType": "uint160",
          "name": "poolStartPrice",
          "type": "uint160"
        },
        {
          "internalType": "address",
          "name": "hook",
          "type": "address"
        },
        {
          "internalType": "bytes",
          "name": "hookData",
          "type": "bytes"
        }
      ],
      "name": "initializePool",
      "outputs": [],
      "stateMutability": "nonpayable",
      "type": "function"
    },
    {
      "inputs": [
        {
          "internalType": "bytes",
          "name": "data",
          "type": "bytes"
        }
      ],
      "name": "lockAcquired",
      "outputs": [
        {
          "internalType": "bytes",
          "name": "",
          "type": "bytes"
        }
      ],
      "stateMutability": "nonpayable",
      "type": "function"
    },
    {
      "inputs": [
        {
          "internalType": "address",
          "name": "token0",
          "type": "address"
        },
        {
          "internalType": "address",
          "name": "token1",
          "type": "address"
        },
        {
          "internalType": "int24",
          "name": "lowerBound",
          "type": "int24"
        },
        {
          "internalType": "int24",
          "name": "upperBound",
          "type": "int24"
        },
        {
          "internalType": "int24",
          "name": "newlowerBound",
          "type": "int24"
        },
        {
          "internalType": "int24",
          "name": "newUpperBound",
          "type": "int24"
        }
      ],
      "name": "modifyPosition",
      "outputs": [],
      "stateMutability": "nonpayable",
      "type": "function"
    },
    {
      "inputs": [],
      "name": "returnBounds",
      "outputs": [
        {
          "internalType": "uint256",
          "name": "lower",
          "type": "uint256"
        },
        {
          "internalType": "uint256",
          "name": "upper",
          "type": "uint256"
        }
      ],
      "stateMutability": "view",
      "type": "function"
    },
    {
      "inputs": [],
      "name": "returnBoundsTicks",
      "outputs": [
        {
          "internalType": "int24",
          "name": "lower",
          "type": "int24"
        },
        {
          "internalType": "int24",
          "name": "upper",
          "type": "int24"
        }
      ],
      "stateMutability": "view",
      "type": "function"
    },
    {
      "inputs": [
        {
          "internalType": "address",
          "name": "managerAddy",
          "type": "address"
        }
      ],
      "name": "setPoolManager",
      "outputs": [],
      "stateMutability": "nonpayable",
      "type": "function"
    },
    {
      "inputs": [
        {
          "internalType": "address",
          "name": "tokenFrom",
          "type": "address"
        },
        {
          "internalType": "address",
          "name": "tokenTo",
          "type": "address"
        },
        {
          "internalType": "int256",
          "name": "amount",
          "type": "int256"
        }
      ],
      "name": "swap",
      "outputs": [
        {
          "internalType": "int256",
          "name": "token0Amount",
          "type": "int256"
        },
        {
          "internalType": "int256",
          "name": "token1Amount",
          "type": "int256"
        },
        {
          "internalType": "bool",
          "name": "zeroForOne",
          "type": "bool"
        }
      ],
      "stateMutability": "nonpayable",
      "type": "function"
    }
  ],
  "bytecode": "0x608060405234801561001057600080fd5b50613867806100206000396000f3fe608060405234801561001057600080fd5b50600436106100995760003560e01c80630d0ab9991461009e5780631ff0c325146100c557806343879b14146100f55780635f7acbdc1461010a578063616c1cc31461011d5780637aef671514610145578063ab6291fe14610158578063afe7f5a114610178578063b4becbed14610180578063b82197ed146101a0578063bee000ce146101b3575b600080fd5b6100a66101de565b60408051600293840b81529190920b6020820152015b60405180910390f35b6100d86100d3366004612e78565b6101f1565b6040805193845260208401929092521515908201526060016100bc565b610108610103366004612ec8565b610210565b005b610108610118366004612f8b565b610226565b61013061012b366004613018565b610234565b604080519283526020830191909152016100bc565b610108610153366004613086565b610256565b61016b6101663660046130a3565b610262565b6040516100bc9190613134565b610130610277565b61019361018e366004613147565b610282565b6040516100bc9190613164565b6101306101ae366004613178565b61028d565b6101c66101c13660046131d4565b6102ae565b6040516001600160801b0390911681526020016100bc565b6000806101e96102ba565b915091509091565b6000806000610201868686610347565b92509250925093509350939050565b61021e868686868686610562565b505050505050565b61021e868686868686610662565b60008061024788888888888860006107b5565b91509150965096945050505050565b61025f81610ca9565b50565b606061026e8383610cd5565b90505b92915050565b6000806101e9610ead565b600061027182610f5f565b60008061029c86868686610f6a565b600f91820b98910b9650945050505050565b600061026e83836111e3565b60008060006102c76112fd565b30600090815260068201602052604081208054929350916102ea576102ea61320d565b600091825260208083206004909202909101543083526006840190915260408220805460029290920b9290916103225761032261320d565b60009182526020909120600490910201549094630100000090910460020b9350915050565b6000806000806103556112fd565b905060008060006103668a8a611321565b6001600160a01b038083166000908152600789016020908152604080832084861684528252808320815160a08101835281548616815260018201548087168286015262ffffff600160a01b82041682850152600160b81b9004600290810b60608084019190915292015490951660808601528151908101825287151581529182018f9052959850939650919450929091908101866104225761041d600173fffd8963efd1fc6a506488495d951d5263988d26613239565b610432565b6104326401000276a36001613260565b6001600160a01b0390811690915260048801805460009081526001808b01602090815260408084208751815460ff1916901515178155878301519381019390935586810151600290930180546001600160a01b031916938716939093179092558b5493549151959650919492909316926381548319926104b892339289928892016132d9565b6040516020818303038152906040526040518263ffffffff1660e01b81526004016104e39190613134565b6000604051808303816000875af1158015610502573d6000803e3d6000fd5b505050506040513d6000823e601f3d908101601f1916820160405261052a9190810190613365565b9050600080828060200190518101906105439190613418565b600f91820b9d50900b9a50969850505050505050505093509350939050565b610599604051806040016040528060168152602001752837b9b4ba34b7b71026b7b234b334b1b0ba34b7b71d60511b81525061135f565b6105e26040518060400160405280600b81526020016a27b632102137bab732399d60a91b815250856105ca9061344b565b62ffffff166105d88661344b565b62ffffff166113a2565b6106216040518060400160405280600b81526020016a2732bb902137bab732399d60a91b815250836106139061344b565b62ffffff166105d88461344b565b60008061063088888888610f6a565b9150915061065688888686866001600160801b0316866001600160801b031660016107b5565b50505050505050505050565b600061066c6112fd565b6040805160a0810182526001600160a01b038a81168083528a82166020808501828152610bb8868801908152603c606088019081528d871660808901908152600096875260078b0185528987209587529490935293879020865181549087166001600160a01b031991821617825591516001820180549651945162ffffff908116600160b81b0262ffffff60b81b1991909616600160a01b026001600160b81b031990981692891692909217969096171692909217909355905160029091018054918416919092161790558354925163695c5bf560e01b8152939450909291169063695c5bf5906107679084908a908990899060040161346d565b6020604051808303816000875af1158015610786573d6000803e3d6000fd5b505050506040513d601f19601f820116820180604052508101906107aa91906134be565b505050505050505050565b60008060006107c26112fd565b90506107d08a8a88886113ee565b6001600160a01b038085166000908152600787016020908152604080832084881684528252808320815160a08101835281548616815260018201548087169482019490945262ffffff600160a01b85041692810192909252600160b81b909204600290810b6060830152909101549092166080830152949e50929c5090985096509061085b82611435565b905061088660405180604001604052806006815260200165414444494e4760d01b8152508d8d611465565b851561098e576040518060a001604052808b60020b81526020018a60020b81526020018281526020018d6001600160a01b031681526020018c6001600160a01b0316815250836006016000306001600160a01b03166001600160a01b031681526020019081526020016000206000815481106109045761090461320d565b6000918252602091829020835160049092020180549284015162ffffff90811663010000000265ffffffffffff199094169216919091179190911781556040820151600182015560608201516002820180546001600160a01b039283166001600160a01b031991821617909155608090930151600390920180549290911691909216179055610ad4565b826006016000306001600160a01b03166001600160a01b031681526020019081526020016000206040518060a001604052808c60020b81526020018b60020b81526020018381526020018e6001600160a01b031681526020018d6001600160a01b0316815250908060018154018082558091505060019003906000526020600020906004020160009091909190915060008201518160000160006101000a81548162ffffff021916908360020b62ffffff16021790555060208201518160000160036101000a81548162ffffff021916908360020b62ffffff1602179055506040820151816001015560608201518160020160006101000a8154816001600160a01b0302191690836001600160a01b0316021790555060808201518160030160006101000a8154816001600160a01b0302191690836001600160a01b0316021790555050505b8254604051633205590760e21b8152600481018390526000916001600160a01b03169063c815641c90602401608060405180830381865afa158015610b1d573d6000803e3d6000fd5b505050506040513d601f19601f82011682018060405250810190610b4191906134ec565b50505090506000610b65610b548d6114ac565b610b5d8d6114ac565b848d8d6117c4565b6040805160608101825260028f810b82528e810b6020808401918252600f9590950b83850181815260058c0180546000908152948d01885286852086518154955162ffffff90811663010000000265ffffffffffff1990971691161794909417845590516001938401558b5490549551919750939592946001600160a01b0390941693638154831993610bfe9333938d939192016132d9565b6040516020818303038152906040526040518263ffffffff1660e01b8152600401610c299190613134565b6000604051808303816000875af1158015610c48573d6000803e3d6000fd5b505050506040513d6000823e601f3d908101601f19168201604052610c709190810190613365565b905060008082806020019051810190610c899190613418565b600f91820b9c50900b995050505050505050505097509795505050505050565b6000610cb36112fd565b80546001600160a01b0319166001600160a01b03939093169290921790915550565b60606000808080610ce88688018861354f565b9296509094509250905060008080846004811115610d0857610d086132c3565b03610d2157610d1785846117dd565b9092509050610dc8565b6001846004811115610d3557610d356132c3565b03610d4457610d1785846118c7565b6002846004811115610d5857610d586132c3565b03610d9957610d896040518060400160405280600b81526020016a576861747320676f696e6760a81b81525061135f565b610d94858488611970565b610dc8565b6003846004811115610dad57610dad6132c3565b03610dbd57610d94858488611c45565b610dc8858488611eff565b60408051600f84810b602083015283900b81830152815180820383018152606082019283905287516370a0823160e01b9093529850610e69919088906001600160a01b038316906370a0823190610e23903090606401613164565b602060405180830381865afa158015610e40573d6000803e3d6000fd5b505050506040513d601f19601f82011682018060405250810190610e649190613609565b612260565b60208501516040516370a0823160e01b8152610ea1919088906001600160a01b038316906370a0823190610e23903090600401613164565b50505050505092915050565b6000806000610eba6112fd565b30600090815260068201602052604081208054929350610efc92909190610ee357610ee361320d565b600091825260209091206004909102015460020b6114ac565b306000908152600683016020526040812080546001600160a01b039390931692610f4d9290610f2d57610f2d61320d565b60009182526020909120600490910201546301000000900460020b6114ac565b6001600160a01b031692509250509091565b6000610271826114ac565b6000806000610f776112fd565b9050610f8387876122b6565b6001600160a01b038083166000908152600785016020908152604080832084861684528252808320815160a08101835281548616815260018201548087169482019490945262ffffff600160a01b85041692810192909252600160b81b909204600290810b606083015290910154831660808201528554949b509299509192166333aa955b61101184611435565b6040516001600160e01b031960e084901b168152600481019190915230602482015260028a810b604483015289900b6064820152608401602060405180830381865afa158015611065573d6000803e3d6000fd5b505050506040513d601f19601f820116820180604052508101906110899190613622565b905060405180606001604052808860020b81526020018760020b8152602001826110b29061364b565b600f0b905260058401805460009081526002860160209081526040808320855181548785015162ffffff90811663010000000265ffffffffffff199092169216919091171781559481015160019586015587549354905192946001600160a01b039094169363815483199361112e9333938a93929091016132d9565b6040516020818303038152906040526040518263ffffffff1660e01b81526004016111599190613134565b6000604051808303816000875af1158015611178573d6000803e3d6000fd5b505050506040513d6000823e601f3d908101601f191682016040526111a09190810190613365565b60058501805491925060006111b483613665565b9190505550600080828060200190518101906111d09190613418565b909d909c509a5050505050505050505050565b6000806111ee6112fd565b90506111fa84846122b6565b6001600160a01b038083166000908152600785016020908152604080832084861684528252808320815160a08101835281548616815260018201548087169482019490945262ffffff600160a01b85041692810192909252600160b81b909204600290810b60608301529091015490921660808301529296509094509061128082611435565b835460405163fa6793d560e01b8152600481018390529192506000916001600160a01b039091169063fa6793d590602401602060405180830381865afa1580156112ce573d6000803e3d6000fd5b505050506040513d601f19601f820116820180604052508101906112f29190613622565b979650505050505050565b7f35c2975ab7d5366802ce2593b15dfef7ba0fb48f04ca0c021c862e3ccd408ea590565b6000806000836001600160a01b0316856001600160a01b0316101561134e57506001915083905082611358565b5060009150829050835b9250925092565b61025f816040516024016113739190613134565b60408051601f198184030181529190526020810180516001600160e01b031663104c13eb60e21b1790526122e7565b6113e98383836040516024016113ba9392919061367e565b60408051601f198184030181529190526020810180516001600160e01b031663ca47c4eb60e01b1790526122e7565b505050565b600080600080866001600160a01b0316886001600160a01b0316101561141e57508692508591508490508361142a565b50859250869150839050845b945094509450949050565b60008160405160200161144891906136a3565b604051602081830303815290604052805190602001209050919050565b6113e983838360405160240161147d939291906136b1565b60408051601f198184030181529190526020810180516001600160e01b03166307e763af60e51b1790526122e7565b60008060008360020b126114c3578260020b6114cb565b8260020b6000035b9050620d89e88111156114f1576040516333a3bdff60e21b815260040160405180910390fd5b60008160011660000361150857600160801b61151a565b6ffffcb933bd6fad37aa2d162d1a5940015b6001600160881b031690506002821615611544576ffff97272373d413259a46990580e213a0260801c5b6004821615611563576ffff2e50f5f656932ef12357cf3c7fdcc0260801c5b6008821615611582576fffe5caca7e10e4e61c3624eaa0941cd00260801c5b60108216156115a1576fffcb9843d60f6159c9db58835c9266440260801c5b60208216156115c0576fff973b41fa98c081472e6896dfb254c00260801c5b60408216156115df576fff2ea16466c96a3843ec78b326b528610260801c5b60808216156115fe576ffe5dee046a99a2a811c461f1969c30530260801c5b61010082161561161e576ffcbe86c7900a88aedcffc83b479aa3a40260801c5b61020082161561163e576ff987a7253ac413176f2b074cf7815e540260801c5b61040082161561165e576ff3392b0822b70005940c7a398e4b70f30260801c5b61080082161561167e576fe7159475a2c29b7443b29c7fa6e889d90260801c5b61100082161561169e576fd097f3bdfd2022b8845ad8f792aa58250260801c5b6120008216156116be576fa9f746462d870fdf8a65dc1f90e061e50260801c5b6140008216156116de576f70d869a156d2a1b890bb3df62baf32f70260801c5b6180008216156116fe576f31be135f97d08fd981231505542fcfa60260801c5b6201000082161561171f576f09aa508b5b7a84e1c677de54f3e99bc90260801c5b6202000082161561173f576e5d6af8dedb81196699c329225ee6040260801c5b6204000082161561175e576d2216e584f5fa1ea926041bedfe980260801c5b6208000082161561177b576b048a170391f7dc42444e8fa20260801c5b60008460020b131561179c578060001981611798576117986136e4565b0490505b600160201b8106156117af5760016117b2565b60005b60ff16602082901c0192505050919050565b60006117d386868686866122f0565b9695505050505050565b6000806000806117eb6112fd565b80546000878152600183016020526040908190209051633cf3645360e21b81529293506001600160a01b039091169163f3cd914c9161182f918a919060040161370f565b6020604051808303816000875af115801561184e573d6000803e3d6000fd5b505050506040513d601f19601f820116820180604052508101906118729190613609565b600482018054919350600061188683613665565b909155505085516118a09061189b8460801c90565b6123b1565b6118af866020015161189b8490565b6118b98260801c90565b9350909150505b9250929050565b6000806000806118d56112fd565b805460008781526002830160205260409081902090516330d7224d60e11b81529293506001600160a01b03909116916361ae449a91611919918a919060040161375a565b6020604051808303816000875af1158015611938573d6000803e3d6000fd5b505050506040513d601f19601f8201168201806040525081019061195c9190613609565b600582018054919350600061188683613665565b600061197a61257d565b905060006119866112fd565b6000858152600380830160209081526040808420815160808101835281546001600160a01b0390811682526001808401548216838701526002840154838601529290950154606082015286548b87529187019093528185209151633cf3645360e21b8152959650939491939092169163f3cd914c91611a09918b9160040161370f565b6020604051808303816000875af1158015611a28573d6000803e3d6000fd5b505050506040513d601f19601f82011682018060405250810190611a4c9190613609565b9150600081600001516001600160a01b031682602001516001600160a01b03161015611a9257611a81886020015161189b8590565b611a8b8360801c90565b9050611aa5565b8751611aa29061189b8560801c90565b50815b815160408301516060840151611ac49291611abf9161379d565b6125a1565b611adb8260200151826001600160801b0316612654565b6040518060a001604052808360400151815260200183606001518152602001826001600160801b0316815260200183600001516001600160a01b0316815260200183602001516001600160a01b03168152508560020160008760030154815260200190815260200160002060008201518160000155602082015181600101556040820151816002015560608201518160030160006101000a8154816001600160a01b0302191690836001600160a01b0316021790555060808201518160040160006101000a8154816001600160a01b0302191690836001600160a01b03160217905550905050846004016000876001600160a01b03166001600160a01b0316815260200190815260200160002085600301549080600181540180825580915050600190039060005260206000200160009091909190915055846003016000815480929190611c2890613665565b9190505550611c3b8260200151826123b1565b5050505050505050565b6000611c4f612690565b90506000611c5b6112fd565b6000858152600380830160209081526040808420815160808101835281546001600160a01b0390811682526001808401548216838701526002840154838601529290950154606082015286548b87529187019093528185209151633cf3645360e21b8152959650939491939092169163f3cd914c91611cde918b9160040161370f565b6020604051808303816000875af1158015611cfd573d6000803e3d6000fd5b505050506040513d601f19601f82011682018060405250810190611d219190613609565b9150600081600001516001600160a01b031682602001516001600160a01b03161015611d6757611d56886020015161189b8590565b611d608360801c90565b9050611d7a565b8751611d779061189b8560801c90565b50815b815160408301516060840151611d999291611d949161379d565b6126b4565b50611db18260200151826001600160801b03166127b2565b506040518060a001604052808360400151815260200183606001518152602001826001600160801b0316815260200183600001516001600160a01b0316815260200183602001516001600160a01b03168152508560010160008760020154815260200190815260200160002060008201518160000155602082015181600101556040820151816002015560608201518160030160006101000a8154816001600160a01b0302191690836001600160a01b0316021790555060808201518160040160006101000a8154816001600160a01b0302191690836001600160a01b03160217905550905050846003016000876001600160a01b03166001600160a01b0316815260200190815260200160002085600201549080600181540180825580915050600190039060005260206000200160009091909190915055846002016000815480929190611c2890613665565b6000611f09612690565b90506000611f156112fd565b6000858152600380830160209081526040808420815160808101835281546001600160a01b0390811682526001808401548216838701526002840154838601529290950154606082015286548b87529187019093528185209151633cf3645360e21b8152959650939491939092169163f3cd914c91611f98918b9160040161370f565b6020604051808303816000875af1158015611fb7573d6000803e3d6000fd5b505050506040513d601f19601f82011682018060405250810190611fdb9190613609565b9150600081600001516001600160a01b031682602001516001600160a01b0316101561202157612010886020015161189b8590565b61201a8360801c90565b9050612034565b87516120319061189b8560801c90565b50815b612046816001600160801b031661280b565b815161205490600019612850565b60208201516040516370a0823160e01b81526120ce916001600160a01b0316906370a0823190612088903090600401613164565b602060405180830381865afa1580156120a5573d6000803e3d6000fd5b505050506040513d601f19601f820116820180604052508101906120c99190613609565b61280b565b6120de8260200151600019612917565b5060208201516040516370a0823160e01b8152612113916001600160a01b0316906370a0823190612088903090600401613164565b6040518060a001604052808360400151815260200183606001518152602001826001600160801b0316815260200183600001516001600160a01b0316815260200183602001516001600160a01b03168152508560010160008760020154815260200190815260200160002060008201518160000155602082015181600101556040820151816002015560608201518160030160006101000a8154816001600160a01b0302191690836001600160a01b0316021790555060808201518160040160006101000a8154816001600160a01b0302191690836001600160a01b03160217905550905050846003016000876001600160a01b03166001600160a01b0316815260200190815260200160002085600201549080600181540180825580915050600190039060005260206000200160009091909190915055846002016000815480929190611c2890613665565b6113e98363a9059cbb60e01b848460405160240161227f9291906137b0565b60408051601f198184030181529190526020810180516001600160e01b03166001600160e01b0319909316929092179091526129a9565b600080826001600160a01b0316846001600160a01b031610156122dd5750829050816118c0565b50819050826118c0565b61025f81612a83565b6000836001600160a01b0316856001600160a01b03161115612310579293925b846001600160a01b0316866001600160a01b03161161233b57612334858585612aa4565b90506123a8565b836001600160a01b0316866001600160a01b0316101561239d576000612362878686612aa4565b90506000612371878986612b19565b9050806001600160801b0316826001600160801b0316106123925780612394565b815b925050506123a8565b6117d3858584612b19565b95945050505050565b60006123bb6112fd565b9050600082600f0b121561245a5780546001600160a01b0316630b0d9c0984306123e48661364b565b6040516001600160e01b031960e086901b1681526001600160a01b0393841660048201529290911660248301526001600160801b031660448201526064015b600060405180830381600087803b15801561243d57600080fd5b505af1158015612451573d6000803e3d6000fd5b50505050505050565b6001600160a01b0383166124eb578054604051636a256b2960e01b81526001600160a01b0390911690636a256b29906001600160801b038516906124a2908790600401613164565b60206040518083038185885af11580156124c0573d6000803e3d6000fd5b50505050506040513d601f19601f820116820180604052508101906124e59190613609565b50505050565b805461250b9084906001600160a01b03166001600160801b038516612260565b8054604051636a256b2960e01b81526001600160a01b0390911690636a256b299061253a908690600401613164565b6020604051808303816000875af1158015612559573d6000803e3d6000fd5b505050506040513d601f19601f820116820180604052508101906124e59190613609565b7fe5fae1d1655caf6698b8b944506b14651a3f414f8a67caa7b6a42e32816e934090565b60006125ab61257d565b805460405163095ea7b360e01b81529192506001600160a01b038086169263095ea7b3926125df92169086906004016137b0565b6020604051808303816000875af11580156125fe573d6000803e3d6000fd5b505050506040513d601f19601f8201168201806040525081019061262291906137c9565b508054604051631e573fb760e31b81526001600160a01b039091169063f2b9fdb89061242390869086906004016137b0565b600061265e61257d565b805460405163f3fef3a360e01b81529192506001600160a01b03169063f3fef3a39061242390869086906004016137b0565b7fbd9b63cad2056a2132e010a4fbc483bbe85b10ec55651a56b347929db5cb470690565b6000806126bf612690565b805460405163095ea7b360e01b81529192506001600160a01b038087169263095ea7b3926126f392169087906004016137b0565b6020604051808303816000875af1158015612712573d6000803e3d6000fd5b505050506040513d601f19601f8201168201806040525081019061273691906137c9565b50805460405163617ba03760e01b81526001600160a01b03868116600483015260248201869052306044830152600060648301529091169063617ba037906084015b600060405180830381600087803b15801561279257600080fd5b505af11580156127a6573d6000803e3d6000fd5b50949695505050505050565b6000806127bd612690565b805460405163a415bcad60e01b81526001600160a01b03878116600483015260248201879052600260448301526000606483015230608483015292935091169063a415bcad9060a401612778565b61025f8160405160240161282191815260200190565b60408051601f198184030181529190526020810180516001600160e01b031663f82c50f160e01b1790526122e7565b600061285a612690565b805460405163095ea7b360e01b81529192506001600160a01b038086169263095ea7b39261288e92169086906004016137b0565b6020604051808303816000875af11580156128ad573d6000803e3d6000fd5b505050506040513d601f19601f820116820180604052508101906128d191906137c9565b50805460405163573ade8160e01b81526001600160a01b03858116600483015260248201859052600260448301523060648301529091169063573ade819060840161253a565b600080612922612690565b8054604051631a4ca37b60e21b81526001600160a01b038781166004830152602482018790523060448301529293509116906369328dec906064016020604051808303816000875af115801561297c573d6000803e3d6000fd5b505050506040513d601f19601f820116820180604052508101906129a09190613609565b50919392505050565b60006129fe826040518060400160405280602081526020017f5361666545524332303a206c6f772d6c6576656c2063616c6c206661696c6564815250856001600160a01b0316612b579092919063ffffffff16565b9050805160001480612a1f575080806020019051810190612a1f91906137c9565b6113e95760405162461bcd60e51b815260206004820152602a60248201527f5361666545524332303a204552433230206f7065726174696f6e20646964206e6044820152691bdd081cdd58d8d9595960b21b60648201526084015b60405180910390fd5b60006a636f6e736f6c652e6c6f679050600080835160208501845afa505050565b6000826001600160a01b0316846001600160a01b03161115612ac4579192915b6000612ae7856001600160a01b0316856001600160a01b0316600160601b612b66565b9050612b0e612b098483612afb8989613239565b6001600160a01b0316612b66565b612cdf565b9150505b9392505050565b6000826001600160a01b0316846001600160a01b03161115612b39579192915b612b4f612b0983600160601b612afb8888613239565b949350505050565b6060612b4f8484600085612cfa565b6000808060001985870985870292508281108382030391505080600003612b9f5760008411612b9457600080fd5b508290049050612b12565b808411612bab57600080fd5b6000848688098084039381119092039190506000612bcb8619600161379d565b8616958690049593849004936000819003046001019050612bec81846137eb565b909317926000612bfd8760036137eb565b6002189050612c0c81886137eb565b612c17906002613802565b612c2190826137eb565b9050612c2d81886137eb565b612c38906002613802565b612c4290826137eb565b9050612c4e81886137eb565b612c59906002613802565b612c6390826137eb565b9050612c6f81886137eb565b612c7a906002613802565b612c8490826137eb565b9050612c9081886137eb565b612c9b906002613802565b612ca590826137eb565b9050612cb181886137eb565b612cbc906002613802565b612cc690826137eb565b9050612cd281866137eb565b9998505050505050505050565b806001600160801b0381168114612cf557600080fd5b919050565b606082471015612d5b5760405162461bcd60e51b815260206004820152602660248201527f416464726573733a20696e73756666696369656e742062616c616e636520666f6044820152651c8818d85b1b60d21b6064820152608401612a7a565b600080866001600160a01b03168587604051612d779190613815565b60006040518083038185875af1925050503d8060008114612db4576040519150601f19603f3d011682016040523d82523d6000602084013e612db9565b606091505b50915091506112f28783838760608315612e34578251600003612e2d576001600160a01b0385163b612e2d5760405162461bcd60e51b815260206004820152601d60248201527f416464726573733a2063616c6c20746f206e6f6e2d636f6e74726163740000006044820152606401612a7a565b5081612b4f565b612b4f8383815115612e495781518083602001fd5b8060405162461bcd60e51b8152600401612a7a9190613134565b6001600160a01b038116811461025f57600080fd5b600080600060608486031215612e8d57600080fd5b8335612e9881612e63565b92506020840135612ea881612e63565b929592945050506040919091013590565b8060020b811461025f57600080fd5b60008060008060008060c08789031215612ee157600080fd5b8635612eec81612e63565b95506020870135612efc81612e63565b94506040870135612f0c81612eb9565b93506060870135612f1c81612eb9565b92506080870135612f2c81612eb9565b915060a0870135612f3c81612eb9565b809150509295509295509295565b60008083601f840112612f5c57600080fd5b5081356001600160401b03811115612f7357600080fd5b6020830191508360208285010111156118c057600080fd5b60008060008060008060a08789031215612fa457600080fd5b8635612faf81612e63565b95506020870135612fbf81612e63565b94506040870135612fcf81612e63565b93506060870135612fdf81612e63565b925060808701356001600160401b03811115612ffa57600080fd5b61300689828a01612f4a565b979a9699509497509295939492505050565b60008060008060008060c0878903121561303157600080fd5b863561303c81612e63565b9550602087013561304c81612e63565b9450604087013561305c81612eb9565b9350606087013561306c81612eb9565b9598949750929560808101359460a0909101359350915050565b60006020828403121561309857600080fd5b8135612b1281612e63565b600080602083850312156130b657600080fd5b82356001600160401b038111156130cc57600080fd5b6130d885828601612f4a565b90969095509350505050565b60005b838110156130ff5781810151838201526020016130e7565b50506000910152565b600081518084526131208160208601602086016130e4565b601f01601f19169290920160200192915050565b60208152600061026e6020830184613108565b60006020828403121561315957600080fd5b8135612b1281612eb9565b6001600160a01b0391909116815260200190565b6000806000806080858703121561318e57600080fd5b843561319981612e63565b935060208501356131a981612e63565b925060408501356131b981612eb9565b915060608501356131c981612eb9565b939692955090935050565b600080604083850312156131e757600080fd5b82356131f281612e63565b9150602083013561320281612e63565b809150509250929050565b634e487b7160e01b600052603260045260246000fd5b634e487b7160e01b600052601160045260246000fd5b6001600160a01b0382811682821603908082111561325957613259613223565b5092915050565b6001600160a01b0381811683821601908082111561325957613259613223565b80516001600160a01b03908116835260208083015182169084015260408083015162ffffff169084015260608083015160020b9084015260809182015116910152565b634e487b7160e01b600052602160045260246000fd5b6001600160a01b038516815261010081016132f76020830186613280565b6005841061331557634e487b7160e01b600052602160045260246000fd5b60c082019390935260e0015292915050565b634e487b7160e01b600052604160045260246000fd5b60405160a081016001600160401b038111828210171561335f5761335f613327565b60405290565b60006020828403121561337757600080fd5b81516001600160401b038082111561338e57600080fd5b818401915084601f8301126133a257600080fd5b8151818111156133b4576133b4613327565b604051601f8201601f19908116603f011681019083821181831017156133dc576133dc613327565b816040528281528760208487010111156133f557600080fd5b6112f28360208301602088016130e4565b8051600f81900b8114612cf557600080fd5b6000806040838503121561342b57600080fd5b61343483613406565b915061344260208401613406565b90509250929050565b60008160020b627fffff19810361346457613464613223565b60000392915050565b6134778186613280565b6001600160a01b03841660a082015260e060c08201819052810182905260006101008385828501376000838501820152601f909301601f1916909101909101949350505050565b6000602082840312156134d057600080fd5b8151612b1281612eb9565b62ffffff8116811461025f57600080fd5b6000806000806080858703121561350257600080fd5b845161350d81612e63565b602086015190945061351e81612eb9565b604086015190935061352f816134db565b60608601519092506131c9816134db565b803560058110612cf557600080fd5b60008060008084860361010081121561356757600080fd5b853561357281612e63565b945060a0601f198201121561358657600080fd5b5061358f61333d565b602086013561359d81612e63565b815260408601356135ad81612e63565b602082015260608601356135c0816134db565b604082015260808601356135d381612eb9565b606082015260a08601356135e681612e63565b608082015292506135f960c08601613540565b9396929550929360e00135925050565b60006020828403121561361b57600080fd5b5051919050565b60006020828403121561363457600080fd5b81516001600160801b0381168114612b1257600080fd5b6000600f82900b6001607f1b810161346457613464613223565b60006001820161367757613677613223565b5060010190565b6060815260006136916060830186613108565b60208301949094525060400152919050565b60a081016102718284613280565b6060815260006136c46060830186613108565b6001600160a01b0394851660208401529290931660409091015292915050565b634e487b7160e01b600052601260045260246000fd5b6002815261060f60f31b602082015260400190565b600061012061371e8386613280565b835460ff16151560a0840152600184015460c084015260028401546001600160a01b031660e08401526101008301819052612b0e8184016136fa565b60006101206137698386613280565b83548060020b60a08501528060181c60020b60c085015250600184015460e084015280610100840152612b0e8184016136fa565b8082018082111561027157610271613223565b6001600160a01b03929092168252602082015260400190565b6000602082840312156137db57600080fd5b81518015158114612b1257600080fd5b808202811582820484141761027157610271613223565b8181038181111561027157610271613223565b600082516138278184602087016130e4565b919091019291505056fea264697066735822122037a151c30c4725cf8d73bb427988630d9f791e4cdb4479f3577d466984abcc1a64736f6c63430008140033",
  "linkReferences": {},
  "deployedLinkReferences": {}
}