{
  "_format": "hh-sol-artifact-1",
  "contractName": "UniswapFacet",
  "sourceName": "contracts/Facets/UniswapFacet.sol",
  "abi": [
    {
      "inputs": [],
      "name": "InvalidTick",
      "type": "error"
    },
    {
      "inputs": [
        {
          "components": [
            {
              "internalType": "Currency",
              "name": "currency0",
              "type": "address"
            },
            {
              "internalType": "Currency",
              "name": "currency1",
              "type": "address"
            },
            {
              "internalType": "uint24",
              "name": "fee",
              "type": "uint24"
            },
            {
              "internalType": "int24",
              "name": "tickSpacing",
              "type": "int24"
            },
            {
              "internalType": "contract IHooks",
              "name": "hooks",
              "type": "address"
            }
          ],
          "internalType": "struct PoolKey",
          "name": "poolKey",
          "type": "tuple"
        },
        {
          "internalType": "int24",
          "name": "tickLower",
          "type": "int24"
        },
        {
          "internalType": "int24",
          "name": "tickUpper",
          "type": "int24"
        },
        {
          "internalType": "uint256",
          "name": "token0Amount",
          "type": "uint256"
        },
        {
          "internalType": "uint256",
          "name": "token1Amount",
          "type": "uint256"
        }
      ],
      "name": "addLiquidty",
      "outputs": [
        {
          "internalType": "int256",
          "name": "",
          "type": "int256"
        },
        {
          "internalType": "int256",
          "name": "",
          "type": "int256"
        }
      ],
      "stateMutability": "nonpayable",
      "type": "function"
    },
    {
      "inputs": [
        {
          "components": [
            {
              "internalType": "Currency",
              "name": "currency0",
              "type": "address"
            },
            {
              "internalType": "Currency",
              "name": "currency1",
              "type": "address"
            },
            {
              "internalType": "uint24",
              "name": "fee",
              "type": "uint24"
            },
            {
              "internalType": "int24",
              "name": "tickSpacing",
              "type": "int24"
            },
            {
              "internalType": "contract IHooks",
              "name": "hooks",
              "type": "address"
            }
          ],
          "internalType": "struct PoolKey",
          "name": "poolKey",
          "type": "tuple"
        },
        {
          "internalType": "int24",
          "name": "lowerBound",
          "type": "int24"
        },
        {
          "internalType": "int24",
          "name": "upperBound",
          "type": "int24"
        }
      ],
      "name": "closePosition",
      "outputs": [
        {
          "internalType": "int128",
          "name": "",
          "type": "int128"
        },
        {
          "internalType": "int128",
          "name": "",
          "type": "int128"
        }
      ],
      "stateMutability": "nonpayable",
      "type": "function"
    },
    {
      "inputs": [
        {
          "internalType": "address",
          "name": "token0",
          "type": "address"
        },
        {
          "internalType": "address",
          "name": "token1",
          "type": "address"
        },
        {
          "internalType": "uint160",
          "name": "poolStartPrice",
          "type": "uint160"
        },
        {
          "internalType": "bytes",
          "name": "hookData",
          "type": "bytes"
        }
      ],
      "name": "initializePool",
      "outputs": [],
      "stateMutability": "nonpayable",
      "type": "function"
    },
    {
      "inputs": [
        {
          "internalType": "bytes",
          "name": "data",
          "type": "bytes"
        }
      ],
      "name": "lockAcquired",
      "outputs": [
        {
          "internalType": "int128",
          "name": "",
          "type": "int128"
        },
        {
          "internalType": "int128",
          "name": "",
          "type": "int128"
        }
      ],
      "stateMutability": "nonpayable",
      "type": "function"
    },
    {
      "inputs": [
        {
          "internalType": "address",
          "name": "managerAddy",
          "type": "address"
        }
      ],
      "name": "setPoolManager",
      "outputs": [],
      "stateMutability": "nonpayable",
      "type": "function"
    },
    {
      "inputs": [
        {
          "internalType": "address",
          "name": "tokenFrom",
          "type": "address"
        },
        {
          "internalType": "address",
          "name": "tokenTo",
          "type": "address"
        },
        {
          "internalType": "int256",
          "name": "amount",
          "type": "int256"
        }
      ],
      "name": "swap",
      "outputs": [
        {
          "internalType": "int256",
          "name": "",
          "type": "int256"
        },
        {
          "internalType": "int256",
          "name": "",
          "type": "int256"
        }
      ],
      "stateMutability": "nonpayable",
      "type": "function"
    }
  ],
  "bytecode": "0x608060405234801561001057600080fd5b50612239806100206000396000f3fe608060405234801561001057600080fd5b50600436106100625760003560e01c80631ff0c3251461006757806342f3d752146100945780637aef6715146100a7578063ab6291fe146100bc578063b6630576146100e9578063e284f71a146100fc575b600080fd5b61007a6100753660046118ea565b61010f565b604080519283526020830191909152015b60405180910390f35b61007a6100a2366004611952565b610129565b6100ba6100b53660046119ae565b610147565b005b6100cf6100ca366004611a0c565b610153565b60408051600f93840b81529190920b60208201520161008b565b6100ba6100f7366004611a4d565b61016c565b6100cf61010a366004611ac8565b610180565b60008061011d85858561018e565b91509150935093915050565b6000806101398787878787610399565b915091509550959350505050565b61015081610658565b50565b6000806101608484610684565b915091505b9250929050565b6101798585858585610799565b5050505050565b60008061011d858585610924565b600080600061019b610b43565b905060008060006101ac8989610b67565b6001600160a01b038083166000908152600689016020908152604080832084861684528252808320815160a08101835281548616815260018201548087168286015262ffffff600160a01b82041682850152600160b81b9004600290810b60608084019190915292015490951660808601528151908101825287151581529182018e90529598509396509194509290919081018661026857610263600173fffd8963efd1fc6a506488495d951d5263988d26611b28565b610278565b6102786401000276a36001611b4f565b6001600160a01b0390811690915260038801805460009081526001808b01602090815260408084208751815460ff1916901515178155878301519381019390935586810151600290930180546001600160a01b031916938716939093179092558b5493549151959650919492909316926381548319926102fe9233928992889201611bea565b6040516020818303038152906040526040518263ffffffff1660e01b81526004016103299190611c74565b6000604051808303816000875af1158015610348573d6000803e3d6000fd5b505050506040513d6000823e601f3d908101601f191682016040526103709190810190611c9d565b9050808060200190518101906103869190611d3e565b9850985050505050505050935093915050565b60008060006103a6610b43565b905060006103c16103bc368b90038b018b611e0e565b610ba5565b3360009081526005840160209081526040808320815160608101835260028e810b82528d810b8286019081528285018881528454600181810187559589529688209351969092029092018054925162ffffff90811663010000000265ffffffffffff199094169616959095179190911784555192019190915584549051633205590760e21b815292935090916001600160a01b03919091169063c815641c9061047290859060040190815260200190565b608060405180830381865afa15801561048f573d6000803e3d6000fd5b505050506040513d601f19601f820116820180604052508101906104b39190611e2a565b505050905060006104d76104c68b610bd5565b6104cf8b610bd5565b848b8b610eed565b600f0b9050600060405180606001604052808c60020b81526020018b60020b8152602001838152509050808560020160008760040154815260200190815260200160002060008201518160000160006101000a81548162ffffff021916908360020b62ffffff16021790555060208201518160000160036101000a81548162ffffff021916908360020b62ffffff1602179055506040820151816001015590505060008560000160009054906101000a90046001600160a01b03166001600160a01b03166381548319338f60018a600401546040516020016105bc9493929190611e89565b6040516020818303038152906040526040518263ffffffff1660e01b81526004016105e79190611c74565b6000604051808303816000875af1158015610606573d6000803e3d6000fd5b505050506040513d6000823e601f3d908101601f1916820160405261062e9190810190611c9d565b9050808060200190518101906106449190611d3e565b975097505050505050509550959350505050565b6000610662610b43565b80546001600160a01b0319166001600160a01b03939093169290921790915550565b6000808080808061069787890189611f21565b9296509094509250905060008260018111156106b5576106b5611bb2565b036106ce576106c48382610f06565b90965094506106db565b6106d88382610fee565b50505b82516040516370a0823160e01b8152610756919086906001600160a01b038316906370a0823190610710903090600401611f76565b602060405180830381865afa15801561072d573d6000803e3d6000fd5b505050506040513d601f19601f820116820180604052508101906107519190611f8a565b611097565b60208301516040516370a0823160e01b815261078e919086906001600160a01b038316906370a0823190610710903090600401611f76565b505050509250929050565b60006107a3610b43565b6040805160a0810182526001600160a01b038981168083528982166020808501828152610bb8868801908152603c6060880190815260006080890181815296815260068b01855289812095815294845293889020875181549088166001600160a01b031991821617825592516001820180549351965162ffffff908116600160b81b0262ffffff60b81b1991909816600160a01b026001600160b81b0319909516928a1692909217939093171694909417905592516002909201805492909416919092161790915582518084019093526005835264486f77647960d81b90830152919250610890906110ee565b6108a2856001600160a01b0316611131565b815460405163695c5bf560e01b81526001600160a01b039091169063695c5bf5906108d7908490899089908990600401611fa3565b6020604051808303816000875af11580156108f6573d6000803e3d6000fd5b505050506040513d601f19601f8201168201806040525081019061091a9190611ff4565b5050505050505050565b6000806000610931610b43565b80549091506000906001600160a01b03166333aa955b6109596103bc368b90038b018b611e0e565b6040516001600160e01b031960e084901b1681526004810191909152306024820152600289810b604483015288900b6064820152608401602060405180830381865afa1580156109ad573d6000803e3d6000fd5b505050506040513d601f19601f820116820180604052508101906109d19190612011565b905060405180606001604052808760020b81526020018660020b8152602001826109fa9061203a565b600f0b905260048301805460009081526002850160209081526040808320855181549387015162ffffff90811663010000000265ffffffffffff199095169116179290921782559390930151600190930192909255805491610a5b8361205d565b9091555050815460048301546040516000926001600160a01b031691638154831991610a909133918d91600191602001611e89565b6040516020818303038152906040526040518263ffffffff1660e01b8152600401610abb9190611c74565b6000604051808303816000875af1158015610ada573d6000803e3d6000fd5b505050506040513d6000823e601f3d908101601f19168201604052610b029190810190611c9d565b6004840180549192506000610b168361205d565b919050555060008082806020019051810190610b329190612088565b909b909a5098505050505050505050565b7fe5fae1d1655caf6698b8b944506b14651a3f414f8a67caa7b6a42e32816e934090565b6000806000836001600160a01b0316856001600160a01b03161015610b9457506001915083905082610b9e565b5060009150829050835b9250925092565b600081604051602001610bb891906120bb565b604051602081830303815290604052805190602001209050919050565b60008060008360020b12610bec578260020b610bf4565b8260020b6000035b9050620d89e8811115610c1a576040516333a3bdff60e21b815260040160405180910390fd5b600081600116600003610c3157600160801b610c43565b6ffffcb933bd6fad37aa2d162d1a5940015b6001600160881b031690506002821615610c6d576ffff97272373d413259a46990580e213a0260801c5b6004821615610c8c576ffff2e50f5f656932ef12357cf3c7fdcc0260801c5b6008821615610cab576fffe5caca7e10e4e61c3624eaa0941cd00260801c5b6010821615610cca576fffcb9843d60f6159c9db58835c9266440260801c5b6020821615610ce9576fff973b41fa98c081472e6896dfb254c00260801c5b6040821615610d08576fff2ea16466c96a3843ec78b326b528610260801c5b6080821615610d27576ffe5dee046a99a2a811c461f1969c30530260801c5b610100821615610d47576ffcbe86c7900a88aedcffc83b479aa3a40260801c5b610200821615610d67576ff987a7253ac413176f2b074cf7815e540260801c5b610400821615610d87576ff3392b0822b70005940c7a398e4b70f30260801c5b610800821615610da7576fe7159475a2c29b7443b29c7fa6e889d90260801c5b611000821615610dc7576fd097f3bdfd2022b8845ad8f792aa58250260801c5b612000821615610de7576fa9f746462d870fdf8a65dc1f90e061e50260801c5b614000821615610e07576f70d869a156d2a1b890bb3df62baf32f70260801c5b618000821615610e27576f31be135f97d08fd981231505542fcfa60260801c5b62010000821615610e48576f09aa508b5b7a84e1c677de54f3e99bc90260801c5b62020000821615610e68576e5d6af8dedb81196699c329225ee6040260801c5b62040000821615610e87576d2216e584f5fa1ea926041bedfe980260801c5b62080000821615610ea4576b048a170391f7dc42444e8fa20260801c5b60008460020b1315610ec5578060001981610ec157610ec16120cf565b0490505b600160201b810615610ed8576001610edb565b60005b60ff16602082901c0192505050919050565b6000610efc8686868686611176565b9695505050505050565b600080600080610f14610b43565b80546000878152600183016020526040908190209051633cf3645360e21b81529293506001600160a01b039091169163f3cd914c91610f58918a91906004016120fa565b6020604051808303816000875af1158015610f77573d6000803e3d6000fd5b505050506040513d601f19601f82011682018060405250810190610f9b9190611f8a565b6003820180549193506000610faf8361205d565b90915550508551610fc990610fc48460801c90565b611237565b610fd88660200151610fc48490565b610fe28260801c90565b96919550909350505050565b600080600080610ffc610b43565b805460008781526002830160205260409081902090516330d7224d60e11b81529293506001600160a01b03909116916361ae449a91611040918a9190600401612145565b6020604051808303816000875af115801561105f573d6000803e3d6000fd5b505050506040513d601f19601f820116820180604052508101906110839190611f8a565b6004820180549193506000610faf8361205d565b604080516001600160a01b038416602482015260448082018490528251808303909101815260649091019091526020810180516001600160e01b031663a9059cbb60e01b1790526110e9908490611402565b505050565b610150816040516024016111029190611c74565b60408051601f198184030181529190526020810180516001600160e01b031663104c13eb60e21b1790526114dc565b6101508160405160240161114791815260200190565b60408051601f198184030181529190526020810180516001600160e01b031663f82c50f160e01b1790526114dc565b6000836001600160a01b0316856001600160a01b03161115611196579293925b846001600160a01b0316866001600160a01b0316116111c1576111ba8585856114e5565b905061122e565b836001600160a01b0316866001600160a01b031610156112235760006111e88786866114e5565b905060006111f787898661155a565b9050806001600160801b0316826001600160801b031610611218578061121a565b815b9250505061122e565b610efc85858461155a565b95945050505050565b6000611241610b43565b9050600082600f0b12156112df5780546001600160a01b0316630b0d9c09843061126a8661203a565b6040516001600160e01b031960e086901b1681526001600160a01b0393841660048201529290911660248301526001600160801b03166044820152606401600060405180830381600087803b1580156112c257600080fd5b505af11580156112d6573d6000803e3d6000fd5b50505050505050565b6001600160a01b038316611370578054604051636a256b2960e01b81526001600160a01b0390911690636a256b29906001600160801b03851690611327908790600401611f76565b60206040518083038185885af1158015611345573d6000803e3d6000fd5b50505050506040513d601f19601f8201168201806040525081019061136a9190611f8a565b50505050565b80546113909084906001600160a01b03166001600160801b038516611097565b8054604051636a256b2960e01b81526001600160a01b0390911690636a256b29906113bf908690600401611f76565b6020604051808303816000875af11580156113de573d6000803e3d6000fd5b505050506040513d601f19601f8201168201806040525081019061136a9190611f8a565b6000611457826040518060400160405280602081526020017f5361666545524332303a206c6f772d6c6576656c2063616c6c206661696c6564815250856001600160a01b03166115989092919063ffffffff16565b90508051600014806114785750808060200190518101906114789190612188565b6110e95760405162461bcd60e51b815260206004820152602a60248201527f5361666545524332303a204552433230206f7065726174696f6e20646964206e6044820152691bdd081cdd58d8d9595960b21b60648201526084015b60405180910390fd5b610150816115a7565b6000826001600160a01b0316846001600160a01b03161115611505579192915b6000611528856001600160a01b0316856001600160a01b0316600160601b6115c8565b905061154f61154a848361153c8989611b28565b6001600160a01b03166115c8565b611741565b9150505b9392505050565b6000826001600160a01b0316846001600160a01b0316111561157a579192915b61159061154a83600160601b61153c8888611b28565b949350505050565b6060611590848460008561175c565b60006a636f6e736f6c652e6c6f679050600080835160208501845afa505050565b600080806000198587098587029250828110838203039150508060000361160157600084116115f657600080fd5b508290049050611553565b80841161160d57600080fd5b600084868809808403938111909203919050600061162d861960016121aa565b861695869004959384900493600081900304600101905061164e81846121bd565b90931792600061165f8760036121bd565b600218905061166e81886121bd565b6116799060026121d4565b61168390826121bd565b905061168f81886121bd565b61169a9060026121d4565b6116a490826121bd565b90506116b081886121bd565b6116bb9060026121d4565b6116c590826121bd565b90506116d181886121bd565b6116dc9060026121d4565b6116e690826121bd565b90506116f281886121bd565b6116fd9060026121d4565b61170790826121bd565b905061171381886121bd565b61171e9060026121d4565b61172890826121bd565b905061173481866121bd565b9998505050505050505050565b806001600160801b038116811461175757600080fd5b919050565b6060824710156117bd5760405162461bcd60e51b815260206004820152602660248201527f416464726573733a20696e73756666696369656e742062616c616e636520666f6044820152651c8818d85b1b60d21b60648201526084016114d3565b600080866001600160a01b031685876040516117d991906121e7565b60006040518083038185875af1925050503d8060008114611816576040519150601f19603f3d011682016040523d82523d6000602084013e61181b565b606091505b509150915061182c87838387611837565b979650505050505050565b606083156118a657825160000361189f576001600160a01b0385163b61189f5760405162461bcd60e51b815260206004820152601d60248201527f416464726573733a2063616c6c20746f206e6f6e2d636f6e747261637400000060448201526064016114d3565b5081611590565b61159083838151156118bb5781518083602001fd5b8060405162461bcd60e51b81526004016114d39190611c74565b6001600160a01b038116811461015057600080fd5b6000806000606084860312156118ff57600080fd5b833561190a816118d5565b9250602084013561191a816118d5565b929592945050506040919091013590565b600060a0828403121561193d57600080fd5b50919050565b8060020b811461015057600080fd5b6000806000806000610120868803121561196b57600080fd5b611975878761192b565b945060a086013561198581611943565b935060c086013561199581611943565b9497939650939460e08101359450610100013592915050565b6000602082840312156119c057600080fd5b8135611553816118d5565b60008083601f8401126119dd57600080fd5b5081356001600160401b038111156119f457600080fd5b60208301915083602082850101111561016557600080fd5b60008060208385031215611a1f57600080fd5b82356001600160401b03811115611a3557600080fd5b611a41858286016119cb565b90969095509350505050565b600080600080600060808688031215611a6557600080fd5b8535611a70816118d5565b94506020860135611a80816118d5565b93506040860135611a90816118d5565b925060608601356001600160401b03811115611aab57600080fd5b611ab7888289016119cb565b969995985093965092949392505050565b600080600060e08486031215611add57600080fd5b611ae7858561192b565b925060a0840135611af781611943565b915060c0840135611b0781611943565b809150509250925092565b634e487b7160e01b600052601160045260246000fd5b6001600160a01b03828116828216039080821115611b4857611b48611b12565b5092915050565b6001600160a01b03818116838216019080821115611b4857611b48611b12565b80516001600160a01b03908116835260208083015182169084015260408083015162ffffff169084015260608083015160020b9084015260809182015116910152565b634e487b7160e01b600052602160045260246000fd5b60028110611be657634e487b7160e01b600052602160045260246000fd5b9052565b6001600160a01b03851681526101008101611c086020830186611b6f565b611c1560c0830185611bc8565b8260e083015295945050505050565b60005b83811015611c3f578181015183820152602001611c27565b50506000910152565b60008151808452611c60816020860160208601611c24565b601f01601f19169290920160200192915050565b6020815260006115536020830184611c48565b634e487b7160e01b600052604160045260246000fd5b600060208284031215611caf57600080fd5b81516001600160401b0380821115611cc657600080fd5b818401915084601f830112611cda57600080fd5b815181811115611cec57611cec611c87565b604051601f8201601f19908116603f01168101908382118183101715611d1457611d14611c87565b81604052828152876020848701011115611d2d57600080fd5b61182c836020830160208801611c24565b60008060408385031215611d5157600080fd5b505080516020909101519092909150565b62ffffff8116811461015057600080fd5b600060a08284031215611d8557600080fd5b60405160a081016001600160401b0381118282101715611da757611da7611c87565b6040529050808235611db8816118d5565b81526020830135611dc8816118d5565b60208201526040830135611ddb81611d62565b60408201526060830135611dee81611943565b60608201526080830135611e01816118d5565b6080919091015292915050565b600060a08284031215611e2057600080fd5b6115538383611d73565b60008060008060808587031215611e4057600080fd5b8451611e4b816118d5565b6020860151909450611e5c81611943565b6040860151909350611e6d81611d62565b6060860151909250611e7e81611d62565b939692955090935050565b6001600160a01b0385811682526101008201908535611ea7816118d5565b8181166020850152506020860135611ebe816118d5565b16604083810191909152850135611ed481611d62565b62ffffff81166060840152506060850135611eee81611943565b8060020b6080840152506080850135611f06816118d5565b6001600160a01b031660a0830152611c1560c0830185611bc8565b6000806000806101008587031215611f3857600080fd5b8435611f43816118d5565b9350611f528660208701611d73565b925060c085013560028110611f6657600080fd5b9396929550929360e00135925050565b6001600160a01b0391909116815260200190565b600060208284031215611f9c57600080fd5b5051919050565b611fad8186611b6f565b6001600160a01b03841660a082015260e060c08201819052810182905260006101008385828501376000838501820152601f909301601f1916909101909101949350505050565b60006020828403121561200657600080fd5b815161155381611943565b60006020828403121561202357600080fd5b81516001600160801b038116811461155357600080fd5b6000600f82900b6001607f1b810161205457612054611b12565b60000392915050565b60006001820161206f5761206f611b12565b5060010190565b8051600f81900b811461175757600080fd5b6000806040838503121561209b57600080fd5b6120a483612076565b91506120b260208401612076565b90509250929050565b60a081016120c98284611b6f565b92915050565b634e487b7160e01b600052601260045260246000fd5b6002815261060f60f31b602082015260400190565b60006101206121098386611b6f565b835460ff16151560a0840152600184015460c084015260028401546001600160a01b031660e0840152610100830181905261154f8184016120e5565b60006101206121548386611b6f565b83548060020b60a08501528060181c60020b60c085015250600184015460e08401528061010084015261154f8184016120e5565b60006020828403121561219a57600080fd5b8151801515811461155357600080fd5b808201808211156120c9576120c9611b12565b80820281158282048414176120c9576120c9611b12565b818103818111156120c9576120c9611b12565b600082516121f9818460208701611c24565b919091019291505056fea2646970667358221220abc63acee19c1b6c534fcd01ed84eb04f2d38f481371798bf47392294a42432364736f6c63430008140033",
  "linkReferences": {},
  "deployedLinkReferences": {}
}