{
  "_format": "hh-sol-artifact-1",
  "contractName": "UniswapFacet",
  "sourceName": "contracts/Facets/UniswapFacet.sol",
  "abi": [
    {
      "inputs": [],
      "name": "InvalidTick",
      "type": "error"
    },
    {
      "inputs": [
        {
          "internalType": "address",
          "name": "token0",
          "type": "address"
        },
        {
          "internalType": "address",
          "name": "token1",
          "type": "address"
        },
        {
          "internalType": "int24",
          "name": "tickLower",
          "type": "int24"
        },
        {
          "internalType": "int24",
          "name": "tickUpper",
          "type": "int24"
        },
        {
          "internalType": "uint256",
          "name": "token0Amount",
          "type": "uint256"
        },
        {
          "internalType": "uint256",
          "name": "token1Amount",
          "type": "uint256"
        }
      ],
      "name": "addLiquidty",
      "outputs": [
        {
          "internalType": "int256",
          "name": "token0Used",
          "type": "int256"
        },
        {
          "internalType": "int256",
          "name": "token1Used",
          "type": "int256"
        }
      ],
      "stateMutability": "nonpayable",
      "type": "function"
    },
    {
      "inputs": [
        {
          "internalType": "address",
          "name": "token0",
          "type": "address"
        },
        {
          "internalType": "address",
          "name": "token1",
          "type": "address"
        },
        {
          "internalType": "int24",
          "name": "lowerBound",
          "type": "int24"
        },
        {
          "internalType": "int24",
          "name": "upperBound",
          "type": "int24"
        }
      ],
      "name": "closePosition",
      "outputs": [
        {
          "internalType": "int256",
          "name": "token0Amount",
          "type": "int256"
        },
        {
          "internalType": "int256",
          "name": "token1Amount",
          "type": "int256"
        }
      ],
      "stateMutability": "nonpayable",
      "type": "function"
    },
    {
      "inputs": [
        {
          "internalType": "address",
          "name": "token0",
          "type": "address"
        },
        {
          "internalType": "address",
          "name": "token1",
          "type": "address"
        }
      ],
      "name": "getPoolLiquidity",
      "outputs": [
        {
          "internalType": "uint128",
          "name": "",
          "type": "uint128"
        }
      ],
      "stateMutability": "view",
      "type": "function"
    },
    {
      "inputs": [
        {
          "internalType": "int24",
          "name": "tick",
          "type": "int24"
        }
      ],
      "name": "getSqrtAtTick",
      "outputs": [
        {
          "internalType": "uint160",
          "name": "",
          "type": "uint160"
        }
      ],
      "stateMutability": "pure",
      "type": "function"
    },
    {
      "inputs": [
        {
          "internalType": "address",
          "name": "token0",
          "type": "address"
        },
        {
          "internalType": "address",
          "name": "token1",
          "type": "address"
        },
        {
          "internalType": "uint160",
          "name": "poolStartPrice",
          "type": "uint160"
        },
        {
          "internalType": "bytes",
          "name": "hookData",
          "type": "bytes"
        }
      ],
      "name": "initializePool",
      "outputs": [],
      "stateMutability": "nonpayable",
      "type": "function"
    },
    {
      "inputs": [
        {
          "internalType": "bytes",
          "name": "data",
          "type": "bytes"
        }
      ],
      "name": "lockAcquired",
      "outputs": [
        {
          "internalType": "bytes",
          "name": "",
          "type": "bytes"
        }
      ],
      "stateMutability": "nonpayable",
      "type": "function"
    },
    {
      "inputs": [
        {
          "internalType": "address",
          "name": "managerAddy",
          "type": "address"
        }
      ],
      "name": "setPoolManager",
      "outputs": [],
      "stateMutability": "nonpayable",
      "type": "function"
    },
    {
      "inputs": [
        {
          "internalType": "address",
          "name": "tokenFrom",
          "type": "address"
        },
        {
          "internalType": "address",
          "name": "tokenTo",
          "type": "address"
        },
        {
          "internalType": "int256",
          "name": "amount",
          "type": "int256"
        }
      ],
      "name": "swap",
      "outputs": [
        {
          "internalType": "int256",
          "name": "token0Amount",
          "type": "int256"
        },
        {
          "internalType": "int256",
          "name": "token1Amount",
          "type": "int256"
        },
        {
          "internalType": "bool",
          "name": "zeroForOne",
          "type": "bool"
        }
      ],
      "stateMutability": "nonpayable",
      "type": "function"
    }
  ],
  "bytecode": "0x608060405234801561001057600080fd5b506123bd806100206000396000f3fe608060405234801561001057600080fd5b50600436106100785760003560e01c80631ff0c3251461007d578063616c1cc3146100b25780637aef6715146100da578063ab6291fe146100ef578063b4becbed1461010f578063b66305761461012f578063b82197ed14610142578063bee000ce14610155575b600080fd5b61009061008b366004611b02565b610180565b6040805193845260208401929092521515908201526060015b60405180910390f35b6100c56100c0366004611b52565b61019f565b604080519283526020830191909152016100a9565b6100ed6100e8366004611bc0565b6101bf565b005b6101026100fd366004611c1e565b6101cb565b6040516100a99190611caf565b61012261011d366004611cc2565b6101e0565b6040516100a99190611cdf565b6100ed61013d366004611cf3565b6101eb565b6100c5610150366004611d6e565b6101ff565b610168610163366004611dca565b610220565b6040516001600160801b0390911681526020016100a9565b600080600061019086868661022c565b92509250925093509350939050565b6000806101b0888888888888610447565b91509150965096945050505050565b6101c881610746565b50565b60606101d78383610772565b90505b92915050565b60006101da826108b3565b6101f885858585856108be565b5050505050565b60008061020e86868686610a10565b600f91820b98910b9650945050505050565b60006101d78383610c89565b60008060008061023a610da3565b9050600080600061024b8a8a610dc7565b6001600160a01b038083166000908152600689016020908152604080832084861684528252808320815160a08101835281548616815260018201548087168286015262ffffff600160a01b82041682850152600160b81b9004600290810b60608084019190915292015490951660808601528151908101825287151581529182018f90529598509396509194509290919081018661030757610302600173fffd8963efd1fc6a506488495d951d5263988d26611e19565b610317565b6103176401000276a36001611e40565b6001600160a01b0390811690915260038801805460009081526001808b01602090815260408084208751815460ff1916901515178155878301519381019390935586810151600290930180546001600160a01b031916938716939093179092558b54935491519596509194929093169263815483199261039d9233928992889201611eb9565b6040516020818303038152906040526040518263ffffffff1660e01b81526004016103c89190611caf565b6000604051808303816000875af11580156103e7573d6000803e3d6000fd5b505050506040513d6000823e601f3d908101601f1916820160405261040f9190810190611f45565b9050600080828060200190518101906104289190611ff8565b600f91820b9d50900b9a50969850505050505050505093509350939050565b6000806000610454610da3565b905061046289898787610e05565b6001600160a01b038085166000908152600687016020908152604080832084881684528252808320815160a08101835281548616815260018201548087169482019490945262ffffff600160a01b85041692810192909252600160b81b909204600290810b6060830152909101549092166080830152949d50929b509097509550906104ed82610e4c565b3360009081526005850160209081526040808320815160608101835260028f810b82528e810b8286019081528285018881528454600181810187559589529688209351969092029092018054925162ffffff90811663010000000265ffffffffffff199094169616959095179190911784555192019190915585549051633205590760e21b815292935090916001600160a01b03919091169063c815641c9061059e90859060040190815260200190565b608060405180830381865afa1580156105bb573d6000803e3d6000fd5b505050506040513d601f19601f820116820180604052508101906105df919061203c565b505050905060006106036105f28c610e7c565b6105fb8c610e7c565b848c8c611194565b6040805160608101825260028e810b82528d810b6020808401918252600f9590950b83850181815260048c0180546000908152948d01885286852086518154955162ffffff90811663010000000265ffffffffffff1990971691161794909417845590516001938401558b5490549551919750939592946001600160a01b039094169363815483199361069c9333938d93919201611eb9565b6040516020818303038152906040526040518263ffffffff1660e01b81526004016106c79190611caf565b6000604051808303816000875af11580156106e6573d6000803e3d6000fd5b505050506040513d6000823e601f3d908101601f1916820160405261070e9190810190611f45565b9050600080828060200190518101906107279190611ff8565b600f91820b9c50900b9950505050505050505050965096945050505050565b6000610750610da3565b80546001600160a01b0319166001600160a01b03939093169290921790915550565b606060008080806107858688018861209f565b92965090945092509050600080808460018111156107a5576107a5611ea3565b036107be576107b485846111ad565b90925090506107ce565b6107c88584611297565b90925090505b60408051600f84810b602083015283900b81830152815180820383018152606082019283905287516370a0823160e01b909352985061086f919088906001600160a01b038316906370a0823190610829903090606401611cdf565b602060405180830381865afa158015610846573d6000803e3d6000fd5b505050506040513d601f19601f8201168201806040525081019061086a9190612159565b611340565b60208501516040516370a0823160e01b81526108a7919088906001600160a01b038316906370a0823190610829903090600401611cdf565b50505050505092915050565b60006101da82610e7c565b60006108c8610da3565b6040805160a0810182526001600160a01b038981168083528982166020808501828152610bb8868801908152603c6060880190815260006080890181815296815260068b0185528981209581529490935292879020865181549087166001600160a01b031991821617825591516001820180549551945162ffffff908116600160b81b0262ffffff60b81b1991909616600160a01b026001600160b81b031990971692891692909217959095171692909217909255915160029092018054928416929091169190911790558354925163695c5bf560e01b8152939450909291169063695c5bf5906109c3908490899089908990600401612172565b6020604051808303816000875af11580156109e2573d6000803e3d6000fd5b505050506040513d601f19601f82011682018060405250810190610a0691906121c3565b5050505050505050565b6000806000610a1d610da3565b9050610a298787611397565b6001600160a01b038083166000908152600685016020908152604080832084861684528252808320815160a08101835281548616815260018201548087169482019490945262ffffff600160a01b85041692810192909252600160b81b909204600290810b606083015290910154831660808201528554949b509299509192166333aa955b610ab784610e4c565b6040516001600160e01b031960e084901b168152600481019190915230602482015260028a810b604483015289900b6064820152608401602060405180830381865afa158015610b0b573d6000803e3d6000fd5b505050506040513d601f19601f82011682018060405250810190610b2f91906121e0565b905060405180606001604052808860020b81526020018760020b815260200182610b5890612209565b600f0b905260048401805460009081526002860160209081526040808320855181548785015162ffffff90811663010000000265ffffffffffff199092169216919091171781559481015160019586015587549354905192946001600160a01b0390941693638154831993610bd49333938a9392909101611eb9565b6040516020818303038152906040526040518263ffffffff1660e01b8152600401610bff9190611caf565b6000604051808303816000875af1158015610c1e573d6000803e3d6000fd5b505050506040513d6000823e601f3d908101601f19168201604052610c469190810190611f45565b6004850180549192506000610c5a8361222c565b919050555060008082806020019051810190610c769190611ff8565b909d909c509a5050505050505050505050565b600080610c94610da3565b9050610ca08484611397565b6001600160a01b038083166000908152600685016020908152604080832084861684528252808320815160a08101835281548616815260018201548087169482019490945262ffffff600160a01b85041692810192909252600160b81b909204600290810b606083015290910154909216608083015292965090945090610d2682610e4c565b835460405163fa6793d560e01b8152600481018390529192506000916001600160a01b039091169063fa6793d590602401602060405180830381865afa158015610d74573d6000803e3d6000fd5b505050506040513d601f19601f82011682018060405250810190610d9891906121e0565b979650505050505050565b7fe5fae1d1655caf6698b8b944506b14651a3f414f8a67caa7b6a42e32816e934090565b6000806000836001600160a01b0316856001600160a01b03161015610df457506001915083905082610dfe565b5060009150829050835b9250925092565b600080600080866001600160a01b0316886001600160a01b03161015610e35575086925085915084905083610e41565b50859250869150839050845b945094509450949050565b600081604051602001610e5f9190612245565b604051602081830303815290604052805190602001209050919050565b60008060008360020b12610e93578260020b610e9b565b8260020b6000035b9050620d89e8811115610ec1576040516333a3bdff60e21b815260040160405180910390fd5b600081600116600003610ed857600160801b610eea565b6ffffcb933bd6fad37aa2d162d1a5940015b6001600160881b031690506002821615610f14576ffff97272373d413259a46990580e213a0260801c5b6004821615610f33576ffff2e50f5f656932ef12357cf3c7fdcc0260801c5b6008821615610f52576fffe5caca7e10e4e61c3624eaa0941cd00260801c5b6010821615610f71576fffcb9843d60f6159c9db58835c9266440260801c5b6020821615610f90576fff973b41fa98c081472e6896dfb254c00260801c5b6040821615610faf576fff2ea16466c96a3843ec78b326b528610260801c5b6080821615610fce576ffe5dee046a99a2a811c461f1969c30530260801c5b610100821615610fee576ffcbe86c7900a88aedcffc83b479aa3a40260801c5b61020082161561100e576ff987a7253ac413176f2b074cf7815e540260801c5b61040082161561102e576ff3392b0822b70005940c7a398e4b70f30260801c5b61080082161561104e576fe7159475a2c29b7443b29c7fa6e889d90260801c5b61100082161561106e576fd097f3bdfd2022b8845ad8f792aa58250260801c5b61200082161561108e576fa9f746462d870fdf8a65dc1f90e061e50260801c5b6140008216156110ae576f70d869a156d2a1b890bb3df62baf32f70260801c5b6180008216156110ce576f31be135f97d08fd981231505542fcfa60260801c5b620100008216156110ef576f09aa508b5b7a84e1c677de54f3e99bc90260801c5b6202000082161561110f576e5d6af8dedb81196699c329225ee6040260801c5b6204000082161561112e576d2216e584f5fa1ea926041bedfe980260801c5b6208000082161561114b576b048a170391f7dc42444e8fa20260801c5b60008460020b131561116c57806000198161116857611168612253565b0490505b600160201b81061561117f576001611182565b60005b60ff16602082901c0192505050919050565b60006111a386868686866113c8565b9695505050505050565b6000806000806111bb610da3565b80546000878152600183016020526040908190209051633cf3645360e21b81529293506001600160a01b039091169163f3cd914c916111ff918a919060040161227e565b6020604051808303816000875af115801561121e573d6000803e3d6000fd5b505050506040513d601f19601f820116820180604052508101906112429190612159565b60038201805491935060006112568361222c565b909155505085516112709061126b8460801c90565b611489565b61127f866020015161126b8490565b6112898260801c90565b9350909150505b9250929050565b6000806000806112a5610da3565b805460008781526002830160205260409081902090516330d7224d60e11b81529293506001600160a01b03909116916361ae449a916112e9918a91906004016122c9565b6020604051808303816000875af1158015611308573d6000803e3d6000fd5b505050506040513d601f19601f8201168201806040525081019061132c9190612159565b60048201805491935060006112568361222c565b604080516001600160a01b038416602482015260448082018490528251808303909101815260649091019091526020810180516001600160e01b031663a9059cbb60e01b179052611392908490611654565b505050565b600080826001600160a01b0316846001600160a01b031610156113be575082905081611290565b5081905082611290565b6000836001600160a01b0316856001600160a01b031611156113e8579293925b846001600160a01b0316866001600160a01b0316116114135761140c85858561172e565b9050611480565b836001600160a01b0316866001600160a01b0316101561147557600061143a87868661172e565b905060006114498789866117a3565b9050806001600160801b0316826001600160801b03161061146a578061146c565b815b92505050611480565b6111a38585846117a3565b95945050505050565b6000611493610da3565b9050600082600f0b12156115315780546001600160a01b0316630b0d9c0984306114bc86612209565b6040516001600160e01b031960e086901b1681526001600160a01b0393841660048201529290911660248301526001600160801b03166044820152606401600060405180830381600087803b15801561151457600080fd5b505af1158015611528573d6000803e3d6000fd5b50505050505050565b6001600160a01b0383166115c2578054604051636a256b2960e01b81526001600160a01b0390911690636a256b29906001600160801b03851690611579908790600401611cdf565b60206040518083038185885af1158015611597573d6000803e3d6000fd5b50505050506040513d601f19601f820116820180604052508101906115bc9190612159565b50505050565b80546115e29084906001600160a01b03166001600160801b038516611340565b8054604051636a256b2960e01b81526001600160a01b0390911690636a256b2990611611908690600401611cdf565b6020604051808303816000875af1158015611630573d6000803e3d6000fd5b505050506040513d601f19601f820116820180604052508101906115bc9190612159565b60006116a9826040518060400160405280602081526020017f5361666545524332303a206c6f772d6c6576656c2063616c6c206661696c6564815250856001600160a01b03166117e19092919063ffffffff16565b90508051600014806116ca5750808060200190518101906116ca919061230c565b6113925760405162461bcd60e51b815260206004820152602a60248201527f5361666545524332303a204552433230206f7065726174696f6e20646964206e6044820152691bdd081cdd58d8d9595960b21b60648201526084015b60405180910390fd5b6000826001600160a01b0316846001600160a01b0316111561174e579192915b6000611771856001600160a01b0316856001600160a01b0316600160601b6117f0565b905061179861179384836117858989611e19565b6001600160a01b03166117f0565b611969565b9150505b9392505050565b6000826001600160a01b0316846001600160a01b031611156117c3579192915b6117d961179383600160601b6117858888611e19565b949350505050565b60606117d98484600085611984565b6000808060001985870985870292508281108382030391505080600003611829576000841161181e57600080fd5b50829004905061179c565b80841161183557600080fd5b60008486880980840393811190920391905060006118558619600161232e565b86169586900495938490049360008190030460010190506118768184612341565b909317926000611887876003612341565b60021890506118968188612341565b6118a1906002612358565b6118ab9082612341565b90506118b78188612341565b6118c2906002612358565b6118cc9082612341565b90506118d88188612341565b6118e3906002612358565b6118ed9082612341565b90506118f98188612341565b611904906002612358565b61190e9082612341565b905061191a8188612341565b611925906002612358565b61192f9082612341565b905061193b8188612341565b611946906002612358565b6119509082612341565b905061195c8186612341565b9998505050505050505050565b806001600160801b038116811461197f57600080fd5b919050565b6060824710156119e55760405162461bcd60e51b815260206004820152602660248201527f416464726573733a20696e73756666696369656e742062616c616e636520666f6044820152651c8818d85b1b60d21b6064820152608401611725565b600080866001600160a01b03168587604051611a01919061236b565b60006040518083038185875af1925050503d8060008114611a3e576040519150601f19603f3d011682016040523d82523d6000602084013e611a43565b606091505b5091509150610d988783838760608315611abe578251600003611ab7576001600160a01b0385163b611ab75760405162461bcd60e51b815260206004820152601d60248201527f416464726573733a2063616c6c20746f206e6f6e2d636f6e74726163740000006044820152606401611725565b50816117d9565b6117d98383815115611ad35781518083602001fd5b8060405162461bcd60e51b81526004016117259190611caf565b6001600160a01b03811681146101c857600080fd5b600080600060608486031215611b1757600080fd5b8335611b2281611aed565b92506020840135611b3281611aed565b929592945050506040919091013590565b8060020b81146101c857600080fd5b60008060008060008060c08789031215611b6b57600080fd5b8635611b7681611aed565b95506020870135611b8681611aed565b94506040870135611b9681611b43565b93506060870135611ba681611b43565b9598949750929560808101359460a0909101359350915050565b600060208284031215611bd257600080fd5b813561179c81611aed565b60008083601f840112611bef57600080fd5b5081356001600160401b03811115611c0657600080fd5b60208301915083602082850101111561129057600080fd5b60008060208385031215611c3157600080fd5b82356001600160401b03811115611c4757600080fd5b611c5385828601611bdd565b90969095509350505050565b60005b83811015611c7a578181015183820152602001611c62565b50506000910152565b60008151808452611c9b816020860160208601611c5f565b601f01601f19169290920160200192915050565b6020815260006101d76020830184611c83565b600060208284031215611cd457600080fd5b813561179c81611b43565b6001600160a01b0391909116815260200190565b600080600080600060808688031215611d0b57600080fd5b8535611d1681611aed565b94506020860135611d2681611aed565b93506040860135611d3681611aed565b925060608601356001600160401b03811115611d5157600080fd5b611d5d88828901611bdd565b969995985093965092949392505050565b60008060008060808587031215611d8457600080fd5b8435611d8f81611aed565b93506020850135611d9f81611aed565b92506040850135611daf81611b43565b91506060850135611dbf81611b43565b939692955090935050565b60008060408385031215611ddd57600080fd5b8235611de881611aed565b91506020830135611df881611aed565b809150509250929050565b634e487b7160e01b600052601160045260246000fd5b6001600160a01b03828116828216039080821115611e3957611e39611e03565b5092915050565b6001600160a01b03818116838216019080821115611e3957611e39611e03565b80516001600160a01b03908116835260208083015182169084015260408083015162ffffff169084015260608083015160020b9084015260809182015116910152565b634e487b7160e01b600052602160045260246000fd5b6001600160a01b03851681526101008101611ed76020830186611e60565b60028410611ef557634e487b7160e01b600052602160045260246000fd5b60c082019390935260e0015292915050565b634e487b7160e01b600052604160045260246000fd5b60405160a081016001600160401b0381118282101715611f3f57611f3f611f07565b60405290565b600060208284031215611f5757600080fd5b81516001600160401b0380821115611f6e57600080fd5b818401915084601f830112611f8257600080fd5b815181811115611f9457611f94611f07565b604051601f8201601f19908116603f01168101908382118183101715611fbc57611fbc611f07565b81604052828152876020848701011115611fd557600080fd5b610d98836020830160208801611c5f565b8051600f81900b811461197f57600080fd5b6000806040838503121561200b57600080fd5b61201483611fe6565b915061202260208401611fe6565b90509250929050565b62ffffff811681146101c857600080fd5b6000806000806080858703121561205257600080fd5b845161205d81611aed565b602086015190945061206e81611b43565b604086015190935061207f8161202b565b6060860151909250611dbf8161202b565b80356002811061197f57600080fd5b6000806000808486036101008112156120b757600080fd5b85356120c281611aed565b945060a0601f19820112156120d657600080fd5b506120df611f1d565b60208601356120ed81611aed565b815260408601356120fd81611aed565b602082015260608601356121108161202b565b6040820152608086013561212381611b43565b606082015260a086013561213681611aed565b6080820152925061214960c08601612090565b9396929550929360e00135925050565b60006020828403121561216b57600080fd5b5051919050565b61217c8186611e60565b6001600160a01b03841660a082015260e060c08201819052810182905260006101008385828501376000838501820152601f909301601f1916909101909101949350505050565b6000602082840312156121d557600080fd5b815161179c81611b43565b6000602082840312156121f257600080fd5b81516001600160801b038116811461179c57600080fd5b6000600f82900b6001607f1b810161222357612223611e03565b60000392915050565b60006001820161223e5761223e611e03565b5060010190565b60a081016101da8284611e60565b634e487b7160e01b600052601260045260246000fd5b6002815261060f60f31b602082015260400190565b600061012061228d8386611e60565b835460ff16151560a0840152600184015460c084015260028401546001600160a01b031660e08401526101008301819052611798818401612269565b60006101206122d88386611e60565b83548060020b60a08501528060181c60020b60c085015250600184015460e084015280610100840152611798818401612269565b60006020828403121561231e57600080fd5b8151801515811461179c57600080fd5b808201808211156101da576101da611e03565b80820281158282048414176101da576101da611e03565b818103818111156101da576101da611e03565b6000825161237d818460208701611c5f565b919091019291505056fea2646970667358221220ef4a6cb4c006ac628014426bdc551114c3d7235b2671d9e4a134d4fa9cacdd9c64736f6c63430008140033",
  "linkReferences": {},
  "deployedLinkReferences": {}
}