{
  "_format": "hh-sol-artifact-1",
  "contractName": "UniswapFacet",
  "sourceName": "contracts/Facets/UniswapFacet.sol",
  "abi": [
    {
      "inputs": [],
      "name": "InvalidTick",
      "type": "error"
    },
    {
      "inputs": [
        {
          "internalType": "address",
          "name": "token0",
          "type": "address"
        },
        {
          "internalType": "address",
          "name": "token1",
          "type": "address"
        },
        {
          "internalType": "int24",
          "name": "tickLower",
          "type": "int24"
        },
        {
          "internalType": "int24",
          "name": "tickUpper",
          "type": "int24"
        },
        {
          "internalType": "uint256",
          "name": "token0Amount",
          "type": "uint256"
        },
        {
          "internalType": "uint256",
          "name": "token1Amount",
          "type": "uint256"
        }
      ],
      "name": "addLiquidty",
      "outputs": [
        {
          "internalType": "int256",
          "name": "",
          "type": "int256"
        },
        {
          "internalType": "int256",
          "name": "",
          "type": "int256"
        }
      ],
      "stateMutability": "nonpayable",
      "type": "function"
    },
    {
      "inputs": [
        {
          "internalType": "address",
          "name": "token0",
          "type": "address"
        },
        {
          "internalType": "address",
          "name": "token1",
          "type": "address"
        },
        {
          "internalType": "int24",
          "name": "lowerBound",
          "type": "int24"
        },
        {
          "internalType": "int24",
          "name": "upperBound",
          "type": "int24"
        }
      ],
      "name": "closePosition",
      "outputs": [
        {
          "internalType": "int128",
          "name": "",
          "type": "int128"
        },
        {
          "internalType": "int128",
          "name": "",
          "type": "int128"
        }
      ],
      "stateMutability": "nonpayable",
      "type": "function"
    },
    {
      "inputs": [
        {
          "internalType": "address",
          "name": "token0",
          "type": "address"
        },
        {
          "internalType": "address",
          "name": "token1",
          "type": "address"
        },
        {
          "internalType": "uint160",
          "name": "poolStartPrice",
          "type": "uint160"
        },
        {
          "internalType": "bytes",
          "name": "hookData",
          "type": "bytes"
        }
      ],
      "name": "initializePool",
      "outputs": [],
      "stateMutability": "nonpayable",
      "type": "function"
    },
    {
      "inputs": [
        {
          "internalType": "bytes",
          "name": "data",
          "type": "bytes"
        }
      ],
      "name": "lockAcquired",
      "outputs": [
        {
          "internalType": "bytes",
          "name": "",
          "type": "bytes"
        }
      ],
      "stateMutability": "nonpayable",
      "type": "function"
    },
    {
      "inputs": [
        {
          "internalType": "address",
          "name": "managerAddy",
          "type": "address"
        }
      ],
      "name": "setPoolManager",
      "outputs": [],
      "stateMutability": "nonpayable",
      "type": "function"
    },
    {
      "inputs": [
        {
          "internalType": "address",
          "name": "tokenFrom",
          "type": "address"
        },
        {
          "internalType": "address",
          "name": "tokenTo",
          "type": "address"
        },
        {
          "internalType": "int256",
          "name": "amount",
          "type": "int256"
        }
      ],
      "name": "swap",
      "outputs": [
        {
          "internalType": "int256",
          "name": "",
          "type": "int256"
        },
        {
          "internalType": "int256",
          "name": "",
          "type": "int256"
        }
      ],
      "stateMutability": "nonpayable",
      "type": "function"
    }
  ],
  "bytecode": "0x608060405234801561001057600080fd5b5061230f806100206000396000f3fe608060405234801561001057600080fd5b50600436106100625760003560e01c80631ff0c32514610067578063616c1cc3146100945780637aef6715146100a7578063ab6291fe146100bc578063b6630576146100dc578063b82197ed146100ef575b600080fd5b61007a610075366004611a86565b61011c565b604080519283526020830191909152015b60405180910390f35b61007a6100a2366004611ad6565b610136565b6100ba6100b5366004611b44565b610156565b005b6100cf6100ca366004611ba2565b610162565b60405161008b9190611c33565b6100ba6100ea366004611c46565b610177565b6101026100fd366004611cc1565b61018b565b60408051600f93840b81529190920b60208201520161008b565b60008061012a8585856101a7565b91509150935093915050565b6000806101478888888888886103b2565b91509150965096945050505050565b61015f81610756565b50565b606061016e8383610782565b90505b92915050565b61018485858585856108c3565b5050505050565b60008061019a86868686610a15565b9150915094509492505050565b60008060006101b4610ca8565b905060008060006101c58989610ccc565b6001600160a01b038083166000908152600689016020908152604080832084861684528252808320815160a08101835281548616815260018201548087168286015262ffffff600160a01b82041682850152600160b81b9004600290810b60608084019190915292015490951660808601528151908101825287151581529182018e9052959850939650919450929091908101866102815761027c600173fffd8963efd1fc6a506488495d951d5263988d26611d33565b610291565b6102916401000276a36001611d5a565b6001600160a01b0390811690915260038801805460009081526001808b01602090815260408084208751815460ff1916901515178155878301519381019390935586810151600290930180546001600160a01b031916938716939093179092558b5493549151959650919492909316926381548319926103179233928992889201611dd3565b6040516020818303038152906040526040518263ffffffff1660e01b81526004016103429190611c33565b6000604051808303816000875af1158015610361573d6000803e3d6000fd5b505050506040513d6000823e601f3d908101601f191682016040526103899190810190611e5f565b90508080602001905181019061039f9190611f00565b9850985050505050505050935093915050565b60008060006103bf610ca8565b9050610436896001600160a01b03166370a08231306040518263ffffffff1660e01b81526004016103f09190611f24565b602060405180830381865afa15801561040d573d6000803e3d6000fd5b505050506040513d601f19601f820116820180604052508101906104319190611f38565b610d0a565b6040516370a0823160e01b8152610466906001600160a01b038a16906370a08231906103f0903090600401611f24565b61047289898787610d4f565b6001600160a01b038085166000908152600687016020908152604080832084881684528252808320815160a08101835281548616815260018201548087169482019490945262ffffff600160a01b85041692810192909252600160b81b909204600290810b6060830152909101549092166080830152949d50929b509097509550906104fd82610d96565b3360009081526005850160209081526040808320815160608101835260028f810b82528e810b8286019081528285018881528454600181810187559589529688209351969092029092018054925162ffffff90811663010000000265ffffffffffff199094169616959095179190911784555192019190915585549051633205590760e21b815292935090916001600160a01b03919091169063c815641c906105ae90859060040190815260200190565b608060405180830381865afa1580156105cb573d6000803e3d6000fd5b505050506040513d601f19601f820116820180604052508101906105ef9190611f62565b505050905060006106136106028c610dc6565b61060b8c610dc6565b848c8c6110de565b6040805160608101825260028e810b82528d810b6020808401918252600f9590950b83850181815260048c0180546000908152948d01885286852086518154955162ffffff90811663010000000265ffffffffffff1990971691161794909417845590516001938401558b5490549551919750939592946001600160a01b03909416936381548319936106ac9333938d93919201611dd3565b6040516020818303038152906040526040518263ffffffff1660e01b81526004016106d79190611c33565b6000604051808303816000875af11580156106f6573d6000803e3d6000fd5b505050506040513d6000823e601f3d908101601f1916820160405261071e9190810190611e5f565b9050600080828060200190518101906107379190611fc8565b600f91820b9c50900b9950505050505050505050965096945050505050565b6000610760610ca8565b80546001600160a01b0319166001600160a01b03939093169290921790915550565b606060008080806107958688018861200a565b92965090945092509050600080808460018111156107b5576107b5611dbd565b036107ce576107c485846110f7565b90925090506107de565b6107d885846111e1565b90925090505b60408051600f84810b602083015283900b81830152815180820383018152606082019283905287516370a0823160e01b909352985061087f919088906001600160a01b038316906370a0823190610839903090606401611f24565b602060405180830381865afa158015610856573d6000803e3d6000fd5b505050506040513d601f19601f8201168201806040525081019061087a9190611f38565b61128a565b60208501516040516370a0823160e01b81526108b7919088906001600160a01b038316906370a0823190610839903090600401611f24565b50505050505092915050565b60006108cd610ca8565b6040805160a0810182526001600160a01b038981168083528982166020808501828152610bb8868801908152603c6060880190815260006080890181815296815260068b0185528981209581529490935292879020865181549087166001600160a01b031991821617825591516001820180549551945162ffffff908116600160b81b0262ffffff60b81b1991909616600160a01b026001600160b81b031990971692891692909217959095171692909217909255915160029092018054928416929091169190911790558354925163695c5bf560e01b8152939450909291169063695c5bf5906109c89084908990899089906004016120c4565b6020604051808303816000875af11580156109e7573d6000803e3d6000fd5b505050506040513d601f19601f82011682018060405250810190610a0b9190612115565b5050505050505050565b6000806000610a22610ca8565b9050610a2e87876112e1565b6001600160a01b038083166000908152600685016020908152604080832084861684528252808320815160a08101835281548616815260018201548087169482019490945262ffffff600160a01b85041692810192909252600160b81b909204600290810b606083015290910154831660808201528554949b509299509192166333aa955b610abc84610d96565b6040516001600160e01b031960e084901b168152600481019190915230602482015260028a810b604483015289900b6064820152608401602060405180830381865afa158015610b10573d6000803e3d6000fd5b505050506040513d601f19601f82011682018060405250810190610b349190612132565b905060405180606001604052808860020b81526020018760020b815260200182610b5d9061215b565b600f0b905260048401805460009081526002860160209081526040808320855181549387015162ffffff90811663010000000265ffffffffffff199095169116179290921782559390930151600190930192909255805491610bbe8361217e565b9091555050825460048401546040516000926001600160a01b031691638154831991610bf39133918891600191602001611dd3565b6040516020818303038152906040526040518263ffffffff1660e01b8152600401610c1e9190611c33565b6000604051808303816000875af1158015610c3d573d6000803e3d6000fd5b505050506040513d6000823e601f3d908101601f19168201604052610c659190810190611e5f565b6004850180549192506000610c798361217e565b919050555060008082806020019051810190610c959190611fc8565b909d909c509a5050505050505050505050565b7fe5fae1d1655caf6698b8b944506b14651a3f414f8a67caa7b6a42e32816e934090565b6000806000836001600160a01b0316856001600160a01b03161015610cf957506001915083905082610d03565b5060009150829050835b9250925092565b61015f81604051602401610d2091815260200190565b60408051601f198184030181529190526020810180516001600160e01b031663f82c50f160e01b179052611312565b600080600080866001600160a01b0316886001600160a01b03161015610d7f575086925085915084905083610d8b565b50859250869150839050845b945094509450949050565b600081604051602001610da99190612197565b604051602081830303815290604052805190602001209050919050565b60008060008360020b12610ddd578260020b610de5565b8260020b6000035b9050620d89e8811115610e0b576040516333a3bdff60e21b815260040160405180910390fd5b600081600116600003610e2257600160801b610e34565b6ffffcb933bd6fad37aa2d162d1a5940015b6001600160881b031690506002821615610e5e576ffff97272373d413259a46990580e213a0260801c5b6004821615610e7d576ffff2e50f5f656932ef12357cf3c7fdcc0260801c5b6008821615610e9c576fffe5caca7e10e4e61c3624eaa0941cd00260801c5b6010821615610ebb576fffcb9843d60f6159c9db58835c9266440260801c5b6020821615610eda576fff973b41fa98c081472e6896dfb254c00260801c5b6040821615610ef9576fff2ea16466c96a3843ec78b326b528610260801c5b6080821615610f18576ffe5dee046a99a2a811c461f1969c30530260801c5b610100821615610f38576ffcbe86c7900a88aedcffc83b479aa3a40260801c5b610200821615610f58576ff987a7253ac413176f2b074cf7815e540260801c5b610400821615610f78576ff3392b0822b70005940c7a398e4b70f30260801c5b610800821615610f98576fe7159475a2c29b7443b29c7fa6e889d90260801c5b611000821615610fb8576fd097f3bdfd2022b8845ad8f792aa58250260801c5b612000821615610fd8576fa9f746462d870fdf8a65dc1f90e061e50260801c5b614000821615610ff8576f70d869a156d2a1b890bb3df62baf32f70260801c5b618000821615611018576f31be135f97d08fd981231505542fcfa60260801c5b62010000821615611039576f09aa508b5b7a84e1c677de54f3e99bc90260801c5b62020000821615611059576e5d6af8dedb81196699c329225ee6040260801c5b62040000821615611078576d2216e584f5fa1ea926041bedfe980260801c5b62080000821615611095576b048a170391f7dc42444e8fa20260801c5b60008460020b13156110b65780600019816110b2576110b26121a5565b0490505b600160201b8106156110c95760016110cc565b60005b60ff16602082901c0192505050919050565b60006110ed868686868661131b565b9695505050505050565b600080600080611105610ca8565b80546000878152600183016020526040908190209051633cf3645360e21b81529293506001600160a01b039091169163f3cd914c91611149918a91906004016121d0565b6020604051808303816000875af1158015611168573d6000803e3d6000fd5b505050506040513d601f19601f8201168201806040525081019061118c9190611f38565b60038201805491935060006111a08361217e565b909155505085516111ba906111b58460801c90565b6113dc565b6111c986602001516111b58490565b6111d38260801c90565b9350909150505b9250929050565b6000806000806111ef610ca8565b805460008781526002830160205260409081902090516330d7224d60e11b81529293506001600160a01b03909116916361ae449a91611233918a919060040161221b565b6020604051808303816000875af1158015611252573d6000803e3d6000fd5b505050506040513d601f19601f820116820180604052508101906112769190611f38565b60048201805491935060006111a08361217e565b604080516001600160a01b038416602482015260448082018490528251808303909101815260649091019091526020810180516001600160e01b031663a9059cbb60e01b1790526112dc9084906115a7565b505050565b600080826001600160a01b0316846001600160a01b031610156113085750829050816111da565b50819050826111da565b61015f81611681565b6000836001600160a01b0316856001600160a01b0316111561133b579293925b846001600160a01b0316866001600160a01b0316116113665761135f8585856116a2565b90506113d3565b836001600160a01b0316866001600160a01b031610156113c857600061138d8786866116a2565b9050600061139c878986611717565b9050806001600160801b0316826001600160801b0316106113bd57806113bf565b815b925050506113d3565b6110ed858584611717565b95945050505050565b60006113e6610ca8565b9050600082600f0b12156114845780546001600160a01b0316630b0d9c09843061140f8661215b565b6040516001600160e01b031960e086901b1681526001600160a01b0393841660048201529290911660248301526001600160801b03166044820152606401600060405180830381600087803b15801561146757600080fd5b505af115801561147b573d6000803e3d6000fd5b50505050505050565b6001600160a01b038316611515578054604051636a256b2960e01b81526001600160a01b0390911690636a256b29906001600160801b038516906114cc908790600401611f24565b60206040518083038185885af11580156114ea573d6000803e3d6000fd5b50505050506040513d601f19601f8201168201806040525081019061150f9190611f38565b50505050565b80546115359084906001600160a01b03166001600160801b03851661128a565b8054604051636a256b2960e01b81526001600160a01b0390911690636a256b2990611564908690600401611f24565b6020604051808303816000875af1158015611583573d6000803e3d6000fd5b505050506040513d601f19601f8201168201806040525081019061150f9190611f38565b60006115fc826040518060400160405280602081526020017f5361666545524332303a206c6f772d6c6576656c2063616c6c206661696c6564815250856001600160a01b03166117559092919063ffffffff16565b905080516000148061161d57508080602001905181019061161d919061225e565b6112dc5760405162461bcd60e51b815260206004820152602a60248201527f5361666545524332303a204552433230206f7065726174696f6e20646964206e6044820152691bdd081cdd58d8d9595960b21b60648201526084015b60405180910390fd5b60006a636f6e736f6c652e6c6f679050600080835160208501845afa505050565b6000826001600160a01b0316846001600160a01b031611156116c2579192915b60006116e5856001600160a01b0316856001600160a01b0316600160601b611764565b905061170c61170784836116f98989611d33565b6001600160a01b0316611764565b6118dd565b9150505b9392505050565b6000826001600160a01b0316846001600160a01b03161115611737579192915b61174d61170783600160601b6116f98888611d33565b949350505050565b606061174d84846000856118f8565b600080806000198587098587029250828110838203039150508060000361179d576000841161179257600080fd5b508290049050611710565b8084116117a957600080fd5b60008486880980840393811190920391905060006117c986196001612280565b86169586900495938490049360008190030460010190506117ea8184612293565b9093179260006117fb876003612293565b600218905061180a8188612293565b6118159060026122aa565b61181f9082612293565b905061182b8188612293565b6118369060026122aa565b6118409082612293565b905061184c8188612293565b6118579060026122aa565b6118619082612293565b905061186d8188612293565b6118789060026122aa565b6118829082612293565b905061188e8188612293565b6118999060026122aa565b6118a39082612293565b90506118af8188612293565b6118ba9060026122aa565b6118c49082612293565b90506118d08186612293565b9998505050505050505050565b806001600160801b03811681146118f357600080fd5b919050565b6060824710156119595760405162461bcd60e51b815260206004820152602660248201527f416464726573733a20696e73756666696369656e742062616c616e636520666f6044820152651c8818d85b1b60d21b6064820152608401611678565b600080866001600160a01b0316858760405161197591906122bd565b60006040518083038185875af1925050503d80600081146119b2576040519150601f19603f3d011682016040523d82523d6000602084013e6119b7565b606091505b50915091506119c8878383876119d3565b979650505050505050565b60608315611a42578251600003611a3b576001600160a01b0385163b611a3b5760405162461bcd60e51b815260206004820152601d60248201527f416464726573733a2063616c6c20746f206e6f6e2d636f6e74726163740000006044820152606401611678565b508161174d565b61174d8383815115611a575781518083602001fd5b8060405162461bcd60e51b81526004016116789190611c33565b6001600160a01b038116811461015f57600080fd5b600080600060608486031215611a9b57600080fd5b8335611aa681611a71565b92506020840135611ab681611a71565b929592945050506040919091013590565b8060020b811461015f57600080fd5b60008060008060008060c08789031215611aef57600080fd5b8635611afa81611a71565b95506020870135611b0a81611a71565b94506040870135611b1a81611ac7565b93506060870135611b2a81611ac7565b9598949750929560808101359460a0909101359350915050565b600060208284031215611b5657600080fd5b813561171081611a71565b60008083601f840112611b7357600080fd5b5081356001600160401b03811115611b8a57600080fd5b6020830191508360208285010111156111da57600080fd5b60008060208385031215611bb557600080fd5b82356001600160401b03811115611bcb57600080fd5b611bd785828601611b61565b90969095509350505050565b60005b83811015611bfe578181015183820152602001611be6565b50506000910152565b60008151808452611c1f816020860160208601611be3565b601f01601f19169290920160200192915050565b60208152600061016e6020830184611c07565b600080600080600060808688031215611c5e57600080fd5b8535611c6981611a71565b94506020860135611c7981611a71565b93506040860135611c8981611a71565b925060608601356001600160401b03811115611ca457600080fd5b611cb088828901611b61565b969995985093965092949392505050565b60008060008060808587031215611cd757600080fd5b8435611ce281611a71565b93506020850135611cf281611a71565b92506040850135611d0281611ac7565b91506060850135611d1281611ac7565b939692955090935050565b634e487b7160e01b600052601160045260246000fd5b6001600160a01b03828116828216039080821115611d5357611d53611d1d565b5092915050565b6001600160a01b03818116838216019080821115611d5357611d53611d1d565b80516001600160a01b03908116835260208083015182169084015260408083015162ffffff169084015260608083015160020b9084015260809182015116910152565b634e487b7160e01b600052602160045260246000fd5b6001600160a01b03851681526101008101611df16020830186611d7a565b60028410611e0f57634e487b7160e01b600052602160045260246000fd5b60c082019390935260e0015292915050565b634e487b7160e01b600052604160045260246000fd5b60405160a081016001600160401b0381118282101715611e5957611e59611e21565b60405290565b600060208284031215611e7157600080fd5b81516001600160401b0380821115611e8857600080fd5b818401915084601f830112611e9c57600080fd5b815181811115611eae57611eae611e21565b604051601f8201601f19908116603f01168101908382118183101715611ed657611ed6611e21565b81604052828152876020848701011115611eef57600080fd5b6119c8836020830160208801611be3565b60008060408385031215611f1357600080fd5b505080516020909101519092909150565b6001600160a01b0391909116815260200190565b600060208284031215611f4a57600080fd5b5051919050565b62ffffff8116811461015f57600080fd5b60008060008060808587031215611f7857600080fd5b8451611f8381611a71565b6020860151909450611f9481611ac7565b6040860151909350611fa581611f51565b6060860151909250611d1281611f51565b8051600f81900b81146118f357600080fd5b60008060408385031215611fdb57600080fd5b611fe483611fb6565b9150611ff260208401611fb6565b90509250929050565b8035600281106118f357600080fd5b60008060008084860361010081121561202257600080fd5b853561202d81611a71565b945060a0601f198201121561204157600080fd5b5061204a611e37565b602086013561205881611a71565b8152604086013561206881611a71565b6020820152606086013561207b81611f51565b6040820152608086013561208e81611ac7565b606082015260a08601356120a181611a71565b608082015292506120b460c08601611ffb565b9396929550929360e00135925050565b6120ce8186611d7a565b6001600160a01b03841660a082015260e060c08201819052810182905260006101008385828501376000838501820152601f909301601f1916909101909101949350505050565b60006020828403121561212757600080fd5b815161171081611ac7565b60006020828403121561214457600080fd5b81516001600160801b038116811461171057600080fd5b6000600f82900b6001607f1b810161217557612175611d1d565b60000392915050565b60006001820161219057612190611d1d565b5060010190565b60a081016101718284611d7a565b634e487b7160e01b600052601260045260246000fd5b6002815261060f60f31b602082015260400190565b60006101206121df8386611d7a565b835460ff16151560a0840152600184015460c084015260028401546001600160a01b031660e0840152610100830181905261170c8184016121bb565b600061012061222a8386611d7a565b83548060020b60a08501528060181c60020b60c085015250600184015460e08401528061010084015261170c8184016121bb565b60006020828403121561227057600080fd5b8151801515811461171057600080fd5b8082018082111561017157610171611d1d565b808202811582820484141761017157610171611d1d565b8181038181111561017157610171611d1d565b600082516122cf818460208701611be3565b919091019291505056fea26469706673582212201afc4f527496e5a5881c1c28b374290707ace10982e6abe60533849884af4cb864736f6c63430008140033",
  "linkReferences": {},
  "deployedLinkReferences": {}
}