{
  "_format": "hh-sol-artifact-1",
  "contractName": "UniswapFacet",
  "sourceName": "contracts/Facets/UniswapFacet.sol",
  "abi": [
    {
      "inputs": [],
      "name": "InvalidTick",
      "type": "error"
    },
    {
      "inputs": [
        {
          "internalType": "address",
          "name": "token0",
          "type": "address"
        },
        {
          "internalType": "address",
          "name": "token1",
          "type": "address"
        },
        {
          "internalType": "int24",
          "name": "tickLower",
          "type": "int24"
        },
        {
          "internalType": "int24",
          "name": "tickUpper",
          "type": "int24"
        },
        {
          "internalType": "uint256",
          "name": "token0Amount",
          "type": "uint256"
        },
        {
          "internalType": "uint256",
          "name": "token1Amount",
          "type": "uint256"
        }
      ],
      "name": "addLiquidty",
      "outputs": [
        {
          "internalType": "int256",
          "name": "token0Used",
          "type": "int256"
        },
        {
          "internalType": "int256",
          "name": "token1Used",
          "type": "int256"
        }
      ],
      "stateMutability": "nonpayable",
      "type": "function"
    },
    {
      "inputs": [
        {
          "internalType": "address",
          "name": "token0",
          "type": "address"
        },
        {
          "internalType": "address",
          "name": "token1",
          "type": "address"
        },
        {
          "internalType": "int24",
          "name": "lowerBound",
          "type": "int24"
        },
        {
          "internalType": "int24",
          "name": "upperBound",
          "type": "int24"
        }
      ],
      "name": "closePosition",
      "outputs": [
        {
          "internalType": "int256",
          "name": "token0Amount",
          "type": "int256"
        },
        {
          "internalType": "int256",
          "name": "token1Amount",
          "type": "int256"
        }
      ],
      "stateMutability": "nonpayable",
      "type": "function"
    },
    {
      "inputs": [
        {
          "internalType": "address",
          "name": "token0",
          "type": "address"
        },
        {
          "internalType": "address",
          "name": "token1",
          "type": "address"
        }
      ],
      "name": "getPoolLiquidity",
      "outputs": [
        {
          "internalType": "uint128",
          "name": "",
          "type": "uint128"
        }
      ],
      "stateMutability": "view",
      "type": "function"
    },
    {
      "inputs": [
        {
          "internalType": "int24",
          "name": "tick",
          "type": "int24"
        }
      ],
      "name": "getSqrtAtTick",
      "outputs": [
        {
          "internalType": "uint160",
          "name": "",
          "type": "uint160"
        }
      ],
      "stateMutability": "pure",
      "type": "function"
    },
    {
      "inputs": [
        {
          "internalType": "address",
          "name": "token0",
          "type": "address"
        },
        {
          "internalType": "address",
          "name": "token1",
          "type": "address"
        },
        {
          "internalType": "uint160",
          "name": "poolStartPrice",
          "type": "uint160"
        },
        {
          "internalType": "address",
          "name": "hook",
          "type": "address"
        },
        {
          "internalType": "bytes",
          "name": "hookData",
          "type": "bytes"
        }
      ],
      "name": "initializePool",
      "outputs": [],
      "stateMutability": "nonpayable",
      "type": "function"
    },
    {
      "inputs": [
        {
          "internalType": "bytes",
          "name": "data",
          "type": "bytes"
        }
      ],
      "name": "lockAcquired",
      "outputs": [
        {
          "internalType": "bytes",
          "name": "",
          "type": "bytes"
        }
      ],
      "stateMutability": "nonpayable",
      "type": "function"
    },
    {
      "inputs": [],
      "name": "returnBounds",
      "outputs": [
        {
          "internalType": "uint160",
          "name": "lower",
          "type": "uint160"
        },
        {
          "internalType": "uint160",
          "name": "upper",
          "type": "uint160"
        }
      ],
      "stateMutability": "view",
      "type": "function"
    },
    {
      "inputs": [
        {
          "internalType": "address",
          "name": "managerAddy",
          "type": "address"
        }
      ],
      "name": "setPoolManager",
      "outputs": [],
      "stateMutability": "nonpayable",
      "type": "function"
    },
    {
      "inputs": [
        {
          "internalType": "address",
          "name": "tokenFrom",
          "type": "address"
        },
        {
          "internalType": "address",
          "name": "tokenTo",
          "type": "address"
        },
        {
          "internalType": "int256",
          "name": "amount",
          "type": "int256"
        }
      ],
      "name": "swap",
      "outputs": [
        {
          "internalType": "int256",
          "name": "token0Amount",
          "type": "int256"
        },
        {
          "internalType": "int256",
          "name": "token1Amount",
          "type": "int256"
        },
        {
          "internalType": "bool",
          "name": "zeroForOne",
          "type": "bool"
        }
      ],
      "stateMutability": "nonpayable",
      "type": "function"
    }
  ],
  "bytecode": "0x608060405234801561001057600080fd5b50613136806100206000396000f3fe608060405234801561001057600080fd5b50600436106100835760003560e01c80631ff0c325146100885780635f7acbdc146100bd578063616c1cc3146100d25780637aef6715146100fa578063ab6291fe1461010d578063afe7f5a11461012d578063b4becbed14610155578063b82197ed14610175578063bee000ce14610188575b600080fd5b61009b61009636600461283a565b6101b3565b6040805193845260208401929092521515908201526060015b60405180910390f35b6100d06100cb3660046128bc565b6101d2565b005b6100e56100e0366004612958565b6101e8565b604080519283526020830191909152016100b4565b6100d06101083660046129c6565b610208565b61012061011b3660046129e3565b610214565b6040516100b49190612a74565b610135610229565b604080516001600160a01b039384168152929091166020830152016100b4565b610168610163366004612a87565b61023c565b6040516100b49190612aa4565b6100e5610183366004612ab8565b610247565b61019b610196366004612b14565b610268565b6040516001600160801b0390911681526020016100b4565b60008060006101c3868686610274565b92509250925093509350939050565b6101e086868686868661048f565b505050505050565b6000806101f98888888888886105e2565b91509150965096945050505050565b610211816108e1565b50565b6060610220838361090d565b90505b92915050565b600080610234610ae5565b915091509091565b600061022382610b7f565b60008061025686868686610b8a565b600f91820b98910b9650945050505050565b60006102208383610e03565b600080600080610282610f1d565b905060008060006102938a8a610f41565b6001600160a01b038083166000908152600789016020908152604080832084861684528252808320815160a08101835281548616815260018201548087168286015262ffffff600160a01b82041682850152600160b81b9004600290810b60608084019190915292015490951660808601528151908101825287151581529182018f90529598509396509194509290919081018661034f5761034a600173fffd8963efd1fc6a506488495d951d5263988d26612b63565b61035f565b61035f6401000276a36001612b8a565b6001600160a01b0390811690915260048801805460009081526001808b01602090815260408084208751815460ff1916901515178155878301519381019390935586810151600290930180546001600160a01b031916938716939093179092558b5493549151959650919492909316926381548319926103e59233928992889201612c03565b6040516020818303038152906040526040518263ffffffff1660e01b81526004016104109190612a74565b6000604051808303816000875af115801561042f573d6000803e3d6000fd5b505050506040513d6000823e601f3d908101601f191682016040526104579190810190612c8f565b9050600080828060200190518101906104709190612d42565b600f91820b9d50900b9a50969850505050505050505093509350939050565b6000610499610f1d565b6040805160a0810182526001600160a01b038a81168083528a82166020808501828152610bb8868801908152603c606088019081528d871660808901908152600096875260078b0185528987209587529490935293879020865181549087166001600160a01b031991821617825591516001820180549651945162ffffff908116600160b81b0262ffffff60b81b1991909616600160a01b026001600160b81b031990981692891692909217969096171692909217909355905160029091018054918416919092161790558354925163695c5bf560e01b8152939450909291169063695c5bf5906105949084908a9089908990600401612d75565b6020604051808303816000875af11580156105b3573d6000803e3d6000fd5b505050506040513d601f19601f820116820180604052508101906105d79190612dc6565b505050505050505050565b60008060006105ef610f1d565b90506105fd89898787610f7f565b6001600160a01b038085166000908152600787016020908152604080832084881684528252808320815160a08101835281548616815260018201548087169482019490945262ffffff600160a01b85041692810192909252600160b81b909204600290810b6060830152909101549092166080830152949d50929b5090975095509061068882610fc6565b3360009081526006850160209081526040808320815160608101835260028f810b82528e810b8286019081528285018881528454600181810187559589529688209351969092029092018054925162ffffff90811663010000000265ffffffffffff199094169616959095179190911784555192019190915585549051633205590760e21b815292935090916001600160a01b03919091169063c815641c9061073990859060040190815260200190565b608060405180830381865afa158015610756573d6000803e3d6000fd5b505050506040513d601f19601f8201168201806040525081019061077a9190612df4565b5050509050600061079e61078d8c610ff6565b6107968c610ff6565b848c8c61130e565b6040805160608101825260028e810b82528d810b6020808401918252600f9590950b83850181815260058c0180546000908152948d01885286852086518154955162ffffff90811663010000000265ffffffffffff1990971691161794909417845590516001938401558b5490549551919750939592946001600160a01b03909416936381548319936108379333938d93919201612c03565b6040516020818303038152906040526040518263ffffffff1660e01b81526004016108629190612a74565b6000604051808303816000875af1158015610881573d6000803e3d6000fd5b505050506040513d6000823e601f3d908101601f191682016040526108a99190810190612c8f565b9050600080828060200190518101906108c29190612d42565b600f91820b9c50900b9950505050505050505050965096945050505050565b60006108eb610f1d565b80546001600160a01b0319166001600160a01b03939093169290921790915550565b6060600080808061092086880188612e57565b929650909450925090506000808084600481111561094057610940612bed565b036109595761094f8584611327565b9092509050610a00565b600184600481111561096d5761096d612bed565b0361097c5761094f8584611411565b600284600481111561099057610990612bed565b036109d1576109c16040518060400160405280600b81526020016a576861747320676f696e6760a81b8152506114ba565b6109cc8584886114fd565b610a00565b60038460048111156109e5576109e5612bed565b036109f5576109cc8584886117d2565b610a00858488611a8a565b60408051600f84810b602083015283900b81830152815180820383018152606082019283905287516370a0823160e01b9093529850610aa1919088906001600160a01b038316906370a0823190610a5b903090606401612aa4565b602060405180830381865afa158015610a78573d6000803e3d6000fd5b505050506040513d601f19601f82011682018060405250810190610a9c9190612f11565b611c9d565b60208501516040516370a0823160e01b8152610ad9919088906001600160a01b038316906370a0823190610a5b903090600401612aa4565b50505050505092915050565b6000806000610af2610f1d565b30600090815260068201602052604081208054929350610b3392909190610b1b57610b1b612f2a565b6000918252602090912060029182020154900b610ff6565b30600090815260068301602052604081208054610b769290610b5757610b57612f2a565b600091825260209091206002918202015463010000009004900b610ff6565b92509250509091565b600061022382610ff6565b6000806000610b97610f1d565b9050610ba38787611cf8565b6001600160a01b038083166000908152600785016020908152604080832084861684528252808320815160a08101835281548616815260018201548087169482019490945262ffffff600160a01b85041692810192909252600160b81b909204600290810b606083015290910154831660808201528554949b509299509192166333aa955b610c3184610fc6565b6040516001600160e01b031960e084901b168152600481019190915230602482015260028a810b604483015289900b6064820152608401602060405180830381865afa158015610c85573d6000803e3d6000fd5b505050506040513d601f19601f82011682018060405250810190610ca99190612f40565b905060405180606001604052808860020b81526020018760020b815260200182610cd290612f69565b600f0b905260058401805460009081526002860160209081526040808320855181548785015162ffffff90811663010000000265ffffffffffff199092169216919091171781559481015160019586015587549354905192946001600160a01b0390941693638154831993610d4e9333938a9392909101612c03565b6040516020818303038152906040526040518263ffffffff1660e01b8152600401610d799190612a74565b6000604051808303816000875af1158015610d98573d6000803e3d6000fd5b505050506040513d6000823e601f3d908101601f19168201604052610dc09190810190612c8f565b6005850180549192506000610dd483612f8c565b919050555060008082806020019051810190610df09190612d42565b909d909c509a5050505050505050505050565b600080610e0e610f1d565b9050610e1a8484611cf8565b6001600160a01b038083166000908152600785016020908152604080832084861684528252808320815160a08101835281548616815260018201548087169482019490945262ffffff600160a01b85041692810192909252600160b81b909204600290810b606083015290910154909216608083015292965090945090610ea082610fc6565b835460405163fa6793d560e01b8152600481018390529192506000916001600160a01b039091169063fa6793d590602401602060405180830381865afa158015610eee573d6000803e3d6000fd5b505050506040513d601f19601f82011682018060405250810190610f129190612f40565b979650505050505050565b7f35c2975ab7d5366802ce2593b15dfef7ba0fb48f04ca0c021c862e3ccd408ea590565b6000806000836001600160a01b0316856001600160a01b03161015610f6e57506001915083905082610f78565b5060009150829050835b9250925092565b600080600080866001600160a01b0316886001600160a01b03161015610faf575086925085915084905083610fbb565b50859250869150839050845b945094509450949050565b600081604051602001610fd99190612fa5565b604051602081830303815290604052805190602001209050919050565b60008060008360020b1261100d578260020b611015565b8260020b6000035b9050620d89e881111561103b576040516333a3bdff60e21b815260040160405180910390fd5b60008160011660000361105257600160801b611064565b6ffffcb933bd6fad37aa2d162d1a5940015b6001600160881b03169050600282161561108e576ffff97272373d413259a46990580e213a0260801c5b60048216156110ad576ffff2e50f5f656932ef12357cf3c7fdcc0260801c5b60088216156110cc576fffe5caca7e10e4e61c3624eaa0941cd00260801c5b60108216156110eb576fffcb9843d60f6159c9db58835c9266440260801c5b602082161561110a576fff973b41fa98c081472e6896dfb254c00260801c5b6040821615611129576fff2ea16466c96a3843ec78b326b528610260801c5b6080821615611148576ffe5dee046a99a2a811c461f1969c30530260801c5b610100821615611168576ffcbe86c7900a88aedcffc83b479aa3a40260801c5b610200821615611188576ff987a7253ac413176f2b074cf7815e540260801c5b6104008216156111a8576ff3392b0822b70005940c7a398e4b70f30260801c5b6108008216156111c8576fe7159475a2c29b7443b29c7fa6e889d90260801c5b6110008216156111e8576fd097f3bdfd2022b8845ad8f792aa58250260801c5b612000821615611208576fa9f746462d870fdf8a65dc1f90e061e50260801c5b614000821615611228576f70d869a156d2a1b890bb3df62baf32f70260801c5b618000821615611248576f31be135f97d08fd981231505542fcfa60260801c5b62010000821615611269576f09aa508b5b7a84e1c677de54f3e99bc90260801c5b62020000821615611289576e5d6af8dedb81196699c329225ee6040260801c5b620400008216156112a8576d2216e584f5fa1ea926041bedfe980260801c5b620800008216156112c5576b048a170391f7dc42444e8fa20260801c5b60008460020b13156112e65780600019816112e2576112e2612fb3565b0490505b600160201b8106156112f95760016112fc565b60005b60ff16602082901c0192505050919050565b600061131d8686868686611d29565b9695505050505050565b600080600080611335610f1d565b80546000878152600183016020526040908190209051633cf3645360e21b81529293506001600160a01b039091169163f3cd914c91611379918a9190600401612fde565b6020604051808303816000875af1158015611398573d6000803e3d6000fd5b505050506040513d601f19601f820116820180604052508101906113bc9190612f11565b60048201805491935060006113d083612f8c565b909155505085516113ea906113e58460801c90565b611dea565b6113f986602001516113e58490565b6114038260801c90565b9350909150505b9250929050565b60008060008061141f610f1d565b805460008781526002830160205260409081902090516330d7224d60e11b81529293506001600160a01b03909116916361ae449a91611463918a9190600401613029565b6020604051808303816000875af1158015611482573d6000803e3d6000fd5b505050506040513d601f19601f820116820180604052508101906114a69190612f11565b60058201805491935060006113d083612f8c565b610211816040516024016114ce9190612a74565b60408051601f198184030181529190526020810180516001600160e01b031663104c13eb60e21b179052611fb6565b6000611507611fbf565b90506000611513610f1d565b6000858152600380830160209081526040808420815160808101835281546001600160a01b0390811682526001808401548216838701526002840154838601529290950154606082015286548b87529187019093528185209151633cf3645360e21b8152959650939491939092169163f3cd914c91611596918b91600401612fde565b6020604051808303816000875af11580156115b5573d6000803e3d6000fd5b505050506040513d601f19601f820116820180604052508101906115d99190612f11565b9150600081600001516001600160a01b031682602001516001600160a01b0316101561161f5761160e88602001516113e58590565b6116188360801c90565b9050611632565b875161162f906113e58560801c90565b50815b815160408301516060840151611651929161164c9161306c565b611fe3565b6116688260200151826001600160801b0316612096565b6040518060a001604052808360400151815260200183606001518152602001826001600160801b0316815260200183600001516001600160a01b0316815260200183602001516001600160a01b03168152508560020160008760030154815260200190815260200160002060008201518160000155602082015181600101556040820151816002015560608201518160030160006101000a8154816001600160a01b0302191690836001600160a01b0316021790555060808201518160040160006101000a8154816001600160a01b0302191690836001600160a01b03160217905550905050846004016000876001600160a01b03166001600160a01b03168152602001908152602001600020856003015490806001815401808255809150506001900390600052602060002001600090919091909150558460030160008154809291906117b590612f8c565b91905055506117c8826020015182611dea565b5050505050505050565b60006117dc6120d2565b905060006117e8610f1d565b6000858152600380830160209081526040808420815160808101835281546001600160a01b0390811682526001808401548216838701526002840154838601529290950154606082015286548b87529187019093528185209151633cf3645360e21b8152959650939491939092169163f3cd914c9161186b918b91600401612fde565b6020604051808303816000875af115801561188a573d6000803e3d6000fd5b505050506040513d601f19601f820116820180604052508101906118ae9190612f11565b9150600081600001516001600160a01b031682602001516001600160a01b031610156118f4576118e388602001516113e58590565b6118ed8360801c90565b9050611907565b8751611904906113e58560801c90565b50815b81516040830151606084015161192692916119219161306c565b6120f6565b61193d8260200151826001600160801b03166121bd565b6040518060a001604052808360400151815260200183606001518152602001826001600160801b0316815260200183600001516001600160a01b0316815260200183602001516001600160a01b03168152508560010160008760020154815260200190815260200160002060008201518160000155602082015181600101556040820151816002015560608201518160030160006101000a8154816001600160a01b0302191690836001600160a01b0316021790555060808201518160040160006101000a8154816001600160a01b0302191690836001600160a01b03160217905550905050846003016000876001600160a01b03166001600160a01b03168152602001908152602001600020856002015490806001815401808255809150506001900390600052602060002001600090919091909150558460020160008154809291906117b590612f8c565b6000611a946120d2565b90506000611aa0610f1d565b6000858152600380830160209081526040808420815160808101835281546001600160a01b0390811682526001808401548216838701526002840154838601529290950154606082015286548b87529187019093528185209151633cf3645360e21b8152959650939491939092169163f3cd914c91611b23918b91600401612fde565b6020604051808303816000875af1158015611b42573d6000803e3d6000fd5b505050506040513d601f19601f82011682018060405250810190611b669190612f11565b9150600081600001516001600160a01b031682602001516001600160a01b03161015611bac57611b9b88602001516113e58590565b611ba58360801c90565b9050611bbf565b8751611bbc906113e58560801c90565b50815b611bd1816001600160801b0316612215565b8151611bdf9060001961225a565b60208201516040516370a0823160e01b8152611c59916001600160a01b0316906370a0823190611c13903090600401612aa4565b602060405180830381865afa158015611c30573d6000803e3d6000fd5b505050506040513d601f19601f82011682018060405250810190611c549190612f11565b612215565b611c698260200151600019612321565b60208201516040516370a0823160e01b815261193d916001600160a01b0316906370a0823190611c13903090600401612aa4565b611cf38363a9059cbb60e01b8484604051602401611cbc92919061307f565b60408051601f198184030181529190526020810180516001600160e01b03166001600160e01b03199093169290921790915261236b565b505050565b600080826001600160a01b0316846001600160a01b03161015611d1f57508290508161140a565b508190508261140a565b6000836001600160a01b0316856001600160a01b03161115611d49579293925b846001600160a01b0316866001600160a01b031611611d7457611d6d858585612445565b9050611de1565b836001600160a01b0316866001600160a01b03161015611dd6576000611d9b878686612445565b90506000611daa8789866124ba565b9050806001600160801b0316826001600160801b031610611dcb5780611dcd565b815b92505050611de1565b61131d8585846124ba565b95945050505050565b6000611df4610f1d565b9050600082600f0b1215611e935780546001600160a01b0316630b0d9c098430611e1d86612f69565b6040516001600160e01b031960e086901b1681526001600160a01b0393841660048201529290911660248301526001600160801b031660448201526064015b600060405180830381600087803b158015611e7657600080fd5b505af1158015611e8a573d6000803e3d6000fd5b50505050505050565b6001600160a01b038316611f24578054604051636a256b2960e01b81526001600160a01b0390911690636a256b29906001600160801b03851690611edb908790600401612aa4565b60206040518083038185885af1158015611ef9573d6000803e3d6000fd5b50505050506040513d601f19601f82011682018060405250810190611f1e9190612f11565b50505050565b8054611f449084906001600160a01b03166001600160801b038516611c9d565b8054604051636a256b2960e01b81526001600160a01b0390911690636a256b2990611f73908690600401612aa4565b6020604051808303816000875af1158015611f92573d6000803e3d6000fd5b505050506040513d601f19601f82011682018060405250810190611f1e9190612f11565b610211816124f8565b7fe5fae1d1655caf6698b8b944506b14651a3f414f8a67caa7b6a42e32816e934090565b6000611fed611fbf565b805460405163095ea7b360e01b81529192506001600160a01b038086169263095ea7b392612021921690869060040161307f565b6020604051808303816000875af1158015612040573d6000803e3d6000fd5b505050506040513d601f19601f820116820180604052508101906120649190613098565b508054604051631e573fb760e31b81526001600160a01b039091169063f2b9fdb890611e5c908690869060040161307f565b60006120a0611fbf565b805460405163f3fef3a360e01b81529192506001600160a01b03169063f3fef3a390611e5c908690869060040161307f565b7fbd9b63cad2056a2132e010a4fbc483bbe85b10ec55651a56b347929db5cb470690565b60006121006120d2565b805460405163095ea7b360e01b81529192506001600160a01b038086169263095ea7b392612134921690869060040161307f565b6020604051808303816000875af1158015612153573d6000803e3d6000fd5b505050506040513d601f19601f820116820180604052508101906121779190613098565b50805460405163617ba03760e01b81526001600160a01b03858116600483015260248201859052306044830152600060648301529091169063617ba03790608401611e5c565b60006121c76120d2565b805460405163a415bcad60e01b81526001600160a01b03868116600483015260248201869052600260448301526000606483015230608483015292935091169063a415bcad9060a401611e5c565b6102118160405160240161222b91815260200190565b60408051601f198184030181529190526020810180516001600160e01b031663f82c50f160e01b179052611fb6565b60006122646120d2565b805460405163095ea7b360e01b81529192506001600160a01b038086169263095ea7b392612298921690869060040161307f565b6020604051808303816000875af11580156122b7573d6000803e3d6000fd5b505050506040513d601f19601f820116820180604052508101906122db9190613098565b50805460405163573ade8160e01b81526001600160a01b03858116600483015260248201859052600260448301523060648301529091169063573ade8190608401611f73565b600061232b6120d2565b8054604051631a4ca37b60e21b81526001600160a01b038681166004830152602482018690523060448301529293509116906369328dec90606401611f73565b60006123c0826040518060400160405280602081526020017f5361666545524332303a206c6f772d6c6576656c2063616c6c206661696c6564815250856001600160a01b03166125199092919063ffffffff16565b90508051600014806123e15750808060200190518101906123e19190613098565b611cf35760405162461bcd60e51b815260206004820152602a60248201527f5361666545524332303a204552433230206f7065726174696f6e20646964206e6044820152691bdd081cdd58d8d9595960b21b60648201526084015b60405180910390fd5b6000826001600160a01b0316846001600160a01b03161115612465579192915b6000612488856001600160a01b0316856001600160a01b0316600160601b612528565b90506124af6124aa848361249c8989612b63565b6001600160a01b0316612528565b6126a1565b9150505b9392505050565b6000826001600160a01b0316846001600160a01b031611156124da579192915b6124f06124aa83600160601b61249c8888612b63565b949350505050565b60006a636f6e736f6c652e6c6f679050600080835160208501845afa505050565b60606124f084846000856126bc565b6000808060001985870985870292508281108382030391505080600003612561576000841161255657600080fd5b5082900490506124b3565b80841161256d57600080fd5b600084868809808403938111909203919050600061258d8619600161306c565b86169586900495938490049360008190030460010190506125ae81846130ba565b9093179260006125bf8760036130ba565b60021890506125ce81886130ba565b6125d99060026130d1565b6125e390826130ba565b90506125ef81886130ba565b6125fa9060026130d1565b61260490826130ba565b905061261081886130ba565b61261b9060026130d1565b61262590826130ba565b905061263181886130ba565b61263c9060026130d1565b61264690826130ba565b905061265281886130ba565b61265d9060026130d1565b61266790826130ba565b905061267381886130ba565b61267e9060026130d1565b61268890826130ba565b905061269481866130ba565b9998505050505050505050565b806001600160801b03811681146126b757600080fd5b919050565b60608247101561271d5760405162461bcd60e51b815260206004820152602660248201527f416464726573733a20696e73756666696369656e742062616c616e636520666f6044820152651c8818d85b1b60d21b606482015260840161243c565b600080866001600160a01b0316858760405161273991906130e4565b60006040518083038185875af1925050503d8060008114612776576040519150601f19603f3d011682016040523d82523d6000602084013e61277b565b606091505b5091509150610f1287838387606083156127f65782516000036127ef576001600160a01b0385163b6127ef5760405162461bcd60e51b815260206004820152601d60248201527f416464726573733a2063616c6c20746f206e6f6e2d636f6e7472616374000000604482015260640161243c565b50816124f0565b6124f0838381511561280b5781518083602001fd5b8060405162461bcd60e51b815260040161243c9190612a74565b6001600160a01b038116811461021157600080fd5b60008060006060848603121561284f57600080fd5b833561285a81612825565b9250602084013561286a81612825565b929592945050506040919091013590565b60008083601f84011261288d57600080fd5b5081356001600160401b038111156128a457600080fd5b60208301915083602082850101111561140a57600080fd5b60008060008060008060a087890312156128d557600080fd5b86356128e081612825565b955060208701356128f081612825565b9450604087013561290081612825565b9350606087013561291081612825565b925060808701356001600160401b0381111561292b57600080fd5b61293789828a0161287b565b979a9699509497509295939492505050565b8060020b811461021157600080fd5b60008060008060008060c0878903121561297157600080fd5b863561297c81612825565b9550602087013561298c81612825565b9450604087013561299c81612949565b935060608701356129ac81612949565b9598949750929560808101359460a0909101359350915050565b6000602082840312156129d857600080fd5b81356124b381612825565b600080602083850312156129f657600080fd5b82356001600160401b03811115612a0c57600080fd5b612a188582860161287b565b90969095509350505050565b60005b83811015612a3f578181015183820152602001612a27565b50506000910152565b60008151808452612a60816020860160208601612a24565b601f01601f19169290920160200192915050565b6020815260006102206020830184612a48565b600060208284031215612a9957600080fd5b81356124b381612949565b6001600160a01b0391909116815260200190565b60008060008060808587031215612ace57600080fd5b8435612ad981612825565b93506020850135612ae981612825565b92506040850135612af981612949565b91506060850135612b0981612949565b939692955090935050565b60008060408385031215612b2757600080fd5b8235612b3281612825565b91506020830135612b4281612825565b809150509250929050565b634e487b7160e01b600052601160045260246000fd5b6001600160a01b03828116828216039080821115612b8357612b83612b4d565b5092915050565b6001600160a01b03818116838216019080821115612b8357612b83612b4d565b80516001600160a01b03908116835260208083015182169084015260408083015162ffffff169084015260608083015160020b9084015260809182015116910152565b634e487b7160e01b600052602160045260246000fd5b6001600160a01b03851681526101008101612c216020830186612baa565b60058410612c3f57634e487b7160e01b600052602160045260246000fd5b60c082019390935260e0015292915050565b634e487b7160e01b600052604160045260246000fd5b60405160a081016001600160401b0381118282101715612c8957612c89612c51565b60405290565b600060208284031215612ca157600080fd5b81516001600160401b0380821115612cb857600080fd5b818401915084601f830112612ccc57600080fd5b815181811115612cde57612cde612c51565b604051601f8201601f19908116603f01168101908382118183101715612d0657612d06612c51565b81604052828152876020848701011115612d1f57600080fd5b610f12836020830160208801612a24565b8051600f81900b81146126b757600080fd5b60008060408385031215612d5557600080fd5b612d5e83612d30565b9150612d6c60208401612d30565b90509250929050565b612d7f8186612baa565b6001600160a01b03841660a082015260e060c08201819052810182905260006101008385828501376000838501820152601f909301601f1916909101909101949350505050565b600060208284031215612dd857600080fd5b81516124b381612949565b62ffffff8116811461021157600080fd5b60008060008060808587031215612e0a57600080fd5b8451612e1581612825565b6020860151909450612e2681612949565b6040860151909350612e3781612de3565b6060860151909250612b0981612de3565b8035600581106126b757600080fd5b600080600080848603610100811215612e6f57600080fd5b8535612e7a81612825565b945060a0601f1982011215612e8e57600080fd5b50612e97612c67565b6020860135612ea581612825565b81526040860135612eb581612825565b60208201526060860135612ec881612de3565b60408201526080860135612edb81612949565b606082015260a0860135612eee81612825565b60808201529250612f0160c08601612e48565b9396929550929360e00135925050565b600060208284031215612f2357600080fd5b5051919050565b634e487b7160e01b600052603260045260246000fd5b600060208284031215612f5257600080fd5b81516001600160801b03811681146124b357600080fd5b6000600f82900b6001607f1b8101612f8357612f83612b4d565b60000392915050565b600060018201612f9e57612f9e612b4d565b5060010190565b60a081016102238284612baa565b634e487b7160e01b600052601260045260246000fd5b6002815261060f60f31b602082015260400190565b6000610120612fed8386612baa565b835460ff16151560a0840152600184015460c084015260028401546001600160a01b031660e084015261010083018190526124af818401612fc9565b60006101206130388386612baa565b83548060020b60a08501528060181c60020b60c085015250600184015460e0840152806101008401526124af818401612fc9565b8082018082111561022357610223612b4d565b6001600160a01b03929092168252602082015260400190565b6000602082840312156130aa57600080fd5b815180151581146124b357600080fd5b808202811582820484141761022357610223612b4d565b8181038181111561022357610223612b4d565b600082516130f6818460208701612a24565b919091019291505056fea264697066735822122094ed944bb990cda853ec04f49d2677d02abd4f2d645a358853bb7e288ce3917564736f6c63430008140033",
  "linkReferences": {},
  "deployedLinkReferences": {}
}