{
  "_format": "hh-sol-artifact-1",
  "contractName": "UniswapFacet",
  "sourceName": "contracts/Facets/UniswapFacet.sol",
  "abi": [
    {
      "inputs": [],
      "name": "InvalidTick",
      "type": "error"
    },
    {
      "inputs": [
        {
          "internalType": "address",
          "name": "token0",
          "type": "address"
        },
        {
          "internalType": "address",
          "name": "token1",
          "type": "address"
        },
        {
          "internalType": "int24",
          "name": "tickLower",
          "type": "int24"
        },
        {
          "internalType": "int24",
          "name": "tickUpper",
          "type": "int24"
        },
        {
          "internalType": "uint256",
          "name": "token0Amount",
          "type": "uint256"
        },
        {
          "internalType": "uint256",
          "name": "token1Amount",
          "type": "uint256"
        }
      ],
      "name": "addLiquidty",
      "outputs": [
        {
          "internalType": "int256",
          "name": "token0Used",
          "type": "int256"
        },
        {
          "internalType": "int256",
          "name": "token1Used",
          "type": "int256"
        }
      ],
      "stateMutability": "nonpayable",
      "type": "function"
    },
    {
      "inputs": [
        {
          "internalType": "address",
          "name": "token0",
          "type": "address"
        },
        {
          "internalType": "address",
          "name": "token1",
          "type": "address"
        },
        {
          "internalType": "int24",
          "name": "lowerBound",
          "type": "int24"
        },
        {
          "internalType": "int24",
          "name": "upperBound",
          "type": "int24"
        }
      ],
      "name": "closePosition",
      "outputs": [
        {
          "internalType": "int256",
          "name": "token0Amount",
          "type": "int256"
        },
        {
          "internalType": "int256",
          "name": "token1Amount",
          "type": "int256"
        }
      ],
      "stateMutability": "nonpayable",
      "type": "function"
    },
    {
      "inputs": [
        {
          "internalType": "address",
          "name": "token0",
          "type": "address"
        },
        {
          "internalType": "address",
          "name": "token1",
          "type": "address"
        }
      ],
      "name": "getPoolLiquidity",
      "outputs": [
        {
          "internalType": "uint128",
          "name": "",
          "type": "uint128"
        }
      ],
      "stateMutability": "view",
      "type": "function"
    },
    {
      "inputs": [
        {
          "internalType": "int24",
          "name": "tick",
          "type": "int24"
        }
      ],
      "name": "getSqrtAtTick",
      "outputs": [
        {
          "internalType": "uint160",
          "name": "",
          "type": "uint160"
        }
      ],
      "stateMutability": "pure",
      "type": "function"
    },
    {
      "inputs": [
        {
          "internalType": "address",
          "name": "token0",
          "type": "address"
        },
        {
          "internalType": "address",
          "name": "token1",
          "type": "address"
        },
        {
          "internalType": "uint160",
          "name": "poolStartPrice",
          "type": "uint160"
        },
        {
          "internalType": "address",
          "name": "hook",
          "type": "address"
        },
        {
          "internalType": "bytes",
          "name": "hookData",
          "type": "bytes"
        }
      ],
      "name": "initializePool",
      "outputs": [],
      "stateMutability": "nonpayable",
      "type": "function"
    },
    {
      "inputs": [
        {
          "internalType": "bytes",
          "name": "data",
          "type": "bytes"
        }
      ],
      "name": "lockAcquired",
      "outputs": [
        {
          "internalType": "bytes",
          "name": "",
          "type": "bytes"
        }
      ],
      "stateMutability": "nonpayable",
      "type": "function"
    },
    {
      "inputs": [
        {
          "internalType": "address",
          "name": "managerAddy",
          "type": "address"
        }
      ],
      "name": "setPoolManager",
      "outputs": [],
      "stateMutability": "nonpayable",
      "type": "function"
    },
    {
      "inputs": [
        {
          "internalType": "address",
          "name": "tokenFrom",
          "type": "address"
        },
        {
          "internalType": "address",
          "name": "tokenTo",
          "type": "address"
        },
        {
          "internalType": "int256",
          "name": "amount",
          "type": "int256"
        }
      ],
      "name": "swap",
      "outputs": [
        {
          "internalType": "int256",
          "name": "token0Amount",
          "type": "int256"
        },
        {
          "internalType": "int256",
          "name": "token1Amount",
          "type": "int256"
        },
        {
          "internalType": "bool",
          "name": "zeroForOne",
          "type": "bool"
        }
      ],
      "stateMutability": "nonpayable",
      "type": "function"
    }
  ],
  "bytecode": "0x608060405234801561001057600080fd5b50612ce2806100206000396000f3fe608060405234801561001057600080fd5b50600436106100785760003560e01c80631ff0c3251461007d5780635f7acbdc146100b2578063616c1cc3146100c75780637aef6715146100ef578063ab6291fe14610102578063b4becbed14610122578063b82197ed14610142578063bee000ce14610155575b600080fd5b61009061008b3660046123fc565b610180565b6040805193845260208401929092521515908201526060015b60405180910390f35b6100c56100c036600461247e565b61019f565b005b6100da6100d536600461251a565b6101b5565b604080519283526020830191909152016100a9565b6100c56100fd366004612588565b6101d5565b6101156101103660046125a5565b6101e1565b6040516100a99190612636565b610135610130366004612649565b6101f6565b6040516100a99190612666565b6100da61015036600461267a565b610201565b6101686101633660046126d6565b610222565b6040516001600160801b0390911681526020016100a9565b600080600061019086868661022e565b92509250925093509350939050565b6101ad868686868686610449565b505050505050565b6000806101c688888888888861059c565b91509150965096945050505050565b6101de8161089b565b50565b60606101ed83836108c7565b90505b92915050565b60006101f082610aaa565b60008061021086868686610ab5565b600f91820b98910b9650945050505050565b60006101ed8383610d2e565b60008060008061023c610e48565b9050600080600061024d8a8a610e6c565b6001600160a01b038083166000908152600789016020908152604080832084861684528252808320815160a08101835281548616815260018201548087168286015262ffffff600160a01b82041682850152600160b81b9004600290810b60608084019190915292015490951660808601528151908101825287151581529182018f90529598509396509194509290919081018661030957610304600173fffd8963efd1fc6a506488495d951d5263988d26612725565b610319565b6103196401000276a3600161274c565b6001600160a01b0390811690915260048801805460009081526001808b01602090815260408084208751815460ff1916901515178155878301519381019390935586810151600290930180546001600160a01b031916938716939093179092558b54935491519596509194929093169263815483199261039f92339289928892016127c5565b6040516020818303038152906040526040518263ffffffff1660e01b81526004016103ca9190612636565b6000604051808303816000875af11580156103e9573d6000803e3d6000fd5b505050506040513d6000823e601f3d908101601f191682016040526104119190810190612851565b90506000808280602001905181019061042a9190612904565b600f91820b9d50900b9a50969850505050505050505093509350939050565b6000610453610e48565b6040805160a0810182526001600160a01b038a81168083528a82166020808501828152610bb8868801908152603c606088019081528d871660808901908152600096875260078b0185528987209587529490935293879020865181549087166001600160a01b031991821617825591516001820180549651945162ffffff908116600160b81b0262ffffff60b81b1991909616600160a01b026001600160b81b031990981692891692909217969096171692909217909355905160029091018054918416919092161790558354925163695c5bf560e01b8152939450909291169063695c5bf59061054e9084908a9089908990600401612937565b6020604051808303816000875af115801561056d573d6000803e3d6000fd5b505050506040513d601f19601f820116820180604052508101906105919190612988565b505050505050505050565b60008060006105a9610e48565b90506105b789898787610eaa565b6001600160a01b038085166000908152600787016020908152604080832084881684528252808320815160a08101835281548616815260018201548087169482019490945262ffffff600160a01b85041692810192909252600160b81b909204600290810b6060830152909101549092166080830152949d50929b5090975095509061064282610ef1565b3360009081526006850160209081526040808320815160608101835260028f810b82528e810b8286019081528285018881528454600181810187559589529688209351969092029092018054925162ffffff90811663010000000265ffffffffffff199094169616959095179190911784555192019190915585549051633205590760e21b815292935090916001600160a01b03919091169063c815641c906106f390859060040190815260200190565b608060405180830381865afa158015610710573d6000803e3d6000fd5b505050506040513d601f19601f8201168201806040525081019061073491906129b6565b505050905060006107586107478c610f21565b6107508c610f21565b848c8c611239565b6040805160608101825260028e810b82528d810b6020808401918252600f9590950b83850181815260058c0180546000908152948d01885286852086518154955162ffffff90811663010000000265ffffffffffff1990971691161794909417845590516001938401558b5490549551919750939592946001600160a01b03909416936381548319936107f19333938d939192016127c5565b6040516020818303038152906040526040518263ffffffff1660e01b815260040161081c9190612636565b6000604051808303816000875af115801561083b573d6000803e3d6000fd5b505050506040513d6000823e601f3d908101601f191682016040526108639190810190612851565b90506000808280602001905181019061087c9190612904565b600f91820b9c50900b9950505050505050505050965096945050505050565b60006108a5610e48565b80546001600160a01b0319166001600160a01b03939093169290921790915550565b606060008080806108da86880188612a19565b92965090945092509050600080808460038111156108fa576108fa6127af565b03610913576109098584611252565b90925090506109c5565b6001846003811115610927576109276127af565b0361093657610909858461133c565b600284600381111561094a5761094a6127af565b0361098b5761097b6040518060400160405280600b81526020016a576861747320676f696e6760a81b8152506113e5565b610986858488611428565b6109c5565b6109ba6040518060400160405280600e81526020016d537061726b7320666c79696e672160901b8152506113e5565b6109c58584886116fd565b60408051600f84810b602083015283900b81830152815180820383018152606082019283905287516370a0823160e01b9093529850610a66919088906001600160a01b038316906370a0823190610a20903090606401612666565b602060405180830381865afa158015610a3d573d6000803e3d6000fd5b505050506040513d601f19601f82011682018060405250810190610a619190612ad3565b6119b5565b60208501516040516370a0823160e01b8152610a9e919088906001600160a01b038316906370a0823190610a20903090600401612666565b50505050505092915050565b60006101f082610f21565b6000806000610ac2610e48565b9050610ace8787611a10565b6001600160a01b038083166000908152600785016020908152604080832084861684528252808320815160a08101835281548616815260018201548087169482019490945262ffffff600160a01b85041692810192909252600160b81b909204600290810b606083015290910154831660808201528554949b509299509192166333aa955b610b5c84610ef1565b6040516001600160e01b031960e084901b168152600481019190915230602482015260028a810b604483015289900b6064820152608401602060405180830381865afa158015610bb0573d6000803e3d6000fd5b505050506040513d601f19601f82011682018060405250810190610bd49190612aec565b905060405180606001604052808860020b81526020018760020b815260200182610bfd90612b15565b600f0b905260058401805460009081526002860160209081526040808320855181548785015162ffffff90811663010000000265ffffffffffff199092169216919091171781559481015160019586015587549354905192946001600160a01b0390941693638154831993610c799333938a93929091016127c5565b6040516020818303038152906040526040518263ffffffff1660e01b8152600401610ca49190612636565b6000604051808303816000875af1158015610cc3573d6000803e3d6000fd5b505050506040513d6000823e601f3d908101601f19168201604052610ceb9190810190612851565b6005850180549192506000610cff83612b38565b919050555060008082806020019051810190610d1b9190612904565b909d909c509a5050505050505050505050565b600080610d39610e48565b9050610d458484611a10565b6001600160a01b038083166000908152600785016020908152604080832084861684528252808320815160a08101835281548616815260018201548087169482019490945262ffffff600160a01b85041692810192909252600160b81b909204600290810b606083015290910154909216608083015292965090945090610dcb82610ef1565b835460405163fa6793d560e01b8152600481018390529192506000916001600160a01b039091169063fa6793d590602401602060405180830381865afa158015610e19573d6000803e3d6000fd5b505050506040513d601f19601f82011682018060405250810190610e3d9190612aec565b979650505050505050565b7f35c2975ab7d5366802ce2593b15dfef7ba0fb48f04ca0c021c862e3ccd408ea590565b6000806000836001600160a01b0316856001600160a01b03161015610e9957506001915083905082610ea3565b5060009150829050835b9250925092565b600080600080866001600160a01b0316886001600160a01b03161015610eda575086925085915084905083610ee6565b50859250869150839050845b945094509450949050565b600081604051602001610f049190612b51565b604051602081830303815290604052805190602001209050919050565b60008060008360020b12610f38578260020b610f40565b8260020b6000035b9050620d89e8811115610f66576040516333a3bdff60e21b815260040160405180910390fd5b600081600116600003610f7d57600160801b610f8f565b6ffffcb933bd6fad37aa2d162d1a5940015b6001600160881b031690506002821615610fb9576ffff97272373d413259a46990580e213a0260801c5b6004821615610fd8576ffff2e50f5f656932ef12357cf3c7fdcc0260801c5b6008821615610ff7576fffe5caca7e10e4e61c3624eaa0941cd00260801c5b6010821615611016576fffcb9843d60f6159c9db58835c9266440260801c5b6020821615611035576fff973b41fa98c081472e6896dfb254c00260801c5b6040821615611054576fff2ea16466c96a3843ec78b326b528610260801c5b6080821615611073576ffe5dee046a99a2a811c461f1969c30530260801c5b610100821615611093576ffcbe86c7900a88aedcffc83b479aa3a40260801c5b6102008216156110b3576ff987a7253ac413176f2b074cf7815e540260801c5b6104008216156110d3576ff3392b0822b70005940c7a398e4b70f30260801c5b6108008216156110f3576fe7159475a2c29b7443b29c7fa6e889d90260801c5b611000821615611113576fd097f3bdfd2022b8845ad8f792aa58250260801c5b612000821615611133576fa9f746462d870fdf8a65dc1f90e061e50260801c5b614000821615611153576f70d869a156d2a1b890bb3df62baf32f70260801c5b618000821615611173576f31be135f97d08fd981231505542fcfa60260801c5b62010000821615611194576f09aa508b5b7a84e1c677de54f3e99bc90260801c5b620200008216156111b4576e5d6af8dedb81196699c329225ee6040260801c5b620400008216156111d3576d2216e584f5fa1ea926041bedfe980260801c5b620800008216156111f0576b048a170391f7dc42444e8fa20260801c5b60008460020b131561121157806000198161120d5761120d612b5f565b0490505b600160201b810615611224576001611227565b60005b60ff16602082901c0192505050919050565b60006112488686868686611a41565b9695505050505050565b600080600080611260610e48565b80546000878152600183016020526040908190209051633cf3645360e21b81529293506001600160a01b039091169163f3cd914c916112a4918a9190600401612b8a565b6020604051808303816000875af11580156112c3573d6000803e3d6000fd5b505050506040513d601f19601f820116820180604052508101906112e79190612ad3565b60048201805491935060006112fb83612b38565b90915550508551611315906113108460801c90565b611b02565b61132486602001516113108490565b61132e8260801c90565b9350909150505b9250929050565b60008060008061134a610e48565b805460008781526002830160205260409081902090516330d7224d60e11b81529293506001600160a01b03909116916361ae449a9161138e918a9190600401612bd5565b6020604051808303816000875af11580156113ad573d6000803e3d6000fd5b505050506040513d601f19601f820116820180604052508101906113d19190612ad3565b60058201805491935060006112fb83612b38565b6101de816040516024016113f99190612636565b60408051601f198184030181529190526020810180516001600160e01b031663104c13eb60e21b179052611cce565b6000611432611cd7565b9050600061143e610e48565b6000858152600380830160209081526040808420815160808101835281546001600160a01b0390811682526001808401548216838701526002840154838601529290950154606082015286548b87529187019093528185209151633cf3645360e21b8152959650939491939092169163f3cd914c916114c1918b91600401612b8a565b6020604051808303816000875af11580156114e0573d6000803e3d6000fd5b505050506040513d601f19601f820116820180604052508101906115049190612ad3565b9150600081600001516001600160a01b031682602001516001600160a01b0316101561154a5761153988602001516113108590565b6115438360801c90565b905061155d565b875161155a906113108560801c90565b50815b81516040830151606084015161157c929161157791612c18565b611cfb565b6115938260200151826001600160801b0316611dae565b6040518060a001604052808360400151815260200183606001518152602001826001600160801b0316815260200183600001516001600160a01b0316815260200183602001516001600160a01b03168152508560020160008760030154815260200190815260200160002060008201518160000155602082015181600101556040820151816002015560608201518160030160006101000a8154816001600160a01b0302191690836001600160a01b0316021790555060808201518160040160006101000a8154816001600160a01b0302191690836001600160a01b03160217905550905050846004016000876001600160a01b03166001600160a01b03168152602001908152602001600020856003015490806001815401808255809150506001900390600052602060002001600090919091909150558460030160008154809291906116e090612b38565b91905055506116f3826020015182611b02565b5050505050505050565b6000611707611dea565b90506000611713610e48565b6000858152600380830160209081526040808420815160808101835281546001600160a01b0390811682526001808401548216838701526002840154838601529290950154606082015286548b87529187019093528185209151633cf3645360e21b8152959650939491939092169163f3cd914c91611796918b91600401612b8a565b6020604051808303816000875af11580156117b5573d6000803e3d6000fd5b505050506040513d601f19601f820116820180604052508101906117d99190612ad3565b9150600081600001516001600160a01b031682602001516001600160a01b0316101561181f5761180e88602001516113108590565b6118188360801c90565b9050611832565b875161182f906113108560801c90565b50815b815160408301516060840151611851929161184c91612c18565b611e0e565b6118688260200151826001600160801b0316611ed5565b6040518060a001604052808360400151815260200183606001518152602001826001600160801b0316815260200183600001516001600160a01b0316815260200183602001516001600160a01b03168152508560010160008760020154815260200190815260200160002060008201518160000155602082015181600101556040820151816002015560608201518160030160006101000a8154816001600160a01b0302191690836001600160a01b0316021790555060808201518160040160006101000a8154816001600160a01b0302191690836001600160a01b03160217905550905050846003016000876001600160a01b03166001600160a01b03168152602001908152602001600020856002015490806001815401808255809150506001900390600052602060002001600090919091909150558460020160008154809291906116e090612b38565b611a0b8363a9059cbb60e01b84846040516024016119d4929190612c2b565b60408051601f198184030181529190526020810180516001600160e01b03166001600160e01b031990931692909217909152611f2d565b505050565b600080826001600160a01b0316846001600160a01b03161015611a37575082905081611335565b5081905082611335565b6000836001600160a01b0316856001600160a01b03161115611a61579293925b846001600160a01b0316866001600160a01b031611611a8c57611a85858585612007565b9050611af9565b836001600160a01b0316866001600160a01b03161015611aee576000611ab3878686612007565b90506000611ac287898661207c565b9050806001600160801b0316826001600160801b031610611ae35780611ae5565b815b92505050611af9565b61124885858461207c565b95945050505050565b6000611b0c610e48565b9050600082600f0b1215611bab5780546001600160a01b0316630b0d9c098430611b3586612b15565b6040516001600160e01b031960e086901b1681526001600160a01b0393841660048201529290911660248301526001600160801b031660448201526064015b600060405180830381600087803b158015611b8e57600080fd5b505af1158015611ba2573d6000803e3d6000fd5b50505050505050565b6001600160a01b038316611c3c578054604051636a256b2960e01b81526001600160a01b0390911690636a256b29906001600160801b03851690611bf3908790600401612666565b60206040518083038185885af1158015611c11573d6000803e3d6000fd5b50505050506040513d601f19601f82011682018060405250810190611c369190612ad3565b50505050565b8054611c5c9084906001600160a01b03166001600160801b0385166119b5565b8054604051636a256b2960e01b81526001600160a01b0390911690636a256b2990611c8b908690600401612666565b6020604051808303816000875af1158015611caa573d6000803e3d6000fd5b505050506040513d601f19601f82011682018060405250810190611c369190612ad3565b6101de816120ba565b7fe5fae1d1655caf6698b8b944506b14651a3f414f8a67caa7b6a42e32816e934090565b6000611d05611cd7565b805460405163095ea7b360e01b81529192506001600160a01b038086169263095ea7b392611d399216908690600401612c2b565b6020604051808303816000875af1158015611d58573d6000803e3d6000fd5b505050506040513d601f19601f82011682018060405250810190611d7c9190612c44565b508054604051631e573fb760e31b81526001600160a01b039091169063f2b9fdb890611b749086908690600401612c2b565b6000611db8611cd7565b805460405163f3fef3a360e01b81529192506001600160a01b03169063f3fef3a390611b749086908690600401612c2b565b7fbd9b63cad2056a2132e010a4fbc483bbe85b10ec55651a56b347929db5cb470690565b6000611e18611dea565b805460405163095ea7b360e01b81529192506001600160a01b038086169263095ea7b392611e4c9216908690600401612c2b565b6020604051808303816000875af1158015611e6b573d6000803e3d6000fd5b505050506040513d601f19601f82011682018060405250810190611e8f9190612c44565b50805460405163617ba03760e01b81526001600160a01b03858116600483015260248201859052306044830152600060648301529091169063617ba03790608401611b74565b6000611edf611dea565b805460405163a415bcad60e01b81526001600160a01b03868116600483015260248201869052600260448301526000606483015230608483015292935091169063a415bcad9060a401611b74565b6000611f82826040518060400160405280602081526020017f5361666545524332303a206c6f772d6c6576656c2063616c6c206661696c6564815250856001600160a01b03166120db9092919063ffffffff16565b9050805160001480611fa3575080806020019051810190611fa39190612c44565b611a0b5760405162461bcd60e51b815260206004820152602a60248201527f5361666545524332303a204552433230206f7065726174696f6e20646964206e6044820152691bdd081cdd58d8d9595960b21b60648201526084015b60405180910390fd5b6000826001600160a01b0316846001600160a01b03161115612027579192915b600061204a856001600160a01b0316856001600160a01b0316600160601b6120ea565b905061207161206c848361205e8989612725565b6001600160a01b03166120ea565b612263565b9150505b9392505050565b6000826001600160a01b0316846001600160a01b0316111561209c579192915b6120b261206c83600160601b61205e8888612725565b949350505050565b60006a636f6e736f6c652e6c6f679050600080835160208501845afa505050565b60606120b2848460008561227e565b6000808060001985870985870292508281108382030391505080600003612123576000841161211857600080fd5b508290049050612075565b80841161212f57600080fd5b600084868809808403938111909203919050600061214f86196001612c18565b86169586900495938490049360008190030460010190506121708184612c66565b909317926000612181876003612c66565b60021890506121908188612c66565b61219b906002612c7d565b6121a59082612c66565b90506121b18188612c66565b6121bc906002612c7d565b6121c69082612c66565b90506121d28188612c66565b6121dd906002612c7d565b6121e79082612c66565b90506121f38188612c66565b6121fe906002612c7d565b6122089082612c66565b90506122148188612c66565b61221f906002612c7d565b6122299082612c66565b90506122358188612c66565b612240906002612c7d565b61224a9082612c66565b90506122568186612c66565b9998505050505050505050565b806001600160801b038116811461227957600080fd5b919050565b6060824710156122df5760405162461bcd60e51b815260206004820152602660248201527f416464726573733a20696e73756666696369656e742062616c616e636520666f6044820152651c8818d85b1b60d21b6064820152608401611ffe565b600080866001600160a01b031685876040516122fb9190612c90565b60006040518083038185875af1925050503d8060008114612338576040519150601f19603f3d011682016040523d82523d6000602084013e61233d565b606091505b5091509150610e3d87838387606083156123b85782516000036123b1576001600160a01b0385163b6123b15760405162461bcd60e51b815260206004820152601d60248201527f416464726573733a2063616c6c20746f206e6f6e2d636f6e74726163740000006044820152606401611ffe565b50816120b2565b6120b283838151156123cd5781518083602001fd5b8060405162461bcd60e51b8152600401611ffe9190612636565b6001600160a01b03811681146101de57600080fd5b60008060006060848603121561241157600080fd5b833561241c816123e7565b9250602084013561242c816123e7565b929592945050506040919091013590565b60008083601f84011261244f57600080fd5b5081356001600160401b0381111561246657600080fd5b60208301915083602082850101111561133557600080fd5b60008060008060008060a0878903121561249757600080fd5b86356124a2816123e7565b955060208701356124b2816123e7565b945060408701356124c2816123e7565b935060608701356124d2816123e7565b925060808701356001600160401b038111156124ed57600080fd5b6124f989828a0161243d565b979a9699509497509295939492505050565b8060020b81146101de57600080fd5b60008060008060008060c0878903121561253357600080fd5b863561253e816123e7565b9550602087013561254e816123e7565b9450604087013561255e8161250b565b9350606087013561256e8161250b565b9598949750929560808101359460a0909101359350915050565b60006020828403121561259a57600080fd5b8135612075816123e7565b600080602083850312156125b857600080fd5b82356001600160401b038111156125ce57600080fd5b6125da8582860161243d565b90969095509350505050565b60005b838110156126015781810151838201526020016125e9565b50506000910152565b600081518084526126228160208601602086016125e6565b601f01601f19169290920160200192915050565b6020815260006101ed602083018461260a565b60006020828403121561265b57600080fd5b81356120758161250b565b6001600160a01b0391909116815260200190565b6000806000806080858703121561269057600080fd5b843561269b816123e7565b935060208501356126ab816123e7565b925060408501356126bb8161250b565b915060608501356126cb8161250b565b939692955090935050565b600080604083850312156126e957600080fd5b82356126f4816123e7565b91506020830135612704816123e7565b809150509250929050565b634e487b7160e01b600052601160045260246000fd5b6001600160a01b038281168282160390808211156127455761274561270f565b5092915050565b6001600160a01b038181168382160190808211156127455761274561270f565b80516001600160a01b03908116835260208083015182169084015260408083015162ffffff169084015260608083015160020b9084015260809182015116910152565b634e487b7160e01b600052602160045260246000fd5b6001600160a01b038516815261010081016127e3602083018661276c565b6004841061280157634e487b7160e01b600052602160045260246000fd5b60c082019390935260e0015292915050565b634e487b7160e01b600052604160045260246000fd5b60405160a081016001600160401b038111828210171561284b5761284b612813565b60405290565b60006020828403121561286357600080fd5b81516001600160401b038082111561287a57600080fd5b818401915084601f83011261288e57600080fd5b8151818111156128a0576128a0612813565b604051601f8201601f19908116603f011681019083821181831017156128c8576128c8612813565b816040528281528760208487010111156128e157600080fd5b610e3d8360208301602088016125e6565b8051600f81900b811461227957600080fd5b6000806040838503121561291757600080fd5b612920836128f2565b915061292e602084016128f2565b90509250929050565b612941818661276c565b6001600160a01b03841660a082015260e060c08201819052810182905260006101008385828501376000838501820152601f909301601f1916909101909101949350505050565b60006020828403121561299a57600080fd5b81516120758161250b565b62ffffff811681146101de57600080fd5b600080600080608085870312156129cc57600080fd5b84516129d7816123e7565b60208601519094506129e88161250b565b60408601519093506129f9816129a5565b60608601519092506126cb816129a5565b80356004811061227957600080fd5b600080600080848603610100811215612a3157600080fd5b8535612a3c816123e7565b945060a0601f1982011215612a5057600080fd5b50612a59612829565b6020860135612a67816123e7565b81526040860135612a77816123e7565b60208201526060860135612a8a816129a5565b60408201526080860135612a9d8161250b565b606082015260a0860135612ab0816123e7565b60808201529250612ac360c08601612a0a565b9396929550929360e00135925050565b600060208284031215612ae557600080fd5b5051919050565b600060208284031215612afe57600080fd5b81516001600160801b038116811461207557600080fd5b6000600f82900b6001607f1b8101612b2f57612b2f61270f565b60000392915050565b600060018201612b4a57612b4a61270f565b5060010190565b60a081016101f0828461276c565b634e487b7160e01b600052601260045260246000fd5b6002815261060f60f31b602082015260400190565b6000610120612b99838661276c565b835460ff16151560a0840152600184015460c084015260028401546001600160a01b031660e08401526101008301819052612071818401612b75565b6000610120612be4838661276c565b83548060020b60a08501528060181c60020b60c085015250600184015460e084015280610100840152612071818401612b75565b808201808211156101f0576101f061270f565b6001600160a01b03929092168252602082015260400190565b600060208284031215612c5657600080fd5b8151801515811461207557600080fd5b80820281158282048414176101f0576101f061270f565b818103818111156101f0576101f061270f565b60008251612ca28184602087016125e6565b919091019291505056fea2646970667358221220198b07bac869635809f1c08b4ee98ac32de312465482aafb199db80b543fc9b364736f6c63430008140033",
  "linkReferences": {},
  "deployedLinkReferences": {}
}