{
  "_format": "hh-sol-artifact-1",
  "contractName": "UniswapFacet",
  "sourceName": "contracts/Facets/UniswapFacet.sol",
  "abi": [
    {
      "inputs": [
        {
          "components": [
            {
              "internalType": "Currency",
              "name": "currency0",
              "type": "address"
            },
            {
              "internalType": "Currency",
              "name": "currency1",
              "type": "address"
            },
            {
              "internalType": "uint24",
              "name": "fee",
              "type": "uint24"
            },
            {
              "internalType": "int24",
              "name": "tickSpacing",
              "type": "int24"
            },
            {
              "internalType": "contract IHooks",
              "name": "hooks",
              "type": "address"
            }
          ],
          "internalType": "struct PoolKey",
          "name": "poolKey",
          "type": "tuple"
        },
        {
          "internalType": "int24",
          "name": "lowerBound",
          "type": "int24"
        },
        {
          "internalType": "int24",
          "name": "upperBound",
          "type": "int24"
        }
      ],
      "name": "closePosition",
      "outputs": [
        {
          "internalType": "int128",
          "name": "",
          "type": "int128"
        },
        {
          "internalType": "int128",
          "name": "",
          "type": "int128"
        }
      ],
      "stateMutability": "nonpayable",
      "type": "function"
    },
    {
      "inputs": [
        {
          "components": [
            {
              "internalType": "Currency",
              "name": "currency0",
              "type": "address"
            },
            {
              "internalType": "Currency",
              "name": "currency1",
              "type": "address"
            },
            {
              "internalType": "uint24",
              "name": "fee",
              "type": "uint24"
            },
            {
              "internalType": "int24",
              "name": "tickSpacing",
              "type": "int24"
            },
            {
              "internalType": "contract IHooks",
              "name": "hooks",
              "type": "address"
            }
          ],
          "internalType": "struct PoolKey",
          "name": "poolKey",
          "type": "tuple"
        },
        {
          "components": [
            {
              "internalType": "int24",
              "name": "tickLower",
              "type": "int24"
            },
            {
              "internalType": "int24",
              "name": "tickUpper",
              "type": "int24"
            },
            {
              "internalType": "int256",
              "name": "liquidityDelta",
              "type": "int256"
            }
          ],
          "internalType": "struct IPoolManager.ModifyPositionParams",
          "name": "modifyLiquidtyParamss",
          "type": "tuple"
        }
      ],
      "name": "liquidityAdd",
      "outputs": [
        {
          "internalType": "int256",
          "name": "",
          "type": "int256"
        },
        {
          "internalType": "int256",
          "name": "",
          "type": "int256"
        }
      ],
      "stateMutability": "nonpayable",
      "type": "function"
    },
    {
      "inputs": [
        {
          "internalType": "bytes",
          "name": "data",
          "type": "bytes"
        }
      ],
      "name": "lockAcquired",
      "outputs": [
        {
          "internalType": "int128",
          "name": "",
          "type": "int128"
        },
        {
          "internalType": "int128",
          "name": "",
          "type": "int128"
        }
      ],
      "stateMutability": "nonpayable",
      "type": "function"
    },
    {
      "inputs": [
        {
          "internalType": "address",
          "name": "managerAddy",
          "type": "address"
        }
      ],
      "name": "setPoolManager",
      "outputs": [],
      "stateMutability": "nonpayable",
      "type": "function"
    },
    {
      "inputs": [
        {
          "components": [
            {
              "internalType": "Currency",
              "name": "currency0",
              "type": "address"
            },
            {
              "internalType": "Currency",
              "name": "currency1",
              "type": "address"
            },
            {
              "internalType": "uint24",
              "name": "fee",
              "type": "uint24"
            },
            {
              "internalType": "int24",
              "name": "tickSpacing",
              "type": "int24"
            },
            {
              "internalType": "contract IHooks",
              "name": "hooks",
              "type": "address"
            }
          ],
          "internalType": "struct PoolKey",
          "name": "poolKey",
          "type": "tuple"
        },
        {
          "components": [
            {
              "internalType": "bool",
              "name": "zeroForOne",
              "type": "bool"
            },
            {
              "internalType": "int256",
              "name": "amountSpecified",
              "type": "int256"
            },
            {
              "internalType": "uint160",
              "name": "sqrtPriceLimitX96",
              "type": "uint160"
            }
          ],
          "internalType": "struct IPoolManager.SwapParams",
          "name": "swapParams",
          "type": "tuple"
        }
      ],
      "name": "swap",
      "outputs": [
        {
          "internalType": "int256",
          "name": "",
          "type": "int256"
        },
        {
          "internalType": "int256",
          "name": "",
          "type": "int256"
        }
      ],
      "stateMutability": "nonpayable",
      "type": "function"
    }
  ],
  "bytecode": "0x608060405234801561001057600080fd5b50611421806100206000396000f3fe608060405234801561001057600080fd5b50600436106100575760003560e01c80631e2817de1461005c57806376a79b29146100895780637aef67151461009c578063ab6291fe146100b1578063e284f71a146100de575b600080fd5b61006f61006a366004610c9d565b6100f1565b604080519283526020830191909152015b60405180910390f35b61006f610097366004610c9d565b610109565b6100af6100aa366004610ce8565b610116565b005b6100c46100bf366004610d0c565b610122565b60408051600f93840b81529190920b602082015201610080565b6100c46100ec366004610d8c565b61012f565b6000806100fe8484610149565b915091509250929050565b6000806100fe8484610240565b61011f816102a3565b50565b6000806100fe84846102cf565b60008061013d8585856103e4565b91509150935093915050565b6000806000610156610608565b600381015460009081526001820160205260409020909150849061017a8282610de4565b5050805460038201546040516000926001600160a01b0316916381548319916101ab9133918b918791602001610e8c565b6040516020818303038152906040526040518263ffffffff1660e01b81526004016101d69190610f78565b6000604051808303816000875af11580156101f5573d6000803e3d6000fd5b505050506040513d6000823e601f3d908101601f1916820160405261021d9190810190610fa1565b9050808060200190518101906102339190611042565b9350935050509250929050565b600080600061024d610608565b60048101546000908152600282016020526040902090915084906102718282611066565b5050805460048201546040516000926001600160a01b0316916381548319916101ab9133918b91600191602001610e8c565b60006102ad610608565b80546001600160a01b0319166001600160a01b03939093169290921790915550565b600080808080806102e28789018961115a565b92965090945092509050600082600181111561030057610300610e54565b036103195761030f838261062c565b9096509450610326565b610323838261070e565b50505b82516040516370a0823160e01b81526103a1919086906001600160a01b038316906370a082319061035b9030906004016111af565b602060405180830381865afa158015610378573d6000803e3d6000fd5b505050506040513d601f19601f8201168201806040525081019061039c91906111c3565b6107b7565b60208301516040516370a0823160e01b81526103d9919086906001600160a01b038316906370a082319061035b9030906004016111af565b505050509250929050565b60008060006103f1610608565b80549091506000906001600160a01b03166333aa955b61041e610419368b90038b018b6111dc565b61080e565b6040516001600160e01b031960e084901b1681526004810191909152306024820152600289810b604483015288900b6064820152608401602060405180830381865afa158015610472573d6000803e3d6000fd5b505050506040513d601f19601f8201168201806040525081019061049691906111f8565b905060405180606001604052808760020b81526020018660020b8152602001826104bf90611237565b600f0b905260048301805460009081526002850160209081526040808320855181549387015162ffffff90811663010000000265ffffffffffff1990951691161792909217825593909301516001909301929092558054916105208361125a565b9091555050815460048301546040516000926001600160a01b0316916381548319916105559133918d91600191602001610e8c565b6040516020818303038152906040526040518263ffffffff1660e01b81526004016105809190610f78565b6000604051808303816000875af115801561059f573d6000803e3d6000fd5b505050506040513d6000823e601f3d908101601f191682016040526105c79190810190610fa1565b60048401805491925060006105db8361125a565b9190505550600080828060200190518101906105f79190611285565b909b909a5098505050505050505050565b7fe5fae1d1655caf6698b8b944506b14651a3f414f8a67caa7b6a42e32816e934090565b60008060008061063a610608565b80546000878152600183016020526040908190209051633cf3645360e21b81529293506001600160a01b039091169163f3cd914c9161067e918a9190600401611307565b6020604051808303816000875af115801561069d573d6000803e3d6000fd5b505050506040513d601f19601f820116820180604052508101906106c191906111c3565b60038201805491935060006106d58361125a565b909155505085516106ef906106ea8460801c90565b61083e565b6106fe86602001516106ea8490565b6107088260801c90565b82610233565b60008060008061071c610608565b805460008781526002830160205260409081902090516330d7224d60e11b81529293506001600160a01b03909116916361ae449a91610760918a919060040161135b565b6020604051808303816000875af115801561077f573d6000803e3d6000fd5b505050506040513d601f19601f820116820180604052508101906107a391906111c3565b60048201805491935060006106d58361125a565b604080516001600160a01b038416602482015260448082018490528251808303909101815260649091019091526020810180516001600160e01b031663a9059cbb60e01b179052610809908490610a09565b505050565b600081604051602001610821919061139e565b604051602081830303815290604052805190602001209050919050565b6000610848610608565b9050600082600f0b12156108e65780546001600160a01b0316630b0d9c09843061087186611237565b6040516001600160e01b031960e086901b1681526001600160a01b0393841660048201529290911660248301526001600160801b03166044820152606401600060405180830381600087803b1580156108c957600080fd5b505af11580156108dd573d6000803e3d6000fd5b50505050505050565b6001600160a01b038316610977578054604051636a256b2960e01b81526001600160a01b0390911690636a256b29906001600160801b0385169061092e9087906004016111af565b60206040518083038185885af115801561094c573d6000803e3d6000fd5b50505050506040513d601f19601f8201168201806040525081019061097191906111c3565b50505050565b80546109979084906001600160a01b03166001600160801b0385166107b7565b8054604051636a256b2960e01b81526001600160a01b0390911690636a256b29906109c69086906004016111af565b6020604051808303816000875af11580156109e5573d6000803e3d6000fd5b505050506040513d601f19601f8201168201806040525081019061097191906111c3565b6000610a5e826040518060400160405280602081526020017f5361666545524332303a206c6f772d6c6576656c2063616c6c206661696c6564815250856001600160a01b0316610ae39092919063ffffffff16565b9050805160001480610a7f575080806020019051810190610a7f91906113b2565b6108095760405162461bcd60e51b815260206004820152602a60248201527f5361666545524332303a204552433230206f7065726174696f6e20646964206e6044820152691bdd081cdd58d8d9595960b21b60648201526084015b60405180910390fd5b6060610af28484600085610afa565b949350505050565b606082471015610b5b5760405162461bcd60e51b815260206004820152602660248201527f416464726573733a20696e73756666696369656e742062616c616e636520666f6044820152651c8818d85b1b60d21b6064820152608401610ada565b600080866001600160a01b03168587604051610b7791906113cf565b60006040518083038185875af1925050503d8060008114610bb4576040519150601f19603f3d011682016040523d82523d6000602084013e610bb9565b606091505b5091509150610bca87838387610bd5565b979650505050505050565b60608315610c44578251600003610c3d576001600160a01b0385163b610c3d5760405162461bcd60e51b815260206004820152601d60248201527f416464726573733a2063616c6c20746f206e6f6e2d636f6e74726163740000006044820152606401610ada565b5081610af2565b610af28383815115610c595781518083602001fd5b8060405162461bcd60e51b8152600401610ada9190610f78565b600060a08284031215610c8557600080fd5b50919050565b600060608284031215610c8557600080fd5b6000806101008385031215610cb157600080fd5b610cbb8484610c73565b9150610cca8460a08501610c8b565b90509250929050565b6001600160a01b038116811461011f57600080fd5b600060208284031215610cfa57600080fd5b8135610d0581610cd3565b9392505050565b60008060208385031215610d1f57600080fd5b82356001600160401b0380821115610d3657600080fd5b818501915085601f830112610d4a57600080fd5b813581811115610d5957600080fd5b866020828501011115610d6b57600080fd5b60209290920196919550909350505050565b8060020b811461011f57600080fd5b600080600060e08486031215610da157600080fd5b610dab8585610c73565b925060a0840135610dbb81610d7d565b915060c0840135610dcb81610d7d565b809150509250925092565b801515811461011f57600080fd5b8135610def81610dd6565b815490151560ff1660ff199190911617815560208201356001820155600281016040830135610e1d81610cd3565b81546001600160a01b0319166001600160a01b03919091161790555050565b803562ffffff81168114610e4f57600080fd5b919050565b634e487b7160e01b600052602160045260246000fd5b60028110610e8857634e487b7160e01b600052602160045260246000fd5b9052565b6001600160a01b0385811682526101008201908535610eaa81610cd3565b8181166020850152506020860135610ec181610cd3565b81811660408501525062ffffff610eda60408801610e3c565b1660608401526060860135610eee81610d7d565b8060020b6080850152506080860135610f0681610cd3565b1660a0830152610f1960c0830185610e6a565b8260e083015295945050505050565b60005b83811015610f43578181015183820152602001610f2b565b50506000910152565b60008151808452610f64816020860160208601610f28565b601f01601f19169290920160200192915050565b602081526000610d056020830184610f4c565b634e487b7160e01b600052604160045260246000fd5b600060208284031215610fb357600080fd5b81516001600160401b0380821115610fca57600080fd5b818401915084601f830112610fde57600080fd5b815181811115610ff057610ff0610f8b565b604051601f8201601f19908116603f0116810190838211818310171561101857611018610f8b565b8160405282815287602084870101111561103157600080fd5b610bca836020830160208801610f28565b6000806040838503121561105557600080fd5b505080516020909101519092909150565b813561107181610d7d565b815462ffffff82811662ffffff198316178455602085013561109281610d7d565b8060181b65ffffff0000001682851665ffffffffffff1985161717855550505050604082013560018201555050565b600060a082840312156110d357600080fd5b60405160a081016001600160401b03811182821017156110f5576110f5610f8b565b604052905080823561110681610cd3565b8152602083013561111681610cd3565b602082015261112760408401610e3c565b6040820152606083013561113a81610d7d565b6060820152608083013561114d81610cd3565b6080919091015292915050565b600080600080610100858703121561117157600080fd5b843561117c81610cd3565b935061118b86602087016110c1565b925060c08501356002811061119f57600080fd5b9396929550929360e00135925050565b6001600160a01b0391909116815260200190565b6000602082840312156111d557600080fd5b5051919050565b600060a082840312156111ee57600080fd5b610d0583836110c1565b60006020828403121561120a57600080fd5b81516001600160801b0381168114610d0557600080fd5b634e487b7160e01b600052601160045260246000fd5b6000600f82900b6001607f1b810161125157611251611221565b60000392915050565b60006001820161126c5761126c611221565b5060010190565b8051600f81900b8114610e4f57600080fd5b6000806040838503121561129857600080fd5b6112a183611273565b9150610cca60208401611273565b80516001600160a01b03908116835260208083015182169084015260408083015162ffffff169084015260608083015160020b9084015260809182015116910152565b6002815261060f60f31b602082015260400190565b600061012061131683866112af565b835460ff16151560a0840152600184015460c084015260028401546001600160a01b031660e084015261010083018190526113528184016112f2565b95945050505050565b600061012061136a83866112af565b83548060020b60a08501528060181c60020b60c085015250600184015460e0840152806101008401526113528184016112f2565b60a081016113ac82846112af565b92915050565b6000602082840312156113c457600080fd5b8151610d0581610dd6565b600082516113e1818460208701610f28565b919091019291505056fea26469706673582212204e0c1cb68d6829231af7873a848dc4b513ae2241631c34e68fda17e523e3626c64736f6c63430008140033",
  "linkReferences": {},
  "deployedLinkReferences": {}
}