{
  "_format": "hh-sol-artifact-1",
  "contractName": "UniswapFacet",
  "sourceName": "contracts/Facets/UniswapFacet.sol",
  "abi": [
    {
      "inputs": [],
      "name": "InvalidTick",
      "type": "error"
    },
    {
      "inputs": [
        {
          "internalType": "address",
          "name": "token0",
          "type": "address"
        },
        {
          "internalType": "address",
          "name": "token1",
          "type": "address"
        },
        {
          "internalType": "int24",
          "name": "tickLower",
          "type": "int24"
        },
        {
          "internalType": "int24",
          "name": "tickUpper",
          "type": "int24"
        },
        {
          "internalType": "uint256",
          "name": "token0Amount",
          "type": "uint256"
        },
        {
          "internalType": "uint256",
          "name": "token1Amount",
          "type": "uint256"
        }
      ],
      "name": "addLiquidty",
      "outputs": [
        {
          "internalType": "int256",
          "name": "token0Used",
          "type": "int256"
        },
        {
          "internalType": "int256",
          "name": "token1Used",
          "type": "int256"
        }
      ],
      "stateMutability": "nonpayable",
      "type": "function"
    },
    {
      "inputs": [
        {
          "internalType": "address",
          "name": "token0",
          "type": "address"
        },
        {
          "internalType": "address",
          "name": "token1",
          "type": "address"
        },
        {
          "internalType": "int24",
          "name": "lowerBound",
          "type": "int24"
        },
        {
          "internalType": "int24",
          "name": "upperBound",
          "type": "int24"
        }
      ],
      "name": "closePosition",
      "outputs": [
        {
          "internalType": "int256",
          "name": "token0Amount",
          "type": "int256"
        },
        {
          "internalType": "int256",
          "name": "token1Amount",
          "type": "int256"
        }
      ],
      "stateMutability": "nonpayable",
      "type": "function"
    },
    {
      "inputs": [
        {
          "internalType": "address",
          "name": "token0",
          "type": "address"
        },
        {
          "internalType": "address",
          "name": "token1",
          "type": "address"
        }
      ],
      "name": "getPoolLiquidity",
      "outputs": [
        {
          "internalType": "uint128",
          "name": "",
          "type": "uint128"
        }
      ],
      "stateMutability": "view",
      "type": "function"
    },
    {
      "inputs": [
        {
          "internalType": "int24",
          "name": "tick",
          "type": "int24"
        }
      ],
      "name": "getSqrtAtTick",
      "outputs": [
        {
          "internalType": "uint160",
          "name": "",
          "type": "uint160"
        }
      ],
      "stateMutability": "pure",
      "type": "function"
    },
    {
      "inputs": [
        {
          "internalType": "address",
          "name": "token0",
          "type": "address"
        },
        {
          "internalType": "address",
          "name": "token1",
          "type": "address"
        },
        {
          "internalType": "uint160",
          "name": "poolStartPrice",
          "type": "uint160"
        },
        {
          "internalType": "bytes",
          "name": "hookData",
          "type": "bytes"
        }
      ],
      "name": "initializePool",
      "outputs": [],
      "stateMutability": "nonpayable",
      "type": "function"
    },
    {
      "inputs": [
        {
          "internalType": "bytes",
          "name": "data",
          "type": "bytes"
        }
      ],
      "name": "lockAcquired",
      "outputs": [
        {
          "internalType": "bytes",
          "name": "",
          "type": "bytes"
        }
      ],
      "stateMutability": "nonpayable",
      "type": "function"
    },
    {
      "inputs": [
        {
          "internalType": "address",
          "name": "managerAddy",
          "type": "address"
        }
      ],
      "name": "setPoolManager",
      "outputs": [],
      "stateMutability": "nonpayable",
      "type": "function"
    },
    {
      "inputs": [
        {
          "internalType": "address",
          "name": "tokenFrom",
          "type": "address"
        },
        {
          "internalType": "address",
          "name": "tokenTo",
          "type": "address"
        },
        {
          "internalType": "int256",
          "name": "amount",
          "type": "int256"
        }
      ],
      "name": "swap",
      "outputs": [
        {
          "internalType": "int256",
          "name": "token0Amount",
          "type": "int256"
        },
        {
          "internalType": "int256",
          "name": "token1Amount",
          "type": "int256"
        },
        {
          "internalType": "bool",
          "name": "zeroForOne",
          "type": "bool"
        }
      ],
      "stateMutability": "nonpayable",
      "type": "function"
    }
  ],
  "bytecode": "0x608060405234801561001057600080fd5b506127cd806100206000396000f3fe608060405234801561001057600080fd5b50600436106100785760003560e01c80631ff0c3251461007d578063616c1cc3146100b25780637aef6715146100da578063ab6291fe146100ef578063b4becbed1461010f578063b66305761461012f578063b82197ed14610142578063bee000ce14610155575b600080fd5b61009061008b366004611ef9565b610180565b6040805193845260208401929092521515908201526060015b60405180910390f35b6100c56100c0366004611f49565b61019f565b604080519283526020830191909152016100a9565b6100ed6100e8366004611fb7565b6101bf565b005b6101026100fd366004612015565b6101cb565b6040516100a991906120a6565b61012261011d3660046120b9565b6101e0565b6040516100a991906120d6565b6100ed61013d3660046120ea565b6101eb565b6100c5610150366004612165565b6101ff565b6101686101633660046121c1565b610220565b6040516001600160801b0390911681526020016100a9565b600080600061019086868661022c565b92509250925093509350939050565b6000806101b0888888888888610447565b91509150965096945050505050565b6101c881610746565b50565b60606101d78383610772565b90505b92915050565b60006101da82610916565b6101f88585858585610921565b5050505050565b60008061020e86868686610a73565b600f91820b98910b9650945050505050565b60006101d78383610cec565b60008060008061023a610e06565b9050600080600061024b8a8a610e2a565b6001600160a01b038083166000908152600789016020908152604080832084861684528252808320815160a08101835281548616815260018201548087168286015262ffffff600160a01b82041682850152600160b81b9004600290810b60608084019190915292015490951660808601528151908101825287151581529182018f90529598509396509194509290919081018661030757610302600173fffd8963efd1fc6a506488495d951d5263988d26612210565b610317565b6103176401000276a36001612237565b6001600160a01b0390811690915260048801805460009081526001808b01602090815260408084208751815460ff1916901515178155878301519381019390935586810151600290930180546001600160a01b031916938716939093179092558b54935491519596509194929093169263815483199261039d92339289928892016122b0565b6040516020818303038152906040526040518263ffffffff1660e01b81526004016103c891906120a6565b6000604051808303816000875af11580156103e7573d6000803e3d6000fd5b505050506040513d6000823e601f3d908101601f1916820160405261040f919081019061233c565b90506000808280602001905181019061042891906123ef565b600f91820b9d50900b9a50969850505050505050505093509350939050565b6000806000610454610e06565b905061046289898787610e68565b6001600160a01b038085166000908152600787016020908152604080832084881684528252808320815160a08101835281548616815260018201548087169482019490945262ffffff600160a01b85041692810192909252600160b81b909204600290810b6060830152909101549092166080830152949d50929b509097509550906104ed82610eaf565b3360009081526006850160209081526040808320815160608101835260028f810b82528e810b8286019081528285018881528454600181810187559589529688209351969092029092018054925162ffffff90811663010000000265ffffffffffff199094169616959095179190911784555192019190915585549051633205590760e21b815292935090916001600160a01b03919091169063c815641c9061059e90859060040190815260200190565b608060405180830381865afa1580156105bb573d6000803e3d6000fd5b505050506040513d601f19601f820116820180604052508101906105df9190612433565b505050905060006106036105f28c610edf565b6105fb8c610edf565b848c8c6111f7565b6040805160608101825260028e810b82528d810b6020808401918252600f9590950b83850181815260058c0180546000908152948d01885286852086518154955162ffffff90811663010000000265ffffffffffff1990971691161794909417845590516001938401558b5490549551919750939592946001600160a01b039094169363815483199361069c9333938d939192016122b0565b6040516020818303038152906040526040518263ffffffff1660e01b81526004016106c791906120a6565b6000604051808303816000875af11580156106e6573d6000803e3d6000fd5b505050506040513d6000823e601f3d908101601f1916820160405261070e919081019061233c565b90506000808280602001905181019061072791906123ef565b600f91820b9c50900b9950505050505050505050965096945050505050565b6000610750610e06565b80546001600160a01b0319166001600160a01b03939093169290921790915550565b6060600080808061078586880188612496565b92965090945092509050600080808460028111156107a5576107a561229a565b036107be576107b48584611210565b9092509050610831565b60018460028111156107d2576107d261229a565b036107e1576107b485846112fa565b60028460028111156107f5576107f561229a565b03610831576108266040518060400160405280600b81526020016a576861747320676f696e6760a81b8152506113a3565b6108318584886113e6565b60408051600f84810b602083015283900b81830152815180820383018152606082019283905287516370a0823160e01b90935298506108d2919088906001600160a01b038316906370a082319061088c9030906064016120d6565b602060405180830381865afa1580156108a9573d6000803e3d6000fd5b505050506040513d601f19601f820116820180604052508101906108cd9190612550565b6115f5565b60208501516040516370a0823160e01b815261090a919088906001600160a01b038316906370a082319061088c9030906004016120d6565b50505050505092915050565b60006101da82610edf565b600061092b610e06565b6040805160a0810182526001600160a01b038981168083528982166020808501828152610bb8868801908152603c6060880190815260006080890181815296815260078b0185528981209581529490935292879020865181549087166001600160a01b031991821617825591516001820180549551945162ffffff908116600160b81b0262ffffff60b81b1991909616600160a01b026001600160b81b031990971692891692909217959095171692909217909255915160029092018054928416929091169190911790558354925163695c5bf560e01b8152939450909291169063695c5bf590610a26908490899089908990600401612569565b6020604051808303816000875af1158015610a45573d6000803e3d6000fd5b505050506040513d601f19601f82011682018060405250810190610a6991906125ba565b5050505050505050565b6000806000610a80610e06565b9050610a8c8787611650565b6001600160a01b038083166000908152600785016020908152604080832084861684528252808320815160a08101835281548616815260018201548087169482019490945262ffffff600160a01b85041692810192909252600160b81b909204600290810b606083015290910154831660808201528554949b509299509192166333aa955b610b1a84610eaf565b6040516001600160e01b031960e084901b168152600481019190915230602482015260028a810b604483015289900b6064820152608401602060405180830381865afa158015610b6e573d6000803e3d6000fd5b505050506040513d601f19601f82011682018060405250810190610b9291906125d7565b905060405180606001604052808860020b81526020018760020b815260200182610bbb90612600565b600f0b905260058401805460009081526002860160209081526040808320855181548785015162ffffff90811663010000000265ffffffffffff199092169216919091171781559481015160019586015587549354905192946001600160a01b0390941693638154831993610c379333938a93929091016122b0565b6040516020818303038152906040526040518263ffffffff1660e01b8152600401610c6291906120a6565b6000604051808303816000875af1158015610c81573d6000803e3d6000fd5b505050506040513d6000823e601f3d908101601f19168201604052610ca9919081019061233c565b6005850180549192506000610cbd83612623565b919050555060008082806020019051810190610cd991906123ef565b909d909c509a5050505050505050505050565b600080610cf7610e06565b9050610d038484611650565b6001600160a01b038083166000908152600785016020908152604080832084861684528252808320815160a08101835281548616815260018201548087169482019490945262ffffff600160a01b85041692810192909252600160b81b909204600290810b606083015290910154909216608083015292965090945090610d8982610eaf565b835460405163fa6793d560e01b8152600481018390529192506000916001600160a01b039091169063fa6793d590602401602060405180830381865afa158015610dd7573d6000803e3d6000fd5b505050506040513d601f19601f82011682018060405250810190610dfb91906125d7565b979650505050505050565b7f35c2975ab7d5366802ce2593b15dfef7ba0fb48f04ca0c021c862e3ccd408ea590565b6000806000836001600160a01b0316856001600160a01b03161015610e5757506001915083905082610e61565b5060009150829050835b9250925092565b600080600080866001600160a01b0316886001600160a01b03161015610e98575086925085915084905083610ea4565b50859250869150839050845b945094509450949050565b600081604051602001610ec2919061263c565b604051602081830303815290604052805190602001209050919050565b60008060008360020b12610ef6578260020b610efe565b8260020b6000035b9050620d89e8811115610f24576040516333a3bdff60e21b815260040160405180910390fd5b600081600116600003610f3b57600160801b610f4d565b6ffffcb933bd6fad37aa2d162d1a5940015b6001600160881b031690506002821615610f77576ffff97272373d413259a46990580e213a0260801c5b6004821615610f96576ffff2e50f5f656932ef12357cf3c7fdcc0260801c5b6008821615610fb5576fffe5caca7e10e4e61c3624eaa0941cd00260801c5b6010821615610fd4576fffcb9843d60f6159c9db58835c9266440260801c5b6020821615610ff3576fff973b41fa98c081472e6896dfb254c00260801c5b6040821615611012576fff2ea16466c96a3843ec78b326b528610260801c5b6080821615611031576ffe5dee046a99a2a811c461f1969c30530260801c5b610100821615611051576ffcbe86c7900a88aedcffc83b479aa3a40260801c5b610200821615611071576ff987a7253ac413176f2b074cf7815e540260801c5b610400821615611091576ff3392b0822b70005940c7a398e4b70f30260801c5b6108008216156110b1576fe7159475a2c29b7443b29c7fa6e889d90260801c5b6110008216156110d1576fd097f3bdfd2022b8845ad8f792aa58250260801c5b6120008216156110f1576fa9f746462d870fdf8a65dc1f90e061e50260801c5b614000821615611111576f70d869a156d2a1b890bb3df62baf32f70260801c5b618000821615611131576f31be135f97d08fd981231505542fcfa60260801c5b62010000821615611152576f09aa508b5b7a84e1c677de54f3e99bc90260801c5b62020000821615611172576e5d6af8dedb81196699c329225ee6040260801c5b62040000821615611191576d2216e584f5fa1ea926041bedfe980260801c5b620800008216156111ae576b048a170391f7dc42444e8fa20260801c5b60008460020b13156111cf5780600019816111cb576111cb61264a565b0490505b600160201b8106156111e25760016111e5565b60005b60ff16602082901c0192505050919050565b60006112068686868686611681565b9695505050505050565b60008060008061121e610e06565b80546000878152600183016020526040908190209051633cf3645360e21b81529293506001600160a01b039091169163f3cd914c91611262918a9190600401612675565b6020604051808303816000875af1158015611281573d6000803e3d6000fd5b505050506040513d601f19601f820116820180604052508101906112a59190612550565b60048201805491935060006112b983612623565b909155505085516112d3906112ce8460801c90565b611742565b6112e286602001516112ce8490565b6112ec8260801c90565b9350909150505b9250929050565b600080600080611308610e06565b805460008781526002830160205260409081902090516330d7224d60e11b81529293506001600160a01b03909116916361ae449a9161134c918a91906004016126c0565b6020604051808303816000875af115801561136b573d6000803e3d6000fd5b505050506040513d601f19601f8201168201806040525081019061138f9190612550565b60058201805491935060006112b983612623565b6101c8816040516024016113b791906120a6565b60408051601f198184030181529190526020810180516001600160e01b031663104c13eb60e21b17905261190e565b60006113f0611917565b905060006113fc610e06565b6000858152600380830160209081526040808420815160808101835281546001600160a01b0390811682526001808401548216838701526002840154838601529290950154606082015286548b87529187019093528185209151633cf3645360e21b8152959650939491939092169163f3cd914c9161147f918b91600401612675565b6020604051808303816000875af115801561149e573d6000803e3d6000fd5b505050506040513d601f19601f820116820180604052508101906114c29190612550565b9150600081600001516001600160a01b031682602001516001600160a01b03161015611508576114f788602001516112ce8590565b6115018360801c90565b905061151b565b8751611518906112ce8560801c90565b50815b81516040830151606084015161153a929161153591612703565b61193b565b6115518260200151826001600160801b03166119ee565b604080516060808201835284830151825284015160208083019182526001600160801b03851683850190815260038a01805460009081526002808d018552878220965187559451600180880191909155925195909401949094556001600160a01b038b16835260048a018252938220835481549586018255908352908220909301929092558054916115e283612623565b9190505550610a69826020015182611742565b61164b8363a9059cbb60e01b8484604051602401611614929190612716565b60408051601f198184030181529190526020810180516001600160e01b03166001600160e01b031990931692909217909152611a2a565b505050565b600080826001600160a01b0316846001600160a01b031610156116775750829050816112f3565b50819050826112f3565b6000836001600160a01b0316856001600160a01b031611156116a1579293925b846001600160a01b0316866001600160a01b0316116116cc576116c5858585611b04565b9050611739565b836001600160a01b0316866001600160a01b0316101561172e5760006116f3878686611b04565b90506000611702878986611b79565b9050806001600160801b0316826001600160801b0316106117235780611725565b815b92505050611739565b611206858584611b79565b95945050505050565b600061174c610e06565b9050600082600f0b12156117eb5780546001600160a01b0316630b0d9c09843061177586612600565b6040516001600160e01b031960e086901b1681526001600160a01b0393841660048201529290911660248301526001600160801b031660448201526064015b600060405180830381600087803b1580156117ce57600080fd5b505af11580156117e2573d6000803e3d6000fd5b50505050505050565b6001600160a01b03831661187c578054604051636a256b2960e01b81526001600160a01b0390911690636a256b29906001600160801b038516906118339087906004016120d6565b60206040518083038185885af1158015611851573d6000803e3d6000fd5b50505050506040513d601f19601f820116820180604052508101906118769190612550565b50505050565b805461189c9084906001600160a01b03166001600160801b0385166115f5565b8054604051636a256b2960e01b81526001600160a01b0390911690636a256b29906118cb9086906004016120d6565b6020604051808303816000875af11580156118ea573d6000803e3d6000fd5b505050506040513d601f19601f820116820180604052508101906118769190612550565b6101c881611bb7565b7fe5fae1d1655caf6698b8b944506b14651a3f414f8a67caa7b6a42e32816e934090565b6000611945611917565b805460405163095ea7b360e01b81529192506001600160a01b038086169263095ea7b3926119799216908690600401612716565b6020604051808303816000875af1158015611998573d6000803e3d6000fd5b505050506040513d601f19601f820116820180604052508101906119bc919061272f565b508054604051631e573fb760e31b81526001600160a01b039091169063f2b9fdb8906117b49086908690600401612716565b60006119f8611917565b805460405163f3fef3a360e01b81529192506001600160a01b03169063f3fef3a3906117b49086908690600401612716565b6000611a7f826040518060400160405280602081526020017f5361666545524332303a206c6f772d6c6576656c2063616c6c206661696c6564815250856001600160a01b0316611bd89092919063ffffffff16565b9050805160001480611aa0575080806020019051810190611aa0919061272f565b61164b5760405162461bcd60e51b815260206004820152602a60248201527f5361666545524332303a204552433230206f7065726174696f6e20646964206e6044820152691bdd081cdd58d8d9595960b21b60648201526084015b60405180910390fd5b6000826001600160a01b0316846001600160a01b03161115611b24579192915b6000611b47856001600160a01b0316856001600160a01b0316600160601b611be7565b9050611b6e611b698483611b5b8989612210565b6001600160a01b0316611be7565b611d60565b9150505b9392505050565b6000826001600160a01b0316846001600160a01b03161115611b99579192915b611baf611b6983600160601b611b5b8888612210565b949350505050565b60006a636f6e736f6c652e6c6f679050600080835160208501845afa505050565b6060611baf8484600085611d7b565b6000808060001985870985870292508281108382030391505080600003611c205760008411611c1557600080fd5b508290049050611b72565b808411611c2c57600080fd5b6000848688098084039381119092039190506000611c4c86196001612703565b8616958690049593849004936000819003046001019050611c6d8184612751565b909317926000611c7e876003612751565b6002189050611c8d8188612751565b611c98906002612768565b611ca29082612751565b9050611cae8188612751565b611cb9906002612768565b611cc39082612751565b9050611ccf8188612751565b611cda906002612768565b611ce49082612751565b9050611cf08188612751565b611cfb906002612768565b611d059082612751565b9050611d118188612751565b611d1c906002612768565b611d269082612751565b9050611d328188612751565b611d3d906002612768565b611d479082612751565b9050611d538186612751565b9998505050505050505050565b806001600160801b0381168114611d7657600080fd5b919050565b606082471015611ddc5760405162461bcd60e51b815260206004820152602660248201527f416464726573733a20696e73756666696369656e742062616c616e636520666f6044820152651c8818d85b1b60d21b6064820152608401611afb565b600080866001600160a01b03168587604051611df8919061277b565b60006040518083038185875af1925050503d8060008114611e35576040519150601f19603f3d011682016040523d82523d6000602084013e611e3a565b606091505b5091509150610dfb8783838760608315611eb5578251600003611eae576001600160a01b0385163b611eae5760405162461bcd60e51b815260206004820152601d60248201527f416464726573733a2063616c6c20746f206e6f6e2d636f6e74726163740000006044820152606401611afb565b5081611baf565b611baf8383815115611eca5781518083602001fd5b8060405162461bcd60e51b8152600401611afb91906120a6565b6001600160a01b03811681146101c857600080fd5b600080600060608486031215611f0e57600080fd5b8335611f1981611ee4565b92506020840135611f2981611ee4565b929592945050506040919091013590565b8060020b81146101c857600080fd5b60008060008060008060c08789031215611f6257600080fd5b8635611f6d81611ee4565b95506020870135611f7d81611ee4565b94506040870135611f8d81611f3a565b93506060870135611f9d81611f3a565b9598949750929560808101359460a0909101359350915050565b600060208284031215611fc957600080fd5b8135611b7281611ee4565b60008083601f840112611fe657600080fd5b5081356001600160401b03811115611ffd57600080fd5b6020830191508360208285010111156112f357600080fd5b6000806020838503121561202857600080fd5b82356001600160401b0381111561203e57600080fd5b61204a85828601611fd4565b90969095509350505050565b60005b83811015612071578181015183820152602001612059565b50506000910152565b60008151808452612092816020860160208601612056565b601f01601f19169290920160200192915050565b6020815260006101d7602083018461207a565b6000602082840312156120cb57600080fd5b8135611b7281611f3a565b6001600160a01b0391909116815260200190565b60008060008060006080868803121561210257600080fd5b853561210d81611ee4565b9450602086013561211d81611ee4565b9350604086013561212d81611ee4565b925060608601356001600160401b0381111561214857600080fd5b61215488828901611fd4565b969995985093965092949392505050565b6000806000806080858703121561217b57600080fd5b843561218681611ee4565b9350602085013561219681611ee4565b925060408501356121a681611f3a565b915060608501356121b681611f3a565b939692955090935050565b600080604083850312156121d457600080fd5b82356121df81611ee4565b915060208301356121ef81611ee4565b809150509250929050565b634e487b7160e01b600052601160045260246000fd5b6001600160a01b03828116828216039080821115612230576122306121fa565b5092915050565b6001600160a01b03818116838216019080821115612230576122306121fa565b80516001600160a01b03908116835260208083015182169084015260408083015162ffffff169084015260608083015160020b9084015260809182015116910152565b634e487b7160e01b600052602160045260246000fd5b6001600160a01b038516815261010081016122ce6020830186612257565b600384106122ec57634e487b7160e01b600052602160045260246000fd5b60c082019390935260e0015292915050565b634e487b7160e01b600052604160045260246000fd5b60405160a081016001600160401b0381118282101715612336576123366122fe565b60405290565b60006020828403121561234e57600080fd5b81516001600160401b038082111561236557600080fd5b818401915084601f83011261237957600080fd5b81518181111561238b5761238b6122fe565b604051601f8201601f19908116603f011681019083821181831017156123b3576123b36122fe565b816040528281528760208487010111156123cc57600080fd5b610dfb836020830160208801612056565b8051600f81900b8114611d7657600080fd5b6000806040838503121561240257600080fd5b61240b836123dd565b9150612419602084016123dd565b90509250929050565b62ffffff811681146101c857600080fd5b6000806000806080858703121561244957600080fd5b845161245481611ee4565b602086015190945061246581611f3a565b604086015190935061247681612422565b60608601519092506121b681612422565b803560038110611d7657600080fd5b6000806000808486036101008112156124ae57600080fd5b85356124b981611ee4565b945060a0601f19820112156124cd57600080fd5b506124d6612314565b60208601356124e481611ee4565b815260408601356124f481611ee4565b6020820152606086013561250781612422565b6040820152608086013561251a81611f3a565b606082015260a086013561252d81611ee4565b6080820152925061254060c08601612487565b9396929550929360e00135925050565b60006020828403121561256257600080fd5b5051919050565b6125738186612257565b6001600160a01b03841660a082015260e060c08201819052810182905260006101008385828501376000838501820152601f909301601f1916909101909101949350505050565b6000602082840312156125cc57600080fd5b8151611b7281611f3a565b6000602082840312156125e957600080fd5b81516001600160801b0381168114611b7257600080fd5b6000600f82900b6001607f1b810161261a5761261a6121fa565b60000392915050565b600060018201612635576126356121fa565b5060010190565b60a081016101da8284612257565b634e487b7160e01b600052601260045260246000fd5b6002815261060f60f31b602082015260400190565b60006101206126848386612257565b835460ff16151560a0840152600184015460c084015260028401546001600160a01b031660e08401526101008301819052611b6e818401612660565b60006101206126cf8386612257565b83548060020b60a08501528060181c60020b60c085015250600184015460e084015280610100840152611b6e818401612660565b808201808211156101da576101da6121fa565b6001600160a01b03929092168252602082015260400190565b60006020828403121561274157600080fd5b81518015158114611b7257600080fd5b80820281158282048414176101da576101da6121fa565b818103818111156101da576101da6121fa565b6000825161278d818460208701612056565b919091019291505056fea2646970667358221220bd34653f2173a6ee9f299f57285b302f61b24144cdd747b06d0512e49ad0b70c64736f6c63430008140033",
  "linkReferences": {},
  "deployedLinkReferences": {}
}