{
  "_format": "hh-sol-artifact-1",
  "contractName": "UniswapFacet",
  "sourceName": "contracts/Facets/UniswapFacet.sol",
  "abi": [
    {
      "inputs": [],
      "name": "InvalidTick",
      "type": "error"
    },
    {
      "inputs": [
        {
          "internalType": "address",
          "name": "token0",
          "type": "address"
        },
        {
          "internalType": "address",
          "name": "token1",
          "type": "address"
        },
        {
          "internalType": "int24",
          "name": "tickLower",
          "type": "int24"
        },
        {
          "internalType": "int24",
          "name": "tickUpper",
          "type": "int24"
        },
        {
          "internalType": "uint256",
          "name": "token0Amount",
          "type": "uint256"
        },
        {
          "internalType": "uint256",
          "name": "token1Amount",
          "type": "uint256"
        }
      ],
      "name": "addLiquidty",
      "outputs": [
        {
          "internalType": "int256",
          "name": "token0Used",
          "type": "int256"
        },
        {
          "internalType": "int256",
          "name": "token1Used",
          "type": "int256"
        }
      ],
      "stateMutability": "nonpayable",
      "type": "function"
    },
    {
      "inputs": [
        {
          "internalType": "address",
          "name": "token0",
          "type": "address"
        },
        {
          "internalType": "address",
          "name": "token1",
          "type": "address"
        },
        {
          "internalType": "int24",
          "name": "lowerBound",
          "type": "int24"
        },
        {
          "internalType": "int24",
          "name": "upperBound",
          "type": "int24"
        }
      ],
      "name": "closePosition",
      "outputs": [
        {
          "internalType": "int256",
          "name": "token0Amount",
          "type": "int256"
        },
        {
          "internalType": "int256",
          "name": "token1Amount",
          "type": "int256"
        }
      ],
      "stateMutability": "nonpayable",
      "type": "function"
    },
    {
      "inputs": [
        {
          "internalType": "address",
          "name": "token0",
          "type": "address"
        },
        {
          "internalType": "address",
          "name": "token1",
          "type": "address"
        }
      ],
      "name": "getPoolLiquidity",
      "outputs": [
        {
          "internalType": "uint128",
          "name": "",
          "type": "uint128"
        }
      ],
      "stateMutability": "view",
      "type": "function"
    },
    {
      "inputs": [
        {
          "internalType": "int24",
          "name": "tick",
          "type": "int24"
        }
      ],
      "name": "getSqrtAtTick",
      "outputs": [
        {
          "internalType": "uint160",
          "name": "",
          "type": "uint160"
        }
      ],
      "stateMutability": "pure",
      "type": "function"
    },
    {
      "inputs": [
        {
          "internalType": "address",
          "name": "token0",
          "type": "address"
        },
        {
          "internalType": "address",
          "name": "token1",
          "type": "address"
        },
        {
          "internalType": "uint160",
          "name": "poolStartPrice",
          "type": "uint160"
        },
        {
          "internalType": "address",
          "name": "hook",
          "type": "address"
        },
        {
          "internalType": "bytes",
          "name": "hookData",
          "type": "bytes"
        }
      ],
      "name": "initializePool",
      "outputs": [],
      "stateMutability": "nonpayable",
      "type": "function"
    },
    {
      "inputs": [
        {
          "internalType": "bytes",
          "name": "data",
          "type": "bytes"
        }
      ],
      "name": "lockAcquired",
      "outputs": [
        {
          "internalType": "bytes",
          "name": "",
          "type": "bytes"
        }
      ],
      "stateMutability": "nonpayable",
      "type": "function"
    },
    {
      "inputs": [
        {
          "internalType": "address",
          "name": "managerAddy",
          "type": "address"
        }
      ],
      "name": "setPoolManager",
      "outputs": [],
      "stateMutability": "nonpayable",
      "type": "function"
    },
    {
      "inputs": [
        {
          "internalType": "address",
          "name": "tokenFrom",
          "type": "address"
        },
        {
          "internalType": "address",
          "name": "tokenTo",
          "type": "address"
        },
        {
          "internalType": "int256",
          "name": "amount",
          "type": "int256"
        }
      ],
      "name": "swap",
      "outputs": [
        {
          "internalType": "int256",
          "name": "token0Amount",
          "type": "int256"
        },
        {
          "internalType": "int256",
          "name": "token1Amount",
          "type": "int256"
        },
        {
          "internalType": "bool",
          "name": "zeroForOne",
          "type": "bool"
        }
      ],
      "stateMutability": "nonpayable",
      "type": "function"
    }
  ],
  "bytecode": "0x608060405234801561001057600080fd5b50612db3806100206000396000f3fe608060405234801561001057600080fd5b50600436106100785760003560e01c80631ff0c3251461007d5780635f7acbdc146100b2578063616c1cc3146100c75780637aef6715146100ef578063ab6291fe14610102578063b4becbed14610122578063b82197ed14610142578063bee000ce14610155575b600080fd5b61009061008b3660046124cd565b610180565b6040805193845260208401929092521515908201526060015b60405180910390f35b6100c56100c036600461254f565b61019f565b005b6100da6100d53660046125eb565b6101b5565b604080519283526020830191909152016100a9565b6100c56100fd366004612659565b6101d5565b610115610110366004612676565b6101e1565b6040516100a99190612707565b61013561013036600461271a565b6101f6565b6040516100a99190612737565b6100da61015036600461274b565b610201565b6101686101633660046127a7565b610222565b6040516001600160801b0390911681526020016100a9565b600080600061019086868661022e565b92509250925093509350939050565b6101ad868686868686610449565b505050505050565b6000806101c688888888888861059c565b91509150965096945050505050565b6101de8161089b565b50565b60606101ed83836108c7565b90505b92915050565b60006101f082610aaa565b60008061021086868686610ab5565b600f91820b98910b9650945050505050565b60006101ed8383610d2e565b60008060008061023c610e48565b9050600080600061024d8a8a610e6c565b6001600160a01b038083166000908152600789016020908152604080832084861684528252808320815160a08101835281548616815260018201548087168286015262ffffff600160a01b82041682850152600160b81b9004600290810b60608084019190915292015490951660808601528151908101825287151581529182018f90529598509396509194509290919081018661030957610304600173fffd8963efd1fc6a506488495d951d5263988d266127f6565b610319565b6103196401000276a3600161281d565b6001600160a01b0390811690915260048801805460009081526001808b01602090815260408084208751815460ff1916901515178155878301519381019390935586810151600290930180546001600160a01b031916938716939093179092558b54935491519596509194929093169263815483199261039f9233928992889201612896565b6040516020818303038152906040526040518263ffffffff1660e01b81526004016103ca9190612707565b6000604051808303816000875af11580156103e9573d6000803e3d6000fd5b505050506040513d6000823e601f3d908101601f191682016040526104119190810190612922565b90506000808280602001905181019061042a91906129d5565b600f91820b9d50900b9a50969850505050505050505093509350939050565b6000610453610e48565b6040805160a0810182526001600160a01b038a81168083528a82166020808501828152610bb8868801908152603c606088019081528d871660808901908152600096875260078b0185528987209587529490935293879020865181549087166001600160a01b031991821617825591516001820180549651945162ffffff908116600160b81b0262ffffff60b81b1991909616600160a01b026001600160b81b031990981692891692909217969096171692909217909355905160029091018054918416919092161790558354925163695c5bf560e01b8152939450909291169063695c5bf59061054e9084908a9089908990600401612a08565b6020604051808303816000875af115801561056d573d6000803e3d6000fd5b505050506040513d601f19601f820116820180604052508101906105919190612a59565b505050505050505050565b60008060006105a9610e48565b90506105b789898787610eaa565b6001600160a01b038085166000908152600787016020908152604080832084881684528252808320815160a08101835281548616815260018201548087169482019490945262ffffff600160a01b85041692810192909252600160b81b909204600290810b6060830152909101549092166080830152949d50929b5090975095509061064282610ef1565b3360009081526006850160209081526040808320815160608101835260028f810b82528e810b8286019081528285018881528454600181810187559589529688209351969092029092018054925162ffffff90811663010000000265ffffffffffff199094169616959095179190911784555192019190915585549051633205590760e21b815292935090916001600160a01b03919091169063c815641c906106f390859060040190815260200190565b608060405180830381865afa158015610710573d6000803e3d6000fd5b505050506040513d601f19601f820116820180604052508101906107349190612a87565b505050905060006107586107478c610f21565b6107508c610f21565b848c8c611239565b6040805160608101825260028e810b82528d810b6020808401918252600f9590950b83850181815260058c0180546000908152948d01885286852086518154955162ffffff90811663010000000265ffffffffffff1990971691161794909417845590516001938401558b5490549551919750939592946001600160a01b03909416936381548319936107f19333938d93919201612896565b6040516020818303038152906040526040518263ffffffff1660e01b815260040161081c9190612707565b6000604051808303816000875af115801561083b573d6000803e3d6000fd5b505050506040513d6000823e601f3d908101601f191682016040526108639190810190612922565b90506000808280602001905181019061087c91906129d5565b600f91820b9c50900b9950505050505050505050965096945050505050565b60006108a5610e48565b80546001600160a01b0319166001600160a01b03939093169290921790915550565b606060008080806108da86880188612aea565b92965090945092509050600080808460038111156108fa576108fa612880565b03610913576109098584611252565b90925090506109c5565b600184600381111561092757610927612880565b0361093657610909858461133c565b600284600381111561094a5761094a612880565b0361098b5761097b6040518060400160405280600b81526020016a576861747320676f696e6760a81b8152506113e5565b610986858488611428565b6109c5565b6109ba6040518060400160405280600e81526020016d537061726b7320666c79696e672160901b8152506113e5565b6109c58584886116fd565b60408051600f84810b602083015283900b81830152815180820383018152606082019283905287516370a0823160e01b9093529850610a66919088906001600160a01b038316906370a0823190610a20903090606401612737565b602060405180830381865afa158015610a3d573d6000803e3d6000fd5b505050506040513d601f19601f82011682018060405250810190610a619190612ba4565b611a56565b60208501516040516370a0823160e01b8152610a9e919088906001600160a01b038316906370a0823190610a20903090600401612737565b50505050505092915050565b60006101f082610f21565b6000806000610ac2610e48565b9050610ace8787611ab1565b6001600160a01b038083166000908152600785016020908152604080832084861684528252808320815160a08101835281548616815260018201548087169482019490945262ffffff600160a01b85041692810192909252600160b81b909204600290810b606083015290910154831660808201528554949b509299509192166333aa955b610b5c84610ef1565b6040516001600160e01b031960e084901b168152600481019190915230602482015260028a810b604483015289900b6064820152608401602060405180830381865afa158015610bb0573d6000803e3d6000fd5b505050506040513d601f19601f82011682018060405250810190610bd49190612bbd565b905060405180606001604052808860020b81526020018760020b815260200182610bfd90612be6565b600f0b905260058401805460009081526002860160209081526040808320855181548785015162ffffff90811663010000000265ffffffffffff199092169216919091171781559481015160019586015587549354905192946001600160a01b0390941693638154831993610c799333938a9392909101612896565b6040516020818303038152906040526040518263ffffffff1660e01b8152600401610ca49190612707565b6000604051808303816000875af1158015610cc3573d6000803e3d6000fd5b505050506040513d6000823e601f3d908101601f19168201604052610ceb9190810190612922565b6005850180549192506000610cff83612c09565b919050555060008082806020019051810190610d1b91906129d5565b909d909c509a5050505050505050505050565b600080610d39610e48565b9050610d458484611ab1565b6001600160a01b038083166000908152600785016020908152604080832084861684528252808320815160a08101835281548616815260018201548087169482019490945262ffffff600160a01b85041692810192909252600160b81b909204600290810b606083015290910154909216608083015292965090945090610dcb82610ef1565b835460405163fa6793d560e01b8152600481018390529192506000916001600160a01b039091169063fa6793d590602401602060405180830381865afa158015610e19573d6000803e3d6000fd5b505050506040513d601f19601f82011682018060405250810190610e3d9190612bbd565b979650505050505050565b7f35c2975ab7d5366802ce2593b15dfef7ba0fb48f04ca0c021c862e3ccd408ea590565b6000806000836001600160a01b0316856001600160a01b03161015610e9957506001915083905082610ea3565b5060009150829050835b9250925092565b600080600080866001600160a01b0316886001600160a01b03161015610eda575086925085915084905083610ee6565b50859250869150839050845b945094509450949050565b600081604051602001610f049190612c22565b604051602081830303815290604052805190602001209050919050565b60008060008360020b12610f38578260020b610f40565b8260020b6000035b9050620d89e8811115610f66576040516333a3bdff60e21b815260040160405180910390fd5b600081600116600003610f7d57600160801b610f8f565b6ffffcb933bd6fad37aa2d162d1a5940015b6001600160881b031690506002821615610fb9576ffff97272373d413259a46990580e213a0260801c5b6004821615610fd8576ffff2e50f5f656932ef12357cf3c7fdcc0260801c5b6008821615610ff7576fffe5caca7e10e4e61c3624eaa0941cd00260801c5b6010821615611016576fffcb9843d60f6159c9db58835c9266440260801c5b6020821615611035576fff973b41fa98c081472e6896dfb254c00260801c5b6040821615611054576fff2ea16466c96a3843ec78b326b528610260801c5b6080821615611073576ffe5dee046a99a2a811c461f1969c30530260801c5b610100821615611093576ffcbe86c7900a88aedcffc83b479aa3a40260801c5b6102008216156110b3576ff987a7253ac413176f2b074cf7815e540260801c5b6104008216156110d3576ff3392b0822b70005940c7a398e4b70f30260801c5b6108008216156110f3576fe7159475a2c29b7443b29c7fa6e889d90260801c5b611000821615611113576fd097f3bdfd2022b8845ad8f792aa58250260801c5b612000821615611133576fa9f746462d870fdf8a65dc1f90e061e50260801c5b614000821615611153576f70d869a156d2a1b890bb3df62baf32f70260801c5b618000821615611173576f31be135f97d08fd981231505542fcfa60260801c5b62010000821615611194576f09aa508b5b7a84e1c677de54f3e99bc90260801c5b620200008216156111b4576e5d6af8dedb81196699c329225ee6040260801c5b620400008216156111d3576d2216e584f5fa1ea926041bedfe980260801c5b620800008216156111f0576b048a170391f7dc42444e8fa20260801c5b60008460020b131561121157806000198161120d5761120d612c30565b0490505b600160201b810615611224576001611227565b60005b60ff16602082901c0192505050919050565b60006112488686868686611ae2565b9695505050505050565b600080600080611260610e48565b80546000878152600183016020526040908190209051633cf3645360e21b81529293506001600160a01b039091169163f3cd914c916112a4918a9190600401612c5b565b6020604051808303816000875af11580156112c3573d6000803e3d6000fd5b505050506040513d601f19601f820116820180604052508101906112e79190612ba4565b60048201805491935060006112fb83612c09565b90915550508551611315906113108460801c90565b611ba3565b61132486602001516113108490565b61132e8260801c90565b9350909150505b9250929050565b60008060008061134a610e48565b805460008781526002830160205260409081902090516330d7224d60e11b81529293506001600160a01b03909116916361ae449a9161138e918a9190600401612ca6565b6020604051808303816000875af11580156113ad573d6000803e3d6000fd5b505050506040513d601f19601f820116820180604052508101906113d19190612ba4565b60058201805491935060006112fb83612c09565b6101de816040516024016113f99190612707565b60408051601f198184030181529190526020810180516001600160e01b031663104c13eb60e21b179052611d6f565b6000611432611d78565b9050600061143e610e48565b6000858152600380830160209081526040808420815160808101835281546001600160a01b0390811682526001808401548216838701526002840154838601529290950154606082015286548b87529187019093528185209151633cf3645360e21b8152959650939491939092169163f3cd914c916114c1918b91600401612c5b565b6020604051808303816000875af11580156114e0573d6000803e3d6000fd5b505050506040513d601f19601f820116820180604052508101906115049190612ba4565b9150600081600001516001600160a01b031682602001516001600160a01b0316101561154a5761153988602001516113108590565b6115438360801c90565b905061155d565b875161155a906113108560801c90565b50815b81516040830151606084015161157c929161157791612ce9565b611d9c565b6115938260200151826001600160801b0316611e4f565b6040518060a001604052808360400151815260200183606001518152602001826001600160801b0316815260200183600001516001600160a01b0316815260200183602001516001600160a01b03168152508560020160008760030154815260200190815260200160002060008201518160000155602082015181600101556040820151816002015560608201518160030160006101000a8154816001600160a01b0302191690836001600160a01b0316021790555060808201518160040160006101000a8154816001600160a01b0302191690836001600160a01b03160217905550905050846004016000876001600160a01b03166001600160a01b03168152602001908152602001600020856003015490806001815401808255809150506001900390600052602060002001600090919091909150558460030160008154809291906116e090612c09565b91905055506116f3826020015182611ba3565b5050505050505050565b6000611707611e8b565b90506000611713610e48565b6000858152600380830160209081526040808420815160808101835281546001600160a01b0390811682526001808401548216838701526002840154838601529290950154606082015286548b87529187019093528185209151633cf3645360e21b8152959650939491939092169163f3cd914c91611796918b91600401612c5b565b6020604051808303816000875af11580156117b5573d6000803e3d6000fd5b505050506040513d601f19601f820116820180604052508101906117d99190612ba4565b9150600081600001516001600160a01b031682602001516001600160a01b0316101561181f5761180e88602001516113108590565b6118188360801c90565b9050611832565b875161182f906113108560801c90565b50815b81516040516370a0823160e01b81526118a9916001600160a01b0316906370a0823190611863903090600401612737565b602060405180830381865afa158015611880573d6000803e3d6000fd5b505050506040513d601f19601f820116820180604052508101906118a49190612ba4565b611eaf565b8151604083015160608401516118c892916118c391612ce9565b611ef4565b6118df826040015183606001516118a49190612ce9565b6118f1816001600160801b0316611eaf565b6118fe8260200151611fbb565b815161190990611fbb565b6040518060a001604052808360400151815260200183606001518152602001826001600160801b0316815260200183600001516001600160a01b0316815260200183602001516001600160a01b03168152508560010160008760020154815260200190815260200160002060008201518160000155602082015181600101556040820151816002015560608201518160030160006101000a8154816001600160a01b0302191690836001600160a01b0316021790555060808201518160040160006101000a8154816001600160a01b0302191690836001600160a01b03160217905550905050846003016000876001600160a01b03166001600160a01b03168152602001908152602001600020856002015490806001815401808255809150506001900390600052602060002001600090919091909150558460020160008154809291906116e090612c09565b611aac8363a9059cbb60e01b8484604051602401611a75929190612cfc565b60408051601f198184030181529190526020810180516001600160e01b03166001600160e01b031990931692909217909152611ffe565b505050565b600080826001600160a01b0316846001600160a01b03161015611ad8575082905081611335565b5081905082611335565b6000836001600160a01b0316856001600160a01b03161115611b02579293925b846001600160a01b0316866001600160a01b031611611b2d57611b268585856120d8565b9050611b9a565b836001600160a01b0316866001600160a01b03161015611b8f576000611b548786866120d8565b90506000611b6387898661214d565b9050806001600160801b0316826001600160801b031610611b845780611b86565b815b92505050611b9a565b61124885858461214d565b95945050505050565b6000611bad610e48565b9050600082600f0b1215611c4c5780546001600160a01b0316630b0d9c098430611bd686612be6565b6040516001600160e01b031960e086901b1681526001600160a01b0393841660048201529290911660248301526001600160801b031660448201526064015b600060405180830381600087803b158015611c2f57600080fd5b505af1158015611c43573d6000803e3d6000fd5b50505050505050565b6001600160a01b038316611cdd578054604051636a256b2960e01b81526001600160a01b0390911690636a256b29906001600160801b03851690611c94908790600401612737565b60206040518083038185885af1158015611cb2573d6000803e3d6000fd5b50505050506040513d601f19601f82011682018060405250810190611cd79190612ba4565b50505050565b8054611cfd9084906001600160a01b03166001600160801b038516611a56565b8054604051636a256b2960e01b81526001600160a01b0390911690636a256b2990611d2c908690600401612737565b6020604051808303816000875af1158015611d4b573d6000803e3d6000fd5b505050506040513d601f19601f82011682018060405250810190611cd79190612ba4565b6101de8161218b565b7fe5fae1d1655caf6698b8b944506b14651a3f414f8a67caa7b6a42e32816e934090565b6000611da6611d78565b805460405163095ea7b360e01b81529192506001600160a01b038086169263095ea7b392611dda9216908690600401612cfc565b6020604051808303816000875af1158015611df9573d6000803e3d6000fd5b505050506040513d601f19601f82011682018060405250810190611e1d9190612d15565b508054604051631e573fb760e31b81526001600160a01b039091169063f2b9fdb890611c159086908690600401612cfc565b6000611e59611d78565b805460405163f3fef3a360e01b81529192506001600160a01b03169063f3fef3a390611c159086908690600401612cfc565b7fbd9b63cad2056a2132e010a4fbc483bbe85b10ec55651a56b347929db5cb470690565b6101de81604051602401611ec591815260200190565b60408051601f198184030181529190526020810180516001600160e01b031663f82c50f160e01b179052611d6f565b6000611efe611e8b565b805460405163095ea7b360e01b81529192506001600160a01b038086169263095ea7b392611f329216908690600401612cfc565b6020604051808303816000875af1158015611f51573d6000803e3d6000fd5b505050506040513d601f19601f82011682018060405250810190611f759190612d15565b50805460405163573ade8160e01b81526001600160a01b03858116600483015260248201859052600260448301523060648301529091169063573ade8190608401611d2c565b6101de81604051602401611fcf9190612737565b60408051601f198184030181529190526020810180516001600160e01b031663161765e160e11b179052611d6f565b6000612053826040518060400160405280602081526020017f5361666545524332303a206c6f772d6c6576656c2063616c6c206661696c6564815250856001600160a01b03166121ac9092919063ffffffff16565b90508051600014806120745750808060200190518101906120749190612d15565b611aac5760405162461bcd60e51b815260206004820152602a60248201527f5361666545524332303a204552433230206f7065726174696f6e20646964206e6044820152691bdd081cdd58d8d9595960b21b60648201526084015b60405180910390fd5b6000826001600160a01b0316846001600160a01b031611156120f8579192915b600061211b856001600160a01b0316856001600160a01b0316600160601b6121bb565b905061214261213d848361212f89896127f6565b6001600160a01b03166121bb565b612334565b9150505b9392505050565b6000826001600160a01b0316846001600160a01b0316111561216d579192915b61218361213d83600160601b61212f88886127f6565b949350505050565b60006a636f6e736f6c652e6c6f679050600080835160208501845afa505050565b6060612183848460008561234f565b60008080600019858709858702925082811083820303915050806000036121f457600084116121e957600080fd5b508290049050612146565b80841161220057600080fd5b600084868809808403938111909203919050600061222086196001612ce9565b86169586900495938490049360008190030460010190506122418184612d37565b909317926000612252876003612d37565b60021890506122618188612d37565b61226c906002612d4e565b6122769082612d37565b90506122828188612d37565b61228d906002612d4e565b6122979082612d37565b90506122a38188612d37565b6122ae906002612d4e565b6122b89082612d37565b90506122c48188612d37565b6122cf906002612d4e565b6122d99082612d37565b90506122e58188612d37565b6122f0906002612d4e565b6122fa9082612d37565b90506123068188612d37565b612311906002612d4e565b61231b9082612d37565b90506123278186612d37565b9998505050505050505050565b806001600160801b038116811461234a57600080fd5b919050565b6060824710156123b05760405162461bcd60e51b815260206004820152602660248201527f416464726573733a20696e73756666696369656e742062616c616e636520666f6044820152651c8818d85b1b60d21b60648201526084016120cf565b600080866001600160a01b031685876040516123cc9190612d61565b60006040518083038185875af1925050503d8060008114612409576040519150601f19603f3d011682016040523d82523d6000602084013e61240e565b606091505b5091509150610e3d8783838760608315612489578251600003612482576001600160a01b0385163b6124825760405162461bcd60e51b815260206004820152601d60248201527f416464726573733a2063616c6c20746f206e6f6e2d636f6e747261637400000060448201526064016120cf565b5081612183565b612183838381511561249e5781518083602001fd5b8060405162461bcd60e51b81526004016120cf9190612707565b6001600160a01b03811681146101de57600080fd5b6000806000606084860312156124e257600080fd5b83356124ed816124b8565b925060208401356124fd816124b8565b929592945050506040919091013590565b60008083601f84011261252057600080fd5b5081356001600160401b0381111561253757600080fd5b60208301915083602082850101111561133557600080fd5b60008060008060008060a0878903121561256857600080fd5b8635612573816124b8565b95506020870135612583816124b8565b94506040870135612593816124b8565b935060608701356125a3816124b8565b925060808701356001600160401b038111156125be57600080fd5b6125ca89828a0161250e565b979a9699509497509295939492505050565b8060020b81146101de57600080fd5b60008060008060008060c0878903121561260457600080fd5b863561260f816124b8565b9550602087013561261f816124b8565b9450604087013561262f816125dc565b9350606087013561263f816125dc565b9598949750929560808101359460a0909101359350915050565b60006020828403121561266b57600080fd5b8135612146816124b8565b6000806020838503121561268957600080fd5b82356001600160401b0381111561269f57600080fd5b6126ab8582860161250e565b90969095509350505050565b60005b838110156126d25781810151838201526020016126ba565b50506000910152565b600081518084526126f38160208601602086016126b7565b601f01601f19169290920160200192915050565b6020815260006101ed60208301846126db565b60006020828403121561272c57600080fd5b8135612146816125dc565b6001600160a01b0391909116815260200190565b6000806000806080858703121561276157600080fd5b843561276c816124b8565b9350602085013561277c816124b8565b9250604085013561278c816125dc565b9150606085013561279c816125dc565b939692955090935050565b600080604083850312156127ba57600080fd5b82356127c5816124b8565b915060208301356127d5816124b8565b809150509250929050565b634e487b7160e01b600052601160045260246000fd5b6001600160a01b03828116828216039080821115612816576128166127e0565b5092915050565b6001600160a01b03818116838216019080821115612816576128166127e0565b80516001600160a01b03908116835260208083015182169084015260408083015162ffffff169084015260608083015160020b9084015260809182015116910152565b634e487b7160e01b600052602160045260246000fd5b6001600160a01b038516815261010081016128b4602083018661283d565b600484106128d257634e487b7160e01b600052602160045260246000fd5b60c082019390935260e0015292915050565b634e487b7160e01b600052604160045260246000fd5b60405160a081016001600160401b038111828210171561291c5761291c6128e4565b60405290565b60006020828403121561293457600080fd5b81516001600160401b038082111561294b57600080fd5b818401915084601f83011261295f57600080fd5b815181811115612971576129716128e4565b604051601f8201601f19908116603f01168101908382118183101715612999576129996128e4565b816040528281528760208487010111156129b257600080fd5b610e3d8360208301602088016126b7565b8051600f81900b811461234a57600080fd5b600080604083850312156129e857600080fd5b6129f1836129c3565b91506129ff602084016129c3565b90509250929050565b612a12818661283d565b6001600160a01b03841660a082015260e060c08201819052810182905260006101008385828501376000838501820152601f909301601f1916909101909101949350505050565b600060208284031215612a6b57600080fd5b8151612146816125dc565b62ffffff811681146101de57600080fd5b60008060008060808587031215612a9d57600080fd5b8451612aa8816124b8565b6020860151909450612ab9816125dc565b6040860151909350612aca81612a76565b606086015190925061279c81612a76565b80356004811061234a57600080fd5b600080600080848603610100811215612b0257600080fd5b8535612b0d816124b8565b945060a0601f1982011215612b2157600080fd5b50612b2a6128fa565b6020860135612b38816124b8565b81526040860135612b48816124b8565b60208201526060860135612b5b81612a76565b60408201526080860135612b6e816125dc565b606082015260a0860135612b81816124b8565b60808201529250612b9460c08601612adb565b9396929550929360e00135925050565b600060208284031215612bb657600080fd5b5051919050565b600060208284031215612bcf57600080fd5b81516001600160801b038116811461214657600080fd5b6000600f82900b6001607f1b8101612c0057612c006127e0565b60000392915050565b600060018201612c1b57612c1b6127e0565b5060010190565b60a081016101f0828461283d565b634e487b7160e01b600052601260045260246000fd5b6002815261060f60f31b602082015260400190565b6000610120612c6a838661283d565b835460ff16151560a0840152600184015460c084015260028401546001600160a01b031660e08401526101008301819052612142818401612c46565b6000610120612cb5838661283d565b83548060020b60a08501528060181c60020b60c085015250600184015460e084015280610100840152612142818401612c46565b808201808211156101f0576101f06127e0565b6001600160a01b03929092168252602082015260400190565b600060208284031215612d2757600080fd5b8151801515811461214657600080fd5b80820281158282048414176101f0576101f06127e0565b818103818111156101f0576101f06127e0565b60008251612d738184602087016126b7565b919091019291505056fea2646970667358221220cbb36cb1ec4c8dc8d77d9a4ab49bf6948352dffbf53982b83ecc18d83c1d993164736f6c63430008140033",
  "linkReferences": {},
  "deployedLinkReferences": {}
}