{
  "_format": "hh-sol-artifact-1",
  "contractName": "UniswapFacet",
  "sourceName": "contracts/Facets/UniswapFacet.sol",
  "abi": [
    {
      "inputs": [],
      "name": "InvalidTick",
      "type": "error"
    },
    {
      "inputs": [
        {
          "internalType": "address",
          "name": "token0",
          "type": "address"
        },
        {
          "internalType": "address",
          "name": "token1",
          "type": "address"
        },
        {
          "internalType": "int24",
          "name": "tickLower",
          "type": "int24"
        },
        {
          "internalType": "int24",
          "name": "tickUpper",
          "type": "int24"
        },
        {
          "internalType": "uint256",
          "name": "token0Amount",
          "type": "uint256"
        },
        {
          "internalType": "uint256",
          "name": "token1Amount",
          "type": "uint256"
        }
      ],
      "name": "addLiquidty",
      "outputs": [
        {
          "internalType": "int256",
          "name": "token0Used",
          "type": "int256"
        },
        {
          "internalType": "int256",
          "name": "token1Used",
          "type": "int256"
        }
      ],
      "stateMutability": "nonpayable",
      "type": "function"
    },
    {
      "inputs": [
        {
          "internalType": "address",
          "name": "token0",
          "type": "address"
        },
        {
          "internalType": "address",
          "name": "token1",
          "type": "address"
        },
        {
          "internalType": "int24",
          "name": "lowerBound",
          "type": "int24"
        },
        {
          "internalType": "int24",
          "name": "upperBound",
          "type": "int24"
        }
      ],
      "name": "closePosition",
      "outputs": [
        {
          "internalType": "int256",
          "name": "token0Amount",
          "type": "int256"
        },
        {
          "internalType": "int256",
          "name": "token1Amount",
          "type": "int256"
        }
      ],
      "stateMutability": "nonpayable",
      "type": "function"
    },
    {
      "inputs": [
        {
          "internalType": "address",
          "name": "token0",
          "type": "address"
        },
        {
          "internalType": "address",
          "name": "token1",
          "type": "address"
        }
      ],
      "name": "getPoolLiquidity",
      "outputs": [
        {
          "internalType": "uint128",
          "name": "",
          "type": "uint128"
        }
      ],
      "stateMutability": "view",
      "type": "function"
    },
    {
      "inputs": [
        {
          "internalType": "int24",
          "name": "tick",
          "type": "int24"
        }
      ],
      "name": "getSqrtAtTick",
      "outputs": [
        {
          "internalType": "uint160",
          "name": "",
          "type": "uint160"
        }
      ],
      "stateMutability": "pure",
      "type": "function"
    },
    {
      "inputs": [
        {
          "internalType": "address",
          "name": "token0",
          "type": "address"
        },
        {
          "internalType": "address",
          "name": "token1",
          "type": "address"
        },
        {
          "internalType": "uint160",
          "name": "poolStartPrice",
          "type": "uint160"
        },
        {
          "internalType": "address",
          "name": "hook",
          "type": "address"
        },
        {
          "internalType": "bytes",
          "name": "hookData",
          "type": "bytes"
        }
      ],
      "name": "initializePool",
      "outputs": [],
      "stateMutability": "nonpayable",
      "type": "function"
    },
    {
      "inputs": [
        {
          "internalType": "bytes",
          "name": "data",
          "type": "bytes"
        }
      ],
      "name": "lockAcquired",
      "outputs": [
        {
          "internalType": "bytes",
          "name": "",
          "type": "bytes"
        }
      ],
      "stateMutability": "nonpayable",
      "type": "function"
    },
    {
      "inputs": [
        {
          "internalType": "address",
          "name": "token0",
          "type": "address"
        },
        {
          "internalType": "address",
          "name": "token1",
          "type": "address"
        },
        {
          "internalType": "int24",
          "name": "lowerBound",
          "type": "int24"
        },
        {
          "internalType": "int24",
          "name": "upperBound",
          "type": "int24"
        },
        {
          "internalType": "int24",
          "name": "newlowerBound",
          "type": "int24"
        },
        {
          "internalType": "int24",
          "name": "newUpperBound",
          "type": "int24"
        }
      ],
      "name": "modifyPosition",
      "outputs": [],
      "stateMutability": "nonpayable",
      "type": "function"
    },
    {
      "inputs": [],
      "name": "returnBounds",
      "outputs": [
        {
          "internalType": "uint256",
          "name": "lower",
          "type": "uint256"
        },
        {
          "internalType": "uint256",
          "name": "upper",
          "type": "uint256"
        }
      ],
      "stateMutability": "view",
      "type": "function"
    },
    {
      "inputs": [],
      "name": "returnBoundsTicks",
      "outputs": [
        {
          "internalType": "int24",
          "name": "lower",
          "type": "int24"
        },
        {
          "internalType": "int24",
          "name": "upper",
          "type": "int24"
        }
      ],
      "stateMutability": "view",
      "type": "function"
    },
    {
      "inputs": [
        {
          "internalType": "address",
          "name": "managerAddy",
          "type": "address"
        }
      ],
      "name": "setPoolManager",
      "outputs": [],
      "stateMutability": "nonpayable",
      "type": "function"
    },
    {
      "inputs": [
        {
          "internalType": "address",
          "name": "tokenFrom",
          "type": "address"
        },
        {
          "internalType": "address",
          "name": "tokenTo",
          "type": "address"
        },
        {
          "internalType": "int256",
          "name": "amount",
          "type": "int256"
        }
      ],
      "name": "swap",
      "outputs": [
        {
          "internalType": "int256",
          "name": "token0Amount",
          "type": "int256"
        },
        {
          "internalType": "int256",
          "name": "token1Amount",
          "type": "int256"
        },
        {
          "internalType": "bool",
          "name": "zeroForOne",
          "type": "bool"
        }
      ],
      "stateMutability": "nonpayable",
      "type": "function"
    }
  ],
  "bytecode": "0x608060405234801561001057600080fd5b50613982806100206000396000f3fe608060405234801561001057600080fd5b50600436106100995760003560e01c80630d0ab9991461009e5780631ff0c325146100c557806343879b14146100f55780635f7acbdc1461010a578063616c1cc31461011d5780637aef671514610145578063ab6291fe14610158578063afe7f5a114610178578063b4becbed14610180578063b82197ed146101a0578063bee000ce146101b3575b600080fd5b6100a66101de565b60408051600293840b81529190920b6020820152015b60405180910390f35b6100d86100d3366004612f93565b6101f1565b6040805193845260208401929092521515908201526060016100bc565b610108610103366004612fe3565b610210565b005b6101086101183660046130a6565b610226565b61013061012b366004613133565b610234565b604080519283526020830191909152016100bc565b6101086101533660046131a1565b610256565b61016b6101663660046131be565b610262565b6040516100bc919061324f565b610130610277565b61019361018e366004613262565b610282565b6040516100bc919061327f565b6101306101ae366004613293565b61028d565b6101c66101c13660046132ef565b6102ae565b6040516001600160801b0390911681526020016100bc565b6000806101e96102ba565b915091509091565b6000806000610201868686610347565b92509250925093509350939050565b61021e868686868686610562565b505050505050565b61021e868686868686610662565b60008061024788888888888860006107b5565b91509150965096945050505050565b61025f81610ca9565b50565b606061026e8383610cd5565b90505b92915050565b6000806101e9610ead565b600061027182610f5f565b60008061029c86868686610f6a565b600f91820b98910b9650945050505050565b600061026e83836111e3565b60008060006102c76112fd565b30600090815260068201602052604081208054929350916102ea576102ea613328565b600091825260208083206004909202909101543083526006840190915260408220805460029290920b92909161032257610322613328565b60009182526020909120600490910201549094630100000090910460020b9350915050565b6000806000806103556112fd565b905060008060006103668a8a611321565b6001600160a01b038083166000908152600789016020908152604080832084861684528252808320815160a08101835281548616815260018201548087168286015262ffffff600160a01b82041682850152600160b81b9004600290810b60608084019190915292015490951660808601528151908101825287151581529182018f9052959850939650919450929091908101866104225761041d600173fffd8963efd1fc6a506488495d951d5263988d26613354565b610432565b6104326401000276a3600161337b565b6001600160a01b0390811690915260048801805460009081526001808b01602090815260408084208751815460ff1916901515178155878301519381019390935586810151600290930180546001600160a01b031916938716939093179092558b5493549151959650919492909316926381548319926104b892339289928892016133f4565b6040516020818303038152906040526040518263ffffffff1660e01b81526004016104e3919061324f565b6000604051808303816000875af1158015610502573d6000803e3d6000fd5b505050506040513d6000823e601f3d908101601f1916820160405261052a9190810190613480565b9050600080828060200190518101906105439190613533565b600f91820b9d50900b9a50969850505050505050505093509350939050565b610599604051806040016040528060168152602001752837b9b4ba34b7b71026b7b234b334b1b0ba34b7b71d60511b81525061135f565b6105e26040518060400160405280600b81526020016a27b632102137bab732399d60a91b815250856105ca90613566565b62ffffff166105d886613566565b62ffffff166113a2565b6106216040518060400160405280600b81526020016a2732bb902137bab732399d60a91b8152508361061390613566565b62ffffff166105d884613566565b60008061063088888888610f6a565b9150915061065688888686866001600160801b0316866001600160801b031660016107b5565b50505050505050505050565b600061066c6112fd565b6040805160a0810182526001600160a01b038a81168083528a82166020808501828152610bb8868801908152603c606088019081528d871660808901908152600096875260078b0185528987209587529490935293879020865181549087166001600160a01b031991821617825591516001820180549651945162ffffff908116600160b81b0262ffffff60b81b1991909616600160a01b026001600160b81b031990981692891692909217969096171692909217909355905160029091018054918416919092161790558354925163695c5bf560e01b8152939450909291169063695c5bf5906107679084908a9089908990600401613588565b6020604051808303816000875af1158015610786573d6000803e3d6000fd5b505050506040513d601f19601f820116820180604052508101906107aa91906135d9565b505050505050505050565b60008060006107c26112fd565b90506107d08a8a88886113ee565b6001600160a01b038085166000908152600787016020908152604080832084881684528252808320815160a08101835281548616815260018201548087169482019490945262ffffff600160a01b85041692810192909252600160b81b909204600290810b6060830152909101549092166080830152949e50929c5090985096509061085b82611435565b905061088660405180604001604052806006815260200165414444494e4760d01b8152508d8d611465565b851561098e576040518060a001604052808b60020b81526020018a60020b81526020018281526020018d6001600160a01b031681526020018c6001600160a01b0316815250836006016000306001600160a01b03166001600160a01b0316815260200190815260200160002060008154811061090457610904613328565b6000918252602091829020835160049092020180549284015162ffffff90811663010000000265ffffffffffff199094169216919091179190911781556040820151600182015560608201516002820180546001600160a01b039283166001600160a01b031991821617909155608090930151600390920180549290911691909216179055610ad4565b826006016000306001600160a01b03166001600160a01b031681526020019081526020016000206040518060a001604052808c60020b81526020018b60020b81526020018381526020018e6001600160a01b031681526020018d6001600160a01b0316815250908060018154018082558091505060019003906000526020600020906004020160009091909190915060008201518160000160006101000a81548162ffffff021916908360020b62ffffff16021790555060208201518160000160036101000a81548162ffffff021916908360020b62ffffff1602179055506040820151816001015560608201518160020160006101000a8154816001600160a01b0302191690836001600160a01b0316021790555060808201518160030160006101000a8154816001600160a01b0302191690836001600160a01b0316021790555050505b8254604051633205590760e21b8152600481018390526000916001600160a01b03169063c815641c90602401608060405180830381865afa158015610b1d573d6000803e3d6000fd5b505050506040513d601f19601f82011682018060405250810190610b419190613607565b50505090506000610b65610b548d6114ac565b610b5d8d6114ac565b848d8d6117c4565b6040805160608101825260028f810b82528e810b6020808401918252600f9590950b83850181815260058c0180546000908152948d01885286852086518154955162ffffff90811663010000000265ffffffffffff1990971691161794909417845590516001938401558b5490549551919750939592946001600160a01b0390941693638154831993610bfe9333938d939192016133f4565b6040516020818303038152906040526040518263ffffffff1660e01b8152600401610c29919061324f565b6000604051808303816000875af1158015610c48573d6000803e3d6000fd5b505050506040513d6000823e601f3d908101601f19168201604052610c709190810190613480565b905060008082806020019051810190610c899190613533565b600f91820b9c50900b995050505050505050505097509795505050505050565b6000610cb36112fd565b80546001600160a01b0319166001600160a01b03939093169290921790915550565b60606000808080610ce88688018861366a565b9296509094509250905060008080846004811115610d0857610d086133de565b03610d2157610d1785846117dd565b9092509050610dc8565b6001846004811115610d3557610d356133de565b03610d4457610d1785846118c7565b6002846004811115610d5857610d586133de565b03610d9957610d896040518060400160405280600b81526020016a576861747320676f696e6760a81b81525061135f565b610d94858488611970565b610dc8565b6003846004811115610dad57610dad6133de565b03610dbd57610d94858488611c45565b610dc8858488611eff565b60408051600f84810b602083015283900b81830152815180820383018152606082019283905287516370a0823160e01b9093529850610e69919088906001600160a01b038316906370a0823190610e2390309060640161327f565b602060405180830381865afa158015610e40573d6000803e3d6000fd5b505050506040513d601f19601f82011682018060405250810190610e649190613724565b612300565b60208501516040516370a0823160e01b8152610ea1919088906001600160a01b038316906370a0823190610e2390309060040161327f565b50505050505092915050565b6000806000610eba6112fd565b30600090815260068201602052604081208054929350610efc92909190610ee357610ee3613328565b600091825260209091206004909102015460020b6114ac565b306000908152600683016020526040812080546001600160a01b039390931692610f4d9290610f2d57610f2d613328565b60009182526020909120600490910201546301000000900460020b6114ac565b6001600160a01b031692509250509091565b6000610271826114ac565b6000806000610f776112fd565b9050610f838787612356565b6001600160a01b038083166000908152600785016020908152604080832084861684528252808320815160a08101835281548616815260018201548087169482019490945262ffffff600160a01b85041692810192909252600160b81b909204600290810b606083015290910154831660808201528554949b509299509192166333aa955b61101184611435565b6040516001600160e01b031960e084901b168152600481019190915230602482015260028a810b604483015289900b6064820152608401602060405180830381865afa158015611065573d6000803e3d6000fd5b505050506040513d601f19601f82011682018060405250810190611089919061373d565b905060405180606001604052808860020b81526020018760020b8152602001826110b290613766565b600f0b905260058401805460009081526002860160209081526040808320855181548785015162ffffff90811663010000000265ffffffffffff199092169216919091171781559481015160019586015587549354905192946001600160a01b039094169363815483199361112e9333938a93929091016133f4565b6040516020818303038152906040526040518263ffffffff1660e01b8152600401611159919061324f565b6000604051808303816000875af1158015611178573d6000803e3d6000fd5b505050506040513d6000823e601f3d908101601f191682016040526111a09190810190613480565b60058501805491925060006111b483613780565b9190505550600080828060200190518101906111d09190613533565b909d909c509a5050505050505050505050565b6000806111ee6112fd565b90506111fa8484612356565b6001600160a01b038083166000908152600785016020908152604080832084861684528252808320815160a08101835281548616815260018201548087169482019490945262ffffff600160a01b85041692810192909252600160b81b909204600290810b60608301529091015490921660808301529296509094509061128082611435565b835460405163fa6793d560e01b8152600481018390529192506000916001600160a01b039091169063fa6793d590602401602060405180830381865afa1580156112ce573d6000803e3d6000fd5b505050506040513d601f19601f820116820180604052508101906112f2919061373d565b979650505050505050565b7f35c2975ab7d5366802ce2593b15dfef7ba0fb48f04ca0c021c862e3ccd408ea590565b6000806000836001600160a01b0316856001600160a01b0316101561134e57506001915083905082611358565b5060009150829050835b9250925092565b61025f81604051602401611373919061324f565b60408051601f198184030181529190526020810180516001600160e01b031663104c13eb60e21b179052612387565b6113e98383836040516024016113ba93929190613799565b60408051601f198184030181529190526020810180516001600160e01b031663ca47c4eb60e01b179052612387565b505050565b600080600080866001600160a01b0316886001600160a01b0316101561141e57508692508591508490508361142a565b50859250869150839050845b945094509450949050565b60008160405160200161144891906137be565b604051602081830303815290604052805190602001209050919050565b6113e983838360405160240161147d939291906137cc565b60408051601f198184030181529190526020810180516001600160e01b03166307e763af60e51b179052612387565b60008060008360020b126114c3578260020b6114cb565b8260020b6000035b9050620d89e88111156114f1576040516333a3bdff60e21b815260040160405180910390fd5b60008160011660000361150857600160801b61151a565b6ffffcb933bd6fad37aa2d162d1a5940015b6001600160881b031690506002821615611544576ffff97272373d413259a46990580e213a0260801c5b6004821615611563576ffff2e50f5f656932ef12357cf3c7fdcc0260801c5b6008821615611582576fffe5caca7e10e4e61c3624eaa0941cd00260801c5b60108216156115a1576fffcb9843d60f6159c9db58835c9266440260801c5b60208216156115c0576fff973b41fa98c081472e6896dfb254c00260801c5b60408216156115df576fff2ea16466c96a3843ec78b326b528610260801c5b60808216156115fe576ffe5dee046a99a2a811c461f1969c30530260801c5b61010082161561161e576ffcbe86c7900a88aedcffc83b479aa3a40260801c5b61020082161561163e576ff987a7253ac413176f2b074cf7815e540260801c5b61040082161561165e576ff3392b0822b70005940c7a398e4b70f30260801c5b61080082161561167e576fe7159475a2c29b7443b29c7fa6e889d90260801c5b61100082161561169e576fd097f3bdfd2022b8845ad8f792aa58250260801c5b6120008216156116be576fa9f746462d870fdf8a65dc1f90e061e50260801c5b6140008216156116de576f70d869a156d2a1b890bb3df62baf32f70260801c5b6180008216156116fe576f31be135f97d08fd981231505542fcfa60260801c5b6201000082161561171f576f09aa508b5b7a84e1c677de54f3e99bc90260801c5b6202000082161561173f576e5d6af8dedb81196699c329225ee6040260801c5b6204000082161561175e576d2216e584f5fa1ea926041bedfe980260801c5b6208000082161561177b576b048a170391f7dc42444e8fa20260801c5b60008460020b131561179c578060001981611798576117986137ff565b0490505b600160201b8106156117af5760016117b2565b60005b60ff16602082901c0192505050919050565b60006117d38686868686612390565b9695505050505050565b6000806000806117eb6112fd565b80546000878152600183016020526040908190209051633cf3645360e21b81529293506001600160a01b039091169163f3cd914c9161182f918a919060040161382a565b6020604051808303816000875af115801561184e573d6000803e3d6000fd5b505050506040513d601f19601f820116820180604052508101906118729190613724565b600482018054919350600061188683613780565b909155505085516118a09061189b8460801c90565b612451565b6118af866020015161189b8490565b6118b98260801c90565b9350909150505b9250929050565b6000806000806118d56112fd565b805460008781526002830160205260409081902090516330d7224d60e11b81529293506001600160a01b03909116916361ae449a91611919918a9190600401613875565b6020604051808303816000875af1158015611938573d6000803e3d6000fd5b505050506040513d601f19601f8201168201806040525081019061195c9190613724565b600582018054919350600061188683613780565b600061197a61261d565b905060006119866112fd565b6000858152600380830160209081526040808420815160808101835281546001600160a01b0390811682526001808401548216838701526002840154838601529290950154606082015286548b87529187019093528185209151633cf3645360e21b8152959650939491939092169163f3cd914c91611a09918b9160040161382a565b6020604051808303816000875af1158015611a28573d6000803e3d6000fd5b505050506040513d601f19601f82011682018060405250810190611a4c9190613724565b9150600081600001516001600160a01b031682602001516001600160a01b03161015611a9257611a81886020015161189b8590565b611a8b8360801c90565b9050611aa5565b8751611aa29061189b8560801c90565b50815b815160408301516060840151611ac49291611abf916138b8565b612641565b611adb8260200151826001600160801b03166126f4565b6040518060a001604052808360400151815260200183606001518152602001826001600160801b0316815260200183600001516001600160a01b0316815260200183602001516001600160a01b03168152508560020160008760030154815260200190815260200160002060008201518160000155602082015181600101556040820151816002015560608201518160030160006101000a8154816001600160a01b0302191690836001600160a01b0316021790555060808201518160040160006101000a8154816001600160a01b0302191690836001600160a01b03160217905550905050846004016000876001600160a01b03166001600160a01b0316815260200190815260200160002085600301549080600181540180825580915050600190039060005260206000200160009091909190915055846003016000815480929190611c2890613780565b9190505550611c3b826020015182612451565b5050505050505050565b6000611c4f612730565b90506000611c5b6112fd565b6000858152600380830160209081526040808420815160808101835281546001600160a01b0390811682526001808401548216838701526002840154838601529290950154606082015286548b87529187019093528185209151633cf3645360e21b8152959650939491939092169163f3cd914c91611cde918b9160040161382a565b6020604051808303816000875af1158015611cfd573d6000803e3d6000fd5b505050506040513d601f19601f82011682018060405250810190611d219190613724565b9150600081600001516001600160a01b031682602001516001600160a01b03161015611d6757611d56886020015161189b8590565b611d608360801c90565b9050611d7a565b8751611d779061189b8560801c90565b50815b815160408301516060840151611d999291611d94916138b8565b612754565b50611db18260200151826001600160801b031661288a565b506040518060a001604052808360400151815260200183606001518152602001826001600160801b0316815260200183600001516001600160a01b0316815260200183602001516001600160a01b03168152508560010160008760020154815260200190815260200160002060008201518160000155602082015181600101556040820151816002015560608201518160030160006101000a8154816001600160a01b0302191690836001600160a01b0316021790555060808201518160040160006101000a8154816001600160a01b0302191690836001600160a01b03160217905550905050846003016000876001600160a01b03166001600160a01b0316815260200190815260200160002085600201549080600181540180825580915050600190039060005260206000200160009091909190915055846002016000815480929190611c2890613780565b6000611f09612730565b90506000611f156112fd565b6000858152600380830160209081526040808420815160808101835281546001600160a01b0390811682526001808401548216838701526002840154838601529290950154606082015286548b87529187019093528185209151633cf3645360e21b8152959650939491939092169163f3cd914c91611f98918b9160040161382a565b6020604051808303816000875af1158015611fb7573d6000803e3d6000fd5b505050506040513d601f19601f82011682018060405250810190611fdb9190613724565b915060006120096040518060400160405280600981526020016868756821212121212160b81b81525061135f565b6040516370a0823160e01b815261208a907311fe4b6ae13d2a6055c8d9cf65c55bac32b5d844906370a082319061204490309060040161327f565b602060405180830381865afa158015612061573d6000803e3d6000fd5b505050506040513d601f19601f820116820180604052508101906120859190613724565b6128e3565b81600001516001600160a01b031682602001516001600160a01b031610156120cc576120bb886020015161189b8590565b6120c58360801c90565b90506120df565b87516120dc9061189b8560801c90565b50815b6040516370a0823160e01b815261211a907311fe4b6ae13d2a6055c8d9cf65c55bac32b5d844906370a082319061204490309060040161327f565b61212c816001600160801b03166128e3565b815161213a90600019612928565b60208201516040516370a0823160e01b815261216e916001600160a01b0316906370a082319061204490309060040161327f565b61217e82602001516000196129ef565b5060208201516040516370a0823160e01b81526121b3916001600160a01b0316906370a082319061204490309060040161327f565b6040518060a001604052808360400151815260200183606001518152602001826001600160801b0316815260200183600001516001600160a01b0316815260200183602001516001600160a01b03168152508560010160008760020154815260200190815260200160002060008201518160000155602082015181600101556040820151816002015560608201518160030160006101000a8154816001600160a01b0302191690836001600160a01b0316021790555060808201518160040160006101000a8154816001600160a01b0302191690836001600160a01b03160217905550905050846003016000876001600160a01b03166001600160a01b0316815260200190815260200160002085600201549080600181540180825580915050600190039060005260206000200160009091909190915055846002016000815480929190611c2890613780565b6113e98363a9059cbb60e01b848460405160240161231f9291906138cb565b60408051601f198184030181529190526020810180516001600160e01b03166001600160e01b031990931692909217909152612a81565b600080826001600160a01b0316846001600160a01b0316101561237d5750829050816118c0565b50819050826118c0565b61025f81612b5b565b6000836001600160a01b0316856001600160a01b031611156123b0579293925b846001600160a01b0316866001600160a01b0316116123db576123d4858585612b7c565b9050612448565b836001600160a01b0316866001600160a01b0316101561243d576000612402878686612b7c565b90506000612411878986612bf1565b9050806001600160801b0316826001600160801b0316106124325780612434565b815b92505050612448565b6117d3858584612bf1565b95945050505050565b600061245b6112fd565b9050600082600f0b12156124fa5780546001600160a01b0316630b0d9c09843061248486613766565b6040516001600160e01b031960e086901b1681526001600160a01b0393841660048201529290911660248301526001600160801b031660448201526064015b600060405180830381600087803b1580156124dd57600080fd5b505af11580156124f1573d6000803e3d6000fd5b50505050505050565b6001600160a01b03831661258b578054604051636a256b2960e01b81526001600160a01b0390911690636a256b29906001600160801b0385169061254290879060040161327f565b60206040518083038185885af1158015612560573d6000803e3d6000fd5b50505050506040513d601f19601f820116820180604052508101906125859190613724565b50505050565b80546125ab9084906001600160a01b03166001600160801b038516612300565b8054604051636a256b2960e01b81526001600160a01b0390911690636a256b29906125da90869060040161327f565b6020604051808303816000875af11580156125f9573d6000803e3d6000fd5b505050506040513d601f19601f820116820180604052508101906125859190613724565b7fe5fae1d1655caf6698b8b944506b14651a3f414f8a67caa7b6a42e32816e934090565b600061264b61261d565b805460405163095ea7b360e01b81529192506001600160a01b038086169263095ea7b39261267f92169086906004016138cb565b6020604051808303816000875af115801561269e573d6000803e3d6000fd5b505050506040513d601f19601f820116820180604052508101906126c291906138e4565b508054604051631e573fb760e31b81526001600160a01b039091169063f2b9fdb8906124c390869086906004016138cb565b60006126fe61261d565b805460405163f3fef3a360e01b81529192506001600160a01b03169063f3fef3a3906124c390869086906004016138cb565b7fbd9b63cad2056a2132e010a4fbc483bbe85b10ec55651a56b347929db5cb470690565b60008061275f612730565b805460405163095ea7b360e01b81529192506001600160a01b038087169263095ea7b39261279392169087906004016138cb565b6020604051808303816000875af11580156127b2573d6000803e3d6000fd5b505050506040513d601f19601f820116820180604052508101906127d691906138e4565b506127fb604051806040016040528060038152602001620d0ead60eb1b81525061135f565b805461280f906001600160a01b0316612c2f565b805460405163617ba03760e01b81526001600160a01b03868116600483015260248201869052306044830152600060648301529091169063617ba037906084015b600060405180830381600087803b15801561286a57600080fd5b505af115801561287e573d6000803e3d6000fd5b50949695505050505050565b600080612895612730565b805460405163a415bcad60e01b81526001600160a01b03878116600483015260248201879052600260448301526000606483015230608483015292935091169063a415bcad9060a401612850565b61025f816040516024016128f991815260200190565b60408051601f198184030181529190526020810180516001600160e01b031663f82c50f160e01b179052612387565b6000612932612730565b805460405163095ea7b360e01b81529192506001600160a01b038086169263095ea7b39261296692169086906004016138cb565b6020604051808303816000875af1158015612985573d6000803e3d6000fd5b505050506040513d601f19601f820116820180604052508101906129a991906138e4565b50805460405163573ade8160e01b81526001600160a01b03858116600483015260248201859052600260448301523060648301529091169063573ade81906084016125da565b6000806129fa612730565b8054604051631a4ca37b60e21b81526001600160a01b038781166004830152602482018790523060448301529293509116906369328dec906064016020604051808303816000875af1158015612a54573d6000803e3d6000fd5b505050506040513d601f19601f82011682018060405250810190612a789190613724565b50919392505050565b6000612ad6826040518060400160405280602081526020017f5361666545524332303a206c6f772d6c6576656c2063616c6c206661696c6564815250856001600160a01b0316612c729092919063ffffffff16565b9050805160001480612af7575080806020019051810190612af791906138e4565b6113e95760405162461bcd60e51b815260206004820152602a60248201527f5361666545524332303a204552433230206f7065726174696f6e20646964206e6044820152691bdd081cdd58d8d9595960b21b60648201526084015b60405180910390fd5b60006a636f6e736f6c652e6c6f679050600080835160208501845afa505050565b6000826001600160a01b0316846001600160a01b03161115612b9c579192915b6000612bbf856001600160a01b0316856001600160a01b0316600160601b612c81565b9050612be6612be18483612bd38989613354565b6001600160a01b0316612c81565b612dfa565b9150505b9392505050565b6000826001600160a01b0316846001600160a01b03161115612c11579192915b612c27612be183600160601b612bd38888613354565b949350505050565b61025f81604051602401612c43919061327f565b60408051601f198184030181529190526020810180516001600160e01b031663161765e160e11b179052612387565b6060612c278484600085612e15565b6000808060001985870985870292508281108382030391505080600003612cba5760008411612caf57600080fd5b508290049050612bea565b808411612cc657600080fd5b6000848688098084039381119092039190506000612ce6861960016138b8565b8616958690049593849004936000819003046001019050612d078184613906565b909317926000612d18876003613906565b6002189050612d278188613906565b612d3290600261391d565b612d3c9082613906565b9050612d488188613906565b612d5390600261391d565b612d5d9082613906565b9050612d698188613906565b612d7490600261391d565b612d7e9082613906565b9050612d8a8188613906565b612d9590600261391d565b612d9f9082613906565b9050612dab8188613906565b612db690600261391d565b612dc09082613906565b9050612dcc8188613906565b612dd790600261391d565b612de19082613906565b9050612ded8186613906565b9998505050505050505050565b806001600160801b0381168114612e1057600080fd5b919050565b606082471015612e765760405162461bcd60e51b815260206004820152602660248201527f416464726573733a20696e73756666696369656e742062616c616e636520666f6044820152651c8818d85b1b60d21b6064820152608401612b52565b600080866001600160a01b03168587604051612e929190613930565b60006040518083038185875af1925050503d8060008114612ecf576040519150601f19603f3d011682016040523d82523d6000602084013e612ed4565b606091505b50915091506112f28783838760608315612f4f578251600003612f48576001600160a01b0385163b612f485760405162461bcd60e51b815260206004820152601d60248201527f416464726573733a2063616c6c20746f206e6f6e2d636f6e74726163740000006044820152606401612b52565b5081612c27565b612c278383815115612f645781518083602001fd5b8060405162461bcd60e51b8152600401612b52919061324f565b6001600160a01b038116811461025f57600080fd5b600080600060608486031215612fa857600080fd5b8335612fb381612f7e565b92506020840135612fc381612f7e565b929592945050506040919091013590565b8060020b811461025f57600080fd5b60008060008060008060c08789031215612ffc57600080fd5b863561300781612f7e565b9550602087013561301781612f7e565b9450604087013561302781612fd4565b9350606087013561303781612fd4565b9250608087013561304781612fd4565b915060a087013561305781612fd4565b809150509295509295509295565b60008083601f84011261307757600080fd5b5081356001600160401b0381111561308e57600080fd5b6020830191508360208285010111156118c057600080fd5b60008060008060008060a087890312156130bf57600080fd5b86356130ca81612f7e565b955060208701356130da81612f7e565b945060408701356130ea81612f7e565b935060608701356130fa81612f7e565b925060808701356001600160401b0381111561311557600080fd5b61312189828a01613065565b979a9699509497509295939492505050565b60008060008060008060c0878903121561314c57600080fd5b863561315781612f7e565b9550602087013561316781612f7e565b9450604087013561317781612fd4565b9350606087013561318781612fd4565b9598949750929560808101359460a0909101359350915050565b6000602082840312156131b357600080fd5b8135612bea81612f7e565b600080602083850312156131d157600080fd5b82356001600160401b038111156131e757600080fd5b6131f385828601613065565b90969095509350505050565b60005b8381101561321a578181015183820152602001613202565b50506000910152565b6000815180845261323b8160208601602086016131ff565b601f01601f19169290920160200192915050565b60208152600061026e6020830184613223565b60006020828403121561327457600080fd5b8135612bea81612fd4565b6001600160a01b0391909116815260200190565b600080600080608085870312156132a957600080fd5b84356132b481612f7e565b935060208501356132c481612f7e565b925060408501356132d481612fd4565b915060608501356132e481612fd4565b939692955090935050565b6000806040838503121561330257600080fd5b823561330d81612f7e565b9150602083013561331d81612f7e565b809150509250929050565b634e487b7160e01b600052603260045260246000fd5b634e487b7160e01b600052601160045260246000fd5b6001600160a01b038281168282160390808211156133745761337461333e565b5092915050565b6001600160a01b038181168382160190808211156133745761337461333e565b80516001600160a01b03908116835260208083015182169084015260408083015162ffffff169084015260608083015160020b9084015260809182015116910152565b634e487b7160e01b600052602160045260246000fd5b6001600160a01b03851681526101008101613412602083018661339b565b6005841061343057634e487b7160e01b600052602160045260246000fd5b60c082019390935260e0015292915050565b634e487b7160e01b600052604160045260246000fd5b60405160a081016001600160401b038111828210171561347a5761347a613442565b60405290565b60006020828403121561349257600080fd5b81516001600160401b03808211156134a957600080fd5b818401915084601f8301126134bd57600080fd5b8151818111156134cf576134cf613442565b604051601f8201601f19908116603f011681019083821181831017156134f7576134f7613442565b8160405282815287602084870101111561351057600080fd5b6112f28360208301602088016131ff565b8051600f81900b8114612e1057600080fd5b6000806040838503121561354657600080fd5b61354f83613521565b915061355d60208401613521565b90509250929050565b60008160020b627fffff19810361357f5761357f61333e565b60000392915050565b613592818661339b565b6001600160a01b03841660a082015260e060c08201819052810182905260006101008385828501376000838501820152601f909301601f1916909101909101949350505050565b6000602082840312156135eb57600080fd5b8151612bea81612fd4565b62ffffff8116811461025f57600080fd5b6000806000806080858703121561361d57600080fd5b845161362881612f7e565b602086015190945061363981612fd4565b604086015190935061364a816135f6565b60608601519092506132e4816135f6565b803560058110612e1057600080fd5b60008060008084860361010081121561368257600080fd5b853561368d81612f7e565b945060a0601f19820112156136a157600080fd5b506136aa613458565b60208601356136b881612f7e565b815260408601356136c881612f7e565b602082015260608601356136db816135f6565b604082015260808601356136ee81612fd4565b606082015260a086013561370181612f7e565b6080820152925061371460c0860161365b565b9396929550929360e00135925050565b60006020828403121561373657600080fd5b5051919050565b60006020828403121561374f57600080fd5b81516001600160801b0381168114612bea57600080fd5b6000600f82900b6001607f1b810161357f5761357f61333e565b6000600182016137925761379261333e565b5060010190565b6060815260006137ac6060830186613223565b60208301949094525060400152919050565b60a08101610271828461339b565b6060815260006137df6060830186613223565b6001600160a01b0394851660208401529290931660409091015292915050565b634e487b7160e01b600052601260045260246000fd5b6002815261060f60f31b602082015260400190565b6000610120613839838661339b565b835460ff16151560a0840152600184015460c084015260028401546001600160a01b031660e08401526101008301819052612be6818401613815565b6000610120613884838661339b565b83548060020b60a08501528060181c60020b60c085015250600184015460e084015280610100840152612be6818401613815565b808201808211156102715761027161333e565b6001600160a01b03929092168252602082015260400190565b6000602082840312156138f657600080fd5b81518015158114612bea57600080fd5b80820281158282048414176102715761027161333e565b818103818111156102715761027161333e565b600082516139428184602087016131ff565b919091019291505056fea26469706673582212204adbf9eddb39575c5e0dd4f4cb37a384c2f4d6aca78050baae469ce79b9d022e64736f6c63430008140033",
  "linkReferences": {},
  "deployedLinkReferences": {}
}