{
  "_format": "hh-sol-artifact-1",
  "contractName": "UniswapFacet",
  "sourceName": "contracts/Facets/UniswapFacet.sol",
  "abi": [
    {
      "inputs": [
        {
          "internalType": "bytes",
          "name": "data",
          "type": "bytes"
        }
      ],
      "name": "lockAcquired",
      "outputs": [
        {
          "internalType": "int128",
          "name": "",
          "type": "int128"
        },
        {
          "internalType": "int128",
          "name": "",
          "type": "int128"
        }
      ],
      "stateMutability": "nonpayable",
      "type": "function"
    }
  ],
  "bytecode": "0x608060405234801561001057600080fd5b506109a4806100206000396000f3fe608060405234801561001057600080fd5b506004361061002b5760003560e01c8063ab6291fe14610030575b600080fd5b61004361003e36600461062f565b610061565b60408051600f93840b81529190920b60208201520160405180910390f35b60008061006e8484610079565b915091509250929050565b600080600061008661017f565b90506000808080610099888a018a6106ed565b8854600082815260018b0160205260408082209051633cf3645360e21b8152969a5094985092965090945090926001600160a01b039091169163f3cd914c916100e69188916004016107bf565b6020604051808303816000875af1158015610105573d6000803e3d6000fd5b505050506040513d601f19601f820116820180604052508101906101299190610853565b600387018054919250600061013d83610882565b90915550508351610157906101528360801c90565b6101a3565b61016684602001516101528390565b6101708160801c90565b9a909950975050505050505050565b7fe5fae1d1655caf6698b8b944506b14651a3f414f8a67caa7b6a42e32816e934090565b60006101ad61017f565b9050600082600f0b121561024b5780546001600160a01b0316630b0d9c0984306101d68661089b565b6040516001600160e01b031960e086901b1681526001600160a01b0393841660048201529290911660248301526001600160801b03166044820152606401600060405180830381600087803b15801561022e57600080fd5b505af1158015610242573d6000803e3d6000fd5b50505050505050565b6001600160a01b0383166102dc578054604051636a256b2960e01b81526001600160a01b0390911690636a256b29906001600160801b038516906102939087906004016108be565b60206040518083038185885af11580156102b1573d6000803e3d6000fd5b50505050506040513d601f19601f820116820180604052508101906102d69190610853565b50505050565b80546102fc9084906001600160a01b03166001600160801b03851661036e565b8054604051636a256b2960e01b81526001600160a01b0390911690636a256b299061032b9086906004016108be565b6020604051808303816000875af115801561034a573d6000803e3d6000fd5b505050506040513d601f19601f820116820180604052508101906102d69190610853565b604080516001600160a01b038416602482015260448082018490528251808303909101815260649091019091526020810180516001600160e01b031663a9059cbb60e01b1790526103c09084906103c5565b505050565b600061041a826040518060400160405280602081526020017f5361666545524332303a206c6f772d6c6576656c2063616c6c206661696c6564815250856001600160a01b031661049f9092919063ffffffff16565b905080516000148061043b57508080602001905181019061043b91906108d2565b6103c05760405162461bcd60e51b815260206004820152602a60248201527f5361666545524332303a204552433230206f7065726174696f6e20646964206e6044820152691bdd081cdd58d8d9595960b21b60648201526084015b60405180910390fd5b60606104ae84846000856104b6565b949350505050565b6060824710156105175760405162461bcd60e51b815260206004820152602660248201527f416464726573733a20696e73756666696369656e742062616c616e636520666f6044820152651c8818d85b1b60d21b6064820152608401610496565b600080866001600160a01b03168587604051610533919061091f565b60006040518083038185875af1925050503d8060008114610570576040519150601f19603f3d011682016040523d82523d6000602084013e610575565b606091505b509150915061058687838387610591565b979650505050505050565b606083156106005782516000036105f9576001600160a01b0385163b6105f95760405162461bcd60e51b815260206004820152601d60248201527f416464726573733a2063616c6c20746f206e6f6e2d636f6e74726163740000006044820152606401610496565b50816104ae565b6104ae83838151156106155781518083602001fd5b8060405162461bcd60e51b8152600401610496919061093b565b6000806020838503121561064257600080fd5b82356001600160401b038082111561065957600080fd5b818501915085601f83011261066d57600080fd5b81358181111561067c57600080fd5b86602082850101111561068e57600080fd5b60209290920196919550909350505050565b6001600160a01b03811681146106b557600080fd5b50565b80356106c3816106a0565b919050565b803562ffffff811681146106c357600080fd5b8035600281900b81146106c357600080fd5b60008060008084860361010081121561070557600080fd5b8535610710816106a0565b945060a0601f198201121561072457600080fd5b5060405160a081016001600160401b038111828210171561075557634e487b7160e01b600052604160045260246000fd5b604052610764602087016106b8565b8152610772604087016106b8565b6020820152610783606087016106c8565b6040820152610794608087016106db565b60608201526107a560a087016106b8565b6080820152939693955050505060c08201359160e0013590565b600061012060018060a01b0380865116845280602087015116602085015262ffffff6040870151166040850152606086015160020b606085015280608087015116608085015260ff855416151560a0850152600185015460c08501528060028601541660e0850152508061010084015261084a8184016002815261060f60f31b602082015260400190565b95945050505050565b60006020828403121561086557600080fd5b5051919050565b634e487b7160e01b600052601160045260246000fd5b6000600182016108945761089461086c565b5060010190565b6000600f82900b6001607f1b81016108b5576108b561086c565b60000392915050565b6001600160a01b0391909116815260200190565b6000602082840312156108e457600080fd5b815180151581146108f457600080fd5b9392505050565b60005b838110156109165781810151838201526020016108fe565b50506000910152565b600082516109318184602087016108fb565b9190910192915050565b602081526000825180602084015261095a8160408501602087016108fb565b601f01601f1916919091016040019291505056fea2646970667358221220b9cca9554651fd89775e6551f1619bb37efcdfe568483943dc548021bb59a0b364736f6c63430008140033",
  "linkReferences": {},
  "deployedLinkReferences": {}
}