{
  "address": "0xbb6587566c3C7AA61a397C455487eD67FfF2d716",
  "abi": [
    {
      "inputs": [
        {
          "internalType": "uint256",
          "name": "domainID",
          "type": "uint256"
        }
      ],
      "name": "getAddressForDomain",
      "outputs": [
        {
          "internalType": "address",
          "name": "",
          "type": "address"
        }
      ],
      "stateMutability": "view",
      "type": "function"
    },
    {
      "inputs": [],
      "name": "getCounter",
      "outputs": [
        {
          "internalType": "uint256",
          "name": "",
          "type": "uint256"
        }
      ],
      "stateMutability": "view",
      "type": "function"
    },
    {
      "inputs": [],
      "name": "getGasMaster",
      "outputs": [
        {
          "internalType": "address",
          "name": "",
          "type": "address"
        }
      ],
      "stateMutability": "view",
      "type": "function"
    },
    {
      "inputs": [
        {
          "internalType": "uint32",
          "name": "_origin",
          "type": "uint32"
        },
        {
          "internalType": "bytes32",
          "name": "_sender",
          "type": "bytes32"
        },
        {
          "internalType": "bytes",
          "name": "_body",
          "type": "bytes"
        }
      ],
      "name": "handle",
      "outputs": [],
      "stateMutability": "nonpayable",
      "type": "function"
    },
    {
      "inputs": [
        {
          "internalType": "uint32",
          "name": "domain",
          "type": "uint32"
        },
        {
          "internalType": "uint256",
          "name": "gasAmount",
          "type": "uint256"
        },
        {
          "internalType": "uint256",
          "name": "_value",
          "type": "uint256"
        }
      ],
      "name": "hitEmUp",
      "outputs": [],
      "stateMutability": "payable",
      "type": "function"
    },
    {
      "inputs": [],
      "name": "interchainSecurityModule",
      "outputs": [
        {
          "internalType": "address",
          "name": "",
          "type": "address"
        }
      ],
      "stateMutability": "view",
      "type": "function"
    },
    {
      "inputs": [
        {
          "internalType": "uint256",
          "name": "domainID",
          "type": "uint256"
        },
        {
          "internalType": "address",
          "name": "recipentAddy",
          "type": "address"
        }
      ],
      "name": "setDomainToAddress",
      "outputs": [],
      "stateMutability": "nonpayable",
      "type": "function"
    },
    {
      "inputs": [
        {
          "internalType": "address",
          "name": "localIGP",
          "type": "address"
        }
      ],
      "name": "setGasMaster",
      "outputs": [],
      "stateMutability": "nonpayable",
      "type": "function"
    },
    {
      "inputs": [
        {
          "internalType": "address",
          "name": "ism",
          "type": "address"
        }
      ],
      "name": "setISM",
      "outputs": [],
      "stateMutability": "nonpayable",
      "type": "function"
    },
    {
      "inputs": [
        {
          "internalType": "address",
          "name": "maiLBox",
          "type": "address"
        }
      ],
      "name": "setMailBox",
      "outputs": [],
      "stateMutability": "nonpayable",
      "type": "function"
    }
  ],
  "transactionHash": "0x91c1b83fbc0ed7267766fb58093a58eefa7141c37212169effaa3c531f8446f9",
  "args": [],
  "numDeployments": 1,
  "solcInputHash": "9e61f5aa52a2244f572c73c3c23e75a3",
  "bytecode": "0x608060405234801561001057600080fd5b5061074b806100206000396000f3fe6080604052600436106100815760003560e01c80632c2cd7491461008657806337e935fb146100a85780633bdfa826146100bb57806346b1a342146100f157806356d5d47514610106578063759524ed146101265780638ada066e14610146578063cc4c515d14610169578063de4a787f14610189578063de523cf3146101a9575b600080fd5b34801561009257600080fd5b506100a66100a136600461052a565b6101be565b005b6100a66100b6366004610560565b6101ca565b3480156100c757600080fd5b506100db6100d6366004610593565b6101da565b6040516100e891906105ac565b60405180910390f35b3480156100fd57600080fd5b506100db6101eb565b34801561011257600080fd5b506100a66101213660046105c0565b6101fa565b34801561013257600080fd5b506100a661014136600461052a565b610208565b34801561015257600080fd5b5061015b610211565b6040519081526020016100e8565b34801561017557600080fd5b506100a6610184366004610646565b61021b565b34801561019557600080fd5b506100a66101a436600461052a565b610229565b3480156101b557600080fd5b506100db610232565b6101c78161023c565b50565b6101d5838383610268565b505050565b60006101e5826103b3565b50919050565b60006101f56103dc565b905090565b6102026103fa565b50505050565b6101c78161041f565b60006101f561044e565b6102258282610463565b5050565b6101c78161049d565b60006101f56104cc565b60006102466104ea565b80546001600160a01b0319166001600160a01b03939093169290921790915550565b60006102726104ea565b8054600182015463ffffffff871660009081526003840160205260408120549394506001600160a01b039283169391831692909116908363fa31de018984336040516020016102c191906105ac565b6040516020818303038152906040526040518463ffffffff1660e01b81526004016102ee93929190610672565b6020604051808303816000875af115801561030d573d6000803e3d6000fd5b505050506040513d601f19601f8201168201806040525081019061033191906106d5565b604051630237e58360e31b81526004810182905263ffffffff8a166024820152604481018990523360648201529091506001600160a01b038416906311bf2c189088906084016000604051808303818588803b15801561039057600080fd5b505af11580156103a4573d6000803e3d6000fd5b50505050505050505050505050565b6000806103be6104ea565b6000938452600301602052505060409020546001600160a01b031690565b6000806103e76104ea565b600101546001600160a01b031692915050565b60006104046104ea565b90508060040154600161041791906106ee565b600490910155565b60006104296104ea565b60010180546001600160a01b0319166001600160a01b03939093169290921790915550565b6000806104596104ea565b6004015492915050565b600061046d6104ea565b600093845260030160205250604090912080546001600160a01b0319166001600160a01b03909216919091179055565b60006104a76104ea565b60020180546001600160a01b0319166001600160a01b03939093169290921790915550565b6000806104d76104ea565b600201546001600160a01b031692915050565b7f34fbc1afd8e1b9169b38b6c80a52777e06873abc0d2b3f992f7608bdf1bf6ade90565b80356001600160a01b038116811461052557600080fd5b919050565b60006020828403121561053c57600080fd5b6105458261050e565b9392505050565b803563ffffffff8116811461052557600080fd5b60008060006060848603121561057557600080fd5b61057e8461054c565b95602085013595506040909401359392505050565b6000602082840312156105a557600080fd5b5035919050565b6001600160a01b0391909116815260200190565b600080600080606085870312156105d657600080fd5b6105df8561054c565b93506020850135925060408501356001600160401b038082111561060257600080fd5b818701915087601f83011261061657600080fd5b81358181111561062557600080fd5b88602082850101111561063757600080fd5b95989497505060200194505050565b6000806040838503121561065957600080fd5b823591506106696020840161050e565b90509250929050565b63ffffffff8416815260006020848184015260606040840152835180606085015260005b818110156106b257858101830151858201608001528201610696565b506000608082860101526080601f19601f83011685010192505050949350505050565b6000602082840312156106e757600080fd5b5051919050565b8082018082111561070f57634e487b7160e01b600052601160045260246000fd5b9291505056fea26469706673582212201f6d6b0a8114ba88d13b37acbb53e14511c9e270d840d2e94503a8fcd53472b664736f6c63430008140033",
  "devdoc": {
    "kind": "dev",
    "methods": {},
    "version": 1
  },
  "userdoc": {
    "kind": "user",
    "methods": {},
    "version": 1
  },
  "storageLayout": {
    "storage": [],
    "types": null
  }
}