{
  "address": "0x29A51965a8C0e9B7273E7b4f3f1735A1B99da6C0",
  "abi": [
    {
      "inputs": [
        {
          "internalType": "uint256",
          "name": "domainID",
          "type": "uint256"
        }
      ],
      "name": "getAddressForDomain",
      "outputs": [
        {
          "internalType": "address",
          "name": "",
          "type": "address"
        }
      ],
      "stateMutability": "view",
      "type": "function"
    },
    {
      "inputs": [],
      "name": "getCounter",
      "outputs": [
        {
          "internalType": "uint256",
          "name": "",
          "type": "uint256"
        }
      ],
      "stateMutability": "view",
      "type": "function"
    },
    {
      "inputs": [],
      "name": "getGasMaster",
      "outputs": [
        {
          "internalType": "address",
          "name": "",
          "type": "address"
        }
      ],
      "stateMutability": "view",
      "type": "function"
    },
    {
      "inputs": [
        {
          "internalType": "uint32",
          "name": "domain",
          "type": "uint32"
        },
        {
          "internalType": "uint256",
          "name": "amount",
          "type": "uint256"
        }
      ],
      "name": "getQuote",
      "outputs": [
        {
          "internalType": "uint256",
          "name": "",
          "type": "uint256"
        }
      ],
      "stateMutability": "view",
      "type": "function"
    },
    {
      "inputs": [
        {
          "internalType": "uint32",
          "name": "_origin",
          "type": "uint32"
        },
        {
          "internalType": "bytes32",
          "name": "_sender",
          "type": "bytes32"
        },
        {
          "internalType": "bytes",
          "name": "_body",
          "type": "bytes"
        }
      ],
      "name": "handle",
      "outputs": [],
      "stateMutability": "nonpayable",
      "type": "function"
    },
    {
      "inputs": [
        {
          "internalType": "uint32",
          "name": "domain",
          "type": "uint32"
        },
        {
          "internalType": "uint256",
          "name": "gasAmount",
          "type": "uint256"
        },
        {
          "internalType": "uint256",
          "name": "_value",
          "type": "uint256"
        }
      ],
      "name": "hitEmUp",
      "outputs": [],
      "stateMutability": "payable",
      "type": "function"
    },
    {
      "inputs": [],
      "name": "interchainSecurityModule",
      "outputs": [
        {
          "internalType": "address",
          "name": "",
          "type": "address"
        }
      ],
      "stateMutability": "view",
      "type": "function"
    },
    {
      "inputs": [],
      "name": "moduleType",
      "outputs": [
        {
          "internalType": "uint8",
          "name": "",
          "type": "uint8"
        }
      ],
      "stateMutability": "pure",
      "type": "function"
    },
    {
      "inputs": [
        {
          "internalType": "uint256[]",
          "name": "inputs",
          "type": "uint256[]"
        }
      ],
      "name": "sendDataArbGoerli",
      "outputs": [],
      "stateMutability": "nonpayable",
      "type": "function"
    },
    {
      "inputs": [
        {
          "internalType": "uint256[]",
          "name": "inputs",
          "type": "uint256[]"
        }
      ],
      "name": "sendDataBase",
      "outputs": [],
      "stateMutability": "nonpayable",
      "type": "function"
    },
    {
      "inputs": [
        {
          "internalType": "uint256[]",
          "name": "inputs",
          "type": "uint256[]"
        }
      ],
      "name": "sendDataGnosis",
      "outputs": [],
      "stateMutability": "nonpayable",
      "type": "function"
    },
    {
      "inputs": [
        {
          "internalType": "uint256[]",
          "name": "inputs",
          "type": "uint256[]"
        }
      ],
      "name": "sendDataGoerli",
      "outputs": [],
      "stateMutability": "nonpayable",
      "type": "function"
    },
    {
      "inputs": [
        {
          "internalType": "uint256[]",
          "name": "inputs",
          "type": "uint256[]"
        }
      ],
      "name": "sendDataMumbai",
      "outputs": [],
      "stateMutability": "nonpayable",
      "type": "function"
    },
    {
      "inputs": [
        {
          "internalType": "uint256",
          "name": "domainID",
          "type": "uint256"
        },
        {
          "internalType": "address",
          "name": "recipentAddy",
          "type": "address"
        }
      ],
      "name": "setDomainToAddress",
      "outputs": [],
      "stateMutability": "nonpayable",
      "type": "function"
    },
    {
      "inputs": [
        {
          "internalType": "address",
          "name": "localIGP",
          "type": "address"
        }
      ],
      "name": "setGasMaster",
      "outputs": [],
      "stateMutability": "nonpayable",
      "type": "function"
    },
    {
      "inputs": [
        {
          "internalType": "address",
          "name": "maiLBox",
          "type": "address"
        }
      ],
      "name": "setMailBox",
      "outputs": [],
      "stateMutability": "nonpayable",
      "type": "function"
    },
    {
      "inputs": [
        {
          "internalType": "bytes",
          "name": "_metadata",
          "type": "bytes"
        },
        {
          "internalType": "bytes",
          "name": "_message",
          "type": "bytes"
        }
      ],
      "name": "verify",
      "outputs": [
        {
          "internalType": "bool",
          "name": "",
          "type": "bool"
        }
      ],
      "stateMutability": "nonpayable",
      "type": "function"
    }
  ],
  "transactionHash": "0x94f693b8e62686b7a491b70e95009afb05d5ecce2905babb2da569780883b89b",
  "args": [],
  "numDeployments": 1,
  "solcInputHash": "c03150f71627b5dbddb8bb21af2b946a",
  "bytecode": "0x608060405234801561001057600080fd5b50611b56806100206000396000f3fe6080604052600436106100ce5760003560e01c8063125a2eca146100d35780632c2cd749146100f557806336da5fde1461011557806337e935fb146101355780633bdfa826146101485780633c84448c1461017e57806346b1a3421461019e578063476c94cd146101b357806356d5d475146101d3578063645bdfce146101f35780636465e69f14610213578063759524ed1461022f5780638ada066e1461024f578063b0cbd4d614610272578063cc4c515d14610292578063de523cf3146102b2578063f7e83aee146102c5575b600080fd5b3480156100df57600080fd5b506100f36100ee36600461140d565b6102f5565b005b34801561010157600080fd5b506100f36101103660046114e6565b610301565b34801561012157600080fd5b506100f361013036600461140d565b61030a565b6100f3610143366004611515565b610313565b34801561015457600080fd5b50610168610163366004611548565b610323565b6040516101759190611561565b60405180910390f35b34801561018a57600080fd5b506100f361019936600461140d565b610334565b3480156101aa57600080fd5b5061016861033d565b3480156101bf57600080fd5b506100f36101ce36600461140d565b61034c565b3480156101df57600080fd5b506100f36101ee3660046115bd565b610355565b3480156101ff57600080fd5b506100f361020e36600461140d565b610363565b34801561021f57600080fd5b5060405160068152602001610175565b34801561023b57600080fd5b506100f361024a3660046114e6565b61036c565b34801561025b57600080fd5b50610264610375565b604051908152602001610175565b34801561027e57600080fd5b5061026461028d366004611616565b61037f565b34801561029e57600080fd5b506100f36102ad366004611640565b610392565b3480156102be57600080fd5b5030610168565b3480156102d157600080fd5b506102e56102e036600461166c565b6103a0565b6040519015158152602001610175565b6102fe816103b9565b50565b6102fe816103fc565b6102fe81610428565b61031e838383610439565b505050565b600061032e8261057b565b92915050565b6102fe816105a4565b60006103476105b7565b905090565b6102fe816105d5565b61035d6105e8565b50505050565b6102fe8161060d565b6102fe81610620565b600061034761064f565b600061038b8383610664565b9392505050565b61039c82826106f6565b5050565b60006103ae85858585610730565b90505b949350505050565b606460006103ca82620493e0610664565b905060006103d66107c2565b905060006103e48583610897565b90506103f584620493e085846108c3565b5050505050565b6000610406610a08565b80546001600160a01b0319166001600160a01b03939093169290921790915550565b600560006103ca82620493e0610664565b6000610443610a08565b8054600182015463ffffffff871660009081526002840160205260408120549394506001600160a01b039283169391831692909116908363fa31de018961048985610a2c565b3360405160200161049a9190611561565b6040516020818303038152906040526040518463ffffffff1660e01b81526004016104c79392919061171b565b6020604051808303816000875af11580156104e6573d6000803e3d6000fd5b505050506040513d601f19601f8201168201806040525081019061050a9190611740565b9050826001600160a01b03166311bf2c1887838b8b336040518663ffffffff1660e01b815260040161053f9493929190611759565b6000604051808303818588803b15801561055857600080fd5b505af115801561056c573d6000803e3d6000fd5b50505050505050505050505050565b600080610586610a08565b6000938452600201602052505060409020546001600160a01b031690565b62066eed60006103ca82620493e0610664565b6000806105c2610a08565b600101546001600160a01b031692915050565b6201388160006103ca82620493e0610664565b60006105f2610a08565b9050806003015460016106059190611799565b600390910155565b62014a3360006103ca82620493e0610664565b600061062a610a08565b60010180546001600160a01b0319166001600160a01b03939093169290921790915550565b60008061065a610a08565b6003015492915050565b60008061066f610a08565b600181015460405163a692979360e01b815263ffffffff87166004820152602481018690529192506001600160a01b031690819063a692979390604401602060405180830381865afa1580156106c9573d6000803e3d6000fd5b505050506040513d601f19601f820116820180604052508101906106ed9190611740565b95945050505050565b6000610700610a08565b600093845260020160205250604090912080546001600160a01b0319166001600160a01b03909216919091179055565b60008061073b610a08565b90506000610747610a38565b9050600182600301600082825461075e9190611799565b909155505080546001600160a01b0316156107b5576003820154600061078e82610788888a6117ac565b30610a5c565b9050806003840160006107a1898b6117ac565b815260208101919091526040016000205550505b5060019695505050505050565b7f4bc1672041418a922447d83c0efd37e6707ed20ab7e53ca3f20ce1d16cac307c80546060917f4bc1672041418a922447d83c0efd37e6707ed20ab7e53ca3f20ce1d16cac307591610813906117ca565b80601f016020809104026020016040519081016040528092919081815260200182805461083f906117ca565b801561088c5780601f106108615761010080835404028352916020019161088c565b820191906000526020600020905b81548152906001019060200180831161086f57829003601f168201915b505050505091505090565b60405181906108ac9084908390602001611804565b604051602081830303815290604052905092915050565b60006108cd610a08565b8054600182015463ffffffff881660009081526002840160205260408120549394506001600160a01b039283169391831692909116908363fa31de018a61091385610a2c565b338a60405160200161092692919061185b565b6040516020818303038152906040526040518463ffffffff1660e01b81526004016109539392919061171b565b6020604051808303816000875af1158015610972573d6000803e3d6000fd5b505050506040513d601f19601f820116820180604052508101906109969190611740565b9050826001600160a01b03166311bf2c1888838c8c336040518663ffffffff1660e01b81526004016109cb9493929190611759565b6000604051808303818588803b1580156109e457600080fd5b505af11580156109f8573d6000803e3d6000fd5b5050505050505050505050505050565b7f34fbc1afd8e1b9169b38b6c80a52777e06873abc0d2b3f992f7608bdf1bf6ade90565b6001600160a01b031690565b7f16649c8924f5903fda94e8001436d5b66bc9e9a70208d5245edfc147a57b508690565b600080610a67610a38565b90506001600160a01b03831615610a7e5782610a80565b335b6005820154909350610a9a906001600160a01b0316610cc1565b80546005820154604051634360af3d60e01b81526000926001600160a01b0390811692634360af3d92610ad39290911690600401611561565b602060405180830381865afa158015610af0573d6000803e3d6000fd5b505050506040513d601f19601f82011682018060405250810190610b149190611740565b6005830154909150610b31906001600160a01b0316333084610d04565b60058201548254610b4f916001600160a01b03908116911683610d6f565b81546001600160a01b0316636457c979610b6887610e89565b610b7189610e89565b610b7a88610eca565b610b8342610f1c565b610b8c30610eca565b604051602001610ba095949392919061189b565b60408051601f198184030181529082905260058601546004808801546001600160e01b031960e087901b168552610bf1948b933093600093603c936001600160a01b03909316928c928691016119b8565b6020604051808303816000875af1158015610c10573d6000803e3d6000fd5b505050506040513d601f19601f82011682018060405250810190610c349190611740565b6040805160808101825297885260208089019788526001600160a01b03968716898301908152600060608b01818152858252600188810185529482209b518c5599518b850155905160029a8b0180549a511515600160a01b026001600160a81b0319909b169190991617989098179096559690920180549687018155855250919092209092018290555090565b6102fe81604051602401610cd59190611561565b60408051601f198184030181529190526020810180516001600160e01b031663161765e160e11b179052611047565b6040516001600160a01b038085166024830152831660448201526064810182905261035d9085906323b872dd60e01b906084015b60408051601f198184030181529190526020810180516001600160e01b03166001600160e01b031990931692909217909152611050565b801580610de95750604051636eb1769f60e11b81523060048201526001600160a01b03838116602483015284169063dd62ed3e90604401602060405180830381865afa158015610dc3573d6000803e3d6000fd5b505050506040513d601f19601f82011682018060405250810190610de79190611740565b155b610e595760405162461bcd60e51b815260206004820152603660248201527f5361666545524332303a20617070726f76652066726f6d206e6f6e2d7a65726f60448201527520746f206e6f6e2d7a65726f20616c6c6f77616e636560501b60648201526084015b60405180910390fd5b6040516001600160a01b03831660248201526044810182905261031e90849063095ea7b360e01b90606401610d38565b6060610e98608083901c611125565b610ea183611125565b6040805160208101939093528201526060015b6040516020818303038152906040529050919050565b6060610ee26001600160801b03602084901c16611125565b610ef88360601b6001600160601b031916611125565b604051602001610eb49291909182526001600160c01b031916602082015260280190565b606081600003610f435750506040805180820190915260018152600360fc1b602082015290565b8160005b8115610f6d5780610f5781611a25565b9150610f669050600a83611a54565b9150610f47565b6000816001600160401b03811115610f8757610f876113f7565b6040519080825280601f01601f191660200182016040528015610fb1576020820181803683370190505b509050815b851561103e57610fc7600182611a76565b90506000610fd6600a88611a54565b610fe190600a611a89565b610feb9088611a76565b610ff6906030611aa0565b905060008160f81b90508084848151811061101357611013611ab9565b60200101906001600160f81b031916908160001a905350611035600a89611a54565b97505050610fb6565b50949350505050565b6102fe816112b3565b60006110a5826040518060400160405280602081526020017f5361666545524332303a206c6f772d6c6576656c2063616c6c206661696c6564815250856001600160a01b03166112d49092919063ffffffff16565b90508051600014806110c65750808060200190518101906110c69190611acf565b61031e5760405162461bcd60e51b815260206004820152602a60248201527f5361666545524332303a204552433230206f7065726174696f6e20646964206e6044820152691bdd081cdd58d8d9595960b21b6064820152608401610e50565b6000808260001c9050806001600160801b0316905080600160401b0281176001600160401b03600160801b03600160c01b0316905080600160201b0281177bffffffff00000000ffffffff00000000ffffffff00000000ffffffff16905080620100000281177dffff0000ffff0000ffff0000ffff0000ffff0000ffff0000ffff0000ffff169050806101000281177eff00ff00ff00ff00ff00ff00ff00ff00ff00ff00ff00ff00ff00ff00ff00ff1690508060100281177f0f0f0f0f0f0f0f0f0f0f0f0f0f0f0f0f0f0f0f0f0f0f0f0f0f0f0f0f0f0f0f0f16905060006008827f0808080808080808080808080808080808080808080808080808080808080808168161123557611235611a3e565b0460047f040404040404040404040404040404040404040404040404040404040404040484160460027f020202020202020202020202020202020202020202020202020202020202020285160417166027029091017f3030303030303030303030303030303030303030303030303030303030303030019392505050565b60006a636f6e736f6c652e6c6f679050600080835160208501845afa505050565b60606103b1848460008585600080866001600160a01b031685876040516112fb9190611af1565b60006040518083038185875af1925050503d8060008114611338576040519150601f19603f3d011682016040523d82523d6000602084013e61133d565b606091505b509150915061134e87838387611359565b979650505050505050565b606083156113c85782516000036113c1576001600160a01b0385163b6113c15760405162461bcd60e51b815260206004820152601d60248201527f416464726573733a2063616c6c20746f206e6f6e2d636f6e74726163740000006044820152606401610e50565b50816103b1565b6103b183838151156113dd5781518083602001fd5b8060405162461bcd60e51b8152600401610e509190611b0d565b634e487b7160e01b600052604160045260246000fd5b6000602080838503121561142057600080fd5b82356001600160401b038082111561143757600080fd5b818501915085601f83011261144b57600080fd5b81358181111561145d5761145d6113f7565b8060051b604051601f19603f83011681018181108582111715611482576114826113f7565b6040529182528482019250838101850191888311156114a057600080fd5b938501935b828510156114be578435845293850193928501926114a5565b98975050505050505050565b80356001600160a01b03811681146114e157600080fd5b919050565b6000602082840312156114f857600080fd5b61038b826114ca565b803563ffffffff811681146114e157600080fd5b60008060006060848603121561152a57600080fd5b61153384611501565b95602085013595506040909401359392505050565b60006020828403121561155a57600080fd5b5035919050565b6001600160a01b0391909116815260200190565b60008083601f84011261158757600080fd5b5081356001600160401b0381111561159e57600080fd5b6020830191508360208285010111156115b657600080fd5b9250929050565b600080600080606085870312156115d357600080fd5b6115dc85611501565b93506020850135925060408501356001600160401b038111156115fe57600080fd5b61160a87828801611575565b95989497509550505050565b6000806040838503121561162957600080fd5b61163283611501565b946020939093013593505050565b6000806040838503121561165357600080fd5b82359150611663602084016114ca565b90509250929050565b6000806000806040858703121561168257600080fd5b84356001600160401b038082111561169957600080fd5b6116a588838901611575565b909650945060208701359150808211156116be57600080fd5b5061160a87828801611575565b60005b838110156116e65781810151838201526020016116ce565b50506000910152565b600081518084526117078160208601602086016116cb565b601f01601f19169290920160200192915050565b63ffffffff841681528260208201526060604082015260006103ae60608301846116ef565b60006020828403121561175257600080fd5b5051919050565b93845263ffffffff92909216602084015260408301526001600160a01b0316606082015260800190565b634e487b7160e01b600052601160045260246000fd5b8082018082111561032e5761032e611783565b8035602083101561032e57600019602084900360031b1b1692915050565b600181811c908216806117de57607f821691505b6020821081036117fe57634e487b7160e01b600052602260045260246000fd5b50919050565b604080825283519082018190526000906020906060840190828701845b8281101561183d57815184529284019290840190600101611821565b5050508381038285015261185181866116ef565b9695505050505050565b6001600160a01b03831681526040602082018190526000906103b1908301846116ef565b600081516118918185602086016116cb565b9290920192915050565b70088c2e8c240c2e6e6cae4e8cac8744060f607b1b81526000865160206118c88260118601838c016116cb565b6e040ccdee440c8c2e8c292c8744060f608b1b60119285019283015287516118f581838501848c016116cb565b70040c2dcc840c2e6e6cae4e8cae4744060f607b1b920181810192909252865161192581603185018a85016116cb565b6011818401019250506e01030ba103a34b6b2b9ba30b6b81d1608d1b81830152855161195781602f8501848a016116cb565b600f818401019250507f20696e207468652044617461417373657274657220636f6e747261637420617481830152506204060f60eb1b60408201526114be6119a2604383018661187f565b691034b9903b30b634b21760b11b8152600a0190565b60006101208083526119cc8184018d6116ef565b6001600160a01b039b8c166020850152998b166040840152505095881660608701526001600160401b039490941660808601529190951660a084015260c083019490945260e08201939093526101000191909152919050565b600060018201611a3757611a37611783565b5060010190565b634e487b7160e01b600052601260045260246000fd5b600082611a7157634e487b7160e01b600052601260045260246000fd5b500490565b8181038181111561032e5761032e611783565b808202811582820484141761032e5761032e611783565b60ff818116838216019081111561032e5761032e611783565b634e487b7160e01b600052603260045260246000fd5b600060208284031215611ae157600080fd5b8151801515811461038b57600080fd5b60008251611b038184602087016116cb565b9190910192915050565b60208152600061038b60208301846116ef56fea2646970667358221220baabf5775c960089599cc032f79dda16801539294b96b3a645486b67f032252564736f6c63430008140033",
  "devdoc": {
    "kind": "dev",
    "methods": {},
    "version": 1
  },
  "userdoc": {
    "kind": "user",
    "methods": {},
    "version": 1
  },
  "storageLayout": {
    "storage": [],
    "types": null
  }
}