{
  "address": "0x7e6d7F0b1cfAedd4Bfb5F8AB05A496FE76E5DA53",
  "abi": [
    {
      "inputs": [
        {
          "internalType": "bytes32",
          "name": "dataId",
          "type": "bytes32"
        },
        {
          "internalType": "bytes32",
          "name": "data",
          "type": "bytes32"
        },
        {
          "internalType": "address",
          "name": "asserter",
          "type": "address"
        }
      ],
      "name": "assertDataFor",
      "outputs": [
        {
          "internalType": "bytes32",
          "name": "assertionId",
          "type": "bytes32"
        }
      ],
      "stateMutability": "nonpayable",
      "type": "function"
    },
    {
      "inputs": [
        {
          "internalType": "bytes32",
          "name": "assertionId",
          "type": "bytes32"
        }
      ],
      "name": "assertionDisputedCallback",
      "outputs": [],
      "stateMutability": "nonpayable",
      "type": "function"
    },
    {
      "inputs": [
        {
          "internalType": "bytes32",
          "name": "assertionId",
          "type": "bytes32"
        },
        {
          "internalType": "bool",
          "name": "assertedTruthfully",
          "type": "bool"
        }
      ],
      "name": "assertionResolvedCallback",
      "outputs": [],
      "stateMutability": "nonpayable",
      "type": "function"
    },
    {
      "inputs": [
        {
          "internalType": "uint256",
          "name": "index",
          "type": "uint256"
        }
      ],
      "name": "getAssertionID",
      "outputs": [
        {
          "internalType": "bytes32",
          "name": "",
          "type": "bytes32"
        }
      ],
      "stateMutability": "view",
      "type": "function"
    },
    {
      "inputs": [
        {
          "internalType": "bytes32",
          "name": "assertionId",
          "type": "bytes32"
        }
      ],
      "name": "getData",
      "outputs": [
        {
          "internalType": "bool",
          "name": "",
          "type": "bool"
        },
        {
          "internalType": "bytes32",
          "name": "",
          "type": "bytes32"
        }
      ],
      "stateMutability": "view",
      "type": "function"
    },
    {
      "inputs": [
        {
          "internalType": "address",
          "name": "token",
          "type": "address"
        }
      ],
      "name": "setCurrency",
      "outputs": [],
      "stateMutability": "nonpayable",
      "type": "function"
    },
    {
      "inputs": [
        {
          "internalType": "address",
          "name": "optimisticAddress",
          "type": "address"
        }
      ],
      "name": "setOOV3",
      "outputs": [],
      "stateMutability": "nonpayable",
      "type": "function"
    },
    {
      "inputs": [
        {
          "internalType": "bytes32",
          "name": "assertionID",
          "type": "bytes32"
        }
      ],
      "name": "settleAndGetAssertionResult",
      "outputs": [
        {
          "internalType": "bool",
          "name": "",
          "type": "bool"
        }
      ],
      "stateMutability": "nonpayable",
      "type": "function"
    }
  ],
  "transactionHash": "0xc89bb1e9ae13bf43b3a0d1d26c85a180f4cd8d647f756af9a76a887d8012f7d7",
  "args": [],
  "numDeployments": 1,
  "solcInputHash": "923c1ca4de064de538ad1a84a03ce27c",
  "bytecode": "0x608060405234801561001057600080fd5b506112b8806100206000396000f3fe608060405234801561001057600080fd5b50600436106100785760003560e01c80632939544e1461007d5780632f84c3911461009257806354f6127f146100a5578063894a2010146100d45780638ea2f2ab146100f557806393ee663b14610118578063d448a4ec1461012b578063f1b156b21461013c575b600080fd5b61009061008b366004610e83565b61014f565b005b6100906100a0366004610e83565b610158565b6100b86100b3366004610ea5565b610161565b6040805192151583526020830191909152015b60405180910390f35b6100e76100e2366004610ea5565b610176565b6040519081526020016100cb565b610108610103366004610ea5565b610187565b60405190151581526020016100cb565b6100e7610126366004610ebe565b610192565b610090610139366004610ea5565b50565b61009061014a366004610f01565b6101a7565b610139816101b5565b61013981610247565b60008061016d83610276565b91509150915091565b6000610181826102d0565b92915050565b600061018182610305565b600061019f8484846103dd565b949350505050565b6101b18282610642565b5050565b60006101bf610707565b80546001600160a01b0319166001600160a01b03841690811782556040805163d509b01760e01b81529051929350909163d509b017916004808201926020929091908290030181865afa15801561021a573d6000803e3d6000fd5b505050506040513d601f19601f8201168201806040525081019061023e9190610f31565b60049091015550565b6000610251610707565b60050180546001600160a01b0319166001600160a01b03939093169290921790915550565b6000806000610283610707565b6000858152600182016020526040902060020154909150600160a01b900460ff166102b45750600093849350915050565b6000938452600190810160205260409093208301549293915050565b6000806102db610707565b90508060020183815481106102f2576102f2610f4a565b9060005260206000200154915050919050565b600080610310610707565b6000848152600182016020526040902060020154909150600160a01b900460ff166103d4578054604051638ea2f2ab60e01b8152600481018590526000916001600160a01b031690638ea2f2ab906024016020604051808303816000875af1158015610380573d6000803e3d6000fd5b505050506040513d601f19601f820116820180604052508101906103a49190610f60565b6000948552600192909201602052506040909220600201805460ff60a01b1916600160a01b841515021790555090565b50600192915050565b6000806103e8610707565b90506001600160a01b038316156103ff5782610401565b335b600582015490935061041b906001600160a01b031661072b565b80546005820154604051634360af3d60e01b81526000926001600160a01b0390811692634360af3d926104549290911690600401610f7d565b602060405180830381865afa158015610471573d6000803e3d6000fd5b505050506040513d601f19601f820116820180604052508101906104959190610f31565b60058301549091506104b2906001600160a01b031633308461076e565b600582015482546104d0916001600160a01b039081169116836107df565b81546001600160a01b0316636457c9796104e9876108f9565b6104f2896108f9565b6104fb8861093a565b6105044261098c565b61050d3061093a565b604051602001610521959493929190610fd1565b60408051601f198184030181529082905260058601546004808801546001600160e01b031960e087901b168552610572948b933093600093603c936001600160a01b03909316928c92869101611126565b6020604051808303816000875af1158015610591573d6000803e3d6000fd5b505050506040513d601f19601f820116820180604052508101906105b59190610f31565b6040805160808101825297885260208089019788526001600160a01b03968716898301908152600060608b01818152858252600188810185529482209b518c5599518b850155905160029a8b0180549a511515600160a01b026001600160a81b0319909b169190991617989098179096559690920180549687018155855250919092209092018290555090565b600061064c610707565b80549091506001600160a01b0316331461066557600080fd5b81156106d55760008381526001828101602090815260409283902060028101805460ff60a01b198116600160a01b908117928390558651608081018852845481529390950154938301939093526001600160a01b03909216938101939093520460ff161515606090910152505050565b60008381526001808301602052604082208281559081019190915560020180546001600160a81b03191690555b505050565b7f16649c8924f5903fda94e8001436d5b66bc9e9a70208d5245edfc147a57b508690565b6101398160405160240161073f9190610f7d565b60408051601f198184030181529190526020810180516001600160e01b031663161765e160e11b179052610ab7565b6040516001600160a01b03808516602483015283166044820152606481018290526107d99085906323b872dd60e01b906084015b60408051601f198184030181529190526020810180516001600160e01b03166001600160e01b031990931692909217909152610ac0565b50505050565b8015806108595750604051636eb1769f60e11b81523060048201526001600160a01b03838116602483015284169063dd62ed3e90604401602060405180830381865afa158015610833573d6000803e3d6000fd5b505050506040513d601f19601f820116820180604052508101906108579190610f31565b155b6108c95760405162461bcd60e51b815260206004820152603660248201527f5361666545524332303a20617070726f76652066726f6d206e6f6e2d7a65726f60448201527520746f206e6f6e2d7a65726f20616c6c6f77616e636560501b60648201526084015b60405180910390fd5b6040516001600160a01b03831660248201526044810182905261070290849063095ea7b360e01b906064016107a2565b6060610908608083901c610b95565b61091183610b95565b6040805160208101939093528201526060015b6040516020818303038152906040529050919050565b60606109526001600160801b03602084901c16610b95565b6109688360601b6001600160601b031916610b95565b6040516020016109249291909182526001600160c01b031916602082015260280190565b6060816000036109b35750506040805180820190915260018152600360fc1b602082015290565b8160005b81156109dd57806109c7816111a9565b91506109d69050600a836111d8565b91506109b7565b6000816001600160401b038111156109f7576109f76111fa565b6040519080825280601f01601f191660200182016040528015610a21576020820181803683370190505b509050815b8515610aae57610a37600182611210565b90506000610a46600a886111d8565b610a5190600a611223565b610a5b9088611210565b610a6690603061123a565b905060008160f81b905080848481518110610a8357610a83610f4a565b60200101906001600160f81b031916908160001a905350610aa5600a896111d8565b97505050610a26565b50949350505050565b61013981610d23565b6000610b15826040518060400160405280602081526020017f5361666545524332303a206c6f772d6c6576656c2063616c6c206661696c6564815250856001600160a01b0316610d449092919063ffffffff16565b9050805160001480610b36575080806020019051810190610b369190610f60565b6107025760405162461bcd60e51b815260206004820152602a60248201527f5361666545524332303a204552433230206f7065726174696f6e20646964206e6044820152691bdd081cdd58d8d9595960b21b60648201526084016108c0565b6000808260001c9050806001600160801b0316905080600160401b0281176001600160401b03600160801b03600160c01b0316905080600160201b0281177bffffffff00000000ffffffff00000000ffffffff00000000ffffffff16905080620100000281177dffff0000ffff0000ffff0000ffff0000ffff0000ffff0000ffff0000ffff169050806101000281177eff00ff00ff00ff00ff00ff00ff00ff00ff00ff00ff00ff00ff00ff00ff00ff1690508060100281177f0f0f0f0f0f0f0f0f0f0f0f0f0f0f0f0f0f0f0f0f0f0f0f0f0f0f0f0f0f0f0f0f16905060006008827f08080808080808080808080808080808080808080808080808080808080808081681610ca557610ca56111c2565b0460047f040404040404040404040404040404040404040404040404040404040404040484160460027f020202020202020202020202020202020202020202020202020202020202020285160417166027029091017f3030303030303030303030303030303030303030303030303030303030303030019392505050565b60006a636f6e736f6c652e6c6f679050600080835160208501845afa505050565b606061019f848460008585600080866001600160a01b03168587604051610d6b9190611253565b60006040518083038185875af1925050503d8060008114610da8576040519150601f19603f3d011682016040523d82523d6000602084013e610dad565b606091505b5091509150610dbe87838387610dc9565b979650505050505050565b60608315610e38578251600003610e31576001600160a01b0385163b610e315760405162461bcd60e51b815260206004820152601d60248201527f416464726573733a2063616c6c20746f206e6f6e2d636f6e747261637400000060448201526064016108c0565b508161019f565b61019f8383815115610e4d5781518083602001fd5b8060405162461bcd60e51b81526004016108c0919061126f565b80356001600160a01b0381168114610e7e57600080fd5b919050565b600060208284031215610e9557600080fd5b610e9e82610e67565b9392505050565b600060208284031215610eb757600080fd5b5035919050565b600080600060608486031215610ed357600080fd5b8335925060208401359150610eea60408501610e67565b90509250925092565b801515811461013957600080fd5b60008060408385031215610f1457600080fd5b823591506020830135610f2681610ef3565b809150509250929050565b600060208284031215610f4357600080fd5b5051919050565b634e487b7160e01b600052603260045260246000fd5b600060208284031215610f7257600080fd5b8151610e9e81610ef3565b6001600160a01b0391909116815260200190565b60005b83811015610fac578181015183820152602001610f94565b50506000910152565b60008151610fc7818560208601610f91565b9290920192915050565b70088c2e8c240c2e6e6cae4e8cac8744060f607b1b8152600086516020610ffe8260118601838c01610f91565b6e040ccdee440c8c2e8c292c8744060f608b1b601192850192830152875161102b81838501848c01610f91565b70040c2dcc840c2e6e6cae4e8cae4744060f607b1b920181810192909252865161105b81603185018a8501610f91565b6011818401019250506e01030ba103a34b6b2b9ba30b6b81d1608d1b81830152855161108d81602f8501848a01610f91565b600f818401019250507f20696e207468652044617461417373657274657220636f6e747261637420617481830152506204060f60eb1b60408201526110ee6110d86043830186610fb5565b691034b9903b30b634b21760b11b8152600a0190565b98975050505050505050565b60008151808452611112816020860160208601610f91565b601f01601f19169290920160200192915050565b600061012080835261113a8184018d6110fa565b6001600160a01b039b8c166020850152998b166040840152505095881660608701526001600160401b039490941660808601529190951660a084015260c083019490945260e08201939093526101000191909152919050565b634e487b7160e01b600052601160045260246000fd5b6000600182016111bb576111bb611193565b5060010190565b634e487b7160e01b600052601260045260246000fd5b6000826111f557634e487b7160e01b600052601260045260246000fd5b500490565b634e487b7160e01b600052604160045260246000fd5b8181038181111561018157610181611193565b808202811582820484141761018157610181611193565b60ff818116838216019081111561018157610181611193565b60008251611265818460208701610f91565b9190910192915050565b602081526000610e9e60208301846110fa56fea2646970667358221220a7974cf9d9ccf831715b66c795f3e80b9ad13507da7c7cb06835d2fe976a8e2164736f6c63430008140033",
  "devdoc": {
    "kind": "dev",
    "methods": {},
    "version": 1
  },
  "userdoc": {
    "kind": "user",
    "methods": {},
    "version": 1
  },
  "storageLayout": {
    "storage": [],
    "types": null
  }
}