{
  "address": "0x5E06Fc99Ee9dD15740D5397d8F9F511027663c34",
  "abi": [
    {
      "inputs": [
        {
          "internalType": "address",
          "name": "_wormholeRelayer",
          "type": "address"
        },
        {
          "internalType": "address",
          "name": "_tokenBridge",
          "type": "address"
        },
        {
          "internalType": "address",
          "name": "_wormhole",
          "type": "address"
        }
      ],
      "stateMutability": "nonpayable",
      "type": "constructor"
    },
    {
      "inputs": [
        {
          "internalType": "bytes32",
          "name": "",
          "type": "bytes32"
        }
      ],
      "name": "NotAnEvmAddress",
      "type": "error"
    },
    {
      "inputs": [],
      "name": "counter",
      "outputs": [
        {
          "internalType": "uint256",
          "name": "",
          "type": "uint256"
        }
      ],
      "stateMutability": "view",
      "type": "function"
    },
    {
      "inputs": [
        {
          "internalType": "uint16",
          "name": "targetChain",
          "type": "uint16"
        }
      ],
      "name": "quoteCrossChainDeposit",
      "outputs": [
        {
          "internalType": "uint256",
          "name": "cost",
          "type": "uint256"
        }
      ],
      "stateMutability": "view",
      "type": "function"
    },
    {
      "inputs": [
        {
          "internalType": "bytes",
          "name": "payload",
          "type": "bytes"
        },
        {
          "internalType": "bytes[]",
          "name": "additionalVaas",
          "type": "bytes[]"
        },
        {
          "internalType": "bytes32",
          "name": "sourceAddress",
          "type": "bytes32"
        },
        {
          "internalType": "uint16",
          "name": "sourceChain",
          "type": "uint16"
        },
        {
          "internalType": "bytes32",
          "name": "deliveryHash",
          "type": "bytes32"
        }
      ],
      "name": "receiveWormholeMessages",
      "outputs": [],
      "stateMutability": "payable",
      "type": "function"
    },
    {
      "inputs": [
        {
          "internalType": "bytes32",
          "name": "",
          "type": "bytes32"
        }
      ],
      "name": "seenDeliveryVaaHashes",
      "outputs": [
        {
          "internalType": "bool",
          "name": "",
          "type": "bool"
        }
      ],
      "stateMutability": "view",
      "type": "function"
    },
    {
      "inputs": [
        {
          "internalType": "uint16",
          "name": "targetChain",
          "type": "uint16"
        },
        {
          "internalType": "address",
          "name": "recipient",
          "type": "address"
        },
        {
          "internalType": "uint256",
          "name": "amount",
          "type": "uint256"
        },
        {
          "internalType": "address",
          "name": "token",
          "type": "address"
        }
      ],
      "name": "sendCrossChainDeposit",
      "outputs": [],
      "stateMutability": "payable",
      "type": "function"
    },
    {
      "inputs": [],
      "name": "sender",
      "outputs": [
        {
          "internalType": "address",
          "name": "",
          "type": "address"
        }
      ],
      "stateMutability": "view",
      "type": "function"
    },
    {
      "inputs": [
        {
          "internalType": "uint16",
          "name": "sourceChain",
          "type": "uint16"
        },
        {
          "internalType": "bytes32",
          "name": "sourceAddress",
          "type": "bytes32"
        }
      ],
      "name": "setRegisteredSender",
      "outputs": [],
      "stateMutability": "nonpayable",
      "type": "function"
    },
    {
      "inputs": [],
      "name": "tokenBridge",
      "outputs": [
        {
          "internalType": "contract ITokenBridge",
          "name": "",
          "type": "address"
        }
      ],
      "stateMutability": "view",
      "type": "function"
    },
    {
      "inputs": [],
      "name": "wormhole",
      "outputs": [
        {
          "internalType": "contract IWormhole",
          "name": "",
          "type": "address"
        }
      ],
      "stateMutability": "view",
      "type": "function"
    },
    {
      "inputs": [],
      "name": "wormholeRelayer",
      "outputs": [
        {
          "internalType": "contract IWormholeRelayer",
          "name": "",
          "type": "address"
        }
      ],
      "stateMutability": "view",
      "type": "function"
    }
  ],
  "transactionHash": "0x85c1765fb1d196974b5a862bff0c5e78b494e505e0813b023f0de8bf1d37e886",
  "args": [
    "0xAd753479354283eEE1b86c9470c84D42f229FF43",
    "0x23908A62110e21C04F3A4e011d24F901F911744A",
    "0xC7A204bDBFe983FCD8d8E61D02b475D4073fF97e"
  ],
  "numDeployments": 2,
  "solcInputHash": "7322ec0e6204270d03c2ca9157bb8c60",
  "bytecode": "0x60e06040523480156200001157600080fd5b5060405162001e1838038062001e18833981016040819052620000349162000080565b6001600160a01b03928316608052821660a052600180546001600160a01b031916331790551660c052620000ca565b80516001600160a01b03811681146200007b57600080fd5b919050565b6000806000606084860312156200009657600080fd5b620000a18462000063565b9250620000b16020850162000063565b9150620000c16040850162000063565b90509250925092565b60805160a05160c051611ca762000171600039600081816101aa015281816105d7015281816106b40152818161082e01528181610c9301528181610f5101528181610fd20152611191015260008181610176015281816103f50152818161050d0152818161074601528181610be50152818161100101526111030152600081816101de0152818161035c01528181610a9c01528181610b2f0152610dc30152611ca76000f3fe6080604052600436106100815760003560e01c8063180f6cc21461008657806321378b3e146100cb5780632b524c97146100e0578063529dca321461010e57806361bc221a1461012157806367e404ce1461013757806384acd1bb14610164578063c6328a4614610198578063da25b725146101cc578063dd12d68b14610200575b600080fd5b34801561009257600080fd5b506100b66100a13660046111f3565b60006020819052908152604090205460ff1681565b60405190151581526020015b60405180910390f35b6100de6100d9366004611244565b610220565b005b3480156100ec57600080fd5b506101006100fb366004611297565b610357565b6040519081526020016100c2565b6100de61011c366004611408565b610486565b34801561012d57600080fd5b5061010060045481565b34801561014357600080fd5b50600354610157906001600160a01b031681565b6040516100c291906114fd565b34801561017057600080fd5b506101577f000000000000000000000000000000000000000000000000000000000000000081565b3480156101a457600080fd5b506101577f000000000000000000000000000000000000000000000000000000000000000081565b3480156101d857600080fd5b506101577f000000000000000000000000000000000000000000000000000000000000000081565b34801561020c57600080fd5b506100de61021b366004611511565b6109ba565b600061022b85610357565b905080341461029f5760405162461bcd60e51b815260206004820152603560248201527f6d73672e76616c7565206d7573742062652071756f746543726f7373436861696044820152746e4465706f73697428746172676574436861696e2960581b60648201526084015b60405180910390fd5b6040516323b872dd60e01b8152336004820152306024820152604481018490526001600160a01b038316906323b872dd906064016020604051808303816000875af11580156102f2573d6000803e3d6000fd5b505050506040513d601f19601f82011682018060405250810190610316919061153d565b5060003360405160200161032a91906114fd565b604051602081830303815290604052905061034e86868360006203d090888a610a37565b50505050505050565b6000807f00000000000000000000000000000000000000000000000000000000000000006001600160a01b031663c23ee3c38460006203d0906040518463ffffffff1660e01b81526004016103ae9392919061155f565b6040805180830381865afa1580156103ca573d6000803e3d6000fd5b505050506040513d601f19601f820116820180604052508101906103ee919061157b565b50809150507f00000000000000000000000000000000000000000000000000000000000000006001600160a01b0316631a90a2196040518163ffffffff1660e01b8152600401602060405180830381865afa158015610451573d6000803e3d6000fd5b505050506040513d601f19601f82011682018060405250810190610475919061159f565b61047f90826115ce565b9392505050565b600084516001600160401b038111156104a1576104a16112b4565b6040519080825280602002602001820160405280156104fa57816020015b6040805160a0810182526000808252602080830182905292820181905260608201819052608082015282526000199092019101816104bf5790505b50905060005b85518110156109a45760007f00000000000000000000000000000000000000000000000000000000000000006001600160a01b031663a9e1189388848151811061054c5761054c6115e1565b60200260200101516040518263ffffffff1660e01b81526004016105709190611647565b600060405180830381865afa15801561058d573d6000803e3d6000fd5b505050506040513d6000823e601f3d908101601f191682016040526105b5919081019061179a565b606081015160405163ad66a5f160e01b815261ffff90911660048201529091507f00000000000000000000000000000000000000000000000000000000000000006001600160a01b03169063ad66a5f190602401602060405180830381865afa158015610626573d6000803e3d6000fd5b505050506040513d601f19601f8201168201806040525081019061064a919061159f565b8160800151146106955760405162461bcd60e51b81526020600482015260166024820152754e6f74206120546f6b656e204272696467652056414160501b6044820152606401610296565b60e081015160405163ea63738d60e01b81526000916001600160a01b037f0000000000000000000000000000000000000000000000000000000000000000169163ea63738d916106e791600401611647565b600060405180830381865afa158015610704573d6000803e3d6000fd5b505050506040513d6000823e601f3d908101601f1916820160405261072c91908101906118be565b905061073730610bd5565b81608001511480156107d557507f00000000000000000000000000000000000000000000000000000000000000006001600160a01b0316639a8a05926040518163ffffffff1660e01b8152600401602060405180830381865afa1580156107a2573d6000803e3d6000fd5b505050506040513d601f19601f820116820180604052508101906107c69190611986565b61ffff168160a0015161ffff16145b61082c5760405162461bcd60e51b815260206004820152602260248201527f546f6b656e20776173206e6f742073656e7420746f2074686973206164647265604482015261737360f01b6064820152608401610296565b7f00000000000000000000000000000000000000000000000000000000000000006001600160a01b031663c3f511c189858151811061086d5761086d6115e1565b60200260200101516040518263ffffffff1660e01b81526004016108919190611647565b6000604051808303816000875af11580156108b0573d6000803e3d6000fd5b505050506040513d6000823e601f3d908101601f191682016040526108d891908101906119a3565b5060006108ed82606001518360400151610be1565b905060006108fa82610d1d565b6020840151909150600860ff83161115610931576109196008836119d7565b61092490600a611ad4565b61092e9082611ae3565b90505b6040518060a0016040528085604001518152602001856060015161ffff168152602001846001600160a01b031681526020018281526020018560200151815250878781518110610983576109836115e1565b602002602001018190525050505050508061099d90611afa565b9050610500565b506109b28682868686610db8565b505050505050565b6001546001600160a01b03163314610a205760405162461bcd60e51b8152602060048201526024808201527f4e6f7420616c6c6f77656420746f207365742072656769737465726564207365604482015263373232b960e11b6064820152608401610296565b61ffff909116600090815260026020526040902055565b604080516001808252818301909252600091829190816020015b610a596111d3565b815260200190600190039081610a51579050509050610a7a84848b8b610ed9565b81600081518110610a8d57610a8d6115e1565b602002602001018190525060007f00000000000000000000000000000000000000000000000000000000000000006001600160a01b031663c23ee3c38b89896040518463ffffffff1660e01b8152600401610aea9392919061155f565b6040805180830381865afa158015610b06573d6000803e3d6000fd5b505050506040513d601f19601f82011682018060405250810190610b2a919061157b565b5090507f00000000000000000000000000000000000000000000000000000000000000006001600160a01b031663329a2be7828c8c8c8c8c896040518863ffffffff1660e01b8152600401610b8496959493929190611b13565b60206040518083038185885af1158015610ba2573d6000803e3d6000fd5b50505050506040513d601f19601f82011682018060405250810190610bc79190611bb3565b9a9950505050505050505050565b6001600160a01b031690565b60007f00000000000000000000000000000000000000000000000000000000000000006001600160a01b0316639a8a05926040518163ffffffff1660e01b8152600401602060405180830381865afa158015610c41573d6000803e3d6000fd5b505050506040513d601f19601f82011682018060405250810190610c659190611986565b61ffff168361ffff1614610d0b57604051630ff8f14360e11b815261ffff84166004820152602481018390527f00000000000000000000000000000000000000000000000000000000000000006001600160a01b031690631ff1e28690604401602060405180830381865afa158015610ce2573d6000803e3d6000fd5b505050506040513d601f19601f82011682018060405250810190610d069190611bce565b610d14565b610d1482610f06565b90505b92915050565b60408051600481526024810182526020810180516001600160e01b031663313ce56760e01b179052905160009182916001600160a01b03851691610d6091611beb565b600060405180830381855afa9150503d8060008114610d9b576040519150601f19603f3d011682016040523d82523d6000602084013e610da0565b606091505b509150508080602001905181019061047f9190611c07565b336001600160a01b037f00000000000000000000000000000000000000000000000000000000000000001614610e3b5760405162461bcd60e51b815260206004820152602260248201527f4d73672e73656e646572206973206e6f7420576f726d686f6c652052656c617960448201526132b960f11b6064820152608401610296565b8351600114610e895760405162461bcd60e51b815260206004820152601a6024820152794578706563746564203120746f6b656e207472616e736665727360301b6044820152606401610296565b60048054906000610e9983611afa565b919050555084806020019051810190610eb29190611bce565b600380546001600160a01b0319166001600160a01b03929092169190911790555050505050565b610ee16111d3565b610efd8585858560405180602001604052806000815250610f32565b95945050505050565b600060a082901c15610f2e5760405163033b960d60e41b815260048101839052602401610296565b5090565b610f3a6111d3565b60405163095ea7b360e01b81526001600160a01b037f0000000000000000000000000000000000000000000000000000000000000000811660048301526024820187905287169063095ea7b3906044016020604051808303816000875af1158015610fa9573d6000803e3d6000fd5b505050506040513d601f19601f82011682018060405250810190610fcd919061153d565b5060007f00000000000000000000000000000000000000000000000000000000000000006001600160a01b031663c5a5ebda7f00000000000000000000000000000000000000000000000000000000000000006001600160a01b0316631a90a2196040518163ffffffff1660e01b8152600401602060405180830381865afa15801561105d573d6000803e3d6000fd5b505050506040513d601f19601f82011682018060405250810190611081919061159f565b89898961108d8a610bd5565b60008a6040518863ffffffff1660e01b81526004016110b196959493929190611c22565b60206040518083038185885af11580156110cf573d6000803e3d6000fd5b50505050506040513d601f19601f820116820180604052508101906110f49190611bb3565b905060405180606001604052807f00000000000000000000000000000000000000000000000000000000000000006001600160a01b0316639a8a05926040518163ffffffff1660e01b8152600401602060405180830381865afa15801561115f573d6000803e3d6000fd5b505050506040513d601f19601f820116820180604052508101906111839190611986565b61ffff1681526020016111b57f0000000000000000000000000000000000000000000000000000000000000000610bd5565b8152602001826001600160401b031681525091505095945050505050565b604080516060810182526000808252602082018190529181019190915290565b60006020828403121561120557600080fd5b5035919050565b61ffff8116811461121c57600080fd5b50565b803561122a8161120c565b919050565b6001600160a01b038116811461121c57600080fd5b6000806000806080858703121561125a57600080fd5b84356112658161120c565b935060208501356112758161122f565b925060408501359150606085013561128c8161122f565b939692955090935050565b6000602082840312156112a957600080fd5b813561047f8161120c565b634e487b7160e01b600052604160045260246000fd5b604051608081016001600160401b03811182821017156112ec576112ec6112b4565b60405290565b60405161016081016001600160401b03811182821017156112ec576112ec6112b4565b60405161010081016001600160401b03811182821017156112ec576112ec6112b4565b604051601f8201601f191681016001600160401b0381118282101715611360576113606112b4565b604052919050565b60006001600160401b03821115611381576113816112b4565b50601f01601f191660200190565b600082601f8301126113a057600080fd5b81356113b36113ae82611368565b611338565b8181528460208386010111156113c857600080fd5b816020850160208301376000918101602001919091529392505050565b60006001600160401b038211156113fe576113fe6112b4565b5060051b60200190565b600080600080600060a0868803121561142057600080fd5b85356001600160401b038082111561143757600080fd5b61144389838a0161138f565b965060209150818801358181111561145a57600080fd5b8801601f81018a1361146b57600080fd5b80356114796113ae826113e5565b81815260059190911b8201840190848101908c83111561149857600080fd5b8584015b838110156114d0578035868111156114b45760008081fd5b6114c28f898389010161138f565b84525091860191860161149c565b509850505050604088013594506114ec9150506060870161121f565b949793965091946080013592915050565b6001600160a01b0391909116815260200190565b6000806040838503121561152457600080fd5b823561152f8161120c565b946020939093013593505050565b60006020828403121561154f57600080fd5b8151801515811461047f57600080fd5b61ffff9390931683526020830191909152604082015260600190565b6000806040838503121561158e57600080fd5b505080516020909101519092909150565b6000602082840312156115b157600080fd5b5051919050565b634e487b7160e01b600052601160045260246000fd5b80820180821115610d1757610d176115b8565b634e487b7160e01b600052603260045260246000fd5b60005b838110156116125781810151838201526020016115fa565b50506000910152565b600081518084526116338160208601602086016115f7565b601f01601f19169290920160200192915050565b602081526000610d14602083018461161b565b805160ff8116811461122a57600080fd5b805163ffffffff8116811461122a57600080fd5b805161122a8161120c565b80516001600160401b038116811461122a57600080fd5b600082601f8301126116b257600080fd5b81516116c06113ae82611368565b8181528460208386010111156116d557600080fd5b6116e68260208301602087016115f7565b949350505050565b600082601f8301126116ff57600080fd5b8151602061170f6113ae836113e5565b82815260079290921b8401810191818101908684111561172e57600080fd5b8286015b8481101561178f576080818903121561174b5760008081fd5b6117536112ca565b815181528482015185820152604061176c81840161165a565b90820152606061177d83820161165a565b90820152835291830191608001611732565b509695505050505050565b6000602082840312156117ac57600080fd5b81516001600160401b03808211156117c357600080fd5b9083019061016082860312156117d857600080fd5b6117e06112f2565b6117e98361165a565b81526117f76020840161166b565b60208201526118086040840161166b565b60408201526118196060840161167f565b60608201526080830151608082015261183460a0840161168a565b60a082015261184560c0840161165a565b60c082015260e08301518281111561185c57600080fd5b611868878286016116a1565b60e08301525061010061187c81850161166b565b90820152610120838101518381111561189457600080fd5b6118a0888287016116ee565b91830191909152506101409283015192810192909252509392505050565b6000602082840312156118d057600080fd5b81516001600160401b03808211156118e757600080fd5b9083019061010082860312156118fc57600080fd5b611904611315565b61190d8361165a565b8152602083015160208201526040830151604082015261192f6060840161167f565b60608201526080830151608082015261194a60a0840161167f565b60a082015260c083015160c082015260e08301518281111561196b57600080fd5b611977878286016116a1565b60e08301525095945050505050565b60006020828403121561199857600080fd5b815161047f8161120c565b6000602082840312156119b557600080fd5b81516001600160401b038111156119cb57600080fd5b6116e6848285016116a1565b60ff8281168282160390811115610d1757610d176115b8565b600181815b80851115611a2b578160001904821115611a1157611a116115b8565b80851615611a1e57918102915b93841c93908002906119f5565b509250929050565b600082611a4257506001610d17565b81611a4f57506000610d17565b8160018114611a655760028114611a6f57611a8b565b6001915050610d17565b60ff841115611a8057611a806115b8565b50506001821b610d17565b5060208310610133831016604e8410600b8410161715611aae575081810a610d17565b611ab883836119f0565b8060001904821115611acc57611acc6115b8565b029392505050565b6000610d1460ff841683611a33565b8082028115828204841417610d1757610d176115b8565b600060018201611b0c57611b0c6115b8565b5060010190565b600061ffff8089168352602060018060a01b03891681850152604060c081860152611b4160c086018a61161b565b60608681018a90526080870189905286820360a088015287518083528489019285019060005b81811015611b9f57845180518916845287810151888501528601516001600160401b0316868401529386019391830191600101611b67565b50909e9d5050505050505050505050505050565b600060208284031215611bc557600080fd5b610d148261168a565b600060208284031215611be057600080fd5b815161047f8161122f565b60008251611bfd8184602087016115f7565b9190910192915050565b600060208284031215611c1957600080fd5b610d148261165a565b60018060a01b038716815285602082015261ffff8516604082015283606082015263ffffffff8316608082015260c060a08201526000611c6560c083018461161b565b9897505050505050505056fea2646970667358221220d990dd24b0e2f3c185cdd6b593b3e5ce79d4b0259f0b57d4a5ac7bc006dae08064736f6c63430008140033",
  "devdoc": {
    "kind": "dev",
    "methods": {},
    "version": 1
  },
  "userdoc": {
    "kind": "user",
    "methods": {
      "setRegisteredSender(uint16,bytes32)": {
        "notice": "Sets the registered address for 'sourceChain' to 'sourceAddress' So that for messages from 'sourceChain', only ones from 'sourceAddress' are valid Assumes only one sender per chain is valid Sender is the address that called 'send' on the Wormhole Relayer contract on the source chain)"
      }
    },
    "version": 1
  },
  "storageLayout": {
    "storage": [
      {
        "astId": 229,
        "contract": "contracts/Facets/WormFacet.sol:WormFacet",
        "label": "seenDeliveryVaaHashes",
        "offset": 0,
        "slot": "0",
        "type": "t_mapping(t_bytes32,t_bool)"
      },
      {
        "astId": 231,
        "contract": "contracts/Facets/WormFacet.sol:WormFacet",
        "label": "registrationOwner",
        "offset": 0,
        "slot": "1",
        "type": "t_address"
      },
      {
        "astId": 235,
        "contract": "contracts/Facets/WormFacet.sol:WormFacet",
        "label": "registeredSenders",
        "offset": 0,
        "slot": "2",
        "type": "t_mapping(t_uint16,t_bytes32)"
      },
      {
        "astId": 113,
        "contract": "contracts/Facets/WormFacet.sol:WormFacet",
        "label": "sender",
        "offset": 0,
        "slot": "3",
        "type": "t_address"
      },
      {
        "astId": 115,
        "contract": "contracts/Facets/WormFacet.sol:WormFacet",
        "label": "counter",
        "offset": 0,
        "slot": "4",
        "type": "t_uint256"
      }
    ],
    "types": {
      "t_address": {
        "encoding": "inplace",
        "label": "address",
        "numberOfBytes": "20"
      },
      "t_bool": {
        "encoding": "inplace",
        "label": "bool",
        "numberOfBytes": "1"
      },
      "t_bytes32": {
        "encoding": "inplace",
        "label": "bytes32",
        "numberOfBytes": "32"
      },
      "t_mapping(t_bytes32,t_bool)": {
        "encoding": "mapping",
        "key": "t_bytes32",
        "label": "mapping(bytes32 => bool)",
        "numberOfBytes": "32",
        "value": "t_bool"
      },
      "t_mapping(t_uint16,t_bytes32)": {
        "encoding": "mapping",
        "key": "t_uint16",
        "label": "mapping(uint16 => bytes32)",
        "numberOfBytes": "32",
        "value": "t_bytes32"
      },
      "t_uint16": {
        "encoding": "inplace",
        "label": "uint16",
        "numberOfBytes": "2"
      },
      "t_uint256": {
        "encoding": "inplace",
        "label": "uint256",
        "numberOfBytes": "32"
      }
    }
  }
}