{
  "address": "0x1936b70E1a5A2cA8eB959C799a11B173E8FF7bd1",
  "abi": [
    {
      "inputs": [
        {
          "internalType": "bytes32",
          "name": "",
          "type": "bytes32"
        }
      ],
      "name": "NotAnEvmAddress",
      "type": "error"
    },
    {
      "inputs": [],
      "name": "getCounterWorm",
      "outputs": [
        {
          "internalType": "uint256",
          "name": "",
          "type": "uint256"
        }
      ],
      "stateMutability": "view",
      "type": "function"
    },
    {
      "inputs": [],
      "name": "getLastSender",
      "outputs": [
        {
          "internalType": "address",
          "name": "",
          "type": "address"
        }
      ],
      "stateMutability": "view",
      "type": "function"
    },
    {
      "inputs": [
        {
          "internalType": "bytes",
          "name": "payload",
          "type": "bytes"
        },
        {
          "internalType": "bytes[]",
          "name": "additionalVaas",
          "type": "bytes[]"
        },
        {
          "internalType": "bytes32",
          "name": "sourceAddress",
          "type": "bytes32"
        },
        {
          "internalType": "uint16",
          "name": "sourceChain",
          "type": "uint16"
        },
        {
          "internalType": "bytes32",
          "name": "deliveryHash",
          "type": "bytes32"
        }
      ],
      "name": "receiveWormholeMessages",
      "outputs": [],
      "stateMutability": "payable",
      "type": "function"
    },
    {
      "inputs": [
        {
          "internalType": "uint256[]",
          "name": "inputs",
          "type": "uint256[]"
        }
      ],
      "name": "sendFlowTokenGoerli",
      "outputs": [],
      "stateMutability": "nonpayable",
      "type": "function"
    },
    {
      "inputs": [
        {
          "internalType": "uint256[]",
          "name": "inputs",
          "type": "uint256[]"
        }
      ],
      "name": "sendFlowTokensArbG",
      "outputs": [],
      "stateMutability": "nonpayable",
      "type": "function"
    },
    {
      "inputs": [
        {
          "internalType": "uint256[]",
          "name": "inputs",
          "type": "uint256[]"
        }
      ],
      "name": "sendFlowTokensBase",
      "outputs": [],
      "stateMutability": "nonpayable",
      "type": "function"
    },
    {
      "inputs": [
        {
          "internalType": "uint256[]",
          "name": "inputs",
          "type": "uint256[]"
        }
      ],
      "name": "sendFlowTokensMumbai",
      "outputs": [],
      "stateMutability": "nonpayable",
      "type": "function"
    },
    {
      "inputs": [
        {
          "internalType": "uint16",
          "name": "domain",
          "type": "uint16"
        },
        {
          "internalType": "address",
          "name": "recipient",
          "type": "address"
        }
      ],
      "name": "setAddyForDomain",
      "outputs": [],
      "stateMutability": "nonpayable",
      "type": "function"
    },
    {
      "inputs": [
        {
          "internalType": "address",
          "name": "tokeBridge",
          "type": "address"
        }
      ],
      "name": "setTokenBridge",
      "outputs": [],
      "stateMutability": "nonpayable",
      "type": "function"
    },
    {
      "inputs": [
        {
          "internalType": "address",
          "name": "wormHole",
          "type": "address"
        }
      ],
      "name": "setWormHole",
      "outputs": [],
      "stateMutability": "nonpayable",
      "type": "function"
    },
    {
      "inputs": [
        {
          "internalType": "address",
          "name": "wormRelay",
          "type": "address"
        }
      ],
      "name": "setWormRelayer",
      "outputs": [],
      "stateMutability": "nonpayable",
      "type": "function"
    }
  ],
  "transactionHash": "0x6c723807bcb97f7275682c998d707b1d1d5ee45ac9cde6011c7a8ad464cbb50e",
  "args": [],
  "numDeployments": 1,
  "solcInputHash": "0e22ea53b39ec09566e3f1de54c015d2",
  "bytecode": "0x608060405234801561001057600080fd5b50612a76806100206000396000f3fe60806040526004361061008c5760003560e01c80630a3b8c7f1461009157806312c1f5e7146100b357806314ca3c7c146100d357806339d0486014610105578063529dca32146101255780637928483f14610138578063853c4abc14610158578063c0df6bbb14610178578063c715c47b14610198578063e39afb96146101bb578063e79a16f8146101db575b600080fd5b34801561009d57600080fd5b506100b16100ac366004611bc9565b6101fb565b005b3480156100bf57600080fd5b506100b16100ce366004611cbd565b610207565b3480156100df57600080fd5b506100e8610245565b6040516001600160a01b0390911681526020015b60405180910390f35b34801561011157600080fd5b506100b1610120366004611bc9565b610254565b6100b1610133366004611dea565b61025d565b34801561014457600080fd5b506100b1610153366004611bc9565b610271565b34801561016457600080fd5b506100b1610173366004611cbd565b61027a565b34801561018457600080fd5b506100b1610193366004611cbd565b6102b8565b3480156101a457600080fd5b506101ad6102f6565b6040519081526020016100fc565b3480156101c757600080fd5b506100b16101d6366004611cbd565b610300565b3480156101e757600080fd5b506100b16101f6366004611edf565b61033e565b6102048161034c565b50565b6102048160008151811061021d5761021d611f18565b60200260200101518260018151811061023857610238611f18565b602002602001015161037b565b600061024f610440565b905090565b6102048161045e565b61026a858585858561048a565b5050505050565b6102048161095a565b6102048160008151811061029057610290611f18565b6020026020010151826001815181106102ab576102ab611f18565b6020026020010151610989565b610204816000815181106102ce576102ce611f18565b6020026020010151826001815181106102e9576102e9611f18565b6020026020010151610995565b600061024f6109a1565b6102048160008151811061031657610316611f18565b60200260200101518260018151811061033157610331611f18565b60200260200101516109b6565b61034882826109c2565b5050565b6000610356610a05565b60010180546001600160a01b0319166001600160a01b03939093169290921790915550565b60176000610387610a05565b61ffff831660009081526005820160205260408120549192506001600160a01b03909116906103b4610a29565b604080516002808252606082018352929350889260009260208301908036833701905050905087816000815181106103ee576103ee611f18565b602002602001018181525050868160018151811061040e5761040e611f18565b60200260200101818152505060006104268285610aca565b905061043587868a8685610af6565b505050505050505050565b60008061044b610a05565b600401546001600160a01b031692915050565b6000610468610a05565b80546001600160a01b0319166001600160a01b03939093169290921790915550565b6000610494610a05565b9050600085516001600160401b038111156104b1576104b1611be6565b60405190808252806020026020018201604052801561050a57816020015b6040805160a0810182526000808252602080830182905292820181905260608201819052608082015282526000199092019101816104cf5790505b50905060005b865181101561094357600183015487516000916001600160a01b03169063a9e11893908a908590811061054557610545611f18565b60200260200101516040518263ffffffff1660e01b81526004016105699190611f7e565b600060405180830381865afa158015610586573d6000803e3d6000fd5b505050506040513d6000823e601f3d908101601f191682016040526105ae91908101906120d1565b8454606082015160405163ad66a5f160e01b815261ffff90911660048201529192506001600160a01b03169063ad66a5f190602401602060405180830381865afa158015610600573d6000803e3d6000fd5b505050506040513d601f19601f8201168201806040525081019061062491906121f5565b8160800151146106745760405162461bcd60e51b81526020600482015260166024820152754e6f74206120546f6b656e204272696467652056414160501b60448201526064015b60405180910390fd5b835460e082015160405163ea63738d60e01b81526000926001600160a01b03169163ea63738d916106a89190600401611f7e565b600060405180830381865afa1580156106c5573d6000803e3d6000fd5b505050506040513d6000823e601f3d908101601f191682016040526106ed919081019061220e565b90506106f830610b2f565b816080015114801561078d57508460010160009054906101000a90046001600160a01b03166001600160a01b0316639a8a05926040518163ffffffff1660e01b8152600401602060405180830381865afa15801561075a573d6000803e3d6000fd5b505050506040513d601f19601f8201168201806040525081019061077e91906122d6565b61ffff168160a0015161ffff16145b6107e45760405162461bcd60e51b815260206004820152602260248201527f546f6b656e20776173206e6f742073656e7420746f2074686973206164647265604482015261737360f01b606482015260840161066b565b845489516001600160a01b039091169063c3f511c1908b908690811061080c5761080c611f18565b60200260200101516040518263ffffffff1660e01b81526004016108309190611f7e565b6000604051808303816000875af115801561084f573d6000803e3d6000fd5b505050506040513d6000823e601f3d908101601f1916820160405261087791908101906122f3565b50600061088c82606001518360400151610b3b565b9050600061089982610c5d565b6020840151909150600860ff831611156108d0576108b860088361233d565b6108c390600a61243a565b6108cd9082612449565b90505b6040518060a0016040528085604001518152602001856060015161ffff168152602001846001600160a01b03168152602001828152602001856020015181525087878151811061092257610922611f18565b602002602001018190525050505050508061093c90612460565b9050610510565b506109518782878787610cff565b50505050505050565b6000610964610a05565b60020180546001600160a01b0319166001600160a01b03939093169290921790915550565b601e6000610387610a05565b60056000610387610a05565b6000806109ac610a05565b6003015492915050565b60026000610387610a05565b60006109cc610a05565b61ffff939093166000908152600590930160205250604090912080546001600160a01b0319166001600160a01b03909216919091179055565b7fb331227f1bf35a6ac99b435b3538d39c2961a2e4b41a31d91747de11a066fa5690565b60606000610a35610d70565b9050806007018054610a4690612479565b80601f0160208091040260200160405190810160405280929190818152602001828054610a7290612479565b8015610abf5780601f10610a9457610100808354040283529160200191610abf565b820191906000526020600020905b815481529060010190602001808311610aa257829003601f168201915b505050505091505090565b6040518190610adf90849083906020016124ee565b604051602081830303815290604052905092915050565b60003382604051602001610b0b929190612513565b604051602081830303815290604052905061095186868360006203d090888a610d94565b6001600160a01b031690565b600080610b46610a05565b90508060010160009054906101000a90046001600160a01b03166001600160a01b0316639a8a05926040518163ffffffff1660e01b8152600401602060405180830381865afa158015610b9d573d6000803e3d6000fd5b505050506040513d601f19601f82011682018060405250810190610bc191906122d6565b61ffff168461ffff1614610c4a578054604051630ff8f14360e11b815261ffff86166004820152602481018590526001600160a01b0390911690631ff1e28690604401602060405180830381865afa158015610c21573d6000803e3d6000fd5b505050506040513d601f19601f82011682018060405250810190610c459190612537565b610c53565b610c5383610f13565b9150505b92915050565b60408051600481526024810182526020810180516001600160e01b031663313ce56760e01b179052905160009182916001600160a01b03851691610ca091612554565b600060405180830381855afa9150503d8060008114610cdb576040519150601f19603f3d011682016040523d82523d6000602084013e610ce0565b606091505b5091505080806020019051810190610cf89190612570565b9392505050565b6000610d09610a05565b6003810180549192506000610d1d83612460565b9190505550606086806020019051810190610d38919061258b565b6004840180546001600160a01b0319166001600160a01b0393909316929092179091559050610d6681610f3f565b5050505050505050565b7f4bc1672041418a922447d83c0efd37e6707ed20ab7e53ca3f20ce1d16cac307590565b600080610d9f610a05565b60408051600180825281830190925291925060009190816020015b610dc2611b3d565b815260200190600190039081610dba579050509050610de385858c8c610ffb565b81600081518110610df657610df6611f18565b6020908102919091010152600282015460405163c23ee3c360e01b815261ffff8c16600482015260248101899052604481018890526000916001600160a01b03169063c23ee3c3906064016040805180830381865afa158015610e5d573d6000803e3d6000fd5b505050506040513d601f19601f82011682018060405250810190610e8191906125db565b50600284015460405163329a2be760e01b81529192506001600160a01b03169063329a2be7908390610ec1908f908f908f908f908f908b906004016125ff565b60206040518083038185885af1158015610edf573d6000803e3d6000fd5b50505050506040513d601f19601f82011682018060405250810190610f04919061269f565b9b9a5050505050505050505050565b600060a082901c15610f3b5760405163033b960d60e41b81526004810183905260240161066b565b5090565b60606000610f4b610d70565b60068101805461ffff19166101011790559050600080610f6a85611028565b915091506000610f7982611048565b9650905060078401610f8b8782612709565b50610f9683826110ce565b9450600386511080610fad5750600684015460ff16155b15610fdc578451610fc79060018601906020880190611b5d565b50505050600601805461ff0019169055919050565b610fe68587610aca565b9550610ff186610f3f565b5050505050919050565b611003611b3d565b61101f858585856040518060200160405280600081525061185e565b95945050505050565b6060808280602001905181019061103f91906127c8565b91509150915091565b602081015160608060005b600585516110619190612879565b8110156110c557818561107583600561288c565b8151811061108557611085611f18565b602001015160f81c60f81b6040516020016110a192919061289f565b604051602081830303815290604052915080806110bd90612460565b915050611053565b50919391925050565b606081600f600482811a9081901c8216911683600083810361116e5760408051600481526024810182526020810180516001600160e01b03166001600160e01b031989161790529051309161112291612554565b6000604051808303816000865af19150503d806000811461115f576040519150601f19603f3d011682016040523d82523d6000602084013e611164565b606091505b5092509050611210565b306001600160a01b0316858960405160240161118a91906128ce565b60408051601f198184030181529181526020820180516001600160e01b03166001600160e01b03199094169390931790925290516111c89190612554565b6000604051808303816000865af19150503d8060008114611205576040519150601f19603f3d011682016040523d82523d6000602084013e61120a565b606091505b50925090505b8260ff1660000361126a576040805160018082528183019092526000916020808301908036833701905050905060008160008151811061125257611252611f18565b60209081029190910101529550610c57945050505050565b8260ff166001036113035760008280602001905181019061128b91906121f5565b905060008460ff166001600160401b038111156112aa576112aa611be6565b6040519080825280602002602001820160405280156112d3578160200160208202803683370190505b50905081816000815181106112ea576112ea611f18565b60209081029190910101529650610c5795505050505050565b8260ff166002036113f157611335604051806040016040528060068152602001654265666f726560d01b815250611a92565b6000808380602001905181019061134c91906125db565b9150915061135a8282611ad5565b60008560ff166001600160401b0381111561137757611377611be6565b6040519080825280602002602001820160405280156113a0578160200160208202803683370190505b50905082816000815181106113b7576113b7611f18565b60200260200101818152505081816001815181106113d7576113d7611f18565b60209081029190910101529750610c579650505050505050565b8260ff166003036114d35760008060008480602001905181019061141591906128e1565b92509250925060008660ff166001600160401b0381111561143857611438611be6565b604051908082528060200260200182016040528015611461578160200160208202803683370190505b509050838160008151811061147857611478611f18565b602002602001018181525050828160018151811061149857611498611f18565b60200260200101818152505081816002815181106114b8576114b8611f18565b60209081029190910101529850610c57975050505050505050565b8260ff166004036115d957600080600080858060200190518101906114f8919061290f565b935093509350935060008760ff166001600160401b0381111561151d5761151d611be6565b604051908082528060200260200182016040528015611546578160200160208202803683370190505b509050848160008151811061155d5761155d611f18565b602002602001018181525050838160018151811061157d5761157d611f18565b602002602001018181525050828160028151811061159d5761159d611f18565b60200260200101818152505081816003815181106115bd576115bd611f18565b60209081029190910101529950610c5798505050505050505050565b8260ff16600503611704576000806000806000868060200190518101906116009190612945565b9450945094509450945060008860ff166001600160401b0381111561162757611627611be6565b604051908082528060200260200182016040528015611650578160200160208202803683370190505b509050858160008151811061166757611667611f18565b602002602001018181525050848160018151811061168757611687611f18565b60200260200101818152505083816002815181106116a7576116a7611f18565b60200260200101818152505082816003815181106116c7576116c7611f18565b60200260200101818152505081816004815181106116e7576116e7611f18565b60209081029190910101529a50610c579950505050505050505050565b8260ff16600603611853576000806000806000808780602001905181019061172c9190612985565b95509550955095509550955060008960ff166001600160401b0381111561175557611755611be6565b60405190808252806020026020018201604052801561177e578160200160208202803683370190505b509050868160008151811061179557611795611f18565b60200260200101818152505085816001815181106117b5576117b5611f18565b60200260200101818152505084816002815181106117d5576117d5611f18565b60200260200101818152505083816003815181106117f5576117f5611f18565b602002602001018181525050828160048151811061181557611815611f18565b602002602001018181525050818160068151811061183557611835611f18565b60209081029190910101529b50610c579a5050505050505050505050565b505050505092915050565b611866611b3d565b6000611870610a05565b805460405163095ea7b360e01b81526001600160a01b0391821660048201526024810189905291925088169063095ea7b3906044016020604051808303816000875af11580156118c4573d6000803e3d6000fd5b505050506040513d601f19601f820116820180604052508101906118e891906129cf565b508054600182015460408051631a90a21960e01b815290516000936001600160a01b039081169363c5a5ebda93911691631a90a219916004808201926020929091908290030181865afa158015611943573d6000803e3d6000fd5b505050506040513d601f19601f8201168201806040525081019061196791906121f5565b8a8a8a6119738b610b2f565b60008b6040518863ffffffff1660e01b8152600401611997969594939291906129f1565b60206040518083038185885af11580156119b5573d6000803e3d6000fd5b50505050506040513d601f19601f820116820180604052508101906119da919061269f565b60408051606081018083526001860154634d4502c960e11b90915291519293509182916001600160a01b031690639a8a0592906064808501916020918187030181865afa158015611a2f573d6000803e3d6000fd5b505050506040513d601f19601f82011682018060405250810190611a5391906122d6565b61ffff1681528354602090910190611a73906001600160a01b0316610b2f565b8152602001826001600160401b03168152509250505095945050505050565b61020481604051602401611aa69190611f7e565b60408051601f198184030181529190526020810180516001600160e01b031663104c13eb60e21b179052611b18565b60405160248101839052604481018290526103489060640160408051601f198184030181529190526020810180516001600160e01b0316637b3338ad60e11b1790525b6102048160006a636f6e736f6c652e6c6f679050600080835160208501845afa505050565b604080516060810182526000808252602082018190529181019190915290565b828054828255906000526020600020908101928215611b98579160200282015b82811115611b98578251825591602001919060010190611b7d565b50610f3b9291505b80821115610f3b5760008155600101611ba0565b6001600160a01b038116811461020457600080fd5b600060208284031215611bdb57600080fd5b8135610cf881611bb4565b634e487b7160e01b600052604160045260246000fd5b604051608081016001600160401b0381118282101715611c1e57611c1e611be6565b60405290565b60405161016081016001600160401b0381118282101715611c1e57611c1e611be6565b60405161010081016001600160401b0381118282101715611c1e57611c1e611be6565b604051601f8201601f191681016001600160401b0381118282101715611c9257611c92611be6565b604052919050565b60006001600160401b03821115611cb357611cb3611be6565b5060051b60200190565b60006020808385031215611cd057600080fd5b82356001600160401b03811115611ce657600080fd5b8301601f81018513611cf757600080fd5b8035611d0a611d0582611c9a565b611c6a565b81815260059190911b82018301908381019087831115611d2957600080fd5b928401925b82841015611d4757833582529284019290840190611d2e565b979650505050505050565b60006001600160401b03821115611d6b57611d6b611be6565b50601f01601f191660200190565b600082601f830112611d8a57600080fd5b8135611d98611d0582611d52565b818152846020838601011115611dad57600080fd5b816020850160208301376000918101602001919091529392505050565b61ffff8116811461020457600080fd5b8035611de581611dca565b919050565b600080600080600060a08688031215611e0257600080fd5b85356001600160401b0380821115611e1957600080fd5b611e2589838a01611d79565b9650602091508188013581811115611e3c57600080fd5b8801601f81018a13611e4d57600080fd5b8035611e5b611d0582611c9a565b81815260059190911b8201840190848101908c831115611e7a57600080fd5b8584015b83811015611eb257803586811115611e965760008081fd5b611ea48f8983890101611d79565b845250918601918601611e7e565b50985050505060408801359450611ece91505060608701611dda565b949793965091946080013592915050565b60008060408385031215611ef257600080fd5b8235611efd81611dca565b91506020830135611f0d81611bb4565b809150509250929050565b634e487b7160e01b600052603260045260246000fd5b60005b83811015611f49578181015183820152602001611f31565b50506000910152565b60008151808452611f6a816020860160208601611f2e565b601f01601f19169290920160200192915050565b602081526000610cf86020830184611f52565b805160ff81168114611de557600080fd5b805163ffffffff81168114611de557600080fd5b8051611de581611dca565b80516001600160401b0381168114611de557600080fd5b600082601f830112611fe957600080fd5b8151611ff7611d0582611d52565b81815284602083860101111561200c57600080fd5b61201d826020830160208701611f2e565b949350505050565b600082601f83011261203657600080fd5b81516020612046611d0583611c9a565b82815260079290921b8401810191818101908684111561206557600080fd5b8286015b848110156120c657608081890312156120825760008081fd5b61208a611bfc565b81518152848201518582015260406120a3818401611f91565b9082015260606120b4838201611f91565b90820152835291830191608001612069565b509695505050505050565b6000602082840312156120e357600080fd5b81516001600160401b03808211156120fa57600080fd5b90830190610160828603121561210f57600080fd5b612117611c24565b61212083611f91565b815261212e60208401611fa2565b602082015261213f60408401611fa2565b604082015261215060608401611fb6565b60608201526080830151608082015261216b60a08401611fc1565b60a082015261217c60c08401611f91565b60c082015260e08301518281111561219357600080fd5b61219f87828601611fd8565b60e0830152506101006121b3818501611fa2565b9082015261012083810151838111156121cb57600080fd5b6121d788828701612025565b91830191909152506101409283015192810192909252509392505050565b60006020828403121561220757600080fd5b5051919050565b60006020828403121561222057600080fd5b81516001600160401b038082111561223757600080fd5b90830190610100828603121561224c57600080fd5b612254611c47565b61225d83611f91565b8152602083015160208201526040830151604082015261227f60608401611fb6565b60608201526080830151608082015261229a60a08401611fb6565b60a082015260c083015160c082015260e0830151828111156122bb57600080fd5b6122c787828601611fd8565b60e08301525095945050505050565b6000602082840312156122e857600080fd5b8151610cf881611dca565b60006020828403121561230557600080fd5b81516001600160401b0381111561231b57600080fd5b610c5384828501611fd8565b634e487b7160e01b600052601160045260246000fd5b60ff8281168282160390811115610c5757610c57612327565b600181815b8085111561239157816000190482111561237757612377612327565b8085161561238457918102915b93841c939080029061235b565b509250929050565b6000826123a857506001610c57565b816123b557506000610c57565b81600181146123cb57600281146123d5576123f1565b6001915050610c57565b60ff8411156123e6576123e6612327565b50506001821b610c57565b5060208310610133831016604e8410600b8410161715612414575081810a610c57565b61241e8383612356565b806000190482111561243257612432612327565b029392505050565b6000610cf860ff841683612399565b8082028115828204841417610c5757610c57612327565b60006001820161247257612472612327565b5060010190565b600181811c9082168061248d57607f821691505b6020821081036124ad57634e487b7160e01b600052602260045260246000fd5b50919050565b600081518084526020808501945080840160005b838110156124e3578151875295820195908201906001016124c7565b509495945050505050565b60408152600061250160408301856124b3565b828103602084015261101f8185611f52565b6001600160a01b038316815260406020820181905260009061201d90830184611f52565b60006020828403121561254957600080fd5b8151610cf881611bb4565b60008251612566818460208701611f2e565b9190910192915050565b60006020828403121561258257600080fd5b610cf882611f91565b6000806040838503121561259e57600080fd5b82516125a981611bb4565b60208401519092506001600160401b038111156125c557600080fd5b6125d185828601611fd8565b9150509250929050565b600080604083850312156125ee57600080fd5b505080516020909101519092909150565b600061ffff8089168352602060018060a01b03891681850152604060c08186015261262d60c086018a611f52565b60608681018a90526080870189905286820360a088015287518083528489019285019060005b8181101561268b57845180518916845287810151888501528601516001600160401b0316868401529386019391830191600101612653565b50909e9d5050505050505050505050505050565b6000602082840312156126b157600080fd5b610cf882611fc1565b601f82111561270457600081815260208120601f850160051c810160208610156126e15750805b601f850160051c820191505b81811015612700578281556001016126ed565b5050505b505050565b81516001600160401b0381111561272257612722611be6565b612736816127308454612479565b846126ba565b602080601f83116001811461276b57600084156127535750858301515b600019600386901b1c1916600185901b178555612700565b600085815260208120601f198616915b8281101561279a5788860151825594840194600190910190840161277b565b50858210156127b85787850151600019600388901b60f8161c191681555b5050505050600190811b01905550565b600080604083850312156127db57600080fd5b82516001600160401b03808211156127f257600080fd5b818501915085601f83011261280657600080fd5b81516020612816611d0583611c9a565b82815260059290921b8401810191818101908984111561283557600080fd5b948201945b838610156128535785518252948201949082019061283a565b9188015191965090935050508082111561286c57600080fd5b506125d185828601611fd8565b81810381811115610c5757610c57612327565b80820180821115610c5757610c57612327565b600083516128b1818460208801611f2e565b6001600160f81b0319939093169190920190815260010192915050565b602081526000610cf860208301846124b3565b6000806000606084860312156128f657600080fd5b8351925060208401519150604084015190509250925092565b6000806000806080858703121561292557600080fd5b505082516020840151604085015160609095015191969095509092509050565b600080600080600060a0868803121561295d57600080fd5b5050835160208501516040860151606087015160809097015192989197509594509092509050565b60008060008060008060c0878903121561299e57600080fd5b865195506020870151945060408701519350606087015192506080870151915060a087015190509295509295509295565b6000602082840312156129e157600080fd5b81518015158114610cf857600080fd5b60018060a01b038716815285602082015261ffff8516604082015283606082015263ffffffff8316608082015260c060a08201526000612a3460c0830184611f52565b9897505050505050505056fea2646970667358221220e89468d4ca900c2dab88fe127baf4eda9662acbac33710270476498fb3780f4764736f6c63430008140033",
  "devdoc": {
    "kind": "dev",
    "methods": {
      "receiveWormholeMessages(bytes,bytes[],bytes32,uint16,bytes32)": {
        "params": {
          "additionalVaas": "- Additional VAAs which were requested to be included in this delivery.   They are guaranteed to all be included and in the same order as was specified in the     delivery request.",
          "deliveryHash": "- the VAA hash of the deliveryVAA. NOTE: These signedVaas are NOT verified by the Wormhole core contract prior to being provided     to this call. Always make sure `parseAndVerify()` is called on the Wormhole core contract     before trusting the content of a raw VAA, otherwise the VAA may be invalid or malicious.",
          "payload": "- an arbitrary message which was included in the delivery by the     requester.",
          "sourceAddress": "- the (wormhole format) address on the sending chain which requested     this delivery.",
          "sourceChain": "- the wormhole chain ID where this delivery was requested."
        }
      }
    },
    "version": 1
  },
  "userdoc": {
    "kind": "user",
    "methods": {
      "receiveWormholeMessages(bytes,bytes[],bytes32,uint16,bytes32)": {
        "notice": "When a `send` is performed with this contract as the target, this function will be     invoked by the WormholeRelayer contract NOTE: This function should be restricted such that only the Wormhole Relayer contract can call it. We also recommend that this function:   - Stores all received `deliveryHash`s in a mapping `(bytes32 => bool)`, and       on every call, checks that deliveryHash has not already been stored in the       map (This is to prevent other users maliciously trying to relay the same message)   - Checks that `sourceChain` and `sourceAddress` are indeed who       you expect to have requested the calling of `send` on the source chain The invocation of this function corresponding to the `send` request will have msg.value equal   to the receiverValue specified in the send request. If the invocation of this function reverts or exceeds the gas limit   specified by the send requester, this delivery will result in a `ReceiverFailure`."
      }
    },
    "version": 1
  },
  "storageLayout": {
    "storage": [],
    "types": null
  }
}