{
  "_format": "hh-sol-artifact-1",
  "contractName": "EmptyIsm",
  "sourceName": "contracts/Facets/Hyperlane/EmptyISM.sol",
  "abi": [
    {
      "inputs": [],
      "name": "moduleType",
      "outputs": [
        {
          "internalType": "uint8",
          "name": "",
          "type": "uint8"
        }
      ],
      "stateMutability": "view",
      "type": "function"
    },
    {
      "inputs": [
        {
          "internalType": "bytes",
          "name": "_metadata",
          "type": "bytes"
        },
        {
          "internalType": "bytes",
          "name": "_message",
          "type": "bytes"
        }
      ],
      "name": "verify",
      "outputs": [
        {
          "internalType": "bool",
          "name": "",
          "type": "bool"
        }
      ],
      "stateMutability": "nonpayable",
      "type": "function"
    }
  ],
  "bytecode": "0x608060405234801561001057600080fd5b50610160806100206000396000f3fe608060405234801561001057600080fd5b50600436106100365760003560e01c80636465e69f1461003b578063f7e83aee1461004f575b600080fd5b604051600681526020015b60405180910390f35b61006761005d3660046100bf565b6001949350505050565b6040519015158152602001610046565b60008083601f84011261008957600080fd5b5081356001600160401b038111156100a057600080fd5b6020830191508360208285010111156100b857600080fd5b9250929050565b600080600080604085870312156100d557600080fd5b84356001600160401b03808211156100ec57600080fd5b6100f888838901610077565b9096509450602087013591508082111561011157600080fd5b5061011e87828801610077565b9598949750955050505056fea2646970667358221220fd1f4cae827aef8b3eee1e4cb09e28e653b821cd299e3786c3b70e637977560c64736f6c63430008140033",
  "linkReferences": {},
  "deployedLinkReferences": {}
}