{
  "_format": "hh-sol-artifact-1",
  "contractName": "LeverageFacet",
  "sourceName": "contracts/Facets/LeverageFacet.sol",
  "abi": [
    {
      "inputs": [
        {
          "internalType": "address",
          "name": "collateral",
          "type": "address"
        },
        {
          "internalType": "address",
          "name": "providedToken",
          "type": "address"
        },
        {
          "internalType": "uint256",
          "name": "id",
          "type": "uint256"
        }
      ],
      "name": "closePosition",
      "outputs": [],
      "stateMutability": "nonpayable",
      "type": "function"
    },
    {
      "inputs": [
        {
          "internalType": "address",
          "name": "asset",
          "type": "address"
        }
      ],
      "name": "getAssetInfo",
      "outputs": [
        {
          "components": [
            {
              "internalType": "uint8",
              "name": "offset",
              "type": "uint8"
            },
            {
              "internalType": "address",
              "name": "asset",
              "type": "address"
            },
            {
              "internalType": "address",
              "name": "priceFeed",
              "type": "address"
            },
            {
              "internalType": "uint64",
              "name": "scale",
              "type": "uint64"
            },
            {
              "internalType": "uint64",
              "name": "borrowCollateralFactor",
              "type": "uint64"
            },
            {
              "internalType": "uint64",
              "name": "liquidateCollateralFactor",
              "type": "uint64"
            },
            {
              "internalType": "uint64",
              "name": "liquidationFactor",
              "type": "uint64"
            },
            {
              "internalType": "uint128",
              "name": "supplyCap",
              "type": "uint128"
            }
          ],
          "internalType": "struct CometCore.AssetInfo",
          "name": "",
          "type": "tuple"
        }
      ],
      "stateMutability": "view",
      "type": "function"
    },
    {
      "inputs": [],
      "name": "getBalance",
      "outputs": [
        {
          "internalType": "uint256",
          "name": "",
          "type": "uint256"
        }
      ],
      "stateMutability": "view",
      "type": "function"
    },
    {
      "inputs": [],
      "name": "getBorrowRate",
      "outputs": [
        {
          "internalType": "uint256",
          "name": "",
          "type": "uint256"
        }
      ],
      "stateMutability": "view",
      "type": "function"
    },
    {
      "inputs": [
        {
          "internalType": "address",
          "name": "asset",
          "type": "address"
        }
      ],
      "name": "getCollateralBalance",
      "outputs": [
        {
          "internalType": "uint256",
          "name": "",
          "type": "uint256"
        }
      ],
      "stateMutability": "view",
      "type": "function"
    },
    {
      "inputs": [],
      "name": "getSupplyRate",
      "outputs": [
        {
          "internalType": "uint256",
          "name": "",
          "type": "uint256"
        }
      ],
      "stateMutability": "view",
      "type": "function"
    },
    {
      "inputs": [],
      "name": "getUtilization",
      "outputs": [
        {
          "internalType": "uint256",
          "name": "",
          "type": "uint256"
        }
      ],
      "stateMutability": "view",
      "type": "function"
    },
    {
      "inputs": [
        {
          "internalType": "address",
          "name": "account",
          "type": "address"
        }
      ],
      "name": "isLiquidatable",
      "outputs": [
        {
          "internalType": "bool",
          "name": "",
          "type": "bool"
        }
      ],
      "stateMutability": "view",
      "type": "function"
    },
    {
      "inputs": [
        {
          "internalType": "address",
          "name": "collateral",
          "type": "address"
        },
        {
          "internalType": "address",
          "name": "providedToken",
          "type": "address"
        },
        {
          "internalType": "uint256",
          "name": "userAmount",
          "type": "uint256"
        },
        {
          "internalType": "uint256",
          "name": "swapAmount",
          "type": "uint256"
        }
      ],
      "name": "leverageUp",
      "outputs": [],
      "stateMutability": "nonpayable",
      "type": "function"
    },
    {
      "inputs": [
        {
          "internalType": "uint256",
          "name": "positionId",
          "type": "uint256"
        }
      ],
      "name": "returnProfit",
      "outputs": [
        {
          "internalType": "int256",
          "name": "",
          "type": "int256"
        }
      ],
      "stateMutability": "nonpayable",
      "type": "function"
    },
    {
      "inputs": [
        {
          "internalType": "address",
          "name": "cometAddy",
          "type": "address"
        }
      ],
      "name": "setComet",
      "outputs": [],
      "stateMutability": "nonpayable",
      "type": "function"
    },
    {
      "inputs": [
        {
          "internalType": "address",
          "name": "cometDataAddy",
          "type": "address"
        }
      ],
      "name": "setCometData",
      "outputs": [],
      "stateMutability": "nonpayable",
      "type": "function"
    },
    {
      "inputs": [
        {
          "internalType": "address",
          "name": "asset",
          "type": "address"
        },
        {
          "internalType": "uint256",
          "name": "amount",
          "type": "uint256"
        }
      ],
      "name": "supply",
      "outputs": [],
      "stateMutability": "nonpayable",
      "type": "function"
    },
    {
      "inputs": [
        {
          "internalType": "address",
          "name": "asset",
          "type": "address"
        },
        {
          "internalType": "uint256",
          "name": "amount",
          "type": "uint256"
        }
      ],
      "name": "withdraw",
      "outputs": [],
      "stateMutability": "nonpayable",
      "type": "function"
    }
  ],
  "bytecode": "0x608060405234801561001057600080fd5b506116f1806100206000396000f3fe608060405234801561001057600080fd5b50600436106100ba5760003560e01c8063042e02cf146100bf57806312065fe0146100e75780632703ee85146100fd57806351ea5a2d146101105780637eb711311461012557806384bdc9a81461012d578063908199cf14610135578063afad2e1614610148578063ba1c5e8014610168578063cb0638db14610170578063d9b3bba814610183578063f2b9fdb814610196578063f3fef3a3146101a9578063f5f0b9ec146101bc575b600080fd5b6100d26100cd3660046110ea565b6101cf565b60405190151581526020015b60405180910390f35b6100ef6101e0565b6040519081526020016100de565b6100ef61010b3660046110ea565b6101ef565b61012361011e3660046110ea565b6101fa565b005b6100ef610206565b6100ef610210565b610123610143366004611107565b61021a565b61015b6101563660046110ea565b61022c565b6040516100de919061114d565b6100ef61023d565b61012361017e366004611204565b610247565b6101236101913660046110ea565b610257565b6101236101a4366004611245565b610260565b6101236101b7366004611245565b61026e565b6100ef6101ca366004611271565b610278565b60006101da82610283565b92915050565b60006101ea610306565b905090565b60006101da82610388565b61020381610419565b50565b60006101ea610448565b60006101ea61049f565b61022684848484610533565b50505050565b610234611091565b6101da8261057f565b60006101ea610603565b610252838383610629565b505050565b6102038161089b565b61026a82826108c7565b5050565b61026a82826109a8565b60006101da826109e4565b60008061028e610baf565b805460405163042e02cf60e01b81529192506001600160a01b03169063042e02cf906102be90869060040161128a565b602060405180830381865afa1580156102db573d6000803e3d6000fd5b505050506040513d601f19601f820116820180604052508101906102ff919061129e565b9392505050565b600080610311610baf565b80546040516370a0823160e01b81529192506001600160a01b0316906370a082319061034190309060040161128a565b602060405180830381865afa15801561035e573d6000803e3d6000fd5b505050506040513d601f19601f8201168201806040525081019061038291906112c0565b91505090565b600080610393610baf565b6001810154604051632e12a4f760e11b81529192506001600160a01b031690635c2549ee906103c890309087906004016112d9565b602060405180830381865afa1580156103e5573d6000803e3d6000fd5b505050506040513d601f19601f82011682018060405250810190610409919061130f565b6001600160801b03169392505050565b6000610423610baf565b60010180546001600160a01b0319166001600160a01b03939093169290921790915550565b600080610453610baf565b805460408051637eb7113160e01b815290519293506001600160a01b0390911691637eb71131916004808201926020929091908290030181865afa15801561035e573d6000803e3d6000fd5b6000806104aa610baf565b80549091506001600160a01b031663d955759d6104c5610448565b6040518263ffffffff1660e01b81526004016104e391815260200190565b602060405180830381865afa158015610500573d6000803e3d6000fd5b505050506040513d601f19601f820116820180604052508101906105249190611341565b6001600160401b031691505090565b604080516080810182526001600160a01b03808716825285166020820152908101839052606081018290526000610576858761056e86611372565b600286610bd3565b50505050505050565b610587611091565b6000610591610baf565b8054604051631d9df61760e11b81529192506001600160a01b031690633b3bec2e906105c190869060040161128a565b61010060405180830381865afa1580156105df573d6000803e3d6000fd5b505050506040513d601f19601f820116820180604052508101906102ff91906113d8565b60008061060e610baf565b80549091506001600160a01b0316639fa83b5a6104c5610448565b6000610633610baf565b9050600061063f610ea8565b80546040516370a0823160e01b81529192506000916001600160a01b03888116926370a0823192610676929091169060040161128a565b602060405180830381865afa158015610693573d6000803e3d6000fd5b505050506040513d601f19601f820116820180604052508101906106b791906112c0565b8354604051630dd3126d60e21b81529192506000916001600160a01b039091169063374c49b4906106ec90309060040161128a565b602060405180830381865afa158015610709573d6000803e3d6000fd5b505050506040513d601f19601f8201168201806040525081019061072d91906112c0565b604080516080810182526001600160a01b03808a1682528a16602082015260009181018290526060810183905291925061076b898961056e86611372565b85546040516370a0823160e01b81529192506000916001600160a01b038c8116926370a08231926107a2929091169060040161128a565b602060405180830381865afa1580156107bf573d6000803e3d6000fd5b505050506040513d601f19601f820116820180604052508101906107e391906112c0565b6000898152600289016020526040902060010154909150610805908287610ecc565b60008881526002880160205260408120600101546108238784611484565b61082d9190611484565b60008a815260028a0160205260408120549192509061084d908390611484565b905061085881610f1a565b6108628c826109a8565b61088d6040518060400160405280600a8152602001695749544844524157212160b01b815250610f5f565b505050505050505050505050565b60006108a5610baf565b80546001600160a01b0319166001600160a01b03939093169290921790915550565b60006108d1610baf565b805460405163095ea7b360e01b81529192506001600160a01b038086169263095ea7b3926109059216908690600401611497565b6020604051808303816000875af1158015610924573d6000803e3d6000fd5b505050506040513d601f19601f82011682018060405250810190610948919061129e565b508054604051631e573fb760e31b81526001600160a01b039091169063f2b9fdb89061097a9086908690600401611497565b600060405180830381600087803b15801561099457600080fd5b505af1158015610576573d6000803e3d6000fd5b60006109b2610baf565b805460405163f3fef3a360e01b81529192506001600160a01b03169063f3fef3a39061097a9086908690600401611497565b6000806109ef610baf565b60008481526002820160205260408082206003015490516370a0823160e01b815292935090916001600160a01b03909116906370a0823190610a3590309060040161128a565b602060405180830381865afa158015610a52573d6000803e3d6000fd5b505050506040513d601f19601f82011682018060405250810190610a7691906112c0565b600085815260028401602052604090206003810154600490910154919250610aaa916001600160a01b039182169116610fa2565b600084815260028301602052604090206003810154600490910154610adc916001600160a01b03908116911686610629565b60008481526002830160205260408082206003015490516370a0823160e01b81526001600160a01b03909116906370a0823190610b1d90309060040161128a565b602060405180830381865afa158015610b3a573d6000803e3d6000fd5b505050506040513d601f19601f82011682018060405250810190610b5e91906112c0565b90506000610b6c8383611484565b6000878152600286016020526040902054909150610b8a9082610fe7565b6000868152600285016020526040902054610ba590826114b0565b9695505050505050565b7fe5fae1d1655caf6698b8b944506b14651a3f414f8a67caa7b6a42e32816e934090565b60606000610bdf610ea8565b90506000806000610bf08a8a61102e565b6001600160a01b038083166000908152600789016020908152604080832084861684528252808320815160a08101835281548616815260018201548087168286015262ffffff600160a01b82041682850152600160b81b9004600290810b60608084019190915292015490951660808601528151908101825287151581529182018f905295985093965091945092909190810186610cac57610ca7600173fffd8963efd1fc6a506488495d951d5263988d266114d0565b610cbc565b610cbc6401000276a360016114f0565b6001600160a01b03168152509050808660010160008860040154815260200190815260200160002060008201518160000160006101000a81548160ff0219169083151502179055506020820151816001015560408201518160020160006101000a8154816001600160a01b0302191690836001600160a01b03160217905550905050878660030160008860040154815260200190815260200160002060008201518160000160006101000a8154816001600160a01b0302191690836001600160a01b0316021790555060208201518160010160006101000a8154816001600160a01b0302191690836001600160a01b03160217905550604082015181600201556060820151816003015590505060008660000160009054906101000a90046001600160a01b03166001600160a01b0316638154831933858d8b60040154604051602001610e0c9493929190611510565b6040516020818303038152906040526040518263ffffffff1660e01b8152600401610e3791906115e3565b6000604051808303816000875af1158015610e56573d6000803e3d6000fd5b505050506040513d6000823e601f3d908101601f19168201604052610e7e91908101906115f6565b6004880180549192506000610e92836116a2565b90915550909d9c50505050505050505050505050565b7f35c2975ab7d5366802ce2593b15dfef7ba0fb48f04ca0c021c862e3ccd408ea590565b6040516024810184905260448101839052606481018290526102529060840160408051601f198184030181529190526020810180516001600160e01b031663347b5e8f60e21b17905261106c565b61020381604051602401610f3091815260200190565b60408051601f198184030181529190526020810180516001600160e01b031663f82c50f160e01b17905261106c565b61020381604051602401610f7391906115e3565b60408051601f198184030181529190526020810180516001600160e01b031663104c13eb60e21b17905261106c565b61026a8282604051602401610fb89291906112d9565b60408051601f198184030181529190526020810180516001600160e01b0316636d786a5560e11b17905261106c565b604051602481018390526044810182905261026a9060640160408051601f198184030181529190526020810180516001600160e01b0316637b3338ad60e11b17905261106c565b6000806000836001600160a01b0316856001600160a01b0316101561105b57506001915083905082611065565b5060009150829050835b9250925092565b6102038160006a636f6e736f6c652e6c6f679050600080835160208501845afa505050565b6040805161010081018252600080825260208201819052918101829052606081018290526080810182905260a0810182905260c0810182905260e081019190915290565b6001600160a01b038116811461020357600080fd5b6000602082840312156110fc57600080fd5b81356102ff816110d5565b6000806000806080858703121561111d57600080fd5b8435611128816110d5565b93506020850135611138816110d5565b93969395505050506040820135916060013590565b815160ff1681526020808301516001600160a01b0390811691830191909152604080840151909116908201526060808301516001600160401b0316908201526080808301516101008301916111ac908401826001600160401b03169052565b5060a08301516111c760a08401826001600160401b03169052565b5060c08301516111e260c08401826001600160401b03169052565b5060e08301516111fd60e08401826001600160801b03169052565b5092915050565b60008060006060848603121561121957600080fd5b8335611224816110d5565b92506020840135611234816110d5565b929592945050506040919091013590565b6000806040838503121561125857600080fd5b8235611263816110d5565b946020939093013593505050565b60006020828403121561128357600080fd5b5035919050565b6001600160a01b0391909116815260200190565b6000602082840312156112b057600080fd5b815180151581146102ff57600080fd5b6000602082840312156112d257600080fd5b5051919050565b6001600160a01b0392831681529116602082015260400190565b80516001600160801b038116811461130a57600080fd5b919050565b60006020828403121561132157600080fd5b6102ff826112f3565b80516001600160401b038116811461130a57600080fd5b60006020828403121561135357600080fd5b6102ff8261132a565b634e487b7160e01b600052601160045260246000fd5b6000600160ff1b82016113875761138761135c565b5060000390565b634e487b7160e01b600052604160045260246000fd5b60405161010081016001600160401b03811182821017156113c7576113c761138e565b60405290565b805161130a816110d5565b600061010082840312156113eb57600080fd5b6113f36113a4565b825160ff8116811461140457600080fd5b8152611412602084016113cd565b6020820152611423604084016113cd565b60408201526114346060840161132a565b60608201526114456080840161132a565b608082015261145660a0840161132a565b60a082015261146760c0840161132a565b60c082015261147860e084016112f3565b60e08201529392505050565b818103818111156101da576101da61135c565b6001600160a01b03929092168252602082015260400190565b81810360008312801583831316838312821617156111fd576111fd61135c565b6001600160a01b038281168282160390808211156111fd576111fd61135c565b6001600160a01b038181168382160190808211156111fd576111fd61135c565b60006101008201905060018060a01b03808716835280865116602084015280602087015116604084015262ffffff6040870151166060840152606086015160020b60808401528060808701511660a0840152506004841061158157634e487b7160e01b600052602160045260246000fd5b60c082019390935260e0015292915050565b60005b838110156115ae578181015183820152602001611596565b50506000910152565b600081518084526115cf816020860160208601611593565b601f01601f19169290920160200192915050565b6020815260006102ff60208301846115b7565b60006020828403121561160857600080fd5b81516001600160401b038082111561161f57600080fd5b818401915084601f83011261163357600080fd5b8151818111156116455761164561138e565b604051601f8201601f19908116603f0116810190838211818310171561166d5761166d61138e565b8160405282815287602084870101111561168657600080fd5b611697836020830160208801611593565b979650505050505050565b6000600182016116b4576116b461135c565b506001019056fea2646970667358221220de337fc4ab7576470eb9bec4edff1e1ffeab0c898bd7f12aaba9d3e28406467364736f6c63430008140033",
  "linkReferences": {},
  "deployedLinkReferences": {}
}