{
  "_format": "hh-sol-artifact-1",
  "contractName": "LeverageFacet",
  "sourceName": "contracts/Facets/LeverageFacet.sol",
  "abi": [
    {
      "inputs": [
        {
          "internalType": "uint256",
          "name": "id",
          "type": "uint256"
        }
      ],
      "name": "closePosition",
      "outputs": [],
      "stateMutability": "nonpayable",
      "type": "function"
    },
    {
      "inputs": [
        {
          "internalType": "address",
          "name": "asset",
          "type": "address"
        }
      ],
      "name": "getAssetInfo",
      "outputs": [
        {
          "components": [
            {
              "internalType": "uint8",
              "name": "offset",
              "type": "uint8"
            },
            {
              "internalType": "address",
              "name": "asset",
              "type": "address"
            },
            {
              "internalType": "address",
              "name": "priceFeed",
              "type": "address"
            },
            {
              "internalType": "uint64",
              "name": "scale",
              "type": "uint64"
            },
            {
              "internalType": "uint64",
              "name": "borrowCollateralFactor",
              "type": "uint64"
            },
            {
              "internalType": "uint64",
              "name": "liquidateCollateralFactor",
              "type": "uint64"
            },
            {
              "internalType": "uint64",
              "name": "liquidationFactor",
              "type": "uint64"
            },
            {
              "internalType": "uint128",
              "name": "supplyCap",
              "type": "uint128"
            }
          ],
          "internalType": "struct CometCore.AssetInfo",
          "name": "",
          "type": "tuple"
        }
      ],
      "stateMutability": "view",
      "type": "function"
    },
    {
      "inputs": [],
      "name": "getBalance",
      "outputs": [
        {
          "internalType": "uint256",
          "name": "",
          "type": "uint256"
        }
      ],
      "stateMutability": "view",
      "type": "function"
    },
    {
      "inputs": [],
      "name": "getBorrowRate",
      "outputs": [
        {
          "internalType": "uint256",
          "name": "",
          "type": "uint256"
        }
      ],
      "stateMutability": "view",
      "type": "function"
    },
    {
      "inputs": [
        {
          "internalType": "address",
          "name": "asset",
          "type": "address"
        }
      ],
      "name": "getCollateralBalance",
      "outputs": [
        {
          "internalType": "uint256",
          "name": "",
          "type": "uint256"
        }
      ],
      "stateMutability": "view",
      "type": "function"
    },
    {
      "inputs": [],
      "name": "getSupplyRate",
      "outputs": [
        {
          "internalType": "uint256",
          "name": "",
          "type": "uint256"
        }
      ],
      "stateMutability": "view",
      "type": "function"
    },
    {
      "inputs": [],
      "name": "getUtilization",
      "outputs": [
        {
          "internalType": "uint256",
          "name": "",
          "type": "uint256"
        }
      ],
      "stateMutability": "view",
      "type": "function"
    },
    {
      "inputs": [
        {
          "internalType": "address",
          "name": "account",
          "type": "address"
        }
      ],
      "name": "isLiquidatable",
      "outputs": [
        {
          "internalType": "bool",
          "name": "",
          "type": "bool"
        }
      ],
      "stateMutability": "view",
      "type": "function"
    },
    {
      "inputs": [
        {
          "internalType": "address",
          "name": "collateral",
          "type": "address"
        },
        {
          "internalType": "address",
          "name": "providedToken",
          "type": "address"
        },
        {
          "internalType": "uint256",
          "name": "userAmount",
          "type": "uint256"
        },
        {
          "internalType": "uint256",
          "name": "swapAmount",
          "type": "uint256"
        }
      ],
      "name": "leverageUp",
      "outputs": [
        {
          "internalType": "uint256",
          "name": "",
          "type": "uint256"
        }
      ],
      "stateMutability": "nonpayable",
      "type": "function"
    },
    {
      "inputs": [
        {
          "internalType": "uint256",
          "name": "positionId",
          "type": "uint256"
        }
      ],
      "name": "returnProfit",
      "outputs": [
        {
          "internalType": "int256",
          "name": "",
          "type": "int256"
        }
      ],
      "stateMutability": "nonpayable",
      "type": "function"
    },
    {
      "inputs": [
        {
          "internalType": "address",
          "name": "cometAddy",
          "type": "address"
        }
      ],
      "name": "setComet",
      "outputs": [],
      "stateMutability": "nonpayable",
      "type": "function"
    },
    {
      "inputs": [
        {
          "internalType": "address",
          "name": "cometDataAddy",
          "type": "address"
        }
      ],
      "name": "setCometData",
      "outputs": [],
      "stateMutability": "nonpayable",
      "type": "function"
    },
    {
      "inputs": [
        {
          "internalType": "address",
          "name": "asset",
          "type": "address"
        },
        {
          "internalType": "uint256",
          "name": "amount",
          "type": "uint256"
        }
      ],
      "name": "supply",
      "outputs": [],
      "stateMutability": "nonpayable",
      "type": "function"
    },
    {
      "inputs": [
        {
          "internalType": "address",
          "name": "asset",
          "type": "address"
        },
        {
          "internalType": "uint256",
          "name": "amount",
          "type": "uint256"
        }
      ],
      "name": "withdraw",
      "outputs": [],
      "stateMutability": "nonpayable",
      "type": "function"
    }
  ],
  "bytecode": "0x608060405234801561001057600080fd5b506116df806100206000396000f3fe608060405234801561001057600080fd5b50600436106100ba5760003560e01c8063042e02cf146100bf57806312065fe0146100e75780632703ee85146100fd57806351ea5a2d146101105780637eb711311461012557806384bdc9a81461012d578063908199cf14610135578063a126d60114610148578063afad2e161461015b578063ba1c5e801461017b578063d9b3bba814610183578063f2b9fdb814610196578063f3fef3a3146101a9578063f5f0b9ec146101bc575b600080fd5b6100d26100cd366004611119565b6101cf565b60405190151581526020015b60405180910390f35b6100ef6101e0565b6040519081526020016100de565b6100ef61010b366004611119565b6101ef565b61012361011e366004611119565b6101fa565b005b6100ef610206565b6100ef610210565b6100ef610143366004611136565b61021a565b61012361015636600461117c565b610231565b61016e610169366004611119565b61023a565b6040516100de9190611195565b6100ef61024b565b610123610191366004611119565b610255565b6101236101a436600461124c565b61025e565b6101236101b736600461124c565b61026c565b6100ef6101ca36600461117c565b610276565b60006101da82610281565b92915050565b60006101ea610304565b905090565b60006101da82610386565b61020381610417565b50565b60006101ea610446565b60006101ea61049d565b600061022885858585610531565b95945050505050565b610203816105a1565b6102426110c0565b6101da8261083b565b60006101ea6108bf565b610203816108e5565b6102688282610911565b5050565b61026882826109fb565b60006101da82610a37565b60008061028c610bd9565b805460405163042e02cf60e01b81529192506001600160a01b03169063042e02cf906102bc908690600401611278565b602060405180830381865afa1580156102d9573d6000803e3d6000fd5b505050506040513d601f19601f820116820180604052508101906102fd919061128c565b9392505050565b60008061030f610bd9565b80546040516370a0823160e01b81529192506001600160a01b0316906370a082319061033f903090600401611278565b602060405180830381865afa15801561035c573d6000803e3d6000fd5b505050506040513d601f19601f8201168201806040525081019061038091906112ae565b91505090565b600080610391610bd9565b6001810154604051632e12a4f760e11b81529192506001600160a01b031690635c2549ee906103c690309087906004016112c7565b602060405180830381865afa1580156103e3573d6000803e3d6000fd5b505050506040513d601f19601f8201168201806040525081019061040791906112fd565b6001600160801b03169392505050565b6000610421610bd9565b60010180546001600160a01b0319166001600160a01b03939093169290921790915550565b600080610451610bd9565b805460408051637eb7113160e01b815290519293506001600160a01b0390911691637eb71131916004808201926020929091908290030181865afa15801561035c573d6000803e3d6000fd5b6000806104a8610bd9565b80549091506001600160a01b031663d955759d6104c3610446565b6040518263ffffffff1660e01b81526004016104e191815260200190565b602060405180830381865afa1580156104fe573d6000803e3d6000fd5b505050506040513d601f19601f82011682018060405250810190610522919061132f565b6001600160401b031691505090565b60008061053c610bd9565b604080516080810182526001600160a01b03808a16825288166020820152908101869052606081018590529091506000610582878961057a88611360565b600286610bfd565b905060018360030154610595919061137c565b98975050505050505050565b60006105ab610bd9565b6000838152600282016020526040812060038101546004909101549293506001600160a01b039081169216906105df610ed2565b80546040516370a0823160e01b81529192506000916001600160a01b03868116926370a08231926106169290911690600401611278565b602060405180830381865afa158015610633573d6000803e3d6000fd5b505050506040513d601f19601f8201168201806040525081019061065791906112ae565b8554604051630dd3126d60e21b81529192506000916001600160a01b039091169063374c49b49061068c903090600401611278565b602060405180830381865afa1580156106a9573d6000803e3d6000fd5b505050506040513d601f19601f820116820180604052508101906106cd91906112ae565b604080516080810182526001600160a01b0380881682528816602082015260009181018290526060810183905291925061070b878761057a86611360565b85546040516370a0823160e01b81529192506000916001600160a01b038a8116926370a08231926107429290911690600401611278565b602060405180830381865afa15801561075f573d6000803e3d6000fd5b505050506040513d601f19601f8201168201806040525081019061078391906112ae565b60008b815260028b0160205260409020600101549091506107a5908287610ef6565b60008a815260028a0160205260408120600101546107c3878461137c565b6107cd919061137c565b60008c815260028c016020526040812054919250906107ed90839061137c565b90506107f881610f49565b6108028a826109fb565b61082d6040518060400160405280600a8152602001695749544844524157212160b01b815250610f8e565b505050505050505050505050565b6108436110c0565b600061084d610bd9565b8054604051631d9df61760e11b81529192506001600160a01b031690633b3bec2e9061087d908690600401611278565b61010060405180830381865afa15801561089b573d6000803e3d6000fd5b505050506040513d601f19601f820116820180604052508101906102fd91906113d9565b6000806108ca610bd9565b80549091506001600160a01b0316639fa83b5a6104c3610446565b60006108ef610bd9565b80546001600160a01b0319166001600160a01b03939093169290921790915550565b600061091b610bd9565b805460405163095ea7b360e01b81529192506001600160a01b038086169263095ea7b39261094f9216908690600401611485565b6020604051808303816000875af115801561096e573d6000803e3d6000fd5b505050506040513d601f19601f82011682018060405250810190610992919061128c565b508054604051631e573fb760e31b81526001600160a01b039091169063f2b9fdb8906109c49086908690600401611485565b600060405180830381600087803b1580156109de57600080fd5b505af11580156109f2573d6000803e3d6000fd5b50505050505050565b6000610a05610bd9565b805460405163f3fef3a360e01b81529192506001600160a01b03169063f3fef3a3906109c49086908690600401611485565b600080610a42610bd9565b60008481526002820160205260408082206003015490516370a0823160e01b815292935090916001600160a01b03909116906370a0823190610a88903090600401611278565b602060405180830381865afa158015610aa5573d6000803e3d6000fd5b505050506040513d601f19601f82011682018060405250810190610ac991906112ae565b600085815260028401602052604090206003810154600490910154919250610afd916001600160a01b039182169116610fd1565b610b06846105a1565b60008481526002830160205260408082206003015490516370a0823160e01b81526001600160a01b03909116906370a0823190610b47903090600401611278565b602060405180830381865afa158015610b64573d6000803e3d6000fd5b505050506040513d601f19601f82011682018060405250810190610b8891906112ae565b90506000610b96838361137c565b6000878152600286016020526040902054909150610bb49082611016565b6000868152600285016020526040902054610bcf908261149e565b9695505050505050565b7fe5fae1d1655caf6698b8b944506b14651a3f414f8a67caa7b6a42e32816e934090565b60606000610c09610ed2565b90506000806000610c1a8a8a61105d565b6001600160a01b038083166000908152600789016020908152604080832084861684528252808320815160a08101835281548616815260018201548087168286015262ffffff600160a01b82041682850152600160b81b9004600290810b60608084019190915292015490951660808601528151908101825287151581529182018f905295985093965091945092909190810186610cd657610cd1600173fffd8963efd1fc6a506488495d951d5263988d266114be565b610ce6565b610ce66401000276a360016114de565b6001600160a01b03168152509050808660010160008860040154815260200190815260200160002060008201518160000160006101000a81548160ff0219169083151502179055506020820151816001015560408201518160020160006101000a8154816001600160a01b0302191690836001600160a01b03160217905550905050878660030160008860040154815260200190815260200160002060008201518160000160006101000a8154816001600160a01b0302191690836001600160a01b0316021790555060208201518160010160006101000a8154816001600160a01b0302191690836001600160a01b03160217905550604082015181600201556060820151816003015590505060008660000160009054906101000a90046001600160a01b03166001600160a01b0316638154831933858d8b60040154604051602001610e3694939291906114fe565b6040516020818303038152906040526040518263ffffffff1660e01b8152600401610e6191906115d1565b6000604051808303816000875af1158015610e80573d6000803e3d6000fd5b505050506040513d6000823e601f3d908101601f19168201604052610ea891908101906115e4565b6004880180549192506000610ebc83611690565b90915550909d9c50505050505050505050505050565b7f35c2975ab7d5366802ce2593b15dfef7ba0fb48f04ca0c021c862e3ccd408ea590565b604051602481018490526044810183905260648101829052610f449060840160408051601f198184030181529190526020810180516001600160e01b031663347b5e8f60e21b17905261109b565b505050565b61020381604051602401610f5f91815260200190565b60408051601f198184030181529190526020810180516001600160e01b031663f82c50f160e01b17905261109b565b61020381604051602401610fa291906115d1565b60408051601f198184030181529190526020810180516001600160e01b031663104c13eb60e21b17905261109b565b6102688282604051602401610fe79291906112c7565b60408051601f198184030181529190526020810180516001600160e01b0316636d786a5560e11b17905261109b565b60405160248101839052604481018290526102689060640160408051601f198184030181529190526020810180516001600160e01b0316637b3338ad60e11b17905261109b565b6000806000836001600160a01b0316856001600160a01b0316101561108a57506001915083905082611094565b5060009150829050835b9250925092565b6102038160006a636f6e736f6c652e6c6f679050600080835160208501845afa505050565b6040805161010081018252600080825260208201819052918101829052606081018290526080810182905260a0810182905260c0810182905260e081019190915290565b6001600160a01b038116811461020357600080fd5b60006020828403121561112b57600080fd5b81356102fd81611104565b6000806000806080858703121561114c57600080fd5b843561115781611104565b9350602085013561116781611104565b93969395505050506040820135916060013590565b60006020828403121561118e57600080fd5b5035919050565b815160ff1681526020808301516001600160a01b0390811691830191909152604080840151909116908201526060808301516001600160401b0316908201526080808301516101008301916111f4908401826001600160401b03169052565b5060a083015161120f60a08401826001600160401b03169052565b5060c083015161122a60c08401826001600160401b03169052565b5060e083015161124560e08401826001600160801b03169052565b5092915050565b6000806040838503121561125f57600080fd5b823561126a81611104565b946020939093013593505050565b6001600160a01b0391909116815260200190565b60006020828403121561129e57600080fd5b815180151581146102fd57600080fd5b6000602082840312156112c057600080fd5b5051919050565b6001600160a01b0392831681529116602082015260400190565b80516001600160801b03811681146112f857600080fd5b919050565b60006020828403121561130f57600080fd5b6102fd826112e1565b80516001600160401b03811681146112f857600080fd5b60006020828403121561134157600080fd5b6102fd82611318565b634e487b7160e01b600052601160045260246000fd5b6000600160ff1b82016113755761137561134a565b5060000390565b818103818111156101da576101da61134a565b634e487b7160e01b600052604160045260246000fd5b60405161010081016001600160401b03811182821017156113c8576113c861138f565b60405290565b80516112f881611104565b600061010082840312156113ec57600080fd5b6113f46113a5565b825160ff8116811461140557600080fd5b8152611413602084016113ce565b6020820152611424604084016113ce565b604082015261143560608401611318565b606082015261144660808401611318565b608082015261145760a08401611318565b60a082015261146860c08401611318565b60c082015261147960e084016112e1565b60e08201529392505050565b6001600160a01b03929092168252602082015260400190565b81810360008312801583831316838312821617156112455761124561134a565b6001600160a01b038281168282160390808211156112455761124561134a565b6001600160a01b038181168382160190808211156112455761124561134a565b60006101008201905060018060a01b03808716835280865116602084015280602087015116604084015262ffffff6040870151166060840152606086015160020b60808401528060808701511660a0840152506004841061156f57634e487b7160e01b600052602160045260246000fd5b60c082019390935260e0015292915050565b60005b8381101561159c578181015183820152602001611584565b50506000910152565b600081518084526115bd816020860160208601611581565b601f01601f19169290920160200192915050565b6020815260006102fd60208301846115a5565b6000602082840312156115f657600080fd5b81516001600160401b038082111561160d57600080fd5b818401915084601f83011261162157600080fd5b8151818111156116335761163361138f565b604051601f8201601f19908116603f0116810190838211818310171561165b5761165b61138f565b8160405282815287602084870101111561167457600080fd5b611685836020830160208801611581565b979650505050505050565b6000600182016116a2576116a261134a565b506001019056fea2646970667358221220042d9675b0aa38147708bd2215913bbc21fd21510f13a5bf67c1954de2c7323e64736f6c63430008140033",
  "linkReferences": {},
  "deployedLinkReferences": {}
}