{
  "_format": "hh-sol-artifact-1",
  "contractName": "LeverageFacet",
  "sourceName": "contracts/Facets/LeverageFacet.sol",
  "abi": [
    {
      "inputs": [
        {
          "internalType": "address",
          "name": "asset",
          "type": "address"
        }
      ],
      "name": "getAssetInfo",
      "outputs": [
        {
          "components": [
            {
              "internalType": "uint8",
              "name": "offset",
              "type": "uint8"
            },
            {
              "internalType": "address",
              "name": "asset",
              "type": "address"
            },
            {
              "internalType": "address",
              "name": "priceFeed",
              "type": "address"
            },
            {
              "internalType": "uint64",
              "name": "scale",
              "type": "uint64"
            },
            {
              "internalType": "uint64",
              "name": "borrowCollateralFactor",
              "type": "uint64"
            },
            {
              "internalType": "uint64",
              "name": "liquidateCollateralFactor",
              "type": "uint64"
            },
            {
              "internalType": "uint64",
              "name": "liquidationFactor",
              "type": "uint64"
            },
            {
              "internalType": "uint128",
              "name": "supplyCap",
              "type": "uint128"
            }
          ],
          "internalType": "struct CometCore.AssetInfo",
          "name": "",
          "type": "tuple"
        }
      ],
      "stateMutability": "view",
      "type": "function"
    },
    {
      "inputs": [],
      "name": "getBalance",
      "outputs": [
        {
          "internalType": "uint256",
          "name": "",
          "type": "uint256"
        }
      ],
      "stateMutability": "view",
      "type": "function"
    },
    {
      "inputs": [],
      "name": "getBorrowRate",
      "outputs": [
        {
          "internalType": "uint256",
          "name": "",
          "type": "uint256"
        }
      ],
      "stateMutability": "view",
      "type": "function"
    },
    {
      "inputs": [
        {
          "internalType": "address",
          "name": "asset",
          "type": "address"
        }
      ],
      "name": "getCollateralBalance",
      "outputs": [
        {
          "internalType": "uint256",
          "name": "",
          "type": "uint256"
        }
      ],
      "stateMutability": "view",
      "type": "function"
    },
    {
      "inputs": [],
      "name": "getSupplyRate",
      "outputs": [
        {
          "internalType": "uint256",
          "name": "",
          "type": "uint256"
        }
      ],
      "stateMutability": "view",
      "type": "function"
    },
    {
      "inputs": [],
      "name": "getUtilization",
      "outputs": [
        {
          "internalType": "uint256",
          "name": "",
          "type": "uint256"
        }
      ],
      "stateMutability": "view",
      "type": "function"
    },
    {
      "inputs": [
        {
          "internalType": "address",
          "name": "account",
          "type": "address"
        }
      ],
      "name": "isLiquidatable",
      "outputs": [
        {
          "internalType": "bool",
          "name": "",
          "type": "bool"
        }
      ],
      "stateMutability": "view",
      "type": "function"
    },
    {
      "inputs": [
        {
          "internalType": "address",
          "name": "collateral",
          "type": "address"
        },
        {
          "internalType": "address",
          "name": "providedToken",
          "type": "address"
        },
        {
          "internalType": "uint256",
          "name": "userAmount",
          "type": "uint256"
        },
        {
          "internalType": "uint256",
          "name": "swapAmount",
          "type": "uint256"
        }
      ],
      "name": "leverageUp",
      "outputs": [],
      "stateMutability": "nonpayable",
      "type": "function"
    },
    {
      "inputs": [
        {
          "internalType": "address",
          "name": "cometAddy",
          "type": "address"
        }
      ],
      "name": "setComet",
      "outputs": [],
      "stateMutability": "nonpayable",
      "type": "function"
    },
    {
      "inputs": [
        {
          "internalType": "address",
          "name": "cometDataAddy",
          "type": "address"
        }
      ],
      "name": "setCometData",
      "outputs": [],
      "stateMutability": "nonpayable",
      "type": "function"
    },
    {
      "inputs": [
        {
          "internalType": "address",
          "name": "asset",
          "type": "address"
        },
        {
          "internalType": "uint256",
          "name": "amount",
          "type": "uint256"
        }
      ],
      "name": "supply",
      "outputs": [],
      "stateMutability": "nonpayable",
      "type": "function"
    },
    {
      "inputs": [
        {
          "internalType": "address",
          "name": "asset",
          "type": "address"
        },
        {
          "internalType": "uint256",
          "name": "amount",
          "type": "uint256"
        }
      ],
      "name": "withdraw",
      "outputs": [],
      "stateMutability": "nonpayable",
      "type": "function"
    }
  ],
  "bytecode": "0x608060405234801561001057600080fd5b50611013806100206000396000f3fe608060405234801561001057600080fd5b50600436106100a45760003560e01c8063042e02cf146100a957806312065fe0146100d15780632703ee85146100e757806351ea5a2d146100fa5780637eb711311461010f57806384bdc9a814610117578063908199cf1461011f578063afad2e1614610132578063ba1c5e8014610152578063d9b3bba81461015a578063f2b9fdb81461016d578063f3fef3a314610180575b600080fd5b6100bc6100b7366004610abf565b610193565b60405190151581526020015b60405180910390f35b6100d96101a4565b6040519081526020016100c8565b6100d96100f5366004610abf565b6101b3565b61010d610108366004610abf565b6101be565b005b6100d96101ca565b6100d96101d4565b61010d61012d366004610adc565b6101de565b610145610140366004610abf565b6101f0565b6040516100c89190610b22565b6100d9610201565b61010d610168366004610abf565b61020b565b61010d61017b366004610bd9565b610214565b61010d61018e366004610bd9565b610222565b600061019e8261022c565b92915050565b60006101ae6102af565b905090565b600061019e82610331565b6101c7816103c4565b50565b60006101ae6103f3565b60006101ae61044a565b6101ea848484846104de565b50505050565b6101f8610a66565b61019e82610528565b60006101ae6105ac565b6101c7816105d2565b61021e82826105fe565b5050565b61021e82826106df565b60008061023761071b565b805460405163042e02cf60e01b81529192506001600160a01b03169063042e02cf90610267908690600401610c05565b602060405180830381865afa158015610284573d6000803e3d6000fd5b505050506040513d601f19601f820116820180604052508101906102a89190610c19565b9392505050565b6000806102ba61071b565b80546040516370a0823160e01b81529192506001600160a01b0316906370a08231906102ea903090600401610c05565b602060405180830381865afa158015610307573d6000803e3d6000fd5b505050506040513d601f19601f8201168201806040525081019061032b9190610c3b565b91505090565b60008061033c61071b565b6001810154604051632e12a4f760e11b81523060048201526001600160a01b038681166024830152929350911690635c2549ee90604401602060405180830381865afa158015610390573d6000803e3d6000fd5b505050506040513d601f19601f820116820180604052508101906103b49190610c70565b6001600160801b03169392505050565b60006103ce61071b565b60010180546001600160a01b0319166001600160a01b03939093169290921790915550565b6000806103fe61071b565b805460408051637eb7113160e01b815290519293506001600160a01b0390911691637eb71131916004808201926020929091908290030181865afa158015610307573d6000803e3d6000fd5b60008061045561071b565b80549091506001600160a01b031663d955759d6104706103f3565b6040518263ffffffff1660e01b815260040161048e91815260200190565b602060405180830381865afa1580156104ab573d6000803e3d6000fd5b505050506040513d601f19601f820116820180604052508101906104cf9190610ca2565b6001600160401b031691505090565b604080516080810182526001600160a01b0380871682528516602082015290810183905260608101829052600061051f858761051986610cd3565b8561073f565b50505050505050565b610530610a66565b600061053a61071b565b8054604051631d9df61760e11b81529192506001600160a01b031690633b3bec2e9061056a908690600401610c05565b61010060405180830381865afa158015610588573d6000803e3d6000fd5b505050506040513d601f19601f820116820180604052508101906102a89190610d39565b6000806105b761071b565b80549091506001600160a01b0316639fa83b5a6104706103f3565b60006105dc61071b565b80546001600160a01b0319166001600160a01b03939093169290921790915550565b600061060861071b565b805460405163095ea7b360e01b81529192506001600160a01b038086169263095ea7b39261063c9216908690600401610de5565b6020604051808303816000875af115801561065b573d6000803e3d6000fd5b505050506040513d601f19601f8201168201806040525081019061067f9190610c19565b508054604051631e573fb760e31b81526001600160a01b039091169063f2b9fdb8906106b19086908690600401610de5565b600060405180830381600087803b1580156106cb57600080fd5b505af115801561051f573d6000803e3d6000fd5b60006106e961071b565b805460405163f3fef3a360e01b81529192506001600160a01b03169063f3fef3a3906106b19086908690600401610de5565b7fe5fae1d1655caf6698b8b944506b14651a3f414f8a67caa7b6a42e32816e934090565b60607f35c2975ab7d5366802ce2593b15dfef7ba0fb48f04ca0c021c862e3ccd408ea5600080806107708989610a28565b6001600160a01b038083166000908152600789016020908152604080832084861684528252808320815160a08101835281548616815260018201548087168286015262ffffff600160a01b82041682850152600160b81b9004600290810b60608084019190915292015490951660808601528151908101825287151581529182018e90529598509396509194509290919081018661082c57610827600173fffd8963efd1fc6a506488495d951d5263988d26610dfe565b61083c565b61083c6401000276a36001610e1e565b6001600160a01b03168152509050808660010160008860040154815260200190815260200160002060008201518160000160006101000a81548160ff0219169083151502179055506020820151816001015560408201518160020160006101000a8154816001600160a01b0302191690836001600160a01b03160217905550905050878660030160008860040154815260200190815260200160002060008201518160000160006101000a8154816001600160a01b0302191690836001600160a01b0316021790555060208201518160010160006101000a8154816001600160a01b0302191690836001600160a01b03160217905550604082015181600201556060820151816003015590505060008660000160009054906101000a90046001600160a01b03166001600160a01b03166381548319338560028b6004015460405160200161098d9493929190610e3e565b6040516020818303038152906040526040518263ffffffff1660e01b81526004016109b89190610ee5565b6000604051808303816000875af11580156109d7573d6000803e3d6000fd5b505050506040513d6000823e601f3d908101601f191682016040526109ff9190810190610f18565b6004880180549192506000610a1383610fc4565b90915550909c9b505050505050505050505050565b6000806000836001600160a01b0316856001600160a01b03161015610a5557506001915083905082610a5f565b5060009150829050835b9250925092565b6040805161010081018252600080825260208201819052918101829052606081018290526080810182905260a0810182905260c0810182905260e081019190915290565b6001600160a01b03811681146101c757600080fd5b600060208284031215610ad157600080fd5b81356102a881610aaa565b60008060008060808587031215610af257600080fd5b8435610afd81610aaa565b93506020850135610b0d81610aaa565b93969395505050506040820135916060013590565b815160ff1681526020808301516001600160a01b0390811691830191909152604080840151909116908201526060808301516001600160401b031690820152608080830151610100830191610b81908401826001600160401b03169052565b5060a0830151610b9c60a08401826001600160401b03169052565b5060c0830151610bb760c08401826001600160401b03169052565b5060e0830151610bd260e08401826001600160801b03169052565b5092915050565b60008060408385031215610bec57600080fd5b8235610bf781610aaa565b946020939093013593505050565b6001600160a01b0391909116815260200190565b600060208284031215610c2b57600080fd5b815180151581146102a857600080fd5b600060208284031215610c4d57600080fd5b5051919050565b80516001600160801b0381168114610c6b57600080fd5b919050565b600060208284031215610c8257600080fd5b6102a882610c54565b80516001600160401b0381168114610c6b57600080fd5b600060208284031215610cb457600080fd5b6102a882610c8b565b634e487b7160e01b600052601160045260246000fd5b6000600160ff1b8201610ce857610ce8610cbd565b5060000390565b634e487b7160e01b600052604160045260246000fd5b60405161010081016001600160401b0381118282101715610d2857610d28610cef565b60405290565b8051610c6b81610aaa565b60006101008284031215610d4c57600080fd5b610d54610d05565b825160ff81168114610d6557600080fd5b8152610d7360208401610d2e565b6020820152610d8460408401610d2e565b6040820152610d9560608401610c8b565b6060820152610da660808401610c8b565b6080820152610db760a08401610c8b565b60a0820152610dc860c08401610c8b565b60c0820152610dd960e08401610c54565b60e08201529392505050565b6001600160a01b03929092168252602082015260400190565b6001600160a01b03828116828216039080821115610bd257610bd2610cbd565b6001600160a01b03818116838216019080821115610bd257610bd2610cbd565b60006101008201905060018060a01b03808716835280865116602084015280602087015116604084015262ffffff6040870151166060840152606086015160020b60808401528060808701511660a08401525060038410610eaf57634e487b7160e01b600052602160045260246000fd5b60c082019390935260e0015292915050565b60005b83811015610edc578181015183820152602001610ec4565b50506000910152565b6020815260008251806020840152610f04816040850160208701610ec1565b601f01601f19169190910160400192915050565b600060208284031215610f2a57600080fd5b81516001600160401b0380821115610f4157600080fd5b818401915084601f830112610f5557600080fd5b815181811115610f6757610f67610cef565b604051601f8201601f19908116603f01168101908382118183101715610f8f57610f8f610cef565b81604052828152876020848701011115610fa857600080fd5b610fb9836020830160208801610ec1565b979650505050505050565b600060018201610fd657610fd6610cbd565b506001019056fea2646970667358221220cd2d946b7343bdeb8eecc73819e61d8fff392c5b17d43b68e61e9158601710d764736f6c63430008140033",
  "linkReferences": {},
  "deployedLinkReferences": {}
}