{
  "_format": "hh-sol-artifact-1",
  "contractName": "LeverageFacet",
  "sourceName": "contracts/Facets/LeverageFacet.sol",
  "abi": [
    {
      "inputs": [
        {
          "internalType": "uint256[]",
          "name": "nums",
          "type": "uint256[]"
        }
      ],
      "name": "closePosition",
      "outputs": [],
      "stateMutability": "nonpayable",
      "type": "function"
    },
    {
      "inputs": [
        {
          "internalType": "address",
          "name": "asset",
          "type": "address"
        }
      ],
      "name": "getAssetInfo",
      "outputs": [
        {
          "components": [
            {
              "internalType": "uint8",
              "name": "offset",
              "type": "uint8"
            },
            {
              "internalType": "address",
              "name": "asset",
              "type": "address"
            },
            {
              "internalType": "address",
              "name": "priceFeed",
              "type": "address"
            },
            {
              "internalType": "uint64",
              "name": "scale",
              "type": "uint64"
            },
            {
              "internalType": "uint64",
              "name": "borrowCollateralFactor",
              "type": "uint64"
            },
            {
              "internalType": "uint64",
              "name": "liquidateCollateralFactor",
              "type": "uint64"
            },
            {
              "internalType": "uint64",
              "name": "liquidationFactor",
              "type": "uint64"
            },
            {
              "internalType": "uint128",
              "name": "supplyCap",
              "type": "uint128"
            }
          ],
          "internalType": "struct CometCore.AssetInfo",
          "name": "",
          "type": "tuple"
        }
      ],
      "stateMutability": "view",
      "type": "function"
    },
    {
      "inputs": [],
      "name": "getBalance",
      "outputs": [
        {
          "internalType": "uint256",
          "name": "",
          "type": "uint256"
        }
      ],
      "stateMutability": "view",
      "type": "function"
    },
    {
      "inputs": [],
      "name": "getBorrowRate",
      "outputs": [
        {
          "internalType": "uint256",
          "name": "",
          "type": "uint256"
        }
      ],
      "stateMutability": "view",
      "type": "function"
    },
    {
      "inputs": [
        {
          "internalType": "address",
          "name": "asset",
          "type": "address"
        }
      ],
      "name": "getCollateralBalance",
      "outputs": [
        {
          "internalType": "uint256",
          "name": "",
          "type": "uint256"
        }
      ],
      "stateMutability": "view",
      "type": "function"
    },
    {
      "inputs": [],
      "name": "getSupplyRate",
      "outputs": [
        {
          "internalType": "uint256",
          "name": "",
          "type": "uint256"
        }
      ],
      "stateMutability": "view",
      "type": "function"
    },
    {
      "inputs": [],
      "name": "getUtilization",
      "outputs": [
        {
          "internalType": "uint256",
          "name": "",
          "type": "uint256"
        }
      ],
      "stateMutability": "view",
      "type": "function"
    },
    {
      "inputs": [
        {
          "internalType": "uint256[]",
          "name": "nums",
          "type": "uint256[]"
        }
      ],
      "name": "isLiquidatable",
      "outputs": [
        {
          "internalType": "uint256",
          "name": "",
          "type": "uint256"
        },
        {
          "internalType": "uint256",
          "name": "",
          "type": "uint256"
        }
      ],
      "stateMutability": "view",
      "type": "function"
    },
    {
      "inputs": [
        {
          "internalType": "uint256[]",
          "name": "inputs",
          "type": "uint256[]"
        }
      ],
      "name": "leverageUp",
      "outputs": [
        {
          "internalType": "uint256",
          "name": "",
          "type": "uint256"
        }
      ],
      "stateMutability": "nonpayable",
      "type": "function"
    },
    {
      "inputs": [
        {
          "internalType": "uint256[]",
          "name": "num",
          "type": "uint256[]"
        }
      ],
      "name": "returnProfit",
      "outputs": [
        {
          "internalType": "uint256",
          "name": "",
          "type": "uint256"
        },
        {
          "internalType": "uint256",
          "name": "",
          "type": "uint256"
        }
      ],
      "stateMutability": "nonpayable",
      "type": "function"
    },
    {
      "inputs": [
        {
          "internalType": "address",
          "name": "cometAddy",
          "type": "address"
        }
      ],
      "name": "setComet",
      "outputs": [],
      "stateMutability": "nonpayable",
      "type": "function"
    },
    {
      "inputs": [
        {
          "internalType": "address",
          "name": "cometDataAddy",
          "type": "address"
        }
      ],
      "name": "setCometData",
      "outputs": [],
      "stateMutability": "nonpayable",
      "type": "function"
    },
    {
      "inputs": [
        {
          "internalType": "address",
          "name": "asset",
          "type": "address"
        },
        {
          "internalType": "uint256",
          "name": "amount",
          "type": "uint256"
        }
      ],
      "name": "supply",
      "outputs": [],
      "stateMutability": "nonpayable",
      "type": "function"
    },
    {
      "inputs": [
        {
          "internalType": "address",
          "name": "asset",
          "type": "address"
        },
        {
          "internalType": "uint256",
          "name": "amount",
          "type": "uint256"
        }
      ],
      "name": "withdraw",
      "outputs": [],
      "stateMutability": "nonpayable",
      "type": "function"
    }
  ],
  "bytecode": "0x608060405234801561001057600080fd5b5061196e806100206000396000f3fe608060405234801561001057600080fd5b50600436106100ba5760003560e01c806312065fe0146100bf5780632703ee85146100da57806351ea5a2d146100ed57806367eb9186146101025780637eb711311461012a57806384bdc9a8146101325780638d0052481461013a578063afad2e161461014d578063b14e3dac1461016d578063ba1c5e8014610180578063bb58746414610188578063d9b3bba81461019b578063f2b9fdb8146101ae578063f3fef3a3146101c1575b600080fd5b6100c76101d4565b6040519081526020015b60405180910390f35b6100c76100e8366004611331565b6101e3565b6101006100fb366004611331565b6101f4565b005b6101156101103660046113bd565b610200565b604080519283526020830191909152016100d1565b6100c761022f565b6100c7610239565b6101156101483660046113bd565b610243565b61016061015b366004611331565b610269565b6040516100d19190611462565b61010061017b3660046113bd565b61027a565b6100c761029d565b6100c76101963660046113bd565b6102a7565b6101006101a9366004611331565b61031d565b6101006101bc366004611519565b610326565b6101006101cf366004611519565b610334565b60006101de61033e565b905090565b60006101ee826103c0565b92915050565b6101fd81610451565b50565b6000806102268360008151811061021957610219611545565b6020026020010151610480565b91509150915091565b60006101de61065e565b60006101de6106b5565b6000806102268360008151811061025c5761025c611545565b6020026020010151610749565b6102716112d8565b6101ee826108cf565b6101fd8160008151811061029057610290611545565b602002602001015161095a565b60006101de610bd1565b60006101ee826000815181106102bf576102bf611545565b6020026020010151836001815181106102da576102da611545565b6020026020010151846002815181106102f5576102f5611545565b60200260200101518560038151811061031057610310611545565b6020026020010151610bf7565b6101fd81610c9c565b6103308282610cc8565b5050565b6103308282610db2565b600080610349610dee565b80546040516370a0823160e01b81529192506001600160a01b0316906370a082319061037990309060040161155b565b602060405180830381865afa158015610396573d6000803e3d6000fd5b505050506040513d601f19601f820116820180604052508101906103ba919061156f565b91505090565b6000806103cb610dee565b6001810154604051632e12a4f760e11b81529192506001600160a01b031690635c2549ee906104009030908790600401611588565b602060405180830381865afa15801561041d573d6000803e3d6000fd5b505050506040513d601f19601f8201168201806040525081019061044191906115be565b6001600160801b03169392505050565b600061045b610dee565b60010180546001600160a01b0319166001600160a01b03939093169290921790915550565b600080600061048d610dee565b60008581526002820160205260408082206003015490516370a0823160e01b815292935090916001600160a01b03909116906370a08231906104d390309060040161155b565b602060405180830381865afa1580156104f0573d6000803e3d6000fd5b505050506040513d601f19601f82011682018060405250810190610514919061156f565b600086815260028401602052604090206003810154600490910154919250610548916001600160a01b039182169116610e12565b6105518561095a565b60008581526002830160205260408082206003015490516370a0823160e01b81526001600160a01b03909116906370a082319061059290309060040161155b565b602060405180830381865afa1580156105af573d6000803e3d6000fd5b505050506040513d601f19601f820116820180604052508101906105d3919061156f565b905060006105e183836115ef565b60008881526002860160205260409020549091506105ff9082610e57565b60008781526002850160205260409020548110156106405760008781526002850160205260408120546106339083906115ef565b9550955050505050915091565b600087815260028501602052604090205460019061063390836115ef565b600080610669610dee565b805460408051637eb7113160e01b815290519293506001600160a01b0390911691637eb71131916004808201926020929091908290030181865afa158015610396573d6000803e3d6000fd5b6000806106c0610dee565b80549091506001600160a01b031663d955759d6106db61065e565b6040518263ffffffff1660e01b81526004016106f991815260200190565b602060405180830381865afa158015610716573d6000803e3d6000fd5b505050506040513d601f19601f8201168201806040525081019061073a9190611619565b6001600160401b031691505090565b6000806000610756610dee565b9050836107638130610e12565b6001600160a01b038116600090815260048301602052604081208054829061078d5761078d611545565b600091825260209182902001546040805180820182526015815274024b99034ba103634b8bab4b230ba32b0b136329f9605d1b938101939093528554905163042e02cf60e01b815291935061084392916001600160a01b039091169063042e02cf906107fd90879060040161155b565b602060405180830381865afa15801561081a573d6000803e3d6000fd5b505050506040513d601f19601f8201168201806040525081019061083e9190611634565b610e9e565b825460405163042e02cf60e01b81526001600160a01b039091169063042e02cf9061087290859060040161155b565b602060405180830381865afa15801561088f573d6000803e3d6000fd5b505050506040513d601f19601f820116820180604052508101906108b39190611634565b6108be5760006108c1565b60015b60ff16969095509350505050565b6108d76112d8565b60006108e1610dee565b8054604051631d9df61760e11b81529192506001600160a01b031690633b3bec2e9061091190869060040161155b565b61010060405180830381865afa15801561092f573d6000803e3d6000fd5b505050506040513d601f19601f820116820180604052508101906109539190611661565b9392505050565b6000610964610dee565b6000838152600282016020526040812060038101546004909101549293506001600160a01b03908116921690610998610ee3565b80546040516370a0823160e01b81529192506000916001600160a01b03868116926370a08231926109cf929091169060040161155b565b602060405180830381865afa1580156109ec573d6000803e3d6000fd5b505050506040513d601f19601f82011682018060405250810190610a10919061156f565b8554604051630dd3126d60e21b81529192506000916001600160a01b039091169063374c49b490610a4590309060040161155b565b602060405180830381865afa158015610a62573d6000803e3d6000fd5b505050506040513d601f19601f82011682018060405250810190610a86919061156f565b604080516080810182526001600160a01b03808816825288166020820152600091810182905260608101839052919250610acc8787610ac48661170d565b600286610f07565b85546040516370a0823160e01b81529192506000916001600160a01b038a8116926370a0823192610b03929091169060040161155b565b602060405180830381865afa158015610b20573d6000803e3d6000fd5b505050506040513d601f19601f82011682018060405250810190610b44919061156f565b60008b815260028b016020526040902060010154909150610b669082876111dc565b60008a815260028a016020526040812060010154610b8487846115ef565b610b8e91906115ef565b60008c815260028c01602052604081205491925090610bae9083906115ef565b9050610bb98161122f565b610bc38a82610db2565b505050505050505050505050565b600080610bdc610dee565b80549091506001600160a01b0316639fa83b5a6106db61065e565b600080610c02610dee565b604080516080810182526001600160a01b03808a1682528816602082015290810186905260608101859052909150869086906000610c448385610ac48a61170d565b3060009081526004870160205260409020600387015491925090610c6a906001906115ef565b8154600181810184556000938452602090932001556003860154610c8e91906115ef565b9a9950505050505050505050565b6000610ca6610dee565b80546001600160a01b0319166001600160a01b03939093169290921790915550565b6000610cd2610dee565b805460405163095ea7b360e01b81529192506001600160a01b038086169263095ea7b392610d069216908690600401611729565b6020604051808303816000875af1158015610d25573d6000803e3d6000fd5b505050506040513d601f19601f82011682018060405250810190610d499190611634565b508054604051631e573fb760e31b81526001600160a01b039091169063f2b9fdb890610d7b9086908690600401611729565b600060405180830381600087803b158015610d9557600080fd5b505af1158015610da9573d6000803e3d6000fd5b50505050505050565b6000610dbc610dee565b805460405163f3fef3a360e01b81529192506001600160a01b03169063f3fef3a390610d7b9086908690600401611729565b7fe5fae1d1655caf6698b8b944506b14651a3f414f8a67caa7b6a42e32816e934090565b6103308282604051602401610e28929190611588565b60408051601f198184030181529190526020810180516001600160e01b0316636d786a5560e11b179052611270565b60405160248101839052604481018290526103309060640160408051601f198184030181529190526020810180516001600160e01b0316637b3338ad60e11b179052611270565b6103308282604051602401610eb4929190611792565b60408051601f198184030181529190526020810180516001600160e01b031663c3b5563560e01b179052611270565b7f35c2975ab7d5366802ce2593b15dfef7ba0fb48f04ca0c021c862e3ccd408ea590565b60606000610f13610ee3565b90506000806000610f248a8a611279565b6001600160a01b038083166000908152600789016020908152604080832084861684528252808320815160a08101835281548616815260018201548087168286015262ffffff600160a01b82041682850152600160b81b9004600290810b60608084019190915292015490951660808601528151908101825287151581529182018f905295985093965091945092909190810186610fe057610fdb600173fffd8963efd1fc6a506488495d951d5263988d266117b6565b610ff0565b610ff06401000276a360016117d6565b6001600160a01b03168152509050808660010160008860040154815260200190815260200160002060008201518160000160006101000a81548160ff0219169083151502179055506020820151816001015560408201518160020160006101000a8154816001600160a01b0302191690836001600160a01b03160217905550905050878660030160008860040154815260200190815260200160002060008201518160000160006101000a8154816001600160a01b0302191690836001600160a01b0316021790555060208201518160010160006101000a8154816001600160a01b0302191690836001600160a01b03160217905550604082015181600201556060820151816003015590505060008660000160009054906101000a90046001600160a01b03166001600160a01b0316638154831933858d8b6004015460405160200161114094939291906117f6565b6040516020818303038152906040526040518263ffffffff1660e01b815260040161116b9190611879565b6000604051808303816000875af115801561118a573d6000803e3d6000fd5b505050506040513d6000823e601f3d908101601f191682016040526111b2919081019061188c565b60048801805491925060006111c68361191f565b90915550909d9c50505050505050505050505050565b60405160248101849052604481018390526064810182905261122a9060840160408051601f198184030181529190526020810180516001600160e01b031663347b5e8f60e21b179052611270565b505050565b6101fd8160405160240161124591815260200190565b60408051601f198184030181529190526020810180516001600160e01b031663f82c50f160e01b1790525b6101fd816112b7565b6000806000836001600160a01b0316856001600160a01b031610156112a6575060019150839050826112b0565b5060009150829050835b9250925092565b60006a636f6e736f6c652e6c6f679050600080835160208501845afa505050565b6040805161010081018252600080825260208201819052918101829052606081018290526080810182905260a0810182905260c0810182905260e081019190915290565b6001600160a01b03811681146101fd57600080fd5b60006020828403121561134357600080fd5b81356109538161131c565b634e487b7160e01b600052604160045260246000fd5b60405161010081016001600160401b03811182821017156113875761138761134e565b60405290565b604051601f8201601f191681016001600160401b03811182821017156113b5576113b561134e565b604052919050565b600060208083850312156113d057600080fd5b82356001600160401b03808211156113e757600080fd5b818501915085601f8301126113fb57600080fd5b81358181111561140d5761140d61134e565b8060051b915061141e84830161138d565b818152918301840191848101908884111561143857600080fd5b938501935b838510156114565784358252938501939085019061143d565b98975050505050505050565b815160ff1681526020808301516001600160a01b0390811691830191909152604080840151909116908201526060808301516001600160401b0316908201526080808301516101008301916114c1908401826001600160401b03169052565b5060a08301516114dc60a08401826001600160401b03169052565b5060c08301516114f760c08401826001600160401b03169052565b5060e083015161151260e08401826001600160801b03169052565b5092915050565b6000806040838503121561152c57600080fd5b82356115378161131c565b946020939093013593505050565b634e487b7160e01b600052603260045260246000fd5b6001600160a01b0391909116815260200190565b60006020828403121561158157600080fd5b5051919050565b6001600160a01b0392831681529116602082015260400190565b80516001600160801b03811681146115b957600080fd5b919050565b6000602082840312156115d057600080fd5b610953826115a2565b634e487b7160e01b600052601160045260246000fd5b818103818111156101ee576101ee6115d9565b80516001600160401b03811681146115b957600080fd5b60006020828403121561162b57600080fd5b61095382611602565b60006020828403121561164657600080fd5b8151801515811461095357600080fd5b80516115b98161131c565b6000610100828403121561167457600080fd5b61167c611364565b825160ff8116811461168d57600080fd5b815261169b60208401611656565b60208201526116ac60408401611656565b60408201526116bd60608401611602565b60608201526116ce60808401611602565b60808201526116df60a08401611602565b60a08201526116f060c08401611602565b60c082015261170160e084016115a2565b60e08201529392505050565b6000600160ff1b8201611722576117226115d9565b5060000390565b6001600160a01b03929092168252602082015260400190565b60005b8381101561175d578181015183820152602001611745565b50506000910152565b6000815180845261177e816020860160208601611742565b601f01601f19169290920160200192915050565b6040815260006117a56040830185611766565b905082151560208301529392505050565b6001600160a01b03828116828216039080821115611512576115126115d9565b6001600160a01b03818116838216019080821115611512576115126115d9565b60006101008201905060018060a01b03808716835280865116602084015280602087015116604084015262ffffff6040870151166060840152606086015160020b60808401528060808701511660a0840152506005841061186757634e487b7160e01b600052602160045260246000fd5b60c082019390935260e0015292915050565b6020815260006109536020830184611766565b60006020828403121561189e57600080fd5b81516001600160401b03808211156118b557600080fd5b818401915084601f8301126118c957600080fd5b8151818111156118db576118db61134e565b6118ee601f8201601f191660200161138d565b915080825285602082850101111561190557600080fd5b611916816020840160208601611742565b50949350505050565b600060018201611931576119316115d9565b506001019056fea264697066735822122066924eb5031db7ce260b99141cfa0555a8c6a970be69050b003014a8427cf06f64736f6c63430008140033",
  "linkReferences": {},
  "deployedLinkReferences": {}
}