{
  "_format": "hh-sol-artifact-1",
  "contractName": "LeverageFacet",
  "sourceName": "contracts/Facets/LeverageFacet.sol",
  "abi": [
    {
      "inputs": [
        {
          "internalType": "uint256",
          "name": "id",
          "type": "uint256"
        }
      ],
      "name": "closePosition",
      "outputs": [],
      "stateMutability": "nonpayable",
      "type": "function"
    },
    {
      "inputs": [
        {
          "internalType": "address",
          "name": "asset",
          "type": "address"
        }
      ],
      "name": "getAssetInfo",
      "outputs": [
        {
          "components": [
            {
              "internalType": "uint8",
              "name": "offset",
              "type": "uint8"
            },
            {
              "internalType": "address",
              "name": "asset",
              "type": "address"
            },
            {
              "internalType": "address",
              "name": "priceFeed",
              "type": "address"
            },
            {
              "internalType": "uint64",
              "name": "scale",
              "type": "uint64"
            },
            {
              "internalType": "uint64",
              "name": "borrowCollateralFactor",
              "type": "uint64"
            },
            {
              "internalType": "uint64",
              "name": "liquidateCollateralFactor",
              "type": "uint64"
            },
            {
              "internalType": "uint64",
              "name": "liquidationFactor",
              "type": "uint64"
            },
            {
              "internalType": "uint128",
              "name": "supplyCap",
              "type": "uint128"
            }
          ],
          "internalType": "struct CometCore.AssetInfo",
          "name": "",
          "type": "tuple"
        }
      ],
      "stateMutability": "view",
      "type": "function"
    },
    {
      "inputs": [],
      "name": "getBalance",
      "outputs": [
        {
          "internalType": "uint256",
          "name": "",
          "type": "uint256"
        }
      ],
      "stateMutability": "view",
      "type": "function"
    },
    {
      "inputs": [],
      "name": "getBorrowRate",
      "outputs": [
        {
          "internalType": "uint256",
          "name": "",
          "type": "uint256"
        }
      ],
      "stateMutability": "view",
      "type": "function"
    },
    {
      "inputs": [
        {
          "internalType": "address",
          "name": "asset",
          "type": "address"
        }
      ],
      "name": "getCollateralBalance",
      "outputs": [
        {
          "internalType": "uint256",
          "name": "",
          "type": "uint256"
        }
      ],
      "stateMutability": "view",
      "type": "function"
    },
    {
      "inputs": [],
      "name": "getSupplyRate",
      "outputs": [
        {
          "internalType": "uint256",
          "name": "",
          "type": "uint256"
        }
      ],
      "stateMutability": "view",
      "type": "function"
    },
    {
      "inputs": [],
      "name": "getUtilization",
      "outputs": [
        {
          "internalType": "uint256",
          "name": "",
          "type": "uint256"
        }
      ],
      "stateMutability": "view",
      "type": "function"
    },
    {
      "inputs": [
        {
          "internalType": "address",
          "name": "account",
          "type": "address"
        }
      ],
      "name": "isLiquidatable",
      "outputs": [
        {
          "internalType": "bool",
          "name": "",
          "type": "bool"
        }
      ],
      "stateMutability": "view",
      "type": "function"
    },
    {
      "inputs": [
        {
          "internalType": "uint256[]",
          "name": "inputs",
          "type": "uint256[]"
        }
      ],
      "name": "leverageUp",
      "outputs": [
        {
          "internalType": "uint256",
          "name": "",
          "type": "uint256"
        }
      ],
      "stateMutability": "nonpayable",
      "type": "function"
    },
    {
      "inputs": [
        {
          "internalType": "uint256[]",
          "name": "num",
          "type": "uint256[]"
        }
      ],
      "name": "returnProfit",
      "outputs": [
        {
          "internalType": "uint256",
          "name": "",
          "type": "uint256"
        },
        {
          "internalType": "uint256",
          "name": "",
          "type": "uint256"
        }
      ],
      "stateMutability": "nonpayable",
      "type": "function"
    },
    {
      "inputs": [
        {
          "internalType": "address",
          "name": "cometAddy",
          "type": "address"
        }
      ],
      "name": "setComet",
      "outputs": [],
      "stateMutability": "nonpayable",
      "type": "function"
    },
    {
      "inputs": [
        {
          "internalType": "address",
          "name": "cometDataAddy",
          "type": "address"
        }
      ],
      "name": "setCometData",
      "outputs": [],
      "stateMutability": "nonpayable",
      "type": "function"
    },
    {
      "inputs": [
        {
          "internalType": "address",
          "name": "asset",
          "type": "address"
        },
        {
          "internalType": "uint256",
          "name": "amount",
          "type": "uint256"
        }
      ],
      "name": "supply",
      "outputs": [],
      "stateMutability": "nonpayable",
      "type": "function"
    },
    {
      "inputs": [
        {
          "internalType": "address",
          "name": "asset",
          "type": "address"
        },
        {
          "internalType": "uint256",
          "name": "amount",
          "type": "uint256"
        }
      ],
      "name": "withdraw",
      "outputs": [],
      "stateMutability": "nonpayable",
      "type": "function"
    }
  ],
  "bytecode": "0x608060405234801561001057600080fd5b50611826806100206000396000f3fe608060405234801561001057600080fd5b50600436106100ba5760003560e01c8063042e02cf146100bf57806312065fe0146100e75780632703ee85146100fd57806351ea5a2d1461011057806367eb9186146101255780637eb711311461014d57806384bdc9a814610155578063a126d6011461015d578063afad2e1614610170578063ba1c5e8014610190578063bb58746414610198578063d9b3bba8146101ab578063f2b9fdb8146101be578063f3fef3a3146101d1575b600080fd5b6100d26100cd3660046111f4565b6101e4565b60405190151581526020015b60405180910390f35b6100ef6101f5565b6040519081526020016100de565b6100ef61010b3660046111f4565b610204565b61012361011e3660046111f4565b61020f565b005b610138610133366004611280565b61021b565b604080519283526020830191909152016100de565b6100ef61024a565b6100ef610254565b61012361016b366004611325565b61025e565b61018361017e3660046111f4565b610267565b6040516100de919061133e565b6100ef610278565b6100ef6101a6366004611280565b610282565b6101236101b93660046111f4565b6102f8565b6101236101cc3660046113f5565b610301565b6101236101df3660046113f5565b61030f565b60006101ef82610319565b92915050565b60006101ff61039c565b905090565b60006101ef8261041e565b610218816104af565b50565b6000806102418360008151811061023457610234611421565b60200260200101516104de565b91509150915091565b60006101ff6106bc565b60006101ff610713565b610218816107a7565b61026f61119b565b6101ef82610a49565b60006101ff610acd565b60006101ef8260008151811061029a5761029a611421565b6020026020010151836001815181106102b5576102b5611421565b6020026020010151846002815181106102d0576102d0611421565b6020026020010151856003815181106102eb576102eb611421565b6020026020010151610af3565b61021881610b61565b61030b8282610b8d565b5050565b61030b8282610c77565b600080610324610cb3565b805460405163042e02cf60e01b81529192506001600160a01b03169063042e02cf90610354908690600401611437565b602060405180830381865afa158015610371573d6000803e3d6000fd5b505050506040513d601f19601f82011682018060405250810190610395919061144b565b9392505050565b6000806103a7610cb3565b80546040516370a0823160e01b81529192506001600160a01b0316906370a08231906103d7903090600401611437565b602060405180830381865afa1580156103f4573d6000803e3d6000fd5b505050506040513d601f19601f82011682018060405250810190610418919061146d565b91505090565b600080610429610cb3565b6001810154604051632e12a4f760e11b81529192506001600160a01b031690635c2549ee9061045e9030908790600401611486565b602060405180830381865afa15801561047b573d6000803e3d6000fd5b505050506040513d601f19601f8201168201806040525081019061049f91906114bc565b6001600160801b03169392505050565b60006104b9610cb3565b60010180546001600160a01b0319166001600160a01b03939093169290921790915550565b60008060006104eb610cb3565b60008581526002820160205260408082206003015490516370a0823160e01b815292935090916001600160a01b03909116906370a0823190610531903090600401611437565b602060405180830381865afa15801561054e573d6000803e3d6000fd5b505050506040513d601f19601f82011682018060405250810190610572919061146d565b6000868152600284016020526040902060038101546004909101549192506105a6916001600160a01b039182169116610cd7565b6105af856107a7565b60008581526002830160205260408082206003015490516370a0823160e01b81526001600160a01b03909116906370a08231906105f0903090600401611437565b602060405180830381865afa15801561060d573d6000803e3d6000fd5b505050506040513d601f19601f82011682018060405250810190610631919061146d565b9050600061063f83836114ed565b600088815260028601602052604090205490915061065d9082610d1c565b600087815260028501602052604090205481101561069e5760008781526002850160205260408120546106919083906114ed565b9550955050505050915091565b600087815260028501602052604090205460019061069190836114ed565b6000806106c7610cb3565b805460408051637eb7113160e01b815290519293506001600160a01b0390911691637eb71131916004808201926020929091908290030181865afa1580156103f4573d6000803e3d6000fd5b60008061071e610cb3565b80549091506001600160a01b031663d955759d6107396106bc565b6040518263ffffffff1660e01b815260040161075791815260200190565b602060405180830381865afa158015610774573d6000803e3d6000fd5b505050506040513d601f19601f820116820180604052508101906107989190611517565b6001600160401b031691505090565b60006107b1610cb3565b6000838152600282016020526040812060038101546004909101549293506001600160a01b039081169216906107e5610d63565b80546040516370a0823160e01b81529192506000916001600160a01b03868116926370a082319261081c9290911690600401611437565b602060405180830381865afa158015610839573d6000803e3d6000fd5b505050506040513d601f19601f8201168201806040525081019061085d919061146d565b8554604051630dd3126d60e21b81529192506000916001600160a01b039091169063374c49b490610892903090600401611437565b602060405180830381865afa1580156108af573d6000803e3d6000fd5b505050506040513d601f19601f820116820180604052508101906108d3919061146d565b604080516080810182526001600160a01b03808816825288166020820152600091810182905260608101839052919250610919878761091186611532565b600286610d87565b85546040516370a0823160e01b81529192506000916001600160a01b038a8116926370a08231926109509290911690600401611437565b602060405180830381865afa15801561096d573d6000803e3d6000fd5b505050506040513d601f19601f82011682018060405250810190610991919061146d565b60008b815260028b0160205260409020600101549091506109b390828761105c565b60008a815260028a0160205260408120600101546109d187846114ed565b6109db91906114ed565b60008c815260028c016020526040812054919250906109fb9083906114ed565b9050610a06816110af565b610a108a82610c77565b610a3b6040518060400160405280600a8152602001695749544844524157212160b01b8152506110f4565b505050505050505050505050565b610a5161119b565b6000610a5b610cb3565b8054604051631d9df61760e11b81529192506001600160a01b031690633b3bec2e90610a8b908690600401611437565b61010060405180830381865afa158015610aa9573d6000803e3d6000fd5b505050506040513d601f19601f820116820180604052508101906103959190611559565b600080610ad8610cb3565b80549091506001600160a01b0316639fa83b5a6107396106bc565b600080610afe610cb3565b604080516080810182526001600160a01b03808a1682528816602082015290810186905260608101859052909150869086906000610b4083856109118a611532565b905060018560030154610b5391906114ed565b9a9950505050505050505050565b6000610b6b610cb3565b80546001600160a01b0319166001600160a01b03939093169290921790915550565b6000610b97610cb3565b805460405163095ea7b360e01b81529192506001600160a01b038086169263095ea7b392610bcb9216908690600401611605565b6020604051808303816000875af1158015610bea573d6000803e3d6000fd5b505050506040513d601f19601f82011682018060405250810190610c0e919061144b565b508054604051631e573fb760e31b81526001600160a01b039091169063f2b9fdb890610c409086908690600401611605565b600060405180830381600087803b158015610c5a57600080fd5b505af1158015610c6e573d6000803e3d6000fd5b50505050505050565b6000610c81610cb3565b805460405163f3fef3a360e01b81529192506001600160a01b03169063f3fef3a390610c409086908690600401611605565b7fe5fae1d1655caf6698b8b944506b14651a3f414f8a67caa7b6a42e32816e934090565b61030b8282604051602401610ced929190611486565b60408051601f198184030181529190526020810180516001600160e01b0316636d786a5560e11b179052611133565b604051602481018390526044810182905261030b9060640160408051601f198184030181529190526020810180516001600160e01b0316637b3338ad60e11b179052611133565b7f35c2975ab7d5366802ce2593b15dfef7ba0fb48f04ca0c021c862e3ccd408ea590565b60606000610d93610d63565b90506000806000610da48a8a61113c565b6001600160a01b038083166000908152600789016020908152604080832084861684528252808320815160a08101835281548616815260018201548087168286015262ffffff600160a01b82041682850152600160b81b9004600290810b60608084019190915292015490951660808601528151908101825287151581529182018f905295985093965091945092909190810186610e6057610e5b600173fffd8963efd1fc6a506488495d951d5263988d2661161e565b610e70565b610e706401000276a3600161163e565b6001600160a01b03168152509050808660010160008860040154815260200190815260200160002060008201518160000160006101000a81548160ff0219169083151502179055506020820151816001015560408201518160020160006101000a8154816001600160a01b0302191690836001600160a01b03160217905550905050878660030160008860040154815260200190815260200160002060008201518160000160006101000a8154816001600160a01b0302191690836001600160a01b0316021790555060208201518160010160006101000a8154816001600160a01b0302191690836001600160a01b03160217905550604082015181600201556060820151816003015590505060008660000160009054906101000a90046001600160a01b03166001600160a01b0316638154831933858d8b60040154604051602001610fc0949392919061165e565b6040516020818303038152906040526040518263ffffffff1660e01b8152600401610feb9190611731565b6000604051808303816000875af115801561100a573d6000803e3d6000fd5b505050506040513d6000823e601f3d908101601f191682016040526110329190810190611744565b6004880180549192506000611046836117d7565b90915550909d9c50505050505050505050505050565b6040516024810184905260448101839052606481018290526110aa9060840160408051601f198184030181529190526020810180516001600160e01b031663347b5e8f60e21b179052611133565b505050565b610218816040516024016110c591815260200190565b60408051601f198184030181529190526020810180516001600160e01b031663f82c50f160e01b179052611133565b610218816040516024016111089190611731565b60408051601f198184030181529190526020810180516001600160e01b031663104c13eb60e21b1790525b6102188161117a565b6000806000836001600160a01b0316856001600160a01b0316101561116957506001915083905082611173565b5060009150829050835b9250925092565b60006a636f6e736f6c652e6c6f679050600080835160208501845afa505050565b6040805161010081018252600080825260208201819052918101829052606081018290526080810182905260a0810182905260c0810182905260e081019190915290565b6001600160a01b038116811461021857600080fd5b60006020828403121561120657600080fd5b8135610395816111df565b634e487b7160e01b600052604160045260246000fd5b60405161010081016001600160401b038111828210171561124a5761124a611211565b60405290565b604051601f8201601f191681016001600160401b038111828210171561127857611278611211565b604052919050565b6000602080838503121561129357600080fd5b82356001600160401b03808211156112aa57600080fd5b818501915085601f8301126112be57600080fd5b8135818111156112d0576112d0611211565b8060051b91506112e1848301611250565b81815291830184019184810190888411156112fb57600080fd5b938501935b8385101561131957843582529385019390850190611300565b98975050505050505050565b60006020828403121561133757600080fd5b5035919050565b815160ff1681526020808301516001600160a01b0390811691830191909152604080840151909116908201526060808301516001600160401b03169082015260808083015161010083019161139d908401826001600160401b03169052565b5060a08301516113b860a08401826001600160401b03169052565b5060c08301516113d360c08401826001600160401b03169052565b5060e08301516113ee60e08401826001600160801b03169052565b5092915050565b6000806040838503121561140857600080fd5b8235611413816111df565b946020939093013593505050565b634e487b7160e01b600052603260045260246000fd5b6001600160a01b0391909116815260200190565b60006020828403121561145d57600080fd5b8151801515811461039557600080fd5b60006020828403121561147f57600080fd5b5051919050565b6001600160a01b0392831681529116602082015260400190565b80516001600160801b03811681146114b757600080fd5b919050565b6000602082840312156114ce57600080fd5b610395826114a0565b634e487b7160e01b600052601160045260246000fd5b818103818111156101ef576101ef6114d7565b80516001600160401b03811681146114b757600080fd5b60006020828403121561152957600080fd5b61039582611500565b6000600160ff1b8201611547576115476114d7565b5060000390565b80516114b7816111df565b6000610100828403121561156c57600080fd5b611574611227565b825160ff8116811461158557600080fd5b81526115936020840161154e565b60208201526115a46040840161154e565b60408201526115b560608401611500565b60608201526115c660808401611500565b60808201526115d760a08401611500565b60a08201526115e860c08401611500565b60c08201526115f960e084016114a0565b60e08201529392505050565b6001600160a01b03929092168252602082015260400190565b6001600160a01b038281168282160390808211156113ee576113ee6114d7565b6001600160a01b038181168382160190808211156113ee576113ee6114d7565b60006101008201905060018060a01b03808716835280865116602084015280602087015116604084015262ffffff6040870151166060840152606086015160020b60808401528060808701511660a084015250600484106116cf57634e487b7160e01b600052602160045260246000fd5b60c082019390935260e0015292915050565b60005b838110156116fc5781810151838201526020016116e4565b50506000910152565b6000815180845261171d8160208601602086016116e1565b601f01601f19169290920160200192915050565b6020815260006103956020830184611705565b60006020828403121561175657600080fd5b81516001600160401b038082111561176d57600080fd5b818401915084601f83011261178157600080fd5b81518181111561179357611793611211565b6117a6601f8201601f1916602001611250565b91508082528560208285010111156117bd57600080fd5b6117ce8160208401602086016116e1565b50949350505050565b6000600182016117e9576117e96114d7565b506001019056fea264697066735822122066b4b1dfd4e4517419f06651ae59526daa92234fb85453fda801d51d7a834d2764736f6c63430008140033",
  "linkReferences": {},
  "deployedLinkReferences": {}
}