{
  "_format": "hh-sol-artifact-1",
  "contractName": "LeverageFacet",
  "sourceName": "contracts/Facets/LeverageFacet.sol",
  "abi": [
    {
      "inputs": [
        {
          "internalType": "address",
          "name": "asset",
          "type": "address"
        }
      ],
      "name": "getAssetInfo",
      "outputs": [
        {
          "components": [
            {
              "internalType": "uint8",
              "name": "offset",
              "type": "uint8"
            },
            {
              "internalType": "address",
              "name": "asset",
              "type": "address"
            },
            {
              "internalType": "address",
              "name": "priceFeed",
              "type": "address"
            },
            {
              "internalType": "uint64",
              "name": "scale",
              "type": "uint64"
            },
            {
              "internalType": "uint64",
              "name": "borrowCollateralFactor",
              "type": "uint64"
            },
            {
              "internalType": "uint64",
              "name": "liquidateCollateralFactor",
              "type": "uint64"
            },
            {
              "internalType": "uint64",
              "name": "liquidationFactor",
              "type": "uint64"
            },
            {
              "internalType": "uint128",
              "name": "supplyCap",
              "type": "uint128"
            }
          ],
          "internalType": "struct CometCore.AssetInfo",
          "name": "",
          "type": "tuple"
        }
      ],
      "stateMutability": "view",
      "type": "function"
    },
    {
      "inputs": [],
      "name": "getBalance",
      "outputs": [
        {
          "internalType": "uint256",
          "name": "",
          "type": "uint256"
        }
      ],
      "stateMutability": "view",
      "type": "function"
    },
    {
      "inputs": [],
      "name": "getBorrowRate",
      "outputs": [
        {
          "internalType": "uint256",
          "name": "",
          "type": "uint256"
        }
      ],
      "stateMutability": "view",
      "type": "function"
    },
    {
      "inputs": [
        {
          "internalType": "address",
          "name": "asset",
          "type": "address"
        }
      ],
      "name": "getCollateralBalance",
      "outputs": [
        {
          "internalType": "uint256",
          "name": "",
          "type": "uint256"
        }
      ],
      "stateMutability": "view",
      "type": "function"
    },
    {
      "inputs": [],
      "name": "getSupplyRate",
      "outputs": [
        {
          "internalType": "uint256",
          "name": "",
          "type": "uint256"
        }
      ],
      "stateMutability": "view",
      "type": "function"
    },
    {
      "inputs": [],
      "name": "getUtilization",
      "outputs": [
        {
          "internalType": "uint256",
          "name": "",
          "type": "uint256"
        }
      ],
      "stateMutability": "view",
      "type": "function"
    },
    {
      "inputs": [
        {
          "internalType": "address",
          "name": "account",
          "type": "address"
        }
      ],
      "name": "isLiquidatable",
      "outputs": [
        {
          "internalType": "bool",
          "name": "",
          "type": "bool"
        }
      ],
      "stateMutability": "view",
      "type": "function"
    },
    {
      "inputs": [
        {
          "internalType": "address",
          "name": "collateral",
          "type": "address"
        },
        {
          "internalType": "address",
          "name": "providedToken",
          "type": "address"
        },
        {
          "internalType": "uint256",
          "name": "userAmount",
          "type": "uint256"
        },
        {
          "internalType": "uint256",
          "name": "swapAmount",
          "type": "uint256"
        }
      ],
      "name": "leverageUp",
      "outputs": [],
      "stateMutability": "nonpayable",
      "type": "function"
    },
    {
      "inputs": [
        {
          "internalType": "address",
          "name": "cometAddy",
          "type": "address"
        }
      ],
      "name": "setComet",
      "outputs": [],
      "stateMutability": "nonpayable",
      "type": "function"
    },
    {
      "inputs": [
        {
          "internalType": "address",
          "name": "cometDataAddy",
          "type": "address"
        }
      ],
      "name": "setCometData",
      "outputs": [],
      "stateMutability": "nonpayable",
      "type": "function"
    },
    {
      "inputs": [
        {
          "internalType": "address",
          "name": "asset",
          "type": "address"
        },
        {
          "internalType": "uint256",
          "name": "amount",
          "type": "uint256"
        }
      ],
      "name": "supply",
      "outputs": [],
      "stateMutability": "nonpayable",
      "type": "function"
    },
    {
      "inputs": [
        {
          "internalType": "address",
          "name": "asset",
          "type": "address"
        },
        {
          "internalType": "uint256",
          "name": "amount",
          "type": "uint256"
        }
      ],
      "name": "withdraw",
      "outputs": [],
      "stateMutability": "nonpayable",
      "type": "function"
    }
  ],
  "bytecode": "0x608060405234801561001057600080fd5b50611649806100206000396000f3fe608060405234801561001057600080fd5b50600436106100a45760003560e01c8063042e02cf146100a957806312065fe0146100d15780632703ee85146100e757806351ea5a2d146100fa5780637eb711311461010f57806384bdc9a814610117578063908199cf1461011f578063afad2e1614610132578063ba1c5e8014610152578063d9b3bba81461015a578063f2b9fdb81461016d578063f3fef3a314610180575b600080fd5b6100bc6100b7366004610f58565b610193565b60405190151581526020015b60405180910390f35b6100d96101a4565b6040519081526020016100c8565b6100d96100f5366004610f58565b6101b3565b61010d610108366004610f58565b6101be565b005b6100d96101ca565b6100d96101d4565b61010d61012d366004610f75565b6101de565b610145610140366004610f58565b6101f0565b6040516100c89190610fbb565b6100d9610201565b61010d610168366004610f58565b61020b565b61010d61017b366004611072565b610214565b61010d61018e366004611072565b610222565b600061019e8261022c565b92915050565b60006101ae6102af565b905090565b600061019e82610331565b6101c7816103c4565b50565b60006101ae6103f3565b60006101ae61044a565b6101ea848484846104de565b50505050565b6101f8610eff565b61019e82610636565b60006101ae6106ba565b6101c7816106e0565b61021e828261070c565b5050565b61021e82826107f6565b600080610237610832565b805460405163042e02cf60e01b81529192506001600160a01b03169063042e02cf9061026790869060040161109e565b602060405180830381865afa158015610284573d6000803e3d6000fd5b505050506040513d601f19601f820116820180604052508101906102a891906110b2565b9392505050565b6000806102ba610832565b80546040516370a0823160e01b81529192506001600160a01b0316906370a08231906102ea90309060040161109e565b602060405180830381865afa158015610307573d6000803e3d6000fd5b505050506040513d601f19601f8201168201806040525081019061032b91906110d4565b91505090565b60008061033c610832565b6001810154604051632e12a4f760e11b81523060048201526001600160a01b038681166024830152929350911690635c2549ee90604401602060405180830381865afa158015610390573d6000803e3d6000fd5b505050506040513d601f19601f820116820180604052508101906103b49190611109565b6001600160801b03169392505050565b60006103ce610832565b60010180546001600160a01b0319166001600160a01b03939093169290921790915550565b6000806103fe610832565b805460408051637eb7113160e01b815290519293506001600160a01b0390911691637eb71131916004808201926020929091908290030181865afa158015610307573d6000803e3d6000fd5b600080610455610832565b80549091506001600160a01b031663d955759d6104706103f3565b6040518263ffffffff1660e01b815260040161048e91815260200190565b602060405180830381865afa1580156104ab573d6000803e3d6000fd5b505050506040513d601f19601f820116820180604052508101906104cf919061113b565b6001600160401b031691505090565b60006104e8610856565b905060006104ff85876104fa8661116c565b61087a565b90506000806000808480602001905181019061051b9190611203565b8954600082815260018c0160205260408082209051633cf3645360e21b8152969a5094985092965090945090926001600160a01b039091169163f3cd914c9161056891889160040161130d565b6020604051808303816000875af1158015610587573d6000803e3d6000fd5b505050506040513d601f19601f820116820180604052508101906105ab91906110d4565b90506105c08b6105bb8b8b61136a565b61070c565b8a6001600160a01b03168a6001600160a01b031610156105fb576105f68a6105e88360801c90565b6001600160801b03166107f6565b610605565b6106058a826105e8565b835161061a906106158360801c90565b610a69565b61062984602001516106158390565b5050505050505050505050565b61063e610eff565b6000610648610832565b8054604051631d9df61760e11b81529192506001600160a01b031690633b3bec2e9061067890869060040161109e565b61010060405180830381865afa158015610696573d6000803e3d6000fd5b505050506040513d601f19601f820116820180604052508101906102a8919061137d565b6000806106c5610832565b80549091506001600160a01b0316639fa83b5a6104706103f3565b60006106ea610832565b80546001600160a01b0319166001600160a01b03939093169290921790915550565b6000610716610832565b805460405163095ea7b360e01b81529192506001600160a01b038086169263095ea7b39261074a9216908690600401611429565b6020604051808303816000875af1158015610769573d6000803e3d6000fd5b505050506040513d601f19601f8201168201806040525081019061078d91906110b2565b508054604051631e573fb760e31b81526001600160a01b039091169063f2b9fdb8906107bf9086908690600401611429565b600060405180830381600087803b1580156107d957600080fd5b505af11580156107ed573d6000803e3d6000fd5b50505050505050565b6000610800610832565b805460405163f3fef3a360e01b81529192506001600160a01b03169063f3fef3a3906107bf9086908690600401611429565b7fe5fae1d1655caf6698b8b944506b14651a3f414f8a67caa7b6a42e32816e934090565b7f35c2975ab7d5366802ce2593b15dfef7ba0fb48f04ca0c021c862e3ccd408ea590565b60606000610886610856565b905060008060006108978888610bfc565b6001600160a01b038083166000908152600689016020908152604080832084861684528252808320815160a08101835281548616815260018201548087168286015262ffffff600160a01b82041682850152600160b81b9004600290810b60608084019190915292015490951660808601528151908101825287151581529182018d9052959850939650919450929091908101866109535761094e600173fffd8963efd1fc6a506488495d951d5263988d26611442565b610963565b6109636401000276a36001611462565b6001600160a01b0390811690915260038801805460009081526001808b01602090815260408084208751815460ff1916901515178155878301519381019390935586810151600293840180546001600160a01b0319169188169190911790558c5494549051969750929593909416936381548319936109e89333938a93909201611482565b6040516020818303038152906040526040518263ffffffff1660e01b8152600401610a139190611520565b6000604051808303816000875af1158015610a32573d6000803e3d6000fd5b505050506040513d6000823e601f3d908101601f19168201604052610a5a9190810190611533565b97506102a89650505050505050565b6000610a73610856565b9050600082600f0b1215610adf5780546001600160a01b0316630b0d9c098430610a9c866115d4565b6040516001600160e01b031960e086901b1681526001600160a01b0393841660048201529290911660248301526001600160801b031660448201526064016107bf565b6001600160a01b038316610b6a578054604051636a256b2960e01b81526001600160a01b0390911690636a256b29906001600160801b03851690610b2790879060040161109e565b60206040518083038185885af1158015610b45573d6000803e3d6000fd5b50505050506040513d601f19601f820116820180604052508101906101ea91906110d4565b8054610b8a9084906001600160a01b03166001600160801b038516610c3a565b8054604051636a256b2960e01b81526001600160a01b0390911690636a256b2990610bb990869060040161109e565b6020604051808303816000875af1158015610bd8573d6000803e3d6000fd5b505050506040513d601f19601f820116820180604052508101906101ea91906110d4565b6000806000836001600160a01b0316856001600160a01b03161015610c2957506001915083905082610c33565b5060009150829050835b9250925092565b610c908363a9059cbb60e01b8484604051602401610c59929190611429565b60408051601f198184030181529190526020810180516001600160e01b03166001600160e01b031990931692909217909152610c95565b505050565b6000610cea826040518060400160405280602081526020017f5361666545524332303a206c6f772d6c6576656c2063616c6c206661696c6564815250856001600160a01b0316610d6f9092919063ffffffff16565b9050805160001480610d0b575080806020019051810190610d0b91906110b2565b610c905760405162461bcd60e51b815260206004820152602a60248201527f5361666545524332303a204552433230206f7065726174696f6e20646964206e6044820152691bdd081cdd58d8d9595960b21b60648201526084015b60405180910390fd5b6060610d7e8484600085610d86565b949350505050565b606082471015610de75760405162461bcd60e51b815260206004820152602660248201527f416464726573733a20696e73756666696369656e742062616c616e636520666f6044820152651c8818d85b1b60d21b6064820152608401610d66565b600080866001600160a01b03168587604051610e0391906115f7565b60006040518083038185875af1925050503d8060008114610e40576040519150601f19603f3d011682016040523d82523d6000602084013e610e45565b606091505b5091509150610e5687838387610e61565b979650505050505050565b60608315610ed0578251600003610ec9576001600160a01b0385163b610ec95760405162461bcd60e51b815260206004820152601d60248201527f416464726573733a2063616c6c20746f206e6f6e2d636f6e74726163740000006044820152606401610d66565b5081610d7e565b610d7e8383815115610ee55781518083602001fd5b8060405162461bcd60e51b8152600401610d669190611520565b6040805161010081018252600080825260208201819052918101829052606081018290526080810182905260a0810182905260c0810182905260e081019190915290565b6001600160a01b03811681146101c757600080fd5b600060208284031215610f6a57600080fd5b81356102a881610f43565b60008060008060808587031215610f8b57600080fd5b8435610f9681610f43565b93506020850135610fa681610f43565b93969395505050506040820135916060013590565b815160ff1681526020808301516001600160a01b0390811691830191909152604080840151909116908201526060808301516001600160401b03169082015260808083015161010083019161101a908401826001600160401b03169052565b5060a083015161103560a08401826001600160401b03169052565b5060c083015161105060c08401826001600160401b03169052565b5060e083015161106b60e08401826001600160801b03169052565b5092915050565b6000806040838503121561108557600080fd5b823561109081610f43565b946020939093013593505050565b6001600160a01b0391909116815260200190565b6000602082840312156110c457600080fd5b815180151581146102a857600080fd5b6000602082840312156110e657600080fd5b5051919050565b80516001600160801b038116811461110457600080fd5b919050565b60006020828403121561111b57600080fd5b6102a8826110ed565b80516001600160401b038116811461110457600080fd5b60006020828403121561114d57600080fd5b6102a882611124565b634e487b7160e01b600052601160045260246000fd5b6000600160ff1b820161118157611181611156565b5060000390565b634e487b7160e01b600052604160045260246000fd5b60405160a081016001600160401b03811182821017156111c0576111c0611188565b60405290565b60405161010081016001600160401b03811182821017156111c0576111c0611188565b805161110481610f43565b80516003811061110457600080fd5b60008060008084860361010081121561121b57600080fd5b855161122681610f43565b945060a0601f198201121561123a57600080fd5b5061124361119e565b602086015161125181610f43565b8152604086015161126181610f43565b6020820152606086015162ffffff8116811461127c57600080fd5b60408201526080860151600281900b811461129657600080fd5b60608201526112a760a087016111e9565b608082015292506112ba60c086016111f4565b60e0959095015193969295505050565b80516001600160a01b03908116835260208083015182169084015260408083015162ffffff169084015260608083015160020b9084015260809182015116910152565b600061012061131c83866112ca565b835460ff16151560a0840152600184015460c08401526002938401546001600160a01b031660e0840152610100830181905282019290925261060f60f31b6101408201526101600192915050565b8082018082111561019e5761019e611156565b6000610100828403121561139057600080fd5b6113986111c6565b825160ff811681146113a957600080fd5b81526113b7602084016111e9565b60208201526113c8604084016111e9565b60408201526113d960608401611124565b60608201526113ea60808401611124565b60808201526113fb60a08401611124565b60a082015261140c60c08401611124565b60c082015261141d60e084016110ed565b60e08201529392505050565b6001600160a01b03929092168252602082015260400190565b6001600160a01b0382811682821603908082111561106b5761106b611156565b6001600160a01b0381811683821601908082111561106b5761106b611156565b6001600160a01b038516815261010081016114a060208301866112ca565b600384106114be57634e487b7160e01b600052602160045260246000fd5b60c082019390935260e0015292915050565b60005b838110156114eb5781810151838201526020016114d3565b50506000910152565b6000815180845261150c8160208601602086016114d0565b601f01601f19169290920160200192915050565b6020815260006102a860208301846114f4565b60006020828403121561154557600080fd5b81516001600160401b038082111561155c57600080fd5b818401915084601f83011261157057600080fd5b81518181111561158257611582611188565b604051601f8201601f19908116603f011681019083821181831017156115aa576115aa611188565b816040528281528760208487010111156115c357600080fd5b610e568360208301602088016114d0565b6000600f82900b6001607f1b81016115ee576115ee611156565b60000392915050565b600082516116098184602087016114d0565b919091019291505056fea26469706673582212203f60291cf156d177fc63193f80e6686f217223e561870d3eb34fe01472dd96d464736f6c63430008140033",
  "linkReferences": {},
  "deployedLinkReferences": {}
}