{
  "_format": "hh-sol-artifact-1",
  "contractName": "LeverageFacet",
  "sourceName": "contracts/Facets/LeverageFacet.sol",
  "abi": [
    {
      "inputs": [
        {
          "internalType": "address",
          "name": "collateral",
          "type": "address"
        },
        {
          "internalType": "address",
          "name": "providedToken",
          "type": "address"
        }
      ],
      "name": "closePosition",
      "outputs": [],
      "stateMutability": "nonpayable",
      "type": "function"
    },
    {
      "inputs": [
        {
          "internalType": "address",
          "name": "asset",
          "type": "address"
        }
      ],
      "name": "getAssetInfo",
      "outputs": [
        {
          "components": [
            {
              "internalType": "uint8",
              "name": "offset",
              "type": "uint8"
            },
            {
              "internalType": "address",
              "name": "asset",
              "type": "address"
            },
            {
              "internalType": "address",
              "name": "priceFeed",
              "type": "address"
            },
            {
              "internalType": "uint64",
              "name": "scale",
              "type": "uint64"
            },
            {
              "internalType": "uint64",
              "name": "borrowCollateralFactor",
              "type": "uint64"
            },
            {
              "internalType": "uint64",
              "name": "liquidateCollateralFactor",
              "type": "uint64"
            },
            {
              "internalType": "uint64",
              "name": "liquidationFactor",
              "type": "uint64"
            },
            {
              "internalType": "uint128",
              "name": "supplyCap",
              "type": "uint128"
            }
          ],
          "internalType": "struct CometCore.AssetInfo",
          "name": "",
          "type": "tuple"
        }
      ],
      "stateMutability": "view",
      "type": "function"
    },
    {
      "inputs": [],
      "name": "getBalance",
      "outputs": [
        {
          "internalType": "uint256",
          "name": "",
          "type": "uint256"
        }
      ],
      "stateMutability": "view",
      "type": "function"
    },
    {
      "inputs": [],
      "name": "getBorrowRate",
      "outputs": [
        {
          "internalType": "uint256",
          "name": "",
          "type": "uint256"
        }
      ],
      "stateMutability": "view",
      "type": "function"
    },
    {
      "inputs": [
        {
          "internalType": "address",
          "name": "asset",
          "type": "address"
        }
      ],
      "name": "getCollateralBalance",
      "outputs": [
        {
          "internalType": "uint256",
          "name": "",
          "type": "uint256"
        }
      ],
      "stateMutability": "view",
      "type": "function"
    },
    {
      "inputs": [],
      "name": "getSupplyRate",
      "outputs": [
        {
          "internalType": "uint256",
          "name": "",
          "type": "uint256"
        }
      ],
      "stateMutability": "view",
      "type": "function"
    },
    {
      "inputs": [],
      "name": "getUtilization",
      "outputs": [
        {
          "internalType": "uint256",
          "name": "",
          "type": "uint256"
        }
      ],
      "stateMutability": "view",
      "type": "function"
    },
    {
      "inputs": [
        {
          "internalType": "address",
          "name": "account",
          "type": "address"
        }
      ],
      "name": "isLiquidatable",
      "outputs": [
        {
          "internalType": "bool",
          "name": "",
          "type": "bool"
        }
      ],
      "stateMutability": "view",
      "type": "function"
    },
    {
      "inputs": [
        {
          "internalType": "address",
          "name": "collateral",
          "type": "address"
        },
        {
          "internalType": "address",
          "name": "providedToken",
          "type": "address"
        },
        {
          "internalType": "uint256",
          "name": "userAmount",
          "type": "uint256"
        },
        {
          "internalType": "uint256",
          "name": "swapAmount",
          "type": "uint256"
        }
      ],
      "name": "leverageUp",
      "outputs": [],
      "stateMutability": "nonpayable",
      "type": "function"
    },
    {
      "inputs": [
        {
          "internalType": "address",
          "name": "cometAddy",
          "type": "address"
        }
      ],
      "name": "setComet",
      "outputs": [],
      "stateMutability": "nonpayable",
      "type": "function"
    },
    {
      "inputs": [
        {
          "internalType": "address",
          "name": "cometDataAddy",
          "type": "address"
        }
      ],
      "name": "setCometData",
      "outputs": [],
      "stateMutability": "nonpayable",
      "type": "function"
    },
    {
      "inputs": [
        {
          "internalType": "address",
          "name": "asset",
          "type": "address"
        },
        {
          "internalType": "uint256",
          "name": "amount",
          "type": "uint256"
        }
      ],
      "name": "supply",
      "outputs": [],
      "stateMutability": "nonpayable",
      "type": "function"
    },
    {
      "inputs": [
        {
          "internalType": "address",
          "name": "asset",
          "type": "address"
        },
        {
          "internalType": "uint256",
          "name": "amount",
          "type": "uint256"
        }
      ],
      "name": "withdraw",
      "outputs": [],
      "stateMutability": "nonpayable",
      "type": "function"
    }
  ],
  "bytecode": "0x608060405234801561001057600080fd5b50611132806100206000396000f3fe608060405234801561001057600080fd5b50600436106100af5760003560e01c8063042e02cf146100b457806312065fe0146100dc5780632703ee85146100f257806351ea5a2d146101055780637eb711311461011a57806384bdc9a814610122578063908199cf1461012a578063afad2e161461013d578063ba1c5e801461015d578063bf42841c14610165578063d9b3bba814610178578063f2b9fdb81461018b578063f3fef3a31461019e575b600080fd5b6100c76100c2366004610ba5565b6101b1565b60405190151581526020015b60405180910390f35b6100e46101c2565b6040519081526020016100d3565b6100e4610100366004610ba5565b6101d1565b610118610113366004610ba5565b6101dc565b005b6100e46101e8565b6100e46101f2565b610118610138366004610bc2565b6101fc565b61015061014b366004610ba5565b61020e565b6040516100d39190610c08565b6100e461021f565b610118610173366004610cbf565b610229565b610118610186366004610ba5565b610237565b610118610199366004610cf8565b610240565b6101186101ac366004610cf8565b61024a565b60006101bc82610254565b92915050565b60006101cc6102d7565b905090565b60006101bc82610359565b6101e5816103ec565b50565b60006101cc61041b565b60006101cc610472565b61020884848484610506565b50505050565b610216610b4c565b6101bc82610550565b60006101cc6105d4565b61023382826105fa565b5050565b6101e5816106b8565b61023382826106e4565b61023382826107c5565b60008061025f610801565b805460405163042e02cf60e01b81529192506001600160a01b03169063042e02cf9061028f908690600401610d24565b602060405180830381865afa1580156102ac573d6000803e3d6000fd5b505050506040513d601f19601f820116820180604052508101906102d09190610d38565b9392505050565b6000806102e2610801565b80546040516370a0823160e01b81529192506001600160a01b0316906370a0823190610312903090600401610d24565b602060405180830381865afa15801561032f573d6000803e3d6000fd5b505050506040513d601f19601f820116820180604052508101906103539190610d5a565b91505090565b600080610364610801565b6001810154604051632e12a4f760e11b81523060048201526001600160a01b038681166024830152929350911690635c2549ee90604401602060405180830381865afa1580156103b8573d6000803e3d6000fd5b505050506040513d601f19601f820116820180604052508101906103dc9190610d8f565b6001600160801b03169392505050565b60006103f6610801565b60010180546001600160a01b0319166001600160a01b03939093169290921790915550565b600080610426610801565b805460408051637eb7113160e01b815290519293506001600160a01b0390911691637eb71131916004808201926020929091908290030181865afa15801561032f573d6000803e3d6000fd5b60008061047d610801565b80549091506001600160a01b031663d955759d61049861041b565b6040518263ffffffff1660e01b81526004016104b691815260200190565b602060405180830381865afa1580156104d3573d6000803e3d6000fd5b505050506040513d601f19601f820116820180604052508101906104f79190610dc1565b6001600160401b031691505090565b604080516080810182526001600160a01b03808716825285166020820152908101839052606081018290526000610547858761054186610df2565b85610825565b50505050505050565b610558610b4c565b6000610562610801565b8054604051631d9df61760e11b81529192506001600160a01b031690633b3bec2e90610592908690600401610d24565b61010060405180830381865afa1580156105b0573d6000803e3d6000fd5b505050506040513d601f19601f820116820180604052508101906102d09190610e58565b6000806105df610801565b80549091506001600160a01b0316639fa83b5a61049861041b565b6000610604610801565b8054604051630dd3126d60e21b81529192506000916001600160a01b039091169063374c49b490610639903090600401610d24565b602060405180830381865afa158015610656573d6000803e3d6000fd5b505050506040513d601f19601f8201168201806040525081019061067a9190610d5a565b604080516080810182526001600160a01b03808716825287166020820152600091810182905260608101839052919250610547868661054186610df2565b60006106c2610801565b80546001600160a01b0319166001600160a01b03939093169290921790915550565b60006106ee610801565b805460405163095ea7b360e01b81529192506001600160a01b038086169263095ea7b3926107229216908690600401610f04565b6020604051808303816000875af1158015610741573d6000803e3d6000fd5b505050506040513d601f19601f820116820180604052508101906107659190610d38565b508054604051631e573fb760e31b81526001600160a01b039091169063f2b9fdb8906107979086908690600401610f04565b600060405180830381600087803b1580156107b157600080fd5b505af1158015610547573d6000803e3d6000fd5b60006107cf610801565b805460405163f3fef3a360e01b81529192506001600160a01b03169063f3fef3a3906107979086908690600401610f04565b7fe5fae1d1655caf6698b8b944506b14651a3f414f8a67caa7b6a42e32816e934090565b60607f35c2975ab7d5366802ce2593b15dfef7ba0fb48f04ca0c021c862e3ccd408ea5600080806108568989610b0e565b6001600160a01b038083166000908152600789016020908152604080832084861684528252808320815160a08101835281548616815260018201548087168286015262ffffff600160a01b82041682850152600160b81b9004600290810b60608084019190915292015490951660808601528151908101825287151581529182018e9052959850939650919450929091908101866109125761090d600173fffd8963efd1fc6a506488495d951d5263988d26610f1d565b610922565b6109226401000276a36001610f3d565b6001600160a01b03168152509050808660010160008860040154815260200190815260200160002060008201518160000160006101000a81548160ff0219169083151502179055506020820151816001015560408201518160020160006101000a8154816001600160a01b0302191690836001600160a01b03160217905550905050878660030160008860040154815260200190815260200160002060008201518160000160006101000a8154816001600160a01b0302191690836001600160a01b0316021790555060208201518160010160006101000a8154816001600160a01b0302191690836001600160a01b03160217905550604082015181600201556060820151816003015590505060008660000160009054906101000a90046001600160a01b03166001600160a01b03166381548319338560028b60040154604051602001610a739493929190610f5d565b6040516020818303038152906040526040518263ffffffff1660e01b8152600401610a9e9190611004565b6000604051808303816000875af1158015610abd573d6000803e3d6000fd5b505050506040513d6000823e601f3d908101601f19168201604052610ae59190810190611037565b6004880180549192506000610af9836110e3565b90915550909c9b505050505050505050505050565b6000806000836001600160a01b0316856001600160a01b03161015610b3b57506001915083905082610b45565b5060009150829050835b9250925092565b6040805161010081018252600080825260208201819052918101829052606081018290526080810182905260a0810182905260c0810182905260e081019190915290565b6001600160a01b03811681146101e557600080fd5b600060208284031215610bb757600080fd5b81356102d081610b90565b60008060008060808587031215610bd857600080fd5b8435610be381610b90565b93506020850135610bf381610b90565b93969395505050506040820135916060013590565b815160ff1681526020808301516001600160a01b0390811691830191909152604080840151909116908201526060808301516001600160401b031690820152608080830151610100830191610c67908401826001600160401b03169052565b5060a0830151610c8260a08401826001600160401b03169052565b5060c0830151610c9d60c08401826001600160401b03169052565b5060e0830151610cb860e08401826001600160801b03169052565b5092915050565b60008060408385031215610cd257600080fd5b8235610cdd81610b90565b91506020830135610ced81610b90565b809150509250929050565b60008060408385031215610d0b57600080fd5b8235610d1681610b90565b946020939093013593505050565b6001600160a01b0391909116815260200190565b600060208284031215610d4a57600080fd5b815180151581146102d057600080fd5b600060208284031215610d6c57600080fd5b5051919050565b80516001600160801b0381168114610d8a57600080fd5b919050565b600060208284031215610da157600080fd5b6102d082610d73565b80516001600160401b0381168114610d8a57600080fd5b600060208284031215610dd357600080fd5b6102d082610daa565b634e487b7160e01b600052601160045260246000fd5b6000600160ff1b8201610e0757610e07610ddc565b5060000390565b634e487b7160e01b600052604160045260246000fd5b60405161010081016001600160401b0381118282101715610e4757610e47610e0e565b60405290565b8051610d8a81610b90565b60006101008284031215610e6b57600080fd5b610e73610e24565b825160ff81168114610e8457600080fd5b8152610e9260208401610e4d565b6020820152610ea360408401610e4d565b6040820152610eb460608401610daa565b6060820152610ec560808401610daa565b6080820152610ed660a08401610daa565b60a0820152610ee760c08401610daa565b60c0820152610ef860e08401610d73565b60e08201529392505050565b6001600160a01b03929092168252602082015260400190565b6001600160a01b03828116828216039080821115610cb857610cb8610ddc565b6001600160a01b03818116838216019080821115610cb857610cb8610ddc565b60006101008201905060018060a01b03808716835280865116602084015280602087015116604084015262ffffff6040870151166060840152606086015160020b60808401528060808701511660a08401525060038410610fce57634e487b7160e01b600052602160045260246000fd5b60c082019390935260e0015292915050565b60005b83811015610ffb578181015183820152602001610fe3565b50506000910152565b6020815260008251806020840152611023816040850160208701610fe0565b601f01601f19169190910160400192915050565b60006020828403121561104957600080fd5b81516001600160401b038082111561106057600080fd5b818401915084601f83011261107457600080fd5b81518181111561108657611086610e0e565b604051601f8201601f19908116603f011681019083821181831017156110ae576110ae610e0e565b816040528281528760208487010111156110c757600080fd5b6110d8836020830160208801610fe0565b979650505050505050565b6000600182016110f5576110f5610ddc565b506001019056fea2646970667358221220ca362d2f793699c55a428404601ec9d35c196c49b615c81832322e101ba0337364736f6c63430008140033",
  "linkReferences": {},
  "deployedLinkReferences": {}
}