{
  "_format": "hh-sol-artifact-1",
  "contractName": "LeverageFacet",
  "sourceName": "contracts/Facets/LeverageFacet.sol",
  "abi": [
    {
      "inputs": [],
      "name": "leverageUp",
      "outputs": [],
      "stateMutability": "nonpayable",
      "type": "function"
    }
  ],
  "bytecode": "0x6080604052348015600f57600080fd5b50606580601d6000396000f3fe6080604052348015600f57600080fd5b506004361060285760003560e01c806385abf55214602d575b600080fd5b00fea2646970667358221220c71481ac0151ac68bf518a832b6f41dc097740537e57e212edeb9cbd4d062dc764736f6c63430008140033",
  "linkReferences": {},
  "deployedLinkReferences": {}
}