{
  "_format": "hh-sol-artifact-1",
  "contractName": "CurrencyLibrary",
  "sourceName": "@uniswap/v4-core/contracts/types/Currency.sol",
  "abi": [
    {
      "inputs": [],
      "name": "ERC20TransferFailed",
      "type": "error"
    },
    {
      "inputs": [],
      "name": "NativeTransferFailed",
      "type": "error"
    },
    {
      "inputs": [],
      "name": "NATIVE",
      "outputs": [
        {
          "internalType": "Currency",
          "name": "",
          "type": "address"
        }
      ],
      "stateMutability": "view",
      "type": "function"
    }
  ],
  "bytecode": "0x6091610038600b82828239805160001a607314602b57634e487b7160e01b600052600060045260246000fd5b30600052607381538281f3fe730000000000000000000000000000000000000000301460806040526004361060335760003560e01c8063a0cf0aea146038575b600080fd5b603f600081565b6040516001600160a01b03909116815260200160405180910390f3fea26469706673582212207c0cacb0d6704db7eba0bbede25828e220eeb0cd0eeb626f0e09b80803bf8bd664736f6c63430008140033",
  "linkReferences": {},
  "deployedLinkReferences": {}
}