{
  "_format": "hh-sol-artifact-1",
  "contractName": "DiamondMultiInit",
  "sourceName": "contracts/upgradeIntializers/DiamondMultiInit.sol",
  "abi": [
    {
      "inputs": [
        {
          "internalType": "uint256",
          "name": "_addressesLength",
          "type": "uint256"
        },
        {
          "internalType": "uint256",
          "name": "_calldataLength",
          "type": "uint256"
        }
      ],
      "name": "AddressAndCalldataLengthDoNotMatch",
      "type": "error"
    },
    {
      "inputs": [
        {
          "internalType": "address",
          "name": "_initializationContractAddress",
          "type": "address"
        },
        {
          "internalType": "bytes",
          "name": "_calldata",
          "type": "bytes"
        }
      ],
      "name": "InitializationFunctionReverted",
      "type": "error"
    },
    {
      "inputs": [
        {
          "internalType": "address",
          "name": "_contractAddress",
          "type": "address"
        },
        {
          "internalType": "string",
          "name": "_message",
          "type": "string"
        }
      ],
      "name": "NoBytecodeAtAddress",
      "type": "error"
    },
    {
      "inputs": [
        {
          "internalType": "address[]",
          "name": "_addresses",
          "type": "address[]"
        },
        {
          "internalType": "bytes[]",
          "name": "_calldata",
          "type": "bytes[]"
        }
      ],
      "name": "multiInit",
      "outputs": [],
      "stateMutability": "nonpayable",
      "type": "function"
    }
  ],
  "bytecode": "0x608060405234801561001057600080fd5b5061051b806100206000396000f3fe608060405234801561001057600080fd5b506004361061002b5760003560e01c80636e02fa3c14610030575b600080fd5b61004361003e366004610264565b610045565b005b828114610072576040516339a070b360e11b815261006990849083906004016102e3565b60405180910390fd5b60005b838110156101175761010585858381811061009257610092610305565b90506020020160208101906100a79190610350565b8484848181106100b9576100b9610305565b90506020028101906100cb9190610379565b8080601f01602080910402602001604051908101604052809392919081815260200183838082843760009201919091525061011e92505050565b8061010f816103ed565b915050610075565b5050505050565b6001600160a01b038216610130575050565b610152826040518060600160405280602881526020016104be602891396101ea565b600080836001600160a01b03168360405161016d9190610456565b600060405180830381855af49150503d80600081146101a8576040519150601f19603f3d011682016040523d82523d6000602084013e6101ad565b606091505b5091509150816101e4578051156101c75780518082602001fd5b838360405163192105d760e01b815260040161006992919061049d565b50505050565b813b8061020e57828260405163919834b960e01b815260040161006992919061049d565b505050565b60008083601f84011261022857610228600080fd5b5081356001600160401b0381111561024257610242600080fd5b60208301915083602082028301111561025d5761025d600080fd5b9250929050565b6000806000806040858703121561027d5761027d600080fd5b84356001600160401b0381111561029657610296600080fd5b6102a287828801610213565b945094505060208501356001600160401b038111156102c3576102c3600080fd5b6102cf87828801610213565b95989497509550505050565b805b82525050565b604081016102f182856102db565b6102fe60208301846102db565b9392505050565b634e487b7160e01b600052603260045260246000fd5b60006001600160a01b0382165b92915050565b6103378161031b565b811461034257600080fd5b50565b80356103288161032e565b60006020828403121561036557610365600080fd5b60006103718484610345565b949350505050565b6000808335601e193685900301811261039457610394600080fd5b8084019250823591506001600160401b038211156103b4576103b4600080fd5b6020830192506001820236038313156103cf576103cf600080fd5b509250929050565b634e487b7160e01b600052601160045260246000fd5b6000600019821415610401576104016103d7565b5060010190565b60005b8381101561042357818101518382015260200161040b565b838111156101e45750506000910152565b600061043e825190565b61044c818560208601610408565b9290920192915050565b60006102fe8284610434565b6102dd8161031b565b6000610475825190565b80845260208401935061048c818560208601610408565b601f01601f19169290920192915050565b604081016104ab8285610462565b8181036020830152610371818461046b56fe4c69624469616d6f6e644375743a205f696e6974206164647265737320686173206e6f20636f6465a2646970667358221220c5cc64a53a633b5a268320f5d68f6aaa353e43fc96aba101c63004b5db7292d564736f6c634300080a0033",
  "linkReferences": {},
  "deployedLinkReferences": {}
}