{
  "_format": "hh-sol-artifact-1",
  "contractName": "HookFacet",
  "sourceName": "contracts/Facets/HookFacet.sol",
  "abi": [
    {
      "inputs": [],
      "name": "HookNotImplemented",
      "type": "error"
    },
    {
      "inputs": [
        {
          "internalType": "address",
          "name": "",
          "type": "address"
        },
        {
          "components": [
            {
              "internalType": "Currency",
              "name": "currency0",
              "type": "address"
            },
            {
              "internalType": "Currency",
              "name": "currency1",
              "type": "address"
            },
            {
              "internalType": "uint24",
              "name": "fee",
              "type": "uint24"
            },
            {
              "internalType": "int24",
              "name": "tickSpacing",
              "type": "int24"
            },
            {
              "internalType": "contract IHooks",
              "name": "hooks",
              "type": "address"
            }
          ],
          "internalType": "struct PoolKey",
          "name": "",
          "type": "tuple"
        },
        {
          "internalType": "uint256",
          "name": "",
          "type": "uint256"
        },
        {
          "internalType": "uint256",
          "name": "",
          "type": "uint256"
        },
        {
          "internalType": "bytes",
          "name": "",
          "type": "bytes"
        }
      ],
      "name": "afterDonate",
      "outputs": [
        {
          "internalType": "bytes4",
          "name": "",
          "type": "bytes4"
        }
      ],
      "stateMutability": "nonpayable",
      "type": "function"
    },
    {
      "inputs": [
        {
          "internalType": "address",
          "name": "",
          "type": "address"
        },
        {
          "components": [
            {
              "internalType": "Currency",
              "name": "currency0",
              "type": "address"
            },
            {
              "internalType": "Currency",
              "name": "currency1",
              "type": "address"
            },
            {
              "internalType": "uint24",
              "name": "fee",
              "type": "uint24"
            },
            {
              "internalType": "int24",
              "name": "tickSpacing",
              "type": "int24"
            },
            {
              "internalType": "contract IHooks",
              "name": "hooks",
              "type": "address"
            }
          ],
          "internalType": "struct PoolKey",
          "name": "",
          "type": "tuple"
        },
        {
          "internalType": "uint160",
          "name": "",
          "type": "uint160"
        },
        {
          "internalType": "int24",
          "name": "",
          "type": "int24"
        },
        {
          "internalType": "bytes",
          "name": "",
          "type": "bytes"
        }
      ],
      "name": "afterInitialize",
      "outputs": [
        {
          "internalType": "bytes4",
          "name": "",
          "type": "bytes4"
        }
      ],
      "stateMutability": "nonpayable",
      "type": "function"
    },
    {
      "inputs": [
        {
          "internalType": "address",
          "name": "",
          "type": "address"
        },
        {
          "components": [
            {
              "internalType": "Currency",
              "name": "currency0",
              "type": "address"
            },
            {
              "internalType": "Currency",
              "name": "currency1",
              "type": "address"
            },
            {
              "internalType": "uint24",
              "name": "fee",
              "type": "uint24"
            },
            {
              "internalType": "int24",
              "name": "tickSpacing",
              "type": "int24"
            },
            {
              "internalType": "contract IHooks",
              "name": "hooks",
              "type": "address"
            }
          ],
          "internalType": "struct PoolKey",
          "name": "",
          "type": "tuple"
        },
        {
          "components": [
            {
              "internalType": "int24",
              "name": "tickLower",
              "type": "int24"
            },
            {
              "internalType": "int24",
              "name": "tickUpper",
              "type": "int24"
            },
            {
              "internalType": "int256",
              "name": "liquidityDelta",
              "type": "int256"
            }
          ],
          "internalType": "struct IPoolManager.ModifyPositionParams",
          "name": "",
          "type": "tuple"
        },
        {
          "internalType": "BalanceDelta",
          "name": "",
          "type": "int256"
        },
        {
          "internalType": "bytes",
          "name": "",
          "type": "bytes"
        }
      ],
      "name": "afterModifyPosition",
      "outputs": [
        {
          "internalType": "bytes4",
          "name": "",
          "type": "bytes4"
        }
      ],
      "stateMutability": "nonpayable",
      "type": "function"
    },
    {
      "inputs": [
        {
          "internalType": "address",
          "name": "",
          "type": "address"
        },
        {
          "components": [
            {
              "internalType": "Currency",
              "name": "currency0",
              "type": "address"
            },
            {
              "internalType": "Currency",
              "name": "currency1",
              "type": "address"
            },
            {
              "internalType": "uint24",
              "name": "fee",
              "type": "uint24"
            },
            {
              "internalType": "int24",
              "name": "tickSpacing",
              "type": "int24"
            },
            {
              "internalType": "contract IHooks",
              "name": "hooks",
              "type": "address"
            }
          ],
          "internalType": "struct PoolKey",
          "name": "",
          "type": "tuple"
        },
        {
          "components": [
            {
              "internalType": "bool",
              "name": "zeroForOne",
              "type": "bool"
            },
            {
              "internalType": "int256",
              "name": "amountSpecified",
              "type": "int256"
            },
            {
              "internalType": "uint160",
              "name": "sqrtPriceLimitX96",
              "type": "uint160"
            }
          ],
          "internalType": "struct IPoolManager.SwapParams",
          "name": "",
          "type": "tuple"
        },
        {
          "internalType": "BalanceDelta",
          "name": "",
          "type": "int256"
        },
        {
          "internalType": "bytes",
          "name": "",
          "type": "bytes"
        }
      ],
      "name": "afterSwap",
      "outputs": [
        {
          "internalType": "bytes4",
          "name": "",
          "type": "bytes4"
        }
      ],
      "stateMutability": "nonpayable",
      "type": "function"
    },
    {
      "inputs": [
        {
          "internalType": "address",
          "name": "",
          "type": "address"
        },
        {
          "components": [
            {
              "internalType": "Currency",
              "name": "currency0",
              "type": "address"
            },
            {
              "internalType": "Currency",
              "name": "currency1",
              "type": "address"
            },
            {
              "internalType": "uint24",
              "name": "fee",
              "type": "uint24"
            },
            {
              "internalType": "int24",
              "name": "tickSpacing",
              "type": "int24"
            },
            {
              "internalType": "contract IHooks",
              "name": "hooks",
              "type": "address"
            }
          ],
          "internalType": "struct PoolKey",
          "name": "",
          "type": "tuple"
        },
        {
          "internalType": "uint256",
          "name": "",
          "type": "uint256"
        },
        {
          "internalType": "uint256",
          "name": "",
          "type": "uint256"
        },
        {
          "internalType": "bytes",
          "name": "",
          "type": "bytes"
        }
      ],
      "name": "beforeDonate",
      "outputs": [
        {
          "internalType": "bytes4",
          "name": "",
          "type": "bytes4"
        }
      ],
      "stateMutability": "nonpayable",
      "type": "function"
    },
    {
      "inputs": [
        {
          "internalType": "address",
          "name": "",
          "type": "address"
        },
        {
          "components": [
            {
              "internalType": "Currency",
              "name": "currency0",
              "type": "address"
            },
            {
              "internalType": "Currency",
              "name": "currency1",
              "type": "address"
            },
            {
              "internalType": "uint24",
              "name": "fee",
              "type": "uint24"
            },
            {
              "internalType": "int24",
              "name": "tickSpacing",
              "type": "int24"
            },
            {
              "internalType": "contract IHooks",
              "name": "hooks",
              "type": "address"
            }
          ],
          "internalType": "struct PoolKey",
          "name": "",
          "type": "tuple"
        },
        {
          "internalType": "uint160",
          "name": "",
          "type": "uint160"
        },
        {
          "internalType": "bytes",
          "name": "",
          "type": "bytes"
        }
      ],
      "name": "beforeInitialize",
      "outputs": [
        {
          "internalType": "bytes4",
          "name": "",
          "type": "bytes4"
        }
      ],
      "stateMutability": "nonpayable",
      "type": "function"
    },
    {
      "inputs": [
        {
          "internalType": "address",
          "name": "",
          "type": "address"
        },
        {
          "components": [
            {
              "internalType": "Currency",
              "name": "currency0",
              "type": "address"
            },
            {
              "internalType": "Currency",
              "name": "currency1",
              "type": "address"
            },
            {
              "internalType": "uint24",
              "name": "fee",
              "type": "uint24"
            },
            {
              "internalType": "int24",
              "name": "tickSpacing",
              "type": "int24"
            },
            {
              "internalType": "contract IHooks",
              "name": "hooks",
              "type": "address"
            }
          ],
          "internalType": "struct PoolKey",
          "name": "",
          "type": "tuple"
        },
        {
          "components": [
            {
              "internalType": "int24",
              "name": "tickLower",
              "type": "int24"
            },
            {
              "internalType": "int24",
              "name": "tickUpper",
              "type": "int24"
            },
            {
              "internalType": "int256",
              "name": "liquidityDelta",
              "type": "int256"
            }
          ],
          "internalType": "struct IPoolManager.ModifyPositionParams",
          "name": "",
          "type": "tuple"
        },
        {
          "internalType": "bytes",
          "name": "",
          "type": "bytes"
        }
      ],
      "name": "beforeModifyPosition",
      "outputs": [
        {
          "internalType": "bytes4",
          "name": "",
          "type": "bytes4"
        }
      ],
      "stateMutability": "nonpayable",
      "type": "function"
    },
    {
      "inputs": [
        {
          "internalType": "address",
          "name": "",
          "type": "address"
        },
        {
          "components": [
            {
              "internalType": "Currency",
              "name": "currency0",
              "type": "address"
            },
            {
              "internalType": "Currency",
              "name": "currency1",
              "type": "address"
            },
            {
              "internalType": "uint24",
              "name": "fee",
              "type": "uint24"
            },
            {
              "internalType": "int24",
              "name": "tickSpacing",
              "type": "int24"
            },
            {
              "internalType": "contract IHooks",
              "name": "hooks",
              "type": "address"
            }
          ],
          "internalType": "struct PoolKey",
          "name": "",
          "type": "tuple"
        },
        {
          "components": [
            {
              "internalType": "bool",
              "name": "zeroForOne",
              "type": "bool"
            },
            {
              "internalType": "int256",
              "name": "amountSpecified",
              "type": "int256"
            },
            {
              "internalType": "uint160",
              "name": "sqrtPriceLimitX96",
              "type": "uint160"
            }
          ],
          "internalType": "struct IPoolManager.SwapParams",
          "name": "",
          "type": "tuple"
        },
        {
          "internalType": "bytes",
          "name": "",
          "type": "bytes"
        }
      ],
      "name": "beforeSwap",
      "outputs": [
        {
          "internalType": "bytes4",
          "name": "",
          "type": "bytes4"
        }
      ],
      "stateMutability": "nonpayable",
      "type": "function"
    },
    {
      "inputs": [],
      "name": "getLeAwesomeCounter",
      "outputs": [
        {
          "internalType": "uint256",
          "name": "",
          "type": "uint256"
        }
      ],
      "stateMutability": "view",
      "type": "function"
    }
  ],
  "bytecode": "0x608060405234801561001057600080fd5b50610472806100206000396000f3fe608060405234801561001057600080fd5b50600436106100835760003560e01c806330b7cdef146100885780633440d820146100b9578063575e24b4146100cc578063a910f80f146100da578063b47b2fb114610088578063b6a8b0fa146100e8578063deb95a68146100f6578063e1b4af69146100e8578063fe9a6f45146100cc575b600080fd5b61009b610096366004610209565b61010c565b6040516001600160e01b031990911681526020015b60405180910390f35b61009b6100c736600461028e565b610121565b61009b6100c7366004610309565b61009b610096366004610367565b61009b6100963660046103de565b6100fe610135565b6040519081526020016100b0565b6000610116610164565b509695505050505050565b600061012b610164565b5095945050505050565b600061015f7ff3438885051c2d9738b375a323a098c058d6c0e57a376bd4989734002b250c465490565b905090565b6000604051630a85dc2960e01b815260040160405180910390fd5b6001600160a01b038116811461019457600080fd5b50565b600060a082840312156101a957600080fd5b50919050565b6000606082840312156101a957600080fd5b60008083601f8401126101d357600080fd5b5081356001600160401b038111156101ea57600080fd5b60208301915083602082850101111561020257600080fd5b9250929050565b600080600080600080610160878903121561022357600080fd5b863561022e8161017f565b955061023d8860208901610197565b945061024c8860c089016101af565b935061012087013592506101408701356001600160401b0381111561027057600080fd5b61027c89828a016101c1565b979a9699509497509295939492505050565b600080600080600061010086880312156102a757600080fd5b85356102b28161017f565b94506102c18760208801610197565b935060c08601356102d18161017f565b925060e08601356001600160401b038111156102ec57600080fd5b6102f8888289016101c1565b969995985093965092949392505050565b6000806000806000610140868803121561032257600080fd5b853561032d8161017f565b945061033c8760208801610197565b935061034b8760c088016101af565b92506101208601356001600160401b038111156102ec57600080fd5b600080600080600080610120878903121561038157600080fd5b863561038c8161017f565b955061039b8860208901610197565b945060c08701356103ab8161017f565b935060e0870135600281900b81146103c257600080fd5b92506101008701356001600160401b0381111561027057600080fd5b60008060008060008061012087890312156103f857600080fd5b86356104038161017f565b95506104128860208901610197565b945060c0870135935060e087013592506101008701356001600160401b0381111561027057600080fdfea26469706673582212203c7a21ea2adfb310b298a605aa538b8712fff0ad990c6c8aa4efef3e4db684f264736f6c63430008140033",
  "linkReferences": {},
  "deployedLinkReferences": {}
}