{
  "_format": "hh-sol-artifact-1",
  "contractName": "HookFacet",
  "sourceName": "contracts/Facets/HookFacet.sol",
  "abi": [
    {
      "inputs": [],
      "name": "HookNotImplemented",
      "type": "error"
    },
    {
      "inputs": [],
      "name": "InvalidTick",
      "type": "error"
    },
    {
      "inputs": [
        {
          "internalType": "address",
          "name": "",
          "type": "address"
        },
        {
          "components": [
            {
              "internalType": "Currency",
              "name": "currency0",
              "type": "address"
            },
            {
              "internalType": "Currency",
              "name": "currency1",
              "type": "address"
            },
            {
              "internalType": "uint24",
              "name": "fee",
              "type": "uint24"
            },
            {
              "internalType": "int24",
              "name": "tickSpacing",
              "type": "int24"
            },
            {
              "internalType": "contract IHooks",
              "name": "hooks",
              "type": "address"
            }
          ],
          "internalType": "struct PoolKey",
          "name": "",
          "type": "tuple"
        },
        {
          "internalType": "uint256",
          "name": "",
          "type": "uint256"
        },
        {
          "internalType": "uint256",
          "name": "",
          "type": "uint256"
        },
        {
          "internalType": "bytes",
          "name": "",
          "type": "bytes"
        }
      ],
      "name": "afterDonate",
      "outputs": [
        {
          "internalType": "bytes4",
          "name": "",
          "type": "bytes4"
        }
      ],
      "stateMutability": "nonpayable",
      "type": "function"
    },
    {
      "inputs": [
        {
          "internalType": "address",
          "name": "",
          "type": "address"
        },
        {
          "components": [
            {
              "internalType": "Currency",
              "name": "currency0",
              "type": "address"
            },
            {
              "internalType": "Currency",
              "name": "currency1",
              "type": "address"
            },
            {
              "internalType": "uint24",
              "name": "fee",
              "type": "uint24"
            },
            {
              "internalType": "int24",
              "name": "tickSpacing",
              "type": "int24"
            },
            {
              "internalType": "contract IHooks",
              "name": "hooks",
              "type": "address"
            }
          ],
          "internalType": "struct PoolKey",
          "name": "",
          "type": "tuple"
        },
        {
          "internalType": "uint160",
          "name": "",
          "type": "uint160"
        },
        {
          "internalType": "int24",
          "name": "",
          "type": "int24"
        },
        {
          "internalType": "bytes",
          "name": "",
          "type": "bytes"
        }
      ],
      "name": "afterInitialize",
      "outputs": [
        {
          "internalType": "bytes4",
          "name": "",
          "type": "bytes4"
        }
      ],
      "stateMutability": "nonpayable",
      "type": "function"
    },
    {
      "inputs": [
        {
          "internalType": "address",
          "name": "",
          "type": "address"
        },
        {
          "components": [
            {
              "internalType": "Currency",
              "name": "currency0",
              "type": "address"
            },
            {
              "internalType": "Currency",
              "name": "currency1",
              "type": "address"
            },
            {
              "internalType": "uint24",
              "name": "fee",
              "type": "uint24"
            },
            {
              "internalType": "int24",
              "name": "tickSpacing",
              "type": "int24"
            },
            {
              "internalType": "contract IHooks",
              "name": "hooks",
              "type": "address"
            }
          ],
          "internalType": "struct PoolKey",
          "name": "",
          "type": "tuple"
        },
        {
          "components": [
            {
              "internalType": "int24",
              "name": "tickLower",
              "type": "int24"
            },
            {
              "internalType": "int24",
              "name": "tickUpper",
              "type": "int24"
            },
            {
              "internalType": "int256",
              "name": "liquidityDelta",
              "type": "int256"
            }
          ],
          "internalType": "struct IPoolManager.ModifyPositionParams",
          "name": "",
          "type": "tuple"
        },
        {
          "internalType": "BalanceDelta",
          "name": "",
          "type": "int256"
        },
        {
          "internalType": "bytes",
          "name": "",
          "type": "bytes"
        }
      ],
      "name": "afterModifyPosition",
      "outputs": [
        {
          "internalType": "bytes4",
          "name": "",
          "type": "bytes4"
        }
      ],
      "stateMutability": "nonpayable",
      "type": "function"
    },
    {
      "inputs": [
        {
          "internalType": "address",
          "name": "sender",
          "type": "address"
        },
        {
          "components": [
            {
              "internalType": "Currency",
              "name": "currency0",
              "type": "address"
            },
            {
              "internalType": "Currency",
              "name": "currency1",
              "type": "address"
            },
            {
              "internalType": "uint24",
              "name": "fee",
              "type": "uint24"
            },
            {
              "internalType": "int24",
              "name": "tickSpacing",
              "type": "int24"
            },
            {
              "internalType": "contract IHooks",
              "name": "hooks",
              "type": "address"
            }
          ],
          "internalType": "struct PoolKey",
          "name": "key",
          "type": "tuple"
        },
        {
          "components": [
            {
              "internalType": "bool",
              "name": "zeroForOne",
              "type": "bool"
            },
            {
              "internalType": "int256",
              "name": "amountSpecified",
              "type": "int256"
            },
            {
              "internalType": "uint160",
              "name": "sqrtPriceLimitX96",
              "type": "uint160"
            }
          ],
          "internalType": "struct IPoolManager.SwapParams",
          "name": "params",
          "type": "tuple"
        },
        {
          "internalType": "BalanceDelta",
          "name": "delta",
          "type": "int256"
        },
        {
          "internalType": "bytes",
          "name": "hookData",
          "type": "bytes"
        }
      ],
      "name": "afterSwap",
      "outputs": [
        {
          "internalType": "bytes4",
          "name": "",
          "type": "bytes4"
        }
      ],
      "stateMutability": "nonpayable",
      "type": "function"
    },
    {
      "inputs": [
        {
          "internalType": "address",
          "name": "",
          "type": "address"
        },
        {
          "components": [
            {
              "internalType": "Currency",
              "name": "currency0",
              "type": "address"
            },
            {
              "internalType": "Currency",
              "name": "currency1",
              "type": "address"
            },
            {
              "internalType": "uint24",
              "name": "fee",
              "type": "uint24"
            },
            {
              "internalType": "int24",
              "name": "tickSpacing",
              "type": "int24"
            },
            {
              "internalType": "contract IHooks",
              "name": "hooks",
              "type": "address"
            }
          ],
          "internalType": "struct PoolKey",
          "name": "",
          "type": "tuple"
        },
        {
          "internalType": "uint256",
          "name": "",
          "type": "uint256"
        },
        {
          "internalType": "uint256",
          "name": "",
          "type": "uint256"
        },
        {
          "internalType": "bytes",
          "name": "",
          "type": "bytes"
        }
      ],
      "name": "beforeDonate",
      "outputs": [
        {
          "internalType": "bytes4",
          "name": "",
          "type": "bytes4"
        }
      ],
      "stateMutability": "nonpayable",
      "type": "function"
    },
    {
      "inputs": [
        {
          "internalType": "address",
          "name": "",
          "type": "address"
        },
        {
          "components": [
            {
              "internalType": "Currency",
              "name": "currency0",
              "type": "address"
            },
            {
              "internalType": "Currency",
              "name": "currency1",
              "type": "address"
            },
            {
              "internalType": "uint24",
              "name": "fee",
              "type": "uint24"
            },
            {
              "internalType": "int24",
              "name": "tickSpacing",
              "type": "int24"
            },
            {
              "internalType": "contract IHooks",
              "name": "hooks",
              "type": "address"
            }
          ],
          "internalType": "struct PoolKey",
          "name": "",
          "type": "tuple"
        },
        {
          "internalType": "uint160",
          "name": "",
          "type": "uint160"
        },
        {
          "internalType": "bytes",
          "name": "",
          "type": "bytes"
        }
      ],
      "name": "beforeInitialize",
      "outputs": [
        {
          "internalType": "bytes4",
          "name": "",
          "type": "bytes4"
        }
      ],
      "stateMutability": "nonpayable",
      "type": "function"
    },
    {
      "inputs": [
        {
          "internalType": "address",
          "name": "",
          "type": "address"
        },
        {
          "components": [
            {
              "internalType": "Currency",
              "name": "currency0",
              "type": "address"
            },
            {
              "internalType": "Currency",
              "name": "currency1",
              "type": "address"
            },
            {
              "internalType": "uint24",
              "name": "fee",
              "type": "uint24"
            },
            {
              "internalType": "int24",
              "name": "tickSpacing",
              "type": "int24"
            },
            {
              "internalType": "contract IHooks",
              "name": "hooks",
              "type": "address"
            }
          ],
          "internalType": "struct PoolKey",
          "name": "",
          "type": "tuple"
        },
        {
          "components": [
            {
              "internalType": "int24",
              "name": "tickLower",
              "type": "int24"
            },
            {
              "internalType": "int24",
              "name": "tickUpper",
              "type": "int24"
            },
            {
              "internalType": "int256",
              "name": "liquidityDelta",
              "type": "int256"
            }
          ],
          "internalType": "struct IPoolManager.ModifyPositionParams",
          "name": "",
          "type": "tuple"
        },
        {
          "internalType": "bytes",
          "name": "",
          "type": "bytes"
        }
      ],
      "name": "beforeModifyPosition",
      "outputs": [
        {
          "internalType": "bytes4",
          "name": "",
          "type": "bytes4"
        }
      ],
      "stateMutability": "nonpayable",
      "type": "function"
    },
    {
      "inputs": [
        {
          "internalType": "address",
          "name": "",
          "type": "address"
        },
        {
          "components": [
            {
              "internalType": "Currency",
              "name": "currency0",
              "type": "address"
            },
            {
              "internalType": "Currency",
              "name": "currency1",
              "type": "address"
            },
            {
              "internalType": "uint24",
              "name": "fee",
              "type": "uint24"
            },
            {
              "internalType": "int24",
              "name": "tickSpacing",
              "type": "int24"
            },
            {
              "internalType": "contract IHooks",
              "name": "hooks",
              "type": "address"
            }
          ],
          "internalType": "struct PoolKey",
          "name": "",
          "type": "tuple"
        },
        {
          "components": [
            {
              "internalType": "bool",
              "name": "zeroForOne",
              "type": "bool"
            },
            {
              "internalType": "int256",
              "name": "amountSpecified",
              "type": "int256"
            },
            {
              "internalType": "uint160",
              "name": "sqrtPriceLimitX96",
              "type": "uint160"
            }
          ],
          "internalType": "struct IPoolManager.SwapParams",
          "name": "",
          "type": "tuple"
        },
        {
          "internalType": "bytes",
          "name": "",
          "type": "bytes"
        }
      ],
      "name": "beforeSwap",
      "outputs": [
        {
          "internalType": "bytes4",
          "name": "",
          "type": "bytes4"
        }
      ],
      "stateMutability": "nonpayable",
      "type": "function"
    },
    {
      "inputs": [
        {
          "internalType": "address",
          "name": "",
          "type": "address"
        },
        {
          "components": [
            {
              "internalType": "Currency",
              "name": "currency0",
              "type": "address"
            },
            {
              "internalType": "Currency",
              "name": "currency1",
              "type": "address"
            },
            {
              "internalType": "uint24",
              "name": "fee",
              "type": "uint24"
            },
            {
              "internalType": "int24",
              "name": "tickSpacing",
              "type": "int24"
            },
            {
              "internalType": "contract IHooks",
              "name": "hooks",
              "type": "address"
            }
          ],
          "internalType": "struct PoolKey",
          "name": "",
          "type": "tuple"
        },
        {
          "components": [
            {
              "internalType": "bool",
              "name": "zeroForOne",
              "type": "bool"
            },
            {
              "internalType": "int256",
              "name": "amountSpecified",
              "type": "int256"
            },
            {
              "internalType": "uint160",
              "name": "sqrtPriceLimitX96",
              "type": "uint160"
            }
          ],
          "internalType": "struct IPoolManager.SwapParams",
          "name": "",
          "type": "tuple"
        },
        {
          "internalType": "bytes",
          "name": "",
          "type": "bytes"
        }
      ],
      "name": "getFee",
      "outputs": [
        {
          "internalType": "uint24",
          "name": "",
          "type": "uint24"
        }
      ],
      "stateMutability": "view",
      "type": "function"
    },
    {
      "inputs": [],
      "name": "getHooksCalls",
      "outputs": [
        {
          "components": [
            {
              "internalType": "bool",
              "name": "beforeInitialize",
              "type": "bool"
            },
            {
              "internalType": "bool",
              "name": "afterInitialize",
              "type": "bool"
            },
            {
              "internalType": "bool",
              "name": "beforeModifyPosition",
              "type": "bool"
            },
            {
              "internalType": "bool",
              "name": "afterModifyPosition",
              "type": "bool"
            },
            {
              "internalType": "bool",
              "name": "beforeSwap",
              "type": "bool"
            },
            {
              "internalType": "bool",
              "name": "afterSwap",
              "type": "bool"
            },
            {
              "internalType": "bool",
              "name": "beforeDonate",
              "type": "bool"
            },
            {
              "internalType": "bool",
              "name": "afterDonate",
              "type": "bool"
            }
          ],
          "internalType": "struct Hooks.Calls",
          "name": "",
          "type": "tuple"
        }
      ],
      "stateMutability": "pure",
      "type": "function"
    },
    {
      "inputs": [],
      "name": "getLeAwesomeCounter",
      "outputs": [
        {
          "internalType": "uint256",
          "name": "",
          "type": "uint256"
        }
      ],
      "stateMutability": "view",
      "type": "function"
    }
  ],
  "bytecode": "0x608060405234801561001057600080fd5b50611851806100206000396000f3fe608060405234801561001057600080fd5b50600436106100995760003560e01c80632ab7a3e21461009e57806330b7cdef146100d15780633440d820146100fd578063575e24b414610110578063612c39b71461011e578063a910f80f14610133578063b47b2fb114610141578063b6a8b0fa14610154578063deb95a6814610162578063e1b4af6914610154578063fe9a6f4514610178575b600080fd5b6100b86100ac366004611062565b610bb895945050505050565b60405162ffffff90911681526020015b60405180910390f35b6100e46100df3660046110dd565b61018b565b6040516001600160e01b031990911681526020016100c8565b6100e461010b366004611162565b6101a0565b6100e461010b366004611062565b6101266101b4565b6040516100c891906111c0565b6100e46100df366004611258565b6100e461014f3660046110dd565b6101c9565b6100e46100df3660046112c8565b61016a6101f5565b6040519081526020016100c8565b6100e4610186366004611062565b6101ff565b600061019561021b565b509695505050505050565b60006101aa61021b565b5095945050505050565b6101bc610f37565b6101c4610236565b905090565b60006101ea6101dd3688900388018861137d565b63b47b2fb160e01b610286565b979650505050505050565b60006101c4610492565b600061021163fe9a6f4560e01b6104a7565b9695505050505050565b6000604051630a85dc2960e01b815260040160405180910390fd5b61023e610f37565b5060408051610100810182526000808252602082018190526001928201839052606082018190526080820181905260a082019290925260c0810182905260e081019190915290565b6000806102916104d2565b9050600061029d6104f6565b6001830180549192507f35c2975ab7d5366802ce2593b15dfef7ba0fb48f04ca0c021c862e3ccd408ea5919060006102d48361142a565b919050555060006102e48761051a565b8254604051633205590760e21b8152600481018390529192506000916001600160a01b039091169063c815641c90602401608060405180830381865afa158015610332573d6000803e3d6000fd5b505050506040513d601f19601f820116820180604052508101906103569190611443565b505091505061036481610590565b6001600160a01b031660028601556006840154610100900460ff16610483576040805180820190915260068152650d8cadccee8d60d31b602082015260048501546103af91906108a8565b60005b60048501548110156104815761046e8560040182815481106103d6576103d66114a2565b9060005260206000200180546103eb906114b8565b80601f0160208091040260200160405190810160405280929190818152602001828054610417906114b8565b80156104645780601f1061043957610100808354040283529160200191610464565b820191906000526020600020905b81548152906001019060200180831161044757829003601f168201915b50505050506108f1565b50806104798161142a565b9150506103b2565b505b86955050505050505b92915050565b60008061049d6104d2565b6001015492915050565b6000806104b26104d2565b60018101805491925060006104c68361142a565b90915550929392505050565b7ff3438885051c2d9738b375a323a098c058d6c0e57a376bd4989734002b250c4590565b7f4bc1672041418a922447d83c0efd37e6707ed20ab7e53ca3f20ce1d16cac307590565b600081604051602001610573919081516001600160a01b03908116825260208084015182169083015260408084015162ffffff169083015260608084015160020b90830152608092830151169181019190915260a00190565b604051602081830303815290604052805190602001209050919050565b60008060008360020b126105a7578260020b6105af565b8260020b6000035b9050620d89e88111156105d5576040516333a3bdff60e21b815260040160405180910390fd5b6000816001166000036105ec57600160801b6105fe565b6ffffcb933bd6fad37aa2d162d1a5940015b6001600160881b031690506002821615610628576ffff97272373d413259a46990580e213a0260801c5b6004821615610647576ffff2e50f5f656932ef12357cf3c7fdcc0260801c5b6008821615610666576fffe5caca7e10e4e61c3624eaa0941cd00260801c5b6010821615610685576fffcb9843d60f6159c9db58835c9266440260801c5b60208216156106a4576fff973b41fa98c081472e6896dfb254c00260801c5b60408216156106c3576fff2ea16466c96a3843ec78b326b528610260801c5b60808216156106e2576ffe5dee046a99a2a811c461f1969c30530260801c5b610100821615610702576ffcbe86c7900a88aedcffc83b479aa3a40260801c5b610200821615610722576ff987a7253ac413176f2b074cf7815e540260801c5b610400821615610742576ff3392b0822b70005940c7a398e4b70f30260801c5b610800821615610762576fe7159475a2c29b7443b29c7fa6e889d90260801c5b611000821615610782576fd097f3bdfd2022b8845ad8f792aa58250260801c5b6120008216156107a2576fa9f746462d870fdf8a65dc1f90e061e50260801c5b6140008216156107c2576f70d869a156d2a1b890bb3df62baf32f70260801c5b6180008216156107e2576f31be135f97d08fd981231505542fcfa60260801c5b62010000821615610803576f09aa508b5b7a84e1c677de54f3e99bc90260801c5b62020000821615610823576e5d6af8dedb81196699c329225ee6040260801c5b62040000821615610842576d2216e584f5fa1ea926041bedfe980260801c5b6208000082161561085f576b048a170391f7dc42444e8fa20260801c5b60008460020b131561088057806000198161087c5761087c6114ec565b0490505b600160201b810615610893576001610896565b60005b60ff16602082901c0192505050919050565b6108ed82826040516024016108be929190611552565b60408051601f198184030181529190526020810180516001600160e01b0316632d839cb360e21b17905261099e565b5050565b606060006108fd6104f6565b60068101805461ffff1916610101179055905060008061091c856109aa565b91509150600061092b826109ca565b965090506109398382610a50565b94506003865110806109505750600684015460ff16155b1561097f57845161096a9060018601906020880190610f7b565b50505050600601805461ff0019169055919050565b6109898587610e60565b9550610994866108f1565b5050505050919050565b6109a781610e8c565b50565b606080828060200190518101906109c191906115df565b91509150915091565b602081015160608060005b600585516109e391906116a9565b811015610a475781856109f78360056116bc565b81518110610a0757610a076114a2565b602001015160f81c60f81b604051602001610a239291906116cf565b60405160208183030381529060405291508080610a3f9061142a565b9150506109d5565b50919391925050565b606081600f600482811a9081901c82169116836000838103610af05760408051600481526024810182526020810180516001600160e01b03166001600160e01b0319891617905290513091610aa4916116fe565b6000604051808303816000865af19150503d8060008114610ae1576040519150601f19603f3d011682016040523d82523d6000602084013e610ae6565b606091505b5092509050610b92565b306001600160a01b03168589604051602401610b0c9190611755565b60408051601f198184030181529181526020820180516001600160e01b03166001600160e01b0319909416939093179092529051610b4a91906116fe565b6000604051808303816000865af19150503d8060008114610b87576040519150601f19603f3d011682016040523d82523d6000602084013e610b8c565b606091505b50925090505b8260ff16600003610bec5760408051600180825281830190925260009160208083019080368337019050509050600081600081518110610bd457610bd46114a2565b6020908102919091010152955061048c945050505050565b8260ff16600103610c8557600082806020019051810190610c0d919061176f565b905060008460ff166001600160401b03811115610c2c57610c2c611326565b604051908082528060200260200182016040528015610c55578160200160208202803683370190505b5090508181600081518110610c6c57610c6c6114a2565b6020908102919091010152965061048c95505050505050565b8260ff16600203610d7357610cb7604051806040016040528060068152602001654265666f726560d01b815250610ead565b60008083806020019051810190610cce9190611788565b91509150610cdc8282610ef0565b60008560ff166001600160401b03811115610cf957610cf9611326565b604051908082528060200260200182016040528015610d22578160200160208202803683370190505b5090508281600081518110610d3957610d396114a2565b6020026020010181815250508181600181518110610d5957610d596114a2565b6020908102919091010152975061048c9650505050505050565b8260ff16600303610e5557600080600084806020019051810190610d9791906117ac565b92509250925060008660ff166001600160401b03811115610dba57610dba611326565b604051908082528060200260200182016040528015610de3578160200160208202803683370190505b5090508381600081518110610dfa57610dfa6114a2565b6020026020010181815250508281600181518110610e1a57610e1a6114a2565b6020026020010181815250508181600281518110610e3a57610e3a6114a2565b6020908102919091010152985061048c975050505050505050565b505050505092915050565b6040518190610e7590849083906020016117da565b604051602081830303815290604052905092915050565b60006a636f6e736f6c652e6c6f679050600080835160208501845afa505050565b6109a781604051602401610ec19190611808565b60408051601f198184030181529190526020810180516001600160e01b031663104c13eb60e21b17905261099e565b60405160248101839052604481018290526108ed9060640160408051601f198184030181529190526020810180516001600160e01b0316637b3338ad60e11b17905261099e565b6040805161010081018252600080825260208201819052918101829052606081018290526080810182905260a0810182905260c0810182905260e081019190915290565b828054828255906000526020600020908101928215610fb6579160200282015b82811115610fb6578251825591602001919060010190610f9b565b50610fc2929150610fc6565b5090565b5b80821115610fc25760008155600101610fc7565b6001600160a01b03811681146109a757600080fd5b600060a0828403121561100257600080fd5b50919050565b60006060828403121561100257600080fd5b60008083601f84011261102c57600080fd5b5081356001600160401b0381111561104357600080fd5b60208301915083602082850101111561105b57600080fd5b9250929050565b6000806000806000610140868803121561107b57600080fd5b853561108681610fdb565b94506110958760208801610ff0565b93506110a48760c08801611008565b92506101208601356001600160401b038111156110c057600080fd5b6110cc8882890161101a565b969995985093965092949392505050565b60008060008060008061016087890312156110f757600080fd5b863561110281610fdb565b95506111118860208901610ff0565b94506111208860c08901611008565b935061012087013592506101408701356001600160401b0381111561114457600080fd5b61115089828a0161101a565b979a9699509497509295939492505050565b6000806000806000610100868803121561117b57600080fd5b853561118681610fdb565b94506111958760208801610ff0565b935060c08601356111a581610fdb565b925060e08601356001600160401b038111156110c057600080fd5b6000610100820190508251151582526020830151151560208301526040830151151560408301526060830151151560608301526080830151611206608084018215159052565b5060a083015161121a60a084018215159052565b5060c083015161122e60c084018215159052565b5060e083015161124260e084018215159052565b5092915050565b8060020b81146109a757600080fd5b600080600080600080610120878903121561127257600080fd5b863561127d81610fdb565b955061128c8860208901610ff0565b945060c087013561129c81610fdb565b935060e08701356112ac81611249565b92506101008701356001600160401b0381111561114457600080fd5b60008060008060008061012087890312156112e257600080fd5b86356112ed81610fdb565b95506112fc8860208901610ff0565b945060c0870135935060e087013592506101008701356001600160401b0381111561114457600080fd5b634e487b7160e01b600052604160045260246000fd5b604051601f8201601f191681016001600160401b038111828210171561136457611364611326565b604052919050565b62ffffff811681146109a757600080fd5b600060a0828403121561138f57600080fd5b60405160a081016001600160401b03811182821017156113b1576113b1611326565b60405282356113bf81610fdb565b815260208301356113cf81610fdb565b602082015260408301356113e28161136c565b604082015260608301356113f581611249565b6060820152608083013561140881610fdb565b60808201529392505050565b634e487b7160e01b600052601160045260246000fd5b60006001820161143c5761143c611414565b5060010190565b6000806000806080858703121561145957600080fd5b845161146481610fdb565b602086015190945061147581611249565b60408601519093506114868161136c565b60608601519092506114978161136c565b939692955090935050565b634e487b7160e01b600052603260045260246000fd5b600181811c908216806114cc57607f821691505b60208210810361100257634e487b7160e01b600052602260045260246000fd5b634e487b7160e01b600052601260045260246000fd5b60005b8381101561151d578181015183820152602001611505565b50506000910152565b6000815180845261153e816020860160208601611502565b601f01601f19169290920160200192915050565b6040815260006115656040830185611526565b90508260208301529392505050565b600082601f83011261158557600080fd5b81516001600160401b0381111561159e5761159e611326565b6115b1601f8201601f191660200161133c565b8181528460208386010111156115c657600080fd5b6115d7826020830160208701611502565b949350505050565b600080604083850312156115f257600080fd5b82516001600160401b038082111561160957600080fd5b818501915085601f83011261161d57600080fd5b815160208282111561163157611631611326565b8160051b61164082820161133c565b928352848101820192828101908a85111561165a57600080fd5b958301955b848710156116785786518252958301959083019061165f565b928901519297509194505050508082111561169257600080fd5b5061169f85828601611574565b9150509250929050565b8181038181111561048c5761048c611414565b8082018082111561048c5761048c611414565b600083516116e1818460208801611502565b6001600160f81b0319939093169190920190815260010192915050565b60008251611710818460208701611502565b9190910192915050565b600081518084526020808501945080840160005b8381101561174a5781518752958201959082019060010161172e565b509495945050505050565b602081526000611768602083018461171a565b9392505050565b60006020828403121561178157600080fd5b5051919050565b6000806040838503121561179b57600080fd5b505080516020909101519092909150565b6000806000606084860312156117c157600080fd5b8351925060208401519150604084015190509250925092565b6040815260006117ed604083018561171a565b82810360208401526117ff8185611526565b95945050505050565b602081526000611768602083018461152656fea26469706673582212208e1d63e0ca70e92135f24a5468d0648384cfc14d8667c56fc1c2d9952a14558364736f6c63430008140033",
  "linkReferences": {},
  "deployedLinkReferences": {}
}