{
  "address": "0x66946Ddfa082AAf20ff32cee2A4433b8a49F5BDb",
  "abi": [
    {
      "inputs": [],
      "name": "getCounter",
      "outputs": [
        {
          "internalType": "uint256",
          "name": "",
          "type": "uint256"
        }
      ],
      "stateMutability": "view",
      "type": "function"
    },
    {
      "inputs": [],
      "name": "handle",
      "outputs": [],
      "stateMutability": "nonpayable",
      "type": "function"
    },
    {
      "inputs": [
        {
          "internalType": "uint32",
          "name": "domain",
          "type": "uint32"
        },
        {
          "internalType": "uint256",
          "name": "gasAmount",
          "type": "uint256"
        }
      ],
      "name": "hitEmUp",
      "outputs": [],
      "stateMutability": "payable",
      "type": "function"
    },
    {
      "inputs": [],
      "name": "interchainSecurityModule",
      "outputs": [
        {
          "internalType": "address",
          "name": "",
          "type": "address"
        }
      ],
      "stateMutability": "view",
      "type": "function"
    },
    {
      "inputs": [
        {
          "internalType": "uint256",
          "name": "domainID",
          "type": "uint256"
        },
        {
          "internalType": "address",
          "name": "recipentAddy",
          "type": "address"
        }
      ],
      "name": "setDomainToAddress",
      "outputs": [],
      "stateMutability": "nonpayable",
      "type": "function"
    },
    {
      "inputs": [
        {
          "internalType": "address",
          "name": "localIGP",
          "type": "address"
        }
      ],
      "name": "setGasMaster",
      "outputs": [],
      "stateMutability": "nonpayable",
      "type": "function"
    },
    {
      "inputs": [
        {
          "internalType": "address",
          "name": "ism",
          "type": "address"
        }
      ],
      "name": "setISM",
      "outputs": [],
      "stateMutability": "nonpayable",
      "type": "function"
    },
    {
      "inputs": [
        {
          "internalType": "address",
          "name": "maiLBox",
          "type": "address"
        }
      ],
      "name": "setMailBox",
      "outputs": [],
      "stateMutability": "nonpayable",
      "type": "function"
    }
  ],
  "transactionHash": "0x85db773b2f183e95de40270ad50c636c81e103cbc88aa195fb4938abf8c25467",
  "args": [],
  "numDeployments": 1,
  "solcInputHash": "8d503a1c4c23ab5ce17d08185836559c",
  "bytecode": "0x608060405234801561001057600080fd5b506105d3806100206000396000f3fe60806040526004361061006b5760003560e01c80632c2cd749146100705780635871836714610092578063759524ed146100a55780638ada066e146100c5578063cc4c515d146100ed578063de4a787f1461010d578063de523cf31461012d578063fd0da0991461014f575b600080fd5b34801561007c57600080fd5b5061009061008b366004610463565b610164565b005b6100906100a0366004610485565b610170565b3480156100b157600080fd5b506100906100c0366004610463565b61017e565b3480156100d157600080fd5b506100da610187565b6040519081526020015b60405180910390f35b3480156100f957600080fd5b506100906101083660046104ba565b610196565b34801561011957600080fd5b50610090610128366004610463565b6101a0565b34801561013957600080fd5b506101426101a9565b6040516100e491906104e6565b34801561015b57600080fd5b506100906101b3565b61016d816101bd565b50565b61017a82826101e9565b5050565b61016d81610333565b6000610191610362565b905090565b61017a8282610377565b61016d816103b1565b60006101916103e0565b6101bb6103fe565b565b60006101c7610423565b80546001600160a01b0319166001600160a01b03939093169290921790915550565b60006101f3610423565b8054600182015463ffffffff861660009081526003840160205260408120549394506001600160a01b039283169391831692909116908363fa31de0188843360405160200161024291906104e6565b6040516020818303038152906040526040518463ffffffff1660e01b815260040161026f939291906104fa565b6020604051808303816000875af115801561028e573d6000803e3d6000fd5b505050506040513d601f19601f820116820180604052508101906102b2919061055d565b604051630237e58360e31b81526004810182905263ffffffff89166024820152604481018890523360648201529091506001600160a01b038416906311bf2c189034906084016000604051808303818588803b15801561031157600080fd5b505af1158015610325573d6000803e3d6000fd5b505050505050505050505050565b600061033d610423565b60010180546001600160a01b0319166001600160a01b03939093169290921790915550565b60008061036d610423565b6004015492915050565b6000610381610423565b600093845260030160205250604090912080546001600160a01b0319166001600160a01b03909216919091179055565b60006103bb610423565b60020180546001600160a01b0319166001600160a01b03939093169290921790915550565b6000806103eb610423565b600201546001600160a01b031692915050565b6000610408610423565b90508060040154600161041b9190610576565b600490910155565b7f34fbc1afd8e1b9169b38b6c80a52777e06873abc0d2b3f992f7608bdf1bf6ade90565b80356001600160a01b038116811461045e57600080fd5b919050565b60006020828403121561047557600080fd5b61047e82610447565b9392505050565b6000806040838503121561049857600080fd5b823563ffffffff811681146104ac57600080fd5b946020939093013593505050565b600080604083850312156104cd57600080fd5b823591506104dd60208401610447565b90509250929050565b6001600160a01b0391909116815260200190565b63ffffffff8416815260006020848184015260606040840152835180606085015260005b8181101561053a5785810183015185820160800152820161051e565b506000608082860101526080601f19601f83011685010192505050949350505050565b60006020828403121561056f57600080fd5b5051919050565b8082018082111561059757634e487b7160e01b600052601160045260246000fd5b9291505056fea26469706673582212203509374df1f6115495c102e6677a3855ebf00ac55b9befd30d78c46508879ab764736f6c63430008140033",
  "devdoc": {
    "kind": "dev",
    "methods": {},
    "version": 1
  },
  "userdoc": {
    "kind": "user",
    "methods": {},
    "version": 1
  },
  "storageLayout": {
    "storage": [],
    "types": null
  }
}