{
  "_format": "hh-sol-artifact-1",
  "contractName": "HyperFacet",
  "sourceName": "contracts/Facets/Hyperlane/HyperFacet.sol",
  "abi": [
    {
      "inputs": [
        {
          "internalType": "uint256",
          "name": "domainID",
          "type": "uint256"
        }
      ],
      "name": "getAddressForDomain",
      "outputs": [
        {
          "internalType": "address",
          "name": "",
          "type": "address"
        }
      ],
      "stateMutability": "view",
      "type": "function"
    },
    {
      "inputs": [],
      "name": "getCounter",
      "outputs": [
        {
          "internalType": "uint256",
          "name": "",
          "type": "uint256"
        }
      ],
      "stateMutability": "view",
      "type": "function"
    },
    {
      "inputs": [],
      "name": "getGasMaster",
      "outputs": [
        {
          "internalType": "address",
          "name": "",
          "type": "address"
        }
      ],
      "stateMutability": "view",
      "type": "function"
    },
    {
      "inputs": [
        {
          "internalType": "uint32",
          "name": "domain",
          "type": "uint32"
        },
        {
          "internalType": "uint256",
          "name": "amount",
          "type": "uint256"
        }
      ],
      "name": "getQuote",
      "outputs": [
        {
          "internalType": "uint256",
          "name": "",
          "type": "uint256"
        }
      ],
      "stateMutability": "view",
      "type": "function"
    },
    {
      "inputs": [
        {
          "internalType": "uint32",
          "name": "_origin",
          "type": "uint32"
        },
        {
          "internalType": "bytes32",
          "name": "_sender",
          "type": "bytes32"
        },
        {
          "internalType": "bytes",
          "name": "_body",
          "type": "bytes"
        }
      ],
      "name": "handle",
      "outputs": [],
      "stateMutability": "nonpayable",
      "type": "function"
    },
    {
      "inputs": [
        {
          "internalType": "uint32",
          "name": "domain",
          "type": "uint32"
        },
        {
          "internalType": "uint256",
          "name": "gasAmount",
          "type": "uint256"
        },
        {
          "internalType": "uint256",
          "name": "_value",
          "type": "uint256"
        }
      ],
      "name": "hitEmUp",
      "outputs": [],
      "stateMutability": "payable",
      "type": "function"
    },
    {
      "inputs": [],
      "name": "interchainSecurityModule",
      "outputs": [
        {
          "internalType": "address",
          "name": "",
          "type": "address"
        }
      ],
      "stateMutability": "view",
      "type": "function"
    },
    {
      "inputs": [],
      "name": "moduleType",
      "outputs": [
        {
          "internalType": "uint8",
          "name": "",
          "type": "uint8"
        }
      ],
      "stateMutability": "pure",
      "type": "function"
    },
    {
      "inputs": [
        {
          "internalType": "uint256",
          "name": "domainID",
          "type": "uint256"
        },
        {
          "internalType": "address",
          "name": "recipentAddy",
          "type": "address"
        }
      ],
      "name": "setDomainToAddress",
      "outputs": [],
      "stateMutability": "nonpayable",
      "type": "function"
    },
    {
      "inputs": [
        {
          "internalType": "address",
          "name": "localIGP",
          "type": "address"
        }
      ],
      "name": "setGasMaster",
      "outputs": [],
      "stateMutability": "nonpayable",
      "type": "function"
    },
    {
      "inputs": [
        {
          "internalType": "address",
          "name": "maiLBox",
          "type": "address"
        }
      ],
      "name": "setMailBox",
      "outputs": [],
      "stateMutability": "nonpayable",
      "type": "function"
    },
    {
      "inputs": [
        {
          "internalType": "bytes",
          "name": "_metadata",
          "type": "bytes"
        },
        {
          "internalType": "bytes",
          "name": "_message",
          "type": "bytes"
        }
      ],
      "name": "verify",
      "outputs": [
        {
          "internalType": "bool",
          "name": "",
          "type": "bool"
        }
      ],
      "stateMutability": "nonpayable",
      "type": "function"
    }
  ],
  "bytecode": "0x608060405234801561001057600080fd5b50611567806100206000396000f3fe6080604052600436106100975760003560e01c80632c2cd7491461009c57806337e935fb146100be5780633bdfa826146100d157806346b1a3421461010757806356d5d4751461011c5780636465e69f1461013c578063759524ed146101585780638ada066e14610178578063b0cbd4d61461019b578063cc4c515d146101bb578063de523cf3146101db578063f7e83aee146101ee575b600080fd5b3480156100a857600080fd5b506100bc6100b7366004610fb4565b61021e565b005b6100bc6100cc366004610fe3565b61022a565b3480156100dd57600080fd5b506100f16100ec366004611016565b61023a565b6040516100fe919061102f565b60405180910390f35b34801561011357600080fd5b506100f161024b565b34801561012857600080fd5b506100bc61013736600461108b565b61025a565b34801561014857600080fd5b50604051600681526020016100fe565b34801561016457600080fd5b506100bc610173366004610fb4565b610268565b34801561018457600080fd5b5061018d610271565b6040519081526020016100fe565b3480156101a757600080fd5b5061018d6101b63660046110e4565b61027b565b3480156101c757600080fd5b506100bc6101d636600461110e565b61028e565b3480156101e757600080fd5b50306100f1565b3480156101fa57600080fd5b5061020e61020936600461113a565b61029c565b60405190151581526020016100fe565b610227816102b5565b50565b6102358383836102e1565b505050565b60006102458261042c565b92915050565b6000610255610455565b905090565b610262610473565b50505050565b61022781610498565b60006102556104c7565b600061028783836104dc565b9392505050565b610298828261056e565b5050565b60006102aa858585856105a8565b90505b949350505050565b60006102bf61063a565b80546001600160a01b0319166001600160a01b03939093169290921790915550565b60006102eb61063a565b8054600182015463ffffffff871660009081526002840160205260408120549394506001600160a01b039283169391831692909116908363fa31de0189843360405160200161033a919061102f565b6040516020818303038152906040526040518463ffffffff1660e01b8152600401610367939291906111e9565b6020604051808303816000875af1158015610386573d6000803e3d6000fd5b505050506040513d601f19601f820116820180604052508101906103aa919061120e565b604051630237e58360e31b81526004810182905263ffffffff8a166024820152604481018990523360648201529091506001600160a01b038416906311bf2c189088906084016000604051808303818588803b15801561040957600080fd5b505af115801561041d573d6000803e3d6000fd5b50505050505050505050505050565b60008061043761063a565b6000938452600201602052505060409020546001600160a01b031690565b60008061046061063a565b600101546001600160a01b031692915050565b600061047d61063a565b905080600301546001610490919061123d565b600390910155565b60006104a261063a565b60010180546001600160a01b0319166001600160a01b03939093169290921790915550565b6000806104d261063a565b6003015492915050565b6000806104e761063a565b600181015460405163a692979360e01b815263ffffffff87166004820152602481018690529192506001600160a01b031690819063a692979390604401602060405180830381865afa158015610541573d6000803e3d6000fd5b505050506040513d601f19601f82011682018060405250810190610565919061120e565b95945050505050565b600061057861063a565b600093845260020160205250604090912080546001600160a01b0319166001600160a01b03909216919091179055565b6000806105b361063a565b905060006105bf61065e565b905060018260030160008282546105d6919061123d565b909155505080546001600160a01b03161561062d576003820154600061060682610600888a611250565b30610682565b905080600384016000610619898b611250565b815260208101919091526040016000205550505b5060019695505050505050565b7f34fbc1afd8e1b9169b38b6c80a52777e06873abc0d2b3f992f7608bdf1bf6ade90565b7f16649c8924f5903fda94e8001436d5b66bc9e9a70208d5245edfc147a57b508690565b60008061068d61065e565b90506001600160a01b038316156106a457826106a6565b335b81546005830154604051634360af3d60e01b81529295506000926001600160a01b0392831692634360af3d926106e19291169060040161102f565b602060405180830381865afa1580156106fe573d6000803e3d6000fd5b505050506040513d601f19601f82011682018060405250810190610722919061120e565b600583015490915061073f906001600160a01b03163330846108cf565b6005820154825461075d916001600160a01b0390811691168361093a565b81546001600160a01b0316636457c97961077687610a54565b61077f89610a54565b61078888610a95565b61079142610ae7565b61079a30610a95565b6040516020016107ae95949392919061128a565b60408051601f198184030181529082905260058601546004808801546001600160e01b031960e087901b1685526107ff948b933093600093603c936001600160a01b03909316928c928691016113b3565b6020604051808303816000875af115801561081e573d6000803e3d6000fd5b505050506040513d601f19601f82011682018060405250810190610842919061120e565b6040805160808101825297885260208089019788526001600160a01b03968716898301908152600060608b01818152858252600188810185529482209b518c5599518b850155905160029a8b0180549a511515600160a01b026001600160a81b0319909b169190991617989098179096559690920180549687018155855250919092209092018290555090565b6040516001600160a01b03808516602483015283166044820152606481018290526102629085906323b872dd60e01b906084015b60408051601f198184030181529190526020810180516001600160e01b03166001600160e01b031990931692909217909152610c12565b8015806109b45750604051636eb1769f60e11b81523060048201526001600160a01b03838116602483015284169063dd62ed3e90604401602060405180830381865afa15801561098e573d6000803e3d6000fd5b505050506040513d601f19601f820116820180604052508101906109b2919061120e565b155b610a245760405162461bcd60e51b815260206004820152603660248201527f5361666545524332303a20617070726f76652066726f6d206e6f6e2d7a65726f60448201527520746f206e6f6e2d7a65726f20616c6c6f77616e636560501b60648201526084015b60405180910390fd5b6040516001600160a01b03831660248201526044810182905261023590849063095ea7b360e01b90606401610903565b6060610a63608083901c610ce7565b610a6c83610ce7565b6040805160208101939093528201526060015b6040516020818303038152906040529050919050565b6060610aad6001600160801b03602084901c16610ce7565b610ac38360601b6001600160601b031916610ce7565b604051602001610a7f9291909182526001600160c01b031916602082015260280190565b606081600003610b0e5750506040805180820190915260018152600360fc1b602082015290565b8160005b8115610b385780610b2281611420565b9150610b319050600a8361144f565b9150610b12565b6000816001600160401b03811115610b5257610b52611471565b6040519080825280601f01601f191660200182016040528015610b7c576020820181803683370190505b509050815b8515610c0957610b92600182611487565b90506000610ba1600a8861144f565b610bac90600a61149a565b610bb69088611487565b610bc19060306114b1565b905060008160f81b905080848481518110610bde57610bde6114ca565b60200101906001600160f81b031916908160001a905350610c00600a8961144f565b97505050610b81565b50949350505050565b6000610c67826040518060400160405280602081526020017f5361666545524332303a206c6f772d6c6576656c2063616c6c206661696c6564815250856001600160a01b0316610e759092919063ffffffff16565b9050805160001480610c88575080806020019051810190610c8891906114e0565b6102355760405162461bcd60e51b815260206004820152602a60248201527f5361666545524332303a204552433230206f7065726174696f6e20646964206e6044820152691bdd081cdd58d8d9595960b21b6064820152608401610a1b565b6000808260001c9050806001600160801b0316905080600160401b0281176001600160401b03600160801b03600160c01b0316905080600160201b0281177bffffffff00000000ffffffff00000000ffffffff00000000ffffffff16905080620100000281177dffff0000ffff0000ffff0000ffff0000ffff0000ffff0000ffff0000ffff169050806101000281177eff00ff00ff00ff00ff00ff00ff00ff00ff00ff00ff00ff00ff00ff00ff00ff1690508060100281177f0f0f0f0f0f0f0f0f0f0f0f0f0f0f0f0f0f0f0f0f0f0f0f0f0f0f0f0f0f0f0f0f16905060006008827f08080808080808080808080808080808080808080808080808080808080808081681610df757610df7611439565b0460047f040404040404040404040404040404040404040404040404040404040404040484160460027f020202020202020202020202020202020202020202020202020202020202020285160417166027029091017f3030303030303030303030303030303030303030303030303030303030303030019392505050565b60606102ad848460008585600080866001600160a01b03168587604051610e9c9190611502565b60006040518083038185875af1925050503d8060008114610ed9576040519150601f19603f3d011682016040523d82523d6000602084013e610ede565b606091505b5091509150610eef87838387610efa565b979650505050505050565b60608315610f69578251600003610f62576001600160a01b0385163b610f625760405162461bcd60e51b815260206004820152601d60248201527f416464726573733a2063616c6c20746f206e6f6e2d636f6e74726163740000006044820152606401610a1b565b50816102ad565b6102ad8383815115610f7e5781518083602001fd5b8060405162461bcd60e51b8152600401610a1b919061151e565b80356001600160a01b0381168114610faf57600080fd5b919050565b600060208284031215610fc657600080fd5b61028782610f98565b803563ffffffff81168114610faf57600080fd5b600080600060608486031215610ff857600080fd5b61100184610fcf565b95602085013595506040909401359392505050565b60006020828403121561102857600080fd5b5035919050565b6001600160a01b0391909116815260200190565b60008083601f84011261105557600080fd5b5081356001600160401b0381111561106c57600080fd5b60208301915083602082850101111561108457600080fd5b9250929050565b600080600080606085870312156110a157600080fd5b6110aa85610fcf565b93506020850135925060408501356001600160401b038111156110cc57600080fd5b6110d887828801611043565b95989497509550505050565b600080604083850312156110f757600080fd5b61110083610fcf565b946020939093013593505050565b6000806040838503121561112157600080fd5b8235915061113160208401610f98565b90509250929050565b6000806000806040858703121561115057600080fd5b84356001600160401b038082111561116757600080fd5b61117388838901611043565b9096509450602087013591508082111561118c57600080fd5b506110d887828801611043565b60005b838110156111b457818101518382015260200161119c565b50506000910152565b600081518084526111d5816020860160208601611199565b601f01601f19169290920160200192915050565b63ffffffff841681528260208201526060604082015260006102aa60608301846111bd565b60006020828403121561122057600080fd5b5051919050565b634e487b7160e01b600052601160045260246000fd5b8082018082111561024557610245611227565b8035602083101561024557600019602084900360031b1b1692915050565b60008151611280818560208601611199565b9290920192915050565b70088c2e8c240c2e6e6cae4e8cac8744060f607b1b81526000865160206112b78260118601838c01611199565b6e040ccdee440c8c2e8c292c8744060f608b1b60119285019283015287516112e481838501848c01611199565b70040c2dcc840c2e6e6cae4e8cae4744060f607b1b920181810192909252865161131481603185018a8501611199565b6011818401019250506e01030ba103a34b6b2b9ba30b6b81d1608d1b81830152855161134681602f8501848a01611199565b600f818401019250507f20696e207468652044617461417373657274657220636f6e747261637420617481830152506204060f60eb1b60408201526113a7611391604383018661126e565b691034b9903b30b634b21760b11b8152600a0190565b98975050505050505050565b60006101208083526113c78184018d6111bd565b6001600160a01b039b8c166020850152998b166040840152505095881660608701526001600160401b039490941660808601529190951660a084015260c083019490945260e08201939093526101000191909152919050565b60006001820161143257611432611227565b5060010190565b634e487b7160e01b600052601260045260246000fd5b60008261146c57634e487b7160e01b600052601260045260246000fd5b500490565b634e487b7160e01b600052604160045260246000fd5b8181038181111561024557610245611227565b808202811582820484141761024557610245611227565b60ff818116838216019081111561024557610245611227565b634e487b7160e01b600052603260045260246000fd5b6000602082840312156114f257600080fd5b8151801515811461028757600080fd5b60008251611514818460208701611199565b9190910192915050565b60208152600061028760208301846111bd56fea264697066735822122067538d1353c9e9e2881f374ff8d1786230129fe9686b23fb8d572e4bd158467064736f6c63430008140033",
  "linkReferences": {},
  "deployedLinkReferences": {}
}