{
  "_format": "hh-sol-artifact-1",
  "contractName": "HyperLib",
  "sourceName": "contracts/Facets/Hyperlane/HyperFacet.sol",
  "abi": [
    {
      "inputs": [],
      "name": "gasCost",
      "outputs": [
        {
          "internalType": "uint256",
          "name": "",
          "type": "uint256"
        }
      ],
      "stateMutability": "view",
      "type": "function"
    }
  ],
  "bytecode": "0x6089610038600b82828239805160001a607314602b57634e487b7160e01b600052600060045260246000fd5b30600052607381538281f3fe730000000000000000000000000000000000000000301460806040526004361060335760003560e01c80631d5e3fe5146038575b600080fd5b6041620493e081565b60405190815260200160405180910390f3fea2646970667358221220d2b28fa58e640b6d15c94631a6b69cbb7d66be32c7595167a4b744332983e1f064736f6c63430008140033",
  "linkReferences": {},
  "deployedLinkReferences": {}
}