{
  "_format": "hh-sol-artifact-1",
  "contractName": "HyperFacet",
  "sourceName": "contracts/Facets/Hyperlane/HyperFacet.sol",
  "abi": [
    {
      "inputs": [
        {
          "internalType": "uint256",
          "name": "domainID",
          "type": "uint256"
        }
      ],
      "name": "getAddressForDomain",
      "outputs": [
        {
          "internalType": "address",
          "name": "",
          "type": "address"
        }
      ],
      "stateMutability": "view",
      "type": "function"
    },
    {
      "inputs": [],
      "name": "getCounter",
      "outputs": [
        {
          "internalType": "uint256",
          "name": "",
          "type": "uint256"
        }
      ],
      "stateMutability": "view",
      "type": "function"
    },
    {
      "inputs": [],
      "name": "getGasMaster",
      "outputs": [
        {
          "internalType": "address",
          "name": "",
          "type": "address"
        }
      ],
      "stateMutability": "view",
      "type": "function"
    },
    {
      "inputs": [
        {
          "internalType": "uint32",
          "name": "domain",
          "type": "uint32"
        },
        {
          "internalType": "uint256",
          "name": "amount",
          "type": "uint256"
        }
      ],
      "name": "getQuote",
      "outputs": [
        {
          "internalType": "uint256",
          "name": "",
          "type": "uint256"
        }
      ],
      "stateMutability": "view",
      "type": "function"
    },
    {
      "inputs": [
        {
          "internalType": "uint32",
          "name": "_origin",
          "type": "uint32"
        },
        {
          "internalType": "bytes32",
          "name": "_sender",
          "type": "bytes32"
        },
        {
          "internalType": "bytes",
          "name": "_body",
          "type": "bytes"
        }
      ],
      "name": "handle",
      "outputs": [],
      "stateMutability": "nonpayable",
      "type": "function"
    },
    {
      "inputs": [
        {
          "internalType": "uint32",
          "name": "domain",
          "type": "uint32"
        },
        {
          "internalType": "uint256",
          "name": "gasAmount",
          "type": "uint256"
        },
        {
          "internalType": "uint256",
          "name": "_value",
          "type": "uint256"
        }
      ],
      "name": "hitEmUp",
      "outputs": [],
      "stateMutability": "payable",
      "type": "function"
    },
    {
      "inputs": [],
      "name": "interchainSecurityModule",
      "outputs": [
        {
          "internalType": "address",
          "name": "",
          "type": "address"
        }
      ],
      "stateMutability": "view",
      "type": "function"
    },
    {
      "inputs": [],
      "name": "moduleType",
      "outputs": [
        {
          "internalType": "uint8",
          "name": "",
          "type": "uint8"
        }
      ],
      "stateMutability": "pure",
      "type": "function"
    },
    {
      "inputs": [
        {
          "internalType": "uint256[]",
          "name": "inputs",
          "type": "uint256[]"
        }
      ],
      "name": "sendDataArbGoerli",
      "outputs": [],
      "stateMutability": "nonpayable",
      "type": "function"
    },
    {
      "inputs": [
        {
          "internalType": "uint256[]",
          "name": "inputs",
          "type": "uint256[]"
        }
      ],
      "name": "sendDataBase",
      "outputs": [],
      "stateMutability": "nonpayable",
      "type": "function"
    },
    {
      "inputs": [
        {
          "internalType": "uint256[]",
          "name": "inputs",
          "type": "uint256[]"
        }
      ],
      "name": "sendDataGnosis",
      "outputs": [],
      "stateMutability": "nonpayable",
      "type": "function"
    },
    {
      "inputs": [
        {
          "internalType": "uint256[]",
          "name": "inputs",
          "type": "uint256[]"
        }
      ],
      "name": "sendDataGoerli",
      "outputs": [],
      "stateMutability": "nonpayable",
      "type": "function"
    },
    {
      "inputs": [
        {
          "internalType": "uint256[]",
          "name": "inputs",
          "type": "uint256[]"
        }
      ],
      "name": "sendDataMumbai",
      "outputs": [],
      "stateMutability": "nonpayable",
      "type": "function"
    },
    {
      "inputs": [
        {
          "internalType": "uint256",
          "name": "domainID",
          "type": "uint256"
        },
        {
          "internalType": "address",
          "name": "recipentAddy",
          "type": "address"
        }
      ],
      "name": "setDomainToAddress",
      "outputs": [],
      "stateMutability": "nonpayable",
      "type": "function"
    },
    {
      "inputs": [
        {
          "internalType": "address",
          "name": "localIGP",
          "type": "address"
        }
      ],
      "name": "setGasMaster",
      "outputs": [],
      "stateMutability": "nonpayable",
      "type": "function"
    },
    {
      "inputs": [
        {
          "internalType": "address",
          "name": "maiLBox",
          "type": "address"
        }
      ],
      "name": "setMailBox",
      "outputs": [],
      "stateMutability": "nonpayable",
      "type": "function"
    },
    {
      "inputs": [
        {
          "internalType": "bytes",
          "name": "_metadata",
          "type": "bytes"
        },
        {
          "internalType": "bytes",
          "name": "_message",
          "type": "bytes"
        }
      ],
      "name": "verify",
      "outputs": [
        {
          "internalType": "bool",
          "name": "",
          "type": "bool"
        }
      ],
      "stateMutability": "nonpayable",
      "type": "function"
    }
  ],
  "bytecode": "0x608060405234801561001057600080fd5b50611d78806100206000396000f3fe6080604052600436106100ce5760003560e01c8063125a2eca146100d35780632c2cd749146100f557806336da5fde1461011557806337e935fb146101355780633bdfa826146101485780633c84448c1461017e57806346b1a3421461019e578063476c94cd146101b357806356d5d475146101d3578063645bdfce146101f35780636465e69f14610213578063759524ed1461022f5780638ada066e1461024f578063b0cbd4d614610272578063cc4c515d14610292578063de523cf3146102b2578063f7e83aee146102c5575b600080fd5b3480156100df57600080fd5b506100f36100ee36600461147b565b6102f5565b005b34801561010157600080fd5b506100f3610110366004611525565b610301565b34801561012157600080fd5b506100f361013036600461147b565b61030a565b6100f361014336600461155b565b610313565b34801561015457600080fd5b5061016861016336600461158e565b610323565b60405161017591906115a7565b60405180910390f35b34801561018a57600080fd5b506100f361019936600461147b565b610334565b3480156101aa57600080fd5b5061016861033d565b3480156101bf57600080fd5b506100f36101ce36600461147b565b61034c565b3480156101df57600080fd5b506100f36101ee366004611603565b610355565b3480156101ff57600080fd5b506100f361020e36600461147b565b610367565b34801561021f57600080fd5b5060405160068152602001610175565b34801561023b57600080fd5b506100f361024a366004611525565b610370565b34801561025b57600080fd5b50610264610379565b604051908152602001610175565b34801561027e57600080fd5b5061026461028d36600461165c565b610383565b34801561029e57600080fd5b506100f36102ad366004611686565b610396565b3480156102be57600080fd5b5030610168565b3480156102d157600080fd5b506102e56102e03660046116b6565b6103a4565b6040519015158152602001610175565b6102fe816103bb565b50565b6102fe816103fe565b6102fe8161042a565b61031e83838361043b565b505050565b600061032e8261057d565b92915050565b6102fe816105a6565b60006103476105b9565b905090565b6102fe816105d7565b610361848484846105ea565b50505050565b6102fe81610617565b6102fe8161062a565b6000610347610659565b600061038f838361066e565b9392505050565b6103a082826106f7565b5050565b60006103b285858585610731565b95945050505050565b606460006103cc8262061a8061066e565b905060006103d861078a565b905060006103e6858361082b565b90506103f78462061a808584610857565b5050505050565b600061040861099c565b80546001600160a01b0319166001600160a01b03939093169290921790915550565b600560006103cc8262061a8061066e565b600061044561099c565b8054600182015463ffffffff871660009081526002840160205260408120549394506001600160a01b039283169391831692909116908363fa31de018961048b856109c0565b3360405160200161049c91906115a7565b6040516020818303038152906040526040518463ffffffff1660e01b81526004016104c993929190611765565b6020604051808303816000875af11580156104e8573d6000803e3d6000fd5b505050506040513d601f19601f8201168201806040525081019061050c919061178a565b9050826001600160a01b03166311bf2c1887838b8b336040518663ffffffff1660e01b815260040161054194939291906117a3565b6000604051808303818588803b15801561055a57600080fd5b505af115801561056e573d6000803e3d6000fd5b50505050505050505050505050565b60008061058861099c565b6000938452600201602052505060409020546001600160a01b031690565b62066eed60006103cc8262061a8061066e565b6000806105c461099c565b600101546001600160a01b031692915050565b6201388160006103cc8262061a8061066e565b6105f26109cc565b600080610601838501856117f4565b9150915061060e816109f1565b50505050505050565b62014a3360006103cc8262061a8061066e565b600061063461099c565b60010180546001600160a01b0319166001600160a01b03939093169290921790915550565b60008061066461099c565b6003015492915050565b60008061067961099c565b600181015460405163a692979360e01b815263ffffffff87166004820152602481018690529192506001600160a01b031690819063a692979390604401602060405180830381865afa1580156106d3573d6000803e3d6000fd5b505050506040513d601f19601f820116820180604052508101906103b2919061178a565b600061070161099c565b600093845260020160205250604090912080546001600160a01b0319166001600160a01b03909216919091179055565b60008061073c61099c565b905060007f16649c8924f5903fda94e8001436d5b66bc9e9a70208d5245edfc147a57b5086905060018260030160008282546107789190611897565b90915550600198975050505050505050565b60606000610796610aad565b90508060070180546107a7906118aa565b80601f01602080910402602001604051908101604052809291908181526020018280546107d3906118aa565b80156108205780601f106107f557610100808354040283529160200191610820565b820191906000526020600020905b81548152906001019060200180831161080357829003601f168201915b505050505091505090565b6040518190610840908490839060200161191f565b604051602081830303815290604052905092915050565b600061086161099c565b8054600182015463ffffffff881660009081526002840160205260408120549394506001600160a01b039283169391831692909116908363fa31de018a6108a7856109c0565b338a6040516020016108ba929190611944565b6040516020818303038152906040526040518463ffffffff1660e01b81526004016108e793929190611765565b6020604051808303816000875af1158015610906573d6000803e3d6000fd5b505050506040513d601f19601f8201168201806040525081019061092a919061178a565b9050826001600160a01b03166311bf2c1888838c8c336040518663ffffffff1660e01b815260040161095f94939291906117a3565b6000604051808303818588803b15801561097857600080fd5b505af115801561098c573d6000803e3d6000fd5b5050505050505050505050505050565b7f34fbc1afd8e1b9169b38b6c80a52777e06873abc0d2b3f992f7608bdf1bf6ade90565b6001600160a01b031690565b60006109d661099c565b9050806003015460016109e99190611897565b600390910155565b606060006109fd610aad565b60068101805461ffff19166101011790559050600080610a1c85610ad1565b915091506000610a2b82610af1565b9650905060078401610a3d87826119be565b50610a488382610b77565b9450600386511080610a5f5750600684015460ff16155b15610a8e578451610a7990600186019060208801906113b2565b50505050600601805461ff0019169055919050565b610a98858761082b565b9550610aa3866109f1565b5050505050919050565b7f4bc1672041418a922447d83c0efd37e6707ed20ab7e53ca3f20ce1d16cac307590565b60608082806020019051810190610ae89190611ac2565b91509150915091565b602081015160608060005b60058551610b0a9190611b7d565b811015610b6e578185610b1e836005611897565b81518110610b2e57610b2e611b90565b602001015160f81c60f81b604051602001610b4a929190611ba6565b60405160208183030381529060405291508080610b6690611bd5565b915050610afc565b50919391925050565b606081600f600482811a9081901c82169116836000838103610c175760408051600481526024810182526020810180516001600160e01b03166001600160e01b0319891617905290513091610bcb91611bee565b6000604051808303816000865af19150503d8060008114610c08576040519150601f19603f3d011682016040523d82523d6000602084013e610c0d565b606091505b5092509050610cb9565b306001600160a01b03168589604051602401610c339190611c0a565b60408051601f198184030181529181526020820180516001600160e01b03166001600160e01b0319909416939093179092529051610c719190611bee565b6000604051808303816000865af19150503d8060008114610cae576040519150601f19603f3d011682016040523d82523d6000602084013e610cb3565b606091505b50925090505b8260ff16600003610d135760408051600180825281830190925260009160208083019080368337019050509050600081600081518110610cfb57610cfb611b90565b6020908102919091010152955061032e945050505050565b8260ff16600103610dac57600082806020019051810190610d34919061178a565b905060008460ff166001600160401b03811115610d5357610d53611412565b604051908082528060200260200182016040528015610d7c578160200160208202803683370190505b5090508181600081518110610d9357610d93611b90565b6020908102919091010152965061032e95505050505050565b8260ff16600203610e9a57610dde604051806040016040528060068152602001654265666f726560d01b815250611307565b60008083806020019051810190610df59190611c1d565b91509150610e03828261134a565b60008560ff166001600160401b03811115610e2057610e20611412565b604051908082528060200260200182016040528015610e49578160200160208202803683370190505b5090508281600081518110610e6057610e60611b90565b6020026020010181815250508181600181518110610e8057610e80611b90565b6020908102919091010152975061032e9650505050505050565b8260ff16600303610f7c57600080600084806020019051810190610ebe9190611c41565b92509250925060008660ff166001600160401b03811115610ee157610ee1611412565b604051908082528060200260200182016040528015610f0a578160200160208202803683370190505b5090508381600081518110610f2157610f21611b90565b6020026020010181815250508281600181518110610f4157610f41611b90565b6020026020010181815250508181600281518110610f6157610f61611b90565b6020908102919091010152985061032e975050505050505050565b8260ff166004036110825760008060008085806020019051810190610fa19190611c6f565b935093509350935060008760ff166001600160401b03811115610fc657610fc6611412565b604051908082528060200260200182016040528015610fef578160200160208202803683370190505b509050848160008151811061100657611006611b90565b602002602001018181525050838160018151811061102657611026611b90565b602002602001018181525050828160028151811061104657611046611b90565b602002602001018181525050818160038151811061106657611066611b90565b6020908102919091010152995061032e98505050505050505050565b8260ff166005036111ad576000806000806000868060200190518101906110a99190611ca5565b9450945094509450945060008860ff166001600160401b038111156110d0576110d0611412565b6040519080825280602002602001820160405280156110f9578160200160208202803683370190505b509050858160008151811061111057611110611b90565b602002602001018181525050848160018151811061113057611130611b90565b602002602001018181525050838160028151811061115057611150611b90565b602002602001018181525050828160038151811061117057611170611b90565b602002602001018181525050818160048151811061119057611190611b90565b60209081029190910101529a5061032e9950505050505050505050565b8260ff166006036112fc57600080600080600080878060200190518101906111d59190611ce5565b95509550955095509550955060008960ff166001600160401b038111156111fe576111fe611412565b604051908082528060200260200182016040528015611227578160200160208202803683370190505b509050868160008151811061123e5761123e611b90565b602002602001018181525050858160018151811061125e5761125e611b90565b602002602001018181525050848160028151811061127e5761127e611b90565b602002602001018181525050838160038151811061129e5761129e611b90565b60200260200101818152505082816004815181106112be576112be611b90565b60200260200101818152505081816006815181106112de576112de611b90565b60209081029190910101529b5061032e9a5050505050505050505050565b505050505092915050565b6102fe8160405160240161131b9190611d2f565b60408051601f198184030181529190526020810180516001600160e01b031663104c13eb60e21b17905261138d565b60405160248101839052604481018290526103a09060640160408051601f198184030181529190526020810180516001600160e01b0316637b3338ad60e11b1790525b6102fe8160006a636f6e736f6c652e6c6f679050600080835160208501845afa505050565b8280548282559060005260206000209081019282156113ed579160200282015b828111156113ed5782518255916020019190600101906113d2565b506113f99291506113fd565b5090565b5b808211156113f957600081556001016113fe565b634e487b7160e01b600052604160045260246000fd5b604051601f8201601f191681016001600160401b038111828210171561145057611450611412565b604052919050565b60006001600160401b0382111561147157611471611412565b5060051b60200190565b6000602080838503121561148e57600080fd5b82356001600160401b038111156114a457600080fd5b8301601f810185136114b557600080fd5b80356114c86114c382611458565b611428565b81815260059190911b820183019083810190878311156114e757600080fd5b928401925b82841015611505578335825292840192908401906114ec565b979650505050505050565b6001600160a01b03811681146102fe57600080fd5b60006020828403121561153757600080fd5b813561038f81611510565b803563ffffffff8116811461155657600080fd5b919050565b60008060006060848603121561157057600080fd5b61157984611542565b95602085013595506040909401359392505050565b6000602082840312156115a057600080fd5b5035919050565b6001600160a01b0391909116815260200190565b60008083601f8401126115cd57600080fd5b5081356001600160401b038111156115e457600080fd5b6020830191508360208285010111156115fc57600080fd5b9250929050565b6000806000806060858703121561161957600080fd5b61162285611542565b93506020850135925060408501356001600160401b0381111561164457600080fd5b611650878288016115bb565b95989497509550505050565b6000806040838503121561166f57600080fd5b61167883611542565b946020939093013593505050565b6000806040838503121561169957600080fd5b8235915060208301356116ab81611510565b809150509250929050565b600080600080604085870312156116cc57600080fd5b84356001600160401b03808211156116e357600080fd5b6116ef888389016115bb565b9096509450602087013591508082111561170857600080fd5b50611650878288016115bb565b60005b83811015611730578181015183820152602001611718565b50506000910152565b60008151808452611751816020860160208601611715565b601f01601f19169290920160200192915050565b63ffffffff841681528260208201526060604082015260006103b26060830184611739565b60006020828403121561179c57600080fd5b5051919050565b93845263ffffffff92909216602084015260408301526001600160a01b0316606082015260800190565b60006001600160401b038211156117e6576117e6611412565b50601f01601f191660200190565b6000806040838503121561180757600080fd5b823561181281611510565b915060208301356001600160401b0381111561182d57600080fd5b8301601f8101851361183e57600080fd5b803561184c6114c3826117cd565b81815286602083850101111561186157600080fd5b816020840160208301376000602083830101528093505050509250929050565b634e487b7160e01b600052601160045260246000fd5b8082018082111561032e5761032e611881565b600181811c908216806118be57607f821691505b6020821081036118de57634e487b7160e01b600052602260045260246000fd5b50919050565b600081518084526020808501945080840160005b83811015611914578151875295820195908201906001016118f8565b509495945050505050565b60408152600061193260408301856118e4565b82810360208401526103b28185611739565b6001600160a01b038316815260406020820181905260009061196890830184611739565b949350505050565b601f82111561031e57600081815260208120601f850160051c810160208610156119975750805b601f850160051c820191505b818110156119b6578281556001016119a3565b505050505050565b81516001600160401b038111156119d7576119d7611412565b6119eb816119e584546118aa565b84611970565b602080601f831160018114611a205760008415611a085750858301515b600019600386901b1c1916600185901b1785556119b6565b600085815260208120601f198616915b82811015611a4f57888601518255948401946001909101908401611a30565b5085821015611a6d5787850151600019600388901b60f8161c191681555b5050505050600190811b01905550565b600082601f830112611a8e57600080fd5b8151611a9c6114c3826117cd565b818152846020838601011115611ab157600080fd5b611968826020830160208701611715565b60008060408385031215611ad557600080fd5b82516001600160401b0380821115611aec57600080fd5b818501915085601f830112611b0057600080fd5b81516020611b106114c383611458565b82815260059290921b84018101918181019089841115611b2f57600080fd5b948201945b83861015611b4d57855182529482019490820190611b34565b91880151919650909350505080821115611b6657600080fd5b50611b7385828601611a7d565b9150509250929050565b8181038181111561032e5761032e611881565b634e487b7160e01b600052603260045260246000fd5b60008351611bb8818460208801611715565b6001600160f81b0319939093169190920190815260010192915050565b600060018201611be757611be7611881565b5060010190565b60008251611c00818460208701611715565b9190910192915050565b60208152600061038f60208301846118e4565b60008060408385031215611c3057600080fd5b505080516020909101519092909150565b600080600060608486031215611c5657600080fd5b8351925060208401519150604084015190509250925092565b60008060008060808587031215611c8557600080fd5b505082516020840151604085015160609095015191969095509092509050565b600080600080600060a08688031215611cbd57600080fd5b5050835160208501516040860151606087015160809097015192989197509594509092509050565b60008060008060008060c08789031215611cfe57600080fd5b865195506020870151945060408701519350606087015192506080870151915060a087015190509295509295509295565b60208152600061038f602083018461173956fea264697066735822122005fe37c7a14cbc80a5025984f2d5515bc125ac630c420a3f8d311e70c0fe7a7964736f6c63430008140033",
  "linkReferences": {},
  "deployedLinkReferences": {}
}