{
  "_format": "hh-sol-artifact-1",
  "contractName": "HyperFacet",
  "sourceName": "contracts/Facets/Hyperlane/HyperFacet.sol",
  "abi": [
    {
      "inputs": [
        {
          "internalType": "uint256",
          "name": "domainID",
          "type": "uint256"
        }
      ],
      "name": "getAddressForDomain",
      "outputs": [
        {
          "internalType": "address",
          "name": "",
          "type": "address"
        }
      ],
      "stateMutability": "view",
      "type": "function"
    },
    {
      "inputs": [],
      "name": "getCounter",
      "outputs": [
        {
          "internalType": "uint256",
          "name": "",
          "type": "uint256"
        }
      ],
      "stateMutability": "view",
      "type": "function"
    },
    {
      "inputs": [],
      "name": "getGasMaster",
      "outputs": [
        {
          "internalType": "address",
          "name": "",
          "type": "address"
        }
      ],
      "stateMutability": "view",
      "type": "function"
    },
    {
      "inputs": [
        {
          "internalType": "uint32",
          "name": "domain",
          "type": "uint32"
        },
        {
          "internalType": "uint256",
          "name": "amount",
          "type": "uint256"
        }
      ],
      "name": "getQuote",
      "outputs": [
        {
          "internalType": "uint256",
          "name": "",
          "type": "uint256"
        }
      ],
      "stateMutability": "view",
      "type": "function"
    },
    {
      "inputs": [
        {
          "internalType": "uint32",
          "name": "_origin",
          "type": "uint32"
        },
        {
          "internalType": "bytes32",
          "name": "_sender",
          "type": "bytes32"
        },
        {
          "internalType": "bytes",
          "name": "_body",
          "type": "bytes"
        }
      ],
      "name": "handle",
      "outputs": [],
      "stateMutability": "nonpayable",
      "type": "function"
    },
    {
      "inputs": [
        {
          "internalType": "uint32",
          "name": "domain",
          "type": "uint32"
        },
        {
          "internalType": "uint256",
          "name": "gasAmount",
          "type": "uint256"
        },
        {
          "internalType": "uint256",
          "name": "_value",
          "type": "uint256"
        }
      ],
      "name": "hitEmUp",
      "outputs": [],
      "stateMutability": "payable",
      "type": "function"
    },
    {
      "inputs": [],
      "name": "interchainSecurityModule",
      "outputs": [
        {
          "internalType": "address",
          "name": "",
          "type": "address"
        }
      ],
      "stateMutability": "view",
      "type": "function"
    },
    {
      "inputs": [],
      "name": "moduleType",
      "outputs": [
        {
          "internalType": "uint8",
          "name": "",
          "type": "uint8"
        }
      ],
      "stateMutability": "pure",
      "type": "function"
    },
    {
      "inputs": [
        {
          "internalType": "uint256",
          "name": "domainID",
          "type": "uint256"
        },
        {
          "internalType": "address",
          "name": "recipentAddy",
          "type": "address"
        }
      ],
      "name": "setDomainToAddress",
      "outputs": [],
      "stateMutability": "nonpayable",
      "type": "function"
    },
    {
      "inputs": [
        {
          "internalType": "address",
          "name": "localIGP",
          "type": "address"
        }
      ],
      "name": "setGasMaster",
      "outputs": [],
      "stateMutability": "nonpayable",
      "type": "function"
    },
    {
      "inputs": [
        {
          "internalType": "address",
          "name": "ism",
          "type": "address"
        }
      ],
      "name": "setISM",
      "outputs": [],
      "stateMutability": "nonpayable",
      "type": "function"
    },
    {
      "inputs": [
        {
          "internalType": "address",
          "name": "maiLBox",
          "type": "address"
        }
      ],
      "name": "setMailBox",
      "outputs": [],
      "stateMutability": "nonpayable",
      "type": "function"
    },
    {
      "inputs": [
        {
          "internalType": "bytes",
          "name": "_metadata",
          "type": "bytes"
        },
        {
          "internalType": "bytes",
          "name": "_message",
          "type": "bytes"
        }
      ],
      "name": "verify",
      "outputs": [
        {
          "internalType": "bool",
          "name": "",
          "type": "bool"
        }
      ],
      "stateMutability": "nonpayable",
      "type": "function"
    }
  ],
  "bytecode": "0x608060405234801561001057600080fd5b506115a2806100206000396000f3fe6080604052600436106100a25760003560e01c80632c2cd749146100a757806337e935fb146100c95780633bdfa826146100dc57806346b1a3421461011257806356d5d475146101275780636465e69f14610147578063759524ed146101635780638ada066e14610183578063b0cbd4d6146101a6578063cc4c515d146101c6578063de4a787f146101e6578063de523cf314610206578063f7e83aee1461021b575b600080fd5b3480156100b357600080fd5b506100c76100c2366004610fef565b61024b565b005b6100c76100d736600461101e565b610257565b3480156100e857600080fd5b506100fc6100f7366004611051565b610267565b604051610109919061106a565b60405180910390f35b34801561011e57600080fd5b506100fc610278565b34801561013357600080fd5b506100c76101423660046110c6565b610287565b34801561015357600080fd5b5060405160068152602001610109565b34801561016f57600080fd5b506100c761017e366004610fef565b610295565b34801561018f57600080fd5b5061019861029e565b604051908152602001610109565b3480156101b257600080fd5b506101986101c136600461111f565b6102a8565b3480156101d257600080fd5b506100c76101e1366004611149565b6102bb565b3480156101f257600080fd5b506100c7610201366004610fef565b6102c9565b34801561021257600080fd5b506100fc6102d2565b34801561022757600080fd5b5061023b610236366004611175565b6102dc565b6040519015158152602001610109565b610254816102f5565b50565b610262838383610321565b505050565b60006102728261046c565b92915050565b6000610282610495565b905090565b61028f6104b3565b50505050565b610254816104d8565b6000610282610507565b60006102b4838361051c565b9392505050565b6102c582826105ae565b5050565b610254816105e8565b6000610282610617565b60006102ea85858585610635565b90505b949350505050565b60006102ff610683565b80546001600160a01b0319166001600160a01b03939093169290921790915550565b600061032b610683565b8054600182015463ffffffff871660009081526003840160205260408120549394506001600160a01b039283169391831692909116908363fa31de0189843360405160200161037a919061106a565b6040516020818303038152906040526040518463ffffffff1660e01b81526004016103a793929190611224565b6020604051808303816000875af11580156103c6573d6000803e3d6000fd5b505050506040513d601f19601f820116820180604052508101906103ea9190611249565b604051630237e58360e31b81526004810182905263ffffffff8a166024820152604481018990523360648201529091506001600160a01b038416906311bf2c189088906084016000604051808303818588803b15801561044957600080fd5b505af115801561045d573d6000803e3d6000fd5b50505050505050505050505050565b600080610477610683565b6000938452600301602052505060409020546001600160a01b031690565b6000806104a0610683565b600101546001600160a01b031692915050565b60006104bd610683565b9050806004015460016104d09190611278565b600490910155565b60006104e2610683565b60010180546001600160a01b0319166001600160a01b03939093169290921790915550565b600080610512610683565b6004015492915050565b600080610527610683565b600181015460405163a692979360e01b815263ffffffff87166004820152602481018690529192506001600160a01b031690819063a692979390604401602060405180830381865afa158015610581573d6000803e3d6000fd5b505050506040513d601f19601f820116820180604052508101906105a59190611249565b95945050505050565b60006105b8610683565b600093845260030160205250604090912080546001600160a01b0319166001600160a01b03909216919091179055565b60006105f2610683565b60020180546001600160a01b0319166001600160a01b03939093169290921790915550565b600080610622610683565b600201546001600160a01b031692915050565b600080610640610683565b905060018160040160008282546106579190611278565b909155505060048101546106758161066f868861128b565b306106a7565b506001979650505050505050565b7f34fbc1afd8e1b9169b38b6c80a52777e06873abc0d2b3f992f7608bdf1bf6ade90565b60007f16649c8924f5903fda94e8001436d5b66bc9e9a70208d5245edfc147a57b50866001600160a01b038316156106df57826106e1565b335b8154600480840154604051634360af3d60e01b81529396506000936001600160a01b0393841693634360af3d9361071c93909116910161106a565b602060405180830381865afa158015610739573d6000803e3d6000fd5b505050506040513d601f19601f8201168201806040525081019061075d9190611249565b600483015490915061077a906001600160a01b031633308461090a565b60048201548254610798916001600160a01b03908116911683610975565b81546001600160a01b0316636457c9796107b187610a8f565b6107ba89610a8f565b6107c388610ad0565b6107cc42610b22565b6107d530610ad0565b6040516020016107e99594939291906112c5565b60408051601f198184030181529082905260048087015460038801546001600160e01b031960e087901b16855261083a948b933093600093603c936001600160a01b03909216928c928691016113ee565b6020604051808303816000875af1158015610859573d6000803e3d6000fd5b505050506040513d601f19601f8201168201806040525081019061087d9190611249565b6040805160808101825297885260208089019788526001600160a01b03968716898301908152600060608b01818152858252600188810185529482209b518c5599518b850155905160029a8b0180549a511515600160a01b026001600160a81b0319909b169190991617989098179096559690920180549687018155855250919092209092018290555090565b6040516001600160a01b038085166024830152831660448201526064810182905261028f9085906323b872dd60e01b906084015b60408051601f198184030181529190526020810180516001600160e01b03166001600160e01b031990931692909217909152610c4d565b8015806109ef5750604051636eb1769f60e11b81523060048201526001600160a01b03838116602483015284169063dd62ed3e90604401602060405180830381865afa1580156109c9573d6000803e3d6000fd5b505050506040513d601f19601f820116820180604052508101906109ed9190611249565b155b610a5f5760405162461bcd60e51b815260206004820152603660248201527f5361666545524332303a20617070726f76652066726f6d206e6f6e2d7a65726f60448201527520746f206e6f6e2d7a65726f20616c6c6f77616e636560501b60648201526084015b60405180910390fd5b6040516001600160a01b03831660248201526044810182905261026290849063095ea7b360e01b9060640161093e565b6060610a9e608083901c610d22565b610aa783610d22565b6040805160208101939093528201526060015b6040516020818303038152906040529050919050565b6060610ae86001600160801b03602084901c16610d22565b610afe8360601b6001600160601b031916610d22565b604051602001610aba9291909182526001600160c01b031916602082015260280190565b606081600003610b495750506040805180820190915260018152600360fc1b602082015290565b8160005b8115610b735780610b5d8161145b565b9150610b6c9050600a8361148a565b9150610b4d565b6000816001600160401b03811115610b8d57610b8d6114ac565b6040519080825280601f01601f191660200182016040528015610bb7576020820181803683370190505b509050815b8515610c4457610bcd6001826114c2565b90506000610bdc600a8861148a565b610be790600a6114d5565b610bf190886114c2565b610bfc9060306114ec565b905060008160f81b905080848481518110610c1957610c19611505565b60200101906001600160f81b031916908160001a905350610c3b600a8961148a565b97505050610bbc565b50949350505050565b6000610ca2826040518060400160405280602081526020017f5361666545524332303a206c6f772d6c6576656c2063616c6c206661696c6564815250856001600160a01b0316610eb09092919063ffffffff16565b9050805160001480610cc3575080806020019051810190610cc3919061151b565b6102625760405162461bcd60e51b815260206004820152602a60248201527f5361666545524332303a204552433230206f7065726174696f6e20646964206e6044820152691bdd081cdd58d8d9595960b21b6064820152608401610a56565b6000808260001c9050806001600160801b0316905080600160401b0281176001600160401b03600160801b03600160c01b0316905080600160201b0281177bffffffff00000000ffffffff00000000ffffffff00000000ffffffff16905080620100000281177dffff0000ffff0000ffff0000ffff0000ffff0000ffff0000ffff0000ffff169050806101000281177eff00ff00ff00ff00ff00ff00ff00ff00ff00ff00ff00ff00ff00ff00ff00ff1690508060100281177f0f0f0f0f0f0f0f0f0f0f0f0f0f0f0f0f0f0f0f0f0f0f0f0f0f0f0f0f0f0f0f0f16905060006008827f08080808080808080808080808080808080808080808080808080808080808081681610e3257610e32611474565b0460047f040404040404040404040404040404040404040404040404040404040404040484160460027f020202020202020202020202020202020202020202020202020202020202020285160417166027029091017f3030303030303030303030303030303030303030303030303030303030303030019392505050565b60606102ed848460008585600080866001600160a01b03168587604051610ed7919061153d565b60006040518083038185875af1925050503d8060008114610f14576040519150601f19603f3d011682016040523d82523d6000602084013e610f19565b606091505b5091509150610f2a87838387610f35565b979650505050505050565b60608315610fa4578251600003610f9d576001600160a01b0385163b610f9d5760405162461bcd60e51b815260206004820152601d60248201527f416464726573733a2063616c6c20746f206e6f6e2d636f6e74726163740000006044820152606401610a56565b50816102ed565b6102ed8383815115610fb95781518083602001fd5b8060405162461bcd60e51b8152600401610a569190611559565b80356001600160a01b0381168114610fea57600080fd5b919050565b60006020828403121561100157600080fd5b6102b482610fd3565b803563ffffffff81168114610fea57600080fd5b60008060006060848603121561103357600080fd5b61103c8461100a565b95602085013595506040909401359392505050565b60006020828403121561106357600080fd5b5035919050565b6001600160a01b0391909116815260200190565b60008083601f84011261109057600080fd5b5081356001600160401b038111156110a757600080fd5b6020830191508360208285010111156110bf57600080fd5b9250929050565b600080600080606085870312156110dc57600080fd5b6110e58561100a565b93506020850135925060408501356001600160401b0381111561110757600080fd5b6111138782880161107e565b95989497509550505050565b6000806040838503121561113257600080fd5b61113b8361100a565b946020939093013593505050565b6000806040838503121561115c57600080fd5b8235915061116c60208401610fd3565b90509250929050565b6000806000806040858703121561118b57600080fd5b84356001600160401b03808211156111a257600080fd5b6111ae8883890161107e565b909650945060208701359150808211156111c757600080fd5b506111138782880161107e565b60005b838110156111ef5781810151838201526020016111d7565b50506000910152565b600081518084526112108160208601602086016111d4565b601f01601f19169290920160200192915050565b63ffffffff841681528260208201526060604082015260006102ea60608301846111f8565b60006020828403121561125b57600080fd5b5051919050565b634e487b7160e01b600052601160045260246000fd5b8082018082111561027257610272611262565b8035602083101561027257600019602084900360031b1b1692915050565b600081516112bb8185602086016111d4565b9290920192915050565b70088c2e8c240c2e6e6cae4e8cac8744060f607b1b81526000865160206112f28260118601838c016111d4565b6e040ccdee440c8c2e8c292c8744060f608b1b601192850192830152875161131f81838501848c016111d4565b70040c2dcc840c2e6e6cae4e8cae4744060f607b1b920181810192909252865161134f81603185018a85016111d4565b6011818401019250506e01030ba103a34b6b2b9ba30b6b81d1608d1b81830152855161138181602f8501848a016111d4565b600f818401019250507f20696e207468652044617461417373657274657220636f6e747261637420617481830152506204060f60eb1b60408201526113e26113cc60438301866112a9565b691034b9903b30b634b21760b11b8152600a0190565b98975050505050505050565b60006101208083526114028184018d6111f8565b6001600160a01b039b8c166020850152998b166040840152505095881660608701526001600160401b039490941660808601529190951660a084015260c083019490945260e08201939093526101000191909152919050565b60006001820161146d5761146d611262565b5060010190565b634e487b7160e01b600052601260045260246000fd5b6000826114a757634e487b7160e01b600052601260045260246000fd5b500490565b634e487b7160e01b600052604160045260246000fd5b8181038181111561027257610272611262565b808202811582820484141761027257610272611262565b60ff818116838216019081111561027257610272611262565b634e487b7160e01b600052603260045260246000fd5b60006020828403121561152d57600080fd5b815180151581146102b457600080fd5b6000825161154f8184602087016111d4565b9190910192915050565b6020815260006102b460208301846111f856fea2646970667358221220f74456cddd75e2501a291019ab28203ec3e59acd3cfe277c691591b1cef51b2264736f6c63430008140033",
  "linkReferences": {},
  "deployedLinkReferences": {}
}