{
  "_format": "hh-sol-artifact-1",
  "contractName": "Test1Facet",
  "sourceName": "contracts/Facets/Diamond/Test1Facet.sol",
  "abi": [
    {
      "anonymous": false,
      "inputs": [
        {
          "indexed": false,
          "internalType": "address",
          "name": "something",
          "type": "address"
        }
      ],
      "name": "TestEvent",
      "type": "event"
    },
    {
      "inputs": [],
      "name": "num",
      "outputs": [
        {
          "internalType": "uint256",
          "name": "",
          "type": "uint256"
        }
      ],
      "stateMutability": "view",
      "type": "function"
    },
    {
      "inputs": [
        {
          "internalType": "uint256",
          "name": "n",
          "type": "uint256"
        }
      ],
      "name": "setNum",
      "outputs": [],
      "stateMutability": "nonpayable",
      "type": "function"
    }
  ],
  "bytecode": "0x608060405234801561001057600080fd5b50610158806100206000396000f3fe608060405234801561001057600080fd5b50600436106100365760003560e01c80634e70b1dc1461003b578063cd16ecbf14610055575b600080fd5b61004361006a565b60405190815260200160405180910390f35b6100686100633660046100de565b610079565b005b6000610074610085565b905090565b6100828161009a565b50565b6000806100906100ba565b6001015492915050565b60006100a46100ba565b90506100b18260036100f7565b60019091015550565b7fe172d0f8decaecdd4c56ac9d5abd3aebbc2d423f323d7c1b0d0a8a21feef1df390565b6000602082840312156100f057600080fd5b5035919050565b808202811582820484141761011c57634e487b7160e01b600052601160045260246000fd5b9291505056fea2646970667358221220b1f7b9c009ba9045e43c35167b4cececfc62818569cb8fbb03b64fba2e1e5f7b64736f6c63430008140033",
  "linkReferences": {},
  "deployedLinkReferences": {}
}