{
  "_format": "hh-sol-artifact-1",
  "contractName": "Test1Facet",
  "sourceName": "contracts/Facets/Diamond/Test1Facet.sol",
  "abi": [
    {
      "anonymous": false,
      "inputs": [
        {
          "indexed": false,
          "internalType": "address",
          "name": "something",
          "type": "address"
        }
      ],
      "name": "TestEvent",
      "type": "event"
    },
    {
      "inputs": [],
      "name": "getNumber",
      "outputs": [
        {
          "internalType": "uint256",
          "name": "",
          "type": "uint256"
        }
      ],
      "stateMutability": "view",
      "type": "function"
    },
    {
      "inputs": [
        {
          "internalType": "uint256[]",
          "name": "nums",
          "type": "uint256[]"
        }
      ],
      "name": "getSum",
      "outputs": [
        {
          "internalType": "uint256",
          "name": "",
          "type": "uint256"
        }
      ],
      "stateMutability": "pure",
      "type": "function"
    },
    {
      "inputs": [
        {
          "internalType": "uint256[]",
          "name": "n",
          "type": "uint256[]"
        }
      ],
      "name": "setNumber",
      "outputs": [
        {
          "internalType": "uint256",
          "name": "i",
          "type": "uint256"
        },
        {
          "internalType": "uint256",
          "name": "j",
          "type": "uint256"
        }
      ],
      "stateMutability": "nonpayable",
      "type": "function"
    }
  ],
  "bytecode": "0x608060405234801561001057600080fd5b506105a5806100206000396000f3fe608060405234801561001057600080fd5b50600436106100415760003560e01c80636244bb4f14610046578063ccb8c1e014610073578063f2c9ecd814610094575b600080fd5b6100596100543660046103b5565b61009c565b604080519283526020830191909152015b60405180910390f35b6100866100813660046103b5565b6100b1565b60405190815260200161006a565b6100866100c2565b6000806100a8836100d1565b91509150915091565b60006100bc826101a1565b92915050565b60006100cc61023d565b905090565b60008060006100de61027b565b90506101266040518060400160405280600a81526020016929b2ba10373ab6b132b960b11b8152508560008151811061011957610119610472565b602002602001015161029f565b8360008151811061013957610139610472565b602002602001015181600001819055508360008151811061015c5761015c610472565b60200260200101516003610170919061049e565b8460008151811061018357610183610472565b6020026020010151600261019791906104b1565b9250925050915091565b60006101fd6040518060400160405280600381526020016253756d60e81b815250836000815181106101d5576101d5610472565b6020026020010151846001815181106101f0576101f0610472565b60200260200101516102e8565b8160018151811061021057610210610472565b60200260200101518260008151811061022b5761022b610472565b60200260200101516100bc919061049e565b600061026a6040518060400160405280600a81526020016923b2ba10273ab6b132b960b11b815250610334565b600061027461027b565b5492915050565b7fe172d0f8decaecdd4c56ac9d5abd3aebbc2d423f323d7c1b0d0a8a21feef1df390565b6102e482826040516024016102b592919061050e565b60408051601f198184030181529190526020810180516001600160e01b0316632d839cb360e21b17905261037a565b5050565b61032f83838360405160240161030093929190610530565b60408051601f198184030181529190526020810180516001600160e01b031663ca47c4eb60e01b17905261037a565b505050565b610377816040516024016103489190610555565b60408051601f198184030181529190526020810180516001600160e01b031663104c13eb60e21b17905261037a565b50565b6103778160006a636f6e736f6c652e6c6f679050600080835160208501845afa505050565b634e487b7160e01b600052604160045260246000fd5b600060208083850312156103c857600080fd5b82356001600160401b03808211156103df57600080fd5b818501915085601f8301126103f357600080fd5b8135818111156104055761040561039f565b8060051b604051601f19603f8301168101818110858211171561042a5761042a61039f565b60405291825284820192508381018501918883111561044857600080fd5b938501935b828510156104665784358452938501939285019261044d565b98975050505050505050565b634e487b7160e01b600052603260045260246000fd5b634e487b7160e01b600052601160045260246000fd5b808201808211156100bc576100bc610488565b80820281158282048414176100bc576100bc610488565b6000815180845260005b818110156104ee576020818501810151868301820152016104d2565b506000602082860101526020601f19601f83011685010191505092915050565b60408152600061052160408301856104c8565b90508260208301529392505050565b60608152600061054360608301866104c8565b60208301949094525060400152919050565b60208152600061056860208301846104c8565b939250505056fea2646970667358221220101799c0ef0f08df9b44d86bb994233da91597d11cbc312d0f8a7637920885fe64736f6c63430008140033",
  "linkReferences": {},
  "deployedLinkReferences": {}
}