{
  "_format": "hh-sol-artifact-1",
  "contractName": "Test1Facet",
  "sourceName": "contracts/Facets/Diamond/Test1Facet.sol",
  "abi": [
    {
      "anonymous": false,
      "inputs": [
        {
          "indexed": false,
          "internalType": "address",
          "name": "something",
          "type": "address"
        }
      ],
      "name": "TestEvent",
      "type": "event"
    },
    {
      "inputs": [],
      "name": "getNum",
      "outputs": [
        {
          "internalType": "uint256",
          "name": "",
          "type": "uint256"
        }
      ],
      "stateMutability": "view",
      "type": "function"
    },
    {
      "inputs": [],
      "name": "num",
      "outputs": [
        {
          "internalType": "uint256",
          "name": "",
          "type": "uint256"
        }
      ],
      "stateMutability": "view",
      "type": "function"
    },
    {
      "inputs": [
        {
          "internalType": "uint256",
          "name": "n",
          "type": "uint256"
        }
      ],
      "name": "setNum",
      "outputs": [],
      "stateMutability": "nonpayable",
      "type": "function"
    }
  ],
  "bytecode": "0x608060405234801561001057600080fd5b5061016a806100206000396000f3fe608060405234801561001057600080fd5b50600436106100415760003560e01c80634e70b1dc1461004657806367e0badb14610060578063cd16ecbf14610067575b600080fd5b61004e61007c565b60405190815260200160405180910390f35b600561004e565b61007a6100753660046100f0565b61008b565b005b6000610086610097565b905090565b610094816100ac565b50565b6000806100a26100cc565b6001015492915050565b60006100b66100cc565b90506100c3826003610109565b60019091015550565b7fe172d0f8decaecdd4c56ac9d5abd3aebbc2d423f323d7c1b0d0a8a21feef1df390565b60006020828403121561010257600080fd5b5035919050565b808202811582820484141761012e57634e487b7160e01b600052601160045260246000fd5b9291505056fea26469706673582212204b878b96a5f0144b2050d6e0242a59681d8e9b0ada2a39c15f071bc458a0222564736f6c63430008140033",
  "linkReferences": {},
  "deployedLinkReferences": {}
}