{
  "_format": "hh-sol-artifact-1",
  "contractName": "Test1Facet",
  "sourceName": "contracts/Facets/Diamond/Test1Facet.sol",
  "abi": [
    {
      "anonymous": false,
      "inputs": [
        {
          "indexed": false,
          "internalType": "address",
          "name": "something",
          "type": "address"
        }
      ],
      "name": "TestEvent",
      "type": "event"
    },
    {
      "inputs": [],
      "name": "getNumber",
      "outputs": [
        {
          "internalType": "uint256",
          "name": "",
          "type": "uint256"
        }
      ],
      "stateMutability": "view",
      "type": "function"
    },
    {
      "inputs": [
        {
          "internalType": "uint256[]",
          "name": "nums",
          "type": "uint256[]"
        }
      ],
      "name": "getSum",
      "outputs": [
        {
          "internalType": "uint256",
          "name": "",
          "type": "uint256"
        }
      ],
      "stateMutability": "pure",
      "type": "function"
    },
    {
      "inputs": [
        {
          "internalType": "uint256[]",
          "name": "n",
          "type": "uint256[]"
        }
      ],
      "name": "setNumber",
      "outputs": [
        {
          "internalType": "uint256",
          "name": "i",
          "type": "uint256"
        },
        {
          "internalType": "uint256",
          "name": "j",
          "type": "uint256"
        }
      ],
      "stateMutability": "nonpayable",
      "type": "function"
    }
  ],
  "bytecode": "0x608060405234801561001057600080fd5b50610332806100206000396000f3fe608060405234801561001057600080fd5b50600436106100415760003560e01c80636244bb4f14610046578063ccb8c1e014610073578063f2c9ecd814610094575b600080fd5b6100596100543660046101e9565b61009c565b604080519283526020830191909152015b60405180910390f35b6100866100813660046101e9565b6100b1565b60405190815260200161006a565b6100866100c2565b6000806100a8836100d1565b91509150915091565b60006100bc8261015b565b92915050565b60006100cc61019d565b905090565b60008060006100de6101af565b9050836000815181106100f3576100f36102a6565b6020026020010151816000018190555083600081518110610116576101166102a6565b6020026020010151600361012a91906102d2565b8460008151811061013d5761013d6102a6565b6020026020010151600261015191906102e5565b9250925050915091565b600081600181518110610170576101706102a6565b60200260200101518260008151811061018b5761018b6102a6565b60200260200101516100bc91906102d2565b6000806101a86101af565b5492915050565b7fe172d0f8decaecdd4c56ac9d5abd3aebbc2d423f323d7c1b0d0a8a21feef1df390565b634e487b7160e01b600052604160045260246000fd5b600060208083850312156101fc57600080fd5b82356001600160401b038082111561021357600080fd5b818501915085601f83011261022757600080fd5b813581811115610239576102396101d3565b8060051b604051601f19603f8301168101818110858211171561025e5761025e6101d3565b60405291825284820192508381018501918883111561027c57600080fd5b938501935b8285101561029a57843584529385019392850192610281565b98975050505050505050565b634e487b7160e01b600052603260045260246000fd5b634e487b7160e01b600052601160045260246000fd5b808201808211156100bc576100bc6102bc565b80820281158282048414176100bc576100bc6102bc56fea2646970667358221220de2cf8297796a431c498c697bdcfb0599f62f6959e02e231bdbb662435a08c9b64736f6c63430008140033",
  "linkReferences": {},
  "deployedLinkReferences": {}
}