{
  "_format": "hh-sol-artifact-1",
  "contractName": "Test1Facet",
  "sourceName": "contracts/Facets/Diamond/Test1Facet.sol",
  "abi": [
    {
      "anonymous": false,
      "inputs": [
        {
          "indexed": false,
          "internalType": "address",
          "name": "something",
          "type": "address"
        }
      ],
      "name": "TestEvent",
      "type": "event"
    },
    {
      "inputs": [],
      "name": "num",
      "outputs": [
        {
          "internalType": "uint256",
          "name": "",
          "type": "uint256"
        }
      ],
      "stateMutability": "view",
      "type": "function"
    },
    {
      "inputs": [
        {
          "internalType": "uint256",
          "name": "n",
          "type": "uint256"
        }
      ],
      "name": "setNum",
      "outputs": [],
      "stateMutability": "nonpayable",
      "type": "function"
    }
  ],
  "bytecode": "0x608060405234801561001057600080fd5b50610131806100206000396000f3fe6080604052348015600f57600080fd5b506004361060325760003560e01c80634e70b1dc146037578063cd16ecbf146051575b600080fd5b603d6062565b6040516048919060c2565b60405180910390f35b6060605c36600460d6565b606f565b005b6000606a6079565b905090565b607681608c565b50565b6000806082609e565b6001015492915050565b60006094609e565b6001019190915550565b7fe172d0f8decaecdd4c56ac9d5abd3aebbc2d423f323d7c1b0d0a8a21feef1df390565b818152602081015b92915050565b803560ca565b60006020828403121560e95760e9600080fd5b600060f3848460d0565b94935050505056fea2646970667358221220da899a774d5f0c6fcb4082e05505a92fc45a40f930f7ae5bc8c3ccf30978fbcc64736f6c634300080a0033",
  "linkReferences": {},
  "deployedLinkReferences": {}
}