{
  "_format": "hh-sol-artifact-1",
  "contractName": "InstructionFacet",
  "sourceName": "contracts/Facets/InstructionFacet.sol",
  "abi": [
    {
      "inputs": [],
      "name": "instrucClosePosition",
      "outputs": [
        {
          "internalType": "bytes5",
          "name": "",
          "type": "bytes5"
        }
      ],
      "stateMutability": "pure",
      "type": "function"
    },
    {
      "inputs": [],
      "name": "instrucGetBorrowRate",
      "outputs": [
        {
          "internalType": "bytes5",
          "name": "",
          "type": "bytes5"
        }
      ],
      "stateMutability": "pure",
      "type": "function"
    },
    {
      "inputs": [],
      "name": "instrucGetNumber",
      "outputs": [
        {
          "internalType": "bytes5",
          "name": "",
          "type": "bytes5"
        }
      ],
      "stateMutability": "pure",
      "type": "function"
    },
    {
      "inputs": [],
      "name": "instrucGetSum",
      "outputs": [
        {
          "internalType": "bytes5",
          "name": "",
          "type": "bytes5"
        }
      ],
      "stateMutability": "pure",
      "type": "function"
    },
    {
      "inputs": [],
      "name": "instrucGetSupplyRate",
      "outputs": [
        {
          "internalType": "bytes5",
          "name": "",
          "type": "bytes5"
        }
      ],
      "stateMutability": "pure",
      "type": "function"
    },
    {
      "inputs": [],
      "name": "instrucIsLiquidatable",
      "outputs": [
        {
          "internalType": "bytes5",
          "name": "",
          "type": "bytes5"
        }
      ],
      "stateMutability": "pure",
      "type": "function"
    },
    {
      "inputs": [],
      "name": "instrucLeverageUp",
      "outputs": [
        {
          "internalType": "bytes5",
          "name": "",
          "type": "bytes5"
        }
      ],
      "stateMutability": "pure",
      "type": "function"
    },
    {
      "inputs": [],
      "name": "instrucReturnProfit",
      "outputs": [
        {
          "internalType": "bytes5",
          "name": "",
          "type": "bytes5"
        }
      ],
      "stateMutability": "pure",
      "type": "function"
    },
    {
      "inputs": [],
      "name": "instrucSetNumber",
      "outputs": [
        {
          "internalType": "bytes5",
          "name": "",
          "type": "bytes5"
        }
      ],
      "stateMutability": "pure",
      "type": "function"
    }
  ],
  "bytecode": "0x608060405234801561001057600080fd5b506102c5806100206000396000f3fe608060405234801561001057600080fd5b50600436106100835760003560e01c80632b7c28f6146100885780636ecc0540146100ad5780639509dfea146100b5578063a6106c5b146100bd578063a9dcde67146100c5578063bca0bab1146100cd578063d604e977146100d5578063efa0999c146100dd578063fb5ae31c146100e5575b600080fd5b6100906100ed565b6040516001600160d81b0319909116815260200160405180910390f35b610090610104565b610090610116565b610090610128565b61009061013a565b61009061014c565b61009061015e565b610090610170565b610090610182565b60006100ff63042e02cf60e01b610194565b905090565b60006100ff630665c60f60e51b6101d0565b60006100ff631e593d9b60e31b6101ea565b60006100ff63017438bd60e71b6101ea565b60006100ff632ed61d1960e21b610204565b60006100ff631097b93560e31b6101ea565b60006100ff63a126d60160e01b610194565b60006100ff6333f5c8c360e11b61021e565b60006100ff636244bb4f60e01b61021e565b60008082601060f81b6040516020016101ae929190610234565b6040516020818303038152906040529050806101c990610258565b9392505050565b60008082602160f81b6040516020016101ae929190610234565b60008082600160f81b6040516020016101ae929190610234565b60008082604160f81b6040516020016101ae929190610234565b60008082601260f81b6040516020016101ae9291905b6001600160e01b03199290921682526001600160f81b031916600482015260050190565b805160208201516001600160d81b031980821692919060058310156102875780818460050360031b1b83161693505b50505091905056fea264697066735822122087a2267d72603e988ea348723440d642e7dc16bfac3f6c5ede252bf92b6b067064736f6c63430008140033",
  "linkReferences": {},
  "deployedLinkReferences": {}
}