{
  "_format": "hh-sol-artifact-1",
  "contractName": "InstructionFacet",
  "sourceName": "contracts/Facets/InstructionFacet.sol",
  "abi": [
    {
      "inputs": [],
      "name": "instrucAddLiquidty",
      "outputs": [
        {
          "internalType": "bytes5",
          "name": "",
          "type": "bytes5"
        }
      ],
      "stateMutability": "pure",
      "type": "function"
    },
    {
      "inputs": [],
      "name": "instrucAdjustBounds",
      "outputs": [
        {
          "internalType": "bytes5",
          "name": "",
          "type": "bytes5"
        }
      ],
      "stateMutability": "pure",
      "type": "function"
    },
    {
      "inputs": [],
      "name": "instrucBorrowSpark",
      "outputs": [
        {
          "internalType": "bytes5",
          "name": "",
          "type": "bytes5"
        }
      ],
      "stateMutability": "pure",
      "type": "function"
    },
    {
      "inputs": [],
      "name": "instrucCloseLP",
      "outputs": [
        {
          "internalType": "bytes5",
          "name": "",
          "type": "bytes5"
        }
      ],
      "stateMutability": "pure",
      "type": "function"
    },
    {
      "inputs": [],
      "name": "instrucClosePosition",
      "outputs": [
        {
          "internalType": "bytes5",
          "name": "",
          "type": "bytes5"
        }
      ],
      "stateMutability": "pure",
      "type": "function"
    },
    {
      "inputs": [],
      "name": "instrucClosePositionSpark",
      "outputs": [
        {
          "internalType": "bytes5",
          "name": "",
          "type": "bytes5"
        }
      ],
      "stateMutability": "pure",
      "type": "function"
    },
    {
      "inputs": [],
      "name": "instrucContinueIfOutOfBounds",
      "outputs": [
        {
          "internalType": "bytes5",
          "name": "",
          "type": "bytes5"
        }
      ],
      "stateMutability": "pure",
      "type": "function"
    },
    {
      "inputs": [],
      "name": "instrucGetBorrowRate",
      "outputs": [
        {
          "internalType": "bytes5",
          "name": "",
          "type": "bytes5"
        }
      ],
      "stateMutability": "pure",
      "type": "function"
    },
    {
      "inputs": [],
      "name": "instrucGetHFSpark",
      "outputs": [
        {
          "internalType": "bytes5",
          "name": "",
          "type": "bytes5"
        }
      ],
      "stateMutability": "pure",
      "type": "function"
    },
    {
      "inputs": [],
      "name": "instrucGetNumber",
      "outputs": [
        {
          "internalType": "bytes5",
          "name": "",
          "type": "bytes5"
        }
      ],
      "stateMutability": "pure",
      "type": "function"
    },
    {
      "inputs": [],
      "name": "instrucGetPoolLiquidity",
      "outputs": [
        {
          "internalType": "bytes5",
          "name": "",
          "type": "bytes5"
        }
      ],
      "stateMutability": "pure",
      "type": "function"
    },
    {
      "inputs": [],
      "name": "instrucGetSum",
      "outputs": [
        {
          "internalType": "bytes5",
          "name": "",
          "type": "bytes5"
        }
      ],
      "stateMutability": "pure",
      "type": "function"
    },
    {
      "inputs": [],
      "name": "instrucGetSupplyRate",
      "outputs": [
        {
          "internalType": "bytes5",
          "name": "",
          "type": "bytes5"
        }
      ],
      "stateMutability": "pure",
      "type": "function"
    },
    {
      "inputs": [],
      "name": "instrucIfTrueContinue",
      "outputs": [
        {
          "internalType": "bytes5",
          "name": "",
          "type": "bytes5"
        }
      ],
      "stateMutability": "pure",
      "type": "function"
    },
    {
      "inputs": [],
      "name": "instrucIfTrueContinueWResult",
      "outputs": [
        {
          "internalType": "bytes5",
          "name": "",
          "type": "bytes5"
        }
      ],
      "stateMutability": "pure",
      "type": "function"
    },
    {
      "inputs": [],
      "name": "instrucIsLiquidatable",
      "outputs": [
        {
          "internalType": "bytes5",
          "name": "",
          "type": "bytes5"
        }
      ],
      "stateMutability": "pure",
      "type": "function"
    },
    {
      "inputs": [],
      "name": "instrucLeverageUp",
      "outputs": [
        {
          "internalType": "bytes5",
          "name": "",
          "type": "bytes5"
        }
      ],
      "stateMutability": "pure",
      "type": "function"
    },
    {
      "inputs": [],
      "name": "instrucLeverageUpSpark",
      "outputs": [
        {
          "internalType": "bytes5",
          "name": "",
          "type": "bytes5"
        }
      ],
      "stateMutability": "pure",
      "type": "function"
    },
    {
      "inputs": [],
      "name": "instrucModifyPosition",
      "outputs": [
        {
          "internalType": "bytes5",
          "name": "",
          "type": "bytes5"
        }
      ],
      "stateMutability": "pure",
      "type": "function"
    },
    {
      "inputs": [],
      "name": "instrucRepaySpark",
      "outputs": [
        {
          "internalType": "bytes5",
          "name": "",
          "type": "bytes5"
        }
      ],
      "stateMutability": "pure",
      "type": "function"
    },
    {
      "inputs": [],
      "name": "instrucReturnBounds",
      "outputs": [
        {
          "internalType": "bytes5",
          "name": "",
          "type": "bytes5"
        }
      ],
      "stateMutability": "pure",
      "type": "function"
    },
    {
      "inputs": [],
      "name": "instrucReturnProfit",
      "outputs": [
        {
          "internalType": "bytes5",
          "name": "",
          "type": "bytes5"
        }
      ],
      "stateMutability": "pure",
      "type": "function"
    },
    {
      "inputs": [],
      "name": "instrucSendDataArbGoerli",
      "outputs": [
        {
          "internalType": "bytes5",
          "name": "",
          "type": "bytes5"
        }
      ],
      "stateMutability": "pure",
      "type": "function"
    },
    {
      "inputs": [],
      "name": "instrucSendDataBase",
      "outputs": [
        {
          "internalType": "bytes5",
          "name": "",
          "type": "bytes5"
        }
      ],
      "stateMutability": "pure",
      "type": "function"
    },
    {
      "inputs": [],
      "name": "instrucSendDataGoerli",
      "outputs": [
        {
          "internalType": "bytes5",
          "name": "",
          "type": "bytes5"
        }
      ],
      "stateMutability": "pure",
      "type": "function"
    },
    {
      "inputs": [],
      "name": "instrucSendDataMumbai",
      "outputs": [
        {
          "internalType": "bytes5",
          "name": "",
          "type": "bytes5"
        }
      ],
      "stateMutability": "pure",
      "type": "function"
    },
    {
      "inputs": [],
      "name": "instrucSetNumber",
      "outputs": [
        {
          "internalType": "bytes5",
          "name": "",
          "type": "bytes5"
        }
      ],
      "stateMutability": "pure",
      "type": "function"
    },
    {
      "inputs": [],
      "name": "instrucStop",
      "outputs": [
        {
          "internalType": "bytes5",
          "name": "",
          "type": "bytes5"
        }
      ],
      "stateMutability": "pure",
      "type": "function"
    },
    {
      "inputs": [],
      "name": "instrucSupplySpark",
      "outputs": [
        {
          "internalType": "bytes5",
          "name": "",
          "type": "bytes5"
        }
      ],
      "stateMutability": "pure",
      "type": "function"
    },
    {
      "inputs": [],
      "name": "instrucSwap",
      "outputs": [
        {
          "internalType": "bytes5",
          "name": "",
          "type": "bytes5"
        }
      ],
      "stateMutability": "pure",
      "type": "function"
    },
    {
      "inputs": [],
      "name": "instrucWithdrawSpark",
      "outputs": [
        {
          "internalType": "bytes5",
          "name": "",
          "type": "bytes5"
        }
      ],
      "stateMutability": "pure",
      "type": "function"
    }
  ],
  "bytecode": "0x608060405234801561001057600080fd5b506106c0806100206000396000f3fe608060405234801561001057600080fd5b50600436106101745760003560e01c806230151c1461017957806301ed58fe1461019e578063072abcd8146101a6578063074a1baf146101ae57806319e618ce146101b65780632b7c28f6146101be5780632fa28a80146101c6578063342c1906146101ce5780633e2543d3146101d6578063456f5735146101de57806345e0a338146101e657806349378c76146101ee5780634e223882146101f65780636ecc0540146101fe578063790597ce14610206578063823295541461020e578063865409f7146102165780638800e1b51461021e5780639509dfea14610226578063a6106c5b1461022e578063a9dcde6714610236578063b814a4791461023e578063bca0bab114610246578063c866d3ce1461024e578063d604e97714610256578063e7bc9feb1461025e578063ec7df4d514610266578063efa0999c1461026e578063f413b56414610276578063fb5ae31c1461027e578063fdcf970d14610286575b600080fd5b61018161028e565b6040516001600160d81b0319909116815260200160405180910390f35b6101816102a5565b6101816102b7565b6101816102c9565b6101816102da565b6101816102ec565b6101816102fe565b610181610310565b610181610322565b610181610334565b610181610346565b610181610358565b61018161036a565b61018161037c565b61018161038e565b6101816103a0565b6101816103b2565b6101816103c4565b6101816103d5565b6101816103e7565b6101816103f9565b61018161040b565b61018161041d565b61018161042f565b610181610441565b610181610453565b610181610465565b610181610477565b610181610489565b61018161049b565b6101816104ad565b60006102a0632201027160e21b6104bf565b905090565b60006102a0635f70006760e11b6104fb565b60006102a0635d3e6acd60e11b610515565b60006102a062509b8f60e91b61052f565b60006102a0630f21112360e21b6104bf565b60006102a06311a00a4960e31b610549565b60006102a0631b6d2fef60e11b6104bf565b60006102a063b82197ed60e01b610563565b60006102a063afe7f5a160e01b61057d565b60006102a0632ea1948560e01b610597565b60006102a0631ff0c32560e01b6105b1565b60006102a0632269bc4f60e01b6104fb565b60006102a063476c94cd60e01b6104bf565b60006102a0630665c60f60e51b6104fb565b60006102a063813e838f60e01b6104fb565b60006102a063616c1cc360e01b6105cb565b60006102a0634d7492d960e11b6104fb565b60006102a062c7d35f60e41b6105e5565b60006102a0631e593d9b60e31b6105e5565b60006102a063017438bd60e71b6105e5565b60006102a0632ed61d1960e21b610597565b60006102a0637ac5457360e01b6104fb565b60006102a0631097b93560e31b6105e5565b60006102a06397a0259d60e01b610597565b60006102a0632c538f6b60e21b6104bf565b60006102a06314eded6d60e21b6105ff565b60006102a06310e1e6c560e21b610619565b60006102a06333f5c8c360e11b610549565b60006102a063322defe760e11b6104bf565b60006102a0636244bb4f60e01b610549565b60006102a0638e763c3760e01b6104fb565b60008082601060f81b6040516020016104d992919061062f565b6040516020818303038152906040529050806104f490610653565b9392505050565b60008082602160f81b6040516020016104d992919061062f565b60008082602260f81b6040516020016104d992919061062f565b60008082601160f81b6040516020016104d992919061062f565b60008082601260f81b6040516020016104d992919061062f565b60008082604260f81b6040516020016104d992919061062f565b60008082600260f81b6040516020016104d992919061062f565b60008082604160f81b6040516020016104d992919061062f565b60008082603360f81b6040516020016104d992919061062f565b60008082606260f81b6040516020016104d992919061062f565b60008082600160f81b6040516020016104d992919061062f565b60008082602060f81b6040516020016104d992919061062f565b60008082606060f81b6040516020016104d99291905b6001600160e01b03199290921682526001600160f81b031916600482015260050190565b805160208201516001600160d81b031980821692919060058310156106825780818460050360031b1b83161693505b50505091905056fea2646970667358221220cd3731d0529a25d123665af69794438b9b5ce9fdf6ffa75a8359c8f795babbd664736f6c63430008140033",
  "linkReferences": {},
  "deployedLinkReferences": {}
}