{
  "_format": "hh-sol-artifact-1",
  "contractName": "InstructionFacet",
  "sourceName": "contracts/Facets/InstructionFacet.sol",
  "abi": [
    {
      "inputs": [],
      "name": "instrucAddLiquidty",
      "outputs": [
        {
          "internalType": "bytes5",
          "name": "",
          "type": "bytes5"
        }
      ],
      "stateMutability": "pure",
      "type": "function"
    },
    {
      "inputs": [],
      "name": "instrucAdjustBounds",
      "outputs": [
        {
          "internalType": "bytes5",
          "name": "",
          "type": "bytes5"
        }
      ],
      "stateMutability": "pure",
      "type": "function"
    },
    {
      "inputs": [],
      "name": "instrucCloseLP",
      "outputs": [
        {
          "internalType": "bytes5",
          "name": "",
          "type": "bytes5"
        }
      ],
      "stateMutability": "pure",
      "type": "function"
    },
    {
      "inputs": [],
      "name": "instrucClosePosition",
      "outputs": [
        {
          "internalType": "bytes5",
          "name": "",
          "type": "bytes5"
        }
      ],
      "stateMutability": "pure",
      "type": "function"
    },
    {
      "inputs": [],
      "name": "instrucContinueIfOutOfBounds",
      "outputs": [
        {
          "internalType": "bytes5",
          "name": "",
          "type": "bytes5"
        }
      ],
      "stateMutability": "pure",
      "type": "function"
    },
    {
      "inputs": [],
      "name": "instrucGetBorrowRate",
      "outputs": [
        {
          "internalType": "bytes5",
          "name": "",
          "type": "bytes5"
        }
      ],
      "stateMutability": "pure",
      "type": "function"
    },
    {
      "inputs": [],
      "name": "instrucGetNumber",
      "outputs": [
        {
          "internalType": "bytes5",
          "name": "",
          "type": "bytes5"
        }
      ],
      "stateMutability": "pure",
      "type": "function"
    },
    {
      "inputs": [],
      "name": "instrucGetPoolLiquidity",
      "outputs": [
        {
          "internalType": "bytes5",
          "name": "",
          "type": "bytes5"
        }
      ],
      "stateMutability": "pure",
      "type": "function"
    },
    {
      "inputs": [],
      "name": "instrucGetSum",
      "outputs": [
        {
          "internalType": "bytes5",
          "name": "",
          "type": "bytes5"
        }
      ],
      "stateMutability": "pure",
      "type": "function"
    },
    {
      "inputs": [],
      "name": "instrucGetSupplyRate",
      "outputs": [
        {
          "internalType": "bytes5",
          "name": "",
          "type": "bytes5"
        }
      ],
      "stateMutability": "pure",
      "type": "function"
    },
    {
      "inputs": [],
      "name": "instrucIfTrueContinue",
      "outputs": [
        {
          "internalType": "bytes5",
          "name": "",
          "type": "bytes5"
        }
      ],
      "stateMutability": "pure",
      "type": "function"
    },
    {
      "inputs": [],
      "name": "instrucIfTrueContinueWResult",
      "outputs": [
        {
          "internalType": "bytes5",
          "name": "",
          "type": "bytes5"
        }
      ],
      "stateMutability": "pure",
      "type": "function"
    },
    {
      "inputs": [],
      "name": "instrucIsLiquidatable",
      "outputs": [
        {
          "internalType": "bytes5",
          "name": "",
          "type": "bytes5"
        }
      ],
      "stateMutability": "pure",
      "type": "function"
    },
    {
      "inputs": [],
      "name": "instrucLeverageUp",
      "outputs": [
        {
          "internalType": "bytes5",
          "name": "",
          "type": "bytes5"
        }
      ],
      "stateMutability": "pure",
      "type": "function"
    },
    {
      "inputs": [],
      "name": "instrucModifyPosition",
      "outputs": [
        {
          "internalType": "bytes5",
          "name": "",
          "type": "bytes5"
        }
      ],
      "stateMutability": "pure",
      "type": "function"
    },
    {
      "inputs": [],
      "name": "instrucReturnBounds",
      "outputs": [
        {
          "internalType": "bytes5",
          "name": "",
          "type": "bytes5"
        }
      ],
      "stateMutability": "pure",
      "type": "function"
    },
    {
      "inputs": [],
      "name": "instrucReturnProfit",
      "outputs": [
        {
          "internalType": "bytes5",
          "name": "",
          "type": "bytes5"
        }
      ],
      "stateMutability": "pure",
      "type": "function"
    },
    {
      "inputs": [],
      "name": "instrucSetNumber",
      "outputs": [
        {
          "internalType": "bytes5",
          "name": "",
          "type": "bytes5"
        }
      ],
      "stateMutability": "pure",
      "type": "function"
    },
    {
      "inputs": [],
      "name": "instrucStop",
      "outputs": [
        {
          "internalType": "bytes5",
          "name": "",
          "type": "bytes5"
        }
      ],
      "stateMutability": "pure",
      "type": "function"
    },
    {
      "inputs": [],
      "name": "instrucSwap",
      "outputs": [
        {
          "internalType": "bytes5",
          "name": "",
          "type": "bytes5"
        }
      ],
      "stateMutability": "pure",
      "type": "function"
    }
  ],
  "bytecode": "0x608060405234801561001057600080fd5b5061052b806100206000396000f3fe608060405234801561001057600080fd5b50600436106100fc5760003560e01c806301ed58fe14610101578063072abcd814610126578063074a1baf1461012e5780632b7c28f614610136578063342c19061461013e5780633e2543d31461014657806345e0a3381461014e5780636ecc054014610156578063823295541461015e5780639509dfea14610166578063a6106c5b1461016e578063a9dcde6714610176578063bca0bab11461017e578063c866d3ce14610186578063d604e9771461018e578063e7bc9feb14610196578063ec7df4d51461019e578063efa0999c146101a6578063fb5ae31c146101ae578063fdcf970d146101b6575b600080fd5b6101096101be565b6040516001600160d81b0319909116815260200160405180910390f35b6101096101d5565b6101096101e7565b6101096101f8565b61010961020a565b61010961021c565b61010961022e565b610109610240565b610109610252565b610109610264565b610109610276565b610109610288565b61010961029a565b6101096102ac565b6101096102be565b6101096102d0565b6101096102e2565b6101096102f4565b610109610306565b610109610318565b60006101d0635f70006760e11b61032a565b905090565b60006101d0635d3e6acd60e11b610366565b60006101d062509b8f60e91b610380565b60006101d06311a00a4960e31b61039a565b60006101d063b82197ed60e01b6103b4565b60006101d063afe7f5a160e01b6103ce565b60006101d0631ff0c32560e01b6103e8565b60006101d0630665c60f60e51b61032a565b60006101d063616c1cc360e01b610402565b60006101d0631e593d9b60e31b61041c565b60006101d063017438bd60e71b61041c565b60006101d0632ed61d1960e21b610436565b60006101d0631097b93560e31b61041c565b60006101d06397a0259d60e01b610436565b60006101d0632c538f6b60e21b610450565b60006101d06314eded6d60e21b61046a565b60006101d06310e1e6c560e21b610484565b60006101d06333f5c8c360e11b61039a565b60006101d0636244bb4f60e01b61039a565b60006101d0638e763c3760e01b610366565b60008082602160f81b60405160200161034492919061049a565b60405160208183030381529060405290508061035f906104be565b9392505050565b60008082602260f81b60405160200161034492919061049a565b60008082601160f81b60405160200161034492919061049a565b60008082601260f81b60405160200161034492919061049a565b60008082604260f81b60405160200161034492919061049a565b60008082600260f81b60405160200161034492919061049a565b60008082603360f81b60405160200161034492919061049a565b60008082606260f81b60405160200161034492919061049a565b60008082600160f81b60405160200161034492919061049a565b60008082604160f81b60405160200161034492919061049a565b60008082601060f81b60405160200161034492919061049a565b60008082602060f81b60405160200161034492919061049a565b60008082606060f81b6040516020016103449291905b6001600160e01b03199290921682526001600160f81b031916600482015260050190565b805160208201516001600160d81b031980821692919060058310156104ed5780818460050360031b1b83161693505b50505091905056fea2646970667358221220d5c8136560430f3ab5efedc65dc1526a2c18a42f3339055f42b5bda4454635ca64736f6c63430008140033",
  "linkReferences": {},
  "deployedLinkReferences": {}
}