{
  "_format": "hh-sol-artifact-1",
  "contractName": "InstructionFacet",
  "sourceName": "contracts/Facets/InstructionFacet.sol",
  "abi": [
    {
      "inputs": [],
      "name": "instrucAddLiquidty",
      "outputs": [
        {
          "internalType": "bytes5",
          "name": "",
          "type": "bytes5"
        }
      ],
      "stateMutability": "pure",
      "type": "function"
    },
    {
      "inputs": [],
      "name": "instrucAdjustBounds",
      "outputs": [
        {
          "internalType": "bytes5",
          "name": "",
          "type": "bytes5"
        }
      ],
      "stateMutability": "pure",
      "type": "function"
    },
    {
      "inputs": [],
      "name": "instrucBorrowSpark",
      "outputs": [
        {
          "internalType": "bytes5",
          "name": "",
          "type": "bytes5"
        }
      ],
      "stateMutability": "pure",
      "type": "function"
    },
    {
      "inputs": [],
      "name": "instrucCloseLP",
      "outputs": [
        {
          "internalType": "bytes5",
          "name": "",
          "type": "bytes5"
        }
      ],
      "stateMutability": "pure",
      "type": "function"
    },
    {
      "inputs": [],
      "name": "instrucClosePosition",
      "outputs": [
        {
          "internalType": "bytes5",
          "name": "",
          "type": "bytes5"
        }
      ],
      "stateMutability": "pure",
      "type": "function"
    },
    {
      "inputs": [],
      "name": "instrucClosePositionSpark",
      "outputs": [
        {
          "internalType": "bytes5",
          "name": "",
          "type": "bytes5"
        }
      ],
      "stateMutability": "pure",
      "type": "function"
    },
    {
      "inputs": [],
      "name": "instrucContinueIfOutOfBounds",
      "outputs": [
        {
          "internalType": "bytes5",
          "name": "",
          "type": "bytes5"
        }
      ],
      "stateMutability": "pure",
      "type": "function"
    },
    {
      "inputs": [],
      "name": "instrucGetBorrowRate",
      "outputs": [
        {
          "internalType": "bytes5",
          "name": "",
          "type": "bytes5"
        }
      ],
      "stateMutability": "pure",
      "type": "function"
    },
    {
      "inputs": [],
      "name": "instrucGetHFSpark",
      "outputs": [
        {
          "internalType": "bytes5",
          "name": "",
          "type": "bytes5"
        }
      ],
      "stateMutability": "pure",
      "type": "function"
    },
    {
      "inputs": [],
      "name": "instrucGetNumber",
      "outputs": [
        {
          "internalType": "bytes5",
          "name": "",
          "type": "bytes5"
        }
      ],
      "stateMutability": "pure",
      "type": "function"
    },
    {
      "inputs": [],
      "name": "instrucGetPoolLiquidity",
      "outputs": [
        {
          "internalType": "bytes5",
          "name": "",
          "type": "bytes5"
        }
      ],
      "stateMutability": "pure",
      "type": "function"
    },
    {
      "inputs": [],
      "name": "instrucGetSum",
      "outputs": [
        {
          "internalType": "bytes5",
          "name": "",
          "type": "bytes5"
        }
      ],
      "stateMutability": "pure",
      "type": "function"
    },
    {
      "inputs": [],
      "name": "instrucGetSupplyRate",
      "outputs": [
        {
          "internalType": "bytes5",
          "name": "",
          "type": "bytes5"
        }
      ],
      "stateMutability": "pure",
      "type": "function"
    },
    {
      "inputs": [],
      "name": "instrucIfTrueContinue",
      "outputs": [
        {
          "internalType": "bytes5",
          "name": "",
          "type": "bytes5"
        }
      ],
      "stateMutability": "pure",
      "type": "function"
    },
    {
      "inputs": [],
      "name": "instrucIfTrueContinueWResult",
      "outputs": [
        {
          "internalType": "bytes5",
          "name": "",
          "type": "bytes5"
        }
      ],
      "stateMutability": "pure",
      "type": "function"
    },
    {
      "inputs": [],
      "name": "instrucIsLiquidatable",
      "outputs": [
        {
          "internalType": "bytes5",
          "name": "",
          "type": "bytes5"
        }
      ],
      "stateMutability": "pure",
      "type": "function"
    },
    {
      "inputs": [],
      "name": "instrucLeverageUp",
      "outputs": [
        {
          "internalType": "bytes5",
          "name": "",
          "type": "bytes5"
        }
      ],
      "stateMutability": "pure",
      "type": "function"
    },
    {
      "inputs": [],
      "name": "instrucLeverageUpSpark",
      "outputs": [
        {
          "internalType": "bytes5",
          "name": "",
          "type": "bytes5"
        }
      ],
      "stateMutability": "pure",
      "type": "function"
    },
    {
      "inputs": [],
      "name": "instrucModifyPosition",
      "outputs": [
        {
          "internalType": "bytes5",
          "name": "",
          "type": "bytes5"
        }
      ],
      "stateMutability": "pure",
      "type": "function"
    },
    {
      "inputs": [],
      "name": "instrucRepaySpark",
      "outputs": [
        {
          "internalType": "bytes5",
          "name": "",
          "type": "bytes5"
        }
      ],
      "stateMutability": "pure",
      "type": "function"
    },
    {
      "inputs": [],
      "name": "instrucReturnBounds",
      "outputs": [
        {
          "internalType": "bytes5",
          "name": "",
          "type": "bytes5"
        }
      ],
      "stateMutability": "pure",
      "type": "function"
    },
    {
      "inputs": [],
      "name": "instrucReturnProfit",
      "outputs": [
        {
          "internalType": "bytes5",
          "name": "",
          "type": "bytes5"
        }
      ],
      "stateMutability": "pure",
      "type": "function"
    },
    {
      "inputs": [],
      "name": "instrucSendDataArbGoerli",
      "outputs": [
        {
          "internalType": "bytes5",
          "name": "",
          "type": "bytes5"
        }
      ],
      "stateMutability": "pure",
      "type": "function"
    },
    {
      "inputs": [],
      "name": "instrucSendDataBase",
      "outputs": [
        {
          "internalType": "bytes5",
          "name": "",
          "type": "bytes5"
        }
      ],
      "stateMutability": "pure",
      "type": "function"
    },
    {
      "inputs": [],
      "name": "instrucSendDataGoerli",
      "outputs": [
        {
          "internalType": "bytes5",
          "name": "",
          "type": "bytes5"
        }
      ],
      "stateMutability": "pure",
      "type": "function"
    },
    {
      "inputs": [],
      "name": "instrucSendDataMumbai",
      "outputs": [
        {
          "internalType": "bytes5",
          "name": "",
          "type": "bytes5"
        }
      ],
      "stateMutability": "pure",
      "type": "function"
    },
    {
      "inputs": [],
      "name": "instrucSendFlowTokensArbG",
      "outputs": [
        {
          "internalType": "bytes5",
          "name": "",
          "type": "bytes5"
        }
      ],
      "stateMutability": "pure",
      "type": "function"
    },
    {
      "inputs": [],
      "name": "instrucSendFlowTokensBase",
      "outputs": [
        {
          "internalType": "bytes5",
          "name": "",
          "type": "bytes5"
        }
      ],
      "stateMutability": "pure",
      "type": "function"
    },
    {
      "inputs": [],
      "name": "instrucSendFlowTokensGoerli",
      "outputs": [
        {
          "internalType": "bytes5",
          "name": "",
          "type": "bytes5"
        }
      ],
      "stateMutability": "pure",
      "type": "function"
    },
    {
      "inputs": [],
      "name": "instrucSendFlowTokensMumbai",
      "outputs": [
        {
          "internalType": "bytes5",
          "name": "",
          "type": "bytes5"
        }
      ],
      "stateMutability": "pure",
      "type": "function"
    },
    {
      "inputs": [],
      "name": "instrucSetNumber",
      "outputs": [
        {
          "internalType": "bytes5",
          "name": "",
          "type": "bytes5"
        }
      ],
      "stateMutability": "pure",
      "type": "function"
    },
    {
      "inputs": [],
      "name": "instrucStop",
      "outputs": [
        {
          "internalType": "bytes5",
          "name": "",
          "type": "bytes5"
        }
      ],
      "stateMutability": "pure",
      "type": "function"
    },
    {
      "inputs": [],
      "name": "instrucSupplySpark",
      "outputs": [
        {
          "internalType": "bytes5",
          "name": "",
          "type": "bytes5"
        }
      ],
      "stateMutability": "pure",
      "type": "function"
    },
    {
      "inputs": [],
      "name": "instrucSwap",
      "outputs": [
        {
          "internalType": "bytes5",
          "name": "",
          "type": "bytes5"
        }
      ],
      "stateMutability": "pure",
      "type": "function"
    },
    {
      "inputs": [],
      "name": "instrucWithdrawSpark",
      "outputs": [
        {
          "internalType": "bytes5",
          "name": "",
          "type": "bytes5"
        }
      ],
      "stateMutability": "pure",
      "type": "function"
    }
  ],
  "bytecode": "0x608060405234801561001057600080fd5b50610754806100206000396000f3fe608060405234801561001057600080fd5b50600436106101a05760003560e01c806230151c146101a557806301ed58fe146101ca578063072abcd8146101d2578063074a1baf146101da578063078ab447146101e257806319e618ce146101ea5780632b7c28f6146101f25780632fa28a80146101fa578063342c1906146102025780633e2543d31461020a578063456f57351461021257806345e0a3381461021a57806346499add1461022257806349378c761461022a5780634e223882146102325780636ecc05401461023a578063790597ce14610242578063823295541461024a578063865409f7146102525780638800e1b51461025a5780639509dfea14610262578063a6106c5b1461026a578063a9dcde6714610272578063acd0af0f1461027a578063b814a47914610282578063bca0bab11461028a578063c866d3ce14610292578063d604e9771461029a578063dd10a0c6146102a2578063e7bc9feb146102aa578063ec7df4d5146102b2578063efa0999c146102ba578063f413b564146102c2578063fb5ae31c146102ca578063fdcf970d146102d2575b600080fd5b6101ad6102da565b6040516001600160d81b0319909116815260200160405180910390f35b6101ad6102f1565b6101ad610303565b6101ad610315565b6101ad610326565b6101ad610338565b6101ad61034a565b6101ad61035c565b6101ad61036e565b6101ad610380565b6101ad610392565b6101ad6103a4565b6101ad6103b6565b6101ad6103c8565b6101ad6103da565b6101ad6103ec565b6101ad6103fe565b6101ad610410565b6101ad610422565b6101ad610434565b6101ad610445565b6101ad610457565b6101ad610469565b6101ad61047b565b6101ad61048d565b6101ad61049f565b6101ad6104b1565b6101ad6104c3565b6101ad6104d5565b6101ad6104e7565b6101ad6104f9565b6101ad61050b565b6101ad61051d565b6101ad61052f565b6101ad610541565b60006102ec632201027160e21b610553565b905090565b60006102ec635f70006760e11b61058f565b60006102ec635d3e6acd60e11b6105a9565b60006102ec62509b8f60e91b6105c3565b60006102ec6371cd7dcb60e11b6105dd565b60006102ec630f21112360e21b610553565b60006102ec6311a00a4960e31b6105f7565b60006102ec631b6d2fef60e11b610553565b60006102ec63b82197ed60e01b610611565b60006102ec63afe7f5a160e01b61062b565b60006102ec632ea1948560e01b610645565b60006102ec631ff0c32560e01b61065f565b60006102ec63c0df6bbb60e01b6105dd565b60006102ec632269bc4f60e01b61058f565b60006102ec63476c94cd60e01b610553565b60006102ec630665c60f60e51b61058f565b60006102ec63813e838f60e01b61058f565b60006102ec63616c1cc360e01b610679565b60006102ec634d7492d960e11b61058f565b60006102ec62c7d35f60e41b610693565b60006102ec631e593d9b60e31b610693565b60006102ec63017438bd60e71b610693565b60006102ec632ed61d1960e21b610645565b60006102ec6312c1f5e760e01b6105dd565b60006102ec637ac5457360e01b61058f565b60006102ec631097b93560e31b610693565b60006102ec6397a0259d60e01b610645565b60006102ec632c538f6b60e21b610553565b60006102ec63214f12af60e21b6105dd565b60006102ec6314eded6d60e21b6105dd565b60006102ec6310e1e6c560e21b6106ad565b60006102ec6333f5c8c360e11b6105f7565b60006102ec63322defe760e11b610553565b60006102ec636244bb4f60e01b6105f7565b60006102ec638e763c3760e01b61058f565b60008082601060f81b60405160200161056d9291906106c3565b604051602081830303815290604052905080610588906106e7565b9392505050565b60008082602160f81b60405160200161056d9291906106c3565b60008082602260f81b60405160200161056d9291906106c3565b60008082601160f81b60405160200161056d9291906106c3565b60008082602060f81b60405160200161056d9291906106c3565b60008082601260f81b60405160200161056d9291906106c3565b60008082604260f81b60405160200161056d9291906106c3565b60008082600260f81b60405160200161056d9291906106c3565b60008082604160f81b60405160200161056d9291906106c3565b60008082603360f81b60405160200161056d9291906106c3565b60008082606260f81b60405160200161056d9291906106c3565b60008082600160f81b60405160200161056d9291906106c3565b60008082606060f81b60405160200161056d9291905b6001600160e01b03199290921682526001600160f81b031916600482015260050190565b805160208201516001600160d81b031980821692919060058310156107165780818460050360031b1b83161693505b50505091905056fea264697066735822122088f635df6bb1c6ed9a16f71d90c906bf746d4a81962b9b0231a39caf6eff89e564736f6c63430008140033",
  "linkReferences": {},
  "deployedLinkReferences": {}
}