{
  "_format": "hh-sol-artifact-1",
  "contractName": "InstructionFacet",
  "sourceName": "contracts/Facets/InstructionFacet.sol",
  "abi": [
    {
      "inputs": [],
      "name": "instrucClosePosition",
      "outputs": [
        {
          "internalType": "bytes5",
          "name": "",
          "type": "bytes5"
        }
      ],
      "stateMutability": "pure",
      "type": "function"
    },
    {
      "inputs": [],
      "name": "instrucGetBorrowRate",
      "outputs": [
        {
          "internalType": "bytes5",
          "name": "",
          "type": "bytes5"
        }
      ],
      "stateMutability": "pure",
      "type": "function"
    },
    {
      "inputs": [],
      "name": "instrucGetNumber",
      "outputs": [
        {
          "internalType": "bytes5",
          "name": "",
          "type": "bytes5"
        }
      ],
      "stateMutability": "pure",
      "type": "function"
    },
    {
      "inputs": [],
      "name": "instrucGetSum",
      "outputs": [
        {
          "internalType": "bytes5",
          "name": "",
          "type": "bytes5"
        }
      ],
      "stateMutability": "pure",
      "type": "function"
    },
    {
      "inputs": [],
      "name": "instrucGetSupplyRate",
      "outputs": [
        {
          "internalType": "bytes5",
          "name": "",
          "type": "bytes5"
        }
      ],
      "stateMutability": "pure",
      "type": "function"
    },
    {
      "inputs": [],
      "name": "instrucIfTrueContinue",
      "outputs": [
        {
          "internalType": "bytes5",
          "name": "",
          "type": "bytes5"
        }
      ],
      "stateMutability": "pure",
      "type": "function"
    },
    {
      "inputs": [],
      "name": "instrucIfTrueContinueWResult",
      "outputs": [
        {
          "internalType": "bytes5",
          "name": "",
          "type": "bytes5"
        }
      ],
      "stateMutability": "pure",
      "type": "function"
    },
    {
      "inputs": [],
      "name": "instrucIsLiquidatable",
      "outputs": [
        {
          "internalType": "bytes5",
          "name": "",
          "type": "bytes5"
        }
      ],
      "stateMutability": "pure",
      "type": "function"
    },
    {
      "inputs": [],
      "name": "instrucLeverageUp",
      "outputs": [
        {
          "internalType": "bytes5",
          "name": "",
          "type": "bytes5"
        }
      ],
      "stateMutability": "pure",
      "type": "function"
    },
    {
      "inputs": [],
      "name": "instrucReturnProfit",
      "outputs": [
        {
          "internalType": "bytes5",
          "name": "",
          "type": "bytes5"
        }
      ],
      "stateMutability": "pure",
      "type": "function"
    },
    {
      "inputs": [],
      "name": "instrucSetNumber",
      "outputs": [
        {
          "internalType": "bytes5",
          "name": "",
          "type": "bytes5"
        }
      ],
      "stateMutability": "pure",
      "type": "function"
    },
    {
      "inputs": [],
      "name": "instrucStop",
      "outputs": [
        {
          "internalType": "bytes5",
          "name": "",
          "type": "bytes5"
        }
      ],
      "stateMutability": "pure",
      "type": "function"
    }
  ],
  "bytecode": "0x608060405234801561001057600080fd5b5061034d806100206000396000f3fe608060405234801561001057600080fd5b50600436106100a45760003560e01c8063074a1baf146100a95780632b7c28f6146100ce5780636ecc0540146100d65780639509dfea146100de578063a6106c5b146100e6578063a9dcde67146100ee578063bca0bab1146100f6578063c866d3ce146100fe578063d604e97714610106578063efa0999c1461010e578063fb5ae31c14610116578063fdcf970d1461011e575b600080fd5b6100b1610126565b6040516001600160d81b0319909116815260200160405180910390f35b6100b161013c565b6100b161014e565b6100b1610160565b6100b1610172565b6100b1610184565b6100b1610196565b6100b16101a8565b6100b16101ba565b6100b16101cc565b6100b16101de565b6100b16101f0565b600061013762509b8f60e91b610202565b905090565b60006101376311a00a4960e31b61023e565b6000610137630665c60f60e51b610258565b6000610137631e593d9b60e31b610272565b600061013763017438bd60e71b610272565b6000610137632ed61d1960e21b61028c565b6000610137631097b93560e31b610272565b60006101376397a0259d60e01b61028c565b6000610137632c538f6b60e21b6102a6565b60006101376333f5c8c360e11b61023e565b6000610137636244bb4f60e01b61023e565b6000610137638e763c3760e01b610258565b60008082601160f81b60405160200161021c9291906102bc565b604051602081830303815290604052905080610237906102e0565b9392505050565b60008082601260f81b60405160200161021c9291906102bc565b60008082602160f81b60405160200161021c9291906102bc565b60008082600160f81b60405160200161021c9291906102bc565b60008082604160f81b60405160200161021c9291906102bc565b60008082601060f81b60405160200161021c9291905b6001600160e01b03199290921682526001600160f81b031916600482015260050190565b805160208201516001600160d81b0319808216929190600583101561030f5780818460050360031b1b83161693505b50505091905056fea2646970667358221220cafd04ccb57a1630bcf9b408aebd455b900927926e6f40a3339c416a02ff69fd64736f6c63430008140033",
  "linkReferences": {},
  "deployedLinkReferences": {}
}