{
  "_format": "hh-sol-artifact-1",
  "contractName": "ControlFacet",
  "sourceName": "contracts/Facets/ControlFacet.sol",
  "abi": [
    {
      "inputs": [],
      "name": "InvalidSqrtRatio",
      "type": "error"
    },
    {
      "inputs": [],
      "name": "InvalidTick",
      "type": "error"
    },
    {
      "inputs": [
        {
          "internalType": "uint256[]",
          "name": "nums",
          "type": "uint256[]"
        }
      ],
      "name": "adjustBounds",
      "outputs": [],
      "stateMutability": "nonpayable",
      "type": "function"
    },
    {
      "inputs": [
        {
          "internalType": "uint256[]",
          "name": "nums",
          "type": "uint256[]"
        }
      ],
      "name": "continueIfOutOfBounds",
      "outputs": [
        {
          "internalType": "uint256",
          "name": "",
          "type": "uint256"
        },
        {
          "internalType": "uint256",
          "name": "",
          "type": "uint256"
        },
        {
          "internalType": "uint256",
          "name": "",
          "type": "uint256"
        },
        {
          "internalType": "uint256",
          "name": "",
          "type": "uint256"
        },
        {
          "internalType": "uint256",
          "name": "",
          "type": "uint256"
        }
      ],
      "stateMutability": "nonpayable",
      "type": "function"
    },
    {
      "inputs": [
        {
          "internalType": "uint256[]",
          "name": "nums",
          "type": "uint256[]"
        }
      ],
      "name": "ifTrueContinue",
      "outputs": [
        {
          "internalType": "uint256",
          "name": "",
          "type": "uint256"
        }
      ],
      "stateMutability": "nonpayable",
      "type": "function"
    },
    {
      "inputs": [
        {
          "internalType": "uint256[]",
          "name": "nums",
          "type": "uint256[]"
        }
      ],
      "name": "ifTrueContinueWResult",
      "outputs": [
        {
          "internalType": "uint256",
          "name": "",
          "type": "uint256"
        }
      ],
      "stateMutability": "nonpayable",
      "type": "function"
    }
  ],
  "bytecode": "0x608060405234801561001057600080fd5b50611f2f806100206000396000f3fe608060405234801561001057600080fd5b506004361061004c5760003560e01c806353b7b5b4146100515780638e763c3714610066578063a1371e001461008c578063ba7cd59a1461009f575b600080fd5b61006461005f3660046119a9565b6100da565b005b6100796100743660046119a9565b61016c565b6040519081526020015b60405180910390f35b61007961009a3660046119a9565b6101b2565b6100b26100ad3660046119a9565b6101d7565b604080519586526020860194909452928401919091526060830152608082015260a001610083565b610169816000815181106100f0576100f0611a4e565b60200260200101518260018151811061010b5761010b611a4e565b60200260200101518360028151811061012657610126611a4e565b60200260200101518460038151811061014157610141611a4e565b60200260200101518560048151811061015c5761015c611a4e565b602002602001015161022f565b50565b60006101ac8260008151811061018457610184611a4e565b60200260200101518360018151811061019f5761019f611a4e565b6020026020010151610327565b92915050565b60006101ac826000815181106101ca576101ca611a4e565b6020026020010151610347565b600080600080600061021d866000815181106101f5576101f5611a4e565b60200260200101518760018151811061021057610210611a4e565b602002602001015161036e565b939a9299509097509550909350915050565b60008061023a6104fd565b91509150600061024861058a565b90506102756040518060400160405280600a81526020016961646a757374696e673f60b01b8152506105ae565b600061028482600201546105f1565b90506102bd6040518060400160405280600781526020016610dd5c9c995b9d60ca1b815250856102b390611a7a565b62ffffff166108c3565b6000806102cc61012c84611a9c565b91506102da8361012c611ac1565b6040805180820190915260098152684d6f64696679696e6760b81b60208201529091508b908b9061030a906105ae565b61031882828a8a888861090c565b50505050505050505050505050565b60008260000361034157610339610a0c565b5060006101ac565b50919050565b60008160000361036157610359610a0c565b506000919050565b506001919050565b919050565b60008060008060008061037f610a37565b3060009081526006820160205260408120805492935090916103cc919083906103aa576103aa611a4e565b60009182526020909120600260049092020101546001600160a01b0316610a5b565b306000908152600684016020526040812080549293509091610419919083906103f7576103f7611a4e565b60009182526020909120600360049092020101546001600160a01b0316610a5b565b9050600061042561058a565b90508a8160020154101561046d57610454604051806060016040528060238152602001611ed7602391396105ae565b6002015491975095508894506000935091506104f39050565b89816002015411156104b35761049a604051806060016040528060238152602001611eb4602391396105ae565b6002015491975095508894506001935091506104f39050565b6104d4604051806060016040528060248152602001611e90602491396105ae565b6104dc610a0c565b600080600080600098509850985098509850505050505b9295509295909350565b600080600061050a610a37565b306000908152600682016020526040812080549293509161052d5761052d611a4e565b600091825260208083206004909202909101543083526006840190915260408220805460029290920b92909161056557610565611a4e565b60009182526020909120600490910201549094630100000090910460020b9350915050565b7ff3438885051c2d9738b375a323a098c058d6c0e57a376bd4989734002b250c4590565b610169816040516024016105c29190611b36565b60408051601f198184030181529190526020810180516001600160e01b031663104c13eb60e21b179052610a67565b60006401000276a36001600160a01b038316108061062c575073fffd8963efd1fc6a506488495d951d5263988d266001600160a01b03831610155b1561064a5760405163015680db60e11b815260040160405180910390fd5b600160201b600160c01b03602083901b166001600160801b03811160071b81811c6001600160401b03811160061b90811c63ffffffff811160051b90811c61ffff811160041b90811c60ff8111600390811b91821c600f811160021b90811c918211600190811b92831c979088119617909417909217179091171717608081106106dc57607f810383901c91506106e6565b80607f0383901b91505b908002607f81811c60ff83811c9190911c800280831c81831c1c800280841c81841c1c800280851c81851c1c800280861c81861c1c800280871c81871c1c800280881c81881c1c800280891c81891c1c8002808a1c818a1c1c8002808b1c818b1c1c8002808c1c818c1c1c8002808d1c818d1c1c8002808e1c9c81901c9c909c1c80029c8d901c9e9d607f198f0160401b60c09190911c6001603f1b161760c19b909b1c6001603e1b169a909a1760c29990991c6001603d1b169890981760c39790971c6001603c1b169690961760c49590951c6001603b1b169490941760c59390931c6001603a1b169290921760c69190911c600160391b161760c79190911c600160381b161760c89190911c600160371b161760c99190911c600160361b161760ca9190911c600160351b161760cb9190911c600160341b161760cc9190911c600160331b161760cd9190911c600160321b1617693627a301d71055774c8581026f028f6481ab7f045a5af012a19d003aa9198101608090811d906fdb2df09e81959a81455e260799a0632f8301901d600281810b9083900b146108b457886001600160a01b031661089982610a70565b6001600160a01b031611156108ae57816108b6565b806108b6565b815b9998505050505050505050565b61090882826040516024016108d9929190611b49565b60408051601f198184030181529190526020810180516001600160e01b0316632d839cb360e21b179052610a67565b5050565b610943604051806040016040528060168152602001752837b9b4ba34b7b71026b7b234b334b1b0ba34b7b71d60511b8152506105ae565b61098c6040518060400160405280600b81526020016a27b632102137bab732399d60a91b8152508561097490611a7a565b62ffffff1661098286611a7a565b62ffffff16610d88565b6109cb6040518060400160405280600b81526020016a2732bb902137bab732399d60a91b815250836109bd90611a7a565b62ffffff1661098284611a7a565b6000806109da88888888610dd4565b91509150610a0088888686866001600160801b0316866001600160801b0316600161104d565b50505050505050505050565b7f4bc1672041418a922447d83c0efd37e6707ed20ab7e53ca3f20ce1d16cac307b805460ff19169055565b7f35c2975ab7d5366802ce2593b15dfef7ba0fb48f04ca0c021c862e3ccd408ea590565b6001600160a01b031690565b61016981611541565b60008060008360020b12610a87578260020b610a8f565b8260020b6000035b9050620d89e8811115610ab5576040516333a3bdff60e21b815260040160405180910390fd5b600081600116600003610acc57600160801b610ade565b6ffffcb933bd6fad37aa2d162d1a5940015b6001600160881b031690506002821615610b08576ffff97272373d413259a46990580e213a0260801c5b6004821615610b27576ffff2e50f5f656932ef12357cf3c7fdcc0260801c5b6008821615610b46576fffe5caca7e10e4e61c3624eaa0941cd00260801c5b6010821615610b65576fffcb9843d60f6159c9db58835c9266440260801c5b6020821615610b84576fff973b41fa98c081472e6896dfb254c00260801c5b6040821615610ba3576fff2ea16466c96a3843ec78b326b528610260801c5b6080821615610bc2576ffe5dee046a99a2a811c461f1969c30530260801c5b610100821615610be2576ffcbe86c7900a88aedcffc83b479aa3a40260801c5b610200821615610c02576ff987a7253ac413176f2b074cf7815e540260801c5b610400821615610c22576ff3392b0822b70005940c7a398e4b70f30260801c5b610800821615610c42576fe7159475a2c29b7443b29c7fa6e889d90260801c5b611000821615610c62576fd097f3bdfd2022b8845ad8f792aa58250260801c5b612000821615610c82576fa9f746462d870fdf8a65dc1f90e061e50260801c5b614000821615610ca2576f70d869a156d2a1b890bb3df62baf32f70260801c5b618000821615610cc2576f31be135f97d08fd981231505542fcfa60260801c5b62010000821615610ce3576f09aa508b5b7a84e1c677de54f3e99bc90260801c5b62020000821615610d03576e5d6af8dedb81196699c329225ee6040260801c5b62040000821615610d22576d2216e584f5fa1ea926041bedfe980260801c5b62080000821615610d3f576b048a170391f7dc42444e8fa20260801c5b60008460020b1315610d60578060001981610d5c57610d5c611b6b565b0490505b600160201b810615610d73576001610d76565b60005b60ff16602082901c0192505050919050565b610dcf838383604051602401610da093929190611b81565b60408051601f198184030181529190526020810180516001600160e01b031663ca47c4eb60e01b179052610a67565b505050565b6000806000610de1610a37565b9050610ded8787611562565b6001600160a01b038083166000908152600785016020908152604080832084861684528252808320815160a08101835281548616815260018201548087169482019490945262ffffff600160a01b85041692810192909252600160b81b909204600290810b606083015290910154831660808201528554949b509299509192166333aa955b610e7b84611596565b6040516001600160e01b031960e084901b168152600481019190915230602482015260028a810b604483015289900b6064820152608401602060405180830381865afa158015610ecf573d6000803e3d6000fd5b505050506040513d601f19601f82011682018060405250810190610ef39190611ba6565b905060405180606001604052808860020b81526020018760020b815260200182610f1c90611bcf565b600f0b905260058401805460009081526002860160209081526040808320855181548785015162ffffff90811663010000000265ffffffffffff199092169216919091171781559481015160019586015587549354905192946001600160a01b0390941693638154831993610f989333938a9392909101611c2c565b6040516020818303038152906040526040518263ffffffff1660e01b8152600401610fc39190611b36565b6000604051808303816000875af1158015610fe2573d6000803e3d6000fd5b505050506040513d6000823e601f3d908101601f1916820160405261100a9190810190611c7a565b600585018054919250600061101e83611d0d565b91905055506000808280602001905181019061103a9190611d38565b909d909c509a5050505050505050505050565b600080600061105a610a37565b90506110688a8a88886115c6565b6001600160a01b038085166000908152600787016020908152604080832084881684528252808320815160a08101835281548616815260018201548087169482019490945262ffffff600160a01b85041692810192909252600160b81b909204600290810b6060830152909101549092166080830152949e50929c509098509650906110f382611596565b905061111e60405180604001604052806006815260200165414444494e4760d01b8152508d8d61160d565b8515611226576040518060a001604052808b60020b81526020018a60020b81526020018281526020018d6001600160a01b031681526020018c6001600160a01b0316815250836006016000306001600160a01b03166001600160a01b0316815260200190815260200160002060008154811061119c5761119c611a4e565b6000918252602091829020835160049092020180549284015162ffffff90811663010000000265ffffffffffff199094169216919091179190911781556040820151600182015560608201516002820180546001600160a01b039283166001600160a01b03199182161790915560809093015160039092018054929091169190921617905561136c565b826006016000306001600160a01b03166001600160a01b031681526020019081526020016000206040518060a001604052808c60020b81526020018b60020b81526020018381526020018e6001600160a01b031681526020018d6001600160a01b0316815250908060018154018082558091505060019003906000526020600020906004020160009091909190915060008201518160000160006101000a81548162ffffff021916908360020b62ffffff16021790555060208201518160000160036101000a81548162ffffff021916908360020b62ffffff1602179055506040820151816001015560608201518160020160006101000a8154816001600160a01b0302191690836001600160a01b0316021790555060808201518160030160006101000a8154816001600160a01b0302191690836001600160a01b0316021790555050505b8254604051633205590760e21b8152600481018390526000916001600160a01b03169063c815641c90602401608060405180830381865afa1580156113b5573d6000803e3d6000fd5b505050506040513d601f19601f820116820180604052508101906113d99190611d7e565b505050905060006113fd6113ec8d610a70565b6113f58d610a70565b848d8d611654565b6040805160608101825260028f810b82528e810b6020808401918252600f9590950b83850181815260058c0180546000908152948d01885286852086518154955162ffffff90811663010000000265ffffffffffff1990971691161794909417845590516001938401558b5490549551919750939592946001600160a01b03909416936381548319936114969333938d93919201611c2c565b6040516020818303038152906040526040518263ffffffff1660e01b81526004016114c19190611b36565b6000604051808303816000875af11580156114e0573d6000803e3d6000fd5b505050506040513d6000823e601f3d908101601f191682016040526115089190810190611c7a565b9050600080828060200190518101906115219190611d38565b600f91820b9c50900b995050505050505050505097509795505050505050565b60006a636f6e736f6c652e6c6f679050600080835160208501845afa505050565b600080826001600160a01b0316846001600160a01b0316101561158957508290508161158f565b50819050825b9250929050565b6000816040516020016115a99190611dea565b604051602081830303815290604052805190602001209050919050565b600080600080866001600160a01b0316886001600160a01b031610156115f6575086925085915084905083611602565b50859250869150839050845b945094509450949050565b610dcf83838360405160240161162593929190611df8565b60408051601f198184030181529190526020810180516001600160e01b03166307e763af60e51b179052610a67565b6000611663868686868661166d565b9695505050505050565b6000836001600160a01b0316856001600160a01b0316111561168d579293925b846001600160a01b0316866001600160a01b0316116116b8576116b185858561172e565b9050611725565b836001600160a01b0316866001600160a01b0316101561171a5760006116df87868661172e565b905060006116ee8789866117a3565b9050806001600160801b0316826001600160801b03161061170f5780611711565b815b92505050611725565b6116638585846117a3565b95945050505050565b6000826001600160a01b0316846001600160a01b0316111561174e579192915b6000611771856001600160a01b0316856001600160a01b0316600160601b6117e1565b905061179861179384836117858989611e2b565b6001600160a01b03166117e1565b61194d565b9150505b9392505050565b6000826001600160a01b0316846001600160a01b031611156117c3579192915b6117d961179383600160601b6117858888611e2b565b949350505050565b600080806000198587098587029250828110838203039150508060000361181a576000841161180f57600080fd5b50829004905061179c565b80841161182657600080fd5b600084868809808403938111909203919050600061184686196001611e52565b86169586900495938490049360008190030460010190506118678184611e65565b909317926000611878876003611e65565b60021890506118878188611e65565b611892906002611e7c565b61189c9082611e65565b90506118a88188611e65565b6118b3906002611e7c565b6118bd9082611e65565b90506118c98188611e65565b6118d4906002611e7c565b6118de9082611e65565b90506118ea8188611e65565b6118f5906002611e7c565b6118ff9082611e65565b905061190b8188611e65565b611916906002611e7c565b6119209082611e65565b905061192c8188611e65565b611937906002611e7c565b6119419082611e65565b90506108b68186611e65565b806001600160801b038116811461036957600080fd5b634e487b7160e01b600052604160045260246000fd5b604051601f8201601f191681016001600160401b03811182821017156119a1576119a1611963565b604052919050565b600060208083850312156119bc57600080fd5b82356001600160401b03808211156119d357600080fd5b818501915085601f8301126119e757600080fd5b8135818111156119f9576119f9611963565b8060051b9150611a0a848301611979565b8181529183018401918481019088841115611a2457600080fd5b938501935b83851015611a4257843582529385019390850190611a29565b98975050505050505050565b634e487b7160e01b600052603260045260246000fd5b634e487b7160e01b600052601160045260246000fd5b60008160020b627fffff198103611a9357611a93611a64565b60000392915050565b600282810b9082900b03627fffff198112627fffff821317156101ac576101ac611a64565b600281810b9083900b01627fffff8113627fffff19821217156101ac576101ac611a64565b60005b83811015611b01578181015183820152602001611ae9565b50506000910152565b60008151808452611b22816020860160208601611ae6565b601f01601f19169290920160200192915050565b60208152600061179c6020830184611b0a565b604081526000611b5c6040830185611b0a565b90508260208301529392505050565b634e487b7160e01b600052601260045260246000fd5b606081526000611b946060830186611b0a565b60208301949094525060400152919050565b600060208284031215611bb857600080fd5b81516001600160801b038116811461179c57600080fd5b6000600f82900b6001607f1b8101611a9357611a93611a64565b80516001600160a01b03908116835260208083015182169084015260408083015162ffffff169084015260608083015160020b9084015260809182015116910152565b6001600160a01b03851681526101008101611c4a6020830186611be9565b60058410611c6857634e487b7160e01b600052602160045260246000fd5b60c082019390935260e0015292915050565b600060208284031215611c8c57600080fd5b81516001600160401b0380821115611ca357600080fd5b818401915084601f830112611cb757600080fd5b815181811115611cc957611cc9611963565b611cdc601f8201601f1916602001611979565b9150808252856020828501011115611cf357600080fd5b611d04816020840160208601611ae6565b50949350505050565b600060018201611d1f57611d1f611a64565b5060010190565b8051600f81900b811461036957600080fd5b60008060408385031215611d4b57600080fd5b611d5483611d26565b9150611d6260208401611d26565b90509250929050565b805162ffffff8116811461036957600080fd5b60008060008060808587031215611d9457600080fd5b84516001600160a01b0381168114611dab57600080fd5b8094505060208501518060020b8114611dc357600080fd5b9250611dd160408601611d6b565b9150611ddf60608601611d6b565b905092959194509250565b60a081016101ac8284611be9565b606081526000611e0b6060830186611b0a565b6001600160a01b0394851660208401529290931660409091015292915050565b6001600160a01b03828116828216039080821115611e4b57611e4b611a64565b5092915050565b808201808211156101ac576101ac611a64565b80820281158282048414176101ac576101ac611a64565b818103818111156101ac576101ac611a6456fe43757272656e74205072696365206973207374696c6c2077697468696e20626f756e647343757272656e742070726963652069732061626f766520757070657220626f756e642143757272656e742070726963652069732062656c6f77206c6f77657220626f756e6421a2646970667358221220a4945dc03f6bfcf26deae56f90a138139706742e044e5a74244a6df1f49fa27a64736f6c63430008140033",
  "linkReferences": {},
  "deployedLinkReferences": {}
}