{
  "_format": "hh-sol-artifact-1",
  "contractName": "ControlFacet",
  "sourceName": "contracts/Facets/ControlFacet.sol",
  "abi": [
    {
      "inputs": [],
      "name": "InvalidSqrtRatio",
      "type": "error"
    },
    {
      "inputs": [],
      "name": "InvalidTick",
      "type": "error"
    },
    {
      "inputs": [
        {
          "internalType": "uint256[]",
          "name": "nums",
          "type": "uint256[]"
        }
      ],
      "name": "adjustBounds",
      "outputs": [],
      "stateMutability": "nonpayable",
      "type": "function"
    },
    {
      "inputs": [
        {
          "internalType": "uint256[]",
          "name": "nums",
          "type": "uint256[]"
        }
      ],
      "name": "continueIfOutOfBounds",
      "outputs": [
        {
          "internalType": "uint256",
          "name": "",
          "type": "uint256"
        },
        {
          "internalType": "uint256",
          "name": "",
          "type": "uint256"
        }
      ],
      "stateMutability": "nonpayable",
      "type": "function"
    },
    {
      "inputs": [
        {
          "internalType": "uint256[]",
          "name": "nums",
          "type": "uint256[]"
        }
      ],
      "name": "ifTrueContinue",
      "outputs": [
        {
          "internalType": "uint256",
          "name": "",
          "type": "uint256"
        }
      ],
      "stateMutability": "nonpayable",
      "type": "function"
    },
    {
      "inputs": [
        {
          "internalType": "uint256[]",
          "name": "nums",
          "type": "uint256[]"
        }
      ],
      "name": "ifTrueContinueWResult",
      "outputs": [
        {
          "internalType": "uint256",
          "name": "",
          "type": "uint256"
        }
      ],
      "stateMutability": "nonpayable",
      "type": "function"
    }
  ],
  "bytecode": "0x608060405234801561001057600080fd5b50611e74806100206000396000f3fe608060405234801561001057600080fd5b506004361061004c5760003560e01c806353b7b5b4146100515780638e763c3714610066578063a1371e001461008c578063ba7cd59a1461009f575b600080fd5b61006461005f3660046118ee565b6100c7565b005b6100796100743660046118ee565b610108565b6040519081526020015b60405180910390f35b61007961009a3660046118ee565b61014e565b6100b26100ad3660046118ee565b610173565b60408051928352602083019190915201610083565b610105816000815181106100dd576100dd611993565b6020026020010151826001815181106100f8576100f8611993565b60200260200101516101bd565b50565b60006101488260008151811061012057610120611993565b60200260200101518360018151811061013b5761013b611993565b60200260200101516102b2565b92915050565b60006101488260008151811061016657610166611993565b60200260200101516102d2565b6000806101b48360008151811061018c5761018c611993565b6020026020010151846001815181106101a7576101a7611993565b60200260200101516102f9565b91509150915091565b6000806101c8610451565b9150915060006101d66104de565b90506102036040518060400160405280600a81526020016961646a757374696e673f60b01b815250610502565b60006102128260020154610545565b905061024b6040518060400160405280600781526020016610dd5c9c995b9d60ca1b81525085610241906119bf565b62ffffff16610817565b60008061025a61012c846119e1565b91506102688361012c611a06565b6040805180820190915260098152684d6f64696679696e6760b81b60208201529091508890889061029890610502565b6102a682828a8a8888610860565b50505050505050505050565b6000826000036102cc576102c4610954565b506000610148565b50919050565b6000816000036102ec576102e4610954565b506000919050565b506001919050565b919050565b600080600061030661097f565b3060009081526006820160205260408120805492935090916103539190839061033157610331611993565b60009182526020909120600260049092020101546001600160a01b03166109a3565b3060009081526006840160205260408120805492935090916103a09190839061037e5761037e611993565b60009182526020909120600360049092020101546001600160a01b03166109a3565b905060006103ac6104de565b905087816002015410156103e8576103db604051806060016040528060238152602001611e1c60239139610502565b50909350915061044a9050565b8681600201541115610415576103db604051806060016040528060238152602001611df960239139610502565b610436604051806060016040528060248152602001611dd560249139610502565b61043e610954565b60008095509550505050505b9250929050565b600080600061045e61097f565b306000908152600682016020526040812080549293509161048157610481611993565b600091825260208083206004909202909101543083526006840190915260408220805460029290920b9290916104b9576104b9611993565b60009182526020909120600490910201549094630100000090910460020b9350915050565b7ff3438885051c2d9738b375a323a098c058d6c0e57a376bd4989734002b250c4590565b610105816040516024016105169190611a7b565b60408051601f198184030181529190526020810180516001600160e01b031663104c13eb60e21b1790526109af565b60006401000276a36001600160a01b0383161080610580575073fffd8963efd1fc6a506488495d951d5263988d266001600160a01b03831610155b1561059e5760405163015680db60e11b815260040160405180910390fd5b600160201b600160c01b03602083901b166001600160801b03811160071b81811c6001600160401b03811160061b90811c63ffffffff811160051b90811c61ffff811160041b90811c60ff8111600390811b91821c600f811160021b90811c918211600190811b92831c9790881196179094179092171790911717176080811061063057607f810383901c915061063a565b80607f0383901b91505b908002607f81811c60ff83811c9190911c800280831c81831c1c800280841c81841c1c800280851c81851c1c800280861c81861c1c800280871c81871c1c800280881c81881c1c800280891c81891c1c8002808a1c818a1c1c8002808b1c818b1c1c8002808c1c818c1c1c8002808d1c818d1c1c8002808e1c9c81901c9c909c1c80029c8d901c9e9d607f198f0160401b60c09190911c6001603f1b161760c19b909b1c6001603e1b169a909a1760c29990991c6001603d1b169890981760c39790971c6001603c1b169690961760c49590951c6001603b1b169490941760c59390931c6001603a1b169290921760c69190911c600160391b161760c79190911c600160381b161760c89190911c600160371b161760c99190911c600160361b161760ca9190911c600160351b161760cb9190911c600160341b161760cc9190911c600160331b161760cd9190911c600160321b1617693627a301d71055774c8581026f028f6481ab7f045a5af012a19d003aa9198101608090811d906fdb2df09e81959a81455e260799a0632f8301901d600281810b9083900b1461080857886001600160a01b03166107ed826109b8565b6001600160a01b03161115610802578161080a565b8061080a565b815b9998505050505050505050565b61085c828260405160240161082d929190611a8e565b60408051601f198184030181529190526020810180516001600160e01b0316632d839cb360e21b1790526109af565b5050565b610897604051806040016040528060168152602001752837b9b4ba34b7b71026b7b234b334b1b0ba34b7b71d60511b815250610502565b6108e06040518060400160405280600b81526020016a27b632102137bab732399d60a91b815250856108c8906119bf565b62ffffff166108d6866119bf565b62ffffff16610cd0565b61091f6040518060400160405280600b81526020016a2732bb902137bab732399d60a91b81525083610911906119bf565b62ffffff166108d6846119bf565b60008061092e88888888610d1c565b915091506102a688888686866001600160801b0316866001600160801b03166001610f95565b7f4bc1672041418a922447d83c0efd37e6707ed20ab7e53ca3f20ce1d16cac307b805460ff19169055565b7f35c2975ab7d5366802ce2593b15dfef7ba0fb48f04ca0c021c862e3ccd408ea590565b6001600160a01b031690565b61010581611489565b60008060008360020b126109cf578260020b6109d7565b8260020b6000035b9050620d89e88111156109fd576040516333a3bdff60e21b815260040160405180910390fd5b600081600116600003610a1457600160801b610a26565b6ffffcb933bd6fad37aa2d162d1a5940015b6001600160881b031690506002821615610a50576ffff97272373d413259a46990580e213a0260801c5b6004821615610a6f576ffff2e50f5f656932ef12357cf3c7fdcc0260801c5b6008821615610a8e576fffe5caca7e10e4e61c3624eaa0941cd00260801c5b6010821615610aad576fffcb9843d60f6159c9db58835c9266440260801c5b6020821615610acc576fff973b41fa98c081472e6896dfb254c00260801c5b6040821615610aeb576fff2ea16466c96a3843ec78b326b528610260801c5b6080821615610b0a576ffe5dee046a99a2a811c461f1969c30530260801c5b610100821615610b2a576ffcbe86c7900a88aedcffc83b479aa3a40260801c5b610200821615610b4a576ff987a7253ac413176f2b074cf7815e540260801c5b610400821615610b6a576ff3392b0822b70005940c7a398e4b70f30260801c5b610800821615610b8a576fe7159475a2c29b7443b29c7fa6e889d90260801c5b611000821615610baa576fd097f3bdfd2022b8845ad8f792aa58250260801c5b612000821615610bca576fa9f746462d870fdf8a65dc1f90e061e50260801c5b614000821615610bea576f70d869a156d2a1b890bb3df62baf32f70260801c5b618000821615610c0a576f31be135f97d08fd981231505542fcfa60260801c5b62010000821615610c2b576f09aa508b5b7a84e1c677de54f3e99bc90260801c5b62020000821615610c4b576e5d6af8dedb81196699c329225ee6040260801c5b62040000821615610c6a576d2216e584f5fa1ea926041bedfe980260801c5b62080000821615610c87576b048a170391f7dc42444e8fa20260801c5b60008460020b1315610ca8578060001981610ca457610ca4611ab0565b0490505b600160201b810615610cbb576001610cbe565b60005b60ff16602082901c0192505050919050565b610d17838383604051602401610ce893929190611ac6565b60408051601f198184030181529190526020810180516001600160e01b031663ca47c4eb60e01b1790526109af565b505050565b6000806000610d2961097f565b9050610d3587876114aa565b6001600160a01b038083166000908152600785016020908152604080832084861684528252808320815160a08101835281548616815260018201548087169482019490945262ffffff600160a01b85041692810192909252600160b81b909204600290810b606083015290910154831660808201528554949b509299509192166333aa955b610dc3846114db565b6040516001600160e01b031960e084901b168152600481019190915230602482015260028a810b604483015289900b6064820152608401602060405180830381865afa158015610e17573d6000803e3d6000fd5b505050506040513d601f19601f82011682018060405250810190610e3b9190611aeb565b905060405180606001604052808860020b81526020018760020b815260200182610e6490611b14565b600f0b905260058401805460009081526002860160209081526040808320855181548785015162ffffff90811663010000000265ffffffffffff199092169216919091171781559481015160019586015587549354905192946001600160a01b0390941693638154831993610ee09333938a9392909101611b71565b6040516020818303038152906040526040518263ffffffff1660e01b8152600401610f0b9190611a7b565b6000604051808303816000875af1158015610f2a573d6000803e3d6000fd5b505050506040513d6000823e601f3d908101601f19168201604052610f529190810190611bbf565b6005850180549192506000610f6683611c52565b919050555060008082806020019051810190610f829190611c7d565b909d909c509a5050505050505050505050565b6000806000610fa261097f565b9050610fb08a8a888861150b565b6001600160a01b038085166000908152600787016020908152604080832084881684528252808320815160a08101835281548616815260018201548087169482019490945262ffffff600160a01b85041692810192909252600160b81b909204600290810b6060830152909101549092166080830152949e50929c5090985096509061103b826114db565b905061106660405180604001604052806006815260200165414444494e4760d01b8152508d8d611552565b851561116e576040518060a001604052808b60020b81526020018a60020b81526020018281526020018d6001600160a01b031681526020018c6001600160a01b0316815250836006016000306001600160a01b03166001600160a01b031681526020019081526020016000206000815481106110e4576110e4611993565b6000918252602091829020835160049092020180549284015162ffffff90811663010000000265ffffffffffff199094169216919091179190911781556040820151600182015560608201516002820180546001600160a01b039283166001600160a01b0319918216179091556080909301516003909201805492909116919092161790556112b4565b826006016000306001600160a01b03166001600160a01b031681526020019081526020016000206040518060a001604052808c60020b81526020018b60020b81526020018381526020018e6001600160a01b031681526020018d6001600160a01b0316815250908060018154018082558091505060019003906000526020600020906004020160009091909190915060008201518160000160006101000a81548162ffffff021916908360020b62ffffff16021790555060208201518160000160036101000a81548162ffffff021916908360020b62ffffff1602179055506040820151816001015560608201518160020160006101000a8154816001600160a01b0302191690836001600160a01b0316021790555060808201518160030160006101000a8154816001600160a01b0302191690836001600160a01b0316021790555050505b8254604051633205590760e21b8152600481018390526000916001600160a01b03169063c815641c90602401608060405180830381865afa1580156112fd573d6000803e3d6000fd5b505050506040513d601f19601f820116820180604052508101906113219190611cc3565b505050905060006113456113348d6109b8565b61133d8d6109b8565b848d8d611599565b6040805160608101825260028f810b82528e810b6020808401918252600f9590950b83850181815260058c0180546000908152948d01885286852086518154955162ffffff90811663010000000265ffffffffffff1990971691161794909417845590516001938401558b5490549551919750939592946001600160a01b03909416936381548319936113de9333938d93919201611b71565b6040516020818303038152906040526040518263ffffffff1660e01b81526004016114099190611a7b565b6000604051808303816000875af1158015611428573d6000803e3d6000fd5b505050506040513d6000823e601f3d908101601f191682016040526114509190810190611bbf565b9050600080828060200190518101906114699190611c7d565b600f91820b9c50900b995050505050505050505097509795505050505050565b60006a636f6e736f6c652e6c6f679050600080835160208501845afa505050565b600080826001600160a01b0316846001600160a01b031610156114d157508290508161044a565b508190508261044a565b6000816040516020016114ee9190611d2f565b604051602081830303815290604052805190602001209050919050565b600080600080866001600160a01b0316886001600160a01b0316101561153b575086925085915084905083611547565b50859250869150839050845b945094509450949050565b610d1783838360405160240161156a93929190611d3d565b60408051601f198184030181529190526020810180516001600160e01b03166307e763af60e51b1790526109af565b60006115a886868686866115b2565b9695505050505050565b6000836001600160a01b0316856001600160a01b031611156115d2579293925b846001600160a01b0316866001600160a01b0316116115fd576115f6858585611673565b905061166a565b836001600160a01b0316866001600160a01b0316101561165f576000611624878686611673565b905060006116338789866116e8565b9050806001600160801b0316826001600160801b0316106116545780611656565b815b9250505061166a565b6115a88585846116e8565b95945050505050565b6000826001600160a01b0316846001600160a01b03161115611693579192915b60006116b6856001600160a01b0316856001600160a01b0316600160601b611726565b90506116dd6116d884836116ca8989611d70565b6001600160a01b0316611726565b611892565b9150505b9392505050565b6000826001600160a01b0316846001600160a01b03161115611708579192915b61171e6116d883600160601b6116ca8888611d70565b949350505050565b600080806000198587098587029250828110838203039150508060000361175f576000841161175457600080fd5b5082900490506116e1565b80841161176b57600080fd5b600084868809808403938111909203919050600061178b86196001611d97565b86169586900495938490049360008190030460010190506117ac8184611daa565b9093179260006117bd876003611daa565b60021890506117cc8188611daa565b6117d7906002611dc1565b6117e19082611daa565b90506117ed8188611daa565b6117f8906002611dc1565b6118029082611daa565b905061180e8188611daa565b611819906002611dc1565b6118239082611daa565b905061182f8188611daa565b61183a906002611dc1565b6118449082611daa565b90506118508188611daa565b61185b906002611dc1565b6118659082611daa565b90506118718188611daa565b61187c906002611dc1565b6118869082611daa565b905061080a8186611daa565b806001600160801b03811681146102f457600080fd5b634e487b7160e01b600052604160045260246000fd5b604051601f8201601f191681016001600160401b03811182821017156118e6576118e66118a8565b604052919050565b6000602080838503121561190157600080fd5b82356001600160401b038082111561191857600080fd5b818501915085601f83011261192c57600080fd5b81358181111561193e5761193e6118a8565b8060051b915061194f8483016118be565b818152918301840191848101908884111561196957600080fd5b938501935b838510156119875784358252938501939085019061196e565b98975050505050505050565b634e487b7160e01b600052603260045260246000fd5b634e487b7160e01b600052601160045260246000fd5b60008160020b627fffff1981036119d8576119d86119a9565b60000392915050565b600282810b9082900b03627fffff198112627fffff82131715610148576101486119a9565b600281810b9083900b01627fffff8113627fffff1982121715610148576101486119a9565b60005b83811015611a46578181015183820152602001611a2e565b50506000910152565b60008151808452611a67816020860160208601611a2b565b601f01601f19169290920160200192915050565b6020815260006116e16020830184611a4f565b604081526000611aa16040830185611a4f565b90508260208301529392505050565b634e487b7160e01b600052601260045260246000fd5b606081526000611ad96060830186611a4f565b60208301949094525060400152919050565b600060208284031215611afd57600080fd5b81516001600160801b03811681146116e157600080fd5b6000600f82900b6001607f1b81016119d8576119d86119a9565b80516001600160a01b03908116835260208083015182169084015260408083015162ffffff169084015260608083015160020b9084015260809182015116910152565b6001600160a01b03851681526101008101611b8f6020830186611b2e565b60058410611bad57634e487b7160e01b600052602160045260246000fd5b60c082019390935260e0015292915050565b600060208284031215611bd157600080fd5b81516001600160401b0380821115611be857600080fd5b818401915084601f830112611bfc57600080fd5b815181811115611c0e57611c0e6118a8565b611c21601f8201601f19166020016118be565b9150808252856020828501011115611c3857600080fd5b611c49816020840160208601611a2b565b50949350505050565b600060018201611c6457611c646119a9565b5060010190565b8051600f81900b81146102f457600080fd5b60008060408385031215611c9057600080fd5b611c9983611c6b565b9150611ca760208401611c6b565b90509250929050565b805162ffffff811681146102f457600080fd5b60008060008060808587031215611cd957600080fd5b84516001600160a01b0381168114611cf057600080fd5b8094505060208501518060020b8114611d0857600080fd5b9250611d1660408601611cb0565b9150611d2460608601611cb0565b905092959194509250565b60a081016101488284611b2e565b606081526000611d506060830186611a4f565b6001600160a01b0394851660208401529290931660409091015292915050565b6001600160a01b03828116828216039080821115611d9057611d906119a9565b5092915050565b80820180821115610148576101486119a9565b8082028115828204841417610148576101486119a9565b81810381811115610148576101486119a956fe43757272656e74205072696365206973207374696c6c2077697468696e20626f756e647343757272656e742070726963652069732061626f766520757070657220626f756e642143757272656e742070726963652069732062656c6f77206c6f77657220626f756e6421a2646970667358221220dbc01e06932eb3f5eedb657fc314412b933b331f60e1e711e3219ca27e1dd4e264736f6c63430008140033",
  "linkReferences": {},
  "deployedLinkReferences": {}
}