{
  "_format": "hh-sol-artifact-1",
  "contractName": "ControlFacet",
  "sourceName": "contracts/Facets/ControlFacet.sol",
  "abi": [
    {
      "inputs": [
        {
          "internalType": "uint256[]",
          "name": "nums",
          "type": "uint256[]"
        }
      ],
      "name": "ifTrueContinue",
      "outputs": [
        {
          "internalType": "uint256",
          "name": "",
          "type": "uint256"
        }
      ],
      "stateMutability": "nonpayable",
      "type": "function"
    },
    {
      "inputs": [
        {
          "internalType": "uint256[]",
          "name": "nums",
          "type": "uint256[]"
        }
      ],
      "name": "ifTrueContinueWResult",
      "outputs": [
        {
          "internalType": "uint256",
          "name": "",
          "type": "uint256"
        }
      ],
      "stateMutability": "nonpayable",
      "type": "function"
    }
  ],
  "bytecode": "0x608060405234801561001057600080fd5b5061026a806100206000396000f3fe608060405234801561001057600080fd5b50600436106100365760003560e01c80638e763c371461003b578063a1371e0014610060575b600080fd5b61004e610049366004610161565b610073565b60405190815260200160405180910390f35b61004e61006e366004610161565b6100b9565b60006100b38260008151811061008b5761008b61021e565b6020026020010151836001815181106100a6576100a661021e565b60200260200101516100de565b92915050565b60006100b3826000815181106100d1576100d161021e565b60200260200101516100fe565b6000826000036100f8576100f0610120565b5060006100b3565b50919050565b60008160000361011857610110610120565b506000919050565b506001919050565b7f4bc1672041418a922447d83c0efd37e6707ed20ab7e53ca3f20ce1d16cac307b805460ff19169055565b634e487b7160e01b600052604160045260246000fd5b6000602080838503121561017457600080fd5b82356001600160401b038082111561018b57600080fd5b818501915085601f83011261019f57600080fd5b8135818111156101b1576101b161014b565b8060051b604051601f19603f830116810181811085821117156101d6576101d661014b565b6040529182528482019250838101850191888311156101f457600080fd5b938501935b82851015610212578435845293850193928501926101f9565b98975050505050505050565b634e487b7160e01b600052603260045260246000fdfea26469706673582212206f3abf3684d414acff9f434309c5a3768300f9a96322d8bea0cc1f86c1950bb964736f6c63430008140033",
  "linkReferences": {},
  "deployedLinkReferences": {}
}