{
  "_format": "hh-sol-artifact-1",
  "contractName": "SparkFacet",
  "sourceName": "contracts/Facets/SparkFacet.sol",
  "abi": [
    {
      "inputs": [
        {
          "internalType": "address",
          "name": "asset",
          "type": "address"
        },
        {
          "internalType": "uint256",
          "name": "amount",
          "type": "uint256"
        }
      ],
      "name": "borrowSpark",
      "outputs": [],
      "stateMutability": "nonpayable",
      "type": "function"
    },
    {
      "inputs": [
        {
          "internalType": "address",
          "name": "providedToken",
          "type": "address"
        },
        {
          "internalType": "address",
          "name": "collateral",
          "type": "address"
        },
        {
          "internalType": "uint256",
          "name": "counter",
          "type": "uint256"
        }
      ],
      "name": "closePositionSpark",
      "outputs": [],
      "stateMutability": "nonpayable",
      "type": "function"
    },
    {
      "inputs": [
        {
          "internalType": "address",
          "name": "user",
          "type": "address"
        }
      ],
      "name": "getUserAccountData",
      "outputs": [
        {
          "internalType": "uint256",
          "name": "totalCollateralBase",
          "type": "uint256"
        },
        {
          "internalType": "uint256",
          "name": "totalDebtBase",
          "type": "uint256"
        },
        {
          "internalType": "uint256",
          "name": "availableBorrowsBase",
          "type": "uint256"
        },
        {
          "internalType": "uint256",
          "name": "currentLiquidationThreshold",
          "type": "uint256"
        },
        {
          "internalType": "uint256",
          "name": "ltv",
          "type": "uint256"
        },
        {
          "internalType": "uint256",
          "name": "healthFactor",
          "type": "uint256"
        }
      ],
      "stateMutability": "view",
      "type": "function"
    },
    {
      "inputs": [
        {
          "internalType": "address",
          "name": "collateral",
          "type": "address"
        },
        {
          "internalType": "address",
          "name": "providedToken",
          "type": "address"
        },
        {
          "internalType": "uint256",
          "name": "userAmount",
          "type": "uint256"
        },
        {
          "internalType": "uint256",
          "name": "swapAmount",
          "type": "uint256"
        }
      ],
      "name": "leverageUpSpark",
      "outputs": [],
      "stateMutability": "nonpayable",
      "type": "function"
    },
    {
      "inputs": [
        {
          "internalType": "address",
          "name": "poolAddy",
          "type": "address"
        }
      ],
      "name": "setPool",
      "outputs": [],
      "stateMutability": "nonpayable",
      "type": "function"
    },
    {
      "inputs": [
        {
          "internalType": "address",
          "name": "asset",
          "type": "address"
        },
        {
          "internalType": "uint256",
          "name": "amount",
          "type": "uint256"
        }
      ],
      "name": "supplySpark",
      "outputs": [],
      "stateMutability": "nonpayable",
      "type": "function"
    }
  ],
  "bytecode": "0x608060405234801561001057600080fd5b50610d99806100206000396000f3fe608060405234801561001057600080fd5b50600436106100625760003560e01c806320b609d8146100675780634437152a1461007c57806350f1990e1461008f578063b2b9a139146100a2578063bb60a865146100b5578063bf92857c146100c8575b600080fd5b61007a6100753660046109c6565b61010c565b005b61007a61008a366004610a08565b61011e565b61007a61009d366004610a2a565b61012a565b61007a6100b0366004610a54565b610138565b61007a6100c3366004610a2a565b610148565b6100db6100d6366004610a08565b610152565b604080519687526020870195909552938501929092526060840152608083015260a082015260c00160405180910390f35b61011884848484610178565b50505050565b610127816101c4565b50565b61013482826101f0565b5050565b610143838383610272565b505050565b6101348282610438565b60008060008060008061016487610500565b949c939b5091995097509550909350915050565b604080516080810182526001600160a01b038087168252851660208201529081018390526060810182905260006101bb85876101b386610aa6565b600386610599565b50505050505050565b60006101ce61086e565b80546001600160a01b0319166001600160a01b03939093169290921790915550565b60006101fa61086e565b805460405163a415bcad60e01b81526001600160a01b03868116600483015260248201869052600260448301526000606483015230608483015292935091169063a415bcad9060a4015b600060405180830381600087803b15801561025e57600080fd5b505af11580156101bb573d6000803e3d6000fd5b600061027c61086e565b90506000610288610892565b80546040516370a0823160e01b81529192506000916001600160a01b03888116926370a08231926102bf9290911690600401610ac2565b602060405180830381865afa1580156102dc573d6000803e3d6000fd5b505050506040513d601f19601f820116820180604052508101906103009190610ad6565b9050600061030d30610500565b505050505090506602cc9f57ecbba0905060006040518060800160405280886001600160a01b03168152602001896001600160a01b031681526020016000815260200183815250905060006103678989856101b390610aa6565b85546040516370a0823160e01b81529192506000916001600160a01b038c8116926370a082319261039e9290911690600401610ac2565b602060405180830381865afa1580156103bb573d6000803e3d6000fd5b505050506040513d601f19601f820116820180604052508101906103df9190610ad6565b60008981526001808a01602052604090912001549091506104019082876108b6565b61042c6040518060400160405280600a8152602001695749544844524157212160b01b815250610904565b50505050505050505050565b600061044261086e565b805460405163095ea7b360e01b81526001600160a01b0391821660048201526024810185905291925084169063095ea7b3906044016020604051808303816000875af1158015610496573d6000803e3d6000fd5b505050506040513d601f19601f820116820180604052508101906104ba9190610aef565b50805460405163617ba03760e01b81526001600160a01b03858116600483015260248201859052306044830152600060648301529091169063617ba03790608401610244565b600080600080600080600061051361086e565b8054604051632fe4a15f60e21b81529192506001600160a01b03169063bf92857c90610543908b90600401610ac2565b60c060405180830381865afa158015610560573d6000803e3d6000fd5b505050506040513d601f19601f820116820180604052508101906105849190610b11565b949d939c50919a509850965090945092505050565b606060006105a5610892565b905060008060006105b68a8a610947565b6001600160a01b038083166000908152600789016020908152604080832084861684528252808320815160a08101835281548616815260018201548087168286015262ffffff600160a01b82041682850152600160b81b9004600290810b60608084019190915292015490951660808601528151908101825287151581529182018f9052959850939650919450929091908101866106725761066d600173fffd8963efd1fc6a506488495d951d5263988d26610b5b565b610682565b6106826401000276a36001610b82565b6001600160a01b03168152509050808660010160008860040154815260200190815260200160002060008201518160000160006101000a81548160ff0219169083151502179055506020820151816001015560408201518160020160006101000a8154816001600160a01b0302191690836001600160a01b03160217905550905050878660030160008860040154815260200190815260200160002060008201518160000160006101000a8154816001600160a01b0302191690836001600160a01b0316021790555060208201518160010160006101000a8154816001600160a01b0302191690836001600160a01b03160217905550604082015181600201556060820151816003015590505060008660000160009054906101000a90046001600160a01b03166001600160a01b0316638154831933858d8b600401546040516020016107d29493929190610ba2565b6040516020818303038152906040526040518263ffffffff1660e01b81526004016107fd9190610c75565b6000604051808303816000875af115801561081c573d6000803e3d6000fd5b505050506040513d6000823e601f3d908101601f191682016040526108449190810190610c9e565b600488018054919250600061085883610d4a565b90915550909d9c50505050505050505050505050565b7fbd9b63cad2056a2132e010a4fbc483bbe85b10ec55651a56b347929db5cb470690565b7f35c2975ab7d5366802ce2593b15dfef7ba0fb48f04ca0c021c862e3ccd408ea590565b6040516024810184905260448101839052606481018290526101439060840160408051601f198184030181529190526020810180516001600160e01b031663347b5e8f60e21b179052610985565b610127816040516024016109189190610c75565b60408051601f198184030181529190526020810180516001600160e01b031663104c13eb60e21b179052610985565b6000806000836001600160a01b0316856001600160a01b031610156109745750600191508390508261097e565b5060009150829050835b9250925092565b6101278160006a636f6e736f6c652e6c6f679050600080835160208501845afa505050565b80356001600160a01b03811681146109c157600080fd5b919050565b600080600080608085870312156109dc57600080fd5b6109e5856109aa565b93506109f3602086016109aa565b93969395505050506040820135916060013590565b600060208284031215610a1a57600080fd5b610a23826109aa565b9392505050565b60008060408385031215610a3d57600080fd5b610a46836109aa565b946020939093013593505050565b600080600060608486031215610a6957600080fd5b610a72846109aa565b9250610a80602085016109aa565b9150604084013590509250925092565b634e487b7160e01b600052601160045260246000fd5b6000600160ff1b8201610abb57610abb610a90565b5060000390565b6001600160a01b0391909116815260200190565b600060208284031215610ae857600080fd5b5051919050565b600060208284031215610b0157600080fd5b81518015158114610a2357600080fd5b60008060008060008060c08789031215610b2a57600080fd5b865195506020870151945060408701519350606087015192506080870151915060a087015190509295509295509295565b6001600160a01b03828116828216039080821115610b7b57610b7b610a90565b5092915050565b6001600160a01b03818116838216019080821115610b7b57610b7b610a90565b60006101008201905060018060a01b03808716835280865116602084015280602087015116604084015262ffffff6040870151166060840152606086015160020b60808401528060808701511660a08401525060048410610c1357634e487b7160e01b600052602160045260246000fd5b60c082019390935260e0015292915050565b60005b83811015610c40578181015183820152602001610c28565b50506000910152565b60008151808452610c61816020860160208601610c25565b601f01601f19169290920160200192915050565b602081526000610a236020830184610c49565b634e487b7160e01b600052604160045260246000fd5b600060208284031215610cb057600080fd5b81516001600160401b0380821115610cc757600080fd5b818401915084601f830112610cdb57600080fd5b815181811115610ced57610ced610c88565b604051601f8201601f19908116603f01168101908382118183101715610d1557610d15610c88565b81604052828152876020848701011115610d2e57600080fd5b610d3f836020830160208801610c25565b979650505050505050565b600060018201610d5c57610d5c610a90565b506001019056fea264697066735822122044145aaa14949f8bcaaa49b1e66b1cc8eef228b93471067dd7f87c59cdb0e8a464736f6c63430008140033",
  "linkReferences": {},
  "deployedLinkReferences": {}
}