{
  "_format": "hh-sol-artifact-1",
  "contractName": "SparkFacet",
  "sourceName": "contracts/Facets/SparkFacet.sol",
  "abi": [
    {
      "inputs": [
        {
          "internalType": "address",
          "name": "asset",
          "type": "address"
        },
        {
          "internalType": "uint256",
          "name": "amount",
          "type": "uint256"
        }
      ],
      "name": "borrowSpark",
      "outputs": [
        {
          "internalType": "uint256",
          "name": "",
          "type": "uint256"
        }
      ],
      "stateMutability": "nonpayable",
      "type": "function"
    },
    {
      "inputs": [
        {
          "internalType": "uint256",
          "name": "counter",
          "type": "uint256"
        }
      ],
      "name": "closePositionSpark",
      "outputs": [],
      "stateMutability": "nonpayable",
      "type": "function"
    },
    {
      "inputs": [],
      "name": "getHF",
      "outputs": [
        {
          "internalType": "uint256",
          "name": "",
          "type": "uint256"
        }
      ],
      "stateMutability": "nonpayable",
      "type": "function"
    },
    {
      "inputs": [
        {
          "internalType": "address",
          "name": "user",
          "type": "address"
        }
      ],
      "name": "getUserAccountData",
      "outputs": [
        {
          "internalType": "uint256",
          "name": "totalCollateralBase",
          "type": "uint256"
        },
        {
          "internalType": "uint256",
          "name": "totalDebtBase",
          "type": "uint256"
        },
        {
          "internalType": "uint256",
          "name": "availableBorrowsBase",
          "type": "uint256"
        },
        {
          "internalType": "uint256",
          "name": "currentLiquidationThreshold",
          "type": "uint256"
        },
        {
          "internalType": "uint256",
          "name": "ltv",
          "type": "uint256"
        },
        {
          "internalType": "uint256",
          "name": "healthFactor",
          "type": "uint256"
        }
      ],
      "stateMutability": "view",
      "type": "function"
    },
    {
      "inputs": [
        {
          "internalType": "address",
          "name": "collateral",
          "type": "address"
        },
        {
          "internalType": "address",
          "name": "providedToken",
          "type": "address"
        },
        {
          "internalType": "uint256",
          "name": "userAmount",
          "type": "uint256"
        },
        {
          "internalType": "uint256",
          "name": "swapAmount",
          "type": "uint256"
        }
      ],
      "name": "leverageUpSpark",
      "outputs": [
        {
          "internalType": "uint256",
          "name": "",
          "type": "uint256"
        }
      ],
      "stateMutability": "nonpayable",
      "type": "function"
    },
    {
      "inputs": [
        {
          "internalType": "address",
          "name": "asset",
          "type": "address"
        },
        {
          "internalType": "uint256",
          "name": "amount",
          "type": "uint256"
        }
      ],
      "name": "repaySpark",
      "outputs": [],
      "stateMutability": "nonpayable",
      "type": "function"
    },
    {
      "inputs": [
        {
          "internalType": "address",
          "name": "poolAddy",
          "type": "address"
        }
      ],
      "name": "setPool",
      "outputs": [],
      "stateMutability": "nonpayable",
      "type": "function"
    },
    {
      "inputs": [
        {
          "internalType": "address",
          "name": "asset",
          "type": "address"
        },
        {
          "internalType": "uint256",
          "name": "amount",
          "type": "uint256"
        }
      ],
      "name": "supplySpark",
      "outputs": [
        {
          "internalType": "uint256",
          "name": "",
          "type": "uint256"
        }
      ],
      "stateMutability": "nonpayable",
      "type": "function"
    },
    {
      "inputs": [
        {
          "internalType": "address",
          "name": "asset",
          "type": "address"
        },
        {
          "internalType": "uint256",
          "name": "amount",
          "type": "uint256"
        }
      ],
      "name": "withdrawSpark",
      "outputs": [
        {
          "internalType": "uint256",
          "name": "",
          "type": "uint256"
        }
      ],
      "stateMutability": "nonpayable",
      "type": "function"
    }
  ],
  "bytecode": "0x608060405234801561001057600080fd5b50611041806100206000396000f3fe608060405234801561001057600080fd5b50600436106100835760003560e01c80630c7d35f01461008857806320b609d8146100a35780634437152a146100b657806350f1990e146100cb57806382c6d991146100de578063af6ab27f146100f1578063b83df74c14610104578063bb60a86514610117578063bf92857c1461012a575b600080fd5b61009061016a565b6040519081526020015b60405180910390f35b6100906100b1366004610c5a565b610179565b6100c96100c4366004610c9c565b610190565b005b6100906100d9366004610cb7565b61019c565b6100c96100ec366004610ce1565b6101b1565b6100906100ff366004610cb7565b6101ba565b6100c9610112366004610cb7565b6101c6565b610090610125366004610cb7565b6101d4565b61013d610138366004610c9c565b6101e0565b604080519687526020870195909552938501929092526060840152608083015260a082015260c00161009a565b6000610174610206565b905090565b600061018785858585610293565b95945050505050565b610199816102f7565b50565b60006101a88383610323565b90505b92915050565b610199816103b2565b60006101a8838361056d565b6101d082826105ff565b5050565b60006101a8838361070a565b6000806000806000806101f2876107d2565b949c939b5091995097509550909350915050565b60008061021161086b565b8054604051632fe4a15f60e21b81529192506000916001600160a01b039091169063bf92857c90610246903090600401610cfa565b60c060405180830381865afa158015610263573d6000803e3d6000fd5b505050506040513d601f19601f820116820180604052508101906102879190610d0e565b98975050505050505050565b60008061029e61086b565b604080516080810182526001600160a01b03808a168252881660208201529081018690526060810185905290915060006102e487896102dc88610d6e565b60038661088f565b9050600183600201546102879190610d8a565b600061030161086b565b80546001600160a01b0319166001600160a01b03939093169290921790915550565b60008061032e61086b565b805460405163a415bcad60e01b81526001600160a01b03878116600483015260248201879052600260448301526000606483015230608483015292935091169063a415bcad9060a4015b600060405180830381600087803b15801561039257600080fd5b505af11580156103a6573d6000803e3d6000fd5b50949695505050505050565b60006103bc61086b565b905060006103c8610b64565b60008481526001840160205260408082206003810154600491820154855493516370a0823160e01b81529596506001600160a01b0391821695908216949386936370a082319361041b9392169101610cfa565b602060405180830381865afa158015610438573d6000803e3d6000fd5b505050506040513d601f19601f8201168201806040525081019061045c9190610d9d565b90506000610469306107d2565b50505050915050806402540be4006104819190610db6565b604080516080810182526001600160a01b038087168252871660208201526000918101829052606081018390529192506104c786866104bf86610d6e565b60048661088f565b87546040516370a0823160e01b81529192506000916001600160a01b03898116926370a08231926104fe9290911690600401610cfa565b602060405180830381865afa15801561051b573d6000803e3d6000fd5b505050506040513d601f19601f8201168201806040525081019061053f9190610d9d565b60008b81526001808c0160205260409091200154909150610561908287610b88565b50505050505050505050565b60008061057861086b565b8054604051631a4ca37b60e21b81526001600160a01b038781166004830152602482018790523060448301529293509116906369328dec906064016020604051808303816000875af11580156105d2573d6000803e3d6000fd5b505050506040513d601f19601f820116820180604052508101906105f69190610d9d565b50919392505050565b600061060961086b565b805460405163095ea7b360e01b81529192506001600160a01b038086169263095ea7b39261063d9216908690600401610dcd565b6020604051808303816000875af115801561065c573d6000803e3d6000fd5b505050506040513d601f19601f820116820180604052508101906106809190610de6565b50805460405163573ade8160e01b81526001600160a01b03858116600483015260248201859052600260448301523060648301529091169063573ade81906084016020604051808303816000875af11580156106e0573d6000803e3d6000fd5b505050506040513d601f19601f820116820180604052508101906107049190610d9d565b50505050565b60008061071561086b565b805460405163095ea7b360e01b81529192506001600160a01b038087169263095ea7b3926107499216908790600401610dcd565b6020604051808303816000875af1158015610768573d6000803e3d6000fd5b505050506040513d601f19601f8201168201806040525081019061078c9190610de6565b50805460405163617ba03760e01b81526001600160a01b03868116600483015260248201869052306044830152600060648301529091169063617ba03790608401610378565b60008060008060008060006107e561086b565b8054604051632fe4a15f60e21b81529192506001600160a01b03169063bf92857c90610815908b90600401610cfa565b60c060405180830381865afa158015610832573d6000803e3d6000fd5b505050506040513d601f19601f820116820180604052508101906108569190610d0e565b949d939c50919a509850965090945092505050565b7fbd9b63cad2056a2132e010a4fbc483bbe85b10ec55651a56b347929db5cb470690565b6060600061089b610b64565b905060008060006108ac8a8a610bdb565b6001600160a01b038083166000908152600789016020908152604080832084861684528252808320815160a08101835281548616815260018201548087168286015262ffffff600160a01b82041682850152600160b81b9004600290810b60608084019190915292015490951660808601528151908101825287151581529182018f90529598509396509194509290919081018661096857610963600173fffd8963efd1fc6a506488495d951d5263988d26610e0f565b610978565b6109786401000276a36001610e36565b6001600160a01b03168152509050808660010160008860040154815260200190815260200160002060008201518160000160006101000a81548160ff0219169083151502179055506020820151816001015560408201518160020160006101000a8154816001600160a01b0302191690836001600160a01b03160217905550905050878660030160008860040154815260200190815260200160002060008201518160000160006101000a8154816001600160a01b0302191690836001600160a01b0316021790555060208201518160010160006101000a8154816001600160a01b0302191690836001600160a01b03160217905550604082015181600201556060820151816003015590505060008660000160009054906101000a90046001600160a01b03166001600160a01b0316638154831933858d8b60040154604051602001610ac89493929190610e56565b6040516020818303038152906040526040518263ffffffff1660e01b8152600401610af39190610efd565b6000604051808303816000875af1158015610b12573d6000803e3d6000fd5b505050506040513d6000823e601f3d908101601f19168201604052610b3a9190810190610f46565b6004880180549192506000610b4e83610ff2565b90915550909d9c50505050505050505050505050565b7f35c2975ab7d5366802ce2593b15dfef7ba0fb48f04ca0c021c862e3ccd408ea590565b604051602481018490526044810183905260648101829052610bd69060840160408051601f198184030181529190526020810180516001600160e01b031663347b5e8f60e21b179052610c19565b505050565b6000806000836001600160a01b0316856001600160a01b03161015610c0857506001915083905082610c12565b5060009150829050835b9250925092565b6101998160006a636f6e736f6c652e6c6f679050600080835160208501845afa505050565b80356001600160a01b0381168114610c5557600080fd5b919050565b60008060008060808587031215610c7057600080fd5b610c7985610c3e565b9350610c8760208601610c3e565b93969395505050506040820135916060013590565b600060208284031215610cae57600080fd5b6101a882610c3e565b60008060408385031215610cca57600080fd5b610cd383610c3e565b946020939093013593505050565b600060208284031215610cf357600080fd5b5035919050565b6001600160a01b0391909116815260200190565b60008060008060008060c08789031215610d2757600080fd5b865195506020870151945060408701519350606087015192506080870151915060a087015190509295509295509295565b634e487b7160e01b600052601160045260246000fd5b6000600160ff1b8201610d8357610d83610d58565b5060000390565b818103818111156101ab576101ab610d58565b600060208284031215610daf57600080fd5b5051919050565b80820281158282048414176101ab576101ab610d58565b6001600160a01b03929092168252602082015260400190565b600060208284031215610df857600080fd5b81518015158114610e0857600080fd5b9392505050565b6001600160a01b03828116828216039080821115610e2f57610e2f610d58565b5092915050565b6001600160a01b03818116838216019080821115610e2f57610e2f610d58565b60006101008201905060018060a01b03808716835280865116602084015280602087015116604084015262ffffff6040870151166060840152606086015160020b60808401528060808701511660a08401525060058410610ec757634e487b7160e01b600052602160045260246000fd5b60c082019390935260e0015292915050565b60005b83811015610ef4578181015183820152602001610edc565b50506000910152565b6020815260008251806020840152610f1c816040850160208701610ed9565b601f01601f19169190910160400192915050565b634e487b7160e01b600052604160045260246000fd5b600060208284031215610f5857600080fd5b81516001600160401b0380821115610f6f57600080fd5b818401915084601f830112610f8357600080fd5b815181811115610f9557610f95610f30565b604051601f8201601f19908116603f01168101908382118183101715610fbd57610fbd610f30565b81604052828152876020848701011115610fd657600080fd5b610fe7836020830160208801610ed9565b979650505050505050565b60006001820161100457611004610d58565b506001019056fea26469706673582212208a20977bc2e29476fbae821328215c0791ac63f537b63699cc53baa3241c153d64736f6c63430008140033",
  "linkReferences": {},
  "deployedLinkReferences": {}
}