{
  "_format": "hh-sol-artifact-1",
  "contractName": "SparkFacet",
  "sourceName": "contracts/Facets/SparkFacet.sol",
  "abi": [
    {
      "inputs": [
        {
          "internalType": "uint256[]",
          "name": "inputs",
          "type": "uint256[]"
        }
      ],
      "name": "borrowSpark",
      "outputs": [
        {
          "internalType": "uint256",
          "name": "",
          "type": "uint256"
        }
      ],
      "stateMutability": "nonpayable",
      "type": "function"
    },
    {
      "inputs": [
        {
          "internalType": "uint256[]",
          "name": "inputs",
          "type": "uint256[]"
        }
      ],
      "name": "closePositionSpark",
      "outputs": [],
      "stateMutability": "nonpayable",
      "type": "function"
    },
    {
      "inputs": [],
      "name": "getHF",
      "outputs": [
        {
          "internalType": "uint256",
          "name": "",
          "type": "uint256"
        }
      ],
      "stateMutability": "nonpayable",
      "type": "function"
    },
    {
      "inputs": [
        {
          "internalType": "address",
          "name": "user",
          "type": "address"
        }
      ],
      "name": "getUserAccountData",
      "outputs": [
        {
          "internalType": "uint256",
          "name": "totalCollateralBase",
          "type": "uint256"
        },
        {
          "internalType": "uint256",
          "name": "totalDebtBase",
          "type": "uint256"
        },
        {
          "internalType": "uint256",
          "name": "availableBorrowsBase",
          "type": "uint256"
        },
        {
          "internalType": "uint256",
          "name": "currentLiquidationThreshold",
          "type": "uint256"
        },
        {
          "internalType": "uint256",
          "name": "ltv",
          "type": "uint256"
        },
        {
          "internalType": "uint256",
          "name": "healthFactor",
          "type": "uint256"
        }
      ],
      "stateMutability": "view",
      "type": "function"
    },
    {
      "inputs": [
        {
          "internalType": "uint256[]",
          "name": "inputs",
          "type": "uint256[]"
        }
      ],
      "name": "leverageUpSpark",
      "outputs": [
        {
          "internalType": "uint256",
          "name": "",
          "type": "uint256"
        }
      ],
      "stateMutability": "nonpayable",
      "type": "function"
    },
    {
      "inputs": [
        {
          "internalType": "uint256[]",
          "name": "inputs",
          "type": "uint256[]"
        }
      ],
      "name": "repaySpark",
      "outputs": [],
      "stateMutability": "nonpayable",
      "type": "function"
    },
    {
      "inputs": [
        {
          "internalType": "address",
          "name": "poolAddy",
          "type": "address"
        }
      ],
      "name": "setPool",
      "outputs": [],
      "stateMutability": "nonpayable",
      "type": "function"
    },
    {
      "inputs": [
        {
          "internalType": "uint256[]",
          "name": "inputs",
          "type": "uint256[]"
        }
      ],
      "name": "supplySpark",
      "outputs": [
        {
          "internalType": "uint256",
          "name": "",
          "type": "uint256"
        }
      ],
      "stateMutability": "nonpayable",
      "type": "function"
    },
    {
      "inputs": [
        {
          "internalType": "uint256[]",
          "name": "inputs",
          "type": "uint256[]"
        }
      ],
      "name": "withdrawSpark",
      "outputs": [
        {
          "internalType": "uint256",
          "name": "",
          "type": "uint256"
        }
      ],
      "stateMutability": "nonpayable",
      "type": "function"
    }
  ],
  "bytecode": "0x608060405234801561001057600080fd5b506112da806100206000396000f3fe608060405234801561001057600080fd5b50600436106100835760003560e01c80630c7d35f0146100885780632269bc4f146100a35780632ea19485146100b65780634437152a146100c95780637ac54573146100de578063813e838f146100f1578063880409c4146101045780639ae925b214610117578063bf92857c1461012a575b600080fd5b61009061016a565b6040519081526020015b60405180910390f35b6100906100b1366004610ecb565b610179565b6100906100c4366004610ecb565b6101bf565b6100dc6100d7366004610f64565b610235565b005b6100906100ec366004610ecb565b610241565b6100dc6100ff366004610ecb565b610281565b6100dc610112366004610ecb565b6102bf565b610090610125366004610ecb565b6102e2565b61013d610138366004610f64565b610322565b604080519687526020870195909552938501929092526060840152608083015260a082015260c00161009a565b6000610174610348565b905090565b60006101b98260008151811061019157610191610f94565b6020026020010151836001815181106101ac576101ac610f94565b60200260200101516103d5565b92915050565b60006101b9826000815181106101d7576101d7610f94565b6020026020010151836001815181106101f2576101f2610f94565b60200260200101518460028151811061020d5761020d610f94565b60200260200101518560038151811061022857610228610f94565b6020026020010151610511565b61023e8161058d565b50565b60006101b98260008151811061025957610259610f94565b60200260200101518360018151811061027457610274610f94565b60200260200101516105b9565b61023e8160008151811061029757610297610f94565b6020026020010151826001815181106102b2576102b2610f94565b6020026020010151610615565b61023e816000815181106102d5576102d5610f94565b6020026020010151610724565b60006101b9826000815181106102fa576102fa610f94565b60200260200101518360018151811061031557610315610f94565b60200260200101516108f3565b6000806000806000806103348761098e565b949c939b5091995097509550909350915050565b600080610353610a27565b8054604051632fe4a15f60e21b81529192506000916001600160a01b039091169063bf92857c90610388903090600401610faa565b60c060405180830381865afa1580156103a5573d6000803e3d6000fd5b505050506040513d601f19601f820116820180604052508101906103c99190610fbe565b98975050505050505050565b6000806103e0610a27565b805460405163095ea7b360e01b8152919250859185916001600160a01b038085169263095ea7b3926104189216908590600401611008565b6020604051808303816000875af1158015610437573d6000803e3d6000fd5b505050506040513d601f19601f8201168201806040525081019061045b9190611021565b50610480604051806040016040528060038152602001620d0ead60eb1b815250610a4b565b8254610494906001600160a01b0316610a8e565b825460405163617ba03760e01b81526001600160a01b03848116600483015260248201849052306044830152600060648301529091169063617ba037906084015b600060405180830381600087803b1580156104ef57600080fd5b505af1158015610503573d6000803e3d6000fd5b509298975050505050505050565b60008061051c610a27565b604080516080810182526001600160a01b03808a16825288166020820152908101869052606081018590529091508690869086908690600061056a858761056286611059565b600386610ad1565b90506001876002015461057d9190611075565b9c9b505050505050505050505050565b6000610597610a27565b80546001600160a01b0319166001600160a01b03939093169290921790915550565b6000806105c4610a27565b805460405163a415bcad60e01b81526001600160a01b03808816600483015260248201879052600260448301526000606483015230608483015292935086928692169063a415bcad9060a4016104d5565b81816000610621610a27565b805460405163095ea7b360e01b81529192506001600160a01b038086169263095ea7b3926106559216908690600401611008565b6020604051808303816000875af1158015610674573d6000803e3d6000fd5b505050506040513d601f19601f820116820180604052508101906106989190611021565b50805460405163573ade8160e01b81526001600160a01b03858116600483015260248201859052600260448301523060648301529091169063573ade81906084016020604051808303816000875af11580156106f8573d6000803e3d6000fd5b505050506040513d601f19601f8201168201806040525081019061071c9190611088565b505050505050565b80600061072f610a27565b9050600061073b610da6565b60008481526001840160205260408082206003810154600491820154855493516370a0823160e01b81529596506001600160a01b0391821695908216949386936370a082319361078e9392169101610faa565b602060405180830381865afa1580156107ab573d6000803e3d6000fd5b505050506040513d601f19601f820116820180604052508101906107cf9190611088565b905060006107dc3061098e565b50505050915050806402540be4006107f491906110a1565b61080690670de0b6b3a76400006110b8565b604080516080810182526001600160a01b0380871682528716602082015260009181018290526060810183905291925061084c868661084486611059565b600486610ad1565b87546040516370a0823160e01b81529192506000916001600160a01b03898116926370a08231926108839290911690600401610faa565b602060405180830381865afa1580156108a0573d6000803e3d6000fd5b505050506040513d601f19601f820116820180604052508101906108c49190611088565b60008b81526001808c01602052604090912001549091506108e6908287610dca565b5050505050505050505050565b6000806108fe610a27565b90506000848254604051631a4ca37b60e21b81526001600160a01b038084166004830152602482018890523060448301529293508692909116906369328dec906064016020604051808303816000875af1158015610960573d6000803e3d6000fd5b505050506040513d601f19601f820116820180604052508101906109849190611088565b5095945050505050565b60008060008060008060006109a1610a27565b8054604051632fe4a15f60e21b81529192506001600160a01b03169063bf92857c906109d1908b90600401610faa565b60c060405180830381865afa1580156109ee573d6000803e3d6000fd5b505050506040513d601f19601f82011682018060405250810190610a129190610fbe565b949d939c50919a509850965090945092505050565b7fbd9b63cad2056a2132e010a4fbc483bbe85b10ec55651a56b347929db5cb470690565b61023e81604051602401610a5f919061111b565b60408051601f198184030181529190526020810180516001600160e01b031663104c13eb60e21b179052610e1d565b61023e81604051602401610aa29190610faa565b60408051601f198184030181529190526020810180516001600160e01b031663161765e160e11b179052610e1d565b60606000610add610da6565b90506000806000610aee8a8a610e26565b6001600160a01b038083166000908152600789016020908152604080832084861684528252808320815160a08101835281548616815260018201548087168286015262ffffff600160a01b82041682850152600160b81b9004600290810b60608084019190915292015490951660808601528151908101825287151581529182018f905295985093965091945092909190810186610baa57610ba5600173fffd8963efd1fc6a506488495d951d5263988d2661112e565b610bba565b610bba6401000276a36001611155565b6001600160a01b03168152509050808660010160008860040154815260200190815260200160002060008201518160000160006101000a81548160ff0219169083151502179055506020820151816001015560408201518160020160006101000a8154816001600160a01b0302191690836001600160a01b03160217905550905050878660030160008860040154815260200190815260200160002060008201518160000160006101000a8154816001600160a01b0302191690836001600160a01b0316021790555060208201518160010160006101000a8154816001600160a01b0302191690836001600160a01b03160217905550604082015181600201556060820151816003015590505060008660000160009054906101000a90046001600160a01b03166001600160a01b0316638154831933858d8b60040154604051602001610d0a9493929190611175565b6040516020818303038152906040526040518263ffffffff1660e01b8152600401610d35919061111b565b6000604051808303816000875af1158015610d54573d6000803e3d6000fd5b505050506040513d6000823e601f3d908101601f19168201604052610d7c91908101906111f8565b6004880180549192506000610d908361128b565b90915550909d9c50505050505050505050505050565b7f35c2975ab7d5366802ce2593b15dfef7ba0fb48f04ca0c021c862e3ccd408ea590565b604051602481018490526044810183905260648101829052610e189060840160408051601f198184030181529190526020810180516001600160e01b031663347b5e8f60e21b179052610e1d565b505050565b61023e81610e64565b6000806000836001600160a01b0316856001600160a01b03161015610e5357506001915083905082610e5d565b5060009150829050835b9250925092565b60006a636f6e736f6c652e6c6f679050600080835160208501845afa505050565b634e487b7160e01b600052604160045260246000fd5b604051601f8201601f191681016001600160401b0381118282101715610ec357610ec3610e85565b604052919050565b60006020808385031215610ede57600080fd5b82356001600160401b0380821115610ef557600080fd5b818501915085601f830112610f0957600080fd5b813581811115610f1b57610f1b610e85565b8060051b9150610f2c848301610e9b565b8181529183018401918481019088841115610f4657600080fd5b938501935b838510156103c957843582529385019390850190610f4b565b600060208284031215610f7657600080fd5b81356001600160a01b0381168114610f8d57600080fd5b9392505050565b634e487b7160e01b600052603260045260246000fd5b6001600160a01b0391909116815260200190565b60008060008060008060c08789031215610fd757600080fd5b865195506020870151945060408701519350606087015192506080870151915060a087015190509295509295509295565b6001600160a01b03929092168252602082015260400190565b60006020828403121561103357600080fd5b81518015158114610f8d57600080fd5b634e487b7160e01b600052601160045260246000fd5b6000600160ff1b820161106e5761106e611043565b5060000390565b818103818111156101b9576101b9611043565b60006020828403121561109a57600080fd5b5051919050565b80820281158282048414176101b9576101b9611043565b808201808211156101b9576101b9611043565b60005b838110156110e65781810151838201526020016110ce565b50506000910152565b600081518084526111078160208601602086016110cb565b601f01601f19169290920160200192915050565b602081526000610f8d60208301846110ef565b6001600160a01b0382811682821603908082111561114e5761114e611043565b5092915050565b6001600160a01b0381811683821601908082111561114e5761114e611043565b60006101008201905060018060a01b03808716835280865116602084015280602087015116604084015262ffffff6040870151166060840152606086015160020b60808401528060808701511660a084015250600584106111e657634e487b7160e01b600052602160045260246000fd5b60c082019390935260e0015292915050565b60006020828403121561120a57600080fd5b81516001600160401b038082111561122157600080fd5b818401915084601f83011261123557600080fd5b81518181111561124757611247610e85565b61125a601f8201601f1916602001610e9b565b915080825285602082850101111561127157600080fd5b6112828160208401602086016110cb565b50949350505050565b60006001820161129d5761129d611043565b506001019056fea2646970667358221220384351491d722a1fa4d67a0435da5dc62597bffb7c9ef0b0a04fce5bb6872faf64736f6c63430008140033",
  "linkReferences": {},
  "deployedLinkReferences": {}
}