{
  "_format": "hh-sol-artifact-1",
  "contractName": "SparkFacet",
  "sourceName": "contracts/Facets/SparkFacet.sol",
  "abi": [
    {
      "inputs": [
        {
          "internalType": "address",
          "name": "asset",
          "type": "address"
        },
        {
          "internalType": "uint256",
          "name": "amount",
          "type": "uint256"
        }
      ],
      "name": "borrow",
      "outputs": [],
      "stateMutability": "nonpayable",
      "type": "function"
    },
    {
      "inputs": [
        {
          "internalType": "address",
          "name": "user",
          "type": "address"
        }
      ],
      "name": "getUserAccountData",
      "outputs": [
        {
          "internalType": "uint256",
          "name": "totalCollateralBase",
          "type": "uint256"
        },
        {
          "internalType": "uint256",
          "name": "totalDebtBase",
          "type": "uint256"
        },
        {
          "internalType": "uint256",
          "name": "availableBorrowsBase",
          "type": "uint256"
        },
        {
          "internalType": "uint256",
          "name": "currentLiquidationThreshold",
          "type": "uint256"
        },
        {
          "internalType": "uint256",
          "name": "ltv",
          "type": "uint256"
        },
        {
          "internalType": "uint256",
          "name": "healthFactor",
          "type": "uint256"
        }
      ],
      "stateMutability": "view",
      "type": "function"
    },
    {
      "inputs": [
        {
          "internalType": "address",
          "name": "poolAddy",
          "type": "address"
        }
      ],
      "name": "setPool",
      "outputs": [],
      "stateMutability": "nonpayable",
      "type": "function"
    },
    {
      "inputs": [
        {
          "internalType": "address",
          "name": "asset",
          "type": "address"
        },
        {
          "internalType": "uint256",
          "name": "amount",
          "type": "uint256"
        }
      ],
      "name": "supplySpark",
      "outputs": [],
      "stateMutability": "nonpayable",
      "type": "function"
    }
  ],
  "bytecode": "0x608060405234801561001057600080fd5b506103c0806100206000396000f3fe608060405234801561001057600080fd5b506004361061004c5760003560e01c80634437152a146100515780634b8a352914610066578063bb60a86514610079578063bf92857c1461008c575b600080fd5b61006461005f3660046102f4565b6100d0565b005b610064610074366004610316565b6100dc565b610064610087366004610316565b6100ea565b61009f61009a3660046102f4565b6100f4565b604080519687526020870195909552938501929092526060840152608083015260a082015260c00160405180910390f35b6100d981610115565b50565b6100e68282610141565b5050565b6100e682826101cc565b6000806000806000806101068761021d565b50505050505091939550919395565b600061011f6102b4565b80546001600160a01b0319166001600160a01b03939093169290921790915550565b600061014b6102b4565b805460405163a415bcad60e01b81526001600160a01b03868116600483015260248201869052600160448301526000606483015230608483015292935091169063a415bcad9060a4015b600060405180830381600087803b1580156101af57600080fd5b505af11580156101c3573d6000803e3d6000fd5b50505050505050565b60006101d66102b4565b805460405163617ba03760e01b81526001600160a01b038681166004830152602482018690523060448301526000606483015292935091169063617ba03790608401610195565b60008060008060008060006102306102b4565b8054604051632fe4a15f60e21b81526001600160a01b038b8116600483015292935091169063bf92857c9060240160c060405180830381865afa15801561027b573d6000803e3d6000fd5b505050506040513d601f19601f8201168201806040525081019061029f9190610340565b949d939c50919a509850965090945092505050565b7fbd9b63cad2056a2132e010a4fbc483bbe85b10ec55651a56b347929db5cb470690565b80356001600160a01b03811681146102ef57600080fd5b919050565b60006020828403121561030657600080fd5b61030f826102d8565b9392505050565b6000806040838503121561032957600080fd5b610332836102d8565b946020939093013593505050565b60008060008060008060c0878903121561035957600080fd5b865195506020870151945060408701519350606087015192506080870151915060a08701519050929550929550929556fea26469706673582212207a051b2aaabe53b7f622adc049cf253a192bd92d59c4beb2ae8e5dcdc48586f164736f6c63430008140033",
  "linkReferences": {},
  "deployedLinkReferences": {}
}