{
  "_format": "hh-sol-artifact-1",
  "contractName": "SparkFacet",
  "sourceName": "contracts/Facets/SparkFacet.sol",
  "abi": [
    {
      "inputs": [
        {
          "internalType": "address",
          "name": "asset",
          "type": "address"
        },
        {
          "internalType": "uint256",
          "name": "amount",
          "type": "uint256"
        }
      ],
      "name": "borrowSpark",
      "outputs": [],
      "stateMutability": "nonpayable",
      "type": "function"
    },
    {
      "inputs": [
        {
          "internalType": "uint256",
          "name": "counter",
          "type": "uint256"
        }
      ],
      "name": "closePositionSpark",
      "outputs": [],
      "stateMutability": "nonpayable",
      "type": "function"
    },
    {
      "inputs": [
        {
          "internalType": "address",
          "name": "user",
          "type": "address"
        }
      ],
      "name": "getUserAccountData",
      "outputs": [
        {
          "internalType": "uint256",
          "name": "totalCollateralBase",
          "type": "uint256"
        },
        {
          "internalType": "uint256",
          "name": "totalDebtBase",
          "type": "uint256"
        },
        {
          "internalType": "uint256",
          "name": "availableBorrowsBase",
          "type": "uint256"
        },
        {
          "internalType": "uint256",
          "name": "currentLiquidationThreshold",
          "type": "uint256"
        },
        {
          "internalType": "uint256",
          "name": "ltv",
          "type": "uint256"
        },
        {
          "internalType": "uint256",
          "name": "healthFactor",
          "type": "uint256"
        }
      ],
      "stateMutability": "view",
      "type": "function"
    },
    {
      "inputs": [
        {
          "internalType": "address",
          "name": "collateral",
          "type": "address"
        },
        {
          "internalType": "address",
          "name": "providedToken",
          "type": "address"
        },
        {
          "internalType": "uint256",
          "name": "userAmount",
          "type": "uint256"
        },
        {
          "internalType": "uint256",
          "name": "swapAmount",
          "type": "uint256"
        }
      ],
      "name": "leverageUpSpark",
      "outputs": [],
      "stateMutability": "nonpayable",
      "type": "function"
    },
    {
      "inputs": [
        {
          "internalType": "address",
          "name": "poolAddy",
          "type": "address"
        }
      ],
      "name": "setPool",
      "outputs": [],
      "stateMutability": "nonpayable",
      "type": "function"
    },
    {
      "inputs": [
        {
          "internalType": "address",
          "name": "asset",
          "type": "address"
        },
        {
          "internalType": "uint256",
          "name": "amount",
          "type": "uint256"
        }
      ],
      "name": "supplySpark",
      "outputs": [],
      "stateMutability": "nonpayable",
      "type": "function"
    }
  ],
  "bytecode": "0x608060405234801561001057600080fd5b50610d37806100206000396000f3fe608060405234801561001057600080fd5b50600436106100625760003560e01c806320b609d8146100675780634437152a1461007c57806350f1990e1461008f57806382c6d991146100a2578063bb60a865146100b5578063bf92857c146100c8575b600080fd5b61007a610075366004610976565b61010c565b005b61007a61008a3660046109b8565b61011e565b61007a61009d3660046109da565b61012a565b61007a6100b0366004610a04565b610138565b61007a6100c33660046109da565b610141565b6100db6100d63660046109b8565b61014b565b604080519687526020870195909552938501929092526060840152608083015260a082015260c00160405180910390f35b61011884848484610171565b50505050565b610127816101bd565b50565b61013482826101e9565b5050565b6101278161026b565b6101348282610426565b60008060008060008061015d876104ee565b949c939b5091995097509550909350915050565b604080516080810182526001600160a01b038087168252851660208201529081018390526060810182905260006101b485876101ac86610a33565b600386610587565b50505050505050565b60006101c761085c565b80546001600160a01b0319166001600160a01b03939093169290921790915550565b60006101f361085c565b805460405163a415bcad60e01b81526001600160a01b03868116600483015260248201869052600260448301526000606483015230608483015292935091169063a415bcad9060a4015b600060405180830381600087803b15801561025757600080fd5b505af11580156101b4573d6000803e3d6000fd5b600061027561085c565b90506000610281610880565b60008481526001840160205260408082206003810154600491820154855493516370a0823160e01b81529596506001600160a01b0391821695908216949386936370a08231936102d49392169101610a4f565b602060405180830381865afa1580156102f1573d6000803e3d6000fd5b505050506040513d601f19601f820116820180604052508101906103159190610a63565b90506000610322306104ee565b50505050915050806402540be40061033a9190610a7c565b604080516080810182526001600160a01b03808716825287166020820152600091810182905260608101839052919250610380868661037886610a33565b600486610587565b87546040516370a0823160e01b81529192506000916001600160a01b03898116926370a08231926103b79290911690600401610a4f565b602060405180830381865afa1580156103d4573d6000803e3d6000fd5b505050506040513d601f19601f820116820180604052508101906103f89190610a63565b60008b81526001808c016020526040909120015490915061041a9082876108a4565b50505050505050505050565b600061043061085c565b805460405163095ea7b360e01b81526001600160a01b0391821660048201526024810185905291925084169063095ea7b3906044016020604051808303816000875af1158015610484573d6000803e3d6000fd5b505050506040513d601f19601f820116820180604052508101906104a89190610a99565b50805460405163617ba03760e01b81526001600160a01b03858116600483015260248201859052306044830152600060648301529091169063617ba0379060840161023d565b600080600080600080600061050161085c565b8054604051632fe4a15f60e21b81529192506001600160a01b03169063bf92857c90610531908b90600401610a4f565b60c060405180830381865afa15801561054e573d6000803e3d6000fd5b505050506040513d601f19601f820116820180604052508101906105729190610abb565b949d939c50919a509850965090945092505050565b60606000610593610880565b905060008060006105a48a8a6108f7565b6001600160a01b038083166000908152600789016020908152604080832084861684528252808320815160a08101835281548616815260018201548087168286015262ffffff600160a01b82041682850152600160b81b9004600290810b60608084019190915292015490951660808601528151908101825287151581529182018f9052959850939650919450929091908101866106605761065b600173fffd8963efd1fc6a506488495d951d5263988d26610b05565b610670565b6106706401000276a36001610b2c565b6001600160a01b03168152509050808660010160008860040154815260200190815260200160002060008201518160000160006101000a81548160ff0219169083151502179055506020820151816001015560408201518160020160006101000a8154816001600160a01b0302191690836001600160a01b03160217905550905050878660030160008860040154815260200190815260200160002060008201518160000160006101000a8154816001600160a01b0302191690836001600160a01b0316021790555060208201518160010160006101000a8154816001600160a01b0302191690836001600160a01b03160217905550604082015181600201556060820151816003015590505060008660000160009054906101000a90046001600160a01b03166001600160a01b0316638154831933858d8b600401546040516020016107c09493929190610b4c565b6040516020818303038152906040526040518263ffffffff1660e01b81526004016107eb9190610bf3565b6000604051808303816000875af115801561080a573d6000803e3d6000fd5b505050506040513d6000823e601f3d908101601f191682016040526108329190810190610c3c565b600488018054919250600061084683610ce8565b90915550909d9c50505050505050505050505050565b7fbd9b63cad2056a2132e010a4fbc483bbe85b10ec55651a56b347929db5cb470690565b7f35c2975ab7d5366802ce2593b15dfef7ba0fb48f04ca0c021c862e3ccd408ea590565b6040516024810184905260448101839052606481018290526108f29060840160408051601f198184030181529190526020810180516001600160e01b031663347b5e8f60e21b179052610935565b505050565b6000806000836001600160a01b0316856001600160a01b031610156109245750600191508390508261092e565b5060009150829050835b9250925092565b6101278160006a636f6e736f6c652e6c6f679050600080835160208501845afa505050565b80356001600160a01b038116811461097157600080fd5b919050565b6000806000806080858703121561098c57600080fd5b6109958561095a565b93506109a36020860161095a565b93969395505050506040820135916060013590565b6000602082840312156109ca57600080fd5b6109d38261095a565b9392505050565b600080604083850312156109ed57600080fd5b6109f68361095a565b946020939093013593505050565b600060208284031215610a1657600080fd5b5035919050565b634e487b7160e01b600052601160045260246000fd5b6000600160ff1b8201610a4857610a48610a1d565b5060000390565b6001600160a01b0391909116815260200190565b600060208284031215610a7557600080fd5b5051919050565b8082028115828204841417610a9357610a93610a1d565b92915050565b600060208284031215610aab57600080fd5b815180151581146109d357600080fd5b60008060008060008060c08789031215610ad457600080fd5b865195506020870151945060408701519350606087015192506080870151915060a087015190509295509295509295565b6001600160a01b03828116828216039080821115610b2557610b25610a1d565b5092915050565b6001600160a01b03818116838216019080821115610b2557610b25610a1d565b60006101008201905060018060a01b03808716835280865116602084015280602087015116604084015262ffffff6040870151166060840152606086015160020b60808401528060808701511660a08401525060058410610bbd57634e487b7160e01b600052602160045260246000fd5b60c082019390935260e0015292915050565b60005b83811015610bea578181015183820152602001610bd2565b50506000910152565b6020815260008251806020840152610c12816040850160208701610bcf565b601f01601f19169190910160400192915050565b634e487b7160e01b600052604160045260246000fd5b600060208284031215610c4e57600080fd5b81516001600160401b0380821115610c6557600080fd5b818401915084601f830112610c7957600080fd5b815181811115610c8b57610c8b610c26565b604051601f8201601f19908116603f01168101908382118183101715610cb357610cb3610c26565b81604052828152876020848701011115610ccc57600080fd5b610cdd836020830160208801610bcf565b979650505050505050565b600060018201610cfa57610cfa610a1d565b506001019056fea2646970667358221220941c58781ab93050de28e3d23fad839c004d151ec131770b896dbe316393fbe364736f6c63430008140033",
  "linkReferences": {},
  "deployedLinkReferences": {}
}