{
  "_format": "hh-sol-artifact-1",
  "contractName": "SparkFacet",
  "sourceName": "contracts/Facets/SparkFacet.sol",
  "abi": [
    {
      "inputs": [
        {
          "internalType": "address",
          "name": "asset",
          "type": "address"
        },
        {
          "internalType": "uint256",
          "name": "amount",
          "type": "uint256"
        }
      ],
      "name": "borrowSpark",
      "outputs": [
        {
          "internalType": "uint256",
          "name": "",
          "type": "uint256"
        }
      ],
      "stateMutability": "nonpayable",
      "type": "function"
    },
    {
      "inputs": [
        {
          "internalType": "uint256",
          "name": "counter",
          "type": "uint256"
        }
      ],
      "name": "closePositionSpark",
      "outputs": [],
      "stateMutability": "nonpayable",
      "type": "function"
    },
    {
      "inputs": [],
      "name": "getHF",
      "outputs": [
        {
          "internalType": "uint256",
          "name": "",
          "type": "uint256"
        }
      ],
      "stateMutability": "nonpayable",
      "type": "function"
    },
    {
      "inputs": [
        {
          "internalType": "address",
          "name": "user",
          "type": "address"
        }
      ],
      "name": "getUserAccountData",
      "outputs": [
        {
          "internalType": "uint256",
          "name": "totalCollateralBase",
          "type": "uint256"
        },
        {
          "internalType": "uint256",
          "name": "totalDebtBase",
          "type": "uint256"
        },
        {
          "internalType": "uint256",
          "name": "availableBorrowsBase",
          "type": "uint256"
        },
        {
          "internalType": "uint256",
          "name": "currentLiquidationThreshold",
          "type": "uint256"
        },
        {
          "internalType": "uint256",
          "name": "ltv",
          "type": "uint256"
        },
        {
          "internalType": "uint256",
          "name": "healthFactor",
          "type": "uint256"
        }
      ],
      "stateMutability": "view",
      "type": "function"
    },
    {
      "inputs": [
        {
          "internalType": "address",
          "name": "collateral",
          "type": "address"
        },
        {
          "internalType": "address",
          "name": "providedToken",
          "type": "address"
        },
        {
          "internalType": "uint256",
          "name": "userAmount",
          "type": "uint256"
        },
        {
          "internalType": "uint256",
          "name": "swapAmount",
          "type": "uint256"
        }
      ],
      "name": "leverageUpSpark",
      "outputs": [
        {
          "internalType": "uint256",
          "name": "",
          "type": "uint256"
        }
      ],
      "stateMutability": "nonpayable",
      "type": "function"
    },
    {
      "inputs": [
        {
          "internalType": "address",
          "name": "asset",
          "type": "address"
        },
        {
          "internalType": "uint256",
          "name": "amount",
          "type": "uint256"
        }
      ],
      "name": "repaySpark",
      "outputs": [],
      "stateMutability": "nonpayable",
      "type": "function"
    },
    {
      "inputs": [
        {
          "internalType": "address",
          "name": "poolAddy",
          "type": "address"
        }
      ],
      "name": "setPool",
      "outputs": [],
      "stateMutability": "nonpayable",
      "type": "function"
    },
    {
      "inputs": [
        {
          "internalType": "address",
          "name": "asset",
          "type": "address"
        },
        {
          "internalType": "uint256",
          "name": "amount",
          "type": "uint256"
        }
      ],
      "name": "supplySpark",
      "outputs": [
        {
          "internalType": "uint256",
          "name": "",
          "type": "uint256"
        }
      ],
      "stateMutability": "nonpayable",
      "type": "function"
    },
    {
      "inputs": [
        {
          "internalType": "address",
          "name": "asset",
          "type": "address"
        },
        {
          "internalType": "uint256",
          "name": "amount",
          "type": "uint256"
        }
      ],
      "name": "withdrawSpark",
      "outputs": [
        {
          "internalType": "uint256",
          "name": "",
          "type": "uint256"
        }
      ],
      "stateMutability": "nonpayable",
      "type": "function"
    }
  ],
  "bytecode": "0x608060405234801561001057600080fd5b50611130806100206000396000f3fe608060405234801561001057600080fd5b50600436106100835760003560e01c80630c7d35f01461008857806320b609d8146100a35780634437152a146100b657806350f1990e146100cb57806382c6d991146100de578063af6ab27f146100f1578063b83df74c14610104578063bb60a86514610117578063bf92857c1461012a575b600080fd5b61009061016a565b6040519081526020015b60405180910390f35b6100906100b1366004610d2a565b610179565b6100c96100c4366004610d6c565b610190565b005b6100906100d9366004610d87565b61019c565b6100c96100ec366004610db1565b6101b1565b6100906100ff366004610d87565b6101ba565b6100c9610112366004610d87565b6101c6565b610090610125366004610d87565b6101d4565b61013d610138366004610d6c565b6101e0565b604080519687526020870195909552938501929092526060840152608083015260a082015260c00161009a565b6000610174610206565b905090565b600061018785858585610293565b95945050505050565b610199816102f7565b50565b60006101a88383610323565b90505b92915050565b610199816103b2565b60006101a8838361057f565b6101d08282610611565b5050565b60006101a8838361071c565b6000806000806000806101f28761081c565b949c939b5091995097509550909350915050565b6000806102116108b5565b8054604051632fe4a15f60e21b81529192506000916001600160a01b039091169063bf92857c90610246903090600401610dca565b60c060405180830381865afa158015610263573d6000803e3d6000fd5b505050506040513d601f19601f820116820180604052508101906102879190610dde565b98975050505050505050565b60008061029e6108b5565b604080516080810182526001600160a01b03808a168252881660208201529081018690526060810185905290915060006102e487896102dc88610e3e565b6003866108d9565b9050600183600201546102879190610e5a565b60006103016108b5565b80546001600160a01b0319166001600160a01b03939093169290921790915550565b60008061032e6108b5565b805460405163a415bcad60e01b81526001600160a01b03878116600483015260248201879052600260448301526000606483015230608483015292935091169063a415bcad9060a4015b600060405180830381600087803b15801561039257600080fd5b505af11580156103a6573d6000803e3d6000fd5b50949695505050505050565b60006103bc6108b5565b905060006103c8610bae565b60008481526001840160205260408082206003810154600491820154855493516370a0823160e01b81529596506001600160a01b0391821695908216949386936370a082319361041b9392169101610dca565b602060405180830381865afa158015610438573d6000803e3d6000fd5b505050506040513d601f19601f8201168201806040525081019061045c9190610e6d565b905060006104693061081c565b50505050915050806402540be4006104819190610e86565b61049390670de0b6b3a7640000610e9d565b604080516080810182526001600160a01b038087168252871660208201526000918101829052606081018390529192506104d986866104d186610e3e565b6004866108d9565b87546040516370a0823160e01b81529192506000916001600160a01b03898116926370a08231926105109290911690600401610dca565b602060405180830381865afa15801561052d573d6000803e3d6000fd5b505050506040513d601f19601f820116820180604052508101906105519190610e6d565b60008b81526001808c0160205260409091200154909150610573908287610bd2565b50505050505050505050565b60008061058a6108b5565b8054604051631a4ca37b60e21b81526001600160a01b038781166004830152602482018790523060448301529293509116906369328dec906064016020604051808303816000875af11580156105e4573d6000803e3d6000fd5b505050506040513d601f19601f820116820180604052508101906106089190610e6d565b50919392505050565b600061061b6108b5565b805460405163095ea7b360e01b81529192506001600160a01b038086169263095ea7b39261064f9216908690600401610eb0565b6020604051808303816000875af115801561066e573d6000803e3d6000fd5b505050506040513d601f19601f820116820180604052508101906106929190610ec9565b50805460405163573ade8160e01b81526001600160a01b03858116600483015260248201859052600260448301523060648301529091169063573ade81906084016020604051808303816000875af11580156106f2573d6000803e3d6000fd5b505050506040513d601f19601f820116820180604052508101906107169190610e6d565b50505050565b6000806107276108b5565b805460405163095ea7b360e01b81529192506001600160a01b038087169263095ea7b39261075b9216908790600401610eb0565b6020604051808303816000875af115801561077a573d6000803e3d6000fd5b505050506040513d601f19601f8201168201806040525081019061079e9190610ec9565b506107c3604051806040016040528060038152602001620d0ead60eb1b815250610c25565b80546107d7906001600160a01b0316610c68565b805460405163617ba03760e01b81526001600160a01b03868116600483015260248201869052306044830152600060648301529091169063617ba03790608401610378565b600080600080600080600061082f6108b5565b8054604051632fe4a15f60e21b81529192506001600160a01b03169063bf92857c9061085f908b90600401610dca565b60c060405180830381865afa15801561087c573d6000803e3d6000fd5b505050506040513d601f19601f820116820180604052508101906108a09190610dde565b949d939c50919a509850965090945092505050565b7fbd9b63cad2056a2132e010a4fbc483bbe85b10ec55651a56b347929db5cb470690565b606060006108e5610bae565b905060008060006108f68a8a610cab565b6001600160a01b038083166000908152600789016020908152604080832084861684528252808320815160a08101835281548616815260018201548087168286015262ffffff600160a01b82041682850152600160b81b9004600290810b60608084019190915292015490951660808601528151908101825287151581529182018f9052959850939650919450929091908101866109b2576109ad600173fffd8963efd1fc6a506488495d951d5263988d26610ef2565b6109c2565b6109c26401000276a36001610f19565b6001600160a01b03168152509050808660010160008860040154815260200190815260200160002060008201518160000160006101000a81548160ff0219169083151502179055506020820151816001015560408201518160020160006101000a8154816001600160a01b0302191690836001600160a01b03160217905550905050878660030160008860040154815260200190815260200160002060008201518160000160006101000a8154816001600160a01b0302191690836001600160a01b0316021790555060208201518160010160006101000a8154816001600160a01b0302191690836001600160a01b03160217905550604082015181600201556060820151816003015590505060008660000160009054906101000a90046001600160a01b03166001600160a01b0316638154831933858d8b60040154604051602001610b129493929190610f39565b6040516020818303038152906040526040518263ffffffff1660e01b8152600401610b3d919061100c565b6000604051808303816000875af1158015610b5c573d6000803e3d6000fd5b505050506040513d6000823e601f3d908101601f19168201604052610b849190810190611035565b6004880180549192506000610b98836110e1565b90915550909d9c50505050505050505050505050565b7f35c2975ab7d5366802ce2593b15dfef7ba0fb48f04ca0c021c862e3ccd408ea590565b604051602481018490526044810183905260648101829052610c209060840160408051601f198184030181529190526020810180516001600160e01b031663347b5e8f60e21b179052610ce9565b505050565b61019981604051602401610c39919061100c565b60408051601f198184030181529190526020810180516001600160e01b031663104c13eb60e21b179052610ce9565b61019981604051602401610c7c9190610dca565b60408051601f198184030181529190526020810180516001600160e01b031663161765e160e11b179052610ce9565b6000806000836001600160a01b0316856001600160a01b03161015610cd857506001915083905082610ce2565b5060009150829050835b9250925092565b6101998160006a636f6e736f6c652e6c6f679050600080835160208501845afa505050565b80356001600160a01b0381168114610d2557600080fd5b919050565b60008060008060808587031215610d4057600080fd5b610d4985610d0e565b9350610d5760208601610d0e565b93969395505050506040820135916060013590565b600060208284031215610d7e57600080fd5b6101a882610d0e565b60008060408385031215610d9a57600080fd5b610da383610d0e565b946020939093013593505050565b600060208284031215610dc357600080fd5b5035919050565b6001600160a01b0391909116815260200190565b60008060008060008060c08789031215610df757600080fd5b865195506020870151945060408701519350606087015192506080870151915060a087015190509295509295509295565b634e487b7160e01b600052601160045260246000fd5b6000600160ff1b8201610e5357610e53610e28565b5060000390565b818103818111156101ab576101ab610e28565b600060208284031215610e7f57600080fd5b5051919050565b80820281158282048414176101ab576101ab610e28565b808201808211156101ab576101ab610e28565b6001600160a01b03929092168252602082015260400190565b600060208284031215610edb57600080fd5b81518015158114610eeb57600080fd5b9392505050565b6001600160a01b03828116828216039080821115610f1257610f12610e28565b5092915050565b6001600160a01b03818116838216019080821115610f1257610f12610e28565b60006101008201905060018060a01b03808716835280865116602084015280602087015116604084015262ffffff6040870151166060840152606086015160020b60808401528060808701511660a08401525060058410610faa57634e487b7160e01b600052602160045260246000fd5b60c082019390935260e0015292915050565b60005b83811015610fd7578181015183820152602001610fbf565b50506000910152565b60008151808452610ff8816020860160208601610fbc565b601f01601f19169290920160200192915050565b6020815260006101a86020830184610fe0565b634e487b7160e01b600052604160045260246000fd5b60006020828403121561104757600080fd5b81516001600160401b038082111561105e57600080fd5b818401915084601f83011261107257600080fd5b8151818111156110845761108461101f565b604051601f8201601f19908116603f011681019083821181831017156110ac576110ac61101f565b816040528281528760208487010111156110c557600080fd5b6110d6836020830160208801610fbc565b979650505050505050565b6000600182016110f3576110f3610e28565b506001019056fea2646970667358221220ce3b440afe430cb0151951fe82d85268ae3067c93622615f6fe89cd95014c98164736f6c63430008140033",
  "linkReferences": {},
  "deployedLinkReferences": {}
}