{
  "_format": "hh-sol-artifact-1",
  "contractName": "InstructionFacet",
  "sourceName": "contracts/Facets/SelectorFacet.sol",
  "abi": [
    {
      "inputs": [],
      "name": "instrucClosePosition",
      "outputs": [
        {
          "internalType": "bytes5",
          "name": "",
          "type": "bytes5"
        }
      ],
      "stateMutability": "pure",
      "type": "function"
    },
    {
      "inputs": [],
      "name": "instrucGetBorrowRate",
      "outputs": [
        {
          "internalType": "bytes5",
          "name": "",
          "type": "bytes5"
        }
      ],
      "stateMutability": "pure",
      "type": "function"
    },
    {
      "inputs": [],
      "name": "instrucGetNumber",
      "outputs": [
        {
          "internalType": "bytes5",
          "name": "",
          "type": "bytes5"
        }
      ],
      "stateMutability": "pure",
      "type": "function"
    },
    {
      "inputs": [],
      "name": "instrucGetSum",
      "outputs": [
        {
          "internalType": "bytes5",
          "name": "",
          "type": "bytes5"
        }
      ],
      "stateMutability": "pure",
      "type": "function"
    },
    {
      "inputs": [],
      "name": "instrucGetSupplyRate",
      "outputs": [
        {
          "internalType": "bytes5",
          "name": "",
          "type": "bytes5"
        }
      ],
      "stateMutability": "pure",
      "type": "function"
    },
    {
      "inputs": [],
      "name": "instrucIsLiquidatable",
      "outputs": [
        {
          "internalType": "bytes5",
          "name": "",
          "type": "bytes5"
        }
      ],
      "stateMutability": "pure",
      "type": "function"
    },
    {
      "inputs": [],
      "name": "instrucLeverageUp",
      "outputs": [
        {
          "internalType": "bytes5",
          "name": "",
          "type": "bytes5"
        }
      ],
      "stateMutability": "pure",
      "type": "function"
    },
    {
      "inputs": [],
      "name": "instrucReturnProfit",
      "outputs": [
        {
          "internalType": "bytes5",
          "name": "",
          "type": "bytes5"
        }
      ],
      "stateMutability": "pure",
      "type": "function"
    },
    {
      "inputs": [],
      "name": "instrucSetNumber",
      "outputs": [
        {
          "internalType": "bytes5",
          "name": "",
          "type": "bytes5"
        }
      ],
      "stateMutability": "pure",
      "type": "function"
    }
  ],
  "bytecode": "0x608060405234801561001057600080fd5b5061032d806100206000396000f3fe608060405234801561001057600080fd5b50600436106100835760003560e01c80632b7c28f6146100885780636ecc0540146100ad5780639509dfea146100b5578063a6106c5b146100bd578063a9dcde67146100c5578063bca0bab1146100cd578063d604e977146100d5578063efa0999c146100dd578063fb5ae31c146100e5575b600080fd5b6100906100ed565b6040516001600160d81b0319909116815260200160405180910390f35b610090610104565b610090610116565b610090610128565b61009061013a565b61009061014c565b61009061015e565b610090610170565b610090610182565b60006100ff63042e02cf60e01b610194565b905090565b60006100ff630665c60f60e51b6101df565b60006100ff631e593d9b60e31b61020c565b60006100ff63017438bd60e71b61020c565b60006100ff63908199cf60e01b610239565b60006100ff631097b93560e31b61020c565b60006100ff63a126d60160e01b610266565b60006100ff633d7c2e7b60e21b610194565b60006100ff636244bb4f60e01b610293565b6040516001600160e01b031982166020820152633078313160e01b602482015260009081906028015b6040516020818303038152906040529050806101d8906102c0565b9392505050565b6040516001600160e01b031982166020820152633078323160e01b602482015260009081906028016101bd565b6040516001600160e01b031982166020820152633078303160e01b602482015260009081906028016101bd565b6040516001600160e01b031982166020820152633078343160e01b602482015260009081906028016101bd565b6040516001600160e01b031982166020820152630307831360e41b602482015260009081906028016101bd565b6040516001600160e01b03198216602082015263183c189960e11b602482015260009081906028016101bd565b805160208201516001600160d81b031980821692919060058310156102ef5780818460050360031b1b83161693505b50505091905056fea2646970667358221220ded702fb111d07d4f893160bc2c3f743077bafd8a6443559db3dcad85f16cae964736f6c63430008140033",
  "linkReferences": {},
  "deployedLinkReferences": {}
}