{
  "_format": "hh-sol-artifact-1",
  "contractName": "ManagerFacet",
  "sourceName": "contracts/Facets/ManagerFacet.sol",
  "abi": [
    {
      "inputs": [
        {
          "internalType": "uint256[]",
          "name": "data",
          "type": "uint256[]"
        },
        {
          "internalType": "bytes",
          "name": "packedInfo",
          "type": "bytes"
        }
      ],
      "name": "addDataToFront",
      "outputs": [
        {
          "internalType": "bytes",
          "name": "packedResult",
          "type": "bytes"
        }
      ],
      "stateMutability": "pure",
      "type": "function"
    },
    {
      "inputs": [
        {
          "internalType": "address",
          "name": "a",
          "type": "address"
        }
      ],
      "name": "convertAddyToNum",
      "outputs": [
        {
          "internalType": "uint256",
          "name": "",
          "type": "uint256"
        }
      ],
      "stateMutability": "pure",
      "type": "function"
    },
    {
      "inputs": [
        {
          "internalType": "bytes5[]",
          "name": "data",
          "type": "bytes5[]"
        }
      ],
      "name": "convertBytes5ArrayToBytes",
      "outputs": [
        {
          "internalType": "bytes",
          "name": "res",
          "type": "bytes"
        }
      ],
      "stateMutability": "pure",
      "type": "function"
    },
    {
      "inputs": [
        {
          "internalType": "uint256",
          "name": "a",
          "type": "uint256"
        }
      ],
      "name": "convertNumToAddy",
      "outputs": [
        {
          "internalType": "address",
          "name": "",
          "type": "address"
        }
      ],
      "stateMutability": "pure",
      "type": "function"
    },
    {
      "inputs": [
        {
          "internalType": "string",
          "name": "description",
          "type": "string"
        },
        {
          "internalType": "bytes",
          "name": "dataFlow",
          "type": "bytes"
        }
      ],
      "name": "createNewFlow",
      "outputs": [],
      "stateMutability": "nonpayable",
      "type": "function"
    },
    {
      "inputs": [
        {
          "internalType": "string",
          "name": "description",
          "type": "string"
        },
        {
          "internalType": "bytes",
          "name": "dataFlow",
          "type": "bytes"
        }
      ],
      "name": "createNewHookFlow",
      "outputs": [],
      "stateMutability": "nonpayable",
      "type": "function"
    },
    {
      "inputs": [
        {
          "internalType": "uint256[]",
          "name": "inputs",
          "type": "uint256[]"
        },
        {
          "internalType": "bytes5",
          "name": "instruction",
          "type": "bytes5"
        }
      ],
      "name": "executeInstruction",
      "outputs": [
        {
          "internalType": "uint256[]",
          "name": "outPuts",
          "type": "uint256[]"
        }
      ],
      "stateMutability": "nonpayable",
      "type": "function"
    },
    {
      "inputs": [],
      "name": "getCurrentFlow",
      "outputs": [
        {
          "internalType": "bytes",
          "name": "",
          "type": "bytes"
        }
      ],
      "stateMutability": "view",
      "type": "function"
    },
    {
      "inputs": [
        {
          "internalType": "uint256",
          "name": "index",
          "type": "uint256"
        }
      ],
      "name": "getLastResult",
      "outputs": [
        {
          "internalType": "uint256",
          "name": "",
          "type": "uint256"
        }
      ],
      "stateMutability": "view",
      "type": "function"
    },
    {
      "inputs": [
        {
          "internalType": "bytes5",
          "name": "data",
          "type": "bytes5"
        }
      ],
      "name": "parseInstruction",
      "outputs": [
        {
          "internalType": "bytes4",
          "name": "selector",
          "type": "bytes4"
        },
        {
          "internalType": "uint8",
          "name": "inp",
          "type": "uint8"
        },
        {
          "internalType": "uint8",
          "name": "out",
          "type": "uint8"
        }
      ],
      "stateMutability": "pure",
      "type": "function"
    },
    {
      "inputs": [
        {
          "internalType": "bytes",
          "name": "dataFlow",
          "type": "bytes"
        },
        {
          "internalType": "uint256",
          "name": "index",
          "type": "uint256"
        }
      ],
      "name": "parseLastResultAndExecute",
      "outputs": [
        {
          "internalType": "uint256",
          "name": "",
          "type": "uint256"
        }
      ],
      "stateMutability": "nonpayable",
      "type": "function"
    },
    {
      "inputs": [
        {
          "internalType": "bytes",
          "name": "data",
          "type": "bytes"
        }
      ],
      "name": "readData",
      "outputs": [
        {
          "internalType": "uint256[]",
          "name": "",
          "type": "uint256[]"
        },
        {
          "internalType": "bytes",
          "name": "",
          "type": "bytes"
        }
      ],
      "stateMutability": "pure",
      "type": "function"
    },
    {
      "inputs": [
        {
          "internalType": "bytes",
          "name": "dataFlow",
          "type": "bytes"
        }
      ],
      "name": "startWorking",
      "outputs": [
        {
          "internalType": "uint256[]",
          "name": "finalOutputs",
          "type": "uint256[]"
        }
      ],
      "stateMutability": "nonpayable",
      "type": "function"
    },
    {
      "inputs": [
        {
          "internalType": "uint256",
          "name": "id",
          "type": "uint256"
        }
      ],
      "name": "startWorkingFromID",
      "outputs": [
        {
          "internalType": "uint256[]",
          "name": "finalOutputs",
          "type": "uint256[]"
        }
      ],
      "stateMutability": "nonpayable",
      "type": "function"
    },
    {
      "inputs": [],
      "name": "stopExecution",
      "outputs": [],
      "stateMutability": "nonpayable",
      "type": "function"
    },
    {
      "inputs": [
        {
          "internalType": "bytes",
          "name": "packed",
          "type": "bytes"
        }
      ],
      "name": "testDecodePacked",
      "outputs": [
        {
          "internalType": "bytes5",
          "name": "info",
          "type": "bytes5"
        },
        {
          "internalType": "bytes",
          "name": "",
          "type": "bytes"
        }
      ],
      "stateMutability": "pure",
      "type": "function"
    }
  ],
  "bytecode": "0x608060405234801561001057600080fd5b50611baf806100206000396000f3fe608060405234801561001057600080fd5b50600436106100d05760003560e01c80631bc7503c146100d55780631d176049146100fe578063241d28eb1461011357806326837dfb146101345780632cc72a621461014757806364b0aab3146101675780636a3504c61461017a57806381b1b8cc1461019b5780638c2519ac146101ae5780638e146b51146101d95780638ea8c146146101ec57806396456d92146101ff57806397a0259d1461024b578063c067164414610253578063cca12a5914610266578063edbbed0b14610287575b600080fd5b6100e86100e3366004611257565b61028f565b6040516100f591906112ab565b60405180910390f35b61011161010c366004611389565b6102a0565b005b610126610121366004611403565b6102b0565b6040519081526020016100f5565b610126610142366004611257565b6102c1565b61015a6101553660046114b5565b6102cc565b6040516100f5919061153b565b6100e861017536600461154e565b6102df565b61018d61018836600461154e565b6102ea565b6040516100f592919061158a565b61015a6101a93660046115ca565b610300565b6101c16101bc366004611257565b61030b565b6040516001600160a01b0390911681526020016100f5565b6100e86101e7366004611661565b610313565b6101266101fa3660046116ae565b61031f565b61022161020d3660046116f2565b90600f600483811a9081901c821692911690565b604080516001600160e01b0319909416845260ff92831660208501529116908201526060016100f5565b61011161032b565b610111610261366004611389565b610335565b61027961027436600461154e565b610340565b6040516100f592919061170d565b61015a61034c565b606061029a8261035b565b92915050565b6102ab3283836104f0565b505050565b60006001600160a01b03821661029a565b600061029a826105d3565b60606102d88383610608565b9392505050565b606061029a82610634565b600060606102f7836106db565b91509150915091565b606061029a82610761565b60008161029a565b60606102d883836107c5565b60006102d88383610f55565b610333610f6a565b565b6102ab328383610f82565b6060806102f783611024565b606061035661103b565b905090565b606060006103676110dc565b60068101805461ffff1916610101179055600084815260038201602052604081208054929350909161039890611732565b80601f01602080910402602001604051908101604052809291908181526020018280546103c490611732565b80156104115780601f106103e657610100808354040283529160200191610411565b820191906000526020600020905b8154815290600101906020018083116103f457829003601f168201915b5050505050905060008061042483611024565b915091506000610433826106db565b9450905061044183826107c5565b95506003845110806104585750600685015460ff16155b156104d05761049b8660008151811061047357610473611766565b60200260200101518760018151811061048e5761048e611766565b6020026020010151611100565b85516104b090600187019060208901906111f7565b506104bb865161114b565b50505050600601805461ff0019169055919050565b6104da8685610608565b93506104e584610634565b505050505050919050565b6000806104fb6110dc565b604080518082018252858152602080820188905260058401546000908152600385019091529190912081519293509091819061053790826117ca565b506020820151600182019061054c90826117ca565b505050600481018054600181018255600091825260209091200161057084826117ca565b506001600160a01b0385166000908152600282016020908152604082206005840180548254600181018455928552928420909101919091558054916105b48361189f565b9190505550600181600501546105ca91906118b8565b95945050505050565b6000806105de6110dc565b90508060010183815481106105f5576105f5611766565b9060005260206000200154915050919050565b604051819061061d908490839060200161170d565b604051602081830303815290604052905092915050565b606060006106406110dc565b60068101805461ffff1916610101179055905060008061065f85611024565b91509150600061066e826106db565b965090506007840161068087826117ca565b5061068b83826107c5565b94506003865110806106a25750600684015460ff16155b156106bc5784516104bb90600186019060208801906111f7565b6106c68587610608565b95506106d186610634565b5050505050919050565b602081015160608060005b600585516106f491906118b8565b8110156107585781856107088360056118cb565b8151811061071857610718611766565b602001015160f81c60f81b6040516020016107349291906118de565b604051602081830303815290604052915080806107509061189f565b9150506106e6565b50919391925050565b606060005b82518110156107bf578183828151811061078257610782611766565b602002602001015160405160200161079b92919061190d565b604051602081830303815290604052915080806107b79061189f565b915050610766565b50919050565b606081600f600482811a9081901c821691168360008381036108655760408051600481526024810182526020810180516001600160e01b03166001600160e01b03198916179052905130916108199161193c565b6000604051808303816000865af19150503d8060008114610856576040519150601f19603f3d011682016040523d82523d6000602084013e61085b565b606091505b5092509050610907565b306001600160a01b0316858960405160240161088191906112ab565b60408051601f198184030181529181526020820180516001600160e01b03166001600160e01b03199094169390931790925290516108bf919061193c565b6000604051808303816000865af19150503d80600081146108fc576040519150601f19603f3d011682016040523d82523d6000602084013e610901565b606091505b50925090505b8260ff16600003610961576040805160018082528183019092526000916020808301908036833701905050905060008160008151811061094957610949611766565b6020908102919091010152955061029a945050505050565b8260ff166001036109fa576000828060200190518101906109829190611958565b905060008460ff166001600160401b038111156109a1576109a16112be565b6040519080825280602002602001820160405280156109ca578160200160208202803683370190505b50905081816000815181106109e1576109e1611766565b6020908102919091010152965061029a95505050505050565b8260ff16600203610ae857610a2c604051806040016040528060068152602001654265666f726560d01b815250611193565b60008083806020019051810190610a439190611971565b91509150610a518282611100565b60008560ff166001600160401b03811115610a6e57610a6e6112be565b604051908082528060200260200182016040528015610a97578160200160208202803683370190505b5090508281600081518110610aae57610aae611766565b6020026020010181815250508181600181518110610ace57610ace611766565b6020908102919091010152975061029a9650505050505050565b8260ff16600303610bca57600080600084806020019051810190610b0c9190611995565b92509250925060008660ff166001600160401b03811115610b2f57610b2f6112be565b604051908082528060200260200182016040528015610b58578160200160208202803683370190505b5090508381600081518110610b6f57610b6f611766565b6020026020010181815250508281600181518110610b8f57610b8f611766565b6020026020010181815250508181600281518110610baf57610baf611766565b6020908102919091010152985061029a975050505050505050565b8260ff16600403610cd05760008060008085806020019051810190610bef91906119c3565b935093509350935060008760ff166001600160401b03811115610c1457610c146112be565b604051908082528060200260200182016040528015610c3d578160200160208202803683370190505b5090508481600081518110610c5457610c54611766565b6020026020010181815250508381600181518110610c7457610c74611766565b6020026020010181815250508281600281518110610c9457610c94611766565b6020026020010181815250508181600381518110610cb457610cb4611766565b6020908102919091010152995061029a98505050505050505050565b8260ff16600503610dfb57600080600080600086806020019051810190610cf791906119f9565b9450945094509450945060008860ff166001600160401b03811115610d1e57610d1e6112be565b604051908082528060200260200182016040528015610d47578160200160208202803683370190505b5090508581600081518110610d5e57610d5e611766565b6020026020010181815250508481600181518110610d7e57610d7e611766565b6020026020010181815250508381600281518110610d9e57610d9e611766565b6020026020010181815250508281600381518110610dbe57610dbe611766565b6020026020010181815250508181600481518110610dde57610dde611766565b60209081029190910101529a5061029a9950505050505050505050565b8260ff16600603610f4a5760008060008060008087806020019051810190610e239190611a39565b95509550955095509550955060008960ff166001600160401b03811115610e4c57610e4c6112be565b604051908082528060200260200182016040528015610e75578160200160208202803683370190505b5090508681600081518110610e8c57610e8c611766565b6020026020010181815250508581600181518110610eac57610eac611766565b6020026020010181815250508481600281518110610ecc57610ecc611766565b6020026020010181815250508381600381518110610eec57610eec611766565b6020026020010181815250508281600481518110610f0c57610f0c611766565b6020026020010181815250508181600681518110610f2c57610f2c611766565b60209081029190910101529b5061029a9a5050505050505050505050565b505050505092915050565b6000610f6083610634565b506102d8826105d3565b6000610f746110dc565b600601805460ff1916905550565b600080610f8d6110dc565b6040805180820182528581526020808201889052600584015460009081526003850190915291909120815192935090918190610fc990826117ca565b5060208201516001820190610fde90826117ca565b5050506001600160a01b0385166000908152600282016020908152604082206005840180548254600181018455928552928420909101919091558054916105b48361189f565b606080828060200190518101906102f79190611ac8565b606060006110476110dc565b905080600701805461105890611732565b80601f016020809104026020016040519081016040528092919081815260200182805461108490611732565b80156110d15780601f106110a6576101008083540402835291602001916110d1565b820191906000526020600020905b8154815290600101906020018083116110b457829003601f168201915b505050505091505090565b7f4bc1672041418a922447d83c0efd37e6707ed20ab7e53ca3f20ce1d16cac307590565b60405160248101839052604481018290526111479060640160408051601f198184030181529190526020810180516001600160e01b0316637b3338ad60e11b1790526111d2565b5050565b6111908160405160240161116191815260200190565b60408051601f198184030181529190526020810180516001600160e01b031663f82c50f160e01b1790526111d2565b50565b611190816040516024016111a7919061153b565b60408051601f198184030181529190526020810180516001600160e01b031663104c13eb60e21b1790525b6111908160006a636f6e736f6c652e6c6f679050600080835160208501845afa505050565b828054828255906000526020600020908101928215611232579160200282015b82811115611232578251825591602001919060010190611217565b5061123e929150611242565b5090565b5b8082111561123e5760008155600101611243565b60006020828403121561126957600080fd5b5035919050565b600081518084526020808501945080840160005b838110156112a057815187529582019590820190600101611284565b509495945050505050565b6020815260006102d86020830184611270565b634e487b7160e01b600052604160045260246000fd5b604051601f8201601f191681016001600160401b03811182821017156112fc576112fc6112be565b604052919050565b60006001600160401b0382111561131d5761131d6112be565b50601f01601f191660200190565b600061133e61133984611304565b6112d4565b905082815283838301111561135257600080fd5b828260208301376000602084830101529392505050565b600082601f83011261137a57600080fd5b6102d88383356020850161132b565b6000806040838503121561139c57600080fd5b82356001600160401b03808211156113b357600080fd5b818501915085601f8301126113c757600080fd5b6113d68683356020850161132b565b935060208501359150808211156113ec57600080fd5b506113f985828601611369565b9150509250929050565b60006020828403121561141557600080fd5b81356001600160a01b03811681146102d857600080fd5b60006001600160401b03821115611445576114456112be565b5060051b60200190565b600082601f83011261146057600080fd5b813560206114706113398361142c565b82815260059290921b8401810191818101908684111561148f57600080fd5b8286015b848110156114aa5780358352918301918301611493565b509695505050505050565b600080604083850312156114c857600080fd5b82356001600160401b03808211156114df57600080fd5b6113d68683870161144f565b60005b838110156115065781810151838201526020016114ee565b50506000910152565b600081518084526115278160208601602086016114eb565b601f01601f19169290920160200192915050565b6020815260006102d8602083018461150f565b60006020828403121561156057600080fd5b81356001600160401b0381111561157657600080fd5b61158284828501611369565b949350505050565b64ffffffffff60d81b83168152604060208201526000611582604083018461150f565b80356001600160d81b0319811681146115c557600080fd5b919050565b600060208083850312156115dd57600080fd5b82356001600160401b038111156115f357600080fd5b8301601f8101851361160457600080fd5b80356116126113398261142c565b81815260059190911b8201830190838101908783111561163157600080fd5b928401925b8284101561165657611647846115ad565b82529284019290840190611636565b979650505050505050565b6000806040838503121561167457600080fd5b82356001600160401b0381111561168a57600080fd5b6116968582860161144f565b9250506116a5602084016115ad565b90509250929050565b600080604083850312156116c157600080fd5b82356001600160401b038111156116d757600080fd5b6116e385828601611369565b95602094909401359450505050565b60006020828403121561170457600080fd5b6102d8826115ad565b6040815260006117206040830185611270565b82810360208401526105ca818561150f565b600181811c9082168061174657607f821691505b6020821081036107bf57634e487b7160e01b600052602260045260246000fd5b634e487b7160e01b600052603260045260246000fd5b601f8211156102ab57600081815260208120601f850160051c810160208610156117a35750805b601f850160051c820191505b818110156117c2578281556001016117af565b505050505050565b81516001600160401b038111156117e3576117e36112be565b6117f7816117f18454611732565b8461177c565b602080601f83116001811461182c57600084156118145750858301515b600019600386901b1c1916600185901b1785556117c2565b600085815260208120601f198616915b8281101561185b5788860151825594840194600190910190840161183c565b50858210156118795787850151600019600388901b60f8161c191681555b5050505050600190811b01905550565b634e487b7160e01b600052601160045260246000fd5b6000600182016118b1576118b1611889565b5060010190565b8181038181111561029a5761029a611889565b8082018082111561029a5761029a611889565b600083516118f08184602088016114eb565b6001600160f81b0319939093169190920190815260010192915050565b6000835161191f8184602088016114eb565b6001600160d81b0319939093169190920190815260050192915050565b6000825161194e8184602087016114eb565b9190910192915050565b60006020828403121561196a57600080fd5b5051919050565b6000806040838503121561198457600080fd5b505080516020909101519092909150565b6000806000606084860312156119aa57600080fd5b8351925060208401519150604084015190509250925092565b600080600080608085870312156119d957600080fd5b505082516020840151604085015160609095015191969095509092509050565b600080600080600060a08688031215611a1157600080fd5b5050835160208501516040860151606087015160809097015192989197509594509092509050565b60008060008060008060c08789031215611a5257600080fd5b865195506020870151945060408701519350606087015192506080870151915060a087015190509295509295509295565b600082601f830112611a9457600080fd5b8151611aa261133982611304565b818152846020838601011115611ab757600080fd5b6115828260208301602087016114eb565b60008060408385031215611adb57600080fd5b82516001600160401b0380821115611af257600080fd5b818501915085601f830112611b0657600080fd5b81516020611b166113398361142c565b82815260059290921b84018101918181019089841115611b3557600080fd5b948201945b83861015611b5357855182529482019490820190611b3a565b91880151919650909350505080821115611b6c57600080fd5b506113f985828601611a8356fea26469706673582212205b77142285bf3adc306f772d141bbf3b3ce71fa025aef3deb748c2958ecf27b064736f6c63430008140033",
  "linkReferences": {},
  "deployedLinkReferences": {}
}