{
  "_format": "hh-sol-artifact-1",
  "contractName": "ManagerLib",
  "sourceName": "contracts/Facets/ManagerFacet.sol",
  "abi": [
    {
      "inputs": [],
      "name": "INSTRUCTION_LENGTH",
      "outputs": [
        {
          "internalType": "uint256",
          "name": "",
          "type": "uint256"
        }
      ],
      "stateMutability": "view",
      "type": "function"
    }
  ],
  "bytecode": "0x6087610038600b82828239805160001a607314602b57634e487b7160e01b600052600060045260246000fd5b30600052607381538281f3fe730000000000000000000000000000000000000000301460806040526004361060335760003560e01c80636adb9c9e146038575b600080fd5b603f602081565b60405190815260200160405180910390f3fea2646970667358221220d082d9fb8aa039ae5fef1a01a55e17a6d2ce28d259d574c4fd9f33dc9b5004f864736f6c63430008140033",
  "linkReferences": {},
  "deployedLinkReferences": {}
}