{
  "_format": "hh-sol-artifact-1",
  "contractName": "ManagerFacet",
  "sourceName": "contracts/Facets/ManagerFacet.sol",
  "abi": [
    {
      "inputs": [
        {
          "internalType": "uint256[]",
          "name": "data",
          "type": "uint256[]"
        },
        {
          "internalType": "bytes",
          "name": "packedInfo",
          "type": "bytes"
        }
      ],
      "name": "addDataToFront",
      "outputs": [
        {
          "internalType": "bytes",
          "name": "packedResult",
          "type": "bytes"
        }
      ],
      "stateMutability": "pure",
      "type": "function"
    },
    {
      "inputs": [
        {
          "internalType": "address",
          "name": "a",
          "type": "address"
        }
      ],
      "name": "convertAddyToNum",
      "outputs": [
        {
          "internalType": "uint256",
          "name": "",
          "type": "uint256"
        }
      ],
      "stateMutability": "pure",
      "type": "function"
    },
    {
      "inputs": [
        {
          "internalType": "bytes5[]",
          "name": "data",
          "type": "bytes5[]"
        }
      ],
      "name": "convertBytes5ArrayToBytes",
      "outputs": [
        {
          "internalType": "bytes",
          "name": "res",
          "type": "bytes"
        }
      ],
      "stateMutability": "pure",
      "type": "function"
    },
    {
      "inputs": [
        {
          "internalType": "uint256",
          "name": "a",
          "type": "uint256"
        }
      ],
      "name": "convertNumToAddy",
      "outputs": [
        {
          "internalType": "address",
          "name": "",
          "type": "address"
        }
      ],
      "stateMutability": "pure",
      "type": "function"
    },
    {
      "inputs": [
        {
          "internalType": "string",
          "name": "description",
          "type": "string"
        },
        {
          "internalType": "bytes",
          "name": "dataFlow",
          "type": "bytes"
        }
      ],
      "name": "createNewFlow",
      "outputs": [],
      "stateMutability": "nonpayable",
      "type": "function"
    },
    {
      "inputs": [
        {
          "internalType": "string",
          "name": "description",
          "type": "string"
        },
        {
          "internalType": "bytes",
          "name": "dataFlow",
          "type": "bytes"
        }
      ],
      "name": "createNewHookFlow",
      "outputs": [],
      "stateMutability": "nonpayable",
      "type": "function"
    },
    {
      "inputs": [
        {
          "internalType": "uint256[]",
          "name": "inputs",
          "type": "uint256[]"
        },
        {
          "internalType": "bytes5",
          "name": "instruction",
          "type": "bytes5"
        }
      ],
      "name": "executeInstruction",
      "outputs": [
        {
          "internalType": "uint256[]",
          "name": "outPuts",
          "type": "uint256[]"
        }
      ],
      "stateMutability": "nonpayable",
      "type": "function"
    },
    {
      "inputs": [
        {
          "internalType": "uint256",
          "name": "index",
          "type": "uint256"
        }
      ],
      "name": "getLastResult",
      "outputs": [
        {
          "internalType": "uint256",
          "name": "",
          "type": "uint256"
        }
      ],
      "stateMutability": "view",
      "type": "function"
    },
    {
      "inputs": [
        {
          "internalType": "bytes5",
          "name": "data",
          "type": "bytes5"
        }
      ],
      "name": "parseInstruction",
      "outputs": [
        {
          "internalType": "bytes4",
          "name": "selector",
          "type": "bytes4"
        },
        {
          "internalType": "uint8",
          "name": "inp",
          "type": "uint8"
        },
        {
          "internalType": "uint8",
          "name": "out",
          "type": "uint8"
        }
      ],
      "stateMutability": "pure",
      "type": "function"
    },
    {
      "inputs": [
        {
          "internalType": "bytes",
          "name": "dataFlow",
          "type": "bytes"
        },
        {
          "internalType": "uint256",
          "name": "index",
          "type": "uint256"
        }
      ],
      "name": "parseLastResultAndExecute",
      "outputs": [
        {
          "internalType": "uint256",
          "name": "",
          "type": "uint256"
        }
      ],
      "stateMutability": "nonpayable",
      "type": "function"
    },
    {
      "inputs": [
        {
          "internalType": "bytes",
          "name": "data",
          "type": "bytes"
        }
      ],
      "name": "readData",
      "outputs": [
        {
          "internalType": "uint256[]",
          "name": "",
          "type": "uint256[]"
        },
        {
          "internalType": "bytes",
          "name": "",
          "type": "bytes"
        }
      ],
      "stateMutability": "pure",
      "type": "function"
    },
    {
      "inputs": [
        {
          "internalType": "bytes",
          "name": "dataFlow",
          "type": "bytes"
        }
      ],
      "name": "startWorking",
      "outputs": [
        {
          "internalType": "uint256[]",
          "name": "finalOutputs",
          "type": "uint256[]"
        }
      ],
      "stateMutability": "nonpayable",
      "type": "function"
    },
    {
      "inputs": [
        {
          "internalType": "uint256",
          "name": "id",
          "type": "uint256"
        }
      ],
      "name": "startWorkingFromID",
      "outputs": [
        {
          "internalType": "uint256[]",
          "name": "finalOutputs",
          "type": "uint256[]"
        }
      ],
      "stateMutability": "nonpayable",
      "type": "function"
    },
    {
      "inputs": [],
      "name": "stopExecution",
      "outputs": [],
      "stateMutability": "nonpayable",
      "type": "function"
    },
    {
      "inputs": [
        {
          "internalType": "bytes",
          "name": "packed",
          "type": "bytes"
        }
      ],
      "name": "testDecodePacked",
      "outputs": [
        {
          "internalType": "bytes5",
          "name": "info",
          "type": "bytes5"
        },
        {
          "internalType": "bytes",
          "name": "",
          "type": "bytes"
        }
      ],
      "stateMutability": "pure",
      "type": "function"
    }
  ],
  "bytecode": "0x608060405234801561001057600080fd5b5061162d806100206000396000f3fe608060405234801561001057600080fd5b50600436106100c55760003560e01c80631bc7503c146100ca5780631d176049146100f3578063241d28eb1461010857806326837dfb146101295780632cc72a621461013c57806364b0aab31461015c5780636a3504c61461016f57806381b1b8cc146101905780638c2519ac146101a35780638e146b51146101ce5780638ea8c146146101e157806396456d92146101f457806397a0259d14610240578063c067164414610248578063cca12a591461025b575b600080fd5b6100dd6100d8366004610d95565b61027c565b6040516100ea9190610de9565b60405180910390f35b610106610101366004610ec7565b61028d565b005b61011b610116366004610f41565b61029d565b6040519081526020016100ea565b61011b610137366004610d95565b6102ae565b61014f61014a366004610ff3565b6102b9565b6040516100ea9190611079565b6100dd61016a36600461108c565b6102cc565b61018261017d36600461108c565b6102d7565b6040516100ea9291906110c8565b61014f61019e366004611108565b6102ed565b6101b66101b1366004610d95565b6102f8565b6040516001600160a01b0390911681526020016100ea565b6100dd6101dc36600461119f565b610300565b61011b6101ef3660046111ec565b61030c565b610216610202366004611230565b90600f600483811a9081901c821692911690565b604080516001600160e01b0319909416845260ff92831660208501529116908201526060016100ea565b610106610318565b610106610256366004610ec7565b610322565b61026e61026936600461108c565b61032d565b6040516100ea92919061124b565b606061028782610339565b92915050565b6102983283836104ce565b505050565b60006001600160a01b038216610287565b6000610287826105b1565b60606102c583836105e6565b9392505050565b606061028782610612565b600060606102e4836106aa565b91509150915091565b606061028782610730565b600081610287565b60606102c58383610794565b60006102c58383610b73565b610320610b88565b565b610298328383610ba0565b6060806102e483610c42565b60606000610345610c59565b60068101805461ffff1916610101179055600084815260038201602052604081208054929350909161037690611270565b80601f01602080910402602001604051908101604052809291908181526020018280546103a290611270565b80156103ef5780601f106103c4576101008083540402835291602001916103ef565b820191906000526020600020905b8154815290600101906020018083116103d257829003601f168201915b5050505050905060008061040283610c42565b915091506000610411826106aa565b9450905061041f8382610794565b95506003845110806104365750600685015460ff16155b156104ae5761047986600081518110610451576104516112a4565b60200260200101518760018151811061046c5761046c6112a4565b6020026020010151610c7d565b855161048e9060018701906020890190610d35565b506104998651610cc8565b50505050600601805461ff0019169055919050565b6104b886856105e6565b93506104c384610612565b505050505050919050565b6000806104d9610c59565b60408051808201825285815260208082018890526005840154600090815260038501909152919091208151929350909181906105159082611308565b506020820151600182019061052a9082611308565b505050600481018054600181018255600091825260209091200161054e8482611308565b506001600160a01b038516600090815260028201602090815260408220600584018054825460018101845592855292842090910191909155805491610592836113dd565b9190505550600181600501546105a891906113f6565b95945050505050565b6000806105bc610c59565b90508060010183815481106105d3576105d36112a4565b9060005260206000200154915050919050565b60405181906105fb908490839060200161124b565b604051602081830303815290604052905092915050565b6060600061061e610c59565b60068101805461ffff1916610101179055905060008061063d85610c42565b91509150600061064c826106aa565b9650905061065a8382610794565b94506003865110806106715750600684015460ff16155b1561068b5784516104999060018601906020880190610d35565b61069585876105e6565b95506106a086610612565b5050505050919050565b602081015160608060005b600585516106c391906113f6565b8110156107275781856106d7836005611409565b815181106106e7576106e76112a4565b602001015160f81c60f81b60405160200161070392919061141c565b6040516020818303038152906040529150808061071f906113dd565b9150506106b5565b50919391925050565b606060005b825181101561078e5781838281518110610751576107516112a4565b602002602001015160405160200161076a92919061144b565b60405160208183030381529060405291508080610786906113dd565b915050610735565b50919050565b606081600f600482811a9081901c821691168360008381036108345760408051600481526024810182526020810180516001600160e01b03166001600160e01b03198916179052905130916107e89161147a565b6000604051808303816000865af19150503d8060008114610825576040519150601f19603f3d011682016040523d82523d6000602084013e61082a565b606091505b50925090506108d6565b306001600160a01b031685896040516024016108509190610de9565b60408051601f198184030181529181526020820180516001600160e01b03166001600160e01b031990941693909317909252905161088e919061147a565b6000604051808303816000865af19150503d80600081146108cb576040519150601f19603f3d011682016040523d82523d6000602084013e6108d0565b606091505b50925090505b8260ff166000036109305760408051600180825281830190925260009160208083019080368337019050509050600081600081518110610918576109186112a4565b60209081029190910101529550610287945050505050565b8260ff166001036109c9576000828060200190518101906109519190611496565b905060008460ff166001600160401b0381111561097057610970610dfc565b604051908082528060200260200182016040528015610999578160200160208202803683370190505b50905081816000815181106109b0576109b06112a4565b6020908102919091010152965061028795505050505050565b8260ff16600203610a8657600080838060200190518101906109eb91906114af565b9150915060008560ff166001600160401b03811115610a0c57610a0c610dfc565b604051908082528060200260200182016040528015610a35578160200160208202803683370190505b5090508281600081518110610a4c57610a4c6112a4565b6020026020010181815250508181600181518110610a6c57610a6c6112a4565b602090810291909101015297506102879650505050505050565b8260ff16600303610b6857600080600084806020019051810190610aaa91906114d3565b92509250925060008660ff166001600160401b03811115610acd57610acd610dfc565b604051908082528060200260200182016040528015610af6578160200160208202803683370190505b5090508381600081518110610b0d57610b0d6112a4565b6020026020010181815250508281600181518110610b2d57610b2d6112a4565b6020026020010181815250508181600281518110610b4d57610b4d6112a4565b60209081029190910101529850610287975050505050505050565b505050505092915050565b6000610b7e83610612565b506102c5826105b1565b6000610b92610c59565b600601805460ff1916905550565b600080610bab610c59565b6040805180820182528581526020808201889052600584015460009081526003850190915291909120815192935090918190610be79082611308565b5060208201516001820190610bfc9082611308565b5050506001600160a01b038516600090815260028201602090815260408220600584018054825460018101845592855292842090910191909155805491610592836113dd565b606080828060200190518101906102e49190611546565b7f4bc1672041418a922447d83c0efd37e6707ed20ab7e53ca3f20ce1d16cac307590565b6040516024810183905260448101829052610cc49060640160408051601f198184030181529190526020810180516001600160e01b0316637b3338ad60e11b179052610d10565b5050565b610d0d81604051602401610cde91815260200190565b60408051601f198184030181529190526020810180516001600160e01b031663f82c50f160e01b179052610d10565b50565b610d0d8160006a636f6e736f6c652e6c6f679050600080835160208501845afa505050565b828054828255906000526020600020908101928215610d70579160200282015b82811115610d70578251825591602001919060010190610d55565b50610d7c929150610d80565b5090565b5b80821115610d7c5760008155600101610d81565b600060208284031215610da757600080fd5b5035919050565b600081518084526020808501945080840160005b83811015610dde57815187529582019590820190600101610dc2565b509495945050505050565b6020815260006102c56020830184610dae565b634e487b7160e01b600052604160045260246000fd5b604051601f8201601f191681016001600160401b0381118282101715610e3a57610e3a610dfc565b604052919050565b60006001600160401b03821115610e5b57610e5b610dfc565b50601f01601f191660200190565b6000610e7c610e7784610e42565b610e12565b9050828152838383011115610e9057600080fd5b828260208301376000602084830101529392505050565b600082601f830112610eb857600080fd5b6102c583833560208501610e69565b60008060408385031215610eda57600080fd5b82356001600160401b0380821115610ef157600080fd5b818501915085601f830112610f0557600080fd5b610f1486833560208501610e69565b93506020850135915080821115610f2a57600080fd5b50610f3785828601610ea7565b9150509250929050565b600060208284031215610f5357600080fd5b81356001600160a01b03811681146102c557600080fd5b60006001600160401b03821115610f8357610f83610dfc565b5060051b60200190565b600082601f830112610f9e57600080fd5b81356020610fae610e7783610f6a565b82815260059290921b84018101918181019086841115610fcd57600080fd5b8286015b84811015610fe85780358352918301918301610fd1565b509695505050505050565b6000806040838503121561100657600080fd5b82356001600160401b038082111561101d57600080fd5b610f1486838701610f8d565b60005b8381101561104457818101518382015260200161102c565b50506000910152565b60008151808452611065816020860160208601611029565b601f01601f19169290920160200192915050565b6020815260006102c5602083018461104d565b60006020828403121561109e57600080fd5b81356001600160401b038111156110b457600080fd5b6110c084828501610ea7565b949350505050565b64ffffffffff60d81b831681526040602082015260006110c0604083018461104d565b80356001600160d81b03198116811461110357600080fd5b919050565b6000602080838503121561111b57600080fd5b82356001600160401b0381111561113157600080fd5b8301601f8101851361114257600080fd5b8035611150610e7782610f6a565b81815260059190911b8201830190838101908783111561116f57600080fd5b928401925b8284101561119457611185846110eb565b82529284019290840190611174565b979650505050505050565b600080604083850312156111b257600080fd5b82356001600160401b038111156111c857600080fd5b6111d485828601610f8d565b9250506111e3602084016110eb565b90509250929050565b600080604083850312156111ff57600080fd5b82356001600160401b0381111561121557600080fd5b61122185828601610ea7565b95602094909401359450505050565b60006020828403121561124257600080fd5b6102c5826110eb565b60408152600061125e6040830185610dae565b82810360208401526105a8818561104d565b600181811c9082168061128457607f821691505b60208210810361078e57634e487b7160e01b600052602260045260246000fd5b634e487b7160e01b600052603260045260246000fd5b601f82111561029857600081815260208120601f850160051c810160208610156112e15750805b601f850160051c820191505b81811015611300578281556001016112ed565b505050505050565b81516001600160401b0381111561132157611321610dfc565b6113358161132f8454611270565b846112ba565b602080601f83116001811461136a57600084156113525750858301515b600019600386901b1c1916600185901b178555611300565b600085815260208120601f198616915b828110156113995788860151825594840194600190910190840161137a565b50858210156113b75787850151600019600388901b60f8161c191681555b5050505050600190811b01905550565b634e487b7160e01b600052601160045260246000fd5b6000600182016113ef576113ef6113c7565b5060010190565b81810381811115610287576102876113c7565b80820180821115610287576102876113c7565b6000835161142e818460208801611029565b6001600160f81b0319939093169190920190815260010192915050565b6000835161145d818460208801611029565b6001600160d81b0319939093169190920190815260050192915050565b6000825161148c818460208701611029565b9190910192915050565b6000602082840312156114a857600080fd5b5051919050565b600080604083850312156114c257600080fd5b505080516020909101519092909150565b6000806000606084860312156114e857600080fd5b8351925060208401519150604084015190509250925092565b600082601f83011261151257600080fd5b8151611520610e7782610e42565b81815284602083860101111561153557600080fd5b6110c0826020830160208701611029565b6000806040838503121561155957600080fd5b82516001600160401b038082111561157057600080fd5b818501915085601f83011261158457600080fd5b81516020611594610e7783610f6a565b82815260059290921b840181019181810190898411156115b357600080fd5b948201945b838610156115d1578551825294820194908201906115b8565b918801519196509093505050808211156115ea57600080fd5b50610f378582860161150156fea2646970667358221220444f2ca816be42b9819d1e9128e93ca36d1c6ac55fde0eeb7e47d15840f3efc064736f6c63430008140033",
  "linkReferences": {},
  "deployedLinkReferences": {}
}