{
  "_format": "hh-sol-artifact-1",
  "contractName": "ManagerFacet",
  "sourceName": "contracts/Facets/ManagerFacet.sol",
  "abi": [
    {
      "inputs": [
        {
          "internalType": "uint256[]",
          "name": "data",
          "type": "uint256[]"
        },
        {
          "internalType": "bytes",
          "name": "packedInfo",
          "type": "bytes"
        }
      ],
      "name": "addDataToFront",
      "outputs": [
        {
          "internalType": "bytes",
          "name": "packedResult",
          "type": "bytes"
        }
      ],
      "stateMutability": "pure",
      "type": "function"
    },
    {
      "inputs": [
        {
          "internalType": "address",
          "name": "a",
          "type": "address"
        }
      ],
      "name": "convertAddyToNum",
      "outputs": [
        {
          "internalType": "uint256",
          "name": "",
          "type": "uint256"
        }
      ],
      "stateMutability": "pure",
      "type": "function"
    },
    {
      "inputs": [
        {
          "internalType": "bytes5[]",
          "name": "data",
          "type": "bytes5[]"
        }
      ],
      "name": "convertBytes5ArrayToBytes",
      "outputs": [
        {
          "internalType": "bytes",
          "name": "res",
          "type": "bytes"
        }
      ],
      "stateMutability": "pure",
      "type": "function"
    },
    {
      "inputs": [
        {
          "internalType": "uint256",
          "name": "a",
          "type": "uint256"
        }
      ],
      "name": "convertNumToAddy",
      "outputs": [
        {
          "internalType": "address",
          "name": "",
          "type": "address"
        }
      ],
      "stateMutability": "pure",
      "type": "function"
    },
    {
      "inputs": [
        {
          "internalType": "uint256[]",
          "name": "inputs",
          "type": "uint256[]"
        },
        {
          "internalType": "bytes5",
          "name": "instruction",
          "type": "bytes5"
        }
      ],
      "name": "executeInstruction",
      "outputs": [
        {
          "internalType": "uint256[]",
          "name": "outPuts",
          "type": "uint256[]"
        }
      ],
      "stateMutability": "nonpayable",
      "type": "function"
    },
    {
      "inputs": [
        {
          "internalType": "bytes5",
          "name": "data",
          "type": "bytes5"
        }
      ],
      "name": "parseInstruction",
      "outputs": [
        {
          "internalType": "bytes4",
          "name": "selector",
          "type": "bytes4"
        },
        {
          "internalType": "uint8",
          "name": "inp",
          "type": "uint8"
        },
        {
          "internalType": "uint8",
          "name": "out",
          "type": "uint8"
        }
      ],
      "stateMutability": "pure",
      "type": "function"
    },
    {
      "inputs": [
        {
          "internalType": "bytes",
          "name": "data",
          "type": "bytes"
        }
      ],
      "name": "readData",
      "outputs": [
        {
          "internalType": "uint256[]",
          "name": "",
          "type": "uint256[]"
        },
        {
          "internalType": "bytes",
          "name": "",
          "type": "bytes"
        }
      ],
      "stateMutability": "pure",
      "type": "function"
    },
    {
      "inputs": [
        {
          "internalType": "bytes",
          "name": "dataFlow",
          "type": "bytes"
        }
      ],
      "name": "startWorking",
      "outputs": [
        {
          "internalType": "uint256[]",
          "name": "finalOutputs",
          "type": "uint256[]"
        }
      ],
      "stateMutability": "nonpayable",
      "type": "function"
    },
    {
      "inputs": [
        {
          "internalType": "bytes",
          "name": "packed",
          "type": "bytes"
        }
      ],
      "name": "testDecodePacked",
      "outputs": [
        {
          "internalType": "bytes5",
          "name": "info",
          "type": "bytes5"
        },
        {
          "internalType": "bytes",
          "name": "",
          "type": "bytes"
        }
      ],
      "stateMutability": "pure",
      "type": "function"
    }
  ],
  "bytecode": "0x608060405234801561001057600080fd5b50610e6f806100206000396000f3fe608060405234801561001057600080fd5b50600436106100835760003560e01c8063241d28eb146100885780632cc72a62146100ae57806364b0aab3146100ce5780636a3504c6146100ee57806381b1b8cc1461010f5780638c2519ac146101225780638e146b511461014d57806396456d9214610160578063cca12a59146101ac575b600080fd5b61009b6100963660046107a8565b6101cd565b6040519081526020015b60405180910390f35b6100c16100bc36600461091d565b6101e0565b6040516100a591906109d0565b6100e16100dc3660046109e3565b6101f3565b6040516100a59190610a5a565b6101016100fc3660046109e3565b6101fe565b6040516100a5929190610a6d565b6100c161011d366004610aad565b610214565b610135610130366004610b44565b61021f565b6040516001600160a01b0390911681526020016100a5565b6100e161015b366004610b5d565b610227565b61018261016e366004610baa565b90600f600483811a9081901c821692911690565b604080516001600160e01b0319909416845260ff92831660208501529116908201526060016100a5565b6101bf6101ba3660046109e3565b610233565b6040516100a5929190610bc5565b60006001600160a01b0382165b92915050565b60606101ec838361023f565b9392505050565b60606101da8261026b565b6000606061020b836102c8565b91509150915091565b60606101da8261034e565b6000816101da565b60606101ec83836103b2565b60608061020b83610791565b60405181906102549084908390602001610bc5565b604051602081830303815290604052905092915050565b606060008061027984610791565b915091506000610288826102c8565b9550905061029683826103b2565b93506003855110156102aa57505050919050565b6102b4848661023f565b94506102bf8561026b565b50505050919050565b602081015160608060005b600585516102e19190610c09565b8110156103455781856102f5836005610c1c565b8151811061030557610305610c2f565b602001015160f81c60f81b604051602001610321929190610c45565b6040516020818303038152906040529150808061033d90610c74565b9150506102d3565b50919391925050565b606060005b82518110156103ac578183828151811061036f5761036f610c2f565b6020026020010151604051602001610388929190610c8d565b604051602081830303815290604052915080806103a490610c74565b915050610353565b50919050565b606081600f600482811a9081901c821691168360008381036104525760408051600481526024810182526020810180516001600160e01b03166001600160e01b031989161790529051309161040691610cbc565b6000604051808303816000865af19150503d8060008114610443576040519150601f19603f3d011682016040523d82523d6000602084013e610448565b606091505b50925090506104f4565b306001600160a01b0316858960405160240161046e9190610a5a565b60408051601f198184030181529181526020820180516001600160e01b03166001600160e01b03199094169390931790925290516104ac9190610cbc565b6000604051808303816000865af19150503d80600081146104e9576040519150601f19603f3d011682016040523d82523d6000602084013e6104ee565b606091505b50925090505b8260ff1660000361054e576040805160018082528183019092526000916020808301908036833701905050905060008160008151811061053657610536610c2f565b602090810291909101015295506101da945050505050565b8260ff166001036105e75760008280602001905181019061056f9190610cd8565b905060008460ff166001600160401b0381111561058e5761058e6107d1565b6040519080825280602002602001820160405280156105b7578160200160208202803683370190505b50905081816000815181106105ce576105ce610c2f565b602090810291909101015296506101da95505050505050565b8260ff166002036106a457600080838060200190518101906106099190610cf1565b9150915060008560ff166001600160401b0381111561062a5761062a6107d1565b604051908082528060200260200182016040528015610653578160200160208202803683370190505b509050828160008151811061066a5761066a610c2f565b602002602001018181525050818160018151811061068a5761068a610c2f565b602090810291909101015297506101da9650505050505050565b8260ff16600303610786576000806000848060200190518101906106c89190610d15565b92509250925060008660ff166001600160401b038111156106eb576106eb6107d1565b604051908082528060200260200182016040528015610714578160200160208202803683370190505b509050838160008151811061072b5761072b610c2f565b602002602001018181525050828160018151811061074b5761074b610c2f565b602002602001018181525050818160028151811061076b5761076b610c2f565b602090810291909101015298506101da975050505050505050565b505050505092915050565b6060808280602001905181019061020b9190610d88565b6000602082840312156107ba57600080fd5b81356001600160a01b03811681146101ec57600080fd5b634e487b7160e01b600052604160045260246000fd5b604051601f8201601f191681016001600160401b038111828210171561080f5761080f6107d1565b604052919050565b60006001600160401b03821115610830576108306107d1565b5060051b60200190565b600082601f83011261084b57600080fd5b8135602061086061085b83610817565b6107e7565b82815260059290921b8401810191818101908684111561087f57600080fd5b8286015b8481101561089a5780358352918301918301610883565b509695505050505050565b60006001600160401b038211156108be576108be6107d1565b50601f01601f191660200190565b600082601f8301126108dd57600080fd5b81356108eb61085b826108a5565b81815284602083860101111561090057600080fd5b816020850160208301376000918101602001919091529392505050565b6000806040838503121561093057600080fd5b82356001600160401b038082111561094757600080fd5b6109538683870161083a565b9350602085013591508082111561096957600080fd5b50610976858286016108cc565b9150509250929050565b60005b8381101561099b578181015183820152602001610983565b50506000910152565b600081518084526109bc816020860160208601610980565b601f01601f19169290920160200192915050565b6020815260006101ec60208301846109a4565b6000602082840312156109f557600080fd5b81356001600160401b03811115610a0b57600080fd5b610a17848285016108cc565b949350505050565b600081518084526020808501945080840160005b83811015610a4f57815187529582019590820190600101610a33565b509495945050505050565b6020815260006101ec6020830184610a1f565b64ffffffffff60d81b83168152604060208201526000610a1760408301846109a4565b80356001600160d81b031981168114610aa857600080fd5b919050565b60006020808385031215610ac057600080fd5b82356001600160401b03811115610ad657600080fd5b8301601f81018513610ae757600080fd5b8035610af561085b82610817565b81815260059190911b82018301908381019087831115610b1457600080fd5b928401925b82841015610b3957610b2a84610a90565b82529284019290840190610b19565b979650505050505050565b600060208284031215610b5657600080fd5b5035919050565b60008060408385031215610b7057600080fd5b82356001600160401b03811115610b8657600080fd5b610b928582860161083a565b925050610ba160208401610a90565b90509250929050565b600060208284031215610bbc57600080fd5b6101ec82610a90565b604081526000610bd86040830185610a1f565b8281036020840152610bea81856109a4565b95945050505050565b634e487b7160e01b600052601160045260246000fd5b818103818111156101da576101da610bf3565b808201808211156101da576101da610bf3565b634e487b7160e01b600052603260045260246000fd5b60008351610c57818460208801610980565b6001600160f81b0319939093169190920190815260010192915050565b600060018201610c8657610c86610bf3565b5060010190565b60008351610c9f818460208801610980565b6001600160d81b0319939093169190920190815260050192915050565b60008251610cce818460208701610980565b9190910192915050565b600060208284031215610cea57600080fd5b5051919050565b60008060408385031215610d0457600080fd5b505080516020909101519092909150565b600080600060608486031215610d2a57600080fd5b8351925060208401519150604084015190509250925092565b600082601f830112610d5457600080fd5b8151610d6261085b826108a5565b818152846020838601011115610d7757600080fd5b610a17826020830160208701610980565b60008060408385031215610d9b57600080fd5b82516001600160401b0380821115610db257600080fd5b818501915085601f830112610dc657600080fd5b81516020610dd661085b83610817565b82815260059290921b84018101918181019089841115610df557600080fd5b948201945b83861015610e1357855182529482019490820190610dfa565b91880151919650909350505080821115610e2c57600080fd5b5061097685828601610d4356fea2646970667358221220ae32ebc922c7f2a457c781416539249cae13eedfce8efd47b6dcc18cae06d94664736f6c63430008140033",
  "linkReferences": {},
  "deployedLinkReferences": {}
}