{
  "_format": "hh-sol-artifact-1",
  "contractName": "ManagerLib",
  "sourceName": "contracts/Facets/ManagerFacet.sol",
  "abi": [
    {
      "inputs": [],
      "name": "INSTRUCTION_LENGTH",
      "outputs": [
        {
          "internalType": "uint256",
          "name": "",
          "type": "uint256"
        }
      ],
      "stateMutability": "view",
      "type": "function"
    }
  ],
  "bytecode": "0x61031061003a600b82828239805160001a60731461002d57634e487b7160e01b600052600060045260246000fd5b30600052607381538281f3fe730000000000000000000000000000000000000000301460806040526004361061004b5760003560e01c80636adb9c9e146100505780637086c9071461006a5780639c35000114610081575b600080fd5b610058602081565b60405190815260200160405180910390f35b81801561007657600080fd5b5061007f6100a1565b005b81801561008d57600080fd5b5061007f61009c366004610260565b61012f565b600047116101005760405162461bcd60e51b815260206004820152602160248201527f436f6e747261637420686173206e6f20457468657220746f207472616e7366656044820152603960f91b60648201526084015b60405180910390fd5b60405133904780156108fc02916000818181858888f1935050505015801561012c573d6000803e3d6000fd5b50565b6040516370a0823160e01b8152306004820152829082906001600160a01b038316906370a0823190602401602060405180830381865afa158015610177573d6000803e3d6000fd5b505050506040513d601f19601f8201168201806040525081019061019b9190610298565b10156101e95760405162461bcd60e51b815260206004820181905260248201527f436f6e74726163742068617320696e73756666696369656e7420746f6b656e7360448201526064016100f7565b60405163a9059cbb60e01b8152336004820152602481018390526001600160a01b0382169063a9059cbb906044016020604051808303816000875af1158015610236573d6000803e3d6000fd5b505050506040513d601f19601f8201168201806040525081019061025a91906102b1565b50505050565b6000806040838503121561027357600080fd5b82356001600160a01b038116811461028a57600080fd5b946020939093013593505050565b6000602082840312156102aa57600080fd5b5051919050565b6000602082840312156102c357600080fd5b815180151581146102d357600080fd5b939250505056fea2646970667358221220877dc03cf5e6acac1ecaca6adb3793958bf258bf879c3947aa11c12a4e17250a64736f6c63430008140033",
  "linkReferences": {},
  "deployedLinkReferences": {}
}