{
  "_format": "hh-sol-artifact-1",
  "contractName": "ManagerFacet",
  "sourceName": "contracts/Facets/ManagerFacet.sol",
  "abi": [
    {
      "inputs": [
        {
          "internalType": "uint256[]",
          "name": "data",
          "type": "uint256[]"
        },
        {
          "internalType": "bytes",
          "name": "packedInfo",
          "type": "bytes"
        }
      ],
      "name": "addDataToFront",
      "outputs": [
        {
          "internalType": "bytes",
          "name": "packedResult",
          "type": "bytes"
        }
      ],
      "stateMutability": "pure",
      "type": "function"
    },
    {
      "inputs": [
        {
          "internalType": "address",
          "name": "a",
          "type": "address"
        }
      ],
      "name": "convertAddyToNum",
      "outputs": [
        {
          "internalType": "uint256",
          "name": "",
          "type": "uint256"
        }
      ],
      "stateMutability": "pure",
      "type": "function"
    },
    {
      "inputs": [
        {
          "internalType": "bytes5[]",
          "name": "data",
          "type": "bytes5[]"
        }
      ],
      "name": "convertBytes5ArrayToBytes",
      "outputs": [
        {
          "internalType": "bytes",
          "name": "res",
          "type": "bytes"
        }
      ],
      "stateMutability": "pure",
      "type": "function"
    },
    {
      "inputs": [
        {
          "internalType": "uint256",
          "name": "a",
          "type": "uint256"
        }
      ],
      "name": "convertNumToAddy",
      "outputs": [
        {
          "internalType": "address",
          "name": "",
          "type": "address"
        }
      ],
      "stateMutability": "pure",
      "type": "function"
    },
    {
      "inputs": [
        {
          "internalType": "string",
          "name": "description",
          "type": "string"
        },
        {
          "internalType": "bytes",
          "name": "dataFlow",
          "type": "bytes"
        }
      ],
      "name": "createNewFlow",
      "outputs": [],
      "stateMutability": "nonpayable",
      "type": "function"
    },
    {
      "inputs": [
        {
          "internalType": "string",
          "name": "description",
          "type": "string"
        },
        {
          "internalType": "bytes",
          "name": "dataFlow",
          "type": "bytes"
        }
      ],
      "name": "createNewHookFlow",
      "outputs": [],
      "stateMutability": "nonpayable",
      "type": "function"
    },
    {
      "inputs": [
        {
          "internalType": "uint256[]",
          "name": "inputs",
          "type": "uint256[]"
        },
        {
          "internalType": "bytes5",
          "name": "instruction",
          "type": "bytes5"
        }
      ],
      "name": "executeInstruction",
      "outputs": [
        {
          "internalType": "uint256[]",
          "name": "outPuts",
          "type": "uint256[]"
        }
      ],
      "stateMutability": "nonpayable",
      "type": "function"
    },
    {
      "inputs": [],
      "name": "getCurrentFlow",
      "outputs": [
        {
          "internalType": "bytes",
          "name": "",
          "type": "bytes"
        }
      ],
      "stateMutability": "view",
      "type": "function"
    },
    {
      "inputs": [
        {
          "internalType": "uint256",
          "name": "index",
          "type": "uint256"
        }
      ],
      "name": "getLastResult",
      "outputs": [
        {
          "internalType": "uint256",
          "name": "",
          "type": "uint256"
        }
      ],
      "stateMutability": "view",
      "type": "function"
    },
    {
      "inputs": [
        {
          "internalType": "bytes5",
          "name": "data",
          "type": "bytes5"
        }
      ],
      "name": "parseInstruction",
      "outputs": [
        {
          "internalType": "bytes4",
          "name": "selector",
          "type": "bytes4"
        },
        {
          "internalType": "uint8",
          "name": "inp",
          "type": "uint8"
        },
        {
          "internalType": "uint8",
          "name": "out",
          "type": "uint8"
        }
      ],
      "stateMutability": "pure",
      "type": "function"
    },
    {
      "inputs": [
        {
          "internalType": "bytes",
          "name": "dataFlow",
          "type": "bytes"
        },
        {
          "internalType": "uint256",
          "name": "index",
          "type": "uint256"
        }
      ],
      "name": "parseLastResultAndExecute",
      "outputs": [
        {
          "internalType": "uint256",
          "name": "",
          "type": "uint256"
        }
      ],
      "stateMutability": "nonpayable",
      "type": "function"
    },
    {
      "inputs": [
        {
          "internalType": "bytes",
          "name": "data",
          "type": "bytes"
        }
      ],
      "name": "readData",
      "outputs": [
        {
          "internalType": "uint256[]",
          "name": "",
          "type": "uint256[]"
        },
        {
          "internalType": "bytes",
          "name": "",
          "type": "bytes"
        }
      ],
      "stateMutability": "pure",
      "type": "function"
    },
    {
      "inputs": [
        {
          "internalType": "bytes",
          "name": "dataFlow",
          "type": "bytes"
        }
      ],
      "name": "startWorking",
      "outputs": [
        {
          "internalType": "uint256[]",
          "name": "finalOutputs",
          "type": "uint256[]"
        }
      ],
      "stateMutability": "nonpayable",
      "type": "function"
    },
    {
      "inputs": [
        {
          "internalType": "uint256",
          "name": "id",
          "type": "uint256"
        }
      ],
      "name": "startWorkingFromID",
      "outputs": [
        {
          "internalType": "uint256[]",
          "name": "finalOutputs",
          "type": "uint256[]"
        }
      ],
      "stateMutability": "nonpayable",
      "type": "function"
    },
    {
      "inputs": [],
      "name": "stopExecution",
      "outputs": [],
      "stateMutability": "nonpayable",
      "type": "function"
    },
    {
      "inputs": [
        {
          "internalType": "bytes",
          "name": "packed",
          "type": "bytes"
        }
      ],
      "name": "testDecodePacked",
      "outputs": [
        {
          "internalType": "bytes5",
          "name": "info",
          "type": "bytes5"
        },
        {
          "internalType": "bytes",
          "name": "",
          "type": "bytes"
        }
      ],
      "stateMutability": "pure",
      "type": "function"
    },
    {
      "inputs": [],
      "name": "transferEtherToCaller",
      "outputs": [],
      "stateMutability": "nonpayable",
      "type": "function"
    },
    {
      "inputs": [
        {
          "internalType": "address",
          "name": "tokenAddy",
          "type": "address"
        },
        {
          "internalType": "uint256",
          "name": "amount",
          "type": "uint256"
        }
      ],
      "name": "transferTokenToCaller",
      "outputs": [],
      "stateMutability": "nonpayable",
      "type": "function"
    }
  ],
  "bytecode": "0x608060405234801561001057600080fd5b50611dff806100206000396000f3fe608060405234801561001057600080fd5b50600436106100e65760003560e01c80631bc7503c146100eb5780631d17604914610114578063241d28eb1461012957806326837dfb1461014a5780632cc72a621461015d57806364b0aab31461017d5780636a3504c6146101905780637086c907146101b157806381b1b8cc146101b95780638c2519ac146101cc5780638e146b51146101ec5780638ea8c146146101ff57806396456d921461021257806397a0259d1461025e5780639c35000114610266578063c067164414610279578063cca12a591461028c578063edbbed0b146102ad575b600080fd5b6100fe6100f936600461143e565b6102b5565b60405161010b9190611492565b60405180910390f35b610127610122366004611570565b6102c6565b005b61013c610137366004611606565b6102d6565b60405190815260200161010b565b61013c61015836600461143e565b6102e7565b61017061016b3660046116aa565b6102f2565b60405161010b9190611730565b6100fe61018b366004611743565b610305565b6101a361019e366004611743565b610310565b60405161010b92919061177f565b610127610326565b6101706101c73660046117ba565b6103b4565b6101df6101da36600461143e565b6103bf565b60405161010b9190611851565b6100fe6101fa366004611865565b6103c7565b61013c61020d3660046118b2565b6103d3565b6102346102203660046118f6565b90600f600483811a9081901c821692911690565b604080516001600160e01b0319909416845260ff928316602085015291169082015260600161010b565b6101276103df565b610127610274366004611911565b6103e9565b610127610287366004611570565b61051f565b61029f61029a366004611743565b61052a565b60405161010b92919061193b565b610170610536565b60606102c082610545565b92915050565b6102d13283836106da565b505050565b60006001600160a01b0382166102c0565b60006102c0826107bd565b60606102fe83836107f2565b9392505050565b60606102c08261081e565b6000606061031d836108c5565b91509150915091565b600047116103855760405162461bcd60e51b815260206004820152602160248201527f436f6e747261637420686173206e6f20457468657220746f207472616e7366656044820152603960f91b60648201526084015b60405180910390fd5b60405133904780156108fc02916000818181858888f193505050501580156103b1573d6000803e3d6000fd5b50565b60606102c08261094b565b6000816102c0565b60606102fe83836109af565b60006102fe838361113f565b6103e7611154565b565b6040516370a0823160e01b8152829082906001600160a01b038316906370a0823190610419903090600401611851565b602060405180830381865afa158015610436573d6000803e3d6000fd5b505050506040513d601f19601f8201168201806040525081019061045a9190611960565b10156104a85760405162461bcd60e51b815260206004820181905260248201527f436f6e74726163742068617320696e73756666696369656e7420746f6b656e73604482015260640161037c565b60405163a9059cbb60e01b8152336004820152602481018390526001600160a01b0382169063a9059cbb906044016020604051808303816000875af11580156104f5573d6000803e3d6000fd5b505050506040513d601f19601f820116820180604052508101906105199190611979565b50505050565b6102d132838361116c565b60608061031d8361120e565b6060610540611225565b905090565b606060006105516112c6565b60068101805461ffff191661010117905560008481526003820160205260408120805492935090916105829061199b565b80601f01602080910402602001604051908101604052809291908181526020018280546105ae9061199b565b80156105fb5780601f106105d0576101008083540402835291602001916105fb565b820191906000526020600020905b8154815290600101906020018083116105de57829003601f168201915b5050505050905060008061060e8361120e565b91509150600061061d826108c5565b9450905061062b83826109af565b95506003845110806106425750600685015460ff16155b156106ba576106858660008151811061065d5761065d6119cf565b602002602001015187600181518110610678576106786119cf565b60200260200101516112ea565b855161069a90600187019060208901906113de565b506106a58651611335565b50505050600601805461ff0019169055919050565b6106c486856107f2565b93506106cf8461081e565b505050505050919050565b6000806106e56112c6565b60408051808201825285815260208082018890526005840154600090815260038501909152919091208151929350909181906107219082611a33565b50602082015160018201906107369082611a33565b505050600481018054600181018255600091825260209091200161075a8482611a33565b506001600160a01b03851660009081526002820160209081526040822060058401805482546001810184559285529284209091019190915580549161079e83611b08565b9190505550600181600501546107b49190611b21565b95945050505050565b6000806107c86112c6565b90508060010183815481106107df576107df6119cf565b9060005260206000200154915050919050565b6040518190610807908490839060200161193b565b604051602081830303815290604052905092915050565b6060600061082a6112c6565b60068101805461ffff191661010117905590506000806108498561120e565b915091506000610858826108c5565b965090506007840161086a8782611a33565b5061087583826109af565b945060038651108061088c5750600684015460ff16155b156108a65784516106a590600186019060208801906113de565b6108b085876107f2565b95506108bb8661081e565b5050505050919050565b602081015160608060005b600585516108de9190611b21565b8110156109425781856108f2836005611b34565b81518110610902576109026119cf565b602001015160f81c60f81b60405160200161091e929190611b47565b6040516020818303038152906040529150808061093a90611b08565b9150506108d0565b50919391925050565b606060005b82518110156109a9578183828151811061096c5761096c6119cf565b6020026020010151604051602001610985929190611b76565b604051602081830303815290604052915080806109a190611b08565b915050610950565b50919050565b606081600f600482811a9081901c82169116836000838103610a4f5760408051600481526024810182526020810180516001600160e01b03166001600160e01b0319891617905290513091610a0391611ba5565b6000604051808303816000865af19150503d8060008114610a40576040519150601f19603f3d011682016040523d82523d6000602084013e610a45565b606091505b5092509050610af1565b306001600160a01b03168589604051602401610a6b9190611492565b60408051601f198184030181529181526020820180516001600160e01b03166001600160e01b0319909416939093179092529051610aa99190611ba5565b6000604051808303816000865af19150503d8060008114610ae6576040519150601f19603f3d011682016040523d82523d6000602084013e610aeb565b606091505b50925090505b8260ff16600003610b4b5760408051600180825281830190925260009160208083019080368337019050509050600081600081518110610b3357610b336119cf565b602090810291909101015295506102c0945050505050565b8260ff16600103610be457600082806020019051810190610b6c9190611960565b905060008460ff166001600160401b03811115610b8b57610b8b6114a5565b604051908082528060200260200182016040528015610bb4578160200160208202803683370190505b5090508181600081518110610bcb57610bcb6119cf565b602090810291909101015296506102c095505050505050565b8260ff16600203610cd257610c16604051806040016040528060068152602001654265666f726560d01b81525061137a565b60008083806020019051810190610c2d9190611bc1565b91509150610c3b82826112ea565b60008560ff166001600160401b03811115610c5857610c586114a5565b604051908082528060200260200182016040528015610c81578160200160208202803683370190505b5090508281600081518110610c9857610c986119cf565b6020026020010181815250508181600181518110610cb857610cb86119cf565b602090810291909101015297506102c09650505050505050565b8260ff16600303610db457600080600084806020019051810190610cf69190611be5565b92509250925060008660ff166001600160401b03811115610d1957610d196114a5565b604051908082528060200260200182016040528015610d42578160200160208202803683370190505b5090508381600081518110610d5957610d596119cf565b6020026020010181815250508281600181518110610d7957610d796119cf565b6020026020010181815250508181600281518110610d9957610d996119cf565b602090810291909101015298506102c0975050505050505050565b8260ff16600403610eba5760008060008085806020019051810190610dd99190611c13565b935093509350935060008760ff166001600160401b03811115610dfe57610dfe6114a5565b604051908082528060200260200182016040528015610e27578160200160208202803683370190505b5090508481600081518110610e3e57610e3e6119cf565b6020026020010181815250508381600181518110610e5e57610e5e6119cf565b6020026020010181815250508281600281518110610e7e57610e7e6119cf565b6020026020010181815250508181600381518110610e9e57610e9e6119cf565b602090810291909101015299506102c098505050505050505050565b8260ff16600503610fe557600080600080600086806020019051810190610ee19190611c49565b9450945094509450945060008860ff166001600160401b03811115610f0857610f086114a5565b604051908082528060200260200182016040528015610f31578160200160208202803683370190505b5090508581600081518110610f4857610f486119cf565b6020026020010181815250508481600181518110610f6857610f686119cf565b6020026020010181815250508381600281518110610f8857610f886119cf565b6020026020010181815250508281600381518110610fa857610fa86119cf565b6020026020010181815250508181600481518110610fc857610fc86119cf565b60209081029190910101529a506102c09950505050505050505050565b8260ff16600603611134576000806000806000808780602001905181019061100d9190611c89565b95509550955095509550955060008960ff166001600160401b03811115611036576110366114a5565b60405190808252806020026020018201604052801561105f578160200160208202803683370190505b5090508681600081518110611076576110766119cf565b6020026020010181815250508581600181518110611096576110966119cf565b60200260200101818152505084816002815181106110b6576110b66119cf565b60200260200101818152505083816003815181106110d6576110d66119cf565b60200260200101818152505082816004815181106110f6576110f66119cf565b6020026020010181815250508181600681518110611116576111166119cf565b60209081029190910101529b506102c09a5050505050505050505050565b505050505092915050565b600061114a8361081e565b506102fe826107bd565b600061115e6112c6565b600601805460ff1916905550565b6000806111776112c6565b60408051808201825285815260208082018890526005840154600090815260038501909152919091208151929350909181906111b39082611a33565b50602082015160018201906111c89082611a33565b5050506001600160a01b03851660009081526002820160209081526040822060058401805482546001810184559285529284209091019190915580549161079e83611b08565b6060808280602001905181019061031d9190611d18565b606060006112316112c6565b90508060070180546112429061199b565b80601f016020809104026020016040519081016040528092919081815260200182805461126e9061199b565b80156112bb5780601f10611290576101008083540402835291602001916112bb565b820191906000526020600020905b81548152906001019060200180831161129e57829003601f168201915b505050505091505090565b7f4bc1672041418a922447d83c0efd37e6707ed20ab7e53ca3f20ce1d16cac307590565b60405160248101839052604481018290526113319060640160408051601f198184030181529190526020810180516001600160e01b0316637b3338ad60e11b1790526113b9565b5050565b6103b18160405160240161134b91815260200190565b60408051601f198184030181529190526020810180516001600160e01b031663f82c50f160e01b1790526113b9565b6103b18160405160240161138e9190611730565b60408051601f198184030181529190526020810180516001600160e01b031663104c13eb60e21b1790525b6103b18160006a636f6e736f6c652e6c6f679050600080835160208501845afa505050565b828054828255906000526020600020908101928215611419579160200282015b828111156114195782518255916020019190600101906113fe565b50611425929150611429565b5090565b5b80821115611425576000815560010161142a565b60006020828403121561145057600080fd5b5035919050565b600081518084526020808501945080840160005b838110156114875781518752958201959082019060010161146b565b509495945050505050565b6020815260006102fe6020830184611457565b634e487b7160e01b600052604160045260246000fd5b604051601f8201601f191681016001600160401b03811182821017156114e3576114e36114a5565b604052919050565b60006001600160401b03821115611504576115046114a5565b50601f01601f191660200190565b6000611525611520846114eb565b6114bb565b905082815283838301111561153957600080fd5b828260208301376000602084830101529392505050565b600082601f83011261156157600080fd5b6102fe83833560208501611512565b6000806040838503121561158357600080fd5b82356001600160401b038082111561159a57600080fd5b818501915085601f8301126115ae57600080fd5b6115bd86833560208501611512565b935060208501359150808211156115d357600080fd5b506115e085828601611550565b9150509250929050565b80356001600160a01b038116811461160157600080fd5b919050565b60006020828403121561161857600080fd5b6102fe826115ea565b60006001600160401b0382111561163a5761163a6114a5565b5060051b60200190565b600082601f83011261165557600080fd5b8135602061166561152083611621565b82815260059290921b8401810191818101908684111561168457600080fd5b8286015b8481101561169f5780358352918301918301611688565b509695505050505050565b600080604083850312156116bd57600080fd5b82356001600160401b03808211156116d457600080fd5b6115bd86838701611644565b60005b838110156116fb5781810151838201526020016116e3565b50506000910152565b6000815180845261171c8160208601602086016116e0565b601f01601f19169290920160200192915050565b6020815260006102fe6020830184611704565b60006020828403121561175557600080fd5b81356001600160401b0381111561176b57600080fd5b61177784828501611550565b949350505050565b64ffffffffff60d81b831681526040602082015260006117776040830184611704565b80356001600160d81b03198116811461160157600080fd5b600060208083850312156117cd57600080fd5b82356001600160401b038111156117e357600080fd5b8301601f810185136117f457600080fd5b803561180261152082611621565b81815260059190911b8201830190838101908783111561182157600080fd5b928401925b8284101561184657611837846117a2565b82529284019290840190611826565b979650505050505050565b6001600160a01b0391909116815260200190565b6000806040838503121561187857600080fd5b82356001600160401b0381111561188e57600080fd5b61189a85828601611644565b9250506118a9602084016117a2565b90509250929050565b600080604083850312156118c557600080fd5b82356001600160401b038111156118db57600080fd5b6118e785828601611550565b95602094909401359450505050565b60006020828403121561190857600080fd5b6102fe826117a2565b6000806040838503121561192457600080fd5b61192d836115ea565b946020939093013593505050565b60408152600061194e6040830185611457565b82810360208401526107b48185611704565b60006020828403121561197257600080fd5b5051919050565b60006020828403121561198b57600080fd5b815180151581146102fe57600080fd5b600181811c908216806119af57607f821691505b6020821081036109a957634e487b7160e01b600052602260045260246000fd5b634e487b7160e01b600052603260045260246000fd5b601f8211156102d157600081815260208120601f850160051c81016020861015611a0c5750805b601f850160051c820191505b81811015611a2b57828155600101611a18565b505050505050565b81516001600160401b03811115611a4c57611a4c6114a5565b611a6081611a5a845461199b565b846119e5565b602080601f831160018114611a955760008415611a7d5750858301515b600019600386901b1c1916600185901b178555611a2b565b600085815260208120601f198616915b82811015611ac457888601518255948401946001909101908401611aa5565b5085821015611ae25787850151600019600388901b60f8161c191681555b5050505050600190811b01905550565b634e487b7160e01b600052601160045260246000fd5b600060018201611b1a57611b1a611af2565b5060010190565b818103818111156102c0576102c0611af2565b808201808211156102c0576102c0611af2565b60008351611b598184602088016116e0565b6001600160f81b0319939093169190920190815260010192915050565b60008351611b888184602088016116e0565b6001600160d81b0319939093169190920190815260050192915050565b60008251611bb78184602087016116e0565b9190910192915050565b60008060408385031215611bd457600080fd5b505080516020909101519092909150565b600080600060608486031215611bfa57600080fd5b8351925060208401519150604084015190509250925092565b60008060008060808587031215611c2957600080fd5b505082516020840151604085015160609095015191969095509092509050565b600080600080600060a08688031215611c6157600080fd5b5050835160208501516040860151606087015160809097015192989197509594509092509050565b60008060008060008060c08789031215611ca257600080fd5b865195506020870151945060408701519350606087015192506080870151915060a087015190509295509295509295565b600082601f830112611ce457600080fd5b8151611cf2611520826114eb565b818152846020838601011115611d0757600080fd5b6117778260208301602087016116e0565b60008060408385031215611d2b57600080fd5b82516001600160401b0380821115611d4257600080fd5b818501915085601f830112611d5657600080fd5b81516020611d6661152083611621565b82815260059290921b84018101918181019089841115611d8557600080fd5b948201945b83861015611da357855182529482019490820190611d8a565b91880151919650909350505080821115611dbc57600080fd5b506115e085828601611cd356fea26469706673582212209dccac1a41e2196d0753d2271cb4ed7c92c452923ffac09982a2ab79f7f8e17a64736f6c63430008140033",
  "linkReferences": {},
  "deployedLinkReferences": {}
}