{
  "_format": "hh-sol-artifact-1",
  "contractName": "ManagerFacet",
  "sourceName": "contracts/Facets/ManagerFacet.sol",
  "abi": [
    {
      "inputs": [
        {
          "internalType": "uint256[]",
          "name": "data",
          "type": "uint256[]"
        },
        {
          "internalType": "bytes",
          "name": "packedInfo",
          "type": "bytes"
        }
      ],
      "name": "addDataToFront",
      "outputs": [
        {
          "internalType": "bytes",
          "name": "packedResult",
          "type": "bytes"
        }
      ],
      "stateMutability": "pure",
      "type": "function"
    },
    {
      "inputs": [
        {
          "internalType": "address",
          "name": "a",
          "type": "address"
        }
      ],
      "name": "convertAddyToNum",
      "outputs": [
        {
          "internalType": "uint256",
          "name": "",
          "type": "uint256"
        }
      ],
      "stateMutability": "pure",
      "type": "function"
    },
    {
      "inputs": [
        {
          "internalType": "bytes5[]",
          "name": "data",
          "type": "bytes5[]"
        }
      ],
      "name": "convertBytes5ArrayToBytes",
      "outputs": [
        {
          "internalType": "bytes",
          "name": "res",
          "type": "bytes"
        }
      ],
      "stateMutability": "pure",
      "type": "function"
    },
    {
      "inputs": [
        {
          "internalType": "uint256",
          "name": "a",
          "type": "uint256"
        }
      ],
      "name": "convertNumToAddy",
      "outputs": [
        {
          "internalType": "address",
          "name": "",
          "type": "address"
        }
      ],
      "stateMutability": "pure",
      "type": "function"
    },
    {
      "inputs": [
        {
          "internalType": "string",
          "name": "description",
          "type": "string"
        },
        {
          "internalType": "bytes",
          "name": "dataFlow",
          "type": "bytes"
        }
      ],
      "name": "createNewFlow",
      "outputs": [],
      "stateMutability": "nonpayable",
      "type": "function"
    },
    {
      "inputs": [
        {
          "internalType": "string",
          "name": "description",
          "type": "string"
        },
        {
          "internalType": "bytes",
          "name": "dataFlow",
          "type": "bytes"
        }
      ],
      "name": "createNewHookFlow",
      "outputs": [],
      "stateMutability": "nonpayable",
      "type": "function"
    },
    {
      "inputs": [
        {
          "internalType": "uint256[]",
          "name": "inputs",
          "type": "uint256[]"
        },
        {
          "internalType": "bytes5",
          "name": "instruction",
          "type": "bytes5"
        }
      ],
      "name": "executeInstruction",
      "outputs": [
        {
          "internalType": "uint256[]",
          "name": "outPuts",
          "type": "uint256[]"
        }
      ],
      "stateMutability": "nonpayable",
      "type": "function"
    },
    {
      "inputs": [
        {
          "internalType": "uint256",
          "name": "index",
          "type": "uint256"
        }
      ],
      "name": "getLastResult",
      "outputs": [
        {
          "internalType": "uint256",
          "name": "",
          "type": "uint256"
        }
      ],
      "stateMutability": "view",
      "type": "function"
    },
    {
      "inputs": [
        {
          "internalType": "bytes5",
          "name": "data",
          "type": "bytes5"
        }
      ],
      "name": "parseInstruction",
      "outputs": [
        {
          "internalType": "bytes4",
          "name": "selector",
          "type": "bytes4"
        },
        {
          "internalType": "uint8",
          "name": "inp",
          "type": "uint8"
        },
        {
          "internalType": "uint8",
          "name": "out",
          "type": "uint8"
        }
      ],
      "stateMutability": "pure",
      "type": "function"
    },
    {
      "inputs": [
        {
          "internalType": "bytes",
          "name": "dataFlow",
          "type": "bytes"
        },
        {
          "internalType": "uint256",
          "name": "index",
          "type": "uint256"
        }
      ],
      "name": "parseLastResultAndExecute",
      "outputs": [
        {
          "internalType": "uint256",
          "name": "",
          "type": "uint256"
        }
      ],
      "stateMutability": "nonpayable",
      "type": "function"
    },
    {
      "inputs": [
        {
          "internalType": "bytes",
          "name": "data",
          "type": "bytes"
        }
      ],
      "name": "readData",
      "outputs": [
        {
          "internalType": "uint256[]",
          "name": "",
          "type": "uint256[]"
        },
        {
          "internalType": "bytes",
          "name": "",
          "type": "bytes"
        }
      ],
      "stateMutability": "pure",
      "type": "function"
    },
    {
      "inputs": [
        {
          "internalType": "bytes",
          "name": "dataFlow",
          "type": "bytes"
        }
      ],
      "name": "startWorking",
      "outputs": [
        {
          "internalType": "uint256[]",
          "name": "finalOutputs",
          "type": "uint256[]"
        }
      ],
      "stateMutability": "nonpayable",
      "type": "function"
    },
    {
      "inputs": [
        {
          "internalType": "uint256",
          "name": "id",
          "type": "uint256"
        }
      ],
      "name": "startWorkingFromID",
      "outputs": [
        {
          "internalType": "uint256[]",
          "name": "finalOutputs",
          "type": "uint256[]"
        }
      ],
      "stateMutability": "nonpayable",
      "type": "function"
    },
    {
      "inputs": [
        {
          "internalType": "bytes",
          "name": "packed",
          "type": "bytes"
        }
      ],
      "name": "testDecodePacked",
      "outputs": [
        {
          "internalType": "bytes5",
          "name": "info",
          "type": "bytes5"
        },
        {
          "internalType": "bytes",
          "name": "",
          "type": "bytes"
        }
      ],
      "stateMutability": "pure",
      "type": "function"
    }
  ],
  "bytecode": "0x608060405234801561001057600080fd5b506115a1806100206000396000f3fe608060405234801561001057600080fd5b50600436106100ba5760003560e01c80631bc7503c146100bf5780631d176049146100e8578063241d28eb146100fd57806326837dfb1461011e5780632cc72a621461013157806364b0aab3146101515780636a3504c61461016457806381b1b8cc146101855780638c2519ac146101985780638e146b51146101c35780638ea8c146146101d657806396456d92146101e9578063c067164414610235578063cca12a5914610248575b600080fd5b6100d26100cd366004610d09565b610269565b6040516100df9190610d5d565b60405180910390f35b6100fb6100f6366004610e3b565b61027a565b005b61011061010b366004610eb5565b61028a565b6040519081526020016100df565b61011061012c366004610d09565b61029b565b61014461013f366004610f67565b6102a6565b6040516100df9190610fed565b6100d261015f366004611000565b6102b9565b610177610172366004611000565b6102c4565b6040516100df92919061103c565b61014461019336600461107c565b6102da565b6101ab6101a6366004610d09565b6102e5565b6040516001600160a01b0390911681526020016100df565b6100d26101d1366004611113565b6102ed565b6101106101e4366004611160565b6102f9565b61020b6101f73660046111a4565b90600f600483811a9081901c821692911690565b604080516001600160e01b0319909416845260ff92831660208501529116908201526060016100df565b6100fb610243366004610e3b565b610305565b61025b610256366004611000565b610310565b6040516100df9291906111bf565b60606102748261031c565b92915050565b610285328383610485565b505050565b60006001600160a01b038216610274565b600061027482610568565b60606102b2838361059d565b9392505050565b6060610274826105c9565b600060606102d183610636565b91509150915091565b6060610274826106bc565b600081610274565b60606102b28383610720565b60006102b28383610aff565b610285328383610b14565b6060806102d183610bb6565b60606000610328610bcd565b6000848152600382016020526040812080549293509091610348906111e4565b80601f0160208091040260200160405190810160405280929190818152602001828054610374906111e4565b80156103c15780601f10610396576101008083540402835291602001916103c1565b820191906000526020600020905b8154815290600101906020018083116103a457829003601f168201915b505050505090506000806103d483610bb6565b9150915060006103e382610636565b945090506103f18382610720565b95506003845110156104655761043b8660008151811061041357610413611218565b60200260200101518760018151811061042e5761042e611218565b6020026020010151610bf1565b85516104509060018701906020890190610ca9565b5061045b8651610c3c565b5050505050919050565b61046f868561059d565b935061047a846105c9565b505050505050919050565b600080610490610bcd565b60408051808201825285815260208082018890526005840154600090815260038501909152919091208151929350909181906104cc908261127c565b50602082015160018201906104e1908261127c565b5050506004810180546001810182556000918252602090912001610505848261127c565b506001600160a01b03851660009081526002820160209081526040822060058401805482546001810184559285529284209091019190915580549161054983611351565b91905055506001816005015461055f919061136a565b95945050505050565b600080610573610bcd565b905080600101838154811061058a5761058a611218565b9060005260206000200154915050919050565b60405181906105b290849083906020016111bf565b604051602081830303815290604052905092915050565b60606000806105d784610bb6565b9150915060006105e5610bcd565b905060006105f283610636565b965090506106008482610720565b945060038651101561062157845161045b9060018401906020880190610ca9565b61062b858761059d565b955061045b866105c9565b602081015160608060005b6005855161064f919061136a565b8110156106b357818561066383600561137d565b8151811061067357610673611218565b602001015160f81c60f81b60405160200161068f929190611390565b604051602081830303815290604052915080806106ab90611351565b915050610641565b50919391925050565b606060005b825181101561071a57818382815181106106dd576106dd611218565b60200260200101516040516020016106f69291906113bf565b6040516020818303038152906040529150808061071290611351565b9150506106c1565b50919050565b606081600f600482811a9081901c821691168360008381036107c05760408051600481526024810182526020810180516001600160e01b03166001600160e01b0319891617905290513091610774916113ee565b6000604051808303816000865af19150503d80600081146107b1576040519150601f19603f3d011682016040523d82523d6000602084013e6107b6565b606091505b5092509050610862565b306001600160a01b031685896040516024016107dc9190610d5d565b60408051601f198184030181529181526020820180516001600160e01b03166001600160e01b031990941693909317909252905161081a91906113ee565b6000604051808303816000865af19150503d8060008114610857576040519150601f19603f3d011682016040523d82523d6000602084013e61085c565b606091505b50925090505b8260ff166000036108bc57604080516001808252818301909252600091602080830190803683370190505090506000816000815181106108a4576108a4611218565b60209081029190910101529550610274945050505050565b8260ff16600103610955576000828060200190518101906108dd919061140a565b905060008460ff166001600160401b038111156108fc576108fc610d70565b604051908082528060200260200182016040528015610925578160200160208202803683370190505b509050818160008151811061093c5761093c611218565b6020908102919091010152965061027495505050505050565b8260ff16600203610a1257600080838060200190518101906109779190611423565b9150915060008560ff166001600160401b0381111561099857610998610d70565b6040519080825280602002602001820160405280156109c1578160200160208202803683370190505b50905082816000815181106109d8576109d8611218565b60200260200101818152505081816001815181106109f8576109f8611218565b602090810291909101015297506102749650505050505050565b8260ff16600303610af457600080600084806020019051810190610a369190611447565b92509250925060008660ff166001600160401b03811115610a5957610a59610d70565b604051908082528060200260200182016040528015610a82578160200160208202803683370190505b5090508381600081518110610a9957610a99611218565b6020026020010181815250508281600181518110610ab957610ab9611218565b6020026020010181815250508181600281518110610ad957610ad9611218565b60209081029190910101529850610274975050505050505050565b505050505092915050565b6000610b0a836105c9565b506102b282610568565b600080610b1f610bcd565b6040805180820182528581526020808201889052600584015460009081526003850190915291909120815192935090918190610b5b908261127c565b5060208201516001820190610b70908261127c565b5050506001600160a01b03851660009081526002820160209081526040822060058401805482546001810184559285529284209091019190915580549161054983611351565b606080828060200190518101906102d191906114ba565b7f4bc1672041418a922447d83c0efd37e6707ed20ab7e53ca3f20ce1d16cac307590565b6040516024810183905260448101829052610c389060640160408051601f198184030181529190526020810180516001600160e01b0316637b3338ad60e11b179052610c84565b5050565b610c8181604051602401610c5291815260200190565b60408051601f198184030181529190526020810180516001600160e01b031663f82c50f160e01b179052610c84565b50565b610c818160006a636f6e736f6c652e6c6f679050600080835160208501845afa505050565b828054828255906000526020600020908101928215610ce4579160200282015b82811115610ce4578251825591602001919060010190610cc9565b50610cf0929150610cf4565b5090565b5b80821115610cf05760008155600101610cf5565b600060208284031215610d1b57600080fd5b5035919050565b600081518084526020808501945080840160005b83811015610d5257815187529582019590820190600101610d36565b509495945050505050565b6020815260006102b26020830184610d22565b634e487b7160e01b600052604160045260246000fd5b604051601f8201601f191681016001600160401b0381118282101715610dae57610dae610d70565b604052919050565b60006001600160401b03821115610dcf57610dcf610d70565b50601f01601f191660200190565b6000610df0610deb84610db6565b610d86565b9050828152838383011115610e0457600080fd5b828260208301376000602084830101529392505050565b600082601f830112610e2c57600080fd5b6102b283833560208501610ddd565b60008060408385031215610e4e57600080fd5b82356001600160401b0380821115610e6557600080fd5b818501915085601f830112610e7957600080fd5b610e8886833560208501610ddd565b93506020850135915080821115610e9e57600080fd5b50610eab85828601610e1b565b9150509250929050565b600060208284031215610ec757600080fd5b81356001600160a01b03811681146102b257600080fd5b60006001600160401b03821115610ef757610ef7610d70565b5060051b60200190565b600082601f830112610f1257600080fd5b81356020610f22610deb83610ede565b82815260059290921b84018101918181019086841115610f4157600080fd5b8286015b84811015610f5c5780358352918301918301610f45565b509695505050505050565b60008060408385031215610f7a57600080fd5b82356001600160401b0380821115610f9157600080fd5b610e8886838701610f01565b60005b83811015610fb8578181015183820152602001610fa0565b50506000910152565b60008151808452610fd9816020860160208601610f9d565b601f01601f19169290920160200192915050565b6020815260006102b26020830184610fc1565b60006020828403121561101257600080fd5b81356001600160401b0381111561102857600080fd5b61103484828501610e1b565b949350505050565b64ffffffffff60d81b831681526040602082015260006110346040830184610fc1565b80356001600160d81b03198116811461107757600080fd5b919050565b6000602080838503121561108f57600080fd5b82356001600160401b038111156110a557600080fd5b8301601f810185136110b657600080fd5b80356110c4610deb82610ede565b81815260059190911b820183019083810190878311156110e357600080fd5b928401925b82841015611108576110f98461105f565b825292840192908401906110e8565b979650505050505050565b6000806040838503121561112657600080fd5b82356001600160401b0381111561113c57600080fd5b61114885828601610f01565b9250506111576020840161105f565b90509250929050565b6000806040838503121561117357600080fd5b82356001600160401b0381111561118957600080fd5b61119585828601610e1b565b95602094909401359450505050565b6000602082840312156111b657600080fd5b6102b28261105f565b6040815260006111d26040830185610d22565b828103602084015261055f8185610fc1565b600181811c908216806111f857607f821691505b60208210810361071a57634e487b7160e01b600052602260045260246000fd5b634e487b7160e01b600052603260045260246000fd5b601f82111561028557600081815260208120601f850160051c810160208610156112555750805b601f850160051c820191505b8181101561127457828155600101611261565b505050505050565b81516001600160401b0381111561129557611295610d70565b6112a9816112a384546111e4565b8461122e565b602080601f8311600181146112de57600084156112c65750858301515b600019600386901b1c1916600185901b178555611274565b600085815260208120601f198616915b8281101561130d578886015182559484019460019091019084016112ee565b508582101561132b5787850151600019600388901b60f8161c191681555b5050505050600190811b01905550565b634e487b7160e01b600052601160045260246000fd5b6000600182016113635761136361133b565b5060010190565b818103818111156102745761027461133b565b808201808211156102745761027461133b565b600083516113a2818460208801610f9d565b6001600160f81b0319939093169190920190815260010192915050565b600083516113d1818460208801610f9d565b6001600160d81b0319939093169190920190815260050192915050565b60008251611400818460208701610f9d565b9190910192915050565b60006020828403121561141c57600080fd5b5051919050565b6000806040838503121561143657600080fd5b505080516020909101519092909150565b60008060006060848603121561145c57600080fd5b8351925060208401519150604084015190509250925092565b600082601f83011261148657600080fd5b8151611494610deb82610db6565b8181528460208386010111156114a957600080fd5b611034826020830160208701610f9d565b600080604083850312156114cd57600080fd5b82516001600160401b03808211156114e457600080fd5b818501915085601f8301126114f857600080fd5b81516020611508610deb83610ede565b82815260059290921b8401810191818101908984111561152757600080fd5b948201945b838610156115455785518252948201949082019061152c565b9188015191965090935050508082111561155e57600080fd5b50610eab8582860161147556fea2646970667358221220384928f9203e96bac123fa9a7a0a46396206ca1cb5600e9f143c1342b70931b264736f6c63430008140033",
  "linkReferences": {},
  "deployedLinkReferences": {}
}