{
  "_format": "hh-sol-artifact-1",
  "contractName": "ManagerFacet",
  "sourceName": "contracts/Facets/ManagerFacet.sol",
  "abi": [
    {
      "inputs": [
        {
          "internalType": "uint256[]",
          "name": "data",
          "type": "uint256[]"
        },
        {
          "internalType": "bytes",
          "name": "packedInfo",
          "type": "bytes"
        }
      ],
      "name": "addDataToFront",
      "outputs": [
        {
          "internalType": "bytes",
          "name": "packedResult",
          "type": "bytes"
        }
      ],
      "stateMutability": "pure",
      "type": "function"
    },
    {
      "inputs": [
        {
          "internalType": "address",
          "name": "a",
          "type": "address"
        }
      ],
      "name": "convertAddyToNum",
      "outputs": [
        {
          "internalType": "uint256",
          "name": "",
          "type": "uint256"
        }
      ],
      "stateMutability": "pure",
      "type": "function"
    },
    {
      "inputs": [
        {
          "internalType": "bytes5[]",
          "name": "data",
          "type": "bytes5[]"
        }
      ],
      "name": "convertBytes5ArrayToBytes",
      "outputs": [
        {
          "internalType": "bytes",
          "name": "res",
          "type": "bytes"
        }
      ],
      "stateMutability": "pure",
      "type": "function"
    },
    {
      "inputs": [
        {
          "internalType": "uint256",
          "name": "a",
          "type": "uint256"
        }
      ],
      "name": "convertNumToAddy",
      "outputs": [
        {
          "internalType": "address",
          "name": "",
          "type": "address"
        }
      ],
      "stateMutability": "pure",
      "type": "function"
    },
    {
      "inputs": [
        {
          "internalType": "string",
          "name": "description",
          "type": "string"
        },
        {
          "internalType": "bytes",
          "name": "dataFlow",
          "type": "bytes"
        }
      ],
      "name": "createNewFlow",
      "outputs": [],
      "stateMutability": "nonpayable",
      "type": "function"
    },
    {
      "inputs": [
        {
          "internalType": "string",
          "name": "description",
          "type": "string"
        },
        {
          "internalType": "bytes",
          "name": "dataFlow",
          "type": "bytes"
        }
      ],
      "name": "createNewHookFlow",
      "outputs": [],
      "stateMutability": "nonpayable",
      "type": "function"
    },
    {
      "inputs": [
        {
          "internalType": "uint256[]",
          "name": "inputs",
          "type": "uint256[]"
        },
        {
          "internalType": "bytes5",
          "name": "instruction",
          "type": "bytes5"
        }
      ],
      "name": "executeInstruction",
      "outputs": [
        {
          "internalType": "uint256[]",
          "name": "outPuts",
          "type": "uint256[]"
        }
      ],
      "stateMutability": "nonpayable",
      "type": "function"
    },
    {
      "inputs": [
        {
          "internalType": "uint256",
          "name": "index",
          "type": "uint256"
        }
      ],
      "name": "getLastResult",
      "outputs": [
        {
          "internalType": "uint256",
          "name": "",
          "type": "uint256"
        }
      ],
      "stateMutability": "view",
      "type": "function"
    },
    {
      "inputs": [
        {
          "internalType": "bytes5",
          "name": "data",
          "type": "bytes5"
        }
      ],
      "name": "parseInstruction",
      "outputs": [
        {
          "internalType": "bytes4",
          "name": "selector",
          "type": "bytes4"
        },
        {
          "internalType": "uint8",
          "name": "inp",
          "type": "uint8"
        },
        {
          "internalType": "uint8",
          "name": "out",
          "type": "uint8"
        }
      ],
      "stateMutability": "pure",
      "type": "function"
    },
    {
      "inputs": [
        {
          "internalType": "bytes",
          "name": "dataFlow",
          "type": "bytes"
        },
        {
          "internalType": "uint256",
          "name": "index",
          "type": "uint256"
        }
      ],
      "name": "parseLastResultAndExecute",
      "outputs": [
        {
          "internalType": "uint256",
          "name": "",
          "type": "uint256"
        }
      ],
      "stateMutability": "nonpayable",
      "type": "function"
    },
    {
      "inputs": [
        {
          "internalType": "bytes",
          "name": "data",
          "type": "bytes"
        }
      ],
      "name": "readData",
      "outputs": [
        {
          "internalType": "uint256[]",
          "name": "",
          "type": "uint256[]"
        },
        {
          "internalType": "bytes",
          "name": "",
          "type": "bytes"
        }
      ],
      "stateMutability": "pure",
      "type": "function"
    },
    {
      "inputs": [
        {
          "internalType": "bytes",
          "name": "dataFlow",
          "type": "bytes"
        }
      ],
      "name": "startWorking",
      "outputs": [
        {
          "internalType": "uint256[]",
          "name": "finalOutputs",
          "type": "uint256[]"
        }
      ],
      "stateMutability": "nonpayable",
      "type": "function"
    },
    {
      "inputs": [
        {
          "internalType": "uint256",
          "name": "id",
          "type": "uint256"
        }
      ],
      "name": "startWorkingFromID",
      "outputs": [
        {
          "internalType": "uint256[]",
          "name": "finalOutputs",
          "type": "uint256[]"
        }
      ],
      "stateMutability": "nonpayable",
      "type": "function"
    },
    {
      "inputs": [],
      "name": "stopExecution",
      "outputs": [],
      "stateMutability": "nonpayable",
      "type": "function"
    },
    {
      "inputs": [
        {
          "internalType": "bytes",
          "name": "packed",
          "type": "bytes"
        }
      ],
      "name": "testDecodePacked",
      "outputs": [
        {
          "internalType": "bytes5",
          "name": "info",
          "type": "bytes5"
        },
        {
          "internalType": "bytes",
          "name": "",
          "type": "bytes"
        }
      ],
      "stateMutability": "pure",
      "type": "function"
    }
  ],
  "bytecode": "0x608060405234801561001057600080fd5b5061169d806100206000396000f3fe608060405234801561001057600080fd5b50600436106100c55760003560e01c80631bc7503c146100ca5780631d176049146100f3578063241d28eb1461010857806326837dfb146101295780632cc72a621461013c57806364b0aab31461015c5780636a3504c61461016f57806381b1b8cc146101905780638c2519ac146101a35780638e146b51146101ce5780638ea8c146146101e157806396456d92146101f457806397a0259d14610240578063c067164414610248578063cca12a591461025b575b600080fd5b6100dd6100d8366004610e05565b61027c565b6040516100ea9190610e59565b60405180910390f35b610106610101366004610f37565b61028d565b005b61011b610116366004610fb1565b61029d565b6040519081526020016100ea565b61011b610137366004610e05565b6102ae565b61014f61014a366004611063565b6102b9565b6040516100ea91906110e9565b6100dd61016a3660046110fc565b6102cc565b61018261017d3660046110fc565b6102d7565b6040516100ea929190611138565b61014f61019e366004611178565b6102ed565b6101b66101b1366004610e05565b6102f8565b6040516001600160a01b0390911681526020016100ea565b6100dd6101dc36600461120f565b610300565b61011b6101ef36600461125c565b61030c565b6102166102023660046112a0565b90600f600483811a9081901c821692911690565b604080516001600160e01b0319909416845260ff92831660208501529116908201526060016100ea565b610106610318565b610106610256366004610f37565b610322565b61026e6102693660046110fc565b61032d565b6040516100ea9291906112bb565b606061028782610339565b92915050565b6102983283836104ce565b505050565b60006001600160a01b038216610287565b6000610287826105b1565b60606102c583836105e6565b9392505050565b606061028782610612565b600060606102e4836106aa565b91509150915091565b606061028782610730565b600081610287565b60606102c58383610794565b60006102c58383610ba4565b610320610bb9565b565b610298328383610bd1565b6060806102e483610c73565b60606000610345610c8a565b60068101805461ffff19166101011790556000848152600382016020526040812080549293509091610376906112e0565b80601f01602080910402602001604051908101604052809291908181526020018280546103a2906112e0565b80156103ef5780601f106103c4576101008083540402835291602001916103ef565b820191906000526020600020905b8154815290600101906020018083116103d257829003601f168201915b5050505050905060008061040283610c73565b915091506000610411826106aa565b9450905061041f8382610794565b95506003845110806104365750600685015460ff16155b156104ae576104798660008151811061045157610451611314565b60200260200101518760018151811061046c5761046c611314565b6020026020010151610cae565b855161048e9060018701906020890190610da5565b506104998651610cf9565b50505050600601805461ff0019169055919050565b6104b886856105e6565b93506104c384610612565b505050505050919050565b6000806104d9610c8a565b60408051808201825285815260208082018890526005840154600090815260038501909152919091208151929350909181906105159082611378565b506020820151600182019061052a9082611378565b505050600481018054600181018255600091825260209091200161054e8482611378565b506001600160a01b0385166000908152600282016020908152604082206005840180548254600181018455928552928420909101919091558054916105928361144d565b9190505550600181600501546105a89190611466565b95945050505050565b6000806105bc610c8a565b90508060010183815481106105d3576105d3611314565b9060005260206000200154915050919050565b60405181906105fb90849083906020016112bb565b604051602081830303815290604052905092915050565b6060600061061e610c8a565b60068101805461ffff1916610101179055905060008061063d85610c73565b91509150600061064c826106aa565b9650905061065a8382610794565b94506003865110806106715750600684015460ff16155b1561068b5784516104999060018601906020880190610da5565b61069585876105e6565b95506106a086610612565b5050505050919050565b602081015160608060005b600585516106c39190611466565b8110156107275781856106d7836005611479565b815181106106e7576106e7611314565b602001015160f81c60f81b60405160200161070392919061148c565b6040516020818303038152906040529150808061071f9061144d565b9150506106b5565b50919391925050565b606060005b825181101561078e578183828151811061075157610751611314565b602002602001015160405160200161076a9291906114bb565b604051602081830303815290604052915080806107869061144d565b915050610735565b50919050565b606081600f600482811a9081901c821691168360008381036108345760408051600481526024810182526020810180516001600160e01b03166001600160e01b03198916179052905130916107e8916114ea565b6000604051808303816000865af19150503d8060008114610825576040519150601f19603f3d011682016040523d82523d6000602084013e61082a565b606091505b50925090506108d6565b306001600160a01b031685896040516024016108509190610e59565b60408051601f198184030181529181526020820180516001600160e01b03166001600160e01b031990941693909317909252905161088e91906114ea565b6000604051808303816000865af19150503d80600081146108cb576040519150601f19603f3d011682016040523d82523d6000602084013e6108d0565b606091505b50925090505b8260ff16600003610930576040805160018082528183019092526000916020808301908036833701905050905060008160008151811061091857610918611314565b60209081029190910101529550610287945050505050565b8260ff166001036109c9576000828060200190518101906109519190611506565b905060008460ff166001600160401b0381111561097057610970610e6c565b604051908082528060200260200182016040528015610999578160200160208202803683370190505b50905081816000815181106109b0576109b0611314565b6020908102919091010152965061028795505050505050565b8260ff16600203610ab7576109fb604051806040016040528060068152602001654265666f726560d01b815250610d41565b60008083806020019051810190610a12919061151f565b91509150610a208282610cae565b60008560ff166001600160401b03811115610a3d57610a3d610e6c565b604051908082528060200260200182016040528015610a66578160200160208202803683370190505b5090508281600081518110610a7d57610a7d611314565b6020026020010181815250508181600181518110610a9d57610a9d611314565b602090810291909101015297506102879650505050505050565b8260ff16600303610b9957600080600084806020019051810190610adb9190611543565b92509250925060008660ff166001600160401b03811115610afe57610afe610e6c565b604051908082528060200260200182016040528015610b27578160200160208202803683370190505b5090508381600081518110610b3e57610b3e611314565b6020026020010181815250508281600181518110610b5e57610b5e611314565b6020026020010181815250508181600281518110610b7e57610b7e611314565b60209081029190910101529850610287975050505050505050565b505050505092915050565b6000610baf83610612565b506102c5826105b1565b6000610bc3610c8a565b600601805460ff1916905550565b600080610bdc610c8a565b6040805180820182528581526020808201889052600584015460009081526003850190915291909120815192935090918190610c189082611378565b5060208201516001820190610c2d9082611378565b5050506001600160a01b0385166000908152600282016020908152604082206005840180548254600181018455928552928420909101919091558054916105928361144d565b606080828060200190518101906102e491906115b6565b7f4bc1672041418a922447d83c0efd37e6707ed20ab7e53ca3f20ce1d16cac307590565b6040516024810183905260448101829052610cf59060640160408051601f198184030181529190526020810180516001600160e01b0316637b3338ad60e11b179052610d80565b5050565b610d3e81604051602401610d0f91815260200190565b60408051601f198184030181529190526020810180516001600160e01b031663f82c50f160e01b179052610d80565b50565b610d3e81604051602401610d5591906110e9565b60408051601f198184030181529190526020810180516001600160e01b031663104c13eb60e21b1790525b610d3e8160006a636f6e736f6c652e6c6f679050600080835160208501845afa505050565b828054828255906000526020600020908101928215610de0579160200282015b82811115610de0578251825591602001919060010190610dc5565b50610dec929150610df0565b5090565b5b80821115610dec5760008155600101610df1565b600060208284031215610e1757600080fd5b5035919050565b600081518084526020808501945080840160005b83811015610e4e57815187529582019590820190600101610e32565b509495945050505050565b6020815260006102c56020830184610e1e565b634e487b7160e01b600052604160045260246000fd5b604051601f8201601f191681016001600160401b0381118282101715610eaa57610eaa610e6c565b604052919050565b60006001600160401b03821115610ecb57610ecb610e6c565b50601f01601f191660200190565b6000610eec610ee784610eb2565b610e82565b9050828152838383011115610f0057600080fd5b828260208301376000602084830101529392505050565b600082601f830112610f2857600080fd5b6102c583833560208501610ed9565b60008060408385031215610f4a57600080fd5b82356001600160401b0380821115610f6157600080fd5b818501915085601f830112610f7557600080fd5b610f8486833560208501610ed9565b93506020850135915080821115610f9a57600080fd5b50610fa785828601610f17565b9150509250929050565b600060208284031215610fc357600080fd5b81356001600160a01b03811681146102c557600080fd5b60006001600160401b03821115610ff357610ff3610e6c565b5060051b60200190565b600082601f83011261100e57600080fd5b8135602061101e610ee783610fda565b82815260059290921b8401810191818101908684111561103d57600080fd5b8286015b848110156110585780358352918301918301611041565b509695505050505050565b6000806040838503121561107657600080fd5b82356001600160401b038082111561108d57600080fd5b610f8486838701610ffd565b60005b838110156110b457818101518382015260200161109c565b50506000910152565b600081518084526110d5816020860160208601611099565b601f01601f19169290920160200192915050565b6020815260006102c560208301846110bd565b60006020828403121561110e57600080fd5b81356001600160401b0381111561112457600080fd5b61113084828501610f17565b949350505050565b64ffffffffff60d81b8316815260406020820152600061113060408301846110bd565b80356001600160d81b03198116811461117357600080fd5b919050565b6000602080838503121561118b57600080fd5b82356001600160401b038111156111a157600080fd5b8301601f810185136111b257600080fd5b80356111c0610ee782610fda565b81815260059190911b820183019083810190878311156111df57600080fd5b928401925b82841015611204576111f58461115b565b825292840192908401906111e4565b979650505050505050565b6000806040838503121561122257600080fd5b82356001600160401b0381111561123857600080fd5b61124485828601610ffd565b9250506112536020840161115b565b90509250929050565b6000806040838503121561126f57600080fd5b82356001600160401b0381111561128557600080fd5b61129185828601610f17565b95602094909401359450505050565b6000602082840312156112b257600080fd5b6102c58261115b565b6040815260006112ce6040830185610e1e565b82810360208401526105a881856110bd565b600181811c908216806112f457607f821691505b60208210810361078e57634e487b7160e01b600052602260045260246000fd5b634e487b7160e01b600052603260045260246000fd5b601f82111561029857600081815260208120601f850160051c810160208610156113515750805b601f850160051c820191505b818110156113705782815560010161135d565b505050505050565b81516001600160401b0381111561139157611391610e6c565b6113a58161139f84546112e0565b8461132a565b602080601f8311600181146113da57600084156113c25750858301515b600019600386901b1c1916600185901b178555611370565b600085815260208120601f198616915b82811015611409578886015182559484019460019091019084016113ea565b50858210156114275787850151600019600388901b60f8161c191681555b5050505050600190811b01905550565b634e487b7160e01b600052601160045260246000fd5b60006001820161145f5761145f611437565b5060010190565b8181038181111561028757610287611437565b8082018082111561028757610287611437565b6000835161149e818460208801611099565b6001600160f81b0319939093169190920190815260010192915050565b600083516114cd818460208801611099565b6001600160d81b0319939093169190920190815260050192915050565b600082516114fc818460208701611099565b9190910192915050565b60006020828403121561151857600080fd5b5051919050565b6000806040838503121561153257600080fd5b505080516020909101519092909150565b60008060006060848603121561155857600080fd5b8351925060208401519150604084015190509250925092565b600082601f83011261158257600080fd5b8151611590610ee782610eb2565b8181528460208386010111156115a557600080fd5b611130826020830160208701611099565b600080604083850312156115c957600080fd5b82516001600160401b03808211156115e057600080fd5b818501915085601f8301126115f457600080fd5b81516020611604610ee783610fda565b82815260059290921b8401810191818101908984111561162357600080fd5b948201945b8386101561164157855182529482019490820190611628565b9188015191965090935050508082111561165a57600080fd5b50610fa78582860161157156fea2646970667358221220f0efc3e09023e7ab0dd6555d293443b3748297e88aed9f1c3b4e7ee58bcd813a64736f6c63430008140033",
  "linkReferences": {},
  "deployedLinkReferences": {}
}