{
  "_format": "hh-sol-artifact-1",
  "contractName": "PoolManager",
  "sourceName": "@uniswap/v4-core/contracts/PoolManager.sol",
  "abi": [
    {
      "inputs": [
        {
          "internalType": "uint256",
          "name": "controllerGasLimit",
          "type": "uint256"
        }
      ],
      "stateMutability": "nonpayable",
      "type": "constructor"
    },
    {
      "inputs": [],
      "name": "CannotUpdateEmptyPosition",
      "type": "error"
    },
    {
      "inputs": [],
      "name": "CurrenciesInitializedOutOfOrder",
      "type": "error"
    },
    {
      "inputs": [],
      "name": "CurrencyNotSettled",
      "type": "error"
    },
    {
      "inputs": [],
      "name": "DelegateCallNotAllowed",
      "type": "error"
    },
    {
      "inputs": [],
      "name": "ERC20TransferFailed",
      "type": "error"
    },
    {
      "inputs": [],
      "name": "FeeTooLarge",
      "type": "error"
    },
    {
      "inputs": [
        {
          "internalType": "address",
          "name": "hooks",
          "type": "address"
        }
      ],
      "name": "HookAddressNotValid",
      "type": "error"
    },
    {
      "inputs": [],
      "name": "InvalidCaller",
      "type": "error"
    },
    {
      "inputs": [],
      "name": "InvalidHookResponse",
      "type": "error"
    },
    {
      "inputs": [],
      "name": "InvalidSqrtRatio",
      "type": "error"
    },
    {
      "inputs": [],
      "name": "InvalidTick",
      "type": "error"
    },
    {
      "inputs": [
        {
          "internalType": "address",
          "name": "locker",
          "type": "address"
        }
      ],
      "name": "LockedBy",
      "type": "error"
    },
    {
      "inputs": [],
      "name": "MaxCurrenciesTouched",
      "type": "error"
    },
    {
      "inputs": [],
      "name": "NativeTransferFailed",
      "type": "error"
    },
    {
      "inputs": [],
      "name": "NoLiquidityToReceiveFees",
      "type": "error"
    },
    {
      "inputs": [],
      "name": "NotPoolManagerToken",
      "type": "error"
    },
    {
      "inputs": [],
      "name": "PoolAlreadyInitialized",
      "type": "error"
    },
    {
      "inputs": [],
      "name": "PoolNotInitialized",
      "type": "error"
    },
    {
      "inputs": [
        {
          "internalType": "uint160",
          "name": "sqrtPriceCurrentX96",
          "type": "uint160"
        },
        {
          "internalType": "uint160",
          "name": "sqrtPriceLimitX96",
          "type": "uint160"
        }
      ],
      "name": "PriceLimitAlreadyExceeded",
      "type": "error"
    },
    {
      "inputs": [
        {
          "internalType": "uint160",
          "name": "sqrtPriceLimitX96",
          "type": "uint160"
        }
      ],
      "name": "PriceLimitOutOfBounds",
      "type": "error"
    },
    {
      "inputs": [],
      "name": "ProtocolFeeCannotBeFetched",
      "type": "error"
    },
    {
      "inputs": [],
      "name": "SwapAmountCannotBeZero",
      "type": "error"
    },
    {
      "inputs": [
        {
          "internalType": "int24",
          "name": "tick",
          "type": "int24"
        }
      ],
      "name": "TickLiquidityOverflow",
      "type": "error"
    },
    {
      "inputs": [
        {
          "internalType": "int24",
          "name": "tickLower",
          "type": "int24"
        }
      ],
      "name": "TickLowerOutOfBounds",
      "type": "error"
    },
    {
      "inputs": [
        {
          "internalType": "int24",
          "name": "tick",
          "type": "int24"
        },
        {
          "internalType": "int24",
          "name": "tickSpacing",
          "type": "int24"
        }
      ],
      "name": "TickMisaligned",
      "type": "error"
    },
    {
      "inputs": [],
      "name": "TickSpacingTooLarge",
      "type": "error"
    },
    {
      "inputs": [],
      "name": "TickSpacingTooSmall",
      "type": "error"
    },
    {
      "inputs": [
        {
          "internalType": "int24",
          "name": "tickUpper",
          "type": "int24"
        }
      ],
      "name": "TickUpperOutOfBounds",
      "type": "error"
    },
    {
      "inputs": [
        {
          "internalType": "int24",
          "name": "tickLower",
          "type": "int24"
        },
        {
          "internalType": "int24",
          "name": "tickUpper",
          "type": "int24"
        }
      ],
      "name": "TicksMisordered",
      "type": "error"
    },
    {
      "anonymous": false,
      "inputs": [
        {
          "indexed": true,
          "internalType": "address",
          "name": "account",
          "type": "address"
        },
        {
          "indexed": true,
          "internalType": "address",
          "name": "operator",
          "type": "address"
        },
        {
          "indexed": false,
          "internalType": "bool",
          "name": "approved",
          "type": "bool"
        }
      ],
      "name": "ApprovalForAll",
      "type": "event"
    },
    {
      "anonymous": false,
      "inputs": [
        {
          "indexed": true,
          "internalType": "PoolId",
          "name": "id",
          "type": "bytes32"
        },
        {
          "indexed": false,
          "internalType": "uint24",
          "name": "hookFees",
          "type": "uint24"
        }
      ],
      "name": "HookFeeUpdated",
      "type": "event"
    },
    {
      "anonymous": false,
      "inputs": [
        {
          "indexed": true,
          "internalType": "PoolId",
          "name": "id",
          "type": "bytes32"
        },
        {
          "indexed": true,
          "internalType": "Currency",
          "name": "currency0",
          "type": "address"
        },
        {
          "indexed": true,
          "internalType": "Currency",
          "name": "currency1",
          "type": "address"
        },
        {
          "indexed": false,
          "internalType": "uint24",
          "name": "fee",
          "type": "uint24"
        },
        {
          "indexed": false,
          "internalType": "int24",
          "name": "tickSpacing",
          "type": "int24"
        },
        {
          "indexed": false,
          "internalType": "contract IHooks",
          "name": "hooks",
          "type": "address"
        }
      ],
      "name": "Initialize",
      "type": "event"
    },
    {
      "anonymous": false,
      "inputs": [
        {
          "indexed": true,
          "internalType": "PoolId",
          "name": "id",
          "type": "bytes32"
        },
        {
          "indexed": true,
          "internalType": "address",
          "name": "sender",
          "type": "address"
        },
        {
          "indexed": false,
          "internalType": "int24",
          "name": "tickLower",
          "type": "int24"
        },
        {
          "indexed": false,
          "internalType": "int24",
          "name": "tickUpper",
          "type": "int24"
        },
        {
          "indexed": false,
          "internalType": "int256",
          "name": "liquidityDelta",
          "type": "int256"
        }
      ],
      "name": "ModifyPosition",
      "type": "event"
    },
    {
      "anonymous": false,
      "inputs": [
        {
          "indexed": true,
          "internalType": "address",
          "name": "oldOwner",
          "type": "address"
        },
        {
          "indexed": true,
          "internalType": "address",
          "name": "newOwner",
          "type": "address"
        }
      ],
      "name": "OwnerChanged",
      "type": "event"
    },
    {
      "anonymous": false,
      "inputs": [
        {
          "indexed": false,
          "internalType": "address",
          "name": "protocolFeeController",
          "type": "address"
        }
      ],
      "name": "ProtocolFeeControllerUpdated",
      "type": "event"
    },
    {
      "anonymous": false,
      "inputs": [
        {
          "indexed": true,
          "internalType": "PoolId",
          "name": "id",
          "type": "bytes32"
        },
        {
          "indexed": false,
          "internalType": "uint24",
          "name": "protocolFees",
          "type": "uint24"
        }
      ],
      "name": "ProtocolFeeUpdated",
      "type": "event"
    },
    {
      "anonymous": false,
      "inputs": [
        {
          "indexed": true,
          "internalType": "PoolId",
          "name": "id",
          "type": "bytes32"
        },
        {
          "indexed": true,
          "internalType": "address",
          "name": "sender",
          "type": "address"
        },
        {
          "indexed": false,
          "internalType": "int128",
          "name": "amount0",
          "type": "int128"
        },
        {
          "indexed": false,
          "internalType": "int128",
          "name": "amount1",
          "type": "int128"
        },
        {
          "indexed": false,
          "internalType": "uint160",
          "name": "sqrtPriceX96",
          "type": "uint160"
        },
        {
          "indexed": false,
          "internalType": "uint128",
          "name": "liquidity",
          "type": "uint128"
        },
        {
          "indexed": false,
          "internalType": "int24",
          "name": "tick",
          "type": "int24"
        },
        {
          "indexed": false,
          "internalType": "uint24",
          "name": "fee",
          "type": "uint24"
        }
      ],
      "name": "Swap",
      "type": "event"
    },
    {
      "anonymous": false,
      "inputs": [
        {
          "indexed": true,
          "internalType": "address",
          "name": "operator",
          "type": "address"
        },
        {
          "indexed": true,
          "internalType": "address",
          "name": "from",
          "type": "address"
        },
        {
          "indexed": true,
          "internalType": "address",
          "name": "to",
          "type": "address"
        },
        {
          "indexed": false,
          "internalType": "uint256[]",
          "name": "ids",
          "type": "uint256[]"
        },
        {
          "indexed": false,
          "internalType": "uint256[]",
          "name": "values",
          "type": "uint256[]"
        }
      ],
      "name": "TransferBatch",
      "type": "event"
    },
    {
      "anonymous": false,
      "inputs": [
        {
          "indexed": true,
          "internalType": "address",
          "name": "operator",
          "type": "address"
        },
        {
          "indexed": true,
          "internalType": "address",
          "name": "from",
          "type": "address"
        },
        {
          "indexed": true,
          "internalType": "address",
          "name": "to",
          "type": "address"
        },
        {
          "indexed": false,
          "internalType": "uint256",
          "name": "id",
          "type": "uint256"
        },
        {
          "indexed": false,
          "internalType": "uint256",
          "name": "value",
          "type": "uint256"
        }
      ],
      "name": "TransferSingle",
      "type": "event"
    },
    {
      "anonymous": false,
      "inputs": [
        {
          "indexed": false,
          "internalType": "string",
          "name": "value",
          "type": "string"
        },
        {
          "indexed": true,
          "internalType": "uint256",
          "name": "id",
          "type": "uint256"
        }
      ],
      "name": "URI",
      "type": "event"
    },
    {
      "inputs": [],
      "name": "MAX_TICK_SPACING",
      "outputs": [
        {
          "internalType": "int24",
          "name": "",
          "type": "int24"
        }
      ],
      "stateMutability": "view",
      "type": "function"
    },
    {
      "inputs": [],
      "name": "MIN_PROTOCOL_FEE_DENOMINATOR",
      "outputs": [
        {
          "internalType": "uint8",
          "name": "",
          "type": "uint8"
        }
      ],
      "stateMutability": "view",
      "type": "function"
    },
    {
      "inputs": [],
      "name": "MIN_TICK_SPACING",
      "outputs": [
        {
          "internalType": "int24",
          "name": "",
          "type": "int24"
        }
      ],
      "stateMutability": "view",
      "type": "function"
    },
    {
      "inputs": [
        {
          "internalType": "address",
          "name": "account",
          "type": "address"
        },
        {
          "internalType": "uint256",
          "name": "id",
          "type": "uint256"
        }
      ],
      "name": "balanceOf",
      "outputs": [
        {
          "internalType": "uint256",
          "name": "",
          "type": "uint256"
        }
      ],
      "stateMutability": "view",
      "type": "function"
    },
    {
      "inputs": [
        {
          "internalType": "address[]",
          "name": "accounts",
          "type": "address[]"
        },
        {
          "internalType": "uint256[]",
          "name": "ids",
          "type": "uint256[]"
        }
      ],
      "name": "balanceOfBatch",
      "outputs": [
        {
          "internalType": "uint256[]",
          "name": "",
          "type": "uint256[]"
        }
      ],
      "stateMutability": "view",
      "type": "function"
    },
    {
      "inputs": [
        {
          "internalType": "address",
          "name": "recipient",
          "type": "address"
        },
        {
          "internalType": "Currency",
          "name": "currency",
          "type": "address"
        },
        {
          "internalType": "uint256",
          "name": "amount",
          "type": "uint256"
        }
      ],
      "name": "collectHookFees",
      "outputs": [
        {
          "internalType": "uint256",
          "name": "amountCollected",
          "type": "uint256"
        }
      ],
      "stateMutability": "nonpayable",
      "type": "function"
    },
    {
      "inputs": [
        {
          "internalType": "address",
          "name": "recipient",
          "type": "address"
        },
        {
          "internalType": "Currency",
          "name": "currency",
          "type": "address"
        },
        {
          "internalType": "uint256",
          "name": "amount",
          "type": "uint256"
        }
      ],
      "name": "collectProtocolFees",
      "outputs": [
        {
          "internalType": "uint256",
          "name": "amountCollected",
          "type": "uint256"
        }
      ],
      "stateMutability": "nonpayable",
      "type": "function"
    },
    {
      "inputs": [
        {
          "internalType": "address",
          "name": "locker",
          "type": "address"
        },
        {
          "internalType": "Currency",
          "name": "currency",
          "type": "address"
        }
      ],
      "name": "currencyDelta",
      "outputs": [
        {
          "internalType": "int256",
          "name": "currencyDelta",
          "type": "int256"
        }
      ],
      "stateMutability": "view",
      "type": "function"
    },
    {
      "inputs": [
        {
          "components": [
            {
              "internalType": "Currency",
              "name": "currency0",
              "type": "address"
            },
            {
              "internalType": "Currency",
              "name": "currency1",
              "type": "address"
            },
            {
              "internalType": "uint24",
              "name": "fee",
              "type": "uint24"
            },
            {
              "internalType": "int24",
              "name": "tickSpacing",
              "type": "int24"
            },
            {
              "internalType": "contract IHooks",
              "name": "hooks",
              "type": "address"
            }
          ],
          "internalType": "struct PoolKey",
          "name": "key",
          "type": "tuple"
        },
        {
          "internalType": "uint256",
          "name": "amount0",
          "type": "uint256"
        },
        {
          "internalType": "uint256",
          "name": "amount1",
          "type": "uint256"
        },
        {
          "internalType": "bytes",
          "name": "hookData",
          "type": "bytes"
        }
      ],
      "name": "donate",
      "outputs": [
        {
          "internalType": "BalanceDelta",
          "name": "delta",
          "type": "int256"
        }
      ],
      "stateMutability": "nonpayable",
      "type": "function"
    },
    {
      "inputs": [
        {
          "internalType": "bytes32",
          "name": "slot",
          "type": "bytes32"
        }
      ],
      "name": "extsload",
      "outputs": [
        {
          "internalType": "bytes32",
          "name": "value",
          "type": "bytes32"
        }
      ],
      "stateMutability": "view",
      "type": "function"
    },
    {
      "inputs": [
        {
          "internalType": "bytes32",
          "name": "startSlot",
          "type": "bytes32"
        },
        {
          "internalType": "uint256",
          "name": "nSlots",
          "type": "uint256"
        }
      ],
      "name": "extsload",
      "outputs": [
        {
          "internalType": "bytes",
          "name": "",
          "type": "bytes"
        }
      ],
      "stateMutability": "view",
      "type": "function"
    },
    {
      "inputs": [
        {
          "internalType": "PoolId",
          "name": "id",
          "type": "bytes32"
        },
        {
          "internalType": "address",
          "name": "_owner",
          "type": "address"
        },
        {
          "internalType": "int24",
          "name": "tickLower",
          "type": "int24"
        },
        {
          "internalType": "int24",
          "name": "tickUpper",
          "type": "int24"
        }
      ],
      "name": "getLiquidity",
      "outputs": [
        {
          "internalType": "uint128",
          "name": "liquidity",
          "type": "uint128"
        }
      ],
      "stateMutability": "view",
      "type": "function"
    },
    {
      "inputs": [
        {
          "internalType": "PoolId",
          "name": "id",
          "type": "bytes32"
        }
      ],
      "name": "getLiquidity",
      "outputs": [
        {
          "internalType": "uint128",
          "name": "liquidity",
          "type": "uint128"
        }
      ],
      "stateMutability": "view",
      "type": "function"
    },
    {
      "inputs": [
        {
          "internalType": "uint256",
          "name": "i",
          "type": "uint256"
        }
      ],
      "name": "getLock",
      "outputs": [
        {
          "internalType": "address",
          "name": "locker",
          "type": "address"
        }
      ],
      "stateMutability": "view",
      "type": "function"
    },
    {
      "inputs": [
        {
          "internalType": "PoolId",
          "name": "id",
          "type": "bytes32"
        },
        {
          "internalType": "address",
          "name": "owner",
          "type": "address"
        },
        {
          "internalType": "int24",
          "name": "tickLower",
          "type": "int24"
        },
        {
          "internalType": "int24",
          "name": "tickUpper",
          "type": "int24"
        }
      ],
      "name": "getPosition",
      "outputs": [
        {
          "components": [
            {
              "internalType": "uint128",
              "name": "liquidity",
              "type": "uint128"
            },
            {
              "internalType": "uint256",
              "name": "feeGrowthInside0LastX128",
              "type": "uint256"
            },
            {
              "internalType": "uint256",
              "name": "feeGrowthInside1LastX128",
              "type": "uint256"
            }
          ],
          "internalType": "struct Position.Info",
          "name": "position",
          "type": "tuple"
        }
      ],
      "stateMutability": "view",
      "type": "function"
    },
    {
      "inputs": [
        {
          "internalType": "PoolId",
          "name": "id",
          "type": "bytes32"
        }
      ],
      "name": "getSlot0",
      "outputs": [
        {
          "internalType": "uint160",
          "name": "sqrtPriceX96",
          "type": "uint160"
        },
        {
          "internalType": "int24",
          "name": "tick",
          "type": "int24"
        },
        {
          "internalType": "uint24",
          "name": "protocolFees",
          "type": "uint24"
        },
        {
          "internalType": "uint24",
          "name": "hookFees",
          "type": "uint24"
        }
      ],
      "stateMutability": "view",
      "type": "function"
    },
    {
      "inputs": [
        {
          "internalType": "address",
          "name": "hookAddress",
          "type": "address"
        },
        {
          "internalType": "Currency",
          "name": "currency",
          "type": "address"
        }
      ],
      "name": "hookFeesAccrued",
      "outputs": [
        {
          "internalType": "uint256",
          "name": "",
          "type": "uint256"
        }
      ],
      "stateMutability": "view",
      "type": "function"
    },
    {
      "inputs": [
        {
          "components": [
            {
              "internalType": "Currency",
              "name": "currency0",
              "type": "address"
            },
            {
              "internalType": "Currency",
              "name": "currency1",
              "type": "address"
            },
            {
              "internalType": "uint24",
              "name": "fee",
              "type": "uint24"
            },
            {
              "internalType": "int24",
              "name": "tickSpacing",
              "type": "int24"
            },
            {
              "internalType": "contract IHooks",
              "name": "hooks",
              "type": "address"
            }
          ],
          "internalType": "struct PoolKey",
          "name": "key",
          "type": "tuple"
        },
        {
          "internalType": "uint160",
          "name": "sqrtPriceX96",
          "type": "uint160"
        },
        {
          "internalType": "bytes",
          "name": "hookData",
          "type": "bytes"
        }
      ],
      "name": "initialize",
      "outputs": [
        {
          "internalType": "int24",
          "name": "tick",
          "type": "int24"
        }
      ],
      "stateMutability": "nonpayable",
      "type": "function"
    },
    {
      "inputs": [
        {
          "internalType": "address",
          "name": "account",
          "type": "address"
        },
        {
          "internalType": "address",
          "name": "operator",
          "type": "address"
        }
      ],
      "name": "isApprovedForAll",
      "outputs": [
        {
          "internalType": "bool",
          "name": "",
          "type": "bool"
        }
      ],
      "stateMutability": "view",
      "type": "function"
    },
    {
      "inputs": [
        {
          "internalType": "bytes",
          "name": "data",
          "type": "bytes"
        }
      ],
      "name": "lock",
      "outputs": [
        {
          "internalType": "bytes",
          "name": "result",
          "type": "bytes"
        }
      ],
      "stateMutability": "nonpayable",
      "type": "function"
    },
    {
      "inputs": [],
      "name": "lockData",
      "outputs": [
        {
          "internalType": "uint128",
          "name": "length",
          "type": "uint128"
        },
        {
          "internalType": "uint128",
          "name": "nonzeroDeltaCount",
          "type": "uint128"
        }
      ],
      "stateMutability": "view",
      "type": "function"
    },
    {
      "inputs": [
        {
          "internalType": "Currency",
          "name": "currency",
          "type": "address"
        },
        {
          "internalType": "address",
          "name": "to",
          "type": "address"
        },
        {
          "internalType": "uint256",
          "name": "amount",
          "type": "uint256"
        }
      ],
      "name": "mint",
      "outputs": [],
      "stateMutability": "nonpayable",
      "type": "function"
    },
    {
      "inputs": [
        {
          "components": [
            {
              "internalType": "Currency",
              "name": "currency0",
              "type": "address"
            },
            {
              "internalType": "Currency",
              "name": "currency1",
              "type": "address"
            },
            {
              "internalType": "uint24",
              "name": "fee",
              "type": "uint24"
            },
            {
              "internalType": "int24",
              "name": "tickSpacing",
              "type": "int24"
            },
            {
              "internalType": "contract IHooks",
              "name": "hooks",
              "type": "address"
            }
          ],
          "internalType": "struct PoolKey",
          "name": "key",
          "type": "tuple"
        },
        {
          "components": [
            {
              "internalType": "int24",
              "name": "tickLower",
              "type": "int24"
            },
            {
              "internalType": "int24",
              "name": "tickUpper",
              "type": "int24"
            },
            {
              "internalType": "int256",
              "name": "liquidityDelta",
              "type": "int256"
            }
          ],
          "internalType": "struct IPoolManager.ModifyPositionParams",
          "name": "params",
          "type": "tuple"
        },
        {
          "internalType": "bytes",
          "name": "hookData",
          "type": "bytes"
        }
      ],
      "name": "modifyPosition",
      "outputs": [
        {
          "internalType": "BalanceDelta",
          "name": "delta",
          "type": "int256"
        }
      ],
      "stateMutability": "nonpayable",
      "type": "function"
    },
    {
      "inputs": [
        {
          "internalType": "address",
          "name": "",
          "type": "address"
        },
        {
          "internalType": "address",
          "name": "",
          "type": "address"
        },
        {
          "internalType": "uint256[]",
          "name": "ids",
          "type": "uint256[]"
        },
        {
          "internalType": "uint256[]",
          "name": "values",
          "type": "uint256[]"
        },
        {
          "internalType": "bytes",
          "name": "",
          "type": "bytes"
        }
      ],
      "name": "onERC1155BatchReceived",
      "outputs": [
        {
          "internalType": "bytes4",
          "name": "",
          "type": "bytes4"
        }
      ],
      "stateMutability": "nonpayable",
      "type": "function"
    },
    {
      "inputs": [
        {
          "internalType": "address",
          "name": "",
          "type": "address"
        },
        {
          "internalType": "address",
          "name": "",
          "type": "address"
        },
        {
          "internalType": "uint256",
          "name": "id",
          "type": "uint256"
        },
        {
          "internalType": "uint256",
          "name": "value",
          "type": "uint256"
        },
        {
          "internalType": "bytes",
          "name": "",
          "type": "bytes"
        }
      ],
      "name": "onERC1155Received",
      "outputs": [
        {
          "internalType": "bytes4",
          "name": "",
          "type": "bytes4"
        }
      ],
      "stateMutability": "nonpayable",
      "type": "function"
    },
    {
      "inputs": [],
      "name": "owner",
      "outputs": [
        {
          "internalType": "address",
          "name": "",
          "type": "address"
        }
      ],
      "stateMutability": "view",
      "type": "function"
    },
    {
      "inputs": [
        {
          "internalType": "PoolId",
          "name": "id",
          "type": "bytes32"
        }
      ],
      "name": "pools",
      "outputs": [
        {
          "components": [
            {
              "internalType": "uint160",
              "name": "sqrtPriceX96",
              "type": "uint160"
            },
            {
              "internalType": "int24",
              "name": "tick",
              "type": "int24"
            },
            {
              "internalType": "uint24",
              "name": "protocolFees",
              "type": "uint24"
            },
            {
              "internalType": "uint24",
              "name": "hookFees",
              "type": "uint24"
            }
          ],
          "internalType": "struct Pool.Slot0",
          "name": "slot0",
          "type": "tuple"
        },
        {
          "internalType": "uint256",
          "name": "feeGrowthGlobal0X128",
          "type": "uint256"
        },
        {
          "internalType": "uint256",
          "name": "feeGrowthGlobal1X128",
          "type": "uint256"
        },
        {
          "internalType": "uint128",
          "name": "liquidity",
          "type": "uint128"
        }
      ],
      "stateMutability": "view",
      "type": "function"
    },
    {
      "inputs": [],
      "name": "protocolFeeController",
      "outputs": [
        {
          "internalType": "contract IProtocolFeeController",
          "name": "",
          "type": "address"
        }
      ],
      "stateMutability": "view",
      "type": "function"
    },
    {
      "inputs": [
        {
          "internalType": "Currency",
          "name": "currency",
          "type": "address"
        }
      ],
      "name": "protocolFeesAccrued",
      "outputs": [
        {
          "internalType": "uint256",
          "name": "",
          "type": "uint256"
        }
      ],
      "stateMutability": "view",
      "type": "function"
    },
    {
      "inputs": [
        {
          "internalType": "Currency",
          "name": "currency",
          "type": "address"
        }
      ],
      "name": "reservesOf",
      "outputs": [
        {
          "internalType": "uint256",
          "name": "",
          "type": "uint256"
        }
      ],
      "stateMutability": "view",
      "type": "function"
    },
    {
      "inputs": [
        {
          "internalType": "address",
          "name": "from",
          "type": "address"
        },
        {
          "internalType": "address",
          "name": "to",
          "type": "address"
        },
        {
          "internalType": "uint256[]",
          "name": "ids",
          "type": "uint256[]"
        },
        {
          "internalType": "uint256[]",
          "name": "amounts",
          "type": "uint256[]"
        },
        {
          "internalType": "bytes",
          "name": "data",
          "type": "bytes"
        }
      ],
      "name": "safeBatchTransferFrom",
      "outputs": [],
      "stateMutability": "nonpayable",
      "type": "function"
    },
    {
      "inputs": [
        {
          "internalType": "address",
          "name": "from",
          "type": "address"
        },
        {
          "internalType": "address",
          "name": "to",
          "type": "address"
        },
        {
          "internalType": "uint256",
          "name": "id",
          "type": "uint256"
        },
        {
          "internalType": "uint256",
          "name": "amount",
          "type": "uint256"
        },
        {
          "internalType": "bytes",
          "name": "data",
          "type": "bytes"
        }
      ],
      "name": "safeTransferFrom",
      "outputs": [],
      "stateMutability": "nonpayable",
      "type": "function"
    },
    {
      "inputs": [
        {
          "internalType": "address",
          "name": "operator",
          "type": "address"
        },
        {
          "internalType": "bool",
          "name": "approved",
          "type": "bool"
        }
      ],
      "name": "setApprovalForAll",
      "outputs": [],
      "stateMutability": "nonpayable",
      "type": "function"
    },
    {
      "inputs": [
        {
          "components": [
            {
              "internalType": "Currency",
              "name": "currency0",
              "type": "address"
            },
            {
              "internalType": "Currency",
              "name": "currency1",
              "type": "address"
            },
            {
              "internalType": "uint24",
              "name": "fee",
              "type": "uint24"
            },
            {
              "internalType": "int24",
              "name": "tickSpacing",
              "type": "int24"
            },
            {
              "internalType": "contract IHooks",
              "name": "hooks",
              "type": "address"
            }
          ],
          "internalType": "struct PoolKey",
          "name": "key",
          "type": "tuple"
        }
      ],
      "name": "setHookFees",
      "outputs": [],
      "stateMutability": "nonpayable",
      "type": "function"
    },
    {
      "inputs": [
        {
          "internalType": "address",
          "name": "_owner",
          "type": "address"
        }
      ],
      "name": "setOwner",
      "outputs": [],
      "stateMutability": "nonpayable",
      "type": "function"
    },
    {
      "inputs": [
        {
          "internalType": "contract IProtocolFeeController",
          "name": "controller",
          "type": "address"
        }
      ],
      "name": "setProtocolFeeController",
      "outputs": [],
      "stateMutability": "nonpayable",
      "type": "function"
    },
    {
      "inputs": [
        {
          "components": [
            {
              "internalType": "Currency",
              "name": "currency0",
              "type": "address"
            },
            {
              "internalType": "Currency",
              "name": "currency1",
              "type": "address"
            },
            {
              "internalType": "uint24",
              "name": "fee",
              "type": "uint24"
            },
            {
              "internalType": "int24",
              "name": "tickSpacing",
              "type": "int24"
            },
            {
              "internalType": "contract IHooks",
              "name": "hooks",
              "type": "address"
            }
          ],
          "internalType": "struct PoolKey",
          "name": "key",
          "type": "tuple"
        }
      ],
      "name": "setProtocolFees",
      "outputs": [],
      "stateMutability": "nonpayable",
      "type": "function"
    },
    {
      "inputs": [
        {
          "internalType": "Currency",
          "name": "currency",
          "type": "address"
        }
      ],
      "name": "settle",
      "outputs": [
        {
          "internalType": "uint256",
          "name": "paid",
          "type": "uint256"
        }
      ],
      "stateMutability": "payable",
      "type": "function"
    },
    {
      "inputs": [
        {
          "internalType": "bytes4",
          "name": "interfaceId",
          "type": "bytes4"
        }
      ],
      "name": "supportsInterface",
      "outputs": [
        {
          "internalType": "bool",
          "name": "",
          "type": "bool"
        }
      ],
      "stateMutability": "view",
      "type": "function"
    },
    {
      "inputs": [
        {
          "components": [
            {
              "internalType": "Currency",
              "name": "currency0",
              "type": "address"
            },
            {
              "internalType": "Currency",
              "name": "currency1",
              "type": "address"
            },
            {
              "internalType": "uint24",
              "name": "fee",
              "type": "uint24"
            },
            {
              "internalType": "int24",
              "name": "tickSpacing",
              "type": "int24"
            },
            {
              "internalType": "contract IHooks",
              "name": "hooks",
              "type": "address"
            }
          ],
          "internalType": "struct PoolKey",
          "name": "key",
          "type": "tuple"
        },
        {
          "components": [
            {
              "internalType": "bool",
              "name": "zeroForOne",
              "type": "bool"
            },
            {
              "internalType": "int256",
              "name": "amountSpecified",
              "type": "int256"
            },
            {
              "internalType": "uint160",
              "name": "sqrtPriceLimitX96",
              "type": "uint160"
            }
          ],
          "internalType": "struct IPoolManager.SwapParams",
          "name": "params",
          "type": "tuple"
        },
        {
          "internalType": "bytes",
          "name": "hookData",
          "type": "bytes"
        }
      ],
      "name": "swap",
      "outputs": [
        {
          "internalType": "BalanceDelta",
          "name": "delta",
          "type": "int256"
        }
      ],
      "stateMutability": "nonpayable",
      "type": "function"
    },
    {
      "inputs": [
        {
          "internalType": "Currency",
          "name": "currency",
          "type": "address"
        },
        {
          "internalType": "address",
          "name": "to",
          "type": "address"
        },
        {
          "internalType": "uint256",
          "name": "amount",
          "type": "uint256"
        }
      ],
      "name": "take",
      "outputs": [],
      "stateMutability": "nonpayable",
      "type": "function"
    },
    {
      "inputs": [
        {
          "internalType": "uint256",
          "name": "",
          "type": "uint256"
        }
      ],
      "name": "uri",
      "outputs": [
        {
          "internalType": "string",
          "name": "",
          "type": "string"
        }
      ],
      "stateMutability": "view",
      "type": "function"
    },
    {
      "stateMutability": "payable",
      "type": "receive"
    }
  ],
  "bytecode": "0x60c06040523480156200001157600080fd5b5060405162006d6f38038062006d6f8339810160408190526200003491620000af565b60408051602081018252600080825280546001600160a01b0319163390811782559251919284929091907fb532073b38c83145e3e5135377a08bf9aab55bc0fd7c1179cd4fb995d2a5159c908290a36080523060a05262000095816200009d565b50506200023a565b6006620000ab82826200016e565b5050565b600060208284031215620000c257600080fd5b5051919050565b634e487b7160e01b600052604160045260246000fd5b600181811c90821680620000f457607f821691505b6020821081036200011557634e487b7160e01b600052602260045260246000fd5b50919050565b601f8211156200016957600081815260208120601f850160051c81016020861015620001445750805b601f850160051c820191505b81811015620001655782815560010162000150565b5050505b505050565b81516001600160401b038111156200018a576200018a620000c9565b620001a2816200019b8454620000df565b846200011b565b602080601f831160018114620001da5760008415620001c15750858301515b600019600386901b1c1916600185901b17855562000165565b600085815260208120601f198616915b828110156200020b57888601518255948401946001909101908401620001ea565b50858210156200022a5787850151600019600388901b60f8161c191681555b5050505050600190811b01905550565b60805160a051616b086200026760003960006122d90152600081816125fb015261265e0152616b086000f3fe6080604052600436106101e45760003560e01c8062fdd58e146101f057806301ffc9a714610223578063048d9c701461025357806307eff0dd1461029e5780630b0d9c09146102c05780630e89341c146102e257806313af40351461030f5780631e2eaeaf1461032f578063234266d71461034e578063282076cc1461036e5780632d7713891461038e5780632eb2c2d6146103ae57806333aa955b146103ce57806335fd631a146104065780634e1273f41461042657806360460f061461045357806361ae449a14610469578063695c5bf5146104895780636a256b29146104a957806381548319146104bc5780638161b874146104dc57806384e41c5e146104fc5780638da5cb5b1461052357806393c85a211461055057806397e8cd4e1461057d578063a22cb465146105aa578063a54b2831146105ca578063af440f8214610602578063b4c4193914610622578063b5217bb41461065a578063bc197c8114610751578063c6c3bbe61461078a578063c815641c146107aa578063d68f4dd114610862578063e985e9c514610882578063effd18c0146108cb578063f02de3b2146108eb578063f23a6e611461090b578063f242432a1461092b578063f3cd914c1461094b578063f8fcd1561461096b578063fa6793d5146109b657600080fd5b366101eb57005b600080fd5b3480156101fc57600080fd5b5061021061020b366004615788565b6109ef565b6040519081526020015b60405180910390f35b34801561022f57600080fd5b5061024361023e3660046157ca565b610a8a565b604051901515815260200161021a565b34801561025f57600080fd5b5061027361026e3660046157f9565b610ada565b6040805182516001600160801b0316815260208084015190820152918101519082015260600161021a565b3480156102aa57600080fd5b506102b3600181565b60405161021a9190615848565b3480156102cc57600080fd5b506102e06102db366004615856565b610b5a565b005b3480156102ee57600080fd5b506103026102fd366004615897565b610bf5565b60405161021a9190615900565b34801561031b57600080fd5b506102e061032a366004615913565b610c89565b34801561033b57600080fd5b5061021061034a366004615897565b5490565b34801561035a57600080fd5b50610210610369366004615a89565b610d0f565b34801561037a57600080fd5b506102e0610389366004615af2565b610eeb565b34801561039a57600080fd5b506102e06103a9366004615913565b610f5e565b3480156103ba57600080fd5b506102e06103c9366004615c25565b610fdf565b3480156103da57600080fd5b506103ee6103e93660046157f9565b61102b565b6040516001600160801b03909116815260200161021a565b34801561041257600080fd5b50610302610421366004615cd2565b61105b565b34801561043257600080fd5b50610446610441366004615cf4565b6110da565b60405161021a9190615dfb565b34801561045f57600080fd5b506102b3617fff81565b34801561047557600080fd5b50610210610484366004615e0e565b6111fb565b34801561049557600080fd5b506102b36104a4366004615eae565b61158c565b6102106104b7366004615913565b6118d4565b3480156104c857600080fd5b506103026104d7366004615ef9565b61197f565b3480156104e857600080fd5b506102106104f7366004615856565b611aa6565b34801561050857600080fd5b50610511600481565b60405160ff909116815260200161021a565b34801561052f57600080fd5b50600054610543906001600160a01b031681565b60405161021a9190615f3a565b34801561055c57600080fd5b5061021061056b366004615913565b60096020526000908152604090205481565b34801561058957600080fd5b50610210610598366004615913565b60016020526000908152604090205481565b3480156105b657600080fd5b506102e06105c5366004615f5e565b611b5f565b3480156105d657600080fd5b506102106105e5366004615f93565b600860209081526000928352604080842090915290825290205481565b34801561060e57600080fd5b506102e061061d366004615af2565b611b6e565b34801561062e57600080fd5b5061021061063d366004615f93565b600260209081526000928352604080842090915290825290205481565b34801561066657600080fd5b506106ee610675366004615897565b600a60209081526000918252604091829020825160808101845281546001600160a01b0381168252600160a01b8104600290810b9483019490945262ffffff600160b81b8204811695830195909552600160d01b900490931660608401526001810154918101546003909101546001600160801b031684565b6040805185516001600160a01b0316815260208087015160020b908201528582015162ffffff9081169282019290925260609586015190911694810194909452608084019290925260a08301526001600160801b031660c082015260e00161021a565b34801561075d57600080fd5b5061077161076c366004616010565b611bd8565b6040516001600160e01b0319909116815260200161021a565b34801561079657600080fd5b506102e06107a5366004615856565b611c63565b3480156107b657600080fd5b5061082a6107c5366004615897565b6000908152600a6020908152604091829020825160808101845290546001600160a01b038116808352600160a01b820460020b93830184905262ffffff600160b81b83048116958401869052600160d01b909204909116606090920182905293919291565b604080516001600160a01b03909516855260029390930b602085015262ffffff9182169284019290925216606082015260800161021a565b34801561086e57600080fd5b5061054361087d366004615897565b611cdd565b34801561088e57600080fd5b5061024361089d366004615f93565b6001600160a01b03918216600090815260056020908152604080832093909416825291909152205460ff1690565b3480156108d757600080fd5b506102106108e6366004615856565b611ce8565b3480156108f757600080fd5b50600354610543906001600160a01b031681565b34801561091757600080fd5b506107716109263660046160ce565b611d8d565b34801561093757600080fd5b506102e0610946366004616149565b611dcc565b34801561095757600080fd5b506102106109663660046161b1565b611e11565b34801561097757600080fd5b50600754610996906001600160801b0380821691600160801b90041682565b604080516001600160801b0393841681529290911660208301520161021a565b3480156109c257600080fd5b506103ee6109d1366004615897565b6000908152600a60205260409020600301546001600160801b031690565b60006001600160a01b038316610a5f5760405162461bcd60e51b815260206004820152602a60248201527f455243313135353a2061646472657373207a65726f206973206e6f742061207660448201526930b634b21037bbb732b960b11b60648201526084015b60405180910390fd5b5060008181526004602090815260408083206001600160a01b03861684529091529020545b92915050565b60006001600160e01b03198216636cdb3d1360e11b1480610abb57506001600160e01b031982166303a24d0760e21b145b80610a8457506301ffc9a760e01b6001600160e01b0319831614610a84565b610b07604051806060016040528060006001600160801b0316815260200160008152602001600081525090565b6000858152600a60205260409020610b2490600601858585612276565b6040805160608101825282546001600160801b03168152600183015460208201526002909201549082015290505b949350505050565b610b626122ce565b6000610b6e6007612319565b9050336001600160a01b03821614610b9b57806040516313d2c13360e21b8152600401610a569190615f3a565b610bad84610ba884612345565b61235f565b6001600160a01b03841660009081526009602052604081208054849290610bd5908490616251565b90915550610bef90506001600160a01b0385168484612447565b50505050565b606060068054610c0490616264565b80601f0160208091040260200160405190810160405280929190818152602001828054610c3090616264565b8015610c7d5780601f10610c5257610100808354040283529160200191610c7d565b820191906000526020600020905b815481529060010190602001808311610c6057829003601f168201915b50505050509050919050565b6000546001600160a01b03163314610cb4576040516348f5c3ed60e01b815260040160405180910390fd5b600080546040516001600160a01b03808516939216917fb532073b38c83145e3e5135377a08bf9aab55bc0fd7c1179cd4fb995d2a5159c91a3600080546001600160a01b0319166001600160a01b0392909216919091179055565b6000610d196122ce565b6000610d256007612319565b9050336001600160a01b03821614610d5257806040516313d2c13360e21b8152600401610a569190615f3a565b6080870151600160991b1615610e09576080870151604051635b54587d60e11b808252916001600160a01b03169063b6a8b0fa90610d9e9033908c908c908c908c908c9060040161630a565b6020604051808303816000875af1158015610dbd573d6000803e3d6000fd5b505050506040513d601f19601f82011682018060405250810190610de19190616348565b6001600160e01b03191614610e0957604051631e048e1d60e01b815260040160405180910390fd5b610e1e8686610e178a6124ea565b919061250e565b9150610e2a87836125c2565b6080870151600160981b1615610ee157608087015160405163e1b4af6960e01b808252916001600160a01b03169063e1b4af6990610e769033908c908c908c908c908c9060040161630a565b6020604051808303816000875af1158015610e95573d6000803e3d6000fd5b505050506040513d601f19601f82011682018060405250810190610eb99190616348565b6001600160e01b03191614610ee157604051631e048e1d60e01b815260040160405180910390fd5b5095945050505050565b6000610ef6826125e1565b90506000610f03836126ef565b6000818152600a60205260409020909150610f1e908361271f565b60405162ffffff8316815281907fe9c42593e71f84403b84352cd168d693e2c9fcd1fdbcc3feb21d92b43e6696f9906020015b60405180910390a2505050565b6000546001600160a01b03163314610f89576040516348f5c3ed60e01b815260040160405180910390fd5b600380546001600160a01b0319166001600160a01b0383161790556040517fb4bd8ef53df690b9943d3318996006dbb82a25f54719d8c8035b516a2a5b8acc90610fd4908390615f3a565b60405180910390a150565b6001600160a01b038516331480610ffb5750610ffb853361089d565b6110175760405162461bcd60e51b8152600401610a5690616365565b6110248585858585612769565b5050505050565b6000848152600a6020526040812061104890600601858585612276565b546001600160801b031695945050505050565b6060600061106a8360206163b3565b6001600160401b0381111561108157611081615930565b6040519080825280601f01601f1916602001820160405280156110ab576020820181803683370190505b50905060005b838110156110d25780850154602060018301028301526001810190506110b1565b509392505050565b6060815183511461113f5760405162461bcd60e51b815260206004820152602960248201527f455243313135353a206163636f756e747320616e6420696473206c656e677468604482015268040dad2e6dac2e8c6d60bb1b6064820152608401610a56565b600083516001600160401b0381111561115a5761115a615930565b604051908082528060200260200182016040528015611183578160200160208202803683370190505b50905060005b84518110156110d2576111ce8582815181106111a7576111a76163ca565b60200260200101518583815181106111c1576111c16163ca565b60200260200101516109ef565b8282815181106111e0576111e06163ca565b60209081029190910101526111f4816163e0565b9050611189565b60006112056122ce565b60006112116007612319565b9050336001600160a01b0382161461123e57806040516313d2c13360e21b8152600401610a569190615f3a565b60808601516001609d1b16156112f357608086015160405163fe9a6f4560e01b808252916001600160a01b03169063fe9a6f45906112889033908b908b908b908b9060040161641b565b6020604051808303816000875af11580156112a7573d6000803e3d6000fd5b505050506040513d601f19601f820116820180604052508101906112cb9190616348565b6001600160e01b031916146112f357604051631e048e1d60e01b815260040160405180910390fd5b60006112fe876126ef565b9050611308615700565b6113736040518060a00160405280336001600160a01b03168152602001896000015160020b8152602001896020015160020b815260200161134c8a60400151612949565b600f0b815260608b015160020b6020918201526000858152600a909152604090209061295f565b909450905061138288856125c2565b8051156113ac57805188516001600160a01b03166000908152600160205260409020805490910190555b6020810151156113e057602080820151898201516001600160a01b0316600090815260019092526040909120805490910190555b6040810151156114265760408082015160808a01516001600160a01b039081166000908152600260209081528482208d5190931682529190915291909120805490910190555b60608101511561146b57606081015160808901516001600160a01b039081166000908152600260209081526040808320828e0151909416835292905220805490910190555b60808801516001609c1b16156115225760808801516040516330b7cdef60e01b808252916001600160a01b0316906330b7cdef906114b79033908d908d908b908e908e90600401616466565b6020604051808303816000875af11580156114d6573d6000803e3d6000fd5b505050506040513d601f19601f820116820180604052508101906114fa9190616348565b6001600160e01b0319161461152257604051631e048e1d60e01b815260040160405180910390fd5b865160208801516040808a01519051339386937fc54f65a0367b92850ef8e90f7e302da8b0a137ab343132a9b8d0e63e684bf53c9361157993600293840b81529190920b6020820152604081019190915260600190565b60405180910390a3505050949350505050565b6040840151600090620f4240620fffff909116106115bd57604051637e2df70960e11b815260040160405180910390fd5b6060850151617fff60029190910b13156115ea57604051635815aee160e11b815260040160405180910390fd5b600160020b856060015160020b121561161657604051630b7f3b4b60e11b815260040160405180910390fd5b845160208601516001600160a01b0390811691161115611649576040516305a25e7160e11b815260040160405180910390fd5b61166d856040015186608001516001600160a01b0316612dfd90919063ffffffff16565b611690578460800151604051630732d7b560e51b8152600401610a569190615f3a565b60808501516001609f1b16156117455760808501516040516301a206c160e51b808252916001600160a01b031690633440d820906116da9033908a908a908a908a906004016164ac565b6020604051808303816000875af11580156116f9573d6000803e3d6000fd5b505050506040513d601f19601f8201168201806040525081019061171d9190616348565b6001600160e01b0319161461174557604051631e048e1d60e01b815260040160405180910390fd5b6000611750866126ef565b9050600061175d876125e1565b9050600061176a88612e7e565b6000848152600a6020526040902090915061178790888484612f51565b60808901519094506001609e1b161561184157608088015160405163a910f80f60e01b808252916001600160a01b03169063a910f80f906117d69033908d908d908b908e908e906004016164e8565b6020604051808303816000875af11580156117f5573d6000803e3d6000fd5b505050506040513d601f19601f820116820180604052508101906118199190616348565b6001600160e01b0319161461184157604051631e048e1d60e01b815260040160405180910390fd5b87602001516001600160a01b031688600001516001600160a01b0316847f3fd553db44f207b1f41348cfc4d251860814af9eadc470e8e7895e4d120511f48b604001518c606001518d608001516040516118c19392919062ffffff93909316835260029190910b60208301526001600160a01b0316604082015260600190565b60405180910390a4505050949350505050565b60006118de6122ce565b60006118ea6007612319565b9050336001600160a01b0382161461191757806040516313d2c13360e21b8152600401610a569190615f3a565b6001600160a01b0383166000818152600960205260409020549061193a90613014565b6001600160a01b0385166000908152600960205260409020819055611960908290616251565b92506119788461196f85612345565b610ba89061652f565b5050919050565b60606119c060073381546001600160801b03908116600080516020616ab383398151915281019290925582546001600160801b031916600190920116179055565b6040516355b148ff60e11b8152339063ab6291fe906119e59086908690600401616552565b6000604051808303816000875af1158015611a04573d6000803e3d6000fd5b505050506040513d6000823e601f3d908101601f19168201604052611a2c9190810190616566565b6007549091506001600160801b0316600103611a7d57600754600160801b90046001600160801b031615611a7357604051635212cba160e01b815260040160405180910390fd5b6000600755610a84565b600780546001600160801b031981166001600160801b0391821660001901909116179055610a84565b600080546001600160a01b03163314801590611acd57506003546001600160a01b03163314155b15611aeb576040516348f5c3ed60e01b815260040160405180910390fd5b8115611af75781611b11565b6001600160a01b0383166000908152600160205260409020545b6001600160a01b038416600090815260016020526040812080549293508392909190611b3e908490616251565b90915550611b5890506001600160a01b0384168583612447565b9392505050565b611b6a3383836130a1565b5050565b6000611b7982612e7e565b90506000611b86836126ef565b6000818152600a60205260409020909150611ba19083613181565b60405162ffffff8316815281907fc939c5b4f4e3398eb275de825cd913cca3ade8d1f42daa0ffe1d88accd40715890602001610f51565b6000333014611bfa576040516314fe96b960e21b815260040160405180910390fd5b60005b86811015611c4d57611c45611c27898984818110611c1d57611c1d6163ca565b9050602002013590565b878784818110611c3957611c396163ca565b905060200201356131cb565b600101611bfd565b5063bc197c8160e01b9998505050505050505050565b611c6b6122ce565b6000611c776007612319565b9050336001600160a01b03821614611ca457806040516313d2c13360e21b8152600401610a569190615f3a565b611cb184610ba884612345565b610bef83611cc7866001600160a01b03166131f4565b8460405180602001604052806000815250613200565b6000610a8482613304565b6000338215611cf75782611d1e565b6001600160a01b038082166000908152600260209081526040808320938816835292905220545b91506001600160a01b03851615611d355784611d37565b805b6001600160a01b038083166000908152600260209081526040808320938916835292905290812080549297508492909190611d73908490616251565b909155506110d290506001600160a01b0385168684612447565b6000333014611daf576040516314fe96b960e21b815260040160405180910390fd5b611db985856131cb565b5063f23a6e6160e01b9695505050505050565b6001600160a01b038516331480611de85750611de8853361089d565b611e045760405162461bcd60e51b8152600401610a5690616365565b6110248585858585613318565b6000611e1b6122ce565b6000611e276007612319565b9050336001600160a01b03821614611e5457806040516313d2c13360e21b8152600401610a569190615f3a565b60808601516001609b1b1615611f095760808601516040516315d7892d60e21b808252916001600160a01b03169063575e24b490611e9e9033908b908b908b908b9060040161660b565b6020604051808303816000875af1158015611ebd573d6000803e3d6000fd5b505050506040513d601f19601f82011682018060405250810190611ee19190616348565b6001600160e01b03191614611f0957604051631e048e1d60e01b815260040160405180910390fd5b6040860151600090628000001615611fc55786608001516001600160a01b0316632ab7a3e233898989896040518663ffffffff1660e01b8152600401611f5395949392919061660b565b6020604051808303816000875af1158015611f72573d6000803e3d6000fd5b505050506040513d601f19601f82011682018060405250810190611f969190616636565b9050620f42408162ffffff1610611fc057604051637e2df70960e11b815260040160405180910390fd5b611fd1565b506040860151620fffff165b600080611fdc615728565b6000611fe78b6126ef565b90506120576040518060a001604052808762ffffff1681526020018d6060015160020b81526020018c60000151151581526020018c6020015181526020018c604001516001600160a01b0316815250600a600084815260200190815260200160002061343490919063ffffffff16565b9299509095509350915061206b8b886125c2565b83156120ad5783600160008c60000151612089578d6020015161208c565b8d515b6001600160a01b031681526020810191909152604001600020805490910190555b82156121065760808b01516001600160a01b031660009081526002602052604081208b518592906120e2578d602001516120e5565b8d515b6001600160a01b031681526020810191909152604001600020805490910190555b60808b01516001609a1b16156121cd5763b47b2fb160e01b6001600160e01b0319168b608001516001600160a01b031663b47b2fb1338e8e8c8f8f6040518763ffffffff1660e01b815260040161216296959493929190616653565b6020604051808303816000875af1158015612181573d6000803e3d6000fd5b505050506040513d601f19601f820116820180604052508101906121a59190616348565b6001600160e01b031916146121cd57604051631e048e1d60e01b815260040160405180910390fd5b33817f40e9cecb9f5f1f1c5b9c97dec2917b7ee92e57ba5563708daca94dd84ad7112f6121fa8a60801c90565b8a60408088015160a089015160608a01519251612260959493908e90600f96870b81529490950b60208501526001600160a01b039290921660408401526001600160801b0316606083015260020b608082015262ffffff9190911660a082015260c00190565b60405180910390a3505050505050949350505050565b6040805160609490941b6001600160601b03191660208086019190915260e893841b60348601529190921b60378401528151601a818503018152603a9093018252825192810192909220600090815292909152902090565b306001600160a01b037f00000000000000000000000000000000000000000000000000000000000000001614612317576040516306c4a1c760e11b815260040160405180910390fd5b565b8054600090610a8490612337906001906001600160801b031661667e565b6001600160801b0316613304565b600060016001607f1b0382111561235b57600080fd5b5090565b80600f0b60000361236e575050565b600061237a6007612319565b6001600160a01b0380821660009081526008602090815260408083209388168352929052908120549192506123b3600f85900b836166a5565b9050806000036123e957600780546000196001600160801b03600160801b80840482169290920181169091029116179055612418565b81600003612418576007805460016001600160801b03600160801b808404821692909201811690910291161790555b6001600160a01b0392831660009081526008602090815260408083209790951682529590955291909320555050565b600061245b846001600160a01b0316613c11565b1561248f5760008060008085875af190508061248a57604051633d2cec6f60e21b815260040160405180910390fd5b610bef565b60405163a9059cbb60e01b6000528360045282602452602060006044600080895af13d15601f3d1160016000511416171691506000606052806040525080610bef57604051633c9fd93960e21b815260040160405180910390fd5b6000600a60006124f9846126ef565b81526020019081526020016000209050919050565b60038301546000906001600160801b0316810361253e5760405163a74f97ab60e01b815260040160405180910390fd5b61255861254a84612345565b61255384612345565b613c1e565b9050821561258b57600384015461257f908490600160801b906001600160801b0316613c31565b60018501805490910190555b8115611b585760038401546125b0908390600160801b906001600160801b0316613c31565b60028501805490910190559392505050565b81516125d290610ba88360801c90565b611b6a8260200151610ba88390565b600354600090819081906001600160a01b031615611978577f00000000000000000000000000000000000000000000000000000000000000005a101561263a57604051630f724b8160e11b815260040160405180910390fd5b60035460405163d6ec458560e01b81526001600160a01b039091169063d6ec4585907f00000000000000000000000000000000000000000000000000000000000000009061268c9088906004016166cd565b6020604051808303818786fa935050505080156126c6575060408051601f3d908101601f191682019092526126c391810190616636565b60015b156126dd57925050610fff600c83901c8116915082165b6126e682613cd3565b61197881613cd3565b60008160405160200161270291906166cd565b604051602081830303815290604052805190602001209050919050565b81546001600160a01b031660000361274a5760405163486aa30760e01b815260040160405180910390fd5b815462ffffff909116600160b81b0262ffffff60b81b19909116179055565b81518351146127cb5760405162461bcd60e51b815260206004820152602860248201527f455243313135353a2069647320616e6420616d6f756e7473206c656e677468206044820152670dad2e6dac2e8c6d60c31b6064820152608401610a56565b6001600160a01b0384166127f15760405162461bcd60e51b8152600401610a56906166db565b3360005b84518110156128db576000858281518110612812576128126163ca565b602002602001015190506000858381518110612830576128306163ca565b60209081029190910181015160008481526004835260408082206001600160a01b038e1683529093529190912054909150818110156128815760405162461bcd60e51b8152600401610a5690616720565b60008381526004602090815260408083206001600160a01b038e8116855292528083208585039055908b168252812080548492906128c090849061676a565b92505081905550505050806128d4906163e0565b90506127f5565b50846001600160a01b0316866001600160a01b0316826001600160a01b03167f4a39dc06d4c0dbc64b70af90fd698a233a518aa5d07e595d983b8c0526c8f7fb878760405161292b92919061677d565b60405180910390a4612941818787878787613d4d565b505050505050565b80600f81900b811461295a57600080fd5b919050565b6000612969615700565b83546001600160a01b03166000036129945760405163486aa30760e01b815260040160405180910390fd5b6129a683602001518460400151613eaf565b6040805160c081018252600080825260208201819052918101829052606081018290526080810182905260a0810182905281906060860151600f0b15612b1d576129fb87876020015188606001516000613f43565b6001600160801b031660208301521515815260408601516060870151612a249189916001613f43565b6001600160801b031660608084019190915290151560408301528601516000600f9190910b1315612adc576000612a5e876080015161401d565b9050806001600160801b031682602001516001600160801b03161115612a9d57866020015160405163b8e3c38560e01b8152600401610a569190615848565b806001600160801b031682606001516001600160801b03161115612ada57866040015160405163b8e3c38560e01b8152600401610a569190615848565b505b805115612afb5760208601516080870151612afb9160058a019161404b565b806040015115612b1d5760408601516080870151612b1d9160058a019161404b565b612b3087876020015188604001516140dd565b60a08301819052608083018290526060880151885160208a015160408b0151612b6c95939492612b649260068f0192612276565b929190614194565b809350819450505060008660600151600f0b1215612bb157805115612b9957612b998787602001516142bd565b806040015115612bb157612bb18787604001516142bd565b506060850151600f0b15612d4f5760208501518654600291820b600160a01b90910490910b1215612c2557612c1e84612c19612c12612c0d612bf68a602001516142e1565b612c038b604001516142e1565b8b606001516145f9565b612949565b6000613c1e565b614638565b9350612d4f565b60408501518654600291820b600160a01b90910490910b1215612d195785546040860151612c99918691612c1991612c6e91612c0d916001600160a01b031690612c03906142e1565b612553612c0d612c818b602001516142e1565b8c5460608d01516001600160a01b0390911690614662565b935060008560600151600f0b12612ccc5760608501516003870154612cc791906001600160801b03166167a2565b612cf2565b8460600151612cda9061652f565b6003870154612cf291906001600160801b031661667e565b6003870180546001600160801b0319166001600160801b0392909216919091179055612d4f565b612d4c84612c196000612553612c0d612d358b602001516142e1565b612d428c604001516142e1565b8c60600151614662565b93505b60008560600151600f0b128015612d7157508554600160d01b9004610fff1615155b15612dd457612d808685614691565b9250612dd184612c19612d968660000151612345565b612da38760400151612345565b612dad91906167c2565b612dba8760200151612345565b612dc78860600151612345565b61255391906167c2565b93505b612df284612ded612de485612345565b61255385612345565b61485a565b935050509250929050565b60006001600160a01b03831615612e5557600160981b836001600160a01b0316101580612e2e575062800000821615155b80612e3d575062400000821615155b80612e5057506220000082161515611b58565b611b58565b628000008216158015612e6b5750624000008216155b8015611b58575050622000001615919050565b60808101516000906001600160a01b03161561295a5781608001516001600160a01b0316635ae4ce58836040518263ffffffff1660e01b8152600401612ec491906166cd565b602060405180830381865afa925050508015612efd575060408051601f3d908101601f19168201909252612efa91810190616636565b60015b1561295a5760408301516000906240000016612f1a576000612f1f565b62fff0005b60408501519091506000906220000016612f3a576000612f3e565b610fff5b61ffff1691909117919091169392505050565b83546000906001600160a01b031615612f7d57604051637983c05160e01b815260040160405180910390fd5b612f8684614887565b604080516080810182526001600160a01b0396909616808752600283900b602088015262ffffff958616918701829052938516606090960186905286546001600160b81b031916909317600160a01b948216949094029390931765ffffffffffff60b81b1916600160b81b90920262ffffff60d01b191691909117600160d01b909302929092179092555090565b6000613028826001600160a01b0316613c11565b15613034575047919050565b6040516370a0823160e01b81526001600160a01b038316906370a0823190613060903090600401615f3a565b602060405180830381865afa15801561307d573d6000803e3d6000fd5b505050506040513d601f19601f82011682018060405250810190610a8491906167ef565b816001600160a01b0316836001600160a01b0316036131145760405162461bcd60e51b815260206004820152602960248201527f455243313135353a2073657474696e6720617070726f76616c20737461747573604482015268103337b91039b2b63360b91b6064820152608401610a56565b6001600160a01b03838116600081815260056020908152604080832094871680845294825291829020805460ff191686151590811790915591519182527f17307eab39ab6107e8899845ad3d59bd9653f200f220920489ca2b5937696c31910160405180910390a3505050565b81546001600160a01b03166000036131ac5760405163486aa30760e01b815260040160405180910390fd5b815462ffffff909116600160d01b0262ffffff60d01b19909116179055565b6131e7306131e1846001600160a01b03166131f4565b83614b59565b611b6a8261196f83612345565b6001600160a01b031690565b6001600160a01b0384166132605760405162461bcd60e51b815260206004820152602160248201527f455243313135353a206d696e7420746f20746865207a65726f206164647265736044820152607360f81b6064820152608401610a56565b33600061326c85614cc6565b9050600061327985614cc6565b905060008681526004602090815260408083206001600160a01b038b168452909152812080548792906132ad90849061676a565b909155505060408051878152602081018790526001600160a01b03808a169260009291871691600080516020616a93833981519152910160405180910390a46132fb83600089898989614d11565b50505050505050565b600080516020616ab3833981519152015490565b6001600160a01b03841661333e5760405162461bcd60e51b8152600401610a56906166db565b33600061334a85614cc6565b9050600061335785614cc6565b905060008681526004602090815260408083206001600160a01b038c1684529091529020548581101561339c5760405162461bcd60e51b8152600401610a5690616720565b60008781526004602090815260408083206001600160a01b038d8116855292528083208985039055908a168252812080548892906133db90849061676a565b909155505060408051888152602081018890526001600160a01b03808b16928c82169291881691600080516020616a93833981519152910160405180910390a4613429848a8a8a8a8a614d11565b505050505050505050565b6000806000613441615728565b84606001516000036134665760405163be8b850760e01b815260040160405180910390fd5b6040805160808101825287546001600160a01b038116808352600160a01b820460020b602084015262ffffff600160b81b8304811694840194909452600160d01b9091049092166060820152906000036134d35760405163486aa30760e01b815260040160405180910390fd5b8560400151156135665780600001516001600160a01b031686608001516001600160a01b0316106135205780516080870151604051637c9c6e8f60e01b8152610a56929190600401616808565b6401000276a36001600160a01b031686608001516001600160a01b031611613561578560800151604051639e4d7cc760e01b8152600401610a569190615f3a565b6135f9565b80600001516001600160a01b031686608001516001600160a01b0316116135a95780516080870151604051637c9c6e8f60e01b8152610a56929190600401616808565b73fffd8963efd1fc6a506488495d951d5263988d266001600160a01b031686608001516001600160a01b0316106135f9578560800151604051639e4d7cc760e01b8152600401610a569190615f3a565b6040805160608101825260038901546001600160801b031681529087015160009190602082019061363457604084015160121c603f1661364b565b604084810151600c1c610fff1661364b9190616838565b61ffff168152602001886040015161366d57606084015160121c603f16613686565b6060840151604090600c1c610fff166136869190616838565b61ffff16815250905060008088606001511390506040518060c00160405280896060015181526020016000815260200184600001516001600160a01b03168152602001846020015160020b815260200189604001516136e9578a600201546136ef565b8a600101545b815283516001600160801b03166020918201526040805160e0810182526000808252928101839052908101829052606081018290526080810182905260a0810182905260c08101919091529094505b845115801590613768575088608001516001600160a01b031685604001516001600160a01b031614155b15613b02576040808601516001600160a01b03168252606086015160208b0151918b015161379b9260058e019291614dd3565b1515604083015260020b60208201819052620d89e71913156137c657620d89e71960208201526137fa565b6137d3620d89e719616859565b60020b816020015160020b13156137fa576137f1620d89e719616859565b60020b60208201525b61380781602001516142e1565b6001600160a01b03166060820152604080860151908a015161388a919061384a578a608001516001600160a01b031683606001516001600160a01b031611613868565b8a608001516001600160a01b031683606001516001600160a01b0316105b61387657826060015161387c565b8a608001515b60a088015188518d51614f15565b60c085015260a084015260808301526001600160a01b0316604086015281156138ec576138c08160c00151826080015101615107565b855103855260a08101516138d390615107565b85602001516138e29190616872565b602086015261392f565b6138f98160a00151615107565b855101855260c0810151608082015161391a916139159161676a565b615107565b856020015161392991906166a5565b60208601525b602083015161ffff1615613969576000836020015161ffff168260c001516139579190616892565b60c08301805182900390529790970196505b604083015161ffff16156139a3576000836040015161ffff168260c001516139919190616892565b60c08301805182900390529690960195505b60a08501516001600160801b0316156139e2576139d68160c00151600160801b8760a001516001600160801b0316613c31565b60808601805190910190525b80606001516001600160a01b031685604001516001600160a01b031603613acf57806040015115613aa6576000613a4e8b83602001518c60400151613a2b578d60010154613a31565b88608001515b8d60400151613a4457896080015161511d565b8e6002015461511d565b9050896040015115613a5e576000035b600081600f0b12613a7e57808660a00151613a7991906167a2565b613a96565b613a878161652f565b8660a00151613a96919061667e565b6001600160801b031660a0870152505b8860400151613ab9578060200151613ac2565b60018160200151035b60020b606086015261373e565b80600001516001600160a01b031685604001516001600160a01b031614613afd57613ac28560400151614887565b61373e565b604085015160608601518b546001600160b81b031916600160a01b62ffffff909216919091026001600160a01b031916176001600160a01b03909116178a5560a085015183516001600160801b03918216911614613b815760a085015160038b0180546001600160801b0319166001600160801b039092169190911790555b886040015115613b9a57608085015160018b0155613ba5565b608085015160028b01555b8115158960400151151503613bde57613bd7613bca86600001518b6060015103612949565b6125538760200151612949565b9750613c04565b613c01613bee8660200151612949565b61255387600001518c6060015103612949565b97505b5050505092959194509250565b6001600160a01b03161590565b6001600160801b031660809190911b1790565b60008383028160001985870982811083820303915050808411613c5357600080fd5b80600003613c6657508290049050611b58565b6000848688096000868103871696879004966002600389028118808a02820302808a02820302808a02820302808a02820302808a02820302808a02909103029181900381900460010186841190950394909402919094039290920491909117919091029150509392505050565b61ffff811615613d4a576000613cea604083616838565b90506103ff600683901c1661ffff821615801590613d0c5750600461ffff8316105b80613d29575061ffff811615801590613d295750600461ffff8216105b15613d4757604051637e2df70960e11b815260040160405180910390fd5b50505b50565b613d5f846001600160a01b0316615159565b156129415760405163bc197c8160e01b81526001600160a01b0385169063bc197c8190613d9890899089908890889088906004016168a6565b6020604051808303816000875af1925050508015613dd3575060408051601f3d908101601f19168201909252613dd091810190616348565b60015b613e7f57613ddf6168f8565b806308c379a003613e185750613df3616914565b80613dfe5750613e1a565b8060405162461bcd60e51b8152600401610a569190615900565b505b60405162461bcd60e51b815260206004820152603460248201527f455243313135353a207472616e7366657220746f206e6f6e2d455243313135356044820152732932b1b2b4bb32b91034b6b83632b6b2b73a32b960611b6064820152608401610a56565b6001600160e01b0319811663bc197c8160e01b146132fb5760405162461bcd60e51b8152600401610a569061699d565b8060020b8260020b12613ee35760405163c4433ed560e01b8152600283810b600483015282900b6024820152604401610a56565b620d89e719600283900b1215613f0e578160405163d5e2f7ab60e01b8152600401610a569190615848565b613f1b620d89e719616859565b60020b8160020b1315611b6a578060405163035aeeff60e31b8152600401610a569190615848565b600283900b6000908152600485016020526040812080548291906001600160801b0381169060801c600f87900b8413613f8557613f8087836167a2565b613f98565b613f8e8761652f565b613f98908361667e565b6001600160801b0380821615908416801591909114159650909450600003613fe6578854600160a01b9004600290810b9089900b13613fe6576001808a0154908401556002808a0154908401555b600086613ffc57613ff788836167c2565b614006565b61400688836169e5565b90508060801b851784555050505094509492505050565b6000621b13d08201600290810b9083900b6001600160801b03028161404457614044616822565b0492915050565b8060020b8260020b8161406057614060616822565b0760020b1561409057604051636a6c79f360e11b8152600283810b600483015282900b6024820152604401610a56565b6000806140b18360020b8560020b816140ab576140ab616822565b05615168565b600191820b60009081526020979097526040909620805460ff9097169190911b90951890945550505050565b600282810b600081815260048601602052604080822085850b835290822087549294859492939192600160a01b909204900b90811215614136578160010154836001015403945081600201548360020154039350614189565b8560020b8160020b12614162578260010154826001015403945082600201548260020154039350614189565b81600101548360010154896001015403039450816002015483600201548960020154030393505b505050935093915050565b6040805160608101825285546001600160801b0316815260018601546020820152600286015491810191909152600090819081600f87900b81036142055781516001600160801b03166000036141fd57604051632bbfae4960e21b815260040160405180910390fd5b50805161423a565b600087600f0b1261422257815161421d9088906167a2565b614237565b61422b8761652f565b8251614237919061667e565b90505b61425c8260200151870383600001516001600160801b0316600160801b613c31565b93506142808260400151860383600001516001600160801b0316600160801b613c31565b925086600f0b6000146142a75787546001600160801b0319166001600160801b0382161788555b5050600186019390935560029094015591929050565b600290810b6000908152600490920160205260408220828155600181018390550155565b60008060008360020b126142f8578260020b614300565b8260020b6000035b9050620d89e8811115614326576040516333a3bdff60e21b815260040160405180910390fd5b60008160011660000361433d57600160801b61434f565b6ffffcb933bd6fad37aa2d162d1a5940015b6001600160881b031690506002821615614379576ffff97272373d413259a46990580e213a0260801c5b6004821615614398576ffff2e50f5f656932ef12357cf3c7fdcc0260801c5b60088216156143b7576fffe5caca7e10e4e61c3624eaa0941cd00260801c5b60108216156143d6576fffcb9843d60f6159c9db58835c9266440260801c5b60208216156143f5576fff973b41fa98c081472e6896dfb254c00260801c5b6040821615614414576fff2ea16466c96a3843ec78b326b528610260801c5b6080821615614433576ffe5dee046a99a2a811c461f1969c30530260801c5b610100821615614453576ffcbe86c7900a88aedcffc83b479aa3a40260801c5b610200821615614473576ff987a7253ac413176f2b074cf7815e540260801c5b610400821615614493576ff3392b0822b70005940c7a398e4b70f30260801c5b6108008216156144b3576fe7159475a2c29b7443b29c7fa6e889d90260801c5b6110008216156144d3576fd097f3bdfd2022b8845ad8f792aa58250260801c5b6120008216156144f3576fa9f746462d870fdf8a65dc1f90e061e50260801c5b614000821615614513576f70d869a156d2a1b890bb3df62baf32f70260801c5b618000821615614533576f31be135f97d08fd981231505542fcfa60260801c5b62010000821615614554576f09aa508b5b7a84e1c677de54f3e99bc90260801c5b62020000821615614574576e5d6af8dedb81196699c329225ee6040260801c5b62040000821615614593576d2216e584f5fa1ea926041bedfe980260801c5b620800008216156145b0576b048a170391f7dc42444e8fa20260801c5b60008460020b13156145d15780600019816145cd576145cd616822565b0490505b600160201b8106156145e45760016145e7565b60005b60ff16602082901c0192505050919050565b60008082600f0b1261461a57614615613915858585600161517a565b610b52565b61462d613915858585600003600061517a565b600003949350505050565b6000611b586146478360801c90565b6146518560801c90565b61465b91906167c2565b8385612dc7565b60008082600f0b1261467e576146156139158585856001615231565b61462d6139158585856000036000615231565b614699615700565b60006146a58360801c90565b6040805160808101825286546001600160a01b0381168252600160a01b810460020b602083015262ffffff600160b81b82048116838501819052600160d01b9092049081166060840181905294955087949293600091610fff166147099190616838565b9050603f600684901c1660006147246040610fff8616616838565b9050603f600685901c166000600f8a900b128015614746575060008461ffff16115b156147725761ffff84166147598a61652f565b6147639190616a12565b6001600160801b031660408b01525b600088600f0b128015614789575060008361ffff16115b156147b55761ffff831661479c8961652f565b6147a69190616a12565b6001600160801b031660608b01525b60008261ffff161180156147cd575060008a60400151115b156147fe578161ffff168a604001516147e69190616892565b808b5260408b0180516147fa908390616251565b9052505b60008161ffff16118015614816575060008a60600151115b1561484b578061ffff168a6060015161482f9190616892565b60208b0181905260608b018051614847908390616251565b9052505b50505050505050505092915050565b6000611b586148698360801c90565b6148738560801c90565b61487d91906169e5565b61255384866169e5565b60006401000276a36001600160a01b03831610806148c2575073fffd8963efd1fc6a506488495d951d5263988d266001600160a01b03831610155b156148e05760405163015680db60e11b815260040160405180910390fd5b600160201b600160c01b03602083901b166001600160801b03811160071b81811c6001600160401b03811160061b90811c63ffffffff811160051b90811c61ffff811160041b90811c60ff8111600390811b91821c600f811160021b90811c918211600190811b92831c9790881196179094179092171790911717176080811061497257607f810383901c915061497c565b80607f0383901b91505b908002607f81811c60ff83811c9190911c800280831c81831c1c800280841c81841c1c800280851c81851c1c800280861c81861c1c800280871c81871c1c800280881c81881c1c800280891c81891c1c8002808a1c818a1c1c8002808b1c818b1c1c8002808c1c818c1c1c8002808d1c818d1c1c8002808e1c9c81901c9c909c1c80029c8d901c9e9d607f198f0160401b60c09190911c6001603f1b161760c19b909b1c6001603e1b169a909a1760c29990991c6001603d1b169890981760c39790971c6001603c1b169690961760c49590951c6001603b1b169490941760c59390931c6001603a1b169290921760c69190911c600160391b161760c79190911c600160381b161760c89190911c600160371b161760c99190911c600160361b161760ca9190911c600160351b161760cb9190911c600160341b161760cc9190911c600160331b161760cd9190911c600160321b1617693627a301d71055774c8581026f028f6481ab7f045a5af012a19d003aa9198101608090811d906fdb2df09e81959a81455e260799a0632f8301901d600281810b9083900b14614b4a57886001600160a01b0316614b2f826142e1565b6001600160a01b03161115614b445781614b4c565b80614b4c565b815b9998505050505050505050565b6001600160a01b038316614bbb5760405162461bcd60e51b815260206004820152602360248201527f455243313135353a206275726e2066726f6d20746865207a65726f206164647260448201526265737360e81b6064820152608401610a56565b336000614bc784614cc6565b90506000614bd484614cc6565b6040805160208082018352600091829052888252600481528282206001600160a01b038b1683529052205490915084811015614c5e5760405162461bcd60e51b8152602060048201526024808201527f455243313135353a206275726e20616d6f756e7420657863656564732062616c604482015263616e636560e01b6064820152608401610a56565b60008681526004602090815260408083206001600160a01b038b81168086529184528285208a8703905582518b81529384018a9052909290881691600080516020616a93833981519152910160405180910390a46040805160208101909152600090526132fb565b60408051600180825281830190925260609160009190602080830190803683370190505090508281600081518110614d0057614d006163ca565b602090810291909101015292915050565b614d23846001600160a01b0316615159565b156129415760405163f23a6e6160e01b81526001600160a01b0385169063f23a6e6190614d5c9089908990889088908890600401616a38565b6020604051808303816000875af1925050508015614d97575060408051601f3d908101601f19168201909252614d9491810190616348565b60015b614da357613ddf6168f8565b6001600160e01b0319811663f23a6e6160e01b146132fb5760405162461bcd60e51b8152600401610a569061699d565b60008060008460020b8660020b81614ded57614ded616822565b05905060008660020b128015614e1a57508460020b8660020b81614e1357614e13616822565b0760020b15155b15614e2457600019015b8315614e9757600080614e3683615168565b600182810b600090815260208d9052604090205460ff83169190911b80016000190190811680151597509294509092509085614e7957888360ff16860302614e8c565b88614e83826152b8565b840360ff168603025b965050505050614f0b565b600080614ea683600101615168565b600182810b600090815260208d9052604090205460ff83169190911b600019011990811680151597509294509092509085614eee57888360ff0360ff16866001010102614f04565b8883614ef983615352565b0360ff168660010101025b9650505050505b5094509492505050565b60008080806001600160a01b03808916908a161015818712801590614f9a576000614f4e8989620f42400362ffffff16620f4240613c31565b905082614f6757614f628c8c8c6001615231565b614f74565b614f748b8d8c600161517a565b9550858110614f85578a9650614f94565b614f918c8b838661543b565b96505b50614fe4565b81614fb157614fac8b8b8b600061517a565b614fbe565b614fbe8a8c8b6000615231565b9350838860000310614fd257899550614fe4565b614fe18b8a8a60000385615487565b95505b6001600160a01b038a8116908716148215615047578080156150035750815b61501957615014878d8c600161517a565b61501b565b855b9550808015615028575081155b61503e57615039878d8c6000615231565b615040565b845b9450615091565b8080156150515750815b615067576150628c888c6001615231565b615069565b855b9550808015615076575081155b61508c576150878c888c600061517a565b61508e565b845b94505b811580156150a157508860000385115b156150ad578860000394505b8180156150cc57508a6001600160a01b0316876001600160a01b031614155b156150db5785890393506150f8565b6150f5868962ffffff168a620f42400362ffffff166154d3565b93505b50505095509550955095915050565b60006001600160ff1b0382111561235b57600080fd5b600292830b600090815260049094016020526040909320600181018054909203909155908101805490920390915554600160801b9004600f0b90565b6001600160a01b03163b151590565b60020b600881901d9161010090910790565b6000836001600160a01b0316856001600160a01b0316111561519a579293925b600160601b600160e01b03606084901b166001600160a01b0386860381169087166151c457600080fd5b836151fa57866001600160a01b03166151e78383896001600160a01b0316613c31565b816151f4576151f4616822565b04615226565b6152266152118383896001600160a01b03166154d3565b886001600160a01b0316808204910615150190565b979650505050505050565b6000836001600160a01b0316856001600160a01b03161115615251579293925b81615285576152806001600160801b03841661526d8787616a72565b6001600160a01b0316600160601b613c31565b6152af565b6152af6001600160801b03841661529c8787616a72565b6001600160a01b0316600160601b6154d3565b95945050505050565b60008082116152c657600080fd5b600160801b82106152d957608091821c91015b600160401b82106152ec57604091821c91015b600160201b82106152ff57602091821c91015b62010000821061531157601091821c91015b610100821061532257600891821c91015b6010821061533257600491821c91015b6004821061534257600291821c91015b6002821061295a57600101919050565b600080821161536057600080fd5b5060ff6001600160801b0382161561537b57607f1901615383565b608082901c91505b6001600160401b0382161561539b57603f19016153a3565b604082901c91505b63ffffffff8216156153b857601f19016153c0565b602082901c91505b61ffff8216156153d357600f19016153db565b601082901c91505b60ff8216156153ed57600719016153f5565b600882901c91505b600f821615615407576003190161540f565b600482901c91505b60038216156154215760011901615429565b600282901c91505b600182161561295a5760001901919050565b600080856001600160a01b03161161545257600080fd5b6000846001600160801b03161161546857600080fd5b8161547a576152808585856001615513565b6152af85858560016155fa565b600080856001600160a01b03161161549e57600080fd5b6000846001600160801b0316116154b457600080fd5b816154c65761528085858560006155fa565b6152af8585856000615513565b60006154e0848484613c31565b9050600082806154f2576154f2616822565b8486091115611b5857600019811061550957600080fd5b6001019392505050565b600081156155855760006001600160a01b038411156155495761554484600160601b876001600160801b0316613c31565b615560565b6155606001600160801b038616606086901b616892565b905061557d615578826001600160a01b03891661676a565b6156ea565b915050610b52565b60006001600160a01b038411156155b3576155ae84600160601b876001600160801b03166154d3565b6155d0565b6155d0606085901b6001600160801b038716808204910615150190565b905080866001600160a01b0316116155e757600080fd5b61557d816001600160a01b038816616251565b60008260000361560b575083610b52565b600160601b600160e01b03606085901b16821561569d576001600160a01b0386168481029085828161563f5761563f616822565b040361566f5781810182811061566d5761566383896001600160a01b0316836154d3565b9350505050610b52565b505b5061557d81856156886001600160a01b038a1683616892565b615692919061676a565b808204910615150190565b6001600160a01b038616848102908582816156ba576156ba616822565b041480156156c757508082115b6156d057600080fd5b808203615663615578846001600160a01b038b16846154d3565b806001600160a01b038116811461295a57600080fd5b6040518060800160405280600081526020016000815260200160008152602001600081525090565b6040518060c00160405280600081526020016000815260200160006001600160a01b03168152602001600060020b81526020016000815260200160006001600160801b031681525090565b6001600160a01b0381168114613d4a57600080fd5b6000806040838503121561579b57600080fd5b82356157a681615773565b946020939093013593505050565b6001600160e01b031981168114613d4a57600080fd5b6000602082840312156157dc57600080fd5b8135611b58816157b4565b8035600281900b811461295a57600080fd5b6000806000806080858703121561580f57600080fd5b84359350602085013561582181615773565b925061582f604086016157e7565b915061583d606086016157e7565b905092959194509250565b60029190910b815260200190565b60008060006060848603121561586b57600080fd5b833561587681615773565b9250602084013561588681615773565b929592945050506040919091013590565b6000602082840312156158a957600080fd5b5035919050565b60005b838110156158cb5781810151838201526020016158b3565b50506000910152565b600081518084526158ec8160208601602086016158b0565b601f01601f19169290920160200192915050565b602081526000611b5860208301846158d4565b60006020828403121561592557600080fd5b8135611b5881615773565b634e487b7160e01b600052604160045260246000fd5b606081016001600160401b038111828210171561596557615965615930565b60405250565b601f8201601f191681016001600160401b038111828210171561599057615990615930565b6040525050565b62ffffff81168114613d4a57600080fd5b600060a082840312156159ba57600080fd5b60405160a081016001600160401b03811182821017156159dc576159dc615930565b60405290508082356159ed81615773565b815260208301356159fd81615773565b60208201526040830135615a1081615997565b6040820152615a21606084016157e7565b60608201526080830135615a3481615773565b6080919091015292915050565b60008083601f840112615a5357600080fd5b5081356001600160401b03811115615a6a57600080fd5b602083019150836020828501011115615a8257600080fd5b9250929050565b60008060008060006101008688031215615aa257600080fd5b615aac87876159a8565b945060a0860135935060c0860135925060e08601356001600160401b03811115615ad557600080fd5b615ae188828901615a41565b969995985093965092949392505050565b600060a08284031215615b0457600080fd5b611b5883836159a8565b60006001600160401b03821115615b2757615b27615930565b5060051b60200190565b600082601f830112615b4257600080fd5b81356020615b4f82615b0e565b604051615b5c828261596b565b83815260059390931b8501820192828101915086841115615b7c57600080fd5b8286015b84811015615b975780358352918301918301615b80565b509695505050505050565b60006001600160401b03821115615bbb57615bbb615930565b50601f01601f191660200190565b600082601f830112615bda57600080fd5b8135615be581615ba2565b604051615bf2828261596b565b828152856020848701011115615c0757600080fd5b82602086016020830137600092810160200192909252509392505050565b600080600080600060a08688031215615c3d57600080fd5b8535615c4881615773565b94506020860135615c5881615773565b935060408601356001600160401b0380821115615c7457600080fd5b615c8089838a01615b31565b94506060880135915080821115615c9657600080fd5b615ca289838a01615b31565b93506080880135915080821115615cb857600080fd5b50615cc588828901615bc9565b9150509295509295909350565b60008060408385031215615ce557600080fd5b50508035926020909101359150565b60008060408385031215615d0757600080fd5b82356001600160401b0380821115615d1e57600080fd5b818501915085601f830112615d3257600080fd5b81356020615d3f82615b0e565b604051615d4c828261596b565b83815260059390931b8501820192828101915089841115615d6c57600080fd5b948201945b83861015615d93578535615d8481615773565b82529482019490820190615d71565b96505086013592505080821115615da957600080fd5b50615db685828601615b31565b9150509250929050565b600081518084526020808501945080840160005b83811015615df057815187529582019590820190600101615dd4565b509495945050505050565b602081526000611b586020830184615dc0565b600080600080848603610120811215615e2657600080fd5b615e3087876159a8565b94506060609f1982011215615e4457600080fd5b50604051615e5181615946565b615e5d60a087016157e7565b8152615e6b60c087016157e7565b602082015260e0860135604082015292506101008501356001600160401b03811115615e9657600080fd5b615ea287828801615a41565b95989497509550505050565b60008060008060e08587031215615ec457600080fd5b615ece86866159a8565b935060a0850135615ede81615773565b925060c08501356001600160401b03811115615e9657600080fd5b60008060208385031215615f0c57600080fd5b82356001600160401b03811115615f2257600080fd5b615f2e85828601615a41565b90969095509350505050565b6001600160a01b0391909116815260200190565b8035801515811461295a57600080fd5b60008060408385031215615f7157600080fd5b8235615f7c81615773565b9150615f8a60208401615f4e565b90509250929050565b60008060408385031215615fa657600080fd5b8235615fb181615773565b91506020830135615fc181615773565b809150509250929050565b60008083601f840112615fde57600080fd5b5081356001600160401b03811115615ff557600080fd5b6020830191508360208260051b8501011115615a8257600080fd5b60008060008060008060008060a0898b03121561602c57600080fd5b883561603781615773565b9750602089013561604781615773565b965060408901356001600160401b038082111561606357600080fd5b61606f8c838d01615fcc565b909850965060608b013591508082111561608857600080fd5b6160948c838d01615fcc565b909650945060808b01359150808211156160ad57600080fd5b506160ba8b828c01615a41565b999c989b5096995094979396929594505050565b60008060008060008060a087890312156160e757600080fd5b86356160f281615773565b9550602087013561610281615773565b9450604087013593506060870135925060808701356001600160401b0381111561612b57600080fd5b61613789828a01615a41565b979a9699509497509295939492505050565b600080600080600060a0868803121561616157600080fd5b853561616c81615773565b9450602086013561617c81615773565b9350604086013592506060860135915060808601356001600160401b038111156161a557600080fd5b615cc588828901615bc9565b6000806000808486036101208112156161c957600080fd5b6161d387876159a8565b94506060609f19820112156161e757600080fd5b506040516161f481615946565b61620060a08701615f4e565b815260c0860135602082015260e086013561621a81615773565b604082015292506101008501356001600160401b03811115615e9657600080fd5b634e487b7160e01b600052601160045260246000fd5b81810381811115610a8457610a8461623b565b600181811c9082168061627857607f821691505b60208210810361629857634e487b7160e01b600052602260045260246000fd5b50919050565b80516001600160a01b03908116835260208083015182169084015260408083015162ffffff169084015260608083015160020b9084015260809182015116910152565b81835281816020850137506000828201602090810191909152601f909101601f19169091010190565b6001600160a01b03871681526000610120616328602084018961629e565b8660c08401528560e084015280610100840152614b4c81840185876162e1565b60006020828403121561635a57600080fd5b8151611b58816157b4565b6020808252602e908201527f455243313135353a2063616c6c6572206973206e6f7420746f6b656e206f776e60408201526d195c881bdc88185c1c1c9bdd995960921b606082015260800190565b8082028115828204841417610a8457610a8461623b565b634e487b7160e01b600052603260045260246000fd5b6000600182016163f2576163f261623b565b5060010190565b805160020b8252602081015160020b6020830152604081015160408301525050565b6001600160a01b03861681526000610140616439602084018861629e565b61644660c08401876163f9565b8061012084015261645a81840185876162e1565b98975050505050505050565b6001600160a01b03871681526000610160616484602084018961629e565b61649160c08401886163f9565b8561012084015280610140840152614b4c81840185876162e1565b6001600160a01b038681168252600090610100906164cd602085018961629e565b861660c084015260e0830181905261645a81840185876162e1565b6001600160a01b03878116825260009061012090616509602085018a61629e565b80881660c0850152508560020b60e084015280610100840152614b4c81840185876162e1565b6000600f82900b6001607f1b81016165495761654961623b565b60000392915050565b602081526000610b526020830184866162e1565b60006020828403121561657857600080fd5b81516001600160401b0381111561658e57600080fd5b8201601f8101841361659f57600080fd5b80516165aa81615ba2565b6040516165b7828261596b565b8281528660208486010111156165cc57600080fd5b6165dd8360208301602087016158b0565b9695505050505050565b805115158252602080820151908301526040908101516001600160a01b0316910152565b6001600160a01b03861681526000610140616629602084018861629e565b61644660c08401876165e7565b60006020828403121561664857600080fd5b8151611b5881615997565b6001600160a01b03871681526000610160616671602084018961629e565b61649160c08401886165e7565b6001600160801b0382811682821603908082111561669e5761669e61623b565b5092915050565b80820182811260008312801582168215821617156166c5576166c561623b565b505092915050565b60a08101610a84828461629e565b60208082526025908201527f455243313135353a207472616e7366657220746f20746865207a65726f206164604082015264647265737360d81b606082015260800190565b6020808252602a908201527f455243313135353a20696e73756666696369656e742062616c616e636520666f60408201526939103a3930b739b332b960b11b606082015260800190565b80820180821115610a8457610a8461623b565b6040815260006167906040830185615dc0565b82810360208401526152af8185615dc0565b6001600160801b0381811683821601908082111561669e5761669e61623b565b600f81810b9083900b0160016001607f1b03811360016001607f1b031982121715610a8457610a8461623b565b60006020828403121561680157600080fd5b5051919050565b6001600160a01b0392831681529116602082015260400190565b634e487b7160e01b600052601260045260246000fd5b600061ffff8084168061684d5761684d616822565b92169190910692915050565b60008160020b627fffff1981036165495761654961623b565b818103600083128015838313168383128216171561669e5761669e61623b565b6000826168a1576168a1616822565b500490565b6001600160a01b0386811682528516602082015260a0604082018190526000906168d290830186615dc0565b82810360608401526168e48186615dc0565b9050828103608084015261645a81856158d4565b600060033d11156169115760046000803e5060005160e01c5b90565b600060443d10156169225790565b6040516003193d81016004833e81513d6001600160401b03808311602484018310171561695157505050505090565b82850191508151818111156169695750505050505090565b843d87010160208285010111156169835750505050505090565b6169926020828601018761596b565b509095945050505050565b60208082526028908201527f455243313135353a204552433131353552656365697665722072656a656374656040820152676420746f6b656e7360c01b606082015260800190565b600f82810b9082900b0360016001607f1b0319811260016001607f1b0382131715610a8457610a8461623b565b60006001600160801b0383811680616a2c57616a2c616822565b92169190910492915050565b6001600160a01b03868116825285166020820152604081018490526060810183905260a060808201819052600090615226908301846158d4565b6001600160a01b0382811682821603908082111561669e5761669e61623b56fec3d58168c5ae7397731d063d5bbf3d657854427343f4c083240f7aacaa2d0f62760a9a962ae3d184e99c0483cf5684fb3170f47116ca4f445c50209da4f4f906a264697066735822122023f27def18bcf13c027f8040ae040b3ac20d2d3d4db2794c7f44d2415f599d7664736f6c63430008140033",
  "linkReferences": {},
  "deployedLinkReferences": {}
}